:020000040800F2
:10000000B0BD0020118A00083155000833550008A2
:100010004B5500084F5500085355000800000000DC
:10002000000000000000000000000000575500081C
:10003000595500080000000097AC0008FBAE00080E
:100040002B8A00082B8A00082B8A00082B8A0008BC
:100050002B8A00082B8A00082B8A00082B8A0008AC
:100060002B8A00082B8A00082B8A00082B8A00089C
:100070002B8A00082B8A00082B8A00082B8A00088C
:100080002B8A0008EF0500082B8A00082B8A00083D
:10009000491300082B8A00082B8A00082B8A0008C5
:1000A0002B8A00082B8A00082B8A00082B8A00085C
:1000B000ED0300081F2200082B8A00082B8A000885
:1000C0002B8A00082B8A00082B8A00082B8A00083C
:1000D0002B8A0008C5230008150600082B8A000893
:1000E0002B8A00082B8A00082B8A00082B8A00081C
:1000F0002B8A00082B8A00082B8A00082B8A00080C
:100100002B8A00082B8A00086D1800082B8A00082B
:100110002B8A00082B8A00082B8A00082B8A0008EB
:100120002B8A00082B8A00082B8A00082B8A0008DB
:100130002B8A00082B8A00082B8A00082B8A0008CB
:100140009D1B0008D31C00082B8A00082B8A00087E
:100150002B8A00082B8A00089F2300082B8A00089E
:100160002B8A00082B8A00082B8A00082B8A00089B
:100170002B8A00082B8A00082B8A00082B8A00088B
:100180002B8A00082B8A000800F002F800F053F8D0
:100190000AA090E8000C82448344AAF10107DA45E2
:1001A00001D100F048F8AFF2090EBAE80F0013F0E1
:1001B000010F18BFFB1A43F0010318479CE400002D
:1001C000BCE40000103A24BF78C878C1FAD85207BE
:1001D00024BF30C830C144BF04680C6070470000C1
:1001E0000023002400250026103A28BF78C1FBD840
:1001F000520728BF30C148BF0B60704764290AF01E
:100200006387002070471FB50DF099FF9DE803003C
:100210000BF09EF80BF018FD0400002000210DF0FB
:10022000A3F9401C6060002000210DF087F9E06018
:100230001FBD10B510BD0BF00EFA1146FFF7E3FF1E
:1002400000F055F80BF086FC03B4FFF7F2FF03BC97
:100250000BF0F4FC14E0424CD4F8F44323B2404CCD
:10026000D4F8AC4222B23E4CD4F8E04321B23C4C2C
:10027000D4F8984220B202F010F964200AF014FC7D
:10028000E9E702E064200AF00FFCFBE7032005F039
:100290000FFF012005F020F904E004F0FAFFC82068
:1002A0000AF002FCF9E770B50446002500BF0AF029
:1002B0003AFE00F0BFFC0AF0CDFC05460723294AB0
:1002C000002129480AF0AAF81023284A00212848CA
:1002D0000AF0A4F81223274A002127480AF09EF8C2
:1002E00005200AF019FB28460AF0B8FC70BD10B5CD
:1002F00008F0F4FA4FF4806101F007021F4B186810
:100300004FF6FF0318401E4B034343EA02201B4BEA
:10031000186000BF00F0CCFE01F052FB00F03AF88C
:1003200001F052FF01F072FA00F0C6F801F098FFF8
:1003300002F016F90221134804F018FD01F04EFEF8
:1003400000201149087008F0BBFC05230F4A00216A
:100350000F480AF063F808F0DAFD002010BD000035
:1003600044700020C40800208D020008C40C002046
:1003700083020008C40E0020550200080CED00E0C6
:100380000000FA053012002000000020C404002004
:10039000A70200081FB50121084607F0C6F842F67B
:1003A000DF6002900620ADF804000020ADF80600E2
:1003B000ADF80C0001A94FF0804007F06EFA1C2048
:1003C0008DF8000001208DF801008DF802008DF8F5
:1003D0000300684605F08BFE01221146900707F0E6
:1003E000FDFE0121880707F0E1FA1FBD10B50121CC
:1003F000880707F00AFF012853D10121800707F081
:1004000015FF002432E004EBC40000EB4000254956
:1004100011F8300028B304EBC40000EB400001EBFE
:10042000C0004078F0B104EBC40000EB400001EBE9
:10043000C0008078012806D0022805D004280BD0FF
:1004400005280DD104E00CE020B202F0ADFB08E07D
:1004500020B202F0DCFC04E020B202F001FC00E07B
:1004600000BF02E020B202F0D2FC641C042CCADB04
:100470000C4CB4F98E32B4F9B621B4F9DE10B4F9EB
:10048000060003F00BF903F073F90749074802F07F
:1004900075F80748407A20B102220349054804F064
:1004A000A2FC10BD20690020245C002000680040F0
:1004B000480F00203012002000B597B001210846F7
:1004C00007F000F80121480407F02FF80121480542
:1004D00006F0F8FF07220221FE4806F038FE072248
:1004E0000321FC4806F033FE0C20119002208DF809
:1004F000480000208DF84A0003208DF849000020B4
:100500008DF84B0011A9F34806F096FD4FF4E13049
:1005100013900020ADF85000ADF85200ADF8540033
:10052000ADF858000C20ADF8560013A9EA4807F0C2
:10053000A7FF012240F22551E74808F0DFF8262006
:100540008DF8400004208DF8410001208DF8420014
:100550008DF8430010A805F0CAFD0121DE4808F01F
:1005600017F8DE4806F026FB4FF0006001900020EF
:10057000059040200490DA480390D748001D02906F
:100580000015079000200690099008900A904FF4FB
:1005900040300B9000200C9001200D9000200F9017
:1005A0000E9001A9CD4806F0A7FBCE49CB4806F036
:1005B00056FCCC49C94806F0ADFC01221021C748C1
:1005C00006F061FC11208DF8400007208DF84100F5
:1005D00001208DF842008DF8430010A805F087FD3A
:1005E00001228021BC4808F080F817B000BD10B58A
:1005F000BC49BA4806F064FC01280AD1B949B74899
:1006000006F02DFCB749B54806F084FC0020B64939
:10061000C87310BD10B52DED028B002440F22531BA
:10062000AD4808F0A6F850B1AB4807F0E0FF002055
:10063000AE4908702021AE480AF048FEECE240F2D4
:100640002551A54808F095F80028F7D02021A248A8
:1006500008F086F840F225519F4808F0C1F89E48FE
:1006600007F0C5FFC4B2A148007800F0400008B30D
:100670009E48007800F0800020BBFF2C06D19B48EC
:10068000007840F08000994908701BE09748007896
:1006900000F03F019648445494480078401C934928
:1006A00008700846007800F03F0028280ADD002086
:1006B000087007E0EE2C05D18C48007840F040002F
:1006C0008A4908708948007800F080000028B5D079
:1006D000884890F82102012804D1864890F8230226
:1006E00085490870834890F8230230B1012805D06D
:1006F000022879D0062800D1F6E184E27D4890F8FE
:100700002502082822D17B4890F8260211281DD105
:10071000784890F82702302806D0312808D03228AF
:100720000AD0332810D10BE00020744908700CE087
:1007300001207249087008E002207049087004E046
:1007400003206E49087000E000BF00BF694890F8C0
:100750002502092821D1674890F8260210281CD1CB
:10076000644890F8280258B1012814D163490978E7
:1007700001EBC10101EB4101614A02F831000BE0DC
:1007800000205E49097801EBC10101EB41015C4A9F
:1007900002F8310000E000BF00BF564890F8250283
:1007A0000A2824D1534890F8260210281FD1514816
:1007B00090F8280260B1012817D15049097801EB5F
:1007C000C10101EB41014E4A02EBC10148700DE04D
:1007D00000204A49097801EBC10101EB4101484A77
:1007E00002EBC101487001E099E000BF00BF414841
:1007F00090F82502032834D13E4890F826021128AB
:100800002FD13C4890F82702322804D034280ED04B
:10081000352824D117E002203849097801EBC101BD
:1008200001EB4101364A02EBC101887018E0042057
:100830003249097801EBC10101EB4101304A02EB79
:10084000C10188700CE005202C49097801EBC10139
:1008500001EB41012A4A02EBC101887000E000BFB0
:1008600000BF244890F8250201281CD1214890F8A7
:100870002602112817D11E48C01D0CF06DF8B0EEED
:10088000408AF0EE608A51EC180B0DF005F901B2C8
:100890001A48007800EBC00000EB4000184A02EB59
:1008A000C0000181AFE1134890F82502022835D13C
:1008B000104890F82602112830D10D48C01D0CF0C8
:1008C0004BF8B0EE408AF0EE608A51EC180B0DF058
:1008D000E3F817E00000024000440040A06002403E
:1008E0007D10002000802020480F00200200002002
:1008F0007D1100205D0F0020010000200400002079
:100900002069002000B2FE49097801EBC10101EB2A
:100910004101FC4A02EBC101888074E173E1FA48AD
:1009200090F82502082822D1F74890F826021128CD
:100930001DD1F54890F82702302812D0312804D074
:10094000322806D0332810D107E00120EF49087083
:100950000CE00220ED49087008E00320EB49087024
:1009600004E00020E949087000E000BF00BFE6484D
:1009700090F82502092821D1E34890F82602102892
:100980001CD1E14890F8280258B1012814D1DF4960
:10099000097801EBC10202EB4111DD4A02F8310096
:1009A0000BE00020D949097801EBC10202EB4111AB
:1009B000D74A02F8310000E000BF00BFD24890F8EB
:1009C00025020A2823D1D04890F8260210281ED1EB
:1009D000CD4890F8280260B1012816D1CB4909789A
:1009E00001EBC10202EB4111C94A02EBC10148709F
:1009F0000CE00020C549097801EBC10202EB41116E
:100A0000C34A02EBC101487000E000BF00BFBE480E
:100A100090F82502032826D1BB4890F82602112819
:100A200021D1B94890F82702322802D0352818D1B0
:100A30000BE00220B549097801EBC10202EB41113C
:100A4000B34A02EBC101C8700CE00520AF49097838
:100A500001EBC10202EB4111AD4A02EBC101C870CA
:100A600000E000BF00BFA84890F8250201281AD175
:100A7000A54890F82602112815D1A6480BF06CFF66
:100A8000B0EE408AF0EE608A51EC180B0DF004F8DD
:100A90009E49097801EBC10202EB41119C4A02EB2D
:100AA000C1018860AFE0984890F8250202281AD169
:100AB000954890F82602112815D196480BF04CFF66
:100AC000B0EE408AF0EE608A51EC180B0CF0E4FFB7
:100AD0008E49097801EBC10202EB41118C4A02EB0D
:100AE000C10148618FE000BF874890F825020128C6
:100AF00012D1854890F8260211280DD185480BF0B7
:100B00002BFFB0EE408AF0EE608A51EC180B0CF02F
:100B1000C3FF00B2804948807B4890F82502022834
:100B200012D1794890F8260211280DD179480BF09E
:100B300013FFB0EE408AF0EE608A51EC180B0CF017
:100B4000ABFF00B27549C8806F4890F825020328B2
:100B500012D16D4890F8260211280DD16D480BF086
:100B6000FBFEB0EE408AF0EE608A51EC180B0CF000
:100B700093FF00B269498880634890F825020428F1
:100B800007D1614890F82602102802D1012063495C
:100B900048705D4890F82502052807D15A4890F81A
:100BA0002602102802D101205C490870564890F8AE
:100BB0002502062807D1544890F82602102802D1B1
:100BC000012055494870504890F82502042807D163
:100BD0004D4890F82602102802D101204E49087095
:100BE000494890F825020C280CD1474890F8260275
:100BF000102807D1002048494870484908704870BB
:100C00004549087000BF00BF0020454908702021F9
:100C10004048C01F0AF05AFBBDEC028B10BD10B556
:100C2000044621463F4806F0C2F801213D4806F03F
:100C30009DF810BD70B52DED028B0024EE222146EB
:100C4000641C39484254B1222146641C425410228B
:100C50002146641C425400222146641C4254214611
:100C6000641C42542146641C425405222146641CE3
:100C7000425410222046611CCCB22B490A54002257
:100C80002046611CCCB228490A5401222046611C2E
:100C9000CCB225490A54FF222046611CCCB222491D
:100CA0000A54FC222046611CCCB21F490A54FF2280
:100CB0002146601CC4B21C4842542046611CCCB280
:100CC00019490A5419480078012802D002287DD118
:100CD000F7E0EE222146601CC4B213484254B12210
:100CE0002046611CCCB210490A5412222046611CD5
:100CF000CCB20D490A5400222046611CCCB217E048
:100D000004000020206900205D0F00200500002065
:100D10004470002084110020340000202A000020AC
:100D200002000020A06002407D1000200100002091
:100D3000DA490A5401222046611CCCB2D7490A5430
:100D40000025BAE005EBC50000EB4000D44901EBFB
:100D5000C000807800287CD000222046611CCCB2E4
:100D6000CE490A5401222046611CCCB2CB490A5418
:100D700000222046611CCCB2C8490A5405EBC500CC
:100D800000EB4000C64901EBC000B0F91820C5A136
:100D9000C5480AF051F9C4480AF0F6F9C2B2204633
:100DA000611CCCB2BD490A540819BF490AF0C8F900
:100DB000BD480AF0E9F92044C4B200222046611C73
:100DC000CCB2B6490A540222204600E05EE1611C22
:100DD000CCB2B2490A5400222046611CCCB2AF49C1
:100DE0000A5405EBC50000EB4000AD4901EBC00023
:100DF000B0F91420ABA1AC480AF01EF9AA480AF0D9
:100E0000C3F9C2B22046611CCCB2A4490A540819E5
:100E1000A5490AF095F9A4480AF0B6F92044C4B2ED
:100E200000222046611CCCB29C490A54092220466B
:100E3000611CCCB299490A5410222046611CCCB2E4
:100E400096490A5401222046611CCCB293490A54A7
:100E500000E031E005EBC50000EB4000904901EBFC
:100E6000C00042782046611CCCB28C490A54002252
:100E70002046611CCCB289490A540A222046611CD2
:100E8000CCB286490A5410222046611CCCB2834958
:100E90000A5401222046611CCCB280490A5405EB59
:100EA000C50000EB40007E4901EBC00042782046BF
:100EB000611CCCB279490A546D1C042DFFF642AF77
:100EC000E5E0EE222046611CCCB274490A54B122FE
:100ED0002046611CCCB271490A5412222046611C82
:100EE000CCB26E490A5400222046611CCCB26B4938
:100EF0000A5402222046611CCCB268490A540025DB
:100F0000C0E005EBC50000EB4510684901EBC000EF
:100F1000C07800287ED000222046611CCCB25F49F8
:100F20000A5401222146601CC4B25C48425400228B
:100F30002046611CCCB259490A5405EBC50000EBB0
:100F400045105A4901EBC000C26956A156480AF043
:100F500073F855480AF018F9C2B22146641C4F488C
:100F600042540146481950490AF0EAF84E480AF03E
:100F70000BF92044C4B200222046611CCCB2474980
:100F80000A5402222046611CCCB244490A54002271
:100F90002046611CCCB241490A5405EBC50000EB68
:100FA0004510424A02EBC00090ED080A10EE101AFC
:100FB00008460DF053F841EC180B53EC182B39A1EF
:100FC00039480AF039F838480AF0DEF8C2B221464A
:100FD000641C324842540146481933490AF0B0F8BB
:100FE00031480AF0D1F82044C4B200222046611CE6
:100FF000CCB22A490A5409222046611CCCB22749A6
:101000000A5410222146601CC4B2244842540122D2
:10101000204600E035E0611CCCB220490A5405EBC3
:10102000C50000EB4510214901EBC0004278204685
:10103000611CCCB219490A5400222046611CCCB272
:1010400016490A5409222046611CCCB213490A549D
:1010500010222046611CCCB210490A5401222046BD
:10106000611CCCB20D490A5405EBC50000EB4510DC
:101070000E4901EBC00042782146601CC4B207480B
:1010800042546D1C042DFFF63CAF00E000BF00BFD2
:101090002046FFF7C4FDBDEC028B70BD7D10002023
:1010A0002069002025640000C80E00204470002044
:1010B00000B58BB00020FE4908700121480606F0FB
:1010C00034FA0121084606F0FDF909220B21F948FE
:1010D00006F03DF809220C21F64806F038F8022007
:1010E0008DF81C004FF4C050069006A9F14805F099
:1010F000A3FF14208DF8040003208DF805000020C4
:101100008DF8060001208DF8070001A804F0EFFF1C
:10111000E94805F057F808A805F078F900208DF89F
:10112000260001208DF8270000208DF828008DF87A
:1011300029008DF82A008DF82B008DF822008DF8FB
:10114000230008208DF8240003208DF82500ADF839
:10115000200008A9D84805F04EF801208DF81200AB
:101160008DF8130000208DF8140046F2A000ADF8B1
:10117000080046F2C000ADF80A0046F2E000ADF803
:101180000C004FF4C240ADF80E000020ADF8100086
:1011900001208DF8150002A805F0B7F802208DF89F
:1011A000120001208DF8130000208DF814004FF478
:1011B000C140ADF8080046F22000ADF80A0046F242
:1011C0004000ADF80C0046F26000ADF80E000020C3
:1011D000ADF8100001208DF8150002A805F095F873
:1011E00003208DF8120001208DF8130000208DF8E7
:1011F00014004FF4C040ADF808004FF4C840ADF8FB
:101200000A000020ADF80C00ADF80E00ADF810009B
:1012100001208DF8150002A805F077F801220221BF
:10122000A54805F071FB0BB000BD70B504460D4636
:1012300005F52070A1494A88091D01EB02110860DB
:1012400004219E484288001D00EB02100171A27A21
:101250009A494B88091D01EB0311481D04F10B014C
:1012600009F0BDFF95484088401C322190FBF1F207
:1012700001FB12009149488070BD70B505460E46CD
:10128000144606F520708D494A88091D01EB0211AC
:101290000860082189484288001D00EB0210017196
:1012A000AA7A86494B88091D01EB0311481D05F1F7
:1012B0000B0109F094FF217880484288001D00EB63
:1012C0000210417261787D484288001D00EB0210D7
:1012D0008172A17879484288001D00EB0210C1722A
:1012E000E17876484288001D00EB021001737348D4
:1012F0004088401C322190FBF1F201FB12006F4943
:10130000488070BD70B586B005460C46164604F59B
:101310002070019000208DF80C008DF80D00082041
:101320008DF80E00002007E0654931F810200DF11E
:101330000F0121F81020401C0428F5DB01A95E48AC
:1013400005F0D2F806B070BD30B585B002215A481C
:1013500005F042FB00287DD00221574805F0D7FB5D
:101360000221554805F015FB6A460021524805F058
:10137000B0F90098C5B20098B0F5407F6BD19DF8E8
:101380000B004D2824D19DF80C004F2820D10420BB
:101390008DF80A00002415E09DF80F0000F0010010
:1013A00004EBC40101EB4411464A02F8310004EB9E
:1013B000C40000EB4410114611F8300008B10020C1
:1013C0004870641C042CE7DB29466846FFF72DFFB4
:1013D0009DF80B00532838D19DF80C00542834D1C7
:1013E00000242CE0052004EBC40101EB4411354A34
:1013F00002EBC101C8702E480078F8B904EBC400B4
:1014000000EB4410114601EBC00090ED080ABDEE60
:10141000C00A2D4880ED000A90ED000AB8EEC00A1F
:1014200004EBC40000EB441001EBC00080ED030AA4
:10143000E0B202F0ABFC01201D490870641C042CD2
:10144000D0DB29466846FFF7F0FE9DF80B004228E6
:1014500023D101E0CAE18FE09DF80C0047281CD1A0
:10146000002411E0022004EBC40101EB4411154AF1
:1014700002EBC101C870012004EBC40101EB44116F
:1014800002EBC1014870641C042CEBDB002008490E
:10149000087029466846FFF7C8FE9DF80B005028E3
:1014A0002AD19DF80C00582826D1681CC5B20DE041
:1014B0001C0000200000024000640040485F002043
:1014C000140000204470002010000020002411E0CF
:1014D00004EBC40101EB4411C54A02EBC10101F167
:1014E0002800C44900F000FEC24A29466846FFF7BA
:1014F000C4FE641C042CEBDB9DF80B0056281BD1AA
:101500009DF80C00582817D1A81CC5B2002411E082
:1015100004EBC40101EB4411B54A02EBC10101F136
:101520001C00B44900F0E0FDB24A29466846FFF7C6
:10153000A4FE641C042CEBDB9DF80B0049281AD197
:101540009DF80C00512816D1E81CC5B2002410E00B
:1015500004EBC40101EB4411A54A02EBC101081DD3
:10156000A44900F0ADFDA34A29466846FFF785FE71
:10157000641C042CECDB00BF0098B0F5407F20D940
:101580000098B0F5417F1CD80098401EC5B29DF868
:101590000B004A2815D19DF80C00562811D1DDF812
:1015A0000F00954908600846016805EBC50000EB8F
:1015B00045108F4A02EBC000816029466846FFF75C
:1015C00034FE0098B0F5417F79D90098B0F5427F9C
:1015D00075D89DF80B00532813D19DF80C005428A2
:1015E0000FD10098401FC5B2002005EBC50101EBEB
:1015F0004101824A02EBC101487029466846FFF763
:1016000014FE9DF80B00422813D19DF80C004728CA
:101610000FD10098401FC5B2012005EBC50101EBB9
:101620004101764A02EBC101487029466846FFF73E
:10163000FCFD9DF80B00502825D19DF80C00582882
:1016400021D10098C5B26E490DF10F0000F075FD73
:101650006B4890ED000AB8EEC00ADFED6A0A80EE32
:10166000201ABDEEC10A10EE100A01B2681F00EB8D
:10167000C00000EB4000614A02EBC00081802946B7
:101680006846FFF7D2FD9DF80B004D2817D19DF855
:101690000C004F2813D10098C5B29DF80F0008B177
:1016A000012100E00021681F00EBC00000EB4000BA
:1016B000524A02F8301029466846FFF7B6FD0098F6
:1016C000B0F5487F31D10098A0F54870C5B29DF8BB
:1016D0000B004D282AD19DF80C004F2826D1002060
:1016E0001DE09DF8101009B1012100E0002100EB80
:1016F000C00202EB4202414B03F8321000EBC00182
:1017000001EB41011A4612F8311039B9002100EB02
:10171000C00202EB420203EBC2025170401C0428DB
:10172000DFDB29466846FFF780FD5EE09DF80B0091
:1017300053281ED19DF80C0050281AD1002415E022
:101740002D490DF10F0000F0F8FC2B48008881B204
:1017500004EBC40000EB4000284A02EBC000A0F8F4
:10176000461029466846FFF760FD641C042CE7DB41
:101770003BE09DF80B00502808D19DF80C0058283C
:1017800004D129466846FFF750FD2EE0002025E0F1
:101790000DF10B0131F810101B4A22F81010114600
:1017A00031F91010642291FBF2F109B200EBC00292
:1017B00002EB4202114B03EBC202918000EBC0012D
:1017C00001EB41011A4602EBC101898A642211FB37
:1017D00002F109B20C4A22F81010401C0428D7DB91
:1017E000094A29466846FFF78DFD00BF05B030BDA8
:1017F00044700020080000200C0000202069002018
:10180000100000200000C842140000201FB5012174
:10181000082005F08AFE42F6DF6002900B20ADF84A
:1018200004000020ADF80C00ADF8060001A95F48E7
:1018300006F033F832208DF8000001208DF8030007
:101840008DF8010000208DF80200684604F04FFC7E
:101850000121564806F0D6FC01221146534806F0F5
:10186000BDFC0121514806F0A1F81FBD70B5012152
:101870004E4806F0CAFC002877D001214B4806F0FC
:10188000D5FC002489E004EBC40000EB4410484977
:1018900011F83000002878D004EBC40000EB4410AD
:1018A00001EBC0004078002876D004EBC40000EBC8
:1018B000441001EBC000C0780A2864D2DFE800F0D1
:1018C00044051633632F575B635F04EBC40101EBE0
:1018D0004411374A02EBC101D1ED010AB0EE600AB2
:1018E000611CC8B2002102F01AFB4DE004EBC402F7
:1018F00002EB44122E4B03EBC202926804EBC403CA
:1019000003EB44132A4D05EBC30393F83C3102FB70
:1019100003F1621CD0B2002202F0D5FD34E0E0B247
:1019200002F034FA30E004EBC40101EB4411204A28
:1019300002EBC101D1ED480AB0EE600A611CC8B2E9
:10194000002103F005F81FE004EBC40101EB441192
:10195000174A02EBC101D1ED040AB0EE600A611C26
:10196000C8B2002102F093FF0EE019E00DE0E0B2F2
:1019700002F006FE08E0E0B202F0A8FB04E0E0B2EC
:1019800002F025FB00E000BF06E0611CC8B20021A8
:101990009FED080A02F0C3FA641C042CFFF673AF33
:1019A0000549064800F0EAFD70BD0000000C00404B
:1019B0004470002000000000485F002000640040E8
:1019C00000B58BB00121880605F0AFFD0121022092
:1019D00005F078FD09220521FE4805F0B8FB092233
:1019E0000621FC4805F0B3FB02208DF818006020AA
:1019F000059005A9F74805F01FFB40208DF8280049
:101A000002208DF8290000208DF82A0001208DF891
:101A10002B000AA804F06BFB41208DF8280002205F
:101A20008DF829008DF82A0001208DF82B000AA8D6
:101A300004F05DFBE84804F0C5FB07A804F0E6FCF1
:101A400000208DF8220001208DF8230000208DF861
:101A500024008DF825008DF826008DF827008DF8DC
:101A60001E008DF81F0008208DF8200003208DF83F
:101A70002100ADF81C0007A9D74804F0BCFB0E20DC
:101A80008DF80E0001208DF80F0000208DF8100059
:101A900044F22000ADF8040044F24000ADF8060026
:101AA00044F26000ADF808004FF48140ADF80A0040
:101AB0000020ADF80C0001208DF8110001A804F001
:101AC00024FC0F208DF80E0001208DF80F0000205F
:101AD0008DF8100044F2A000ADF8040044F2C000FC
:101AE000ADF8060044F2E000ADF808004FF4824083
:101AF000ADF80A000020ADF80C0001208DF81100AF
:101B000001A804F002FC14208DF80E0000208DF8CE
:101B10000F0001208DF810000020ADF804004FF4F4
:101B20009040ADF806004FF6FF70ADF808000020B9
:101B3000ADF80A000120ADF80C008DF8110001A8E5
:101B400004F0E3FB19208DF80E0000208DF80F0043
:101B500001208DF810000020ADF804004FF4004083
:101B6000ADF806004FF6FF70ADF808004FF478406E
:101B7000ADF80A000120ADF80C008DF8110001A8A5
:101B800004F0C3FB01221021934804F0BDFE0122A2
:101B90000221914804F0B8FE0BB000BD10B586B02C
:101BA00002218D4804F018FF00287DD001AA0021F1
:101BB000894804F08EFD0198B0F5007F7ED9019828
:101BC000B0F5027F7AD89DF80D00002876D10198F3
:101BD000401FC4B2814850F82400814941F82400D4
:101BE00009F012F87D4941F82400084650F8240015
:101BF0007B4951F82410401A7A4941F824009DF895
:101C000012109DF8110041EA002001B204EBC4005B
:101C100000EB4000744A02EBC00001839DF8100005
:101C20009DF80F1040EA012001B204EBC40000EB64
:101C3000400002EBC00001849DF814109DF81300D1
:101C400041EA002001B204EBC40000EB400002EBCB
:101C5000C000C1829DF8151004EBC40000EB4000E9
:101C600002EBC0004184204601F054FA04EBC400AA
:101C700000EB40005C4901EBC00090F83A00E0B98D
:101C8000012104EBC40000EB4000574A02EBC00006
:101C900080F83A10002104EBC40000EB400002EB96
:101CA000C000A0F8581001E011E007E004EBC40008
:101CB00000EB400002EBC000C16100BF02214648BA
:101CC00004F025FF0221444804F063FE00BF06B083
:101CD00010BD10B586B010213F4804F07DFE0028ED
:101CE00076D001AA01213C4804F0F3FC10213A48C7
:101CF00004F00DFF1021384804F04BFE9DF80C0055
:101D0000042866D19DF80D000028FAD100900298B1
:101D100000F00F00401EC4B209210298B1EB102F51
:101D200066D169460DF10F0000F007FA04EBC4011B
:101D300001EB44112D4A02EBC10191F83C1190FBDB
:101D4000F1F104EBC40000EB441002EBC000C161F0
:101D50006946B2EE040A0DF10F0000F014FA04EB2C
:101D6000C40000EB4410214901EBC00080ED060ADD
:101D70006946B2EE040A0DF10F0000F004FA04EB1C
:101D8000C40000EB4410194901EBC00080ED080AC3
:101D90000DF11601481E00F032F9BDF8151004EBE4
:101DA000C40000EB4410114A02EBC000A0F800117F
:101DB00004EBC40000EB4410114601EBC000B0F886
:101DC000001104EBC40000EB441002EBC00010E073
:101DD000FBE0F9E00004024000680040080F00202A
:101DE000E80E0020280F0020206900204470002009
:101DF000DEE0B0F80201081A00B204EBC40101EB06
:101E0000441102EBC101A1F8FC0004EBC40000EB9B
:101E10004410114601EBC00090F8FE0088B100218B
:101E200004EBC40000EB441002EBC00080F8FE108D
:101E3000002004EBC40101EB441102EBC101A1F845
:101E4000FC0004EBC40000EB4410614901EBC0004E
:101E5000B0F8001104EBC40000EB44105C4A02EB44
:101E6000C000A0F8021104EBC40000EB44101146BE
:101E700001EBC000B0F9FC00002808DD04EBC40051
:101E800000EB441001EBC000B0F9FC0009E004EBEA
:101E9000C40000EB44104E4901EBC000B0F9FC0057
:101EA000404242F22831884226DD04EBC40000EBB8
:101EB0004410474901EBC000B0F9FC1004EBC4002A
:101EC00000EB4410424A02EBC000B0F9FC000028CD
:101ED00002DA4FF0FF3000E0012040F2654250434B
:101EE000A1EB001000B204EBC40101EB4411384A2D
:101EF00002EBC101A1F8FC0004EBC40000EB4410AC
:101F0000334901EBC000B0F9FC00052190FBF1F171
:101F100004EBC40000EB44102D4A02EBC000806AC1
:101F2000014404EBC40000EB441002EBC0008162EA
:101F300004EBC40000EB4410114601EBC000416902
:101F400004EBC40000EB441002EBC000806A091AE5
:101F500004EBC40000EB441002EBC000C0F80C110D
:101F600004EBC40000EB4410114601EBC0004078C4
:101F7000F0B104EBC40000EB441001EBC00090EDA5
:101F8000080A04EBC40000EB441001EBC00080ED34
:101F9000410A04EBC40000EB441001EBC000816A6D
:101FA00004EBC40000EB441002EBC000C0F80811C1
:101FB00008F02AFE04EBC40101EB4411044A02EBD1
:101FC000C101C1F8180100BF00BF06B010BD00007C
:101FD00044700020012037494872704710B500F066
:101FE0007CFBFFF7F7FF03F033F903F055FA04F039
:101FF00045F8314803F082F901F056FC10BD00228B
:102000000A7803780B700270704710B5082008F04A
:10201000BDFF044600206060204610BD02460B460E
:10202000114605E00888984201D108467047496882
:102030000029F7D10020F9E770B506460C46354671
:1020400000E06D6815B16868A042FAD14CB16068D3
:102050006860204608F0C9FF18480078401E1749FC
:10206000087070BD2DE9F041074688463C46414660
:102070002046FFF7D3FF08B1BDE8F081002602E05B
:102080006468701CC6B20D480078B04201DD002CB7
:10209000F6D16CB1082008F079FF0546A5F800805C
:1020A00060686860656005480078401C03490870F6
:1020B00000BFE1E7480F00206475002020000020E9
:1020C00008B590ED000A8DED000ABDF800200A70F9
:1020D000BDF80020120A4A70BDF802208A70BDF8CF
:1020E0000220120ACA7008BD08B502680092BDF845
:1020F00000200A70BDF80020120A4A70BDF80220C4
:102100008A70BDF80220120ACA7008BD30B50C0EE4
:1021100015686B1C13604455C1F3074415686B1CAC
:1021200013604455C1F3072415686B1C13604455B4
:1021300015686B1C1360415530BD10B502460B6825
:10214000D35C1C060B685B1CD35C44EA03440B683D
:102150009B1CD35C44EA03230C68E41C145D43EA33
:1021600004000B681B1D0B6010BD10B502460B6808
:102170005B1CD35C0C68145D43EA042318B20B6843
:102180009B1C0B6010BD30B50446F0EE400A0D46B6
:1021900029462046FFF7E9FF00EE100AB8EEC01A04
:1021A00081EE200A30BD10B50246B1F900305B1C4B
:1021B000D35CB1F90040145D43EA042318B20B88E4
:1021C0009B1C1BB20B8010BD1FB50121022005F026
:1021D000ACF9214802900320ADF804000020ADF8CE
:1021E0000600ADF80C001D208DF8000003208DF8CE
:1021F000010001208DF802008DF80300684603F00D
:1022000076FF01A9154805F048FB01221146134845
:1022100005F0E4FF0121114805F0C8FB1FBD10B512
:1022200001210E4805F0F1FF012814D101210B48CE
:1022300005F0FCFF002404E0204602F0EEFC601CE8
:10224000C4B2042CF8DB002403E0A0B201F0B6F91C
:10225000641C042CF9DB10BDBFD401000004004055
:1022600000B597B00121084605F02CF90121102096
:1022700005F06CF90121880505F024F907220921F0
:10228000A34804F064FF07220A21A14804F05FFF7D
:102290004FF4C060119002208DF8480000208DF8A6
:1022A0004A0002208DF8490001208DF84B0011A949
:1022B000974804F0C1FE4FF4E13013900020ADF8D0
:1022C0005000ADF85200ADF85400ADF858000C20A5
:1022D000ADF8560013A98F4806F0D2F88E4804F0E6
:1022E00069FC4FF0006001900020059040200490B0
:1022F0008A4803908748001D02900015079000202F
:102300000690099008900A904FF440300B900020FE
:102310000C9001200D9000200F900E9001A97E4896
:1023200004F0EAFC7E497C4804F099FD7C497A4837
:1023300004F0F0FD01221021774804F0A4FD4620AE
:102340008DF8400003208DF8410001208DF84200F7
:102350008DF8430010A803F0CAFE012280216D48C9
:1023600006F0C3F901216B4806F012F917B000BD61
:1023700070B504460D466B48807B78B92A462146E5
:10238000664808F02CFF2946634804F010FD01213F
:10239000614804F0EBFC01206249887370BD10B500
:1023A0005F495D4804F08CFD01280AD15C495A4818
:1023B00004F055FD5A49584804F0ACFD0020594935
:1023C000887310BD10B540F22551524806F0D1F97E
:1023D000002844D040F225514E4806F0C1F940F2A1
:1023E00025514C4806F0FCF94A4806F000F9C4B201
:1023F0004D48007800F0400008B34B48007800F0EA
:10240000800020BB0D2C06D14748007840F08000AA
:10241000454908701BE04448007800F03F004349FC
:102420000C5441480078401C3F4908700846007829
:1024300000F03F0020280ADD0020087007E0232C70
:1024400005D13948007840F04000374908703648D7
:10245000007800F0800010B100203349087010BDF2
:1024600030B502460B464FF6FF70002112E0555C76
:10247000684000240AE000F0010525B14AF2010598
:1024800085EA600000E04010651CECB2082CF2DB2D
:102490004D1CE9B29942EADB30BD2DE9FE43054609
:1024A0000E4617469846280A8DF80100E8B28DF8C6
:1024B0000000300A8DF80300F0B28DF80200380AEF
:1024C0008DF80500F8B28DF804004FEA18208DF859
:1024D000070008F0FF008DF8060008216846FFF7A6
:1024E000BFFF04462046E11704EB11610912A4EB7B
:1024F0000121C9B28DF80810E11704EB1161090A36
:102500008DF809100A216846FFF732FFBDE8FE8307
:102510000000024000100140B8640240DD110020BC
:1025200000800028480F002028000020FD11002016
:10253000014608884A88904201D101207047002056
:10254000FCE701464888401C322290FBF2F302FB74
:1025500013000A88904201D1012070470020FCE757
:1025600000205249488008805149488008805149DC
:1025700048800880504948800880704730B585B051
:1025800005460C462046FFF7D3FF08B105B030BD25
:102590002188201D00EB0110006800F07040F8B1A8
:1025A00004208DF808002188201D00EB0110006830
:1025B00020F0704001902188201D00EB011000796F
:1025C0008DF80A0000208DF809009DF80A20238864
:1025D000201D00EB0310411D0DF10B0008F0FFFD65
:1025E0002188201D00EB01100068B0F5207F25D365
:1025F0002188201D00EB01100068B0F5287F1DD850
:1026000000208DF808002188201D00EB01100068D3
:1026100000902188201D00EB011000798DF80A0040
:1026200000208DF809009DF80A202388201D00EB6A
:102630000310411D0DF10B0008F0D1FD1F4885422C
:1026400017D102221B491E4802F077FC2188201D69
:1026500000EB0110407B38B92088401C322190FBF0
:10266000F1F201FB120020806946144803F03CFFA0
:102670001AE01448854217D101220C49124802F091
:102680005CFC0A480188001D00EB0110407B38B952
:102690002088401C322190FBF1F201FB12002080C7
:1026A0006946084803F020FF00BF6FE7485F00203D
:1026B0006C620020245C00209065002000680040CF
:1026C0003012002000640040F02B0020002239214D
:1026D0000A54C26100218182704710B52DED0E8B26
:1026E0004FF40050FE4908809FEDFE0B084680ED38
:1026F000040B9FEDFE0A80ED010A43F69910088154
:102700004FF40050FA4908809FEDFA0A084680ED20
:10271000010A42F2283008819FEDF70B084680ED50
:10272000040B0020F64908709FEDF60A084680ED7C
:10273000010A0120087244F62C40488101200873E8
:102740004FF4FA6008824FF6E040C8810020887498
:102750000120C8742820EC498883002048604FF489
:102760007A70C8831822E249E84808F07DFD00200D
:10277000E649703908704870052088703221E348B6
:102780007038C1800020E149703988806421DF48B9
:10279000703801811422DA493C3008F065FDDB48CD
:1027A0007038B0F90810DFEDDA1A9FEDDA1ADFEDB4
:1027B000DA0AB0EE0C0AB03002F07AFCD348703876
:1027C000C168F7EE001A9FEDD51ADFEDD50AB1EE1C
:1027D000040A883002F06CFC1822C549CB48D83076
:1027E00008F042FD0020C949703981F8D800002165
:1027F000C648703880F8D910052180F8DA103221E7
:10280000A0F8DE100021A0F8DC106421A0F8E01090
:102810001422BB4900F58A7008F026FDBB487038C9
:10282000B0F9E010DFEDBA1A9FEDBA1ADFEDBA0A7F
:10283000B0EE0C0A00F5C47002F03AFCB3487038F0
:10284000D0F8E410F7EE001A9FEDB41ADFEDB30AEA
:10285000B1EE040A00F5B07002F02AFC1822A44977
:10286000B04808F001FD0020A849703981F8B00196
:102870000021A648703880F8B111052180F8B21106
:102880003221A0F8B6110021A0F8B4116421A0F8FB
:10289000B81114229A4900F5F67008F0E5FC9B483F
:1028A0007038B0F9B811DFED9A1A9FED9A1ADFED82
:1028B0009A0AB0EE0C0A00F5187002F0F9FB934882
:1028C0007038D0F8BC11F7EE001A9FED941ADFEDC6
:1028D000940AB1EE040A00F50E7002F0E9FB18222A
:1028E00083499048D83008F0BFFC002087497039F0
:1028F00081F8880200218548703880F88912052106
:1029000080F88A123221A0F88E120021A0F88C12D1
:102910004FF47A71A0F890121422794900F53170C1
:1029200008F0A2FC79487038B0F99012DFED781AFF
:102930009FED781ADFED780AB0EE0C0A00F54E70C4
:1029400002F0B6FB71487038D0F89412F7EE001A16
:102950009FED721ADFED720AB1EE040A00F54470C1
:1029600002F0A6FB002400E104EBC40000EB4000F1
:102970006649703901EBC000634909680165624826
:10298000416804EBC40000EB4000604A703A02EB7F
:10299000C000416504EBC40101EB410102EBC10140
:1029A00001F1580018225849083108F05DFC04EB89
:1029B000C40101EB4101554A703A02EBC101B1F883
:1029C00070000BF0DDF841EC1A0B04EBC40000EBD7
:1029D00040004E4A703A02EBC00090ED1D0A10EE26
:1029E000101A08460BF03AFB41EC1C0B04EBC40038
:1029F00000EB4000454A703A02EBC00090ED100A2F
:102A000010EE101A08460BF029FB41EC1E0B04EBEC
:102A1000C40000EB40003D49703901EBC00090ED6F
:102A2000201BB0EE410AF0EE610A53EC102B51EC82
:102A30001E0B0BF0F5F853EC1C2B0BF0F1F853ECDC
:102A40001A2B0BF0EDF89FED380B53EC102B0AF01E
:102A50008FFE0BF051F804EBC40101EB41012B4A4E
:102A6000703A02EBC101086504EBC40101EB4101BE
:102A700002EBC101B1F870000BF082F841EC1A0BC7
:102A800004EBC40000EB4000204A703A02EBC000A7
:102A900090ED1D0A10EE101A08460BF0DFFA41EC1B
:102AA0001C0B04EBC40101EB4101184A703A02EB24
:102AB000C101B1F904000BF04CF841EC1E0B04EB22
:102AC000C40000EB40001149703901EBC00090EDEB
:102AD000201BB0EE410AF0EE610A53EC102B27E008
:102AE000F06800200000008087870F409A99994184
:102AF0000869002000001042000000605555134096
:102B0000D86800200000E144B868002090690020E7
:102B1000CDCCCC3E000000008FC2F53DCDCC4C3E6C
:102B20009A99993E406B002000000000008076409A
:102B300051EC1E0B0BF074F853EC1C2B0BF070F8DF
:102B400053EC1A2B0BF06CF81FED090B53EC102B08
:102B50000AF00EFE0AF0A0FF04EBC40101EB4101F4
:102B6000FE4A02EBC101C860641C042CFFF6FCAEF7
:102B7000002314E003EBC30101EB4101F74A02EB30
:102B8000C100FFF7A3FD44F62C4103EBC30000EBAB
:102B90004000F24A02EBC000A0F846105B1C042B78
:102BA000E8DBBDEC0E8B10BD10B5044604EBC40091
:102BB00000EB4000E94901EBC000D0ED260A04EB30
:102BC000C40000EB400001EBC000B0F9080000EECB
:102BD000100AB8EEC00A20EE800ABDEEC00A10EE60
:102BE000100A04EBC40101EB4101DC4A02EBC10114
:102BF000C1F8B00004EBC40000EB4000114601EB4B
:102C0000C000B0F9181004EBC40000EB400002EB68
:102C1000C000C0F8C81004EBC40101EB410102EB95
:102C2000C10101F1B00002F05CFA04EBC40000EB5A
:102C30004000CA4901EBC000C18804EBC40000EBAE
:102C40004000C64A02EBC000D0F8C400084401B2FC
:102C500004EBC40000EB400002EBC000C18010BDDB
:102C600010B5044604EBC40000EB4000BB4901EB87
:102C7000C000B0F94A0004EBC40101EB4101B74ABE
:102C800002EBC101C1F8B00004EBC40000EB40004E
:102C9000114601EBC000B0F9181004EBC40000EBC2
:102CA000400002EBC000C0F8C81004EBC40101EB07
:102CB000410102EBC10101F1B00002F012FA04EB94
:102CC000C40000EB4000A54901EBC000C18804EB43
:102CD000C40000EB4000A14A02EBC000D0F8C400E1
:102CE000084401B204EBC40000EB400002EBC0005A
:102CF000C18004EBC40000EB4000114601EBC000B2
:102D0000B0F8580090BB04EBC40000EB400001EBAE
:102D1000C000C069002807DD04EBC40000EB4000E0
:102D200001EBC000C06908E004EBC40000EB400008
:102D30008A4901EBC000C069404240F6C411884294
:102D400015DD04EBC40000EB4000844901EBC0003A
:102D5000B0F86000401C81B204EBC40000EB4000FE
:102D60007E4A02EBC000A0F860100AE0FFE70021F5
:102D700004EBC40000EB4000784A02EBC000A0F86E
:102D8000601004EBC40000EB4000744901EBC0008C
:102D9000B0F86000322839DD002104EBC40000EBFC
:102DA00040006E4A02EBC000A0F86010002004EB67
:102DB000C40101EB410102EBC1018882002104EB57
:102DC000C40000EB400002EBC000C161052004EB31
:102DD000C40101EB410102EBC1018870012104EB48
:102DE000C40000EB400002EBC00080F8351000206A
:102DF00004EBC40101EB410102EBC1018880012019
:102E000004EBC40101EB410102F8310010BD10B523
:102E10002DED0E8B044604EBC40000EB40004F4A3E
:102E200002EBC00090ED1D0A10EE101A08460BF0E0
:102E300015F941EC1A0B04EBC40101EB4101474ABF
:102E400002EBC101B1F870000AF09AFE41EC1C0BD4
:102E500004EBC40101EB4101404A02EBC101B1F9AD
:102E600004000AF076FE41EC1E0B04EBC40000EBFC
:102E700040003A4901EBC00090ED201BB0EE410A42
:102E8000F0EE610A53EC102B51EC1E0B0AF0C8FE59
:102E900053EC1C2B0AF0C4FE53EC1A2B0AF0C0FEB4
:102EA0001FEDDF0B53EC102B0AF062FC0AF0F4FD6F
:102EB00004EBC40101EB4101284A02EBC101C860E7
:102EC00004EBC40000EB4000114601EBC000C068F9
:102ED00004EBC40101EB410102EBC101C1F8880020
:102EE00004EBC40000EB4000114601EBC000407849
:102EF00070B904EBC40000EB400001EBC000406D72
:102F000004EBC40101EB410102EBC101C1F88800EF
:102F100004EBC40000EB4000104901EBC000C169A4
:102F200004EBC40000EB40000C4A02EBC000C0F808
:102F3000A01004EBC40101EB410102EBC10101F15E
:102F4000880002F0CEF804EBC40000EB4000034917
:102F500001EBC000D0ED260A02E00000206900204D
:102F600004EBC40000EB400001EBC000D0F89C0073
:102F700000EE100AB8EEC00A20EE800ABDEEC00ACC
:102F800010EE100A04EBC40101EB4101FE4A02EB12
:102F9000C101C1F8B00004EBC40000EB40001146D1
:102FA00001EBC00090F84400A8B304EBC40000EBB0
:102FB000400001EBC000D0F8B000002808DD04EBB1
:102FC000C40000EB400001EBC000D0F8B00009E005
:102FD00004EBC40000EB4000EB4901EBC000D0F86B
:102FE000B000404204EBC40101EB4101E64A02EBB0
:102FF000C101B1F84610884221DD04EBC40000EBAA
:103000004000114601EBC000D0F8B000002803DA00
:103010004FF0FF3001E012E0012004EBC40101EBAE
:103020004101D94A02EBC101B1F84610484304EB13
:10303000C40101EB410102EBC101C1F8B00004EB96
:10304000C40000EB4000D04901EBC000B0F91810FB
:1030500004EBC40000EB4000CB4A02EBC000C0F818
:10306000C81004EBC40101EB410102EBC10101F105
:10307000B00002F036F804EBC40000EB4000C24997
:1030800001EBC000C18804EBC40000EB4000BE4A65
:1030900002EBC000D0F8C400084401B204EBC40045
:1030A00000EB400002EBC000C18004EBC40000EB69
:1030B0004000114601EBC000C06D002807DD04EBA5
:1030C000C40000EB400001EBC000C06D08E004EB61
:1030D000C40000EB4000AC4901EBC000C06D4042B1
:1030E000B4280ADA012004EBC40101EB4101A64A2D
:1030F00002EBC10181F8340009E0002004EBC401B7
:1031000001EB4101A04A02EBC10181F83400BDECA2
:103110000E8B10BD70B52DED088B044604EBC4007A
:1031200000EB4000984901EBC000018C04EBC400A7
:1031300000EB4000944A02EBC000008E081A01B276
:1031400004EBC40000EB400002EBC000A0F85810F4
:1031500004EBC40000EB4000114601EBC000808A84
:1031600004EBC40101EB410102EBC101888404EBD3
:10317000C40000EB4000114601EBC000C18A04EB23
:10318000C40000EB400002EBC000C18404EBC400AB
:1031900000EB4000114601EBC000018B04EBC400C2
:1031A00000EB400002EBC000018504EBC40000EB23
:1031B0004000114601EBC000C16904EBC40000EB04
:1031C000400002EBC000C16204EBC40000EB400011
:1031D000114601EBC000018C04EBC40000EB400081
:1031E00002EBC000018604EBC40000EB4000114676
:1031F00001EBC000418C04EBC40000EB400002EB8B
:10320000C000418604EBC40000EB4000114601EB16
:10321000C000B0F95800002808DD04EBC40000EB42
:10322000400001EBC000B0F9580009E004EBC40015
:1032300000EB4000544901EBC000B0F95800404297
:1032400041F2360188422CDD04EBC40000EB400063
:103250004D4901EBC000B0F9581004EBC40000EB7D
:103260004000494A02EBC000B0F95800002802DAD9
:103270004FF0FF3000E0012004EBC40202EB4202F9
:10328000414B03EBC202B2F8702000FB121001B2F6
:1032900004EBC40000EB40001A4602EBC000A0F8AB
:1032A000581004EBC40000EB4000374901EBC000AC
:1032B000C16904EBC40000EB4000334A02EBC000DC
:1032C000B0F95800014404EBC40000EB400002EBED
:1032D000C000C16104EBC40000EB4000114601EBEB
:1032E000C000C16804EBC40000EB400002EBC0006A
:1032F000C069091A04EBC40000EB400002EBC000F7
:10330000C16504EBC40101EB410102EBC101B1F85D
:1033100070000AF035FC41EC190B04EBC40000EB23
:103320004000194901EBC000C06900EE100AB8EE78
:10333000C00ADFED160A20EE200A04EBC40000EB01
:10334000400001EBC000D0ED1D0A80EE201A11EE06
:10335000105A28460AF082FE41EC1B0B04EBC40015
:1033600000EB4000084901EBC00090ED201BB0EEDF
:10337000410AF0EE610A53EC102B51EC1B0B0AF0E2
:10338000F7F953EC192B03E0206900200000B44347
:103390000AF0EEF90AF080FB00B204EBC40101EB85
:1033A0004101FE4A02EBC101888204EBC40000EB3C
:1033B0004000114601EBC000407868B104EBC40046
:1033C00000EB400001EBC000C16904EBC40000EB5E
:1033D000400002EBC000416504EBC40000EB40007C
:1033E000EE4901EBC00090F8390040B104EBC40194
:1033F00001EB4101E94A02EBC100FFF767F9BDECBF
:10340000088B70BD10B5044604EBC40000EB40000F
:10341000E24911F8300008B9012010BDE048807C75
:1034200000287DD004EBC40000EB4000DB4901EB39
:10343000C0008078052873D104EBC40000EB400085
:1034400001EBC000C16904EBC40000EB4000D34AAB
:1034500002EBC000C06A081A002810DD04EBC400AB
:1034600000EB4000114601EBC000C16904EBC40051
:1034700000EB400002EBC000C06A081A10E004EB49
:10348000C40000EB4000C54901EBC000C16A04EB79
:10349000C40000EB4000C14A02EBC000C069081A3A
:1034A000C8283DDA04EBC40000EB4000BB4901EB47
:1034B000C000B0F91800002808DD04EBC40000EBE0
:1034C000400001EBC000B0F9180009E004EBC400B3
:1034D00000EB4000B14901EBC000B0F918004042D8
:1034E00064281EDA04EBC40000EB4000AB4901EB9A
:1034F000C00090F83400A0B904EBC40000EB400019
:1035000001EBC000B0F86200401C81B204EBC400C3
:1035100000EB4000A14A02EBC000A0F862100AE0F4
:103520004AE0002104EBC40000EB40009B4A02EBA0
:10353000C000A0F8621004EBC40000EB4000974903
:1035400001EBC000B0F8621004EBC40000EB4000D7
:10355000924A02EBC000B0F86E00814209DD012101
:1035600004EBC40000EB400002EBC00080F8361012
:1035700009E0002104EBC40000EB4000874A02EBA5
:10358000C00080F8361004EBC40000EB4000834913
:1035900001EBC00090F8360001280BD102F088FD45
:1035A000002004EBC40101EB41017C4A02F8310028
:1035B000012032E7002030E700202EE710B5044656
:1035C00004EBC40000EB4000744911F830000128FE
:1035D00063D104EBC40000EB400001EBC00090F8A5
:1035E0004F00002859D007F00FFB6E4951F8241006
:1035F000401A40F2DC51884214D304EBC40000EBC3
:103600004000664901EBC00090F86400401CC1B264
:1036100004EBC40000EB4000604A02EBC00080F8FD
:10362000641009E0002104EBC40000EB40005B4A99
:1036300002EBC00080F8641004EBC40000EB400013
:10364000564901EBC00090F8641004EBC40000EB95
:103650004000524A02EBC000B0F86C00814209DD24
:10366000012104EBC40000EB400002EBC00080F835
:10367000371012E0494890F8370070B9474890F881
:103680000F0150B9454890F8E70130B9434890F828
:10369000BF0210B9002001F01FFF10BD2DE9F0415D
:1036A00086B004460D4616461F4640F2FF1800201D
:1036B0008DF80C008DF80D0008208DF80E00CDF867
:1036C00004800020FFF79EFE48B9344800780128A6
:1036D00005D1200A8DF80F008DF8104005E000207C
:1036E0008DF80F0000218DF810100120FFF78AFEE1
:1036F00050B92A4890F8D800012805D1290A8DF838
:1037000011108DF8125004E000218DF811108DF881
:1037100012100220FFF776FE50B9204890F8B00151
:10372000012805D1310A8DF813108DF8146004E0DA
:1037300000218DF813108DF814100320FFF762FE9E
:1037400050B9164890F88802012805D1390A8DF839
:1037500015108DF8167004E000218DF815108DF805
:10376000161001A9104802F0BFFE06B0BDE8F081B6
:10377000002053E000EBC00101EB4101074A02EBDE
:10378000C101B1F90610002910DD00EBC00101EB09
:10379000410102EBC101B1F9061011E020690020DE
:1037A000D8680020E80E00200068004000EBC0014F
:1037B00001EB4101364A02EBC101B1F90610494261
:1037C00000EBC00202EB4202314B03EBC202B2F843
:1037D0007820914220DD00EBC00101EB41011A4647
:1037E00002EBC101B1F90610002902DA4FF0FF31F6
:1037F00000E0012100EBC00202EB4202244B03EB8C
:10380000C202B2F8782051430AB200EBC00101EBCA
:10381000410103EBC101CA80411CC8B20828A9DBE1
:103820007047002030E01B49097800EBC00202EB32
:103830004202174B03EBC20251701649497800EB64
:10384000C00202EB420203F8321012494A8800EB30
:10385000C00101EB410103EBC1010A810D498988D7
:1038600000EBC00202EB420203EBC2029180094965
:10387000C9888AB200EBC00101EB410103EBC10131
:10388000A1F84620411CC8B20428CCDB70470000D8
:10389000206900202A0000204121095C19B1002282
:1038A00041210A548262704770B50720FE490870B2
:1038B0009FEDFE0A084680ED010A42F21070886012
:1038C0000C20FB49087042F2107088601520F949FD
:1038D0000870B2EE040A084680ED010A4FF47A70CF
:1038E00088600020F449087247F23050C860012017
:1038F000087441F288304861B3EE0E0A084680ED44
:10390000010A6420ED4948840020EB490876012033
:1039100048762820E9490884012088700020E84979
:10392000087048704880E748DF4B0ECB3C300EC033
:103930000020E549087048700220C8709FEDE30A36
:10394000084680ED010A002181609FEDE00A80EDCC
:10395000040A41614169F7EE001A9FEDDD1ADFEDBF
:10396000DD0A9FEDDD0A443001F0A2FBD6488168F4
:10397000F7EE001AB7EE001ADFEDD80A9FEDD80A6D
:103980006C3001F095FBDFEDD71A9FEDD71ADFED14
:10399000CF0A9FEDD60ACB486C3801F099FBDFEDDA
:1039A000D11A9FEDD31ADFEDD30A9FEDCC0AC5489B
:1039B000383801F08DFBD048BB4BD3E900219B6820
:1039C000C0E91013C2630020BF4981F848010021FB
:1039D000BD4880F84911022180F84B119FEDBB0AC8
:1039E00080ED530A0021C0F850119FEDB80A80ED18
:1039F000560AC0F85C114169F7EE001A9FEDB41A3F
:103A0000DFEDB40A9FEDB40A00F5C67001F050FB7B
:103A1000AD488168F7EE001AB7EE001ADFEDAF0A85
:103A20009FEDAF0A00F5DA7001F042FBDFEDAD1A51
:103A30009FEDAD1ADFEDA50A9FEDAC0AAE486C38DC
:103A400001F046FBDFEDA71A9FEDA91ADFEDA90AE9
:103A50009FEDA20AA848383801F03AFBA748924BDC
:103A60000ECB3C300EC00020974981F89002002117
:103A7000954880F89112022180F893129FED930AE5
:103A800080EDA50A0021C0F898129FED900A80ED04
:103A9000A80AC0F8A4124169F7EE001A9FED8C1A2B
:103AA000DFED8C0A9FED8C0A00F5357001F000FB0C
:103AB00085488168F7EE001AB7EE001ADFED870A35
:103AC0009FED870A00F53F7001F0F2FADFED851AED
:103AD0009FED851ADFED7D0A9FED840A87486C38DB
:103AE00001F0F6FADFED7F1A9FED811ADFED810A12
:103AF0009FED7A0A8148383801F0EAFA80486A4B2B
:103B00000ECB3C300EC000206F4981F8D803002155
:103B10006D4880F8D913022180F8DB139FED6B0A02
:103B200080EDF70A0021C0F8E0139FED680A80EDF0
:103B3000FA0AC0F8EC134169F7EE001A9FED641A17
:103B4000DFED640A9FED640A00F21C4001F0B0FA58
:103B50005D488168F7EE001AB7EE001ADFED5F0AE4
:103B60009FED5F0A00F2444001F0A2FADFED5D1A1A
:103B70009FED5D1ADFED550A9FED5C0A60486C38D9
:103B800001F0A6FADFED571A9FED591ADFED590A39
:103B90009FED520A5A48383801F09AFA002467E03B
:103BA00004EBC40101EB4411474A02EBC100FFF7EB
:103BB00073FE04EBC40101EB4411434A02EBC10163
:103BC00001F590701C223C4907F04EFB3B480088F1
:103BD00004EBC40101EB44113B4A02EBC101A1F823
:103BE000FC0004EBC40000EB4410114601EBC000E4
:103BF00032494988A0F8FE103048818804EBC4009F
:103C000000EB441002EBC000A0F800112B48C18863
:103C100004EBC40000EB441002EBC000A0F802115A
:103C200004EBC40000EB4410114601EBC000FC3073
:103C3000224A9168D268C0E902122048016904EB67
:103C4000C40000EB4410204A02EBC000C0F80C1185
:103C500004EBC40000EB4410114601EBC000FC3043
:103C6000164D6969AA69EB692D6A14302EC0641C6F
:103C7000042C95DB70BD30B52DED028B81B0044670
:103C8000B0EE408A0D46002000909FED1E0A28EEFF
:103C9000000ABDEEC00A10EE101A1B4A5388121D0E
:103CA00002EB0312501D31E0E06F00200000704273
:103CB000EC6F0020F86F00200470002020700020BE
:103CC00034000020447100204470002000000000F7
:103CD000713D0A3F0AD7233F8FC275406F12833A66
:103CE0004260E53BCDCC4C3E17B7D1398FC2F53C95
:103CF000BD37863517B7D1388C720020D4730020B9
:103D00001C750020002474496C6200206A46FEF78E
:103D1000FDF944F0704040F48061FD484288001D88
:103D200000EB021001600098C1B2F9484288001D02
:103D300000EB02100171F6484188001D00EB0110F4
:103D40004573F3484088401C322190FBF1F201FB9F
:103D50001200EF4948800121601E00EBC00202EB17
:103D60004010EC4A02EBC00080F8101106F04CFF46
:103D7000611E01EBC10202EB4111E64A02EBC101F7
:103D8000C1F8180101B0BDEC028B30BD10B504467E
:103D900004EBC40000EB4410DE4901EBC000D0F896
:103DA0000C01002802DA4FF0FF3100E0012104EBA2
:103DB000C40000EB4410D74A02EBC000C0690028E1
:103DC00002DA4FF0FF3000E00120814205D19FED83
:103DD000D20AD24880ED000A04E09FEDD10ACF4814
:103DE00080ED000A04EBC40000EB4410C94901EB6C
:103DF000C000D0F80C01002808DD04EBC40000EB83
:103E0000441001EBC000D0F80C0109E004EBC40041
:103E100000EB4410BF4901EBC000D0F80C01404258
:103E200000EE100AB8EEC00ABC48D0ED000AB2EEAF
:103E3000041A60EE810AB4EEE00AF1EE10FA29DD10
:103E400004EBC40000EB4410B24901EBC00090ED5C
:103E5000080A04EBC40000EB441001EBC000D0F8EA
:103E60000C01002802DA4FF0FF3000E0012000EEE4
:103E7000900AF8EEE00AA94890ED001A00EE810AD7
:103E800004EBC40000EB4410A24901EBC00080ED3C
:103E9000030A28E0A348007828BB04EBC40000EB29
:103EA00044109C4901EBC000D0F80C0100EE900AD0
:103EB000F8EEE00AB2EE041AC0EE811AB0EE610A22
:103EC00004EBC40000EB441001EBC000D0ED080A85
:103ED00070EE800A04EBC40000EB441001EBC0005C
:103EE000C0ED030A00BF04EBC40101EB4411894A91
:103EF00002EBC10101F10C0001F08FFB04EBC401E6
:103F000001EB4411834A02EBC101D1ED030AB0EE8B
:103F1000600A611CC8B20021FFF7ADFE10BD30B5CC
:103F20002DED028B81B00446B0EE408A0D46002094
:103F300000909FED7D0A28EE000ABDEEC00A10EE4B
:103F4000101A734A5388121D02EB0312501D6A4661
:103F5000FEF7DCF844F0704040F480716C48428811
:103F6000001D00EB021001600098C1B26848428851
:103F7000001D00EB0210017165484188001D00EB37
:103F80000110457362484088401C322190FBF1F2D9
:103F900001FB12005E4948800121601E00EBC00257
:103FA00002EB40105B4A02EBC00080F8101106F0F3
:103FB0002BFE611E01EBC10202EB4111554A02EBDF
:103FC000C101C1F8180101B0BDEC028B30BD70B564
:103FD000044604EBC40202EB44124E4B03EBC20254
:103FE000D2F8441104EBC40202EB441203EBC20208
:103FF00002F1080001F095FB04EBC40000EB441053
:10400000444901EBC000816804EBC40000EB44109C
:10401000404A02EBC000C0F8F81004EBC40303EB05
:104020004413154605EBC303DA6904EBC40303EB41
:10403000441305EBC303996804EBC40303EB441377
:1040400005EBC30303F1C80001F07CF804EBC400E6
:1040500000EB4410294601EBC00090ED3A0A04EB56
:10406000C40000EB441001EBC000D0ED500A20EE7C
:10407000200A04EBC40000EB441001EBC00080ED0B
:10408000010A04EBC40101EB44112A4602EBC10111
:10409000D1ED490AB0EE600A04EBC40101EB441112
:1040A00002EBC101081D01F020FB04EBC40101EB90
:1040B00044112A4602EBC101D1ED010AB0EE600ABB
:1040C000611CC8B20021FFF72AFF70BD10B52DEDAD
:1040D000048B82B0044604EBC40000EB44100D498D
:1040E00001EBC000D0F80C01002802DA4FF0FF31DC
:1040F00000E0012104EBC40000EB4410054A02EB90
:10410000C000C069002811DA4FF0FF300FE0000056
:104110006C6200204470002000002A433C00002014
:104120000000B4421C00002000007A4401208142BB
:1041300005D11FED070AFE4880ED000A04E01FEDDF
:10414000080AFB4880ED000A04EBC40000EB4410B1
:10415000F84901EBC000D0F80C01002808DD04EBA1
:10416000C40000EB441001EBC000D0F80C0109E0E2
:1041700004EBC40000EB4410EE4901EBC000D0F8A2
:104180000C01404200EE100AB8EEC00AE848D0ED3B
:10419000000AB2EE041A60EE810AB4EEE00AF1EE13
:1041A00010FA29DD04EBC40000EB4410E14901EBF7
:1041B000C00090ED080A04EBC40000EB441001EBD2
:1041C000C000D0F80C01002802DA4FF0FF3000E008
:1041D000012000EE900AF8EEE00AD54890ED001AB2
:1041E00000EE810A04EBC40000EB4410D14901EB5E
:1041F000C00080ED030A25E004EBC40000EB44108E
:10420000CC4901EBC000D0F80C0100EE900AF8EEAA
:10421000E00AB2EE041AC0EE811AB0EE610A04EBB5
:10422000C40000EB441001EBC000D0ED080A70EEB2
:10423000800A04EBC40000EB441001EBC000C0EDA9
:10424000030A00BF04EBC40101EB4411B94A02EBBD
:10425000C10101F10C0001F0E0F904EBC40000EB36
:104260004410B44901EBC00090ED081AF0EE410A89
:1042700004EBC40000EB441001EBC00090ED031A06
:10428000B0EE410A01F0B2FAB0EE408A04EBC4008D
:1042900000EB4410A74901EBC000807818B1B1EEE3
:1042A000480AB0EE408A04EBC40000EB4410A14978
:1042B00001EBC00090ED250A20EE080A8DED010A01
:1042C00004EBC40000EB441001EBC00090ED260AA3
:1042D0009948D0ED000A60EE200A984890ED000A57
:1042E00008EE200A80ED000A954890ED000A9248F9
:1042F000D0ED000A30EE200A914880ED000A914886
:1043000090ED000AB4EE408AF1EE10FA02D1DFED32
:104310008E8A19E004EBC40000EB4410854901EBE0
:10432000C000D0ED270A864890ED001A80EE810A81
:104330008448D0ED000A78EE600A60EE208A9FED96
:10434000820A7F4880ED000A04EBC40000EB4410B1
:10435000784901EBC000D0ED290A7C4890ED000AB5
:1043600030EE681A90ED000A00EEC10A80ED000AF6
:1043700090ED000AF0EE408AB7EE000A01A801F0C5
:10438000B4F99DED010AB0EEC00AF7EE000A30EE76
:10439000C00AB0EE409A694801F0A7F9694880ED7B
:1043A000008A9DED010A6548D0ED000A30EE200A32
:1043B00030EE280A8DED000AF7EE000ABFEE000A83
:1043C000684601F06BF904EBC40000EB4410594956
:1043D00001EBC00090ED500ADDED000A20EE200A4E
:1043E00004EBC40000EB441001EBC00080ED010AB7
:1043F00004EBC40000EB441001EBC00090ED010A97
:10440000B5EEC00AF1EE10FA08DD04EBC40000EBD3
:10441000441001EBC00090ED010A0AE004EBC40077
:1044200000EB4410434901EBC00090ED010AB1EEEE
:10443000400A04EBC40000EB44103E4901EBC0000D
:10444000D0ED490AB4EEE00AF1EE10FA27DD04EBF4
:10445000C40000EB441001EBC00090ED010AB5EE82
:10446000C00AF1EE10FA02D24FF0FF3000E0012056
:1044700000EE100AB8EEC00A04EBC40000EB4410D2
:104480002C4901EBC000D0ED490A20EE200A04EBD4
:10449000C40000EB441001EBC00080ED010A04EB06
:1044A000C40101EB4411234A02EBC101D1ED010A21
:1044B000B0EE600A611CC8B20021FFF730FD02B007
:1044C000BDEC048B10BDF8B504460E461546002021
:1044D00000901F494A88091D01EB0211481D6A46D8
:1044E0003146FDF713FE44F0704040F44071184827
:1044F0004288001D00EB021001600098C1B2144810
:104500004288001D00EB0210017111484188001D16
:1045100000EB011045730E484088401C322190FB8F
:10452000F1F201FB12000A4948800121601E11E0EE
:104530003C00002044700020400000204400002087
:104540004C00002048000020000000005000002027
:104550006C62002000EBC00202EB4010F74A02EB55
:10456000C00080F8101106F04FFB611E01EBC10284
:1045700002EB4111F14A02EBC101C1F81801F8BD8B
:1045800070B52DED048B044604EBC40000EB441021
:10459000EA4901EBC000406904EBC40101EB44119E
:1045A000E64A02EBC101486404EBC40000EB44108E
:1045B000114601EBC000407870B904EBC40000EB79
:1045C000441001EBC000D0F8080104EBC40101EB7A
:1045D000441102EBC101486404EBC40000EB441039
:1045E000D64901EBC00090F8280168B3D448D0F850
:1045F0008800002803DDD248D0F8880003E0D048C6
:10460000D0F88800404204EBC40101EB4411CB4ACE
:1046100002EBC101D1F82C11884215DDC848D0F851
:104620008800002802DA4FF0FF3000E0012004EBA0
:10463000C40101EB4411C14A02EBC101D1F82C11B4
:104640004843BF49C1F8880004EBC40000EB4410A4
:10465000BA4901EBC000816A04EBC40000EB4410CE
:10466000B64A02EBC000C16504EBC40101EB441182
:1046700002EBC10101F1440000F033FD04EBC40181
:1046800001EB4411AD4A02EBC101886D09F061FAFA
:1046900041EC190BB0EE490AF0EE690AA94800F0A6
:1046A00036FEB0EE408AF0EE608A51EC180B09F04D
:1046B000F3F904EBC40101EB4411A04A02EBC10180
:1046C0008865104690F83001C8B304EBC40000EBD5
:1046D0004410114601EBC000806D002807DD04EB9B
:1046E000C40000EB441001EBC000806D08E004EB57
:1046F000C40000EB4410914901EBC000806D4042C2
:104700008E49D1F83411884219DD04EBC40000EB66
:1047100044108A4901EBC000806D002802DA4FF096
:10472000FF3000E001208549D1F83411484304EB03
:10473000C40101EB4411814A02EBC101886504EB1D
:10474000C40000EB44107D4901EBC000D0F80C011F
:10475000002808DD04EBC40000EB441001EBC000AE
:10476000D0F80C0109E004EBC40000EB44107349DD
:1047700001EBC000D0F80C0140423C280ADA0121CC
:1047800004EBC40000EB44106C4A02EBC00080F85C
:10479000431009E0002104EBC40000EB4410674A19
:1047A00002EBC00080F8431004EBC40202EB441299
:1047B000624B03EBC202926D04EBC40303EB4413A0
:1047C0005E4D05EBC30393F83C3102FB03F1621C21
:1047D000D0B20022FFF777FEBDEC048B70BD30B580
:1047E0002DED028B81B00446B0EE408A0D460020CC
:1047F00000909FED550A28EE000ABDEEC00A10EEAB
:10480000101A524A5388121D02EB0312501D6A46B9
:10481000FDF77CFC44F0704040F480614B484288D6
:10482000001D00EB021001600098C1B247484288A9
:10483000001D00EB0210017144484188001D00EB8F
:104840000110457341484088401C322190FBF1F231
:1048500001FB12003D4948800121601E00EBC002AF
:1048600002EB4010354A02EBC00080F8101106F050
:10487000CBF9611E01EBC10202EB41112F4A02EBA1
:10488000C101C1F8180101B0BDEC028B30BD30B5DB
:104890002DED028B81B00446B0EE408A0D4600201B
:1048A00000909FED290A28EE000ABDEEC00A10EE26
:1048B000101A264A5388121D02EB0312501D6A4635
:1048C000FDF724FC44F0704020494A88091D01EBA3
:1048D000021108600098C1B21C484288001D00EB1C
:1048E0000210017119484188001D00EB0110457349
:1048F00016484088401C322190FBF1F201FB120067
:10490000124948800121601E00EBC00202EB4010FA
:104910000A4A02EBC00080F8101106F075F9611E1A
:1049200001EBC10202EB4111044A02EBC101C1F8E3
:10493000180101B0BDEC028B30BD000044700020B6
:104940002069002064750020002474496C620020F6
:1049500030B52DED028B81B00446B0EE408A0D4695
:10496000002000909FEDFB0A28EE000ABDEEC00A71
:1049700010EE101AF84A5388121D02EB0312501D54
:104980006A46FDF7C3FB44F0704040F00201F24874
:104990004288001D00EB021001600098C1B2EE4891
:1049A0004288001D00EB02100171EB484188001D98
:1049B00000EB01104573E8484088401C322190FB11
:1049C000F1F201FB1200E44948800121601E00EB76
:1049D000C00202EB4010E14A02EBC00080F8101167
:1049E00006F012F9611E01EBC10202EB4111DB4A34
:1049F00002EBC101C1F8180101B0BDEC028B30BD62
:104A000030B52DED028B81B00446B0EE408A0D46E4
:104A1000002000909FEDCF0A28EE000ABDEEC00AEC
:104A200010EE101ACC4A5388121D02EB0312501DCF
:104A30006A46FDF76BFB44F0704040F00C01C6483D
:104A40004288001D00EB021001600098C1B2C2480C
:104A50004288001D00EB02100171BF484188001D13
:104A600000EB01104573BC484088401C322190FB8C
:104A7000F1F201FB1200B84948800121601E00EBF1
:104A8000C00202EB4010B54A02EBC00080F81011E2
:104A900006F0BAF8611E01EBC10202EB4111AF4A08
:104AA00002EBC101C1F8180101B0BDEC028B30BDB1
:104AB00010B50446601E00EBC00101EB4010A74991
:104AC00011F8300008B9012010BDA548407E00282B
:104AD0007AD0601E00EBC00101EB40109F4901EB52
:104AE000C000C07802286FD1601E00EBC00101EB4E
:104AF00040109A4901EBC0008068002864D0601E15
:104B000000EBC00101EB4010944901EBC000C0690B
:104B1000002809DD601E00EBC00101EB40108F4949
:104B200001EBC000C06909E0601E00EBC00101EBB1
:104B300040108A4901EBC000C0694042142816DACF
:104B4000601E00EBC00101EB4010844901EBC00086
:104B5000B0F81201401C81B2601E00EBC00202EBF3
:104B600040107E4A02EBC000A0F812110AE00021BA
:104B7000601E00EBC00202EB4010784A02EBC0005E
:104B8000A0F81211601E00EBC00101EB4010734948
:104B900001EBC000B0F81211601E00EBC00202EB86
:104BA00040106E4A02EBC000B0F81E0181420CDDDD
:104BB0000121601E00EBC00202EB4010674A02EBCD
:104BC000C00080F840100BE025E00021601E00EBE3
:104BD000C00202EB4010614A02EBC00080F84010B6
:104BE000601E00EBC00101EB40105C4901EBC0000E
:104BF00090F8400001280CD101F05AFA00219FEDF5
:104C0000590A2046FFF78BF9204600F065FC00208A
:104C10005AE7012058E7012056E710B5044604EB97
:104C2000C40000EB44104D4911F83000012868D150
:104C300004EBC40000EB441001EBC00090F8390114
:104C400000285ED005F0E0FF04EBC40101EB441145
:104C5000424A02EBC101D1F81811401A40F2DC516E
:104C6000884213D304EBC40000EB4410114601EB5F
:104C7000C00090F81401401CC1B204EBC40000EB6A
:104C8000441002EBC00080F8141109E0002104EB8D
:104C9000C40000EB4410314A02EBC00080F814114C
:104CA00004EBC40000EB44102C4901EBC00090F869
:104CB000141104EBC40000EB4410284A02EBC000BE
:104CC000B0F81C01814209DD012104EBC40000EBB6
:104CD000441002EBC00080F8421012E01F4890F828
:104CE000420070B91D4890F88A0150B91B4890F8ED
:104CF000D20230B9194890F81A0410B9002000F017
:104D0000EBFB10BD10B5002421E0611CC8B2FFF719
:104D1000CFFE1548007804EBC40101EB44110F4AA3
:104D200002EBC10148701048407804EBC40101EB6C
:104D3000441102F831000C48B0F9021004EBC40031
:104D400000EB441002EBC0008160601CC4B2042C74
:104D5000DBDB10BD00007A446C6200204470002050
:104D600004700020000000003400002030B502462E
:104D70000023012904D10120CC4C2072062303E03A
:104D80000120CA4C60720823002029E00025672416
:104D9000444302EBC40425616724444302EBC4048A
:104DA00025736724444342F834506724444302EB9C
:104DB000C40465606724444302EBC404E5826724AD
:104DC000444302EBC404A5826724444302EBC404B9
:104DD000A5606724444302EBC40484F82550401CBA
:104DE0009842D3DB30BD2DE9F04105460E4617460B
:104DF0004FF00008012F02D14FF0060801E04FF0FC
:104E00000808002494E06720604305EBC0000069B7
:104E100001287DDB3046FDF794FB08B1BDE8F08149
:104E20006721614305EBC10101F11400FDF780FB2F
:104E300030B100216720604305EBC0008160EDE7E1
:104E40006720604305EBC0000069401E6721614395
:104E500005EBC10108616720604305EBC000183015
:104E60006721614305EBC101898A00EB011072885B
:104E70000168301D00EB021001606720604305EB04
:104E8000C00018306721614305EBC101898A00EB3E
:104E9000011001797288301D00EB0210017167204A
:104EA000604305EBC00018306721614305EBC10189
:104EB000898A00EB0110417B7288301D00EB0210E3
:104EC00041736723634305EBC30318334FF0670C4B
:104ED00004FB0CFC05EBCC0CBCF814C003EB0C136E
:104EE000591DB6F802C0331D03EB0C131A79331D9C
:104EF00003EB0C13581D06F072F93088401C322168
:104F000090FBF1F201FB120030806720604300E06B
:104F10000DE005EBC000808A401C90FBF1F201FB24
:104F2000120081B26720604305EBC0008182641CDF
:104F30004445FFF668AF00BF70E72DE9F041044635
:104F40000E4617464FF00008FF253188301D00EB54
:104F50000110407B08B9BDE8F081012F02D14FF06C
:104F6000060809E04FF008083188301D00EB0110F9
:104F70000088A0F2013085B245450DDA672169430A
:104F800004EBC10101F11400FDF7DBFA48B1012F78
:104F900003D101204549887286E001204349C87247
:104FA00082E06720684304EBC0000069401C672171
:104FB000694304EBC10108616720684354F830007D
:104FC000401C6721694344F831003188301D00EBF3
:104FD000011002686720684304EBC00018306721A5
:104FE000694304EBC101C98A00EB011002603188FA
:104FF000301D00EB011002796720684304EBC0000C
:1050000018306721694304EBC101C98A00EB011024
:1050100002713188301D00EB0110427B672068432C
:1050200004EBC00018306721694304EBC101C98A51
:1050300000EB0110427367236B4304EBC303183387
:105040004FF0670C05FB0CFC04EBCC0CBCF816C055
:1050500003EB0C131A7967236B4304EBC303183378
:105060004FF0670C05FB0CFC04EBCC0CBCF816C035
:1050700003EB0C13581DB6F800C0331D03EB0C13E3
:10508000591D06F0ACF86720684304EBC000C08AE5
:10509000401C322190FBF1F201FB120081B267202B
:1050A000684304EBC000C18200BF54E7480F0020F2
:1050B0000022826180ED031AC0ED020A80ED010A30
:1050C000C0ED041A0160C2610023036243627047AD
:1050D00080ED000AC0ED010A80ED021AC0ED041A4D
:1050E000704701688269891AC161C269016A511AEF
:1050F00000EE101AB8EEC00AD0ED010A20EE200A28
:1051000090ED021AC16900EE901AF8EEE00A01EE85
:10511000200AC269016A022303FB1122416A114479
:1051200000EE901AF8EEE00A90ED031A01EE200A64
:10513000BDEEC00A10EE101A4161026A4262C269F5
:105140000262704770B504460D4616462563E66256
:10515000206BE16A401A6062206B002801DD206B41
:1051600001E0206B4042142806DA9FED360A84EDF8
:10517000060A606AA06270BD606A00EE100AB8EEAE
:10518000C00AD4ED000A20EE200ADFED2F0A80EEDF
:10519000201A84ED051A606A00EE100AB8EEC00A03
:1051A000D4ED010A60EE200A9FED281A80EE810AF4
:1051B0009FED251AC0EE010A94ED060A30EE800A32
:1051C00084ED060A606AA16A401A00EE100AB8EE81
:1051D000C00AD4ED020A20EE200A84ED070A94EDFD
:1051E000030AD4ED070A70EE600A94ED030A94ED09
:1051F000041A01EE600A84ED030A94ED030A84EDBB
:10520000070AF7EE000ABFEE000A04F1180000F0EA
:1052100045FA606AA06294ED050AD4ED060A30EE04
:10522000200AD4ED070A30EE200A84ED080AF7EED2
:10523000000ABFEE000A04F1200000F02FFA00BFC0
:1052400099E70000000000000000C84200007A4416
:105250001CB50121084602F035F9F020009001202C
:105260008DF8040002208DF8050000208DF806005E
:1052700001208DF8070069461F4801F0DDFE10206F
:105280001D4908832020088340200883802008834C
:105290001CBD10B5102018494883642000F05DF94A
:1052A000202015494883642000F057F94020124916
:1052B0004883642000F051F980200F49488364201E
:1052C00000F04BF910200C490883642000F045F9E8
:1052D000202009490883642000F03FF94020064956
:1052E0000883642000F039F9802003490883642092
:1052F00000F033F910BD0000000002409FED5E0A8F
:1053000080ED000A9FED5D0A80ED020A704710B53E
:105310002DED0C8B0446B0EE408AF0EE608A94EDE1
:10532000020ADFED570A30EEC00AD4ED000A20EE83
:10533000200A10EE101A084608F090FE41EC1B0BF4
:1053400094ED020A10EE101A084608F087FE41ECB0
:105350001D0B53EC182B08F063FC41EC1C0B53ECB9
:105360001B2B08F049F941EC1A0B9FED460B53EC4F
:10537000102B08F0FDF941EC190B08F00BF96060F7
:1053800094ED010A84ED000A94ED010A10EE101A62
:10539000084608F063FE41EC100BBDEC0C8B10BD11
:1053A000B7EE000A80ED020AB7EE000A80ED030AAC
:1053B000B7EE000A80ED050A9FED340A80ED060A7B
:1053C0009FED330A80ED070A9FED2B0A80ED0C0A52
:1053D000704710B52DED068B0446B0EE408A18EEEE
:1053E000100A08F03BFE41EC1A0BB0EE4A0AF0EE50
:1053F0006A0A2848FFF78BFFB0EE409AF0EE609AF9
:1054000051EC190B08F0C6F8206394ED050AD4EDB1
:10541000070A30EE200AD4ED050A80EE801A84EDEA
:105420000A1A94ED0C0AD4ED030A94ED091A00EE61
:10543000C10AD4ED090A94ED0A1A41EE000AC4ED3E
:10544000080AD4ED0A0A94ED031AB7EE000A00EE3A
:10545000C10AD4ED050A20EE200A84ED040A94ED79
:10546000040A84ED050A94ED080A84ED090A94ED16
:10547000080ABDEC068B10BD0000000000002544AA
:1054800000007A440000000000408F40ACC5273780
:10549000CDCCCC3D647500201CB50121022002F06A
:1054A00011F84FF44070009001208DF804000020A6
:1054B0008DF8060002208DF8050069461A4801F0B3
:1054C000BBFD4FF48071184801F032FE4FF40071BB
:1054D000154801F02FFE1CBD70B50446112C00DDEF
:1054E00011241248055D00261AE04FF480710E4821
:1054F00001F020FE05F0010028B14FF400710A48C8
:1055000001F016FE04E04FF40071074801F012FEAE
:105510004FF48071044801F00BFE6D10701CC6B290
:10552000082EE2DB70BD00000004024042E30008E8
:10553000704709E04FF4FA7000F00FF80920FFF708
:10554000CBFF042000F0B4FDF4E700BFFEE700BF8E
:10555000FEE700BFFEE77047704710B5002107E087
:105560004AF2104200BF1300A2F10102FBD1491C14
:105570008142F5D310BD10B5002106E0282200BFFE
:105580001300A2F10102FBD1491C8142F6D310BDE8
:1055900000BF0100A0F1010290B2FAD170470000F3
:1055A00090ED001AB4EEC01AF1EE10FA12D290ED9E
:1055B000001A31EE201AB4EEC01AF1EE10FA06D23B
:1055C00090ED001A31EE201A80ED001A1BE080EDFC
:1055D000000A18E090ED001AB4EEC01AF1EE10FACD
:1055E00011DD90ED001A31EE601AB4EEC01AF1EE42
:1055F00010FA06DD90ED001A31EE601A80ED001A07
:1056000001E080ED000A7047F0EE401A31EE612AA9
:1056100070EEE12A82EE220A704710B50446D4EDFE
:10562000000AB0EE600ADFEDF90A07F0A5FA84ED92
:10563000000A94ED000AB5EEC00AF1EE10FA07D2A6
:1056400094ED000ADFEDF10A30EE200A84ED000A45
:1056500010BD07E090ED000ADFEDED0A30EE200A04
:1056600080ED000A90ED000ADFEDEA0AB4EEE00AF0
:10567000F1EE10FAEED307E090ED000ADFEDE40A58
:1056800030EE600A80ED000A90ED000ADFEDE20ADC
:10569000B4EEE00AF1EE10FAEEDC704701460020AD
:1056A00091ED001AB4EEE01AF1EE10FA03DDC1ED4F
:1056B000000A012009E091ED001AB4EEC01AF1EEE3
:1056C00010FA02D281ED000A0120704710B503469E
:1056D00000201C68944202DD1A60012004E01C686E
:1056E0008C4201DA1960012010BD01460020D1ED85
:1056F000000AF4EEC00AF1EE10FA03DD81ED000AB3
:1057000001200DE0D1ED000AB1EE401AF4EEC10A1D
:10571000F1EE10FA04D2F1EE400AC1ED000A0120C8
:10572000704710B50246002013688B4202DD1160FD
:10573000012006E04C421368A34202DA4B42136098
:10574000012010BDF0EE402A32EEE00A32EE613A5E
:1057500020EE030A71EE603A80EE233A33EE210A1E
:10576000704770B50446049D601AEE1A7043561ACD
:1057700090FBF6F0184470BDB0EE401A90ED000AB0
:10578000B0EEC00AB4EEC10AF1EE10FA04D29FEDF9
:10579000A30A80ED000A28E070EEC11A80EEA12A6B
:1057A000B0EE420AD0ED001AF5EEC01AF1EE10FA92
:1057B0000CDDD0ED001A61EE801AB7EE002A32EE51
:1057C000402A40EE821AC0ED001A0DE0D0ED001A1A
:1057D000F1EE611A61EE801AB7EE002A32EE402A2D
:1057E00050EEC21AC0ED001A00BF7047B0EE401A6A
:1057F00071EE601AB0EE610A05E0DFED841A70EE1A
:10580000211AB0EE610ADFED861AB4EEE10AF1EE7C
:1058100010FAF2D305E0DFED7D1A70EE611AB0EEFA
:10582000610ADFED801AB4EEE10AF1EE10FAF2DC63
:105830007047B0EE401A71EE601AB0EE610A05E0F2
:10584000DFED731A70EE211AB0EE610ADFED711A06
:10585000B4EEE10AF1EE10FAF2D305E0DFED6C1AD6
:1058600070EE611AB0EE610ADFED6B1AB4EEE10A78
:10587000F1EE10FAF2DC7047B0EE402AB0EEC20A48
:10588000DFED692A30EE220AB0EE401AF5EEC00ACA
:10589000F1EE10FA18DB30EEC13A70EE813A83EE89
:1058A000234AB0EE440A20EE003AF0EE432A9FED80
:1058B0005F3ADFED5F3A13EEA23ADFED5E3AF0EECB
:1058C000631A43EE001A18E030EE813A71EE603A46
:1058D00083EE234AB0EE440A20EE003AF0EE432A6B
:1058E0009FED523ADFED523A13EEA23ADFED523A13
:1058F000F0EE631A43EE001A00BFB5EEC02AF1EED7
:1059000010FA02D2B1EE610A7047B0EE610AFBE70D
:1059100005E0DFED3F0A70EE200AB0EE600ADFED31
:105920003D0AB4EEE00AF1EE10FAF2D305E0DFED45
:10593000380A70EE600AB0EE600ADFED370AB4EEA6
:10594000E00AF1EE10FAF2DCB5EEC00AF1EE10FA60
:1059500036D2DFED3A0A60EE200A9FED391A20EECA
:10596000011A41EE000AC0ED000AD0ED000AF5EE82
:10597000C00AF1EE10FA12D2D0ED000A90ED001A32
:10598000D0ED001AF1EE611A51EE210A90ED001AE5
:10599000DFED2C1A01EEA01A80ED001A64E0D0EDC4
:1059A000000A90ED001AD0ED001A51EE210A90ED98
:1059B000001ADFED241A01EEA01A80ED001A53E060
:1059C000DFED1E0A60EE200A9FED1D1A20EE011A7F
:1059D00041EE400AC0ED000AD0ED000AF5EEC00A23
:1059E000F1EE10FA30D2D0ED000A90ED001AD0EDB1
:1059F000001AF1EE611A51EE210A90ED001ADFED66
:105A0000111A01EEA01A80ED001A2DE00000B44337
:105A1000DB0FC940DB0F49C0DB0F4940000000002D
:105A2000000034C30000344308E53C1EB1507B3F06
:105A3000DE02493EDB0F493FE4CB164083F9A23F2B
:105A40007B81CF3E6666663ED0ED000A90ED001A7F
:105A5000D0ED001A51EE210A90ED001A5FED071A01
:105A600001EEA01A80ED001ADFEDFD0A70EE200AAB
:105A7000B0EE600A5FED180AB4EEE00AF1EE10FA3B
:105A800005DD5FED1D0A70EE600AB0EE600AB5EE4E
:105A9000C00AF1EE10FA36D25FED180A60EE200A65
:105AA0001FED191A20EE011A41EE000AC1ED000A9D
:105AB000D1ED000AF5EEC00AF1EE10FA12D2D1EDE6
:105AC000000A91ED001AD1ED001AF1EE611A51EEC3
:105AD000210A91ED001A5FED251A01EEA01A81ED61
