:020000040800F2
:1000000060BE002075820008954D0008974D0008DD
:10001000AF4D0008B34D0008B74D000800000000C8
:10002000000000000000000000000000BB4D0008C0
:10003000BD4D000800000000FBA400085FA70008F9
:100040008F8200088F8200088F8200088F8200084C
:100050008F8200088F8200088F8200088F8200083C
:100060008F8200088F8200088F8200088F8200082C
:100070008F8200088F8200088F8200088F8200081C
:100080008F8200088F0600088F8200088F82000888
:10009000AD1300088F8200088F8200088F8200084D
:1000A0008F8200088F8200088F8200088F820008EC
:1000B000A1040008CF2200088F8200088F82000868
:1000C0008F8200088F8200088F8200088F820008CC
:1000D0008F8200087D240008B50600088F82000882
:1000E0008F8200088F8200088F8200088F820008AC
:1000F0008F8200088F8200088F8200088F8200089C
:100100008F8200088F820008091900088F8200087A
:100110008F8200088F8200088F8200088F8200087B
:100120008F8200088F8200088F8200088F8200086B
:100130008F8200088F8200088F8200088F8200085B
:10014000391C00084D1D00088F8200088F820008AE
:100150008F8200088F820008572400088F820008D1
:100160008F8200088F8200088F8200088F8200082B
:100170008F8200088F8200088F8200088F8200081B
:100180008F8200088F82000800F002F800F053F818
:100190000AA090E8000C82448344AAF10107DA45E2
:1001A00001D100F048F8AFF2090EBAE80F0013F0E1
:1001B000010F18BFFB1A43F00103184704DD0000CC
:1001C00024DD0000103A24BF78C878C1FAD852075D
:1001D00024BF30C830C144BF04680C6070470000C1
:1001E0000023002400250026103A28BF78C1FBD840
:1001F000520728BF30C148BF0B60704764290AF01E
:100200009583002070471FB50DF0CDFB9DE80300DE
:100210000AF0D0FC0BF04AF90400002000210CF099
:10022000D7FD401C6060002000210CF0BBFDE060A9
:100230001FBD10B510BD0AF040FE1146FFF7E3FFE9
:1002400000F0A5F80BF0B8F803B4FFF7F2FF03BC19
:100250000BF026F914E06A4CD4F8F44323B2684C4E
:10026000D4F8AC4222B2664CD4F8E04321B2644CDC
:10027000D4F8984220B202F06CF964200AF046F8F3
:10028000E9E743E000243CE0C4EBC4005D4901EB36
:10029000401090F83700012803D1611CC8B204F067
:1002A0004DFD64200AF032F804EBC40000EB44106A
:1002B000534901EBC00090F84200012806D1211DEE
:1002C000C8B204F03BFD64200AF020F84D4890F8D5
:1002D0003500012814D14B4890F8150101280FD1A1
:1002E000484890F8F50101280AD1082005F012FBD2
:1002F0000021444880F8351080F8151180F8F51178
:10030000641C032CC0DB64200AF000F8BAE706E0A6
:100310003D493E4802F08EF9102009F0F7FFF7E75B
:10032000022005F0F7FA002004F008FD04E004F0D4
:10033000E2FBC82009F0EAFFF9E770B504460025A2
:1003400000BF0AF022FA00F0B5FC0AF0B5F8054645
:1003500012232F4A00212F4809F092FC08232E4A2D
:1003600000212E4809F08CFC07232D4A00212D483E
:1003700009F086FC10232C4A00212C4809F080FC4F
:10038000052009F0FBFE28460AF09AF870BD10B56A
:1003900007F0D6FE4FF4806101F00702244B186885
:1003A0004FF6FF031840234B034343EA0220204B40
:1003B000186000BF00F0AEFE01F050FB00F044F802
:1003C00001F05AFF01F070FA00F0C6F801F0A4FF46
:1003D00002F022F90221184804F0FAF801F046FE72
:1003E00000201649087008F09DF80523144A0021E2
:1003F000144809F045FC08F0BCF9002010BD0000CD
:10040000F4700020106D00205C6600200068004041
:10041000B408002021030008B41000200F030008D6
:10042000B40C002083020008B4120020550200081A
:100430000CED00E00000FA0520160020000000206E
:10044000B40400203B0300081FB50121084606F054
:100450009EFC40F2E73002905320ADF804000020EB
:10046000ADF80600ADF80C0001A94FF0804006F091
:1004700046FE1C208DF8000001208DF801008DF84B
:1004800002008DF80300684605F063FA0122114668
:10049000900707F0D5FA0121880706F0B9FE1FBDC5
:1004A00010B50121880707F0E2FA01284AD101219D
:1004B000800707F0EDFA00242DE0C4EBC4002249C8
:1004C00001EB4010007808B3C4EBC40001EB40100E
:1004D0004078E0B1C4EBC40001EB40108078012803
:1004E00006D0022805D004280BD005280DD104E041
:1004F0000CE020B202F0A8FB08E020B202F000FD00
:1005000004E020B202F0F1FB00E000BF02E020B204
:1005100002F0F6FC641C042CCFDB0B4CB4F9A632C1
:10052000B4F9C621B4F9E610B4F9060003F077F87F
:1005300003F0DFF80548407A20B10222044905485B
:1005400004F083F810BD0000106D00203813002067
:10055000146000202016002000B597B00121084645
:1005600006F0E2FB0121480406F011FC01214805D8
:1005700006F0DAFB07220221FC4806F01AFA0722ED
:100580000321FA4806F015FA0C20119002208DF88C
:10059000480000208DF84A0003208DF84900002013
:1005A0008DF84B0011A9F14806F078F94FF4E130CD
:1005B00013900020ADF85000ADF85200ADF8540093
:1005C000ADF858000C20ADF8560013A9E84807F024
:1005D00089FB012240F22551E54807F0C1FC2620A5
:1005E0008DF8400004208DF8410001208DF8420074
:1005F0008DF8430010A805F0ACF90121DC4807F0A4
:10060000F9FBDC4805F008FF4FF000600190002086
:10061000059040200490D8480390D548001D0290D2
:100620000015079000200690099008900A904FF45A
:1006300040300B9000200C9001200D9000200F9076
:100640000E9001A9CB4805F089FFCC49C94806F0B6
:1006500038F8CA49C74806F08FF801221021C5486A
:1006600006F043F811208DF8400007208DF8410076
:1006700001208DF842008DF8430010A805F069F9BB
:1006800001228021BA4807F062FC17B000BD10B506
:10069000BA49B84806F046F801280AD1B749B54822
:1006A00006F00FF8B549B34806F066F80020B449E3
:1006B000C87310BD10B52DED028B002440F225311A
:1006C000AB4807F088FC50B1A94807F0C2FB0020F6
:1006D000AC4908702021AC480AF02AFADCE240F26A
:1006E0002551A34807F077FC0028F7D02021A04827
:1006F00007F068FC40F225519D4807F0A3FC9C4898
:1007000007F0A7FBC4B29F48007800F0400008B390
:100710009C48007800F0800020BBFF2C06D199484F
:10072000007840F08000974908701BE095480078F9
:1007300000F03F019448445492480078401C91498D
:1007400008700846007800F03F0028280ADD0020E5
:10075000087007E0EE2C05D18A48007840F0400090
:10076000884908708748007800F080000028B5D0DC
:10077000864890F82102012804D1844890F8230289
:1007800083490870814890F8230230B1012805D0D0
:10079000022873D0062800D1E6E174E27B4890F885
:1007A0002502082822D1794890F8260211281DD167
:1007B000764890F82702302806D0312808D0322811
:1007C0000AD0332810D10BE00020724908700CE0E9
:1007D00001207049087008E002206E49087004E0AA
:1007E00003206C49087000E000BF00BF674890F824
:1007F000250209281FD1654890F8260210281AD131
:10080000624890F8280250B1012812D16149097854
:10081000C1EBC101604A02EB411108700AE00020FF
:100820005C490978C1EBC1015B4A02EB41110870D8
:1008300000E000BF00BF554890F825020A2820D1EB
:10084000524890F8260210281BD1504890F82802F0
:1008500050B1012813D14F490978C1EBC1014E4A6B
:1008600002EB411148700BE000204A490978C1EBC6
:10087000C101494A02EB4111487001E08FE000BF1D
:1008800000BF424890F8250203282ED13F4890F837
:100890002602112829D13D4890F82702322804D099
:1008A00034280CD035281ED113E0022039490978AC
:1008B000C1EBC101384A02EB4111887014E00420F9
:1008C00034490978C1EBC101334A02EB4111887008
:1008D0000AE005202F490978C1EBC1012E4A02EB3D
:1008E0004111887000E000BF00BF284890F8250241
:1008F00001281AD1254890F82602112815D122483E
:10090000C01D0BF05DFCB0EE408AF0EE608A51EC49
:10091000180B0CF0F5FC01B21E480078C0EBC000CB
:100920001D4A02EB40100181ADE1184890F8250204
:10093000022833D1154890F8260211282ED11248EA
:10094000C01D0BF03DFCB0EE408AF0EE608A51EC29
:10095000180B0CF0D5FC00B20E490978C1EBC101AF
:100960000D4A02EB411188808DE100000000024039
:1009700000440040A06002406D1400200080202050
:1009800038130020020000206D1500204D130020B8
:100990000100002004000020106D002073E1FD48DC
:1009A00090F82502082822D1FA4890F8260211284A
:1009B0001DD1F84890F82702302812D0312804D0F1
:1009C000322806D0332810D107E00120F249087000
:1009D0000CE00220F049087008E00320EE4908709E
:1009E00004E00020EC49087000E000BF00BFE948C7
:1009F00090F82502092821D1E64890F8260210280F
:100A00001CD1E44890F8280258B1012814D1E249D9
:100A1000097801EBC10202EB4111E04A02F8310012
:100A20000BE00020DC49097801EBC10202EB411127
:100A3000DA4A02F8310000E000BF00BFD54890F864
:100A400025020A2823D1D34890F8260210281ED167
:100A5000D04890F8280260B1012816D1CE49097813
:100A600001EBC10202EB4111CC4A02EBC10148701B
:100A70000CE00020C849097801EBC10202EB4111EA
:100A8000C64A02EBC101487000E000BF00BFC14888
:100A900090F82502032826D1BE4890F82602112896
:100AA00021D1BC4890F82702322802D0352818D12D
:100AB0000BE00220B849097801EBC10202EB4111B9
:100AC000B64A02EBC101C8700CE00520B2490978B2
:100AD00001EBC10202EB4111B04A02EBC101C87047
:100AE00000E000BF00BFAB4890F8250201281AD1F2
:100AF000A84890F82602112815D1A9480BF060FBF0
:100B0000B0EE408AF0EE608A51EC180B0CF0F8FB66
:100B1000A149097801EBC10202EB41119F4A02EBA6
:100B2000C1018860AFE09B4890F8250202281AD1E5
:100B3000984890F82602112815D199480BF040FBEF
:100B4000B0EE408AF0EE608A51EC180B0CF0D8FB46
:100B50009149097801EBC10202EB41118F4A02EB86
:100B6000C10148618FE000BF8A4890F82502012842
:100B700012D1884890F8260211280DD188480BF030
:100B80001FFBB0EE408AF0EE608A51EC180B0CF0BF
:100B9000B7FB00B2834948807E4890F825020228BE
:100BA00012D17C4890F8260211280DD17C480BF018
:100BB00007FBB0EE408AF0EE608A51EC180B0CF0A7
:100BC0009FFB00B27849C880724890F8250203283C
:100BD00012D1704890F8260211280DD170480BF000
:100BE000EFFAB0EE408AF0EE608A51EC180B0CF090
:100BF00087FB00B26C498880664890F8250204287B
:100C000007D1644890F82602102802D101206649D5
:100C10004870604890F82502052807D15D4890F893
:100C20002602102802D101205F490870594890F827
:100C30002502062807D1574890F82602102802D12D
:100C4000012058494870534890F82502042807D1DC
:100C5000504890F82602102802D10120514908700E
:100C60004C4890F825020C280CD14A4890F82602EE
:100C7000102807D100204B4948704B490870487034
:100C80004849087000BF00BF002048490870202173
:100C90004348C01F09F04CFFBDEC028B10BD10B5DE
:100CA00004462146424805F0B4FC0121404805F0C5
:100CB0008FFC10BD70B52DED028B0024EE22214675
:100CC000641C3C484254B1222146641C4254102208
:100CD0002146641C425400222146641C4254214691
:100CE000641C42542146641C425405222146641C63
:100CF000425410222046611CCCB22E490A540022D4
:100D00002046611CCCB22B490A5401222046611CAA
:100D1000CCB228490A54FF222046611CCCB2254996
:100D20000A54FC222046611CCCB222490A54FF22FC
:100D30002146601CC4B21F4842542046611CCCB2FC
:100D40001C490A541C480078012802D002287DD191
:100D5000E9E0EE222146601CC4B216484254B1229A
:100D60002046611CCCB213490A5412222046611C51
:100D7000CCB210490A5400222046611CCCB20D4965
:100D80000A5401222046611CCCB20A490A540025AB
:100D9000C5E000004D13002005000020F470002085
:100DA00074150020340000202A00002002000020DA
:100DB000A06002406D14002001000020C5EBC500BA
:100DC000CF4901EB4010807800287DD000222046DA
:100DD000611CCCB2CB490A5401222046611CCCB222
:100DE000C8490A5400222046611CCCB2C5490A54A5
:100DF000C5EBC500C24901EB4010B0F91820C2A1F3
:100E0000C24809F04BFDC14809F0F0FDC2B22046CE
:100E1000611CCCB2BB490A540819BC4909F0C2FD97
:100E2000BA4809F0E3FD2044C4B200222046611C08
:100E3000CCB2B4490A5402222046611CCCB2B1495A
:100E40000A5400222046611CCCB200E050E1AD49BA
:100E50000A54C5EBC500AA4901EB4010B0F91420B3
:100E6000A9A1AA4809F01AFDA84809F0BFFDC2B21D
:100E70002046611CCCB2A3490A540819A34909F0C1
:100E800091FDA24809F0B2FD2044C4B200222046E0
:100E9000611CCCB29B490A5409222046611CCCB289
:100EA00098490A5410222046611CCCB295490A5434
:100EB00001222046611CCCB292490A54C5EBC50000
:100EC0008F4901EB401000E028E042782046611C89
:100ED000CCB28C490A5400222046611CCCB289490C
:100EE0000A540A222046611CCCB286490A541022B8
:100EF0002046611CCCB283490A5401222046611C61
:100F0000CCB280490A54C5EBC5007D4901EB4010C5
:100F100042782046611CCCB27A490A546D1C042DDB
:100F2000FFF64CAFE5E0EE222046611CCCB27549DD
:100F30000A54B1222046611CCCB272490A541222D2
:100F40002046611CCCB26F490A5400222046611C25
:100F5000CCB26C490A5402222046611CCCB26949C9
:100F60000A540025C0E005EBC50000EB45106849B8
:100F700001EBC000C07800287ED000222046611C12
:100F8000CCB260490A5401222146601CC4B25D48BB
:100F9000425400222046611CCCB25A490A5405EB47
:100FA000C50000EB45105A4901EBC000C26956A1CB
:100FB000564809F073FC554809F018FDC2B22146A5
:100FC000641C5048425401464819504909F0EAFC53
:100FD0004E4809F00BFD2044C4B200222046611C9B
:100FE000CCB248490A5402222046611CCCB2454981
:100FF0000A5400222046611CCCB242490A5405EB37
:10100000C50000EB4510424A02EBC00090ED080A13
:1010100010EE101A08460CF055FC41EC180B53EC7E
:10102000182B39A1394809F039FC384809F0DEFCA1
:10103000C2B22146641C3348425401464819334920
:1010400009F0B0FC314809F0D1FC2044C4B20022C0
:101050002146601CC4B22B48425409222046611C20
:10106000CCB228490A5410222046611CCCB2254932
:101070000A540122204600E035E0611CCCB221492F
:101080000A5405EBC50000EB4510214901EBC000F7
:1010900042782046611CCCB21A490A5400222046EC
:1010A000611CCCB217490A5409222046611CCCB2FB
:1010B00014490A5410222046611CCCB211490A542A
:1010C00001222046611CCCB20E490A5405EBC50032
:1010D00000EB45100E4901EBC00042782046611C30
:1010E000CCB208490A546D1C042DFFF63CAF00E059
:1010F00000BF00BF2046FFF7D2FDBDEC028B70BDE4
:10110000106D00206D14002025640000B81200202E
:10111000F470002000B58BB00020FE49087001215A
:10112000480605F034FE0121084605F0FDFD0922C0
:101130000B21F94805F03DFC09220C21F64805F089
:1011400038FC02208DF81C004FF4C050069006A910
:10115000F14805F0A3FB14208DF8040003208DF85E
:10116000050000208DF8060001208DF8070001A879
:1011700004F0EFFBE94804F057FC08A804F078FD00
:1011800000208DF8260001208DF8270000208DF822
:1011900028008DF829008DF82A008DF82B008DF895
:1011A00022008DF8230008208DF8240003208DF8FC
:1011B0002500ADF8200008A9D84804F04EFC012015
:1011C0008DF812008DF8130000208DF8140046F2FF
:1011D000A000ADF8080046F2C000ADF80A0046F2E3
:1011E000E000ADF80C004FF4C240ADF80E00002056
:1011F000ADF8100001208DF8150002A804F0B7FC2E
:1012000002208DF8120001208DF8130000208DF8C7
:1012100014004FF4C140ADF8080046F22000ADF8CC
:101220000A0046F24000ADF80C0046F26000ADF84E
:101230000E000020ADF8100001208DF8150002A866
:1012400004F095FC03208DF8120001208DF81300A6
:1012500000208DF814004FF4C040ADF808004FF4A2
:10126000C840ADF80A000020ADF80C00ADF80E0043
:10127000ADF8100001208DF8150002A804F077FCED
:1012800001220221A54804F071FF0BB000BD70B52A
:1012900004460D4605F52070A1494A88091D01EB59
:1012A0000211086004219E484288001D00EB0210D4
:1012B0000171A27A9A494B88091D01EB0311481D5F
:1012C00004F10B0109F0BDFB95484088401C322118
:1012D00090FBF1F201FB12009149488070BD70B59E
:1012E00005460E46144606F520708D494A88091DAC
:1012F00001EB02110860082189484288001D00EBBB
:1013000002100171AA7A86494B88091D01EB03116D
:10131000481D05F10B0109F094FB217880484288B3
:10132000001D00EB0210417261787D484288001D6B
:1013300000EB02108172A17879484288001D00EB11
:101340000210C172E17876484288001D00EB02105D
:10135000017373484088401C322190FBF1F201FB7D
:1013600012006F49488070BD70B586B005460C46C6
:10137000164604F52070019000208DF80C008DF8C1
:101380000D0008208DF80E00002007E0654931F8B7
:1013900010200DF10F0121F81020401C0428F5DB6E
:1013A00001A95E4804F0D2FC06B070BD30B585B02E
:1013B00002215A4804F042FF00287DD002215748FC
:1013C00004F0D7FF0221554804F015FF6A460021BA
:1013D000524804F0B0FD0098C5B20098B0F5407FC7
:1013E0006CD19DF80B004D2824D19DF80C004F289E
:1013F00020D104208DF80A00002415E09DF80F008C
:1014000000F0010004EBC40101EB4411464A02F86C
:10141000310004EBC40000EB4410114611F8300019
:1014200008B100204870641C032CE7DB294668469D
:10143000FFF72DFF9DF80B00532848D19DF80C00B5
:10144000542844D133480078B8BB002439E0052043
:1014500004EBC40101EB4411334A02EBC101C87033
:1014600004EBC40000EB4410114601EBC00090ED0A
:10147000080ABDEEC00A2D4880ED000A90ED000A72
:10148000B8EEC00A04EBC40000EB441001EBC0004E
:1014900080ED030A04EBC40101EB441102EBC1012E
:1014A000D1ED030AB0EE600A611CC8B2002102F05F
:1014B000CFFB0120174902E0E6E104E09BE0087061
:1014C000641C032CC3DB29466846FFF7E0FE9DF849
:1014D0000B0042282FD19DF80C0047282BD1002467
:1014E00011E0022004EBC40101EB44110E4A02EBAF
:1014F000C101C870012004EBC40101EB441102EBEF
:10150000C1014870641C032CEBDB0020014908700A
:1015100029460DE01C00002000000240006400404D
:101520003863002014000020F47000201000002018
:101530006846FFF7ACFE9DF80B0050281BD19DF8C4
:101540000C00582817D1681CC5B2002411E004EB28
:10155000C40101EB4411CD4A02EBC10101F12800A5
:10156000CB4900F009FECA4A29466846FFF7B7FE94
:10157000641C032CEBDB9DF80B0056281BD19DF857
:101580000C00582817D1A81CC5B2002411E004EBA8
:10159000C40101EB4411BD4A02EBC10101F11C0081
:1015A000BB4900F0E9FDBA4A29466846FFF797FEB5
:1015B000641C032CEBDB9DF80B0049281AD19DF825
:1015C0000C00512816D1E81CC5B2002410E004EB31
:1015D000C40101EB4411AD4A02EBC101081DAC4945
:1015E00000F0B6FDAA4A29466846FFF778FE641C5B
:1015F000032CECDB00BF0098B0F5407F20D90098A9
:10160000B0F5417F1CD80098401EC5B29DF80B0074
:101610004A2815D19DF80C00562811D1DDF80F008D
:101620009C4908600846016805EBC50000EB4510C1
:10163000964A02EBC000816029466846FFF727FE04
:101640000098B0F5417F7DD90098B0F5427F7ED8F3
:101650009DF80B00532811D19DF80C0054280DD192
:101660000098401FC5B20020C5EBC5018A4A02EBB5
:101670004111487029466846FFF709FE9DF80B00A6
:10168000422811D19DF80C0047280DD10098401F29
:10169000C5B20120C5EBC5017F4A02EB411148707C
:1016A00029466846FFF7F3FD9DF80B00502823D12B
:1016B0009DF80C0058281FD10098C5B277490DF14C
:1016C0000F0000F082FD754890ED000AB8EEC00AE8
:1016D000DFED730A80EE201ABDEEC10A10EE100A8B
:1016E00001B2681FC0EBC0006B4A02EB4010818062
:1016F00029466846FFF7CBFD9DF80B004D2816D113
:101700009DF80C004F2812D10098C5B29DF80F002B
:1017100008B1012100E00021681FC0EBC0005E4A53
:1017200002EB4010017029466846FFF7B0FD9DF8B6
:101730000B005A280BD19DF80C004A2807D10098BD
:10174000C5B200E003E029466846FFF7A0FD009817
:10175000B0F5487F2DD10098A0F54870C5B29DF82E
:101760000B004D2826D19DF80C004F2822D10020D7
:1017700019E09DF8101009B1012100E00021C0EB33
:10178000C002454B03EB42121170C0EBC0011A4678
:1017900002EB4111097829B90021C0EBC00203EB2B
:1017A00042125170401C0328E3DB29466846FFF7CC
:1017B0006EFD68E09DF80B005A2809D19DF80C00D9
:1017C000452805D1002000E0401C0328FCDB5AE03E
:1017D0009DF80B0053281CD19DF80C00502818D1FF
:1017E000002413E02B490DF10F0000F0EEFC294816
:1017F000008881B2C4EBC400274A02EB4010A0F875
:10180000461029466846FFF742FD641C032CE9DBBD
:1018100039E09DF80B00502808D19DF80C0058289D
:1018200004D129466846FFF732FD2CE0002021E074
:101830000DF10B0131F810101A4A22F81010114660
:1018400031F91010642291FBF2F109B2C0EBC00231
:10185000114B03EB42129180C0EBC0011A4602EB20
:101860004111898A642211FB02F109B20D4A22F862
:101870001010401C0328DBDB0098C5B2094A29463A
:101880006846FFF771FD00BF05B030BDF470002061
:10189000080000200C000020106D00201000002027
:1018A0000000C842140000201FB50121082005F0E7
:1018B0006EFA42F6DF6002902320ADF804000020AB
:1018C000ADF80C00ADF8060001A95F4805F017FC63
:1018D00032208DF8000001208DF803008DF8010002
:1018E00000208DF80200684604F033F801215648C4
:1018F00006F0BAF801221146534806F0A1F801217A
:10190000514805F085FC1FBD70B501214E4806F019
:10191000AEF8002871D001214B4806F0B9F8002438
:1019200089E004EBC40000EB4410484911F8300092
:10193000002878D004EBC40000EB441001EBC00099
:101940004078002876D004EBC40000EB441001EB93
:10195000C000C078062864D2DFE800F05003143ECF
:10196000632D04EBC40101EB4411384A02EBC101C1
:10197000D1ED010AB0EE600A611CC8B2002102F08C
:10198000BDFA4FE004EBC40202EB44122F4B03EB11
:10199000C202926804EBC40303EB44132B4D05EB26
:1019A000C30393F83C3102FB03F1621CD0B2002266
:1019B00002F0FCFA36E004EBC40101EB4411234AC7
:1019C00002EBC101D1ED030AB0EE600A611CC8B29E
:1019D000002102F03DF925E004EBC40101EB4411C4
:1019E0001A4A02EBC101D1ED480AB0EE600A611C4F
:1019F000C8B2002102F0E0FB14E01FE004EBC401D8
:101A000001EB4411114A02EBC101D1ED040AB0EE21
:101A1000600A611CC8B2002102F078FB02E002E01B
:101A200008E000BF06E0611CC8B200219FED080A73
:101A300002F064FA641C032CFFF673AF05490648F4
:101A400000F0F8FD70BD0000000C0040F4700020B4
:101A500000000000386300200064004000B58BB037
:101A60000121880605F093F90121022005F05CF9B7
:101A700009220521FE4804F09CFF09220621FC48AA
:101A800004F097FF02208DF818006020059005A94A
:101A9000F74804F003FF40208DF8280002208DF85D
:101AA000290000208DF82A0001208DF82B000AA8BB
:101AB00003F04FFF41208DF8280002208DF8290007
:101AC0008DF82A0001208DF82B000AA803F041FFB1
:101AD000E84803F0A9FF07A804F0CAF800208DF831
:101AE000220001208DF8230000208DF824008DF8BD
:101AF00025008DF826008DF827008DF81E008DF842
:101B00001F0008208DF8200003208DF82100ADF87B
:101B10001C0007A9D74803F0A0FF0E208DF80E0087
:101B200001208DF80F0000208DF8100044F22000F5
:101B3000ADF8040044F24000ADF8060044F2600045
:101B4000ADF808004FF48140ADF80A000020ADF870
:101B50000C0001208DF8110001A804F008F80F20F6
:101B60008DF80E0001208DF80F0000208DF8100078
:101B700044F2A000ADF8040044F2C000ADF8060045
:101B800044F2E000ADF808004FF48240ADF80A00DE
:101B90000020ADF80C0001208DF8110001A803F021
:101BA000E6FF14208DF80E0000208DF80F000120B4
:101BB0008DF810000020ADF804004FF49040ADF80F
:101BC00006004FF6FF70ADF808000020ADF80A00DF
:101BD0000120ADF80C008DF8110001A803F0C7FF3B
:101BE00019208DF80E0000208DF80F0001208DF8CF
:101BF00010000020ADF804004FF40040ADF80600DE
:101C00004FF6FF70ADF808004FF47840ADF80A00C9
:101C10000120ADF80C008DF8110001A803F0A7FF1A
:101C200001221021934804F0A1FA012202219148D7
:101C300004F09CFA0BB000BD10B586B002218D48AF
:101C400004F0FCFA00287FD001AA0021894804F0A2
:101C500072F90198B0F5007F6BD90198B0F5027F59
:101C600067D89DF80D00002863D10198401FC4B2C9
:101C7000814850F82400814941F8240008F0F6FB1F
:101C80007D4941F82400084650F824007B4951F86A
:101C90002410401A7A4941F824009DF812109DF84A
:101CA000110041EA002001B2C4EBC400754A02EB06
:101CB000401001839DF810009DF80F1040EA0120AC
:101CC00001B2C4EBC40002EB401001849DF8141073
:101CD0009DF8130041EA002001B2C4EBC40002EBFE
:101CE0004010C1829DF81510C4EBC40002EB4010F7
:101CF0004184204601F04BFAC4EBC400614901EB7A
:101D0000401090F83A0098B90121C4EBC4005D4A34
:101D100002EB401080F83A100021C4EBC40002EB43
:101D20004010A0F85C10C4EBC40002EB4010C1618D
:101D300000BF02214F4804F01CFB02214D4804F073
:101D40005AFA00E000E000BF06B010BD10B586B042
:101D50001021484804F072FA00287DD001AA012120
:101D6000444804F0E8F81021424804F002FB102136
:101D7000404804F040FA9DF80C0004286DD19DF80D
:101D80000D000028FAD10090029800F00F00401ECC
:101D9000C4B209210298B1EB102F68D16946B7EEA1
:101DA000000A0DF10F0000F046FA04EBC40000EB4E
:101DB0004410354901EBC00090F83C0100EE900A58
:101DC000F8EE600A80EE201ABDEEC10A10EE100A8D
:101DD00004EBC40101EB44112B4A02EBC101C861C1
:101DE0006946B2EE040A0DF10F0000F014FA04EB9C
:101DF000C40000EB4410244901EBC00080ED060A4A
:101E00006946B2EE040A0DF10F0000F004FA04EB8B
:101E1000C40000EB44101C4901EBC00080ED080A2F
:101E20000DF11601481E00F032F9BDF8151004EB53
:101E3000C40000EB4410144A02EBC000A0F80011EB
:101E400004EBC40000EB4410114601EBC000B0F8F5
:101E5000001104EBC40001E000E1FEE000EB4410DF
:101E600002EBC000B0F80201081A00B20EE0E8E090
:101E70000004024000680040F8120020D812002040
:101E800018130020106D0020F470002004EBC40132
:101E900001EB441102EBC101A1F8FC0004EBC4000A
:101EA00000EB4410114601EBC00090F8FE0088B131
:101EB000002104EBC40000EB441002EBC00080F8EA
:101EC000FE10002004EBC40101EB441102EBC10140
:101ED000A1F8FC0004EBC40000EB4410604901EBE6
:101EE000C000B0F8001104EBC40000EB44105C4AE1
:101EF00002EBC000A0F8021104EBC40000EB441098
:101F0000114601EBC000B0F9FC00002808DD04EB2D
:101F1000C40000EB441001EBC000B0F9FC0009E084
:101F200004EBC40000EB44104D4901EBC000B0F9D4
:101F3000FC00404242F22831884226DD04EBC40016
:101F400000EB4410464901EBC000B0F9FC1004EB73
:101F5000C40000EB4410424A02EBC000B0F9FC00A0
:101F6000002802DA4FF0FF3000E0012040F2654225
:101F70005043A1EB001000B204EBC40101EB44118B
:101F8000374A02EBC101A1F8FC0004EBC40000EBEE
:101F90004410334901EBC000B0F9FC00052190FB6F
:101FA000F1F104EBC40000EB44102D4A02EBC00039
:101FB000806A014404EBC40000EB441002EBC00053
:101FC000816204EBC40000EB4410114601EBC00039
:101FD000416904EBC40000EB441002EBC000806ACE
:101FE000091A04EBC40000EB441002EBC000C0F877
:101FF0000C1104EBC40000EB4410114601EBC000CF
:102000004078F0B104EBC40000EB441001EBC000D9
:1020100090ED080A04EBC40000EB441001EBC00093
:1020200080ED410A04EBC40000EB441001EBC0005A
:10203000816A04EBC40000EB441002EBC000C0F85E
:10204000081108F013FA04EBC40101EB4411044A2F
:1020500002EBC101C1F8180100BF00BF06B010BDFE
:10206000F4700020012037494872704710B500F025
:1020700089FBFFF7F7FF02F01DFD02F03FFE03F0C2
:102080002FFC314802F06CFD01F0FCFB10BD00227A
:102090000A7803780B700270704710B5082008F0BA
:1020A000A7FB044600206060204610BD02460B4698
:1020B000114605E00888984201D1084670474968F2
:1020C0000029F7D10020F9E770B506460C463546E1
:1020D00000E06D6815B16868A042FAD14CB1606843
:1020E0006860204608F0B3FB18480078401E174986
:1020F000087070BD2DE9F041074688463C464146D0
:102100002046FFF7D3FF08B1BDE8F081002602E0CA
:102110006468701CC6B20D480078B04201DD002C26
:10212000F6D16CB1082008F063FB0546A5F80080E5
:1021300060686860656005480078401C0349087065
:1021400000BFE1E7381300201476002020000020B3
:1021500008B590ED000A8DED000ABDF800200A7068
:10216000BDF80020120A4A70BDF802208A70BDF83E
:102170000220120ACA7008BD08B502680092BDF8B4
:1021800000200A70BDF80020120A4A70BDF8022033
:102190008A70BDF80220120ACA7008BD30B50C0E54
:1021A00015686B1C13604455C1F3074415686B1C1C
:1021B00013604455C1F3072415686B1C1360445524
:1021C00015686B1C1360415530BD10B502460B6895
:1021D000D35C1C060B685B1CD35C44EA03440B68AD
:1021E0009B1CD35C44EA03230C68E41C145D43EAA3
:1021F00004000B681B1D0B6010BD10B502460B6878
:102200005B1CD35C0C68145D43EA042318B20B68B2
:102210009B1C0B6010BD30B50446F0EE400A0D4625
:1022200029462046FFF7E9FF00EE100AB8EEC01A73
:1022300081EE200A30BD30B50446F0EE400A0D466E
:1022400029462046FFF7C1FF00EE100AB8EEC01A7B
:1022500081EE200A30BD10B50246B1F900305B1C9A
:10226000D35CB1F90040145D43EA042318B20B8833
:102270009B1C1BB20B8010BD1FB50121022004F076
:1022800086FD234802905320ADF804000020ADF8ED
:102290000600ADF80C001D208DF8000003208DF81D
:1022A000010001208DF802008DF80300684603F05C
:1022B00050FB01A9174804F022FF012211461548DE
:1022C00005F0BEFB0121134804F0A2FF1FBD10B5AD
:1022D0000121104805F0CBFB012818D101210D4840
:1022E00005F0D6FB002408E0204602F0BCF8611C93
:1022F000C8B202F011F8601CC4B2042CF4DB002454
:1023000003E0A0B201F026F9641C042CF9DB10BD37
:10231000BFD401000004004000B597B00121084679
:1023200004F002FD0121102004F042FD0121880586
:1023300004F0FAFC07220921A34804F03AFB072223
:102340000A21A14804F035FB4FF4C060119002202F
:102350008DF8480000208DF84A0002208DF84900D1
:1023600001208DF84B0011A9974804F097FA4FF41B
:10237000E13013900020ADF85000ADF85200ADF8F8
:102380005400ADF858000C20ADF8560013A98F4842
:1023900005F0A8FC8E4804F03FF84FF00060019073
:1023A00000200590402004908A4803908748001D33
:1023B00002900015079000200690099008900A905E
:1023C0004FF440300B9000200C9001200D90002025
:1023D0000F900E9001A97E4804F0C0F87E497C4819
:1023E00004F06FF97C497A4804F0C6F90122102103
:1023F000774804F07AF946208DF8400003208DF8E4
:10240000410001208DF842008DF8430010A803F030
:10241000A0FA012280216D4805F099FD01216B4849
:1024200005F0E8FC17B000BD70B504460D466B48DA
:10243000807B78B92A462146664808F002FB294687
:10244000634804F0E6F80121614804F0C1F8012076
:102450006249887370BD10B55F495D4804F062F948
:1024600001280AD15C495A4804F02BF95A495848C6
:1024700004F082F900205949887310BD10B540F26C
:102480002551524805F0A7FD002844D040F22551BF
:102490004E4805F097FD40F225514C4805F0D2FD1D
:1024A0004A4805F0D6FCC4B24D48007800F0400020
:1024B00008B34B48007800F0800020BB0D2C06D1FB
:1024C0004748007840F08000454908701BE04448C8
:1024D000007800F03F0043490C5441480078401C0C
:1024E0003F4908700846007800F03F0020280ADDC8
:1024F0000020087007E0232C05D13948007840F00F
:102500004000374908703648007800F0800010B16C
:1025100000203349087010BD30B502460B464FF617
:10252000FF70002112E0555C684000240AE000F0D2
:10253000010525B14AF2010585EA600000E040107E
:10254000651CECB2082CF2DB4D1CE9B29942EADBC7
:1025500030BD2DE9FE4305460E4617469846280A2B
:102560008DF80100E8B28DF80000300A8DF8030004
:10257000F0B28DF80200380A8DF80500F8B28DF837
:1025800004004FEA18208DF8070008F0FF008DF8CE
:10259000060008216846FFF7BFFF04462046E11702
:1025A00004EB11610912A4EB0121C9B28DF80810E6
:1025B000E11704EB1161090A8DF809100A21684638
:1025C000FFF732FFBDE8FE8300000240001001402B
:1025D000B8640240CD150020008000283813002088
:1025E00028000020ED150020014608884A88904206
:1025F00001D1012070470020FCE701464888401CBB
:10260000322290FBF2F302FB13000A88904201D1C0
:10261000012070470020FCE70020524948800880D4
:102620005149488008805149488008805049488075
:102630000880704730B585B005460C462046FFF748
:10264000D3FF08B105B030BD2188201D00EB01107B
:10265000006800F07040F8B104208DF8080021886F
:10266000201D00EB0110006820F0704001902188CF
:10267000201D00EB011000798DF80A0000208DF874
:1026800009009DF80A202388201D00EB0310411D3E
:102690000DF10B0008F0D5F92188201D00EB011089
:1026A0000068B0F5207F25D32188201D00EB0110A4
:1026B0000068B0F5287F1DD800208DF8080021881B
:1026C000201D00EB0110006800902188201D00EB08
:1026D000011000798DF80A0000208DF809009DF89E
:1026E0000A202388201D00EB0310411D0DF10B0073
:1026F00008F0A7F91F48854217D102221B491E483E
:1027000002F04DF82188201D00EB0110407B38B904
:102710002088401C322190FBF1F201FB1200208046
:102720006946144803F012FB1AE01448854217D199
:1027300001220C49124802F032F80A480188001DB3
:1027400000EB0110407B38B92088401C322190FBFF
:10275000F1F201FB120020806946084803F0F6FA06
:1027600000BF6FE7386300205C6600201460002023
:1027700080690020006800402016002000640040AE
:10278000E02F002010B52DED0E8B4FF40050FE49C8
:1027900008809FEDFE0B084680ED040B9FEDFD0ABF
:1027A00080ED010A43F6991008814FF40050FA4970
:1027B00008809FEDFA0A084680ED010A42F22830AF
:1027C00008819FEDF70B084680ED040B0020F649C9
:1027D00008709FEDF60A084680ED010A0120087294
:1027E00044F62C404881012008734FF4E1600882D0
:1027F0006FF0C700C881002088740120C874087574
:102800002820EB498883002048604FF47A70C88301
:102810001822E149E74808F059F90020E5497839DC
:10282000087001204870042088703221E14878380F
:10283000C1800020DF49783988806421DD487838FC
:1028400001811822D8493C3008F040F9D94878383D
:10285000B0F90810F7EE001A9FEDD71AF6EE000A4D
:10286000B2EE000AB83002F055F8D2487838C168A4
:10287000F7EE001A9FEDD01ADFEDD00A9FEDD00AD7
:10288000903002F047F81822C349CA48E03008F0F7
:102890001DF90020C749783981F8E0000121C548B9
:1028A000783880F8E110042180F8E2103221A0F895
:1028B000E6100021A0F8E4106421A0F8E810182226
:1028C000B94900F58E7008F001F9BA487838B0F9C6
:1028D000E810F7EE001A9FEDB81AF6EE000AB2EE15
:1028E000000A00F5CC7002F015F8B2487838D0F83C
:1028F000EC10F7EE001A9FEDB01ADFEDB00A9FED75
:10290000B00A00F5B87002F005F81822A249AD48E7
:1029100008F0DCF80020A749783981F8C0010121CE
:10292000A448783880F8C111042180F8C2113221FE
:10293000A0F8C6110021A0F8C4116421A0F8C811A4
:102940001822994900F5FE7008F0C0F899487838C7
:10295000B0F9C811F7EE001A9FED971AF6EE000ACB
:10296000B2EE000A00F51E7001F0D4FF91487838ED
:10297000D0F8CC11F7EE001A9FED8F1ADFED8F0A19
:102980009FED8F0A00F5147001F0C4FF18228249F0
:102990008C48E03008F09AF800208649783981F8B0
:1029A000A00201218348783880F8A112042180F820
:1029B000A2123221A0F8A6120021A0F8A4124FF40E
:1029C0007A71A0F8A8121822774900F5377008F03C
:1029D0007DF878487838B0F9A812F7EE001A9FED24
:1029E000761AF6EE000AB2EE000A00F5567001F013
:1029F00091FF70487838D0F8AC12F7EE001A9FEDCE
:102A00006E1ADFED6E0A9FED6E0A00F54C7001F054
:102A100081FF0024F3E0C4EBC4006649783901EB80
:102A2000401063490968416561484168C4EBC400CE
:102A3000604A783A02EB40108165C4EBC40102EBB6
:102A4000411101F15C0018225949083108F03EF8A3
:102A5000C4EBC401574A783A02EB4111B1F878004F
:102A60000AF0C2FC41EC1A0BC4EBC400514A783A9C
:102A700002EB401090ED1F0A10EE101A08460AF003
:102A800021FF41EC1C0BC4EBC4004A4A783A02EB2C
:102A9000401090ED100A10EE101A08460AF012FFCE
:102AA00041EC1E0BC4EBC4004249783901EB4010E5
:102AB00090ED221BB0EE410AF0EE610A53EC102BB0
:102AC00051EC1E0B0AF0E0FC41EC1D0B53EC1C2BEF
:102AD0000AF0DAFC41EC1B0B53EC1A2B0AF0D4FC85
:102AE00041EC190B9FED380B53EC102B0AF074FAE4
:102AF00041EC180B0AF034FCC4EBC4012D4A783ABF
:102B000002EB41114865C4EBC40102EB4111B1F87D
:102B100078000AF069FC41EC1A0BC4EBC400254AAA
:102B2000783A02EB401090ED1F0A10EE101A08469A
:102B30000AF0C8FE41EC1C0BC4EBC4011D4A783AF4
:102B400002EB4111B1F904000AF037FC41EC1E0B15
:102B5000C4EBC4001749783901EB401090ED221BFB
:102B6000B0EE410AF0EE610A53EC102B51EC1E0B53
:102B70000AF08AFC41EC1D0B53EC1C2B0AF084FC80
:102B800041EC1B0B24E00000E06C00200000008002
:102B900087870F409A999941F86C002000001042F5
:102BA0000000000000001440C86C00200000E14458
:102BB000A86C0020886D0020000000009A99193E42
:102BC0006666A63F486F0020000000000080764047
:102BD00053EC1A2B0AF058FC41EC190B1FED060BB5
:102BE00053EC102B0AF0F8F941EC180B0AF088FBB3
:102BF000C4EBC401FE4A02EB4111C860641C042C02
:102C0000FFF609AF00201AE0FA49097D012905D134
:102C1000C0EBC002F64B03EB421211700122C0EB75
:102C2000C001F34B03EB411181F83A2044F62C42EA
:102C3000C0EBC00103EB4111A1F84620401C042861
:102C4000E2DBBDEC0E8B10BD10B50446C4EBC40036
:102C5000E74901EB4010D0ED280AC4EBC40001EBBA
:102C60004010B0F9080000EE100AB8EEC00A20EEDD
:102C7000800ABDEEC00A10EE100AC4EBC401DC4AA3
:102C800002EB4111C1F8B800C4EBC400114601EBDE
:102C90004010B0F91810C4EBC40002EB4010C0F8AB
:102CA000D010C4EBC40102EB411101F1B80001F0F6
:102CB0004AFEC4EBC400CE4901EB4010C188C4EB0E
:102CC000C400CB4A02EB4010D0F8CC00084401B25B
:102CD000C4EBC40002EB4010C18010BD00223921BA
:102CE0000A54C26100218182704770B52DED088BB6
:102CF0000446C4EBC400BE4901EB4010B0F94A00E1
:102D0000C4EBC401BA4A02EB4111C1F8B800C4EBEC
:102D1000C400114601EB4010B0F91810C4EBC40018
:102D200002EB4010C0F8D010C4EBC40102EB41111B
:102D300001F1B80001F007FEC4EBC400AC4901EB9F
:102D40004010C188C4EBC400A94A02EB4010D0F87F
:102D5000CC00084401B2C4EBC40002EB4010C180B7
:102D6000C4EBC400114601EB4010B0F85C0040BB5E
:102D7000C4EBC40001EB4010C069002805DDC4EBC2
:102D8000C40001EB4010C06906E0C4EBC4009849E0
:102D900001EB4010C069404240F6C411884210DD8A
:102DA000C4EBC400924901EB4010B0F86400401C31
:102DB00081B2C4EBC4008E4A02EB4010A0F864104C
:102DC00007E00021C4EBC400894A02EB4010A0F8E0
:102DD0006410C4EBC400864901EB4010B0F86400F5
:102DE0001E287DDD0021C4EBC400814A02EB4010A7
:102DF000A0F864100121C4EBC40002EB401080F87D
:102E0000351024B1012C07D0022C11D10AE06FF04B
:102E10001D007749888200BF6FF095017448A0F8C3
:102E2000F41000BF6FF059017148A0F8D41100BF31
:102E300000BFC4EBC4016E4A02EB4111B1F8780047
:102E40000AF0D2FA41EC190BC4EBC400684901EB5B
:102E50004010B0F9140000EE100AB8EEC00A9FED61
:102E6000661AC0EE010AC4EBC40001EB401090EDFD
:102E70001F0A20EE800A10EE105A28460AF022FDA2
:102E800041EC1B0BC4EBC400594901EB401090ED21
:102E9000221BB0EE410AF0EE610A53EC102B51EC0C
:102EA0001B0B0AF0F1FA41EC1A0B53EC192B0AF048
:102EB000EBFA41EC180B0AF023FAC4EBC4014C4ABC
:102EC00002EB4111C8610520C4EBC40102EB4111C2
:102ED00088700020C4EBC40102EB4111888000E03F
:102EE0000BE00021C4EBC40002EB4010C1600020E5
:102EF000C4EBC40102EB41110870BDEC088B70BD3E
:102F000010B52DED0E8B0446C4EBC400384A02EB1D
:102F1000401090ED1F0A10EE101A08460AF0D2FC7D
:102F200041EC1A0BC4EBC401314A02EB4111B1F878
:102F300078000AF059FA41EC1C0BC4EBC4012C4A8E
:102F400002EB4111B1F904000AF037FA41EC1E0B13
:102F5000C4EBC400264901EB401090ED221BB0EEFB
:102F6000410AF0EE610A53EC102B51EC1E0B0AF0F3
:102F70008BFA41EC1D0B53EC1C2B0AF085FA41EC4B
:102F80001B0B53EC1A2B0AF07FFA41EC190B1FEDC7
:102F9000F20B53EC102B0AF01FF841EC180B0AF05F
:102FA000AFF9C4EBC401124A02EB4111C860C4EB93
:102FB000C400114601EB4010C068C4EBC40102EB31
:102FC0004111C1F89000C4EBC400114601EB401060
:102FD000407850B9C4EBC40001EB4010806DC4EBE5
:102FE000C40102EB4111C1F89000C4EBC40005E03C
:102FF000106D0020C86C00200000B443F94901EBBB
:103000004010C169C4EBC400F64A02EB4010C0F89E
:10301000A810C4EBC40102EB411101F1900001F0D2
:1030200092FCC4EBC400EF4901EB4010D0ED280A3C
:10303000C4EBC40001EB4010D0F8A40000EE100A6D
:10304000B8EEC00A20EE800ABDEEC00A10EE100AEB
:10305000C4EBC401E34A02EB4111C1F8B800C4EB70
:10306000C400114601EB401090F84400D0B3C4EB0B
:10307000C40001EB4010D0F8B800002806DDC4EB16
:10308000C40001EB4010D0F8B80007E0C4EBC40066
:10309000D44901EB4010D0F8B8004042C4EBC40161
:1030A000D04A02EB4111B1F8461088421ADDC4EB58
:1030B000C400114601EB4010D0F8B800002802DA35
:1030C0004FF0FF3000E00120C4EBC401C54A02EB21
:1030D0004111B1F846104843C4EBC40102EB411161
:1030E000C1F8B800C4EBC400BE4901EB4010B0F910
:1030F0001810C4EBC400BB4A02EB4010C0F8D0105B
:10310000C4EBC40102EB411101F1B80001F01BFC5A
:10311000C4EBC400B34901EB4010C188C4EBC40048
:10312000B04A02EB4010D0F8CC00084401B2C4EB26
:10313000C40002EB4010C180C4EBC400114601EB97
:103140004010006E002805DDC4EBC40001EB401008
:10315000006E06E0C4EBC400A24901EB4010006E13
:103160004042B42808DA0120C4EBC4019D4A02EBB6
:10317000411181F8340007E00020C4EBC401994AF2
:1031800002EB411181F83400BDEC0E8B10BD70B51F
:103190002DED088B0446C4EBC400924901EB4010AE
:1031A000018CC4EBC4008F4A02EB4010008E081A59
:1031B00001B2C4EBC40002EB4010A0F85C10C4EBF9
:1031C000C400114601EB4010808AC4EBC40102EB3D
:1031D00041118884C4EBC400114601EB4010C18A40
:1031E000C4EBC40002EB4010C184C4EBC400114620
:1031F00001EB4010018BC4EBC40002EB40100185D1
:10320000C4EBC400114601EB4010C169C4EBC4001B
:1032100002EB4010C162C4EBC400114601EB401048
:10322000018CC4EBC40002EB40100186C4EBC40067
:10323000114601EB4010418CC4EBC40002EB40107E
:103240004186C4EBC400114601EB4010B0F95C00AC
:10325000002806DDC4EBC40001EB4010B0F95C00AF
:1032600007E0C4EBC4005F4901EB4010B0F95C001B
:10327000404241F23601884224DDC4EBC400594982
:1032800001EB4010B0F95C10C4EBC400554A02EBEE
:103290004010B0F95C00002802DA4FF0FF3000E087
:1032A0000120C4EBC4024F4B03EB4212B2F878206A
:1032B00000FB121001B2C4EBC4001A4602EB40102E
:1032C000A0F85C10C4EBC400464901EB4010C16992
:1032D000C4EBC400434A02EB4010B0F95C00014467
:1032E000C4EBC40002EB4010C161C4EBC400114642
:1032F00001EB4010C168C4EBC40002EB4010C06990
:10330000091AC4EBC40002EB40100166C4EBC4010F
:1033100002EB4111B1F878000AF066F841EC190BA4
:10332000C4EBC4002F4901EB4010C06900EE100A45
:10333000B8EEC00A5FEDD00A20EE200AC4EBC4004C
:1033400001EB4010D0ED1F0A80EE201A11EE105A4A
:1033500028460AF0B7FA41EC1B0BC4EBC400214924
:1033600001EB401090ED221BB0EE410AF0EE610A35
:1033700053EC102B51EC1B0B09F02EFE41EC1A0BF9
:1033800053EC192B09F028FE41EC180B09F0B8FF9B
:1033900000B2C4EBC401134A02EB41118882C4EBB2
:1033A000C400114601EB4010407848B1C4EBC400A2
:1033B00001EB4010C169C4EBC40002EB4010816511
:1033C000C4EBC400074901EB401090F8390030B15C
:1033D000C4EBC401034A02EB4110FFF77FFCBDECD4
:1033E000088B70BD106D002010B50446C4EBC400FE
:1033F000F94901EB4010007808B9012010BDF748E9
:10340000807C00287DD0C4EBC400F34901EB401060
:103410008078052875D1C4EBC40001EB4010C16968
:10342000C4EBC400EC4A02EB4010C06A081A002842
:103430000CDDC4EBC400114601EB4010C169C4EBC4
:10344000C40002EB4010C06A081A0CE0C4EBC400D0
:10345000E14901EB4010C16AC4EBC400DE4A02EB53
:103460004010C069081AC82872DAC4EBC400DA49EF
:1034700001EB4010B0F91800002806DDC4EBC400D1
:1034800001EB4010B0F9180007E0C4EBC400D249CA
:1034900001EB4010B0F918004042642817DAC4EB81
:1034A000C400CD4901EB401090F8340078B9C4EB6A
:1034B000C40001EB4010B0F86600401C81B2C4EBC0
:1034C000C400C54A02EB4010A0F8661007E00021D6
:1034D000C4EBC400C04A02EB4010A0F86610C4EB75
:1034E000C400BD4901EB4010B0F86610C4EBC40045
:1034F000B94A02EB4010B0F87200814209DD0121A7
:1035000000E025E0C4EBC40002EB401080F8361068
:1035100007E00021C4EBC400AF4A02EB401080F882
:103520003610C4EBC400AC4901EB401090F83600F3
:1035300001280BD1032002F0EDF90020C4EBC401F7
:10354000A54A02EB41110870012057E7002055E71A
:10355000002053E710B50446C4EBC4009E4901EBBC
:1035600040100078012859D1C4EBC40001EB401091
:1035700090F84F00002851D006F078FF984951F894
:103580002410401A40F2DC51884210D3C4EBC4002E
:10359000914901EB401090F86800401CC1B2C4EBA7
:1035A000C4008D4A02EB401080F8681007E000214B
:1035B000C4EBC400884A02EB401080F86810C4EBEA
:1035C000C400854901EB401090F86810C4EBC400BA
:1035D000814A02EB4010B0F87000814207DD012102
:1035E000C4EBC40002EB401080F8371007E0002164
:1035F000C4EBC400784A02EB401080F837107648DC
:1036000090F8370050B9744890F8170130B97248F3
:1036100090F8F70110B9002001F090FB10BD2DE9E2
:10362000F04186B004460D4616461F4640F2FF188C
:1036300000208DF80C008DF80D0008208DF80E008C
:10364000CDF804800020FFF7CFFE48B9624800782B
:10365000012805D1200A8DF80F008DF8104005E0F3
:1036600000208DF80F0000218DF810100120FFF7C9
:10367000BBFE50B9584890F8E000012805D1290A4E
:103680008DF811108DF8125004E000218DF8111002
:103690008DF812100220FFF7A7FE50B94E4890F89F
:1036A000C001012805D1310A8DF813108DF814607E
:1036B00004E000218DF813108DF814100320FFF79B
:1036C00093FE50B9444890F8A002012805D1390A68
:1036D0008DF815108DF8167004E000218DF8151086
:1036E0008DF8161001A93F4802F030FB06B0BDE886
:1036F000F081002089E0C0EBC001374A02EB4111A4
:10370000B1F90610002906DDC0EBC00102EB411142
:10371000B1F9061007E0C0EBC0012F4A02EB4111DE
:10372000B1F906104942C0EBC0022B4B03EB421229
:10373000B2F8802091421ADDC0EBC0011A4602EBBC
:103740004111B1F90610002902DA4FF0FF3100E013
:103750000121C0EBC002204B03EB4212B2F88020E3
:1037600051430AB2C0EBC00103EB4111CA80C0EB68
:10377000C001194A02EB41118978042943D1C0EBF9
:10378000C00102EB4111B1F90610002906DDC0EBC2
:10379000C00102EB4111B1F9061007E0C0EBC00116
:1037A0000D4A02EB4111B1F906104942C0EBC002CB
:1037B000094B03EB4212B2F84C20914223DDC0EBDF
:1037C000C0011A4602EB4111B1F9061000290BDACB
:1037D0004FF0FF3109E00000106D0020C86C0020A0
:1037E000D8120020006800400121C0EBC0021F4B2E
:1037F00003EB4212B2F84C2051430AB2C0EBC001B5
:1038000003EB4111CA80411CC8B20828FFF673AF10
:103810007047002027E016490978C0EBC002134B1F
:1038200003EB4212517012494978C0EBC00203EB1E
:10383000421211700E494A88C0EBC00103EB4111DE
:103840000A810B498988C0EBC00203EB42129180C8
:103850000749C9888AB2C0EBC00103EB4111A1F846
:103860004620411CC8B20428D5DB7047106D0020EB
:103870002A0000204121095C19B1002241210A548B
:103880008262704770B50720FE4908709FEDFE0AFE
:10389000084680ED010A42F2107088601520FB494D
:1038A000087042F2107088601520F9490870B2EE75
:1038B000040A084680ED010A4FF47A7088600020FF
:1038C000F449087247F23050C8600120087441F290
:1038D000883048619FEDF00A084680ED010A6420B7
:1038E000EE4948840120EB49087648762820EB49C8
:1038F0000884012088700020E949087048704880D9
:10390000E848E24B0ECB3C300EC00020E649087080
:1039100048700220C8709FEDE50A084680ED010A54
:10392000002181609FEDE10A80ED040A4161416957
:10393000F7EE001A9FEDDE1ADFEDDE0A9FEDDE0ADC
:10394000443000F0E7FFD8488168F7EE001AB7EE80
:10395000001ADFEDDA0A9FEDDA0A6C3000F0DAFFC8
:10396000DFEDD81A9FEDD81ADFEDD00A9FEDD70A08
:10397000CC486C3800F0DEFFDFEDD21A9FEDD41A90
:10398000DFEDD40A9FEDCD0AC648383800F0D2FFEB
:10399000D148BE4BD3E900219B68C0E91013C26334
:1039A0000020C14981F848010021BF4880F8491131
:1039B000022180F84B119FEDBD0A80ED530A0021D2
:1039C000C0F850119FEDB90A80ED560AC0F85C119D
:1039D0004169F7EE001A9FEDB61ADFEDB60A9FEDCA
:1039E000B60A00F5C67000F095FFAF488168F7EEA3
:1039F000001AB7EE001ADFEDB10A9FEDB10A00F52B
:103A0000DA7000F087FFDFEDAF1A9FEDAF1ADFED40
:103A1000A70A9FEDAE0AB0486C3800F08BFFDFEDCF
:103A2000A91A9FEDAB1ADFEDAB0A9FEDA40AAA48D5
:103A3000383800F07FFFA948944B0ECB3C300EC0C5
:103A40000020994981F890020021974880F891124E
:103A5000022180F893129FED950A80EDA50A0021BE
:103A6000C0F898129FED910A80EDA80AC0F8A41240
:103A70004169F7EE001A9FED8E1ADFED8E0A9FED79
:103A80008E0A00F5357000F045FF87488168F7EE33
:103A9000001AB7EE001ADFED890A9FED890A00F5DA
:103AA0003F7000F037FFDFED871A9FED871ADFEDDB
:103AB0007F0A9FED860A89486C3800F03BFFDFEDF6
:103AC000811A9FED831ADFED830A9FED7C0A8348FC
:103AD000383800F02FFF82486C4B0ECB3C300EC0C4
:103AE0000020714981F8D80300216F4880F8D9136C
:103AF000022180F8DB139FED6D0A80EDF70A0021AB
:103B0000C0F8E0139FED690A80EDFA0AC0F8EC13E3
:103B10004169F7EE001A9FED661ADFED660A9FED28
:103B2000660A00F21C4000F0F5FE5F488168F7EE7F
:103B3000001AB7EE001ADFED610A9FED610A00F28C
:103B4000444000F0E7FEDFED5F1A9FED5F1ADFED06
:103B5000570A9FED5E0A62486C3800F0EBFEDFED1D
:103B6000591A9FED5B1ADFED5B0A9FED540A5C4822
:103B7000383800F0DFFE002467E004EBC40101EBFD
:103B80004411494A02EBC100FFF774FE04EBC40183
:103B900001EB4411444A02EBC10101F590701C2273
:103BA0003C4906F093FF3D48008804EBC40101EB5B
:103BB00044113D4A02EBC101A1F8FC0004EBC40032
:103BC00000EB4410114601EBC00034494988A0F8CD
:103BD000FE103248818804EBC40000EB441002EB75
:103BE000C000A0F800112D48C18804EBC40000EB10
:103BF000441002EBC000A0F8021104EBC40000EB7B
:103C00004410114601EBC000FC30244A9168D26890
:103C1000C0E902122148016904EBC40000EB441022
:103C2000214A02EBC000C0F80C1104EBC40000EB09
:103C30004410114601EBC000FC30184D6969AA69B7
:103C4000EB692D6A14302EC0641C042C95DB70BD0A
:103C500030B52DED028B81B00446B0EE408A0D46A2
:103C6000002000909FED1F0A28EE000ABDEEC00A5A
:103C700010EE101A1C4A5388121D02EB0312501D3D
:103C80006A4633E090700020000070429C70002073
:103C9000A8700020B470002000004042D0700020C6
:103CA00034000020F4710020F470002000000000B7
:103CB000713D0A3F0AD7233F8FC275406F12833A86
:103CC0004260E53BCDCC4C3E17B7D1398FC2F53CB5
:103CD000BD37863517B7D1383C7300208474002077
:103CE000CC750020002474495C660020FEF756FA6B
:103CF00044F0704040F48061FD484288001D00EBB4
:103D0000021001600098C1B2F9484288001D00EB22
:103D100002100171F6484188001D00EB0110457347
:103D2000F3484088401C322190FBF1F201FB120065
:103D3000EF4948800121601E00EBC00202EB4010F9
:103D4000EC4A02EBC00080F8101106F08FFB611EF8
:103D500001EBC10202EB4111E64A02EBC101C1F8DD
:103D6000180101B0BDEC028B30BD10B5044604EB68
:103D7000C40000EB4410DF4901EBC000D0F80C0197
:103D8000002802DA4FF0FF3100E0012104EBC4000B
:103D900000EB4410D74A02EBC000C069002802DAE9
:103DA0004FF0FF3000E00120814205D19FEDD20AA3
:103DB000D24880ED000A04E09FEDD10ACF4880EDA3
:103DC000000A04EBC40000EB4410CA4901EBC00038
:103DD000D0F80C01002808DD04EBC40000EB44100F
:103DE00001EBC000D0F80C0109E004EBC40000EBCB
:103DF0004410C04901EBC000D0F80C01404200EE75
:103E0000100AB8EEC00ABD48D0ED000AB2EE041A9E
:103E100060EE810AB4EEE00AF1EE10FA29DD04EB5F
:103E2000C40000EB4410B34901EBC00090ED080A58
:103E300004EBC40000EB441001EBC000D0F80C010F
:103E4000002802DA4FF0FF3000E0012000EE900A77
:103E5000F8EEE00AA94890ED001A00EE810A04EBA2
:103E6000C40000EB4410A34901EBC00080ED030A3D
:103E700028E0A448007828BB04EBC40000EB441001
:103E80009C4901EBC000D0F80C0100EE900AF8EE5E
:103E9000E00AB2EE041AC0EE811AB0EE610A04EB39
:103EA000C40000EB441001EBC000D0ED080A70EE36
:103EB000800A04EBC40000EB441001EBC000C0ED2D
:103EC000030A00BF04EBC40101EB4411894A02EB71
:103ED000C10101F10C0000F0D2FF04EBC40101EBC1
:103EE0004411844A02EBC101D1ED030AB0EE600A2D
:103EF000611CC8B20021FFF7ABFE10BD30B52DED3F
:103F0000028B81B00446B0EE408A0D46002000903E
:103F10009FED7D0A28EE000ABDEEC00A10EE101AD1
:103F2000734A5388121D02EB0312501D6A46FEF7B6
:103F300035F944F0704040F480716D484288001DAE
:103F400000EB021001600098C1B269484288001D70
:103F500000EB0210017166484188001D00EB011062
:103F6000457363484088401C322190FBF1F201FB0D
:103F700012005F4948800121601E00EBC00202EB85
:103F800040105C4A02EBC00080F8101106F06EFA97
:103F9000611E01EBC10202EB4111564A02EBC10165
:103FA000C1F8180101B0BDEC028B30BDF8B5044674
:103FB0000E461546002000904D494A88091D01EB28
:103FC0000211481D6A463146FEF7E8F844F0704099
:103FD00040F4407146484288001D00EB0210016029
:103FE0000098C1B242484288001D00EB02100171E6
:103FF0003F484188001D00EB011045733C48408854
:10400000401C322190FBF1F201FB1200384948803C
:104010000121601E00EBC00202EB4010354A02EBAA
:10402000C00080F8101106F021FA611E01EBC102F8
:1040300002EB41112F4A02EBC101C1F81801F8BD92
:1040400030B52DED028B81B00446B0EE408A0D46AE
:10405000002000901FEDDD0A28EE000ABDEEC00A28
:1040600010EE101A224A5388121D02EB0312501D43
:104070006A46FEF793F844F0704040F480611C48B3
:104080004288001D00EB021001600098C1B2184880
:104090004288001D00EB0210017115484188001D87
:1040A00000EB0110457312484088401C322190FB00
:1040B000F1F201FB12000E4948800121601E00EB65
:1040C000C00202EB40100B4A02EBC00080F8101156
:1040D00006F0CCF9611E01EBC10202EB4111054A69
:1040E00002EBC101C1F8180101B0BDEC028B30BD7B
:1040F0005C660020F470002000002A433C00002091
:104100000000B4421C00002000007A4430B52DEDC0
:10411000028B81B00446B0EE408A0D46002000902C
:104120009FEDFE0A28EE000ABDEEC00A10EE101A3E
:10413000FB4A5388121D02EB0312501D6A46FEF71C
:104140002DF844F07040F6494A88091D01EB021130
:1041500008600098C1B2F2484288001D00EB0210CE
:104160000171EF484188001D00EB01104573EC48D8
:104170004088401C322190FBF1F201FB1200E8491B
:1041800048800121601E00EBC00202EB4010E54AAE
:1041900002EBC00080F8101106F068F9611E01EB17
:1041A000C10202EB4111DF4A02EBC101C1F8180163
:1041B00001B0BDEC028B30BD30B52DED028B81B06E
:1041C0000446B0EE408A0D46002000901FED320AF2
:1041D00028EE000ABDEEC00A10EE101AD04A53882D
:1041E000121D02EB0312501D6A46FDF7D7FF44F083
:1041F000704040F00201CA484288001D00EB0210E6
:1042000001600098C1B2C6484288001D00EB021050
:104210000171C3484188001D00EB01104573C0487F
:104220004088401C322190FBF1F201FB1200BC4996
:1042300048800121601E00EBC00202EB4010B94A29
:1042400002EBC00080F8101106F010F9611E01EBBE
:10425000C10202EB4111B34A02EBC101C1F81801DE
:1042600001B0BDEC028B30BD30B52DED028B81B0BD
:104270000446B0EE408A0D46002000901FED5E0A15
:1042800028EE000ABDEEC00A10EE101AA44A5388A8
:10429000121D02EB0312501D6A46FDF77FFF44F02A
:1042A000704040F00C019E484288001D00EB021057
:1042B00001600098C1B29A484288001D00EB0210CC
:1042C000017197484188001D00EB01104573944827
:1042D0004088401C322190FBF1F201FB1200904912
:1042E00048800121601E00EBC00202EB40108D4AA5
:1042F00002EBC00080F8101106F0B8F8611E01EB67
:10430000C10202EB4111874A02EBC101C1F8180159
:1043100001B0BDEC028B30BD10B50446601E00EB51
:10432000C00101EB40107F4911F8300008B90120AD
:1043300010BD601E00EBC00101EB4010794911F87F
:10434000300001287ED17848407E00287AD0601E57
:1043500000EBC00101EB4010724901EBC000C078D6
:1043600005287ED1601E00EBC00101EB40106D49B5
:1043700001EBC00090ED060A6B48D0ED010AB4EEE7
:10438000E00AF1EE10FA16DD601E00EBC00101EB51
:104390004010644901EBC000B0F81201401C81B22A
:1043A000601E00EBC00202EB40105E4A02EBC00050
:1043B000A0F812110AE00021601E00EBC00202EB1F
:1043C0004010584A02EBC000A0F81211601E00EB2A
:1043D000C00101EB4010534901EBC000B0F81211CD
:1043E000601E00EBC00202EB40104E4A02EBC00020
:1043F000B0F81E0181420BDD0121601E00EBC002FE
:1044000002EB4010474A02EBC00080F840100AE07F
:104410000021601E00EBC00202EB4010414A02EB9B
:10442000C00080F84010601E00EBC00101EB40109E
:104430003C4901EBC00090F8400001280FD1000278
:104440003A4900E00DE0088300219FED390A20463B
:10445000FFF754FD204600F071FC002068E70120C2
:1044600066E7012064E710B5044604EBC40000EBE6
:1044700044102C4911F8300001287BD104EBC40012
:1044800000EB441001EBC00090F83901002871D016
:1044900005F0ECFF04EBC40101EB4411214A02EBEF
:1044A000C101D1F81811401A40F2DC51884213D3EF
:1044B00004EBC40000EB4410114601EBC00090F87F
:1044C0001401401CC1B204EBC40000EB441002EB29
:1044D000C00080F8141109E0002104EBC40000EBD7
:1044E0004410104A02EBC00080F8141104EBC40021
:1044F00000EB44100B4901EBC00090F8141104EBE1
:10450000C40000EB4410074A02EBC000B0F81C01E5
:10451000814216DD012104EBC4000BE00024744944
:104520005C660020F4700020B4700020000002409F
:104530000000000000EB441002EBC00080F84210C5
:1045400009E0002104EBC40000EB44101E4A02EB1A
:10455000C00080F842101C4890F8420050B91A4838
:1045600090F88A0130B9184890F8D20210B90020AA
:1045700000F0E4FB10BD10B5002421E0611CC8B2BE
:10458000FFF7CAFE1148007804EBC40101EB4411A7
:104590000D4A02EBC10148700C48407804EBC4019D
:1045A00001EB441102F831000848B0F9021004EBA5
:1045B000C40000EB441002EBC0008160601CC4B278
:1045C000042CDBDB10BD0000F47000203400002060
:1045D00030B502460023012904D10120CC4C2072C1
:1045E000062303E00120CA4C60720823002029E062
:1045F00000256724444302EBC40425616724444337
:1046000002EBC40425736724444342F83450672402
:10461000444302EBC40465606724444302EBC404D2
:10462000E5826724444302EBC404A5826724444323
:1046300002EBC404A5606724444302EBC40484F87D
:104640002550401C9842D3DB30BD2DE9F041054692
:104650000E4617464FF00008012F02D14FF0060812
:1046600001E04FF00808002494E06720604305EB68
:10467000C000006901287DDB3046FDF7BEFF08B1B0
:10468000BDE8F0816721614305EBC10101F1140030
:10469000FDF7AAFF30B100216720604305EBC000A1
:1046A0008160EDE76720604305EBC0000069401EB4
:1046B0006721614305EBC10108616720604305EB99
:1046C000C00018306721614305EBC101898A00EB06
:1046D000011072880168301D00EB02100160672034
:1046E000604305EBC00018306721614305EBC10151
:1046F000898A00EB011001797288301D00EB0210ED
:1047000001716720604305EBC000183067216143E9
:1047100005EBC101898A00EB0110417B7288301DD5
:1047200000EB021041736723634305EBC3031833A7
:104730004FF0670C04FB0CFC05EBCC0CBCF814C070
:1047400003EB0C13591DB6F802C0331D03EB0C1319
:104750001A79331D03EB0C13581D06F072F93088DB
:10476000401C322190FBF1F201FB120030806720E7
:10477000604300E00DE005EBC000808A401C90FB28
:10478000F1F201FB120081B26720604305EBC0002B
:104790008182641C4445FFF668AF00BF70E72DE9D5
:1047A000F04104460E4617464FF00008FF253188B9
:1047B000301D00EB0110407B08B9BDE8F081012FEE
:1047C00002D14FF0060809E04FF008083188301D8B
:1047D00000EB01100088A0F2013085B245450DDAEA
:1047E0006721694304EBC10101F11400FDF705FFE6
:1047F00048B1012F03D101204549887286E001208C
:104800004349C87282E06720684304EBC000006936
:10481000401C6721694304EBC101086167206843BC
:1048200054F83000401C6721694344F83100318856
:10483000301D00EB011002686720684304EBC000E4
:1048400018306721694304EBC101C98A00EB0110EC
:1048500002603188301D00EB011002796720684347
:1048600004EBC00018306721694304EBC101C98A19
:1048700000EB011002713188301D00EB0110427B0A
:104880006720684304EBC00018306721694304EBDC
:10489000C101C98A00EB0110427367236B4304EB2B
:1048A000C30318334FF0670C05FB0CFC04EBCC0C76
:1048B000BCF816C003EB0C131A7967236B4304EBA7
:1048C000C30318334FF0670C05FB0CFC04EBCC0C56
:1048D000BCF816C003EB0C13581DB6F800C0331D0E
:1048E00003EB0C13591D06F0ACF86720684304EB8A
:1048F000C000C08A401C322190FBF1F201FB120083
:1049000081B26720684304EBC000C18200BF54E756
:10491000381300200022826180ED031AC0ED020AE4
:1049200080ED010AC0ED041A0160C2610023036238
:104930004362704780ED000AC0ED010A80ED021A63
:10494000C0ED041A704701688269891AC161C269A1
:10495000016A511A00EE101AB8EEC00AD0ED010A31
:1049600020EE200A90ED021AC16900EE901AF8EECE
:10497000E00A01EE200AC269016A022303FB112248
:10498000416A114400EE901AF8EEE00A90ED031A25
:1049900001EE200ABDEEC00A10EE101A4161026A53
:1049A0004262C2690262704770B504460D461646FF
:1049B0002563E662206BE16A401A6062206B002882
:1049C00001DD206B01E0206B4042142806DA9FEDE8
:1049D000360A84ED060A606AA06270BD606A00EE65
:1049E000100AB8EEC00AD4ED000A20EE200ADFED6E
:1049F0002F0A80EE201A84ED051A606A00EE100A74
:104A0000B8EEC00AD4ED010A60EE200A9FED281A24
:104A100080EE810A9FED251AC0EE010A94ED060A88
:104A200030EE800A84ED060A606AA16A401A00EE40
:104A3000100AB8EEC00AD4ED020A20EE200A84ED76
:104A4000070A94ED030AD4ED070A70EE600A94EDAC
:104A5000030A94ED041A01EE600A84ED030A94ED52
:104A6000030A84ED070AF7EE000ABFEE000A04F11C
:104A7000180000F045FA606AA06294ED050AD4EDD2
:104A8000060A30EE200AD4ED070A30EE200A84ED43
:104A9000080AF7EE000ABFEE000A04F1200000F059
:104AA0002FFA00BF99E70000000000000000C84294
:104AB00000007A441CB50121084602F035F9F020C7
:104AC000009001208DF8040002208DF805000020E0
:104AD0008DF8060001208DF8070069461F4801F097
:104AE000DDFE10201D490883202008834020088314
:104AF000802008831CBD10B510201849488364200D
:104B000000F05DF9202015494883642000F057F932
:104B1000402012494883642000F051F980200F4959
:104B20004883642000F04BF910200C49088364206E
:104B300000F045F9202009490883642000F03FF97E
:104B4000402006490883642000F039F98020034999
:104B50000883642000F033F910BD0000000002401B
:104B60009FED5E0A80ED000A9FED5D0A80ED020A6E
:104B7000704710B52DED0C8B0446B0EE408AF0EE78
:104B8000608A94ED020ADFED570A30EEC00AD4EDD8
:104B9000000A20EE200A10EE101A084608F092FED5
:104BA00041EC1B0B94ED020A10EE101A084608F0B7
:104BB00089FE41EC1D0B53EC182B08F065FC41EC11
:104BC0001C0B53EC1B2B08F04BF941EC1A0B9FED1F
:104BD000460B53EC102B08F0FFF941EC190B08F0D1
:104BE0000DF9606094ED010A84ED000A94ED010A6C
:104BF00010EE101A084608F065FE41EC100BBDECF3
:104C00000C8B10BDB7EE000A80ED020AB7EE000A69
:104C100080ED030AB7EE000A80ED050A9FED340A25
:104C200080ED060A9FED330A80ED070A9FED2B0AFF
:104C300080ED0C0A704710B52DED068B0446B0EEE2
:104C4000408A18EE100A08F03DFE41EC1A0BB0EE57
:104C50004A0AF0EE6A0A2848FFF78BFFB0EE409A46
:104C6000F0EE609A51EC190B08F0C8F8206394ED4F
:104C7000050AD4ED070A30EE200AD4ED050A80EECD
:104C8000801A84ED0A1A94ED0C0AD4ED030A94ED0F
:104C9000091A00EEC10AD4ED090A94ED0A1A41EE90
:104CA000000AC4ED080AD4ED0A0A94ED031AB7EE1F
:104CB000000A00EEC10AD4ED050A20EE200A84EDB8
:104CC000040A94ED040A84ED050A94ED080A84EDC3
:104CD000090A94ED080ABDEC068B10BD0000000027
:104CE0000000254400007A440000000000408F408E
:104CF000ACC52737CDCCCC3D147600201CB50121A6
:104D0000022002F011F84FF44070009001208DF85D
:104D1000040000208DF8060002208DF80500694689
:104D20001A4801F0BBFD4FF48071184801F032FEC3
:104D30004FF40071154801F02FFE1CBD70B50446FC
:104D4000112C00DD11241248055D00261AE04FF4F5
:104D500080710E4801F020FE05F0010028B14FF4EB
:104D600000710A4801F016FE04E04FF40071074894
:104D700001F012FE4FF48071044801F00BFE6D103B
:104D8000701CC6B2082EE2DB70BD000000040240B9
:104D9000AADB0008704709E04FF4FA7000F00FF842
:104DA0000920FFF7CBFF042000F0B4FDF4E700BFBB
:104DB000FEE700BFFEE700BFFEE77047704710B593
:104DC000002107E04AF2104200BF1300A2F10102E5
:104DD000FBD1491C8142F5D310BD10B5002106E07E
:104DE000282200BF1300A2F10102FBD1491C81421D
:104DF000F6D310BD00BF0100A0F1010290B2FAD1BC
:104E00007047000090ED001AB4EEC01AF1EE10FAEF
:104E100012D290ED001A31EE201AB4EEC01AF1EE63
:104E200010FA06D290ED001A31EE201A80ED001A29
:104E30001BE080ED000A18E090ED001AB4EEC01AF5
:104E4000F1EE10FA11DD90ED001A31EE601AB4EEB9
:104E5000C01AF1EE10FA06DD90ED001A31EE601A7C
:104E600080ED001A01E080ED000A7047F0EE401A74
:104E700031EE612A70EEE12A82EE220A704710B507
:104E80000446D4ED000AB0EE600ADFEDF90A07F03F
:104E9000A7FA84ED000A94ED000AB5EEC00AF1EE1F
:104EA00010FA07D294ED000ADFEDF10A30EE200A85
:104EB00084ED000A10BD07E090ED000ADFEDED0A79
:104EC00030EE200A80ED000A90ED000ADFEDEA0ADC
:104ED000B4EEE00AF1EE10FAEED307E090ED000A2E
:104EE000DFEDE40A30EE600A80ED000A90ED000A82
:104EF000DFEDE20AB4EEE00AF1EE10FAEEDC704704
:104F00000146002091ED001AB4EEE01AF1EE10FA1D
:104F100003DDC1ED000A012009E091ED001AB4EEB5
:104F2000C01AF1EE10FA02D281ED000A012070479A
:104F300010B5034600201C68944202DD1A6001206F
:104F400004E01C688C4201DA1960012010BD0146A2
:104F50000020D1ED000AF4EEC00AF1EE10FA03DDF4
:104F600081ED000A01200DE0D1ED000AB1EE401AFA
:104F7000F4EEC10AF1EE10FA04D2F1EE400AC1EDEE
:104F8000000A0120704710B50246002013688B42CA
:104F900002DD1160012006E04C421368A34202DAF0
:104FA0004B421360012010BDF0EE402A32EEE00AC1
:104FB00032EE613A20EE030A71EE603A80EE233A57
:104FC00033EE210A704770B50446049D601AEE1A4C
:104FD0007043561A90FBF6F0184470BDB0EE401ABC
:104FE00090ED000AB0EEC00AB4EEC10AF1EE10FA7C
:104FF00004D29FEDA30A80ED000A28E070EEC11AEA
:1050000080EEA12AB0EE420AD0ED001AF5EEC01AE9
:10501000F1EE10FA0CDDD0ED001A61EE801AB7EE59
:10502000002A32EE402A40EE821AC0ED001A0DE04E
:10503000D0ED001AF1EE611A61EE801AB7EE002A87
:1050400032EE402A50EEC21AC0ED001A00BF70477F
:10505000B0EE401A71EE601AB0EE610A05E0DFEDC5
:10506000841A70EE211AB0EE610ADFED861AB4EEF2
:10507000E10AF1EE10FAF2D305E0DFED7D1A70EEF1
:10508000611AB0EE610ADFED801AB4EEE10AF1EECA
:1050900010FAF2DC7047B0EE401A71EE601AB0EE12
:1050A000610A05E0DFED731A70EE211AB0EE610AB5
:1050B000DFED711AB4EEE10AF1EE10FAF2D305E079
:1050C000DFED6C1A70EE611AB0EE610ADFED6B1A5B
:1050D000B4EEE10AF1EE10FAF2DC7047B0EE402ACD
:1050E000B0EEC20ADFED692A30EE220AB0EE401AB5
:1050F000F5EEC00AF1EE10FA18DB30EEC13A70EEB0
:10510000813A83EE234AB0EE440A20EE003AF0EEF4
:10511000432A9FED5F3ADFED5F3A13EEA23ADFEDEF
:105120005E3AF0EE631A43EE001A18E030EE813A70
:1051300071EE603A83EE234AB0EE440A20EE003A64
:10514000F0EE432A9FED523ADFED523A13EEA23AC7
:10515000DFED523AF0EE631A43EE001A00BFB5EEEF
:10516000C02AF1EE10FA02D2B1EE610A7047B0EE39
:10517000610AFBE705E0DFED3F0A70EE200AB0EEC2
:10518000600ADFED3D0AB4EEE00AF1EE10FAF2D368
:1051900005E0DFED380A70EE600AB0EE600ADFED80
:1051A000370AB4EEE00AF1EE10FAF2DCB5EEC00A0E
:1051B000F1EE10FA36D2DFED3A0A60EE200A9FEDEA
:1051C000391A20EE011A41EE000AC0ED000AD0EDB6
:1051D000000AF5EEC00AF1EE10FA12D2D0ED000A84
:1051E00090ED001AD0ED001AF1EE611A51EE210A8D
:1051F00090ED001ADFED2C1A01EEA01A80ED001AD6
:1052000064E0D0ED000A90ED001AD0ED001A51EEE6
:10521000210A90ED001ADFED241A01EEA01A80EDAC
:10522000001A53E0DFED1E0A60EE200A9FED1D1A02
:1052300020EE011A41EE400AC0ED000AD0ED000A4E
:10524000F5EEC00AF1EE10FA30D2D0ED000A90ED82
:10525000001AD0ED001AF1EE611A51EE210A90ED1C
:10526000001ADFED111A01EEA01A80ED001A2DE0F0
:105270000000B443DB0FC940DB0F49C0DB0F4940DE
:1052800000000000000034C30000344308E53C1E69
:10529000B1507B3FDE02493EDB0F493FE4CB164075
:1052A00083F9A23F7B81CF3E6666663ED0ED000A61
:1052B00090ED001AD0ED001A51EE210A90ED001A7F
:1052C0005FED071A01EEA01A80ED001ADFEDFD0A6E
:1052D00070EE200AB0EE600A5FED180AB4EEE00A44
:1052E000F1EE10FA05DD5FED1D0A70EE600AB0EE1A
:1052F000600AB5EEC00AF1EE10FA36D25FED180A78
:1053000060EE200A1FED191A20EE011A41EE000A84
:10531000C1ED000AD1ED000AF5EEC00AF1EE10FA77
:1053200012D2D1ED000A91ED001AD1ED001AF1EE82
:10533000611A51EE210A91ED001A5FED251A01EE76
:10534000A01A81ED001A46E0D1ED000A91ED001A95
:10535000D1ED001A51EE210A91ED001A5FED2E1ADF
:1053600001EEA01A81ED001A35E05FED330A60EE20
:10537000200A1FED341A20EE011A41EE400AC1ED59
:10538000000AD1ED000AF5EEC00AF1EE10FA12D2D1
:10539000D1ED000A91ED001AD1ED001AF1EE611A7B
:1053A00051EE210A91ED001A5FED411A01EEA01AAB
:1053B00081ED001A0FE0D1ED000A91ED001AD1ED58
:1053C000001A51EE210A91ED001A5FED491A01EE23
:1053D000A01A81ED001A70473CB504460B461546ED
:1053E0001FED590AF0EE404A1FED5B0AB0EE405A3D
:1053F000002222E004EB8200D0ED000AB0EE600A49
:10540000694601A8FFF7B6FE03EB8200D0ED000A63
:105410009DED011AB0EE640A01EE200AF0EE404A5A
:1054200003EB8200D0ED000A9DED001AB0EE450AB4
:1054300001EE200AB0EE405A521CAA42DADBF0EE2E
:10544000450AB0EE640AFFF749FE3CBDF0EE401A93
:10545000F4EEE01AF1EE10FA11D8F4EEC11AF1EE02
:1054600010FA0CD8F4EEC10AF1EE10FA02D8B0EE40
:10547000602A01E0B0EE412AB0EE420A22E0F4EEEA
:10548000E10AF1EE10FA11D8F4EEC10AF1EE10FAC9
:105490000CD8F4EEC11AF1EE10FA02D8B0EE612A7F
:1054A00001E0B0EE412AB0EE420A0BE0F4EEE01A61
:1054B000F1EE10FA02D8B0EE612A01E0B0EE602AF7
:1054C000B0EE420A704710B503468B4208DC9342A7
:1054D00006DC914201DC0C4600E01446204610E058
:1054E000994208DC914206DC934201DC1C4600E054
:1054F0001446204605E08B4201DC1C4600E00C46C9
:10550000204610BD08B5F0EE400AB6EE000A20EEC7
:10551000800AB0EE401ACDED000A6B490098A1EB6D
:10552000600000909DED000A60EE011A9DED002ADA
:10553000B7EE080A01EEC20ADDED001A20EE210ADC
:105540008DED000A9DED000A08BD70B52DED028BB2
:1055500005460C46B0EE408A0026D5ED000A60EE06
:10556000A00A94ED001AD4ED001A41EE210AB0EE23
:10557000600A07F0FBFAF0EE408AB0EEC80AB0EE1F
:10558000408A9FED520AF4EEC08AF1EE10FA03D27F
:105590009FED4E0AF0EE408AF4EEC88AF1EE10FA62
:1055A00011DDC8EE280AB0EE600AD5ED000A60EE03
:1055B000800AC5ED000AD4ED000A60EE800AC4ED51
:1055C000000A012600BF3046BDEC028B70BD05E02D
:1055D0005FEDD80A70EE200AB0EE600A5FEDDA0ADD
:1055E000B4EEE00AF1EE10FAF2D305E05FEDDF0A67
:1055F00070EE600AB0EE600A5FEDE00AB4EEE00A19
:10560000F1EE10FAF2DCB5EEC00AF1EE10FA0CD2AF
:105610005FEDDD0A60EE200A1FEDDE1A20EE011AB2
:1056200041EE000AC0ED000A0BE05FEDE30A60EE18
:10563000200A1FEDE41A20EE011A41EE400AC0EDE7
:10564000000ADFED200A70EE200AB0EE600A5FED7E
:10565000F50AB4EEE00AF1EE10FA05DD5FEDFB0AA3
:1056600070EE600AB0EE600AB5EEC00AF1EE10FA14
:105670000CD25FEDF50A60EE200A1FEDF61A20EE5F
:10568000011A41EE000AC1ED000A0BE05FEDFC0AD1
:1056900060EE200A1FEDFD1A20EE011A41EE400ACD
:1056A000C1ED000A7047B0EE401AF0EEC11AB0EE3C
:1056B000E02AF4EEC21AF1EE10FA09D2B0EE410A75
:1056C00008E00000DB0FC93FDF59375FFFE6DB2E44
:1056D000B0EE600A7047B0EE401AF0EEC11AB0EEBC
:1056E000E02AF4EEC21AF1EE10FA02DDB0EE410A41
:1056F00001E0B0EE600A704770B506460D46002026
:10570000287080240BE006EA0400A04201D171A0B9
:1057100000E071A00146284605F087F96410002CCE
:10572000F1DC70BD10B52DED088BB0EE409AF0EEB7
:10573000609AB0EE41AA04469FED680AF0EE40AAD6
:10574000BFEE000AB4EEC09AF1EE10FA03D2BFEE3B
:10575000000AB0EE409AB7EE000AB4EEC09AF1EE3D
:1057600010FA03DDB7EE000AB0EE409AF0EEC98AF7
:10577000B5EEC09AF1EE10FA02DBB0EE698A01E0F4
:10578000B0EE4A8A34BBB5EEC08AF1EE10FA14DBF3
:10579000B7EE001A38EE011AF0EE410AB7EE001A21
:1057A00031EE681AB0EE410A06F0DAFEF7EE000AB2
:1057B00030EEC00AF0EE40AA7EE0B7EE000A30EE0E
:1057C000480AF0EE400AB0EE680A06F0C9FEF0EEB4
:1057D00040AA71E0012C48D1B0EEC80A5FED450A3D
:1057E000B4EEE00AF1EE10FA02D2F0EE68AA63E03D
:1057F000B5EEC08AF1EE10FA1EDBF7EE000A70EE8D
:10580000E80A60EE880AB0EE600A06F0F5FCF7EEF2
:10581000000A30EE60BAB0EE480A06F0EDFCF7EE92
:10582000000A70EE600A8BEE200AF7EE000A30EEF6
:10583000C00AF0EE40AA3FE0F1EE480A60EEA80A86
:10584000B0EE600A06F0D8FCF7EE000A30EE60BA5F
:10585000B1EE480A06F0D0FCF7EE000A30EE600A1E
:10586000CBEE000AF0EE60AA26E0022C22D1B5EEC3
:10587000C08AF1EE10FA10DBB7EE000A70EE680A8B
:10588000B7EE000A08EE280A80EE801AB7EE000A8A
:1058900030EE410AF0EE40AA0EE0B7EE000A70EEDC
:1058A000680AB7EE000A08EE600AC8EE800AF0EE59
:1058B00060AA01E0F0EE68AAB5EEC09AF1EE10FA27
:1058C00003D2B1EE6A0AF0EE40AAB0EE6A0ABDEC6D
:1058D000088B10BD31000000300000000000000007
:1058E0001CB50121084601F01FFA01208DF80400C3
:1058F00000208DF806004FF48070009000208DF895
:10590000050069460F4800F0C9FF4FF480700D494B
:1059100048831CBD70B50446002510E04FF480702C
:10592000084908834FF47A7004F0F0FC4FF480705B
:10593000044948834FF47A7004F0E8FC6D1CA542DA
:10594000ECDB70BD0000024032490143324A116075
:10595000704770B5002100230F22C4781CB32E4C71
:10596000246804F4E064C4F5E064C4F30721C1F1E1
:105970000404E3B20A4144789C40E1B284781440C4
:1059800021430C07210E254C05786155047804F05D
:105990001F050124AC4005786D11AD0005F1E0252F
:1059A000C5F8004109E0047804F01F050124AC406B
:1059B0001B4D0678761145F8264070BD194A0A40FD
:1059C0000243154B1B1F1A60704739B1124A121D52
:1059D00012680243104B1B1D1A6006E00E4A121D8E
:1059E000126882430C4B1B1D1A607047042808D1B3
:1059F0004FF0E021096941F004014FF0E02211610C
:105A000007E04FF0E021096921F004014FF0E022A6
:105A1000116170470000FA050CED00E000E400E0C1
:105A200080E100E080FFFF1F10B50446FE4884427D
:105A300009D10121480601F012FA00214FF000704F
:105A400001F00DFA08E00121880601F008FA0021B2
:105A50004FF0806001F003FA10BD30B5024600201F
:105A60000023146824F002041460146844F0010454
:105A7000146000E05B1C546804F001041CB94FF68C
:105A8000FF74A342F6D1546804F001040CB900205D
:105A90006CE08C79012C04D1146844F0800414600B
:105AA00003E0146824F080041460CC79012C04D144
:105AB000146844F04004146003E0146824F04004C7
:105AC00014600C7A012C04D1146844F02004146092
:105AD00003E0146824F0200414604C7A012C04D1F3
