:020000040800F2
:1000000068BB0020D5850008F5500008F7500008AF
:100010000F5100081351000817510008000000009C
:100020000000000000000000000000001B5100085C
:100030001D510008000000005BA80008BFAA0008CE
:10004000EF850008EF850008EF850008EF850008C0
:10005000EF850008EF850008EF850008EF850008B0
:10006000EF850008EF850008EF850008EF850008A0
:10007000EF850008EF850008EF850008EF85000890
:10008000EF850008B3050008EF850008EF8500083C
:10009000C3120008EF850008EF850008EF8500080F
:1000A000EF850008EF850008EF850008EF85000860
:1000B000B1030008D7210008EF850008EF8500088C
:1000C000EF850008EF850008EF850008EF85000840
:1000D000EF850008EF850008D9050008EF850008C6
:1000E000EF850008EF850008EF850008EF85000820
:1000F000EF850008EF850008EF850008EF85000810
:10010000EF850008EF85000899170008EF850008C3
:10011000EF850008EF850008EF850008EF850008EF
:10012000EF850008EF850008EF850008EF850008DF
:10013000EF850008EF850008EF850008EF850008CF
:10014000B51A0008EB1B0008EF850008EF850008D2
:10015000EF850008EF850008EF850008EF850008AF
:10016000EF850008EF850008EF850008EF8500089F
:10017000EF850008EF850008EF850008EF8500088F
:10018000EF850008EF85000800F002F800F053F852
:100190000AA090E8000C82448344AAF10107DA45E2
:1001A00001D100F048F8AFF2090EBAE80F0013F0E1
:1001B000010F18BFFB1A43F00103184764E0000069
:1001C00084E00000103A24BF78C878C1FAD85207FA
:1001D00024BF30C830C144BF04680C6070470000C1
:1001E0000023002400250026103A28BF78C1FBD840
:1001F000520728BF30C148BF0B60704764290AF01E
:100200004585002070471FB50DF07DFD9DE803007A
:100210000AF080FE0BF0FAFA0400002000210CF036
:1002200087FF401C6060002000210CF06BFFE06045
:100230001FBD10B510BD0AF0F0FF1146FFF7E3FF38
:1002400000F03FF80BF068FA03B4FFF7F2FF03BCCD
:100250000BF0D6FA07E03648007808B104F033FB1B
:1002600064200AF003FAF6E7032005F003FD09E035
:1002700004F0F1FD2E48007808B103F036F9C820EB
:100280000AF0F4F9F4E770B50446002500BF0AF05F
:100290002CFC00F0B1FC0AF0BFFA05460723254A02
:1002A0000021254809F09CFE1023244A00212448FF
:1002B00009F096FE05200AF011F928460AF0B0FA76
:1002C00070BD10B508F0ECF84FF4806101F0070242
:1002D0001C4B18684FF6FF0318401B4B034343EABF
:1002E0000220184B186000BF00F0C4FE01F0F4FAC1
:1002F00000F032F801F044FF01F01EFA00F0BEF801
:1003000001F09AFF0221114804F012FB01F042FEB5
:1003100000200749087008F0B5FA05230C4A0021AF
:100320000C4809F05DFE08F0D4FB002010BD000071
:1003300000000020BC08002069020008BC0C00205E
:10034000550200080CED00E00000FA05E80F00205F
:10035000BC040020870200081FB50121084606F0F2
:10036000C6FE42F6DF6002900620ADF804000020D1
:10037000ADF80600ADF80C0001A94FF0804007F081
:100380006EF81C208DF8000001208DF801008DF81A
:1003900002008DF80300684605F08BFC012211462F
:1003A000900707F0FDFC0121880707F0E1F81FBD69
:1003B00010B50121880707F00AFD012853D101215A
:1003C000800707F015FD002432E004EBC40000EBC9
:1003D0004000254911F8300028B304EBC40000EBBD
:1003E000400001EBC0004078F0B104EBC40000EB2A
:1003F000400001EBC0008078012806D0022805D01B
:1004000004280BD005280DD104E00CE020B202F046
:1004100035FA08E020B202F064FB04E020B202F0FA
:1004200089FA00E000BF02E020B202F05AFB641C2F
:10043000042CCADB0C4CB4F98E32B4F9B621B4F9F1
:10044000DE10B4F9060002F08EFF02F0F2FF074959
:10045000074801F0FFFE0748407A20B10222034915
:10046000054804F0A2FA10BDD8660020DC5900202F
:1004700000680040400D0020E80F002000B597B054
:100480000121084606F000FE0121480406F02FFE77
:100490000121480506F0F8FD07220221FE4806F07A
:1004A00038FC07220321FC4806F033FC0C20119095
:1004B00002208DF8480000208DF84A0003208DF8B6
:1004C000490000208DF84B0011A9F34806F096FB77
:1004D0004FF4E13013900020ADF85000ADF8520019
:1004E000ADF85400ADF858000C20ADF8560013A933
:1004F000EA4807F0A7FD012240F22551E74807F03E
:10050000DFFE26208DF8400004208DF841000120F8
:100510008DF842008DF8430010A805F0CAFB0121B8
:10052000DE4807F017FEDE4806F026F94FF00060BF
:1005300001900020059040200490DA480390D748AD
:10054000001D029000150790002006900990089069
:100550000A904FF440300B9000200C9001200D9039
:1005600000200F900E9001A9CD4806F0A7F9CE49C2
:10057000CB4806F056FACC49C94806F0ADFA01223C
:100580001021C74806F061FA11208DF840000720BD
:100590008DF8410001208DF842008DF8430010A82D
:1005A00005F087FB01228021BC4807F080FE17B0D0
:1005B00000BD10B5BC49BA4806F064FA01280AD15A
:1005C000B949B74806F02DFAB749B54806F084FA9C
:1005D0000020B649C87310BD10B52DED028B002464
:1005E00040F22531AD4807F0A6FE50B1AB4807F008
:1005F000E0FD0020AE4908702021AE480AF048FC1A
:10060000ECE240F22551A54807F095FE0028F7D00E
:100610002021A24807F086FE40F225519F4807F0AE
:10062000C1FE9E4807F0C5FDC4B2A148007800F0A5
:10063000400008B39E48007800F0800020BBFF2CEB
:1006400006D19B48007840F08000994908701BE073
:100650009748007800F03F01964844549448007849
:10066000401C934908700846007800F03F00282895
:100670000ADD0020087007E0EE2C05D18C480078D8
:1006800040F040008A4908708948007800F08000F6
:100690000028B5D0884890F82102012804D1864866
:1006A00090F8230285490870834890F8230230B1FE
:1006B000012805D0022879D0062800D1F6E184E28D
:1006C0007D4890F82502082822D17B4890F8260220
:1006D00011281DD1784890F82702302806D03128FB
:1006E00008D032280AD0332810D10BE000207449FA
:1006F00008700CE001207249087008E0022070497F
:10070000087004E003206E49087000E000BF00BFDD
:10071000694890F82502092821D1674890F82602F7
:1007200010281CD1644890F8280258B1012814D12F
:100730006349097801EBC10101EB4101614A02F80B
:1007400031000BE000205E49097801EBC10101EBAB
:1007500041015C4A02F8310000E000BF00BF56488A
:1007600090F825020A2824D1534890F82602102830
:100770001FD1514890F8280260B1012817D1504983
:10078000097801EBC10101EB41014E4A02EBC101C5
:1007900048700DE000204A49097801EBC10101EBE6
:1007A0004101484A02EBC101487001E099E000BFF5
:1007B00000BF414890F82502032834D13E4890F804
:1007C000260211282FD13C4890F82702322804D065
:1007D00034280ED0352824D117E002203849097872
:1007E00001EBC10101EB4101364A02EBC101887006
:1007F00018E004203249097801EBC10101EB410105
:10080000304A02EBC10188700CE005202C490978C0
:1008100001EBC10101EB41012A4A02EBC1018870E1
:1008200000E000BF00BF244890F8250201281CD139
:10083000214890F82602112817D11E48C01D0BF040
:100840006FFEB0EE408AF0EE608A51EC180B0CF0AF
:1008500007FF01B21A48007800EBC00000EB40002F
:10086000184A02EBC0000181AFE1134890F825025D
:10087000022835D1104890F82602112830D10D48B1
:10088000C01D0BF04DFEB0EE408AF0EE608A51ECD8
:10089000180B0CF0E5FE17E0000002400044004099
:1008A000A0600240750E002000802020400D002036
:1008B00002000020750F0020550D002001000020CF
:1008C00004000020D866002000B2FE49097801EB40
:1008D000C10101EB4101FC4A02EBC101888074E1D6
:1008E00073E1FA4890F82502082822D1F74890F8D9
:1008F000260211281DD1F54890F82702302812D081
:10090000312804D0322806D0332810D107E0012046
:10091000EF4908700CE00220ED49087008E0032060
:10092000EB49087004E00020E949087000E000BFCE
:1009300000BFE64890F82502092821D1E34890F845
:10094000260210281CD1E14890F8280258B101284D
:1009500014D1DF49097801EBC10202EB4111DD4AF4
:1009600002F831000BE00020D949097801EBC102FF
:1009700002EB4111D74A02F8310000E000BF00BF8E
:10098000D24890F825020A2823D1D04890F82602B0
:1009900010281ED1CD4890F8280260B1012816D148
:1009A000CB49097801EBC10202EB4111C94A02EBC4
:1009B000C10148700CE00020C549097801EBC10273
:1009C00002EB4111C34A02EBC101487000E000BFD5
:1009D00000BFBE4890F82502032826D1BB4890F8F6
:1009E0002602112821D1B94890F82702322802D0D6
:1009F000352818D10BE00220B549097801EBC10276
:100A000002EB4111B34A02EBC101C8700CE00520B2
:100A1000AF49097801EBC10202EB4111AD4A02EB8B
:100A2000C101C87000E000BF00BFA84890F82502CF
:100A300001281AD1A54890F82602112815D1A648F8
:100A40000BF06EFDB0EE408AF0EE608A51EC180BB0
:100A50000CF006FE9E49097801EBC10202EB411140
:100A60009C4A02EBC1018860AFE0984890F82502EB
:100A700002281AD1954890F82602112815D19648D7
:100A80000BF04EFDB0EE408AF0EE608A51EC180B90
:100A90000CF0E6FD8E49097801EBC10202EB411131
:100AA0008C4A02EBC10148618FE000BF874890F893
:100AB0002502012812D1854890F8260211280DD16F
:100AC00085480BF02DFDB0EE408AF0EE608A51ECC7
:100AD000180B0CF0C5FD00B2804948807B4890F8A7
:100AE0002502022812D1794890F8260211280DD14A
:100AF00079480BF015FDB0EE408AF0EE608A51ECBB
:100B0000180B0CF0ADFD00B27549C8806F4890F825
:100B10002502032812D16D4890F8260211280DD124
:100B20006D480BF0FDFCB0EE408AF0EE608A51ECAF
:100B3000180B0CF095FD00B269498880634890F865
:100B40002502042807D1614890F82602102802D116
:100B50000120634948705D4890F82502052807D1B7
:100B60005A4890F82602102802D101205C490870EA
:100B7000564890F82502062807D1544890F82602D6
:100B8000102802D1012055494870504890F825029C
:100B9000042807D14D4890F82602102802D10120E0
:100BA0004E490870494890F825020C280CD1474856
:100BB00090F82602102807D100204849487048497B
:100BC000087048704549087000BF00BF00204549C3
:100BD000087020214048C01F0AF05AF9BDEC028B72
:100BE00010BD10B5044621463F4805F0C2FE012164
:100BF0003D4805F09DFE10BD70B52DED028B002423
:100C0000EE222146641C39484254B1222146641C1C
:100C1000425410222146641C425400222146641C86
:100C200042542146641C42542146641C425405220D
:100C30002146641C425410222046611CCCB22B4930
:100C40000A5400222046611CCCB228490A540122D1
:100C50002046611CCCB225490A54FF222046611C63
:100C6000CCB222490A54FC222046611CCCB21F4956
:100C70000A54FF222146601CC4B21C48425420463C
:100C8000611CCCB219490A5419480078012802D0D5
:100C900002287DD1F7E0EE222146601CC4B2134841
:100CA0004254B1222046611CCCB210490A5412228F
:100CB0002046611CCCB20D490A5400222046611C1A
:100CC000CCB217E004000020D8660020550D0020AB
:100CD00005000020FC6D00207C0F00202C0000206F
:100CE0002400002002000020A0600240750E0020B9
:100CF00001000020DA490A5401222046611CCCB2CE
:100D0000D7490A540025BAE005EBC50000EB4000C6
:100D1000D44901EBC000807800287CD00022204616
:100D2000611CCCB2CE490A5401222046611CCCB2CF
:100D3000CB490A5400222046611CCCB2C8490A544F
:100D400005EBC50000EB4000C64901EBC000B0F95F
:100D50001820C5A1C54809F051FFC44809F0F6FFA5
:100D6000C2B22046611CCCB2BD490A540819BF4921
:100D700009F0C8FFBD4809F0E9FF2044C4B20022D1
:100D80002046611CCCB2B6490A540222204600E03B
:100D90005EE1611CCCB2B2490A5400222046611CBB
:100DA000CCB2AF490A5405EBC50000EB4000AD4999
:100DB00001EBC000B0F91420ABA1AC4809F01EFF54
:100DC000AA4809F0C3FFC2B22046611CCCB2A449B4
:100DD0000A540819A54909F095FFA44809F0B6FF7F
:100DE0002044C4B200222046611CCCB29C490A5463
:100DF00009222046611CCCB299490A54102220468F
:100E0000611CCCB296490A5401222046611CCCB226
:100E100093490A5400E031E005EBC50000EB4000C7
:100E2000904901EBC00042782046611CCCB28C494D
:100E30000A5400222046611CCCB289490A540A2275
:100E40002046611CCCB286490A5410222046611CFF
:100E5000CCB283490A5401222046611CCCB280499D
:100E60000A5405EBC50000EB40007E4901EBC000D1
:100E700042782046611CCCB279490A546D1C042D7D
:100E8000FFF642AFE5E0EE222046611CCCB2744989
:100E90000A54B1222046611CCCB271490A54122274
:100EA0002046611CCCB26E490A5400222046611CC7
:100EB000CCB26B490A5402222046611CCCB268496C
:100EC0000A540025C0E005EBC50000EB4510684959
:100ED00001EBC000C07800287ED000222046611CB3
:100EE000CCB25F490A5401222146601CC4B25C485E
:100EF000425400222046611CCCB259490A5405EBE9
:100F0000C50000EB45105A4901EBC000C26956A16B
:100F1000564809F073FE554809F018FFC2B2214641
:100F2000641C4F48425401464819504909F0EAFEF2
:100F30004E4809F00BFF2044C4B200222046611C39
:100F4000CCB247490A5402222046611CCCB2444923
:100F50000A5400222046611CCCB241490A5405EBD8
:100F6000C50000EB4510424A02EBC00090ED080AB4
:100F700010EE101A08460CF055FE41EC180B53EC1D
:100F8000182B39A1394809F039FE384809F0DEFE3E
:100F9000C2B22146641C32484254014648193349C2
:100FA00009F0B0FE314809F0D1FE2044C4B200225D
:100FB0002046611CCCB22A490A5409222046611CF1
:100FC000CCB227490A5410222146601CC4B22448DE
:100FD00042540122204600E035E0611CCCB2204999
:100FE0000A5405EBC50000EB4510214901EBC00098
:100FF00042782046611CCCB219490A54002220468E
:10100000611CCCB216490A5409222046611CCCB29C
:1010100013490A5410222046611CCCB210490A54CC
:1010200001222046611CCCB20D490A5405EBC500D3
:1010300000EB45100E4901EBC00042782146601CD0
:10104000C4B2074842546D1C042DFFF63CAF00E0CB
:1010500000BF00BF2046FFF7C4FDBDEC028B70BD92
:10106000750E0020D866002025640000C00C00200A
:10107000FC6D002000B58BB00121480606F037F862
:101080000121084606F000F809220B21FE4805F070
:1010900040FE09220C21FC4805F03BFE02208DF8A1
:1010A0001C004FF4C050069006A9F74805F0A6FDB5
:1010B00014208DF8040003208DF8050000208DF821
:1010C000060001208DF8070001A804F0F2FDEF48AA
:1010D00004F05AFE08A804F07BFF00208DF82600DB
:1010E00001208DF8270000208DF828008DF82900B8
:1010F0008DF82A008DF82B008DF822008DF8230042
:1011000008208DF8240003208DF82500ADF820007C
:1011100008A9DE4804F051FE01208DF812008DF878
:10112000130000208DF8140046F2A000ADF808006E
:1011300046F2C000ADF80A0046F2E000ADF80C003F
:101140004FF4C240ADF80E000020ADF810000120B1
:101150008DF8150002A804F0BAFE02208DF81200E6
:1011600001208DF8130000208DF814004FF4C140C9
:10117000ADF8080046F22000ADF80A0046F2400043
:10118000ADF80C0046F26000ADF80E000020ADF89E
:10119000100001208DF8150002A804F098FE03202D
:1011A0008DF8120001208DF8130000208DF8140036
:1011B0004FF4C040ADF808004FF4C840ADF80A0045
:1011C0000020ADF80C00ADF80E00ADF810000120C5
:1011D0008DF8150002A804F07AFE01220221AB4826
:1011E00005F074F90BB000BD70B504460D4605F569
:1011F0002070A7494A88091D01EB021108600421EB
:10120000A3484288001D00EB02100171A27AA04998
:101210004B88091D01EB0311481D04F10B0109F076
:10122000C0FD9B484088401C322190FBF1F201FB3D
:1012300012009749488070BD70B505460E461446A9
:1012400006F5207092494A88091D01EB02110860D9
:1012500008218F484288001D00EB02100171AA7A14
:101260008B494B88091D01EB0311481D05F10B014A
:1012700009F097FD217886484288001D00EB021096
:101280004172617882484288001D00EB0210817231
:10129000A1787F484288001D00EB0210C172E178FE
:1012A0007B484288001D00EB02100173784840889B
:1012B000401C322190FBF1F201FB1200744948807E
:1012C00070BD30B585B00221704805F067F900287F
:1012D0007DD002216D4805F0FCF902216B4805F034
:1012E0003AF96A460021694804F0D5FF0098C5B272
:1012F0000098B0F5407F6BD19DF80B004D2824D1AC
:101300009DF80C004F2820D104208DF80A000024FD
:1013100015E09DF80F0000F0010004EBC40101EBA3
:1013200044115C4A02F8310004EBC40000EB4410A5
:10133000114611F8300008B100204870641C042CDC
:10134000E7DB29466846FFF74FFF9DF80B0053285F
:101350001ED19DF80C0054281AD1002412E004EB91
:10136000C40101EB44114B4A02EBC101896A00EE52
:10137000901AF8EEE00AB0EE600AE0B2002102F046
:10138000D6FA641C042CEADB29466846FFF72CFFDA
:101390009DF80B00422815D19DF80C00472811D16B
:1013A000002409E0012004EBC40101EB4411394A97
:1013B00002EBC1014870641C042CF3DB294668462B
:1013C000FFF712FF9DF80B0050281ED101E0A4E1A9
:1013D00067E09DF80C00582817D1681CC5B200249E
:1013E00011E004EBC40101EB44112A4A02EBC101F4
:1013F00001F12800284900F053FE274A2946684693
:10140000FFF71AFF641C042CEBDB9DF80B00562839
:101410001BD19DF80C00582817D1A81CC5B2002478
:1014200011E004EBC40101EB44111A4A02EBC101C3
:1014300001F11C00184900F033FE174A294668469E
:10144000FFF7FAFE641C042CEBDB9DF80B00492827
:1014500026D19DF80C00512822D1E81CC5B20024E9
:1014600011E004EBC40101EB44110A4A02EBC10193
:1014700001F11800084900F0FFFD074A29466846B7
:10148000FFF7DAFE641C09E000000240006400403F
:10149000005D0020FC6D002008000020042CE0DB33
:1014A00000BF0098B0F5407F21D90098B0F5417F8A
:1014B0001DD80098401EC5B29DF80B004A2816D1D1
:1014C0009DF80C00562812D195490DF10E0000F040
:1014D00010FE9348016805EBC50000EB4510914AEA
:1014E00002EBC000C16129466846FFF77DFE009807
:1014F000B0F5417F7BD90098B0F5427F77D89DF851
:101500000B00532814D19DF80C00542810D10098DA
:10151000401FC5B2002005EBC50101EB4101824A25
:1015200002EBC1014870202529466846FFF75CFEA2
:101530009DF80B00422814D19DF80C00472810D1CB
:101540000098401FC5B2012005EBC50101EB410128
:10155000754A02EBC1014870202529466846FFF70D
:1015600043FE9DF80B00502825D19DF80C0058280B
:1015700021D10098C5B26D490DF10F0000F0B9FD01
:101580006A4890ED000AB8EEC00ADFED690A80EE05
:10159000201ABDEEC10A10EE100A01B2681F00EB5E
:1015A000C00000EB4000604A02EBC0008180294689
:1015B0006846FFF719FE9DF80B004D2817D19DF8DE
:1015C0000C004F2813D10098C5B29DF80F0008B148
:1015D000012100E00021681F00EBC00000EB40008B
:1015E000514A02F8301029466846FFF7FDFD009881
:1015F000B0F5487F31D10098A0F54870C5B29DF88C
:101600000B004D282AD19DF80C004F2826D1002030
:101610001DE09DF8101009B1012100E0002100EB50
:10162000C00202EB4202404B03F8321000EBC00153
:1016300001EB41011A4612F8311039B9002100EBD3
:10164000C00202EB420203EBC2025170401C0428AC
:10165000DFDB29466846FFF7C7FD5DE09DF80B001C
:1016600053281ED19DF80C0050281AD1002415E0F3
:101670002B490DF10F0000F03CFD2948008881B294
:1016800004EBC40000EB4000274A02EBC000A0F8C6
:10169000461029466846FFF7A7FD641C042CE7DBCB
:1016A0003AE09DF80B00502808D19DF80C0058280E
:1016B00004D129466846FFF797FD2DE0002025E07C
:1016C0000DF10B0131F810101A4A22F810101146D2
:1016D00031F91010642291FBF2F109B200EBC00263
:1016E00002EB4202104B03EBC202918000EBC001FF
:1016F00001EB41011A4602EBC101898A642211FB08
:1017000002F109B20B4A22F81010401C0428D7DB62
:1017100029466846FFF768FD00BF05B030BD0000F0
:101720000C000020FC6D0020D86600201000002076
:101730000000C842140000201FB50121082005F058
:10174000D6FC42F6DF6002900B20ADF804000020CA
:10175000ADF80C00ADF8060001A95B4805F07FFE6E
:1017600032208DF8000001208DF803008DF8010073
:1017700000208DF80200684604F09BFA01215248CF
:1017800006F022FB012211464F4806F009FB012119
:101790004D4805F0EDFE1FBD70B501214A4806F029
:1017A00016FB002877D00121474806F021FB0024D2
:1017B00082E004EBC40000EB4410444911F830000F
:1017C000002878D004EBC40000EB441001EBC0000B
:1017D000407800286FD004EBC40000EB441001EB0C
:1017E000C000C0780A2864D2DFE800F04405163350
:1017F000632F575B635F04EBC40101EB4411334A71
:1018000002EBC101D1ED010AB0EE600A611CC8B261
:10181000002102F0DDF94DE004EBC40202EB4412BA
:101820002A4B03EBC202926804EBC40303EB44139C
:10183000264D05EBC30393F83C3102FB03F1621C18
:10184000D0B2002202F095FC34E0E0B202F0FAF8E7
:1018500030E004EBC40101EB44111C4A02EBC1016E
:10186000D1ED480AB0EE600A611CC8B2002102F056
:10187000C5FE1FE004EBC40101EB4411134A02EB67
:10188000C101D1ED040AB0EE600A611CC8B20021AA
:1018900002F053FE0EE012E00DE0E0B202F0C6FCF2
:1018A00008E0E0B202F06BFA04E0E0B202F0E8F91E
:1018B00000E000BF00BF641C042CFFF67AAF0449AF
:1018C000044800F0C7FC70BD000C0040FC6D002017
:1018D000005D00200064004000B58BB00121880647
:1018E00005F005FC0121022005F0CEFB09220521AF
:1018F000FD4805F00EFA09220621FB4805F009FA19
:1019000002208DF818006020059005A9F64805F022
:1019100075F940208DF8280002208DF8290000205C
:101920008DF82A0001208DF82B000AA804F0C1F9D7
:1019300041208DF8280002208DF829008DF82A001A
:1019400001208DF82B000AA804F0B3F9E74804F051
:101950001BFA07A804F03CFB00208DF822000120B0
:101960008DF8230000208DF824008DF825008DF8D7
:1019700026008DF827008DF81E008DF81F00082026
:101980008DF8200003208DF82100ADF81C0007A978
:10199000D64804F012FA0E208DF80E0001208DF8C2
:1019A0000F0000208DF8100044F22000ADF8040074
:1019B00044F24000ADF8060044F26000ADF80800C3
:1019C0004FF48140ADF80A000020ADF80C00012072
:1019D0008DF8110001A804F07AFA0F208DF80E009E
:1019E00001208DF80F0000208DF8100044F2A000B7
:1019F000ADF8040044F2C000ADF8060044F2E00087
:101A0000ADF808004FF48240ADF80A000020ADF8B0
:101A10000C0001208DF8110001A804F058FA1420E0
:101A20008DF80E0000208DF80F0001208DF81000B9
:101A30000020ADF804004FF49040ADF806004FF6DA
:101A4000FF70ADF808000020ADF80A000120ADF8E5
:101A50000C008DF8110001A804F039FA19208DF856
:101A60000E0000208DF80F0001208DF810000020DE
:101A7000ADF804004FF4C040ADF806004FF6FF701B
:101A8000ADF808004FF47840ADF80A000120ADF839
:101A90000C008DF8110001A804F019FA01221021A0
:101AA000924804F013FD01220221904804F00EFD3B
:101AB0000BB000BD10B586B002218C4804F06EFD5D
:101AC00000287DD001AA0021884804F0E4FB019899
:101AD000B0F5007F7ED90198B0F5027F7AD89DF8E5
:101AE0000D00002876D10198401FC4B2804850F8FC
:101AF0002400804941F8240008F068FE7C4941F840
:101B00002400084650F824007A4951F82410401A5D
:101B1000794941F824009DF812109DF8110041EA1E
:101B2000002001B204EBC40000EB4000734A02EB5A
:101B3000C00001839DF810009DF80F1040EA0120BD
:101B400001B204EBC40000EB400002EBC0000184D2
:101B50009DF814109DF8130041EA002001B204EB37
:101B6000C40000EB400002EBC000C1829DF81510DC
:101B700004EBC40000EB400002EBC00041842046AF
:101B800001F032F904EBC40000EB40005B4901EBCB
:101B9000C00090F83A00E0B9012104EBC40000EB6A
:101BA0004000564A02EBC00080F83A10002104EBD6
:101BB000C40000EB400002EBC000A0F8581001E0A8
:101BC00011E007E004EBC40000EB400002EBC000B2
:101BD000C16100BF0221454804F07BFD022143485A
:101BE00004F0B9FC00BF06B010BD10B586B01021DE
:101BF0003E4804F0D3FC002875D001AA01213B48DF
:101C000004F049FB1021394804F063FD10213748E6
:101C100004F0A1FC9DF80C0004287BD19DF80D0078
:101C20000028FAD10090029800F00F00401EC4B2C4
:101C300009210298B1EB102F2BD169460DF10F004D
:101C400000F057FA04EBC40101EB44112C4A02EBFB
:101C5000C10191F83C1190FBF1F104EBC40000EBE1
:101C6000441002EBC000C16169469FED260B0DF1E7
:101C70000F0000F064FA00EE100AB8EEC00A04EBA0
:101C8000C40000EB44101E4901EBC00080ED060AC1
:101C90006DE00C210298B1EB102F68D169469FEDE1
:101CA0001B0B0DF10F0000F04AFA00EE100AB8EE1F
:101CB000C00A04EBC40000EB4410114901EBC00062
:101CC00080ED080A69469FED110B0DF10F0000F041
:101CD00036FA00EE100AB8EEC00A04EBC40000EBBE
:101CE0004410074917E04DE100040240006800403D
:101CF000000D0020E00C0020200D0020D866002000
:101D0000FC6D0020000000000000244000000000E6
:101D10000000494035E101EBC00080ED080A69464A
:101D20001FED060B0DF10F0000F009FA00EE100A8E
:101D3000B8EEC00A04EBC40000EB4410924901EB7A
:101D4000C00080ED080A69461FED100B0DF10F0071
:101D500000F0F5F900EE100AB8EEC00A04EBC4007A
:101D600000EB4410884901EBC00080ED080A0DF13A
:101D70001601481E00F01FF9BDF8151004EBC40051
:101D800000EB4410804A02EBC000A0F8001104EB05
:101D9000C40000EB4410114601EBC000B0F8001184
:101DA00004EBC40000EB441002EBC000B0F80201E9
:101DB000081A00B204EBC40101EB441102EBC101AB
:101DC000A1F8FC0004EBC40000EB4410114601EB49
:101DD000C00090F8FE0088B1002104EBC40000EBC5
:101DE000441002EBC00080F8FE10002004EBC40198
:101DF00001EB441102EBC101A1F8FC0004EBC400AB
:101E000000EB4410604901EBC000B0F8001104EB96
:101E1000C40000EB44105C4A02EBC000A0F80211C1
:101E200004EBC40000EB4410114601EBC000B0F914
:101E3000FC00002808DD04EBC40000EB441001EBBB
:101E4000C000B0F9FC0009E004EBC40000EB441052
:101E50004D4901EBC000B0F9FC00404242F228318C
:101E6000884226DD04EBC40000EB4410464901EB38
:101E7000C000B0F9FC1004EBC40000EB4410424A6F
:101E800002EBC000B0F9FC00002802DA4FF0FF308E
:101E900000E0012040F265425043A1EB001000B287
:101EA00004EBC40101EB4411374A02EBC101A1F874
:101EB000FC0004EBC40000EB4410334901EBC0000C
:101EC000B0F9FC00052190FBF1F104EBC40000EB3C
:101ED00044102D4A02EBC000806A014404EBC400A8
:101EE00000EB441002EBC000816204EBC40000EB85
:101EF0004410114601EBC000416904EBC40000EB43
:101F0000441002EBC000806A091A04EBC40000EB25
:101F1000441002EBC000C0F80C1104EBC40000EB4D
:101F20004410114601EBC0004078F0B104EBC4004E
:101F300000EB441001EBC00090ED080A04EBC40074
:101F400000EB441001EBC00080ED410A04EBC4003B
:101F500000EB441001EBC000816A04EBC40000EB0D
:101F6000441002EBC000C0F8081108F02FFC04EB8D
:101F7000C40101EB4411044A02EBC101C1F818018C
:101F800000BF00BF06B010BDFC6D00200120374926
:101F90004872704710B500F00CFAFFF7F7FF02F037
:101FA00039FF03F05BF803F04BFE314802F088FF85
:101FB00001F0DEFA10BD00220A7803780B7002707F
:101FC000704710B5082008F0C3FD0446002060608B
:101FD000204610BD02460B46114605E0088898428F
:101FE00001D10846704749680029F7D10020F9E778
:101FF00070B506460C46354600E06D6815B1686858
:10200000A042FAD14CB160686860204608F0CFFD6C
:1020100018480078401E1749087070BD2DE9F0413E
:10202000074688463C4641462046FFF7D3FF08B1A5
:10203000BDE8F081002602E06468701CC6B20D485D
:102040000078B04201DD002CF6D16CB1082008F018
:102050007FFD0546A5F800806068686065600548FA
:102060000078401C0349087000BFE1E7400D0020E4
:102070001C7300201C00002008B590ED000A8DEDB7
:10208000000ABDF800200A70BDF80020120A4A704C
:10209000BDF802208A70BDF80220120ACA7008BD7D
:1020A00008B502680092BDF800200A70BDF8002053
:1020B000120A4A70BDF802208A70BDF80220120A86
:1020C000CA7008BD30B50C0E15686B1C1360445502
:1020D000C1F3074415686B1C13604455C1F3072412
:1020E00015686B1C1360445515686B1C13604155D3
:1020F00030BD10B502460B68D35C1C060B685B1C38
:10210000D35C44EA03440B689B1CD35C44EA03237E
:102110000C68E41C145D43EA04000B681B1D0B6093
:1021200010BD10B502460B685B1CD35C0C68145DD7
:1021300043EA042318B20B689B1C0B6010BD30B53A
:102140000446F0EE400A0D4629462046FFF7E9FF17
:1021500000EE100AB8EEC01A81EE200A30BD10B5AC
:102160000246B1F900305B1CD35CB1F90040145D4C
:1021700043EA042318B20B889B1C1BB20B8010BDD2
:102180001FB50121022004F0B2FF1B480290052078
:10219000ADF804000020ADF80600ADF80C001D20DD
:1021A0008DF8000003208DF8010001208DF8020059
:1021B0008DF80300684603F07CFD01A90F4805F087
:1021C0004EF9012211460D4805F0EAFD01210B48A8
:1021D00005F0CEF91FBD10B50121084805F0F7FD47
:1021E000012807D10121054805F002FE04490548F0
:1021F00000F030F810BD00005FAE0A00000400409F
:102200002460002000680040014608884A88904207
:1022100001D1012070470020FCE701464888401C9E
:10222000322290FBF2F302FB13000A88904201D1A4
:10223000012070470020FCE70020524948800880B8
:102240005149488008805149488008805049488059
:102250000880704730B585B005460C462046FFF72C
:10226000D3FF08B105B030BD2188201D00EB01105F
:10227000006800F07040F8B104208DF80800218853
:10228000201D00EB0110006820F0704001902188B3
:10229000201D00EB011000798DF80A0000208DF858
:1022A00009009DF80A202388201D00EB0310411D22
:1022B0000DF10B0008F075FD2188201D00EB0110C9
:1022C0000068B0F5207F25D32188201D00EB011088
:1022D0000068B0F5287F1DD800208DF808002188FF
:1022E000201D00EB0110006800902188201D00EBEC
:1022F000011000798DF80A0000208DF809009DF882
:102300000A202388201D00EB0310411D0DF10B0056
:1023100008F047FD1F48854217D102221B491E487D
:1023200002F0EDFB2188201D00EB0110407B38B945
:102330002088401C322190FBF1F201FB120020802A
:102340006946144803F0B2FE1AE01448854217D1DA
:1023500001220C49124802F0D2FB0A480188001DF4
:1023600000EB0110407B38B92088401C322190FBE3
:10237000F1F201FB120020806946084803F096FE46
:1023800000BF6FE7005D002024600020DC590020C2
:102390004863002000680040E80F0020006400400F
:1023A000A8290020002239210A54C261002181821B
:1023B000704710B52DED0E8B4FF40050FE4908808C
:1023C0009FEDFE0B084680ED040B9FEDFE0A80EDAD
:1023D000010A43F6991008814FF40050FA49088029
:1023E0009FEDFA0A084680ED010A42F22830088182
:1023F0009FEDF70B084680ED040B0020F6490870AE
:102400009FEDF60A084680ED010A0120087244F6A5
:102410002C404881012008734FF4FA6008824FF67F
:10242000E040C881012088742820ED49888300207D
:1024300048604FF47A70C8831822E349E94808F0ED
:10244000F5FC0020E7497039087048700520887055
:102450003221E4487038C1800020E2497039888018
:102460006421E048703801811422DB493C3008F0D7
:10247000DDFCDC487038B0F90810DFEDDB1A9FEDA9
:10248000DB1ADFEDDB0AB0EE0C0AB03002F0F2FB33
:10249000D4487038C168F7EE001A9FEDD61ADFED08
:1024A000D60AB1EE040A883002F0E4FB1822C649CD
:1024B000CC48D83008F0BAFC0020CA49703981F8FD
:1024C000D8000021C748703880F8D910052180F85D
:1024D000DA103221A0F8DE100021A0F8DC1064210F
:1024E000A0F8E0101422BC4900F58A7008F09EFCA8
:1024F000BC487038B0F9E010DFEDBB1A9FEDBB1A95
:10250000DFEDBB0AB0EE0C0A00F5C47002F0B2FBBE
:10251000B4487038D0F8E410F7EE001A9FEDB51A01
:10252000DFEDB50AB1EE040A00F5B07002F0A2FBCF
:102530001822A549B14808F079FC0020A949703952
:1025400081F8B0010021A748703880F8B111052149
:1025500080F8B2113221A0F8B6110021A0F8B41110
:102560006421A0F8B81114229B4900F5F67008F018
:102570005DFC9C487038B0F9B811DFED9B1A9FEDF7
:102580009B1ADFED9B0AB0EE0C0A00F5187002F002
:1025900071FB94487038D0F8BC11F7EE001A9FED2B
:1025A000951ADFED950AB1EE040A00F50E7002F0FF
:1025B00061FB182284499148D83008F037FC00208C
:1025C0008849703981F8880200218648703880F87F
:1025D0008912052180F88A123221A0F88E1200217A
:1025E000A0F88C124FF47A71A0F8901214227A4954
:1025F00000F5317008F01AFC7A487038B0F9901282
:10260000DFED791A9FED791ADFED790AB0EE0C0A49
:1026100000F54E7002F02EFB72487038D0F894121C
:10262000F7EE001A9FED731ADFED730AB1EE040A9C
:1026300000F5447002F01EFB002400E104EBC4002E
:1026400000EB40006749703901EBC000644909683C
:1026500001656348416804EBC40000EB4000614A37
:10266000703A02EBC000416504EBC40101EB41018B
:1026700002EBC10101F1580018225949083108F054
:10268000D5FB04EBC40101EB4101564A703A02EB61
:10269000C101B1F870000BF057F841EC1A0B04EBD4
:1026A000C40000EB40004F4A703A02EBC00090EDCE
:1026B0001D0A10EE101A08460BF0B4FA41EC1C0B80
:1026C00004EBC40000EB4000464A703A02EBC00045
:1026D00090ED100A10EE101A08460BF0A3FA41EC28
:1026E0001E0B04EBC40000EB40003E49703901EBC7
:1026F000C00090ED201BB0EE410AF0EE610A53ECF1
:10270000102B51EC1E0B0BF06FF853EC1C2B0BF045
:102710006BF853EC1A2B0BF067F89FED390B53EC69
:10272000102B0AF009FE0AF0CBFF04EBC40101EB09
:1027300041012C4A703A02EBC101086504EBC40167
:1027400001EB410102EBC101B1F870000AF0FCFF9E
:1027500041EC1A0B04EBC40000EB4000214A703A34
:1027600002EBC00090ED1D0A10EE101A08460BF0A7
:1027700059FA41EC1C0B04EBC40101EB4101194A6D
:10278000703A02EBC101B1F904000AF0C6FF41EC56
:102790001E0B04EBC40000EB40001249703901EB42
:1027A000C00090ED201BB0EE410AF0EE610A53EC40
:1027B000102B51EC1E0B27E0A866002000000080C3
:1027C00087870F409A999941C06600200000104207
:1027D000000000000000F03F906600200000E1448F
:1027E0007066002048670020CDCCCC3E0000000081
:1027F0008FC2F53DCDCC4C3E9A99993EF8680020A9
:1028000000000000008076400AF0EEFF53EC1C2B25
:102810000AF0EAFF53EC1A2B0AF0E6FF1FED080B53
:1028200053EC102B0AF088FD0AF01AFF04EBC401E8
:1028300001EB4101FE4A02EBC101C860641C042C9B
:10284000FFF6FCAE002314E003EBC30101EB4101F2
:10285000F74A02EBC100FFF7A5FD44F62C4103EB5C
:10286000C30000EB4000F24A02EBC000A0F84610A3
:102870005B1C042BE8DBBDEC0E8B10BD10B50446D1
:1028800004EBC40000EB4000E94901EBC000D0EDCF
:10289000260A04EBC40000EB400001EBC000B0F9D5
:1028A000080000EE100AB8EEC00A20EE800ABDEE65
:1028B000C00A10EE100A04EBC40101EB4101DC4A2E
:1028C00002EBC101C1F8B00004EBC40000EB400012
:1028D000114601EBC000B0F9181004EBC40000EB86
:1028E000400002EBC000C0F8C81004EBC40101EBCB
:1028F000410102EBC10101F1B00002F0D4F904EB97
:10290000C40000EB4000CA4901EBC000C18804EBE1
:10291000C40000EB4000C64A02EBC000D0F8C4007F
:10292000084401B204EBC40000EB400002EBC0001D
:10293000C18010BD10B5044604EBC40000EB40009C
:10294000BB4901EBC000B0F94A0004EBC40101EB44
:102950004101B74A02EBC101C1F8B00004EBC40069
:1029600000EB4000114601EBC000B0F9181004EB79
:10297000C40000EB400002EBC000C0F8C81004EB3C
:10298000C40101EB410102EBC10101F1B00002F011
:102990008AF904EBC40000EB4000A54901EBC0003C
:1029A000C18804EBC40000EB4000A14A02EBC00068
:1029B000D0F8C400084401B204EBC40000EB4000AE
:1029C00002EBC000C18004EBC40000EB40001146E4
:1029D00001EBC000B0F8580090BB04EBC40000EB62
:1029E000400001EBC000C069002807DD04EBC40013
:1029F00000EB400001EBC000C06908E004EBC4003C
:102A000000EB40008A4901EBC000C069404240F63B
:102A1000C411884215DD04EBC40000EB400084497A
:102A200001EBC000B0F86000401C81B204EBC400B0
:102A300000EB40007E4A02EBC000A0F860100AE004
:102A4000FFE7002104EBC40000EB4000784A02EBF2
:102A5000C000A0F8601004EBC40000EB4000744913
:102A600001EBC000B0F86000322839DD002104EB32
:102A7000C40000EB40006E4A02EBC000A0F86010FA
:102A8000002004EBC40101EB410102EBC10188828B
:102A9000002104EBC40000EB400002EBC000C16168
:102AA000052004EBC40101EB410102EBC101887078
:102AB000012104EBC40000EB400002EBC00080F8F1
:102AC0003510002004EBC40101EB410102EBC10110
:102AD0008880012004EBC40101EB410102F83100C0
:102AE00010BD10B52DED0E8B044604EBC40101EBB7
:102AF00041014F4A02EBC101B1F870000AF024FE17
:102B000041EC1A0B04EBC40000EB4000484A02EB16
:102B1000C00090ED1D0A10EE101A08460BF082F866
:102B200041EC1C0B04EBC40101EB4101404A02EBF8
:102B3000C101B1F904000AF0F0FD41EC1E0B04EBF9
:102B4000C40000EB40003A4901EBC00090ED201BAF
:102B5000B0EE410AF0EE610A53EC102B51EC1E0B63
:102B60000AF042FE53EC1C2B0AF03EFE53EC1A2BEB
:102B70000AF03AFE1FEDDE0B53EC102B0AF0DCFBE3
:102B80000AF06EFD04EBC40101EB4101284A02EB9F
:102B9000C101C86004EBC40000EB4000114601EB2A
:102BA000C000C06804EBC40101EB410102EBC101AC
:102BB000C1F8880004EBC40000EB4000114601EBB3
:102BC000C000407870B904EBC40000EB400001EB9A
:102BD000C000406D04EBC40101EB410102EBC101F7
:102BE000C1F8880004EBC40000EB4000104901EB81
:102BF000C000C16904EBC40000EB40000C4A02EBCA
:102C0000C000C0F8A01004EBC40101EB410102EBCD
:102C1000C10101F1880002F046F804EBC40000EBAA
:102C20004000034901EBC000D0ED260A02E000009D
:102C3000D866002004EBC40000EB400001EBC000AC
:102C4000D0F89C0000EE100AB8EEC00A20EE800A10
:102C5000BDEEC00A10EE100A04EBC40101EB410105
:102C6000FE4A02EBC101C1F8B00004EBC40000EB66
:102C70004000114601EBC00090F84400A8B304EBFB
:102C8000C40000EB400001EBC000D0F8B000002809
:102C900008DD04EBC40000EB400001EBC000D0F8FD
:102CA000B00009E004EBC40000EB4000EB4901EB8D
:102CB000C000D0F8B000404204EBC40101EB410178
:102CC000E64A02EBC101B1F84610884221DD04EB6F
:102CD000C40000EB4000114601EBC000D0F8B0008A
:102CE000002803DA4FF0FF3001E012E0012004EB8E
:102CF000C40101EB4101D94A02EBC101B1F8461010
:102D0000484304EBC40101EB410102EBC101C1F8EE
:102D1000B00004EBC40000EB4000D04901EBC00060
:102D2000B0F9181004EBC40000EB4000CB4A02EBF2
:102D3000C000C0F8C81004EBC40101EB410102EB74
:102D4000C10101F1B00001F0AEFF04EBC40000EBE3
:102D50004000C24901EBC000C18804EBC40000EB95
:102D60004000BE4A02EBC000D0F8C400084401B2E3
:102D700004EBC40000EB400002EBC000C18004EB98
:102D8000C40000EB4000114601EBC000C06D0028FC
:102D900007DD04EBC40000EB400001EBC000C06D98
:102DA00008E004EBC40000EB4000AC4901EBC000BC
:102DB000C06D4042B4280ADA012004EBC40101EBE3
:102DC0004101A64A02EBC10181F8340009E000206C
:102DD00004EBC40101EB4101A04A02EBC10181F8FF
:102DE0003400BDEC0E8B10BD70B52DED088B044684
:102DF00004EBC40000EB4000984901EBC000018CDB
:102E000004EBC40000EB4000944A02EBC000008ECB
:102E1000081A01B204EBC40000EB400002EBC00052
:102E2000A0F8581004EBC40000EB4000114601EB81
:102E3000C000808A04EBC40101EB410102EBC10137
:102E4000888404EBC40000EB4000114601EBC00095
:102E5000C18A04EBC40000EB400002EBC000C18457
:102E600004EBC40000EB4000114601EBC000018BF5
:102E700004EBC40000EB400002EBC000018504EB52
:102E8000C40000EB4000114601EBC000C16904EB37
:102E9000C40000EB400002EBC000C16204EBC400C0
:102EA00000EB4000114601EBC000018C04EBC400B4
:102EB00000EB400002EBC000018604EBC40000EB15
:102EC0004000114601EBC000418C04EBC40000EB54
:102ED000400002EBC000418604EBC40000EB400060
:102EE000114601EBC000B0F95800002808DD04EBE2
:102EF000C40000EB400001EBC000B0F9580009E04D
:102F000004EBC40000EB4000544901EBC000B0F9F1
:102F10005800404241F2360188422CDD04EBC400E7
:102F200000EB40004D4901EBC000B0F9581004EB34
:102F3000C40000EB4000494A02EBC000B0F9580061
:102F4000002802DA4FF0FF3000E0012004EBC40259
:102F500002EB4202414B03EBC202B2F8702000FBCD
:102F6000121001B204EBC40000EB40001A4602EB61
:102F7000C000A0F8581004EBC40000EB4000374933
:102F800001EBC000C16904EBC40000EB4000334A10
:102F900002EBC000B0F95800014404EBC40000EBA0
:102FA000400002EBC000C16104EBC40000EB400034
:102FB000114601EBC000C16804EBC40000EB400007
:102FC00002EBC000C069091A04EBC40000EB40002A
:102FD00002EBC000C16504EBC40101EB410102EB4F
:102FE000C101B1F870000AF0AFFB41EC190B04EB22
:102FF000C40000EB4000194901EBC000C06900EEBD
:10300000100AB8EEC00ADFED160A20EE200A04EB23
:10301000C40000EB400001EBC000D0ED1D0A80EEC3
:10302000201A11EE105A28460AF0FCFD41EC1B0B49
:1030300004EBC40000EB4000084901EBC00090ED38
:10304000201BB0EE410AF0EE610A53EC102B51EC5C
:103050001B0B0AF071F953EC192B03E0D866002022
:103060000000B4430AF068F90AF0FAFA00B204EB7F
:10307000C40101EB4101FA4A02EBC101888204EB71
:10308000C40000EB4000114601EBC000407868B17D
:1030900004EBC40000EB400001EBC000C16904EB8D
:1030A000C40000EB400002EBC000416504EBC4002B
:1030B00000EB4000EA4901EBC00090F8390040B154
:1030C00004EBC40101EB4101E54A02EBC100FFF74B
:1030D00069F9BDEC088B70BD014601EBC10000EB46
:1030E0004000DF4A12F8300008B901207047DD487F
:1030F000807C00287DD001EBC10000EB4000D84A65
:1031000002EBC0008078052873D101EBC10000EB11
:10311000400002EBC000C26901EBC10000EB4000BF
:10312000CF4B03EBC000C06A101A002810DD01EB82
:10313000C10000EB40001A4602EBC000C26901EB7F
:10314000C10000EB400003EBC000C06A101A10E0A1
:1031500001EBC10000EB4000C14A02EBC000C26AB3
:1031600001EBC10000EB4000BD4B03EBC000C069A8
:10317000101AC8283DDA01EBC10000EB4000B84A44
:1031800002EBC000B0F91800002808DD01EBC10017
:1031900000EB400002EBC000B0F9180009E001EBC1
:1031A000C10000EB4000AE4A02EBC000B0F91800CD
:1031B000404264281EDA01EBC10000EB4000A84A3F
:1031C00002EBC00090F83400A0B901EBC10000EBA5
:1031D000400002EBC000B0F86200401C82B201EB7C
:1031E000C10000EB40009E4B03EBC000A0F8622042
:1031F0000AE04BE0002201EBC10000EB4000984BDD
:1032000003EBC000A0F8622001EBC10000EB40001E
:10321000934A02EBC000B0F8622001EBC10000EB62
:1032200040008F4B03EBC000B0F86E00824209DD16
:10323000012201EBC10000EB400003EBC00080F86D
:10324000362009E0002201EBC10000EB4000844B76
:1032500003EBC00080F8362001EBC10000EB40001A
:103260007F4A02EBC00090F8360001280CD1000222
:103270007D4A1083002001EBC10202EB4202784B31
:1032800003F83200012031E700202FE700202DE76E
:1032900010B5044604EBC40000EB4000704911F87F
:1032A000300001285ED104EBC40000EB400001EBCC
:1032B000C00090F84F00E8B307F088FA6B4951F866
:1032C0002410401A40F2DC51884214D304EBC400AD
:1032D00000EB4000624901EBC00090F86400401C24
:1032E000C1B204EBC40000EB40005D4A02EBC00039
:1032F00080F8641009E0002104EBC40000EB4000FA
:10330000574A02EBC00080F8641004EBC40000EBE5
:103310004000534901EBC00090F8641004EBC40076
:1033200000EB40004E4A02EBC000B0F86C00814256
:103330000EDD00E016E0012104EBC40000EB4000CC
:1033400002EBC00080F8371010204749488309E09D
:10335000002104EBC40000EB4000414A02EBC00036
:1033600080F8371010BD2DE9F04186B004460D46B7
:1033700016461F4640F2FF1800208DF80C008DF80D
:103380000D0008208DF80E00CDF804803448007838
:10339000012805D1200A8DF80F008DF8104005E0B6
:1033A00000208DF80F0000218DF810100120FFF78C
:1033B00093FE50B92A4890F8D800012805D1290A6F
:1033C0008DF811108DF8125004E000218DF81110C5
:1033D0008DF812100220FFF77FFE50B9204890F8B8
:1033E000B001012805D1310A8DF813108DF8146051
:1033F00004E000218DF813108DF814100320FFF75E
:103400006BFE50B9164890F88802012805D1390A98
:103410008DF815108DF8167004E000218DF8151048
:103420008DF8161001A9124802F040FE06B0BDE862
:10343000F081002056E000EBC00101EB4101084A99
:1034400002EBC101B1F90610002913DD00EBC00148
:1034500001EB410102EBC101B1F9061014E00000DB
:10346000D86600209066002000000240E00C00209A
:103470000068004000EBC00101EB4101364A02EB5D
:10348000C101B1F90610494200EBC00202EB420251
:10349000314B03EBC202B2F87820914220DD00EB01
:1034A000C00101EB41011A4602EBC101B1F906105E
:1034B000002902DA4FF0FF3100E0012100EBC002E9
:1034C00002EB4202244B03EBC202B2F878205143D4
:1034D0000AB200EBC00101EB410103EBC101CA805C
:1034E000411CC8B20828A6DB7047002030E01B4909
:1034F000097800EBC00202EB4202174B03EBC20259
:1035000051701649497800EBC00202EB420203F801
:10351000321012494A8800EBC00101EB410103EB74
:10352000C1010A810D49898800EBC00202EB420209
:1035300003EBC20291800949C9888AB200EBC0013D
:1035400001EB410103EBC101A1F84620411CC8B2C7
:103550000428CCDB70470000D8660020240000203F
:103560004121095C19B1002241210A54826270474D
:1035700070B50720FE4908709FEDFE0A084680EDF1
:10358000010A42F2107088600C20FB49087042F278
:10359000107088601520F9490870B2EE040A0846D8
:1035A00080ED010A4FF47A7088600020F4490872B7
:1035B00047F23050C8600120087441F288304861F9
:1035C000B3EE0E0A084680ED010A6420ED494884F6
:1035D0000120EB490876EB4988700020EA49087021
:1035E00048704880E948E24B0ECB3C300EC00020CA
:1035F000E749087048700220C8709FEDE60A084647
:1036000080ED010A002181609FEDE20A80ED040A4D
:1036100041614169F7EE001A9FEDDF1ADFEDDF0A25
:103620009FEDDF0A443001F025FBD9488168F7EEB1
:10363000001AB7EE001ADFEDDB0A9FEDDB0A6C30F3
:1036400001F018FBDFEDD91A9FEDD91ADFEDD10A91
:103650009FEDD80ACD486C3801F01CFBDFEDD31A82
:103660009FEDD51ADFEDD50A9FEDCE0AC748383851
:1036700001F010FBD248BE4B0ECB3C300EC00020F8
:10368000C34981F848010021C14880F8491102214D
:1036900080F84B119FEDBF0A80ED530A0021C0F85E
:1036A00050119FEDBC0A80ED560AC0F85C114169CB
:1036B000F7EE001A9FEDB81ADFEDB80A9FEDB80AD1
:1036C00000F5C67001F0D6FAB1488168F7EE001A2D
:1036D000B7EE001ADFEDB30A9FEDB30A00F5DA701A
:1036E00001F0C8FADFEDB11A9FEDB11ADFEDA90ABA
:1036F0009FEDB00AB2486C3801F0CCFADFEDAB1A9E
:103700009FEDAD1ADFEDAD0A9FEDA60AAC48383843
:1037100001F0C0FAAB48964B0ECB3C300EC00020F7
:103720009B4981F890020021994880F8911202216A
:1037300080F893129FED970A80EDA50A0021C0F84A
:1037400098129FED940A80EDA80AC0F8A41241696E
:10375000F7EE001A9FED901ADFED900A9FED900AA8
:1037600000F5357001F086FA89488168F7EE001A95
:10377000B7EE001ADFED8B0A9FED8B0A00F53F7064
:1037800001F078FADFED891A9FED891ADFED810AE1
:103790009FED880A8B486C3801F07CFADFED831AC4
:1037A0009FED851ADFED850A9FED7E0A8548383842
:1037B00001F070FA84486E4B0ECB3C300EC00020F6
:1037C000734981F8D8030021714880F8D913022188
:1037D00080F8DB139FED6F0A80EDF70A0021C0F837
:1037E000E0139FED6C0A80EDFA0AC0F8EC13416912
:1037F000F7EE001A9FED681ADFED680A9FED680A80
:1038000000F21C4001F036FA61488168F7EE001AB8
:10381000B7EE001ADFED630A9FED630A00F2444041
:1038200001F028FADFED611A9FED611ADFED590A08
:103830009FED600A64486C3801F02CFADFED5B1AEA
:103840009FED5D1ADFED5D0A9FED560A5E48383840
:1038500001F020FA002467E004EBC40101EB4411FD
:103860004B4A02EBC100FFF77BFE04EBC40101EB06
:103870004411474A02EBC10101F590701C224049F6
:1038800007F0D4FA3F48008804EBC40101EB44116F
:103890003F4A02EBC101A1F8FC0004EBC40000EBBD
:1038A0004410114601EBC00036494988A0F8FE10CB
:1038B0003448818804EBC40000EB441002EBC000E4
:1038C000A0F800112F48C18804EBC40000EB44109D
:1038D00002EBC000A0F8021104EBC40000EB44109E
:1038E000114601EBC000FC30264A9168D268C0E95D
:1038F00002122448016904EBC40000EB4410244A7E
:1039000002EBC000C0F80C1104EBC40000EB441043
:10391000114601EBC000FC301A4D6969AA69EB69D8
:103920002D6A14302EC0641C042C95DB70BD30B59C
:103930002DED028B81B00446B0EE408A0D4600208A
:1039400000909FED220A28EE000ABDEEC00A10EE9C
:10395000101A1F4A5388121D02EB0312501D6A46AB
:10396000FEF7B0FB44F0704040F48061184831E04D
:10397000986D002000007042A46D0020B06D002002
:10398000BC6D0020D86D00202C000020FC6E0020B3
:10399000FC6D002000000000713D0A3F0AD7233F64
:1039A0008FC275406F12833A4260E53BCDCC4C3EEE
:1039B00017B7D1398FC2F53CBD37863517B7D13827
:1039C000447000208C710020D472002000247449BF
:1039D000246000204288001D00EB02100160009866
:1039E000C1B2F7484288001D00EB02100171F44893
:1039F0004188001D00EB01104573F1484088401CD0
:103A0000322190FBF1F201FB1200ED4948800121C7
:103A1000601E00EBC00202EB4010EA4A02EBC0005D
:103A200080F8101106F0D2FE611E01EBC10202EB1C
:103A30004111E44A02EBC101C1F8180101B0BDEC2B
:103A4000028B30BD10B5044604EBC40000EB4410FB
:103A5000DC4901EBC000D0F80C01002802DA4FF07D
:103A6000FF3100E0012104EBC40000EB4410D54A13
:103A700002EBC000C069002802DA4FF0FF3000E01E
:103A80000120814205D19FEDD00AD04880ED000A87
:103A900004E09FEDCF0ACD4880ED000A04EBC4009E
:103AA00000EB4410C74901EBC000D0F80C0100281E
:103AB00008DD04EBC40000EB441001EBC000D0F8BB
:103AC0000C0109E004EBC40000EB4410BD4901EB1C
:103AD000C000D0F80C01404200EE100AB8EEC00A57
:103AE000BA48D0ED000AB2EE041A60EE810AB4EED4
:103AF000E00AF1EE10FA29DD04EBC40000EB4410FB
:103B0000B04901EBC00090ED080A04EBC40000EBE3
:103B1000441001EBC000D0F80C01002802DA4FF08D
:103B2000FF3000E0012000EE900AF8EEE00AA7481E
:103B300090ED001A00EE810A04EBC40000EB441083
:103B4000A04901EBC00080ED030A25E004EBC400AE
:103B500000EB44109B4901EBC000D0F80C0100EED3
:103B6000900AF8EEE00AB2EE041AC0EE811AB0EE46
:103B7000610A04EBC40000EB441001EBC000D0ED7F
:103B8000080A70EE800A04EBC40000EB441001EB5D
:103B9000C000C0ED030A00BF04EBC40101EB4411F7
:103BA000884A02EBC10101F10C0001F018FB04EBA3
:103BB000C40101EB4411834A02EBC101D1ED030AB8
:103BC000B0EE600A611CC8B20021FFF7B0FE10BD64
:103BD00030B52DED028B81B00446B0EE408A0D4623
:103BE000002000909FED7B0A28EE000ABDEEC00A7F
:103BF00010EE101A724A5388121D02EB0312501D68
:103C00006A46FEF75FFA44F0704040F480716C48F9
:103C10004288001D00EB021001600098C1B26848A4
:103C20004288001D00EB0210017165484188001DAB
:103C300000EB0110457362484088401C322190FB24
:103C4000F1F201FB12005E4948800121601E00EB89
:103C5000C00202EB40105B4A02EBC00080F810117A
:103C600006F0B4FD611E01EBC10202EB4111554AA1
:103C700002EBC101C1F8180101B0BDEC028B30BDEF
:103C800070B5044604EBC40202EB44124D4B03EB47
:103C9000C202D2F8441104EBC40202EB441203EB5B
:103CA000C20202F1080001F01EFB04EBC40000EBAD
:103CB0004410444901EBC000816804EBC40000EBF0
:103CC0004410404A02EBC000C0F8F81004EBC403F3
:103CD00003EB4413154605EBC303DA6904EBC40395
:103CE00003EB441305EBC303996804EBC40303EB34
:103CF000441305EBC30303F1C80001F005F804EB1E
:103D0000C40000EB4410294601EBC00090ED3A0AD4
:103D100004EBC40000EB441001EBC000D0ED500AEE
:103D200020EE200A04EBC40000EB441001EBC000BD
:103D300080ED010A04EBC40101EB44112A4602EBB9
:103D4000C101D1ED490AB0EE600A04EBC40101EBF8
:103D5000441102EBC101081D01F0A9FA04EBC401F2
:103D600001EB44112A4602EBC101D1ED010AB0EE8C
:103D7000600A611CC8B20021FFF72AFF70BD10B5B0
:103D80002DED048B82B0044604EBC40000EB44101C
:103D90000C4901EBC000D0F80C01002802DA4FF00A
:103DA000FF3100E0012104EBC40000EB4410054AA0
:103DB00002EBC000C06900280EDA4FF0FF300CE0C3
:103DC00024600020FC6D002000002A433400002005
:103DD0000000B44200007A440120814205D11FED69
:103DE000060AFE4880ED000A04E01FED070AFB48C2
:103DF00080ED000A04EBC40000EB4410F84901EB2D
:103E0000C000D0F80C01002808DD04EBC40000EB72
:103E1000441001EBC000D0F80C0109E004EBC40031
:103E200000EB4410EE4901EBC000D0F80C01404219
:103E300000EE100AB8EEC00AE848D0ED000AB2EE73
:103E4000041A60EE810AB4EEE00AF1EE10FA29DD00
:103E500004EBC40000EB4410E14901EBC00090ED1D
:103E6000080A04EBC40000EB441001EBC000D0F8DA
:103E70000C01002802DA4FF0FF3000E0012000EED4
:103E8000900AF8EEE00AD54890ED001A00EE810A9B
:103E900004EBC40000EB4410D14901EBC00080EDFD
:103EA000030A25E004EBC40000EB4410CC4901EB0D
:103EB000C000D0F80C0100EE900AF8EEE00AB2EE75
:103EC000041AC0EE811AB0EE610A04EBC40000EBE4
:103ED000441001EBC000D0ED080A70EE800A04EB3C
:103EE000C40000EB441001EBC000C0ED030A00BFAA
:103EF00004EBC40101EB4411B94A02EBC10101F129
:103F00000C0001F06CF904EBC40000EB4410B44960
:103F100001EBC00090ED081AF0EE410A04EBC4007A
:103F200000EB441001EBC00090ED031AB0EE410A23
:103F300001F03EFAB0EE408A04EBC40000EB4410FE
:103F4000A74901EBC000807818B1B1EE480AB0EE85
:103F5000408A04EBC40000EB4410A14901EBC0000F
:103F600090ED250A20EE080A8DED010A04EBC4004D
:103F700000EB441001EBC00090ED260A9948D0ED0B
:103F8000000A60EE200A984890ED000A08EE200A28
:103F900080ED000A954890ED000A9248D0ED000AA5
:103FA00030EE200A914880ED000A914890ED000A19
:103FB000B4EE408AF1EE10FA02D1DFED8E8A19E0FC
:103FC00004EBC40000EB4410854901EBC000D0EDC8
:103FD000270A864890ED001A80EE810A8448D0EDC9
:103FE000000A78EE600A60EE208A9FED820A7F4820
:103FF00080ED000A04EBC40000EB4410784901EBAB
:10400000C000D0ED290A7C4890ED000A30EE681A15
:1040100090ED000A00EEC10A80ED000A90ED000A62
:10402000F0EE408AB7EE000A01A801F040F99DEDDC
:10403000010AB0EEC00AF7EE000A30EEC00AB0EE98
:10404000409A694801F033F9694880ED008A9DED96
:10405000010A6548D0ED000A30EE200A30EE280A49
:104060008DED000AF7EE000ABFEE000A684601F087
:10407000F7F804EBC40000EB4410594901EBC00011
:1040800090ED500ADDED000A20EE200A04EBC4009A
:1040900000EB441001EBC00080ED010A04EBC4000A
:1040A00000EB441001EBC00090ED010AB5EEC00A30
:1040B000F1EE10FA08DD04EBC40000EB441001EB54
:1040C000C00090ED010A0AE004EBC40000EB4410CC
:1040D000434901EBC00090ED010AB1EE400A04EB48
:1040E000C40000EB44103E4901EBC000D0ED490A8A
:1040F000B4EEE00AF1EE10FA27DD04EBC40000EBA9
:10410000441001EBC00090ED010AB5EEC00AF1EEDB
:1041100010FA02D24FF0FF3000E0012000EE100A4A
:10412000B8EEC00A04EBC40000EB44102C4901EBCC
:10413000C000D0ED490A20EE200A04EBC40000EBD9
:10414000441001EBC00080ED010A04EBC40101EB57
:104150004411234A02EBC101D1ED010AB0EE600A1D
:10416000611CC8B20021FFF733FD02B0BDEC048B27
:1041700010BDF8B504460E461546002000901F49B4
:104180004A88091D01EB0211481D6A463146FDF7B8
:1041900099FF44F0704040F4407118484288001D77
:1041A00000EB021001600098C1B214484288001D63
:1041B00000EB0210017111484188001D00EB011055
:1041C00045730E484088401C322190FBF1F201FB00
:1041D00012000A4948800121601E11E034000020CD
:1041E000FC6D0020380000203C000020440000202E
:1041F0004000002000000000480000202460002053
:1042000000EBC00202EB4010F74A02EBC00080F85E
:10421000101106F0DBFA611E01EBC10202EB411145
:10422000F14A02EBC101C1F81801F8BD70B52DEDDE
:10423000048B044604EBC40000EB4410EA4901EB94
:10424000C000406904EBC40101EB4411E64A02EBF3
:10425000C101486404EBC40000EB4410114601EBBB
:10426000C000407870B904EBC40000EB441001EBCF
:10427000C000D0F8080104EBC40101EB441102EBCB
:10428000C101486404EBC40000EB4410D64901EBC3
:10429000C00090F8280168B3D448D0F888000028FE
:1042A00003DDD248D0F8880003E0D048D0F8880079
:1042B000404204EBC40101EB4411CB4A02EBC101C3
:1042C000D1F82C11884215DDC848D0F888000028A4
:1042D00002DA4FF0FF3000E0012004EBC40101EBF3
:1042E0004411C14A02EBC101D1F82C114843BF4926
:1042F000C1F8880004EBC40000EB4410BA4901EB9C
:10430000C000816A04EBC40000EB4410B64A02EB23
:10431000C000C16504EBC40101EB441102EBC10113
:1043200001F1440000F0BFFC04EBC40101EB4411B7
:10433000AD4A02EBC101886D09F0EFF941EC190BB0
:10434000B0EE490AF0EE690AA94800F0C2FDB0EEED
:10435000408AF0EE608A51EC180B09F081F904EB09
:10436000C40101EB4411A04A02EBC101886510466B
:1043700090F83001C8B304EBC40000EB44101146C0
:1043800001EBC000806D002807DD04EBC40000EBEA
:10439000441001EBC000806D08E004EBC40000EBAA
:1043A0004410914901EBC000806D40428E49D1F824
:1043B0003411884219DD04EBC40000EB44108A4933
:1043C00001EBC000806D002802DA4FF0FF3000E002
:1043D00001208549D1F83411484304EBC40101EBB5
:1043E0004411814A02EBC101886504EBC40000EB73
:1043F00044107D4901EBC000D0F80C01002808DD15
:1044000004EBC40000EB441001EBC000D0F80C0139
:1044100009E004EBC40000EB4410734901EBC00059
:10442000D0F80C0140423C280ADA012104EBC40018
:1044300000EB44106C4A02EBC00080F8431009E026
:10444000002104EBC40000EB4410674A02EBC000FB
:1044500080F8431004EBC40202EB4412624B03EBFE
:10446000C202926D04EBC40303EB44135E4D05EBF3
:10447000C30393F83C3102FB03F1621CD0B200226B
:10448000FFF777FEBDEC048B70BD30B52DED028BD0
:1044900081B00446B0EE408A0D46002000909FEDAA
:1044A000550A28EE000ABDEEC00A10EE101A524A54
:1044B0005388121D02EB0312501D6A46FDF702FEDF
:1044C00044F0704040F480614B484288001D00EB8E
:1044D000021001600098C1B247484288001D00EBFD
:1044E0000210017144484188001D00EB0110457322
:1044F00041484088401C322190FBF1F201FB120040
:104500003D4948800121601E00EBC00202EB4010D3
:10451000354A02EBC00080F8101106F057F9611E11
:1045200001EBC10202EB41112F4A02EBC101C1F8BC
:10453000180101B0BDEC028B30BD30B52DED028B02
:1045400081B00446B0EE408A0D46002000909FEDF9
:10455000290A28EE000ABDEEC00A10EE101A264AFB
:104560005388121D02EB0312501D6A46FDF7AAFD87
:1045700044F0704020494A88091D01EB021108608F
:104580000098C1B21C484288001D00EB0210017166
:1045900019484188001D00EB0110457316484088FA
:1045A000401C322190FBF1F201FB120012494880BD
:1045B0000121601E00EBC00202EB40100A4A02EB30
:1045C000C00080F8101106F001F9611E01EBC10274
:1045D00002EB4111044A02EBC101C1F8180101B01C
:1045E000BDEC028B30BD0000FC6D0020D8660020C1
:1045F0001C730020002474492460002030B52DED88
:10460000028B81B00446B0EE408A0D460020009037
:104610009FEDC10A28EE000ABDEEC00A10EE101A86
:10462000BE4A5388121D02EB0312501D6A46FDF765
:1046300049FD44F0704040F00201B8484288001D36
:1046400000EB021001600098C1B2B4484288001D1E
:1046500000EB02100171B1484188001D00EB011010
:104660004573AE484088401C322190FBF1F201FBBB
:104670001200AA4948800121601E00EBC00202EB33
:104680004010A74A02EBC00080F8101106F09EF817
:10469000611E01EBC10202EB4111A14A02EBC10113
:1046A000C1F8180101B0BDEC028B30BD30B52DED65
:1046B000028B81B00446B0EE408A0D460020009087
:1046C0009FED950A28EE000ABDEEC00A10EE101A02
:1046D000924A5388121D02EB0312501D6A46FDF7E1
:1046E000F1FC44F0704040F00F018C484288001DFE
:1046F00000EB021001600098C1B288484288001D9A
:1047000000EB0210017185484188001D00EB01108B
:10471000457382484088401C322190FBF1F201FB36
:1047200012007E4948800121601E00EBC00202EBAE
:1047300040107B4A02EBC00080F8101106F046F8EA
:10474000611E01EBC10202EB4111754A02EBC1018E
:10475000C1F8180101B0BDEC028B30BD10B50446A4
:10476000601E00EBC00101EB40106D4911F83000F4
:1047700008B9012010BD6B48407E00287AD0601E29
:1047800000EBC00101EB4010654901EBC000C078AF
:1047900002286FD1601E00EBC00101EB40106049A0
:1047A00001EBC0008068002864D0601E00EBC001EF
:1047B00001EB40105A4901EBC000C069002809DD37
:1047C000601E00EBC00101EB4010554901EBC00039
:1047D000C06909E0601E00EBC00101EB40105049C8
:1047E00001EBC000C0694042142816DA601E00EBDD
:1047F000C00101EB40104A4901EBC000B0F81201C2
:10480000401C81B2601E00EBC00202EB4010444A23
:1048100002EBC000A0F812110AE00021601E00EBBC
:10482000C00202EB40103E4A02EBC000A0F8121199
:10483000601E00EBC00101EB4010394901EBC000E4
:10484000B0F81211601E00EBC00202EB4010344AB7
:1048500002EBC000B0F81E0181420CDD0121601E98
:1048600000EBC00202EB40102D4A02EBC00080F8C2
:1048700040100BE025E00021601E00EBC00202EBBF
:104880004010274A02EBC00080F84010601E00EB89
:10489000C00101EB4010224901EBC00090F840003C
:1048A00001280CD101F0E6F900219FED1F0A2046F6
:1048B000FFF78EF9204600F0F1FB00205AE70120B7
:1048C00058E7012056E710B5002421E0611CC8B26A
:1048D000FFF744FF1548007804EBC40101EB4411D5
:1048E0000F4A02EBC10148701048407804EBC40144
:1048F00001EB441102F831000C48B0F9021004EB4E
:10490000C40000EB441002EBC0008160601CC4B224
:10491000042CDBDB10BD000000007A442460002082
:10492000FC6D0020BC6D0020000000002C00002069
:1049300030B502460023012904D10120CC4C20725D
:10494000062303E00120CA4C60720823002029E0FE
:1049500000256724444302EBC404256167244443D3
:1049600002EBC40425736724444342F8345067249F
:10497000444302EBC40465606724444302EBC4046F
:10498000E5826724444302EBC404A58267244443C0
:1049900002EBC404A5606724444302EBC40484F81A
:1049A0002550401C9842D3DB30BD2DE9F04105462F
:1049B0000E4617464FF00008012F02D14FF00608AF
:1049C00001E04FF00808002494E06720604305EB05
:1049D000C000006901287DDB3046FDF71EFC08B1F0
:1049E000BDE8F0816721614305EBC10101F11400CD
:1049F000FDF70AFC30B100216720604305EBC000E1
:104A00008160EDE76720604305EBC0000069401E50
:104A10006721614305EBC10108616720604305EB35
:104A2000C00018306721614305EBC101898A00EBA2
:104A3000011072880168301D00EB021001606720D0
:104A4000604305EBC00018306721614305EBC101ED
:104A5000898A00EB011001797288301D00EB021089
:104A600001716720604305EBC00018306721614386
:104A700005EBC101898A00EB0110417B7288301D72
:104A800000EB021041736723634305EBC303183344
:104A90004FF0670C04FB0CFC05EBCC0CBCF814C00D
:104AA00003EB0C13591DB6F802C0331D03EB0C13B6
:104AB0001A79331D03EB0C13581D06F072F9308878
:104AC000401C322190FBF1F201FB12003080672084
:104AD000604300E00DE005EBC000808A401C90FBC5
:104AE000F1F201FB120081B26720604305EBC000C8
:104AF0008182641C4445FFF668AF00BF70E72DE972
:104B0000F04104460E4617464FF00008FF25318855
:104B1000301D00EB0110407B08B9BDE8F081012F8A
:104B200002D14FF0060809E04FF008083188301D27
:104B300000EB01100088A0F2013085B245450DDA86
:104B40006721694304EBC10101F11400FDF765FB26
:104B500048B1012F03D101204549887286E0012028
:104B60004349C87282E06720684304EBC0000069D3
:104B7000401C6721694304EBC10108616720684359
:104B800054F83000401C6721694344F831003188F3
:104B9000301D00EB011002686720684304EBC00081
:104BA00018306721694304EBC101C98A00EB011089
:104BB00002603188301D00EB0110027967206843E4
:104BC00004EBC00018306721694304EBC101C98AB6
:104BD00000EB011002713188301D00EB0110427BA7
:104BE0006720684304EBC00018306721694304EB79
:104BF000C101C98A00EB0110427367236B4304EBC8
:104C0000C30318334FF0670C05FB0CFC04EBCC0C12
:104C1000BCF816C003EB0C131A7967236B4304EB43
:104C2000C30318334FF0670C05FB0CFC04EBCC0CF2
:104C3000BCF816C003EB0C13581DB6F800C0331DAA
:104C400003EB0C13591D06F0ACF86720684304EB26
:104C5000C000C08A401C322190FBF1F201FB12001F
:104C600081B26720684304EBC000C18200BF54E7F3
:104C7000400D00200022826180ED031AC0ED020A7F
:104C800080ED010AC0ED041A0160C26100230362D5
:104C90004362704780ED000AC0ED010A80ED021A00
:104CA000C0ED041A704701688269891AC161C2693E
:104CB000016A511A00EE101AB8EEC00AD0ED010ACE
:104CC00020EE200A90ED021AC16900EE901AF8EE6B
:104CD000E00A01EE200AC269016A022303FB1122E5
:104CE000416A114400EE901AF8EEE00A90ED031AC2
:104CF00001EE200ABDEEC00A10EE101A4161026AF0
:104D00004262C2690262704770B504460D4616469B
:104D10002563E662206BE16A401A6062206B00281E
:104D200001DD206B01E0206B4042142806DA9FED84
:104D3000360A84ED060A606AA06270BD606A00EE01
:104D4000100AB8EEC00AD4ED000A20EE200ADFED0A
:104D50002F0A80EE201A84ED051A606A00EE100A10
:104D6000B8EEC00AD4ED010A60EE200A9FED281AC1
:104D700080EE810A9FED251AC0EE010A94ED060A25
:104D800030EE800A84ED060A606AA16A401A00EEDD
:104D9000100AB8EEC00AD4ED020A20EE200A84ED13
:104DA000070A94ED030AD4ED070A70EE600A94ED49
:104DB000030A94ED041A01EE600A84ED030A94EDEF
:104DC000030A84ED070AF7EE000ABFEE000A04F1B9
:104DD000180000F045FA606AA06294ED050AD4ED6F
:104DE000060A30EE200AD4ED070A30EE200A84EDE0
:104DF000080AF7EE000ABFEE000A04F1200000F0F6
:104E00002FFA00BF99E70000000000000000C84230
:104E100000007A441CB50121084602F035F9F02063
:104E2000009001208DF8040002208DF8050000207C
:104E30008DF8060001208DF8070069461F4801F033
:104E4000DDFE10201D4908832020088340200883B0
:104E5000802008831CBD10B51020184948836420A9
:104E600000F05DF9202015494883642000F057F9CF
:104E7000402012494883642000F051F980200F49F6
:104E80004883642000F04BF910200C49088364200B
:104E900000F045F9202009490883642000F03FF91B
:104EA000402006490883642000F039F98020034936
:104EB0000883642000F033F910BD000000000240B8
:104EC0009FED5E0A80ED000A9FED5D0A80ED020A0B
:104ED000704710B52DED0C8B0446B0EE408AF0EE15
:104EE000608A94ED020ADFED570A30EEC00AD4ED75
:104EF000000A20EE200A10EE101A084608F092FE72
:104F000041EC1B0B94ED020A10EE101A084608F053
:104F100089FE41EC1D0B53EC182B08F065FC41ECAD
:104F20001C0B53EC1B2B08F04BF941EC1A0B9FEDBB
:104F3000460B53EC102B08F0FFF941EC190B08F06D
:104F40000DF9606094ED010A84ED000A94ED010A08
:104F500010EE101A084608F065FE41EC100BBDEC8F
:104F60000C8B10BDB7EE000A80ED020AB7EE000A06
:104F700080ED030AB7EE000A80ED050A9FED340AC2
:104F800080ED060A9FED330A80ED070A9FED2B0A9C
:104F900080ED0C0A704710B52DED068B0446B0EE7F
:104FA000408A18EE100A08F03DFE41EC1A0BB0EEF4
:104FB0004A0AF0EE6A0A2848FFF78BFFB0EE409AE3
:104FC000F0EE609A51EC190B08F0C8F8206394EDEC
:104FD000050AD4ED070A30EE200AD4ED050A80EE6A
:104FE000801A84ED0A1A94ED0C0AD4ED030A94EDAC
:104FF000091A00EEC10AD4ED090A94ED0A1A41EE2D
:10500000000AC4ED080AD4ED0A0A94ED031AB7EEBB
:10501000000A00EEC10AD4ED050A20EE200A84ED54
:10502000040A94ED040A84ED050A94ED080A84ED5F
:10503000090A94ED080ABDEC068B10BD00000000C3
:105040000000254400007A440000000000408F402A
:10505000ACC52737CDCCCC3D1C7300201CB501213D
:10506000022002F011F84FF44070009001208DF8FA
:10507000040000208DF8060002208DF80500694626
:105080001A4801F0BBFD4FF48071184801F032FE60
:105090004FF40071154801F02FFE1CBD70B5044699
:1050A000112C00DD11241248055D00261AE04FF492
:1050B00080710E4801F020FE05F0010028B14FF488
:1050C00000710A4801F016FE04E04FF40071074831
:1050D00001F012FE4FF48071044801F00BFE6D10D8
:1050E000701CC6B2082EE2DB70BD00000004024056
:1050F0000ADF0008704709E04FF4FA7000F00FF87B
:105100000920FFF7CBFF042000F0B4FDF4E700BF57
:10511000FEE700BFFEE700BFFEE77047704710B52F
:10512000002107E04AF2104200BF1300A2F1010281
:10513000FBD1491C8142F5D310BD10B5002106E01A
:10514000282200BF1300A2F10102FBD1491C8142B9
:10515000F6D310BD00BF0100A0F1010290B2FAD158
:105160007047000090ED001AB4EEC01AF1EE10FA8C
:1051700012D290ED001A31EE201AB4EEC01AF1EE00
:1051800010FA06D290ED001A31EE201A80ED001AC6
:105190001BE080ED000A18E090ED001AB4EEC01A92
:1051A000F1EE10FA11DD90ED001A31EE601AB4EE56
:1051B000C01AF1EE10FA06DD90ED001A31EE601A19
:1051C00080ED001A01E080ED000A7047F0EE401A11
:1051D00031EE612A70EEE12A82EE220A704710B5A4
:1051E0000446D4ED000AB0EE600ADFEDF90A07F0DC
:1051F000A7FA84ED000A94ED000AB5EEC00AF1EEBC
:1052000010FA07D294ED000ADFEDF10A30EE200A21
:1052100084ED000A10BD07E090ED000ADFEDED0A15
:1052200030EE200A80ED000A90ED000ADFEDEA0A78
:10523000B4EEE00AF1EE10FAEED307E090ED000ACA
:10524000DFEDE40A30EE600A80ED000A90ED000A1E
:10525000DFEDE20AB4EEE00AF1EE10FAEEDC7047A0
:105260000146002091ED001AB4EEE01AF1EE10FABA
:1052700003DDC1ED000A012009E091ED001AB4EE52
:10528000C01AF1EE10FA02D281ED000A0120704737
:1052900010B5034600201C68944202DD1A6001200C
:1052A00004E01C688C4201DA1960012010BD01463F
:1052B0000020D1ED000AF4EEC00AF1EE10FA03DD91
:1052C00081ED000A01200DE0D1ED000AB1EE401A97
:1052D000F4EEC10AF1EE10FA04D2F1EE400AC1ED8B
:1052E000000A0120704710B50246002013688B4267
:1052F00002DD1160012006E04C421368A34202DA8D
:105300004B421360012010BDF0EE402A32EEE00A5D
:1053100032EE613A20EE030A71EE603A80EE233AF3
:1053200033EE210A704770B50446049D601AEE1AE8
:105330007043561A90FBF6F0184470BDB0EE401A58
:1053400090ED000AB0EEC00AB4EEC10AF1EE10FA18
:1053500004D29FEDA30A80ED000A28E070EEC11A86
:1053600080EEA12AB0EE420AD0ED001AF5EEC01A86
:10537000F1EE10FA0CDDD0ED001A61EE801AB7EEF6
:10538000002A32EE402A40EE821AC0ED001A0DE0EB
:10539000D0ED001AF1EE611A61EE801AB7EE002A24
:1053A00032EE402A50EEC21AC0ED001A00BF70471C
:1053B000B0EE401A71EE601AB0EE610A05E0DFED62
:1053C000841A70EE211AB0EE610ADFED861AB4EE8F
:1053D000E10AF1EE10FAF2D305E0DFED7D1A70EE8E
:1053E000611AB0EE610ADFED801AB4EEE10AF1EE67
:1053F00010FAF2DC7047B0EE401A71EE601AB0EEAF
:10540000610A05E0DFED731A70EE211AB0EE610A51
:10541000DFED711AB4EEE10AF1EE10FAF2D305E015
:10542000DFED6C1A70EE611AB0EE610ADFED6B1AF7
:10543000B4EEE10AF1EE10FAF2DC7047B0EE402A69
:10544000B0EEC20ADFED692A30EE220AB0EE401A51
:10545000F5EEC00AF1EE10FA18DB30EEC13A70EE4C
:10546000813A83EE234AB0EE440A20EE003AF0EE91
:10547000432A9FED5F3ADFED5F3A13EEA23ADFED8C
:105480005E3AF0EE631A43EE001A18E030EE813A0D
:1054900071EE603A83EE234AB0EE440A20EE003A01
:1054A000F0EE432A9FED523ADFED523A13EEA23A64
:1054B000DFED523AF0EE631A43EE001A00BFB5EE8C
:1054C000C02AF1EE10FA02D2B1EE610A7047B0EED6
:1054D000610AFBE705E0DFED3F0A70EE200AB0EE5F
:1054E000600ADFED3D0AB4EEE00AF1EE10FAF2D305
:1054F00005E0DFED380A70EE600AB0EE600ADFED1D
:10550000370AB4EEE00AF1EE10FAF2DCB5EEC00AAA
:10551000F1EE10FA36D2DFED3A0A60EE200A9FED86
:10552000391A20EE011A41EE000AC0ED000AD0ED52
:10553000000AF5EEC00AF1EE10FA12D2D0ED000A20
:1055400090ED001AD0ED001AF1EE611A51EE210A29
:1055500090ED001ADFED2C1A01EEA01A80ED001A72
:1055600064E0D0ED000A90ED001AD0ED001A51EE83
:10557000210A90ED001ADFED241A01EEA01A80ED49
:10558000001A53E0DFED1E0A60EE200A9FED1D1A9F
:1055900020EE011A41EE400AC0ED000AD0ED000AEB
:1055A000F5EEC00AF1EE10FA30D2D0ED000A90ED1F
:1055B000001AD0ED001AF1EE611A51EE210A90EDB9
:1055C000001ADFED111A01EEA01A80ED001A2DE08D
:1055D0000000B443DB0FC940DB0F49C0DB0F49407B
:1055E00000000000000034C30000344308E53C1E06
:1055F000B1507B3FDE02493EDB0F493FE4CB164012
:1056000083F9A23F7B81CF3E6666663ED0ED000AFD
:1056100090ED001AD0ED001A51EE210A90ED001A1B
:105620005FED071A01EEA01A80ED001ADFEDFD0A0A
:1056300070EE200AB0EE600A5FED180AB4EEE00AE0
:10564000F1EE10FA05DD5FED1D0A70EE600AB0EEB6
:10565000600AB5EEC00AF1EE10FA36D25FED180A14
:1056600060EE200A1FED191A20EE011A41EE000A21
:10567000C1ED000AD1ED000AF5EEC00AF1EE10FA14
:1056800012D2D1ED000A91ED001AD1ED001AF1EE1F
:10569000611A51EE210A91ED001A5FED251A01EE13
:1056A000A01A81ED001A46E0D1ED000A91ED001A32
:1056B000D1ED001A51EE210A91ED001A5FED2E1A7C
:1056C00001EEA01A81ED001A35E05FED330A60EEBD
:1056D000200A1FED341A20EE011A41EE400AC1EDF6
:1056E000000AD1ED000AF5EEC00AF1EE10FA12D26E
:1056F000D1ED000A91ED001AD1ED001AF1EE611A18
:1057000051EE210A91ED001A5FED411A01EEA01A47
:1057100081ED001A0FE0D1ED000A91ED001AD1EDF4
:10572000001A51EE210A91ED001A5FED491A01EEBF
:10573000A01A81ED001A70473CB504460B46154689
:105740001FED590AF0EE404A1FED5B0AB0EE405AD9
:10575000002222E004EB8200D0ED000AB0EE600AE5
:10576000694601A8FFF7B6FE03EB8200D0ED000A00
:105770009DED011AB0EE640A01EE200AF0EE404AF7
:1057800003EB8200D0ED000A9DED001AB0EE450A51
:1057900001EE200AB0EE405A521CAA42DADBF0EECB
:1057A000450AB0EE640AFFF749FE3CBDF0EE401A30
:1057B000F4EEE01AF1EE10FA11D8F4EEC11AF1EE9F
:1057C00010FA0CD8F4EEC10AF1EE10FA02D8B0EEDD
:1057D000602A01E0B0EE412AB0EE420A22E0F4EE87
:1057E000E10AF1EE10FA11D8F4EEC10AF1EE10FA66
:1057F0000CD8F4EEC11AF1EE10FA02D8B0EE612A1C
:1058000001E0B0EE412AB0EE420A0BE0F4EEE01AFD
:10581000F1EE10FA02D8B0EE612A01E0B0EE602A93
:10582000B0EE420A704710B503468B4208DC934243
:1058300006DC914201DC0C4600E01446204610E0F4
:10584000994208DC914206DC934201DC1C4600E0F0
:105850001446204605E08B4201DC1C4600E00C4665
:10586000204610BD08B5F0EE400AB6EE000A20EE64
:10587000800AB0EE401ACDED000A6B490098A1EB0A
:10588000600000909DED000A60EE011A9DED002A77
:10589000B7EE080A01EEC20ADDED001A20EE210A79
:1058A0008DED000A9DED000A08BD70B52DED028B4F
:1058B00005460C46B0EE408A0026D5ED000A60EEA3
:1058C000A00A94ED001AD4ED001A41EE210AB0EEC0
:1058D000600A07F0FBFAF0EE408AB0EEC80AB0EEBC
:1058E000408A9FED520AF4EEC08AF1EE10FA03D21C
:1058F0009FED4E0AF0EE408AF4EEC88AF1EE10FAFF
:1059000011DDC8EE280AB0EE600AD5ED000A60EE9F
:10591000800AC5ED000AD4ED000A60EE800AC4EDED
:10592000000A012600BF3046BDEC028B70BD05E0C9
:105930005FEDD80A70EE200AB0EE600A5FEDDA0A79
:10594000B4EEE00AF1EE10FAF2D305E05FEDDF0A03
:1059500070EE600AB0EE600A5FEDE00AB4EEE00AB5
:10596000F1EE10FAF2DCB5EEC00AF1EE10FA0CD24C
:105970005FEDDD0A60EE200A1FEDDE1A20EE011A4F
:1059800041EE000AC0ED000A0BE05FEDE30A60EEB5
:10599000200A1FEDE41A20EE011A41EE400AC0ED84
:1059A000000ADFED200A70EE200AB0EE600A5FED1B
:1059B000F50AB4EEE00AF1EE10FA05DD5FEDFB0A40
:1059C00070EE600AB0EE600AB5EEC00AF1EE10FAB1
:1059D0000CD25FEDF50A60EE200A1FEDF61A20EEFC
:1059E000011A41EE000AC1ED000A0BE05FEDFC0A6E
:1059F00060EE200A1FEDFD1A20EE011A41EE400A6A
:105A0000C1ED000A7047B0EE401AF0EEC11AB0EED8
:105A1000E02AF4EEC21AF1EE10FA09D2B0EE410A11
:105A200008E00000DB0FC93FDF59375FFFE6DB2EE0
:105A3000B0EE600A7047B0EE401AF0EEC11AB0EE58
:105A4000E02AF4EEC21AF1EE10FA02DDB0EE410ADD
:105A500001E0B0EE600A704770B506460D460020C2
:105A6000287080240BE006EA0400A04201D171A056
:105A700000E071A00146284605F087F96410002C6B
:105A8000F1DC70BD10B52DED088BB0EE409AF0EE54
:105A9000609AB0EE41AA04469FED680AF0EE40AA73
:105AA000BFEE000AB4EEC09AF1EE10FA03D2BFEED8
:105AB000000AB0EE409AB7EE000AB4EEC09AF1EEDA
:105AC00010FA03DDB7EE000AB0EE409AF0EEC98A94
:105AD000B5EEC09AF1EE10FA02DBB0EE698A01E091
