:020000040800F2
:1000000060BF00207D840008A54F0008A74F0008AE
:10001000B94F0008BD4F0008C14F000800000000A4
:10002000000000000000000000000000C54F0008B4
:10003000C74F00080000000003A7000867A90008D8
:100040009784000897840008978400089784000824
:100050009784000897840008978400089784000814
:100060009784000897840008978400089784000804
:1000700097840008978400089784000897840008F4
:1000800097840008DF05000897840008978400081B
:10009000A511000897840008978400089784000839
:1000A00097840008978400089784000897840008C4
:1000B000DD0300081F2000089784000897840008CB
:1000C00097840008978400089784000897840008A4
:1000D00097840008978400080506000897840008A4
:1000E0009784000897840008978400089784000884
:1000F0009784000897840008978400089784000874
:100100009784000897840008A516000897840008C3
:100110009784000897840008978400089784000853
:100120009784000897840008978400089784000843
:100130009784000897840008978400089784000833
:10014000B1190008E71A000897840008978400088E
:100150009784000897840008978400089784000813
:100160009784000897840008978400089784000803
:1001700097840008978400089784000897840008F3
:10018000978400089784000800F002F800F053F804
:100190000AA090E8000C82448344AAF10107DA45E2
:1001A00001D100F048F8AFF2090EBAE80F0013F0E1
:1001B000010F18BFFB1A43F0010318470CDF0000C2
:1001C0002CDF0000103A24BF78C878C1FAD8520753
:1001D00024BF30C830C144BF04680C6070470000C1
:1001E0000023002400250026103A28BF78C1FBD840
:1001F000520728BF30C148BF0B60704764290AF01E
:100200009984002070471FB50DF0D1FC9DE80300D4
:100210000AF0D4FD0BF04EFA0400002000210CF08F
:10022000DBFE401C6060002000210CF0BFFEE0609F
:100230001FBD10B510BD0AF044FF1146FFF7E3FFE4
:1002400000F050F80BF0BCF903B4FFF7F2FF03BC69
:100250000BF02AFA0CE03D48007808B104F08DFA62
:100260003B493C4801F09CFF4FF47A700AF052F988
:10027000F1E706E03649374801F092FF02200AF024
:1002800049F9F7E709E004F03EFD3048007808B18D
:1002900003F097F8C8200AF03DF9F4E770B504467A
:1002A000002500BF0AF075FB00F02AFC0AF008FAEE
:1002B00005460723284A0021284809F0E5FD1023B8
:1002C000274A0021274809F0DFFD1223264A002192
:1002D000264809F0D9FD05200AF054F828460AF00E
:1002E000F3F970BD10B508F02FF84FF4806101F0FC
:1002F00007021F4B18684FF6FF0318401D4B0343BE
:1003000043EA02201A4B186000BF00F03BF801F0EE
:1003100099F900F031FE01F05DFA00F0C5F801F046
:1003200031FF0221144804F05BFA01F067FD002060
:100330000649087008F0FAF90523104A0021104810
:1003400009F0A2FD08F019FB002010BD00000020FC
:100350001C64002000680040B408002085020008EA
:10036000B40C002073020008B410002055020008ED
:100370000CED00E00000FA05E0130020B4040020BA
:100380009D0200081FB50121084606F004FE42F652
:10039000DF6002900620ADF804000020ADF80600F2
:1003A000ADF80C0001A94FF0804006F0ACFF1C2016
:1003B0008DF8000001208DF801008DF802008DF805
:1003C0000300684605F0C9FB01221146900707F0BB
:1003D0003BFC0121880707F01FF81FBD10B5012164
:1003E000880707F048FC012853D10121800707F056
:1003F00053FC002432E004EBC40000EB400025492C
:1004000011F8300028B304EBC40000EB400001EB0E
:10041000C0004078F0B104EBC40000EB400001EBF9
:10042000C0008078012806D0022805D004280BD00F
:1004300005280DD104E00CE020B202F097F908E0A5
:1004400020B202F0C6FA04E020B202F0EBF900E0BC
:1004500000BF02E020B202F0BCFA641C042CCADB2C
:100460000C4CB4F98E32B4F9B621B4F9DE10B4F9FB
:10047000060002F0F0FE02F048FF0749074801F0CD
:100480008FFE0748407A20B102220349054804F054
:10049000E4F910BDD06A0020D45D0020006800405F
:1004A00038110020E013002000B597B00121084664
:1004B00006F03EFD0121480406F06DFD01214805CE
:1004C00006F036FD07220221FE4806F076FB0722E1
:1004D0000321FC4806F071FB0C20119002208DF8DE
:1004E000480000208DF84A0003208DF849000020C4
:1004F0008DF84B0011A9F34806F0D4FA4FF4E1301F
:1005000013900020ADF85000ADF85200ADF8540043
:10051000ADF858000C20ADF8560013A9EA4807F0D2
:10052000E5FC012240F22551E74807F01DFE262098
:100530008DF8400004208DF8410001208DF8420024
:100540008DF8430010A805F008FB0121DE4807F0F4
:1005500055FDDE4806F064F84FF000600190002081
:10056000059040200490DA480390D748001D02907F
:100570000015079000200690099008900A904FF40B
:1005800040300B9000200C9001200D9000200F9027
:100590000E9001A9CD4806F0E5F8CE49CB4806F00B
:1005A00094F9CC49C94806F0EBF901221021C7485B
:1005B00006F09FF911208DF8400007208DF84100CA
:1005C00001208DF842008DF8430010A805F0C5FA0F
:1005D00001228021BC4807F0BEFD17B000BD10B558
:1005E000BC49BA4806F0A2F901280AD1B949B7486E
:1005F00006F06BF9B749B54806F0C2F90020B649D4
:10060000C87310BD10B52DED028B002440F22531CA
:10061000AD4807F0E4FD50B1AB4807F01EFD0020E7
:10062000AE4908702021AE480AF086FB5AE240F23B
:100630002551A54807F0D3FD0028F7D02021A24876
:1006400007F0C4FD40F225519F4807F0FFFD9E488A
:1006500007F003FDC4B2A148007800F0400008B3E1
:100660009E48007800F0800020BBFF2C06D19B48FC
:10067000007840F08000994908701BE097480078A6
:1006800000F03F019648445494480078401C934938
:1006900008700846007800F03F0028280ADD002096
:1006A000087007E0EE2C05D18C48007840F040003F
:1006B0008A4908708948007800F080000028B5D089
:1006C000884890F82102012804D1864890F8230236
:1006D00085490870834890F8230220B1012803D08F
:1006E000022800D110E1F4E17E4890F825020828A4
:1006F00022D17C4890F8260211281DD1794890F823
:100700002702302806D0312808D032280AD03328D2
:1007100010D10BE00020754908700CE001207349EE
:10072000087008E002207149087004E003206F4956
:10073000087000E000BF00BF6A4890F82502092851
:1007400021D1684890F8260210281CD1654890F8FD
:10075000280258B1012814D16449097801EBC1017C
:1007600001EB4101624A02F831000BE000205F49D1
:10077000097801EBC10101EB41015D4A02F831004A
:1007800000E000BF00BF574890F825020A2823D197
:10079000544890F8260210281ED1524890F828029A
:1007A00060B1012816D15149097801EBC10101EB73
:1007B00041014F4A02EBC10148700CE000204B4957
:1007C000097801EBC10101EB4101494A02EBC1018A
:1007D000487000E000BF00BF424890F8250203289F
:1007E00034D1404890F8260211282FD13D4890F886
:1007F0002702322804D034280ED0352824D117E01F
:1008000002203A49097801EBC10101EB4101384A64
:1008100002EBC101887018E004203449097801EB2B
:10082000C10101EB4101324A02EBC10188700CE0C9
:1008300005202E49097801EBC10101EB41012C4A49
:1008400002EBC101887000E000BF00BF254890F8AE
:10085000250201281CD1234890F82602112817D11F
:100860001F48C01D0BF0B0FDB0EE408AF0EE608A6C
:1008700051EC180B0CF048FE01B21C48007800EB5C
:10088000C00000EB40001A4A02EBC000018120E1E9
:10089000144890F82502022835D1124890F8260213
:1008A000112830D10E48C01D0BF08EFDB0EE408AED
:1008B000F0EE608A51EC180B0CF026FE00B20B49EA
:1008C000097817E00000024000440040A0600240A8
:1008D0006D1200200080202038110020020000202E
:1008E0006D1300204D1100200100002004000020A5
:1008F000D06A002001EBC10101EB4101FD4A02EB8E
:10090000C1018880E5E0E4E0FB4890F82502082872
:1009100022D1F94890F8260211281DD1F64890F806
:100920002702302812D0312804D0322806D03328AC
:1009300010D107E00120F14908700CE00220EF49D6
:10094000087008E00320ED49087004E00020EB493E
:10095000087000E000BF00BFE74890F825020928B2
:1009600021D1E54890F8260210281CD1E24890F8E1
:10097000280258B1012814D1E049097801EBC102DD
:1009800002EB4111DE4A02F831000BE00020DB49A6
:10099000097801EBC10202EB4111D94A02F831009A
:1009A00000E000BF00BFD44890F825020A2823D1F8
:1009B000D14890F8260210281ED1CF4890F828027E
:1009C00060B1012816D1CD49097801EBC10202EBD3
:1009D0004111CB4A02EBC10148700CE00020C7492D
:1009E000097801EBC10202EB4111C54A02EBC101DA
:1009F000487000E000BF00BFBF4890F82502032800
:100A000026D1BD4890F82602112821D1BA4890F885
:100A10002702322802D0352818D10BE00220B7492E
:100A2000097801EBC10202EB4111B54A02EBC101A9
:100A3000C8700CE00520B149097801EBC10202EB56
:100A40004111AF4A02EBC101C87000E000BF00BF16
:100A5000A94890F8250201281AD1A74890F8260243
:100A6000112815D1A7480BF0AFFCB0EE408AF0EE8C
:100A7000608A51EC180B0CF047FDA049097801EB96
:100A8000C10202EB41119E4A02EBC101886020E0E5
:100A9000994890F8250202281AD1974890F8260222
:100AA000112815D197480BF08FFCB0EE408AF0EE7C
:100AB000608A51EC180B0CF027FD9049097801EB86
:100AC000C10202EB41118E4A02EBC101486100E014
:100AD00000BF00BF00208C49087020218948C01F3A
:100AE0000AF02AF9BDEC028B10BD10B50446214670
:100AF000864805F092FE0121844805F06DFE10BD88
:100B000070B52DED028B0024EE222146641C804836
:100B10004254B1222146641C425410222146641CD6
:100B2000425400222146641C42542146641C425413
:100B30002146641C425405222146641C4254102262
:100B40002046611CCCB272490A5400222046611C26
:100B5000CCB26F490A5401222046611CCCB26C49C8
:100B60000A54FF222046611CCCB269490A54FC2277
:100B70002046611CCCB266490A54FF222146601C03
:100B8000C4B2634842542046611CCCB260490A5446
:100B900060480078012802D002287CD1F5E0EE22DE
:100BA0002146601CC4B25A484254B1222046611CFE
:100BB000CCB257490A5412222046611CCCB2544987
:100BC0000A5400222046611CCCB251490A54012229
:100BD0002046611CCCB24E490A540025D1E005EBF9
:100BE000C50000EB4000434901EBC00080780028BD
:100BF0007ED000222046611CCCB245490A54012215
:100C00002046611CCCB242490A5400222046611C95
:100C1000CCB23F490A5405EBC50000EB4000354912
:100C200001EBC000B0F918203BA13C4809F03AFFA5
:100C30003A4809F0DFFFC2B22046611CCCB2344909
:100C40000A540819354909F0B1FF344809F0D2FFB8
:100C50002044C4B200222046611CCCB22C490A5464
:100C600002222046611CCCB229490A5400222046A7
:100C7000611CCCB226490A5405EBC50000EB4000CC
:100C80001C4901EBC000B0F9142023A1234809F04E
:100C900009FF224800E05FE109F0ACFFC2B2204644
:100CA000611CCCB21A490A5408191C4909F07EFF8C
:100CB0001A4809F09FFF2044C4B200222046611C5C
:100CC000CCB213490A5409222046611CCCB2104907
:100CD0000A5410222046611CCCB20D490A5401224C
:100CE0002046611CCCB20A490A5405EBC50017E046
:100CF00046E00000D06A00204D11002005000020D1
:100D0000F47100207413002002000020A060024053
:100D10006D1200200100002025640000B8100020A2
:100D200000EB4000904901EBC00042782046611C76
:100D3000CCB28E490A5400222046611CCCB28B49A9
:100D40000A540A222046611CCCB288490A54102257
:100D50002046611CCCB285490A5401222046611C00
:100D6000CCB282490A5405EBC50000EB40007E4935
:100D700001EBC00042782046611CCCB27B490A548A
:100D80006D1C042DFFF62BAFE7E0EE222046611C20
:100D9000CCB276490A54B1222046611CCCB27349C8
:100DA0000A5412222046611CCCB270490A54002217
:100DB0002046611CCCB26D490A5402222046611CB7
:100DC000CCB26A490A540025C2E005EBC50000EB2D
:100DD0004510674901EBC000C07800287ED0002292
:100DE0002046611CCCB261490A5401222146601C94
:100DF000C4B25E48425400222046611CCCB25B491A
:100E00000A5405EBC50000EB4510594901EBC00041
:100E1000C269AFF2FC01574809F044FE554809F099
:100E2000E9FEC2B22146641C5048425401464819AA
:100E3000504909F0BBFE4F4809F0DCFE2044C4B223
:100E400000222046611CCCB248490A5402222046A6
:100E5000611CCCB245490A5400222046611CCCB228
:100E600042490A5405EBC50000EB4510404A02EB2D
:100E7000C00090ED080A10EE101A08460CF026FE8D
:100E800041EC180B53EC182BAFF27411394809F0F0
:100E900009FE384809F0AEFEC2B22146641C334850
:100EA000425401464819334909F080FE314809F09F
:100EB000A1FE2044C4B200222046611CCCB22B49C2
:100EC0000A5409222046611CCCB228490A54102237
:100ED0002146601CC4B22548425400E037E001229C
:100EE0002046611CCCB221490A5405EBC50000EB39
:100EF00045101F4901EBC00042782046611CCCB26E
:100F00001A490A5400222046611CCCB217490A54DF
:100F100009222046611CCCB214490A5410222046F2
:100F2000611CCCB211490A5401222046611CCCB28A
:100F30000E490A5405EBC50000EB45100C4901EBC6
:100F4000C00042782146601CC4B2084842546D1C5F
:100F5000042DFFF63AAF00E000BF00BF2046FFF7C8
:100F6000C4FDBDEC028B70BDD06A00206D12002064
:100F7000F4710020B810002000B58BB001214806A4
:100F800006F009F80121084605F0D2FF09220B21DD
:100F9000FE4805F012FE09220C21FC4805F00DFE6A
:100FA00002208DF81C004FF4C050069006A9F748A7
:100FB00005F078FD00208DF826008DF827008DF8CB
:100FC00028008DF829008DF82A008DF82B008DF867
:100FD00022008DF8230008208DF8240003208DF8CE
:100FE0002500ADF8200008A9E94804F03AFE1420D5
:100FF0008DF8040003208DF8050000208DF8060010
:1010000001208DF8070001A804F0A7FD01208DF84C
:1010100012008DF8130000208DF8140046F2A00095
:10102000ADF8080046F2C000ADF80A0046F2E00054
:10103000ADF80C004FF4C240ADF80E000020ADF842
:10104000100001208DF8150002A804F094FE022083
:101050008DF8120001208DF8130000208DF8140087
:101060004FF4C840ADF8080046F22000ADF80A0081
:1010700046F24000ADF80C0046F26000ADF80E00FC
:101080000020ADF8100001208DF8150002A804F032
:1010900072FE03208DF8120001208DF8130000204D
:1010A0008DF814004FF4C040ADF808000020ADF8F2
:1010B0000A00ADF80C00ADF80E00ADF810000120EC
:1010C0008DF8150002A804F056FEB14804F0B0FDFA
:1010D00008A804F0D1FE01220221AD4805F04AF92A
:1010E0000BB000BD10B501F54072AA4B5C881B1D0A
:1010F00003EB04131A600423A64A5488121D02EB62
:1011000004121371A34A5288521C322392FBF3F447
:1011100003FB14229F4B5A8010BD70B505460E4646
:10112000144606F540709B494A88091D01EB0211DF
:101130000860082197484288001D00EB02100171E9
:10114000AA7A94494B88091D01EB0311481D05F14A
:101150000B0109F07AFD21788E484288001D00EBD2
:101160000210417261788B484288001D00EB02102A
:101170008172A17887484288001D00EB0210C1727D
:10118000E17884484288001D00EB02100173814819
:101190004088401C322190FBF1F201FB12007D4996
:1011A000488070BD30B585B00221794805F04AF914
:1011B00000287DD00221764805F0DFF9022174482D
:1011C00005F01DF96A460021714804F0B8FF009847
:1011D000C5B20098B0F5407F6BD19DF80B004D284B
:1011E00021D19DF80C004F281DD1002415E09DF859
:1011F0000F0000F0010004EBC40101EB4411664A4A
:1012000002F8310004EBC40000EB4410114611F861
:10121000300008B100204870641C042CE7DB29462C
:101220006846FFF75FFF9DF80B0053281ED19DF81D
:101230000C0054281AD1002412E004EBC40101EB85
:101240004411554A02EBC101896A00EE901AF8EE8A
:10125000E00AB0EE600AE0B2002102F0C1FA641CBC
:10126000042CEADB29466846FFF73CFF9DF80B009B
:10127000422815D19DF80C00472811D1002409E01F
:10128000012004EBC40101EB4411434A02EBC1010C
:101290004870641C042CF3DB29466846FFF722FFE4
:1012A0009DF80B0050281ED19DF80C00582801E035
:1012B000BAE159E017D1681CC5B2002411E004EB73
:1012C000C40101EB4411344A02EBC10101F12800D1
:1012D000324900F019FE314A29466846FFF71DFFE2
:1012E000641C042CEBDB9DF80B0056281BD19DF8E9
:1012F0000C00582817D1A81CC5B2002411E004EB3B
:10130000C40101EB4411244A02EBC10101F11C00AC
:10131000224900F0F9FD214A29466846FFF7FDFE03
:10132000641C042CEBDB9DF80B0049281BD19DF8B5
:101330000C00512817D1E81CC5B2002411E004EBC1
:10134000C40101EB4411144A02EBC10101F1180080
:10135000124900F0C5FD114A29466846FFF7DDFE37
:10136000641C042CEBDB00BF0098B0F5407F2CD947
:101370000098B0F5417F28D80098401EC5B29DF86E
:101380000B004A2821D19DF80C0009E00000024022
:1013900000640040F8600020F47100200800002084
:1013A000562812D1A1490DF10E0000F0D6FD9F483C
:1013B000016805EBC50000EB45109D4A02EBC0003B
:1013C000C16129466846FFF78DFE0098B0F5987F09
:1013D0007ED90098B0F59A7F7AD89DF80B005328F3
:1013E00014D19DF80C00542810D10098401FC5B2AC
:1013F000002005EBC50101EB45118D4A02EBC1014F
:101400004870202529466846FFF76CFE9DF80B00C2
:10141000422814D19DF80C00472810D10098401F95
:10142000C5B2002005EBC50101EB4511804A02EB76
:10143000C1014870202529466846FFF753FE9DF8F4
:101440000B00502826D19DF80C00582822D1009876
:10145000A0F23110C5B277490DF10F0000F07DFD0B
:10146000744890ED000AB8EEC00ADFED730A80EE12
:10147000201ABDEEC10A10EE100A00B205EBC5013C
:1014800001EB41016D4A02EBC101888029466846A3
:10149000FFF728FE9DF80B004D2819D19DF80C0090
:1014A0004F2815D10098A0F23110C5B29DF80F0059
:1014B00010B1012001E00BE0002005EBC50101EBBC
:1014C00041015E4A02F8310029466846FFF70AFEEC
:1014D0000098B0F5487F31D10098A0F54870C5B2AA
:1014E0009DF80B004D282AD19DF80C004F2826D1DD
:1014F00000201DE09DF8101009B1012100E000213D
:1015000000EBC00202EB42024C4B03F8321000EB3E
:10151000C00101EB41011A4612F8311039B900211E
:1015200000EBC00202EB420203EBC2025170401C0E
:101530000428DFDB29466846FFF7D4FD73E09DF8F9
:101540000B0053281ED19DF80C0050281AD10024FE
:1015500015E036490DF10F0000F0FFFC334800881C
:1015600081B204EBC40000EB4000344A02EBC0003F
:10157000A0F8461029466846FFF7B4FD641C042C09
:10158000E7DB50E09DF80B00502828D19DF80C00B7
:10159000582824D100201BE000EBC00101EB4101E1
:1015A000264A02EBC101898A642211FB02F1244A16
:1015B00011541146095C0A120DF10B0101F81020BB
:1015C0001F490B5C4100491C0DF10B025354401C98
:1015D0000428E1DB29466846FFF784FD23E000206C
:1015E0001BE000EBC00101EB4101144A02EBC10119
:1015F000898A642211FB02F1114A11541146095CD7
:101600000A120DF10B0101F810200D490B5C41008D
:10161000491C0DF10B025354401C0428E1DB294600
:101620006846FFF75FFD00BF05B030BD0C0000202D
:10163000F4710020100000200000C842D06A002091
:10164000080000201FB50121082005F0A4FC42F687
:10165000DF6002900B20ADF804000020ADF80C0014
:10166000ADF8060001A9594805F04DFE32208DF86D
:10167000000001208DF803008DF8010000208DF896
:101680000200684604F069FA0121504806F0F0FAB9
:10169000012211464D4806F0D7FA01214B4805F0CA
:1016A000BBFE1FBD70B50121484806F0E4FA0028D2
:1016B00077D00121454806F0EFFA002482E004EBE0
:1016C000C40000EB4410424911F83000002878D0E3
:1016D00004EBC40000EB441001EBC000407800288C
:1016E0006FD004EBC40000EB441001EBC000C078E5
:1016F0000A2864D2DFE800F044051633632F575BF5
:10170000635F04EBC40101EB4411314A02EBC101F8
:10171000D1ED010AB0EE600A611CC8B2002102F0EE
:10172000B0F94DE004EBC40202EB4412284B03EB8A
:10173000C202926804EBC40303EB4413244D05EB8F
:10174000C30393F83C3102FB03F1621CD0B20022C8
:1017500002F069FC34E0E0B202F0CDF830E004EBD6
:10176000C40101EB44111A4A02EBC101D1ED480A50
:10177000B0EE600A611CC8B2002102F099FE1FE0C1
:1017800004EBC40101EB4411114A02EBC101D1ED9C
:10179000040AB0EE600A611CC8B2002102F027FE04
:1017A0000EE012E00DE0E0B202F09AFC08E0E0B2D8
:1017B00002F03EFA04E0E0B202F0BBF900E000BF44
:1017C00000BF641C042CFFF67AAF70BD000C004013
:1017D000F471002000B58BB00121880605F0DBFB19
:1017E0000121022005F0A4FB09220521FE4805F095
:1017F000E4F909220621FC4805F0DFF902208DF802
:1018000018006020059005A9F74805F04BF9402025
:101810008DF8280002208DF8290000208DF82A007C
:1018200001208DF82B000AA804F097F941208DF8CB
:10183000280002208DF829008DF82A0001208DF85B
:101840002B000AA804F089F9E84804F0F1F907A888
:1018500004F012FB00208DF8220001208DF82300F7
:1018600000208DF824008DF825008DF826008DF8D5
:1018700027008DF81E008DF81F0008208DF820002D
:1018800003208DF82100ADF81C0007A9D74804F00B
:10189000E8F90E208DF80E0001208DF80F000020D1
:1018A0008DF8100044F22000ADF8040044F240002E
:1018B000ADF8060044F26000ADF808004FF4814036
:1018C000ADF80A000020ADF80C0001208DF81100E1
:1018D00001A804F050FA0F208DF80E0001208DF8B9
:1018E0000F0000208DF8100044F2A000ADF80400B5
:1018F00044F2C000ADF8060044F2E000ADF8080084
:101900004FF48240ADF80A000020ADF80C00012031
:101910008DF8110001A804F02EFA14208DF80E00A5
:1019200000208DF80F0001208DF810000020ADF888
:1019300004004FF49040ADF806004FF6FF70ADF88C
:1019400008000020ADF80A000120ADF80C008DF869
:10195000110001A804F00FFA19208DF80E000020E4
:101960008DF80F0001208DF810000020ADF8040064
:101970004FF4C040ADF806004FF6FF70ADF8080018
:101980004FF47840ADF80A000120ADF80C008DF856
:10199000110001A804F0EFF901221021934804F08E
:1019A000E9FC01220221914804F0E4FC0BB000BDE7
:1019B00010B586B002218D4804F044FD00287DD08A
:1019C00001AA0021894804F0BAFB0198B0F5007F14
:1019D0007ED90198B0F5027F7AD89DF80D000028D5
:1019E00076D10198401EC4B2814850F82400814944
:1019F00041F8240008F03EFE7D4941F824000846E5
:101A000050F824007B4951F82410401A7A4941F8D3
:101A100024009DF812109DF8110041EA002001B247
:101A200004EBC40000EB4000744A02EBC0000183E9
:101A30009DF810009DF80F1040EA012001B204EB60
:101A4000C40000EB400002EBC00001849DF81410BC
:101A50009DF8130041EA002001B204EBC40000EB42
:101A6000400002EBC000C1829DF8151004EBC400D9
:101A700000EB400002EBC0004184204601F02CF94D
:101A800004EBC40000EB40005C4901EBC00090F89F
:101A90003A00E0B9012104EBC40000EB4000574AD2
:101AA00002EBC00080F83A10002104EBC40000EB08
:101AB000400002EBC000A0F8581001E011E007E080
:101AC00004EBC40000EB400002EBC000C16100BFAA
:101AD0000221464804F051FD0221444804F08FFCE5
:101AE00000BF06B010BD10B586B010213F4804F00D
:101AF000A9FC002876D001AA01213C4804F01FFB74
:101B000010213A4804F039FD1021384804F077FCE0
:101B10009DF80C00042866D19DF80D000028FAD12C
:101B20000090029800F00F00401EC4B209210298F4
:101B3000B1EB102F27D169460DF10F0000F00DFA1F
:101B400004EBC40101EB44112D4A02EBC10191F8F1
:101B50003C1190FBF1F104EBC40000EB441002EBEC
:101B6000C000C1616946B2EE040A0DF10F0000F039
:101B70001AFA04EBC40000EB4410214901EBC00049
:101B800080ED060A25E10C210298B1EB102FF9D166
:101B900006A99FED1C0A0DF10F0000F004FA04EBFA
:101BA000C40000EB4410164901EBC00080ED080AA8
:101BB0000DF11601481E00F032F9BDF8151004EBC6
:101BC000C40000EB44100E4A02EBC000A0F8001164
:101BD00004EBC40000EB4410114601EBC000B0F868
:101BE000001111E002E100E1000402400068004041
:101BF000F8100020D810002018110020D06A002012
:101C0000F47100200000484204EBC40000EB4410D3
:101C100002EBC000B0F80201081A00B204EBC401E4
:101C200001EB441102EBC101A1F8FC0004EBC4007C
:101C300000EB4410114601EBC00090F8FE0088B1A3
:101C4000002104EBC40000EB441002EBC00080F85C
:101C5000FE10002004EBC40101EB441102EBC101B2
:101C6000A1F8FC0004EBC40000EB4410604901EB58
:101C7000C000B0F8001104EBC40000EB44105C4A53
:101C800002EBC000A0F8021104EBC40000EB44100A
:101C9000114601EBC000B0F9FC00002808DD04EBA0
:101CA000C40000EB441001EBC000B0F9FC0009E0F7
:101CB00004EBC40000EB44104D4901EBC000B0F947
:101CC000FC00404242F22831884226DD04EBC40089
:101CD00000EB4410464901EBC000B0F9FC1004EBE6
:101CE000C40000EB4410424A02EBC000B0F9FC0013
:101CF000002802DA4FF0FF3000E0012040F2654298
:101D00005043A1EB001000B204EBC40101EB4411FD
:101D1000374A02EBC101A1F8FC0004EBC40000EB60
:101D20004410334901EBC000B0F9FC00052190FBE1
:101D3000F1F104EBC40000EB44102D4A02EBC000AB
:101D4000806A014404EBC40000EB441002EBC000C5
:101D5000816204EBC40000EB4410114601EBC000AB
:101D6000416904EBC40000EB441002EBC000806A40
:101D7000091A04EBC40000EB441002EBC000C0F8E9
:101D80000C1104EBC40000EB4410114601EBC00041
:101D90004078F0B104EBC40000EB441001EBC0004C
:101DA00090ED080A04EBC40000EB441001EBC00006
:101DB00080ED410A04EBC40000EB441001EBC000CD
:101DC000816A04EBC40000EB441002EBC000C0F8D1
:101DD000081108F04FFC04EBC40101EB4411044A64
:101DE00002EBC101C1F8180100BF00BF06B010BD71
:101DF000F4710020012037494872704710B500F097
:101E000050FAFFF7F7FF02F05DFF03F07FF803F0F1
:101E10006BFE314802F0ACFF01F00AFB10BD00225E
:101E20000A7803780B700270704710B5082008F02C
:101E3000E3FD044600206060204610BD02460B46CC
:101E4000114605E00888984201D108467047496864
:101E50000029F7D10020F9E770B506460C46354653
:101E600000E06D6815B16868A042FAD14CB16068B5
:101E70006860204608F0EFFD18480078401E1749BA
:101E8000087070BD2DE9F041074688463C46414642
:101E90002046FFF7D3FF08B1BDE8F081002602E03D
:101EA0006468701CC6B20D480078B04201DD002C99
:101EB000F6D16CB1082008F09FFD0546A5F800801A
:101EC00060686860656005480078401C03490870D8
:101ED00000BFE1E738110020147700201400002033
:101EE00008B590ED000A8DED000ABDF800200A70DB
:101EF000BDF80020120A4A70BDF802208A70BDF8B1
:101F00000220120ACA7008BD08B502680092BDF826
:101F100000200A70BDF80020120A4A70BDF80220A5
:101F20008A70BDF80220120ACA7008BD30B50C0EC6
:101F300015686B1C13604455C1F3074415686B1C8E
:101F400013604455C1F3072415686B1C1360445596
:101F500015686B1C1360415530BD10B502460B6807
:101F6000D35C1C060B685B1CD35C44EA03440B681F
:101F70009B1CD35C44EA03230C68E41C145D43EA15
:101F800004000B681B1D0B6010BD10B502460B68EA
:101F90005B1CD35C0C68145D43EA042318B20B6825
:101FA0009B1C0B6010BD30B50446F0EE400A0D4698
:101FB00029462046FFF7E9FF00EE100AB8EEC01AE6
:101FC00081EE200A30BD00001FB50121022004F07F
:101FD000E2FF5C4802900520ADF804000020ADF857
:101FE0000600ADF80C001D208DF8000003208DF8D0
:101FF000010001208DF802008DF80300684603F00F
:10200000ACFD01A9504805F07EF9012211464E4869
:1020100005F01AFE01214C4805F0FEF91FBD70B510
:102020000121494805F027FE01287DD101214648BC
:1020300005F032FE002479E004EBC40000EB44100C
:10204000424901EBC00090F81001012830D104EBA7
:10205000C40000EB441011F8300048B308F00AFB4C
:1020600004EBC40101EB4411384A02EBC101D1F881
:102070001811411A04EBC40000EB441002EBC0003D
:10208000B0F81C01814213D904EBC40000EB4410EA
:10209000114601EBC00090F81401401CC1B204EBE2
:1020A000C40000EB441002EBC00080F8141109E0FA
:1020B000002104EBC40000EB4410244A02EBC000F2
:1020C00080F8141104EBC40000EB44101F4901EB2D
:1020D000C00090F8140114280ADD621C032343EAAF
:1020E000021242F480711A4A5068FFF7CBFE19E0E1
:1020F000002104EBC40000EB4410144A02EBC000C2
:1021000080F84210621C032343EA021242F48071F9
:102110000F4A5068FFF792FE05460D494868294668
:10212000FFF79AFE601C00E00AE0C4B2042C83DBD7
:10213000002403E0A0B201F023F8641C042CF9DBB6
:1021400070BD00005FAE0A0000040040F471002082
:1021500014000020014608884A88904201D10120DD
:1021600070470020FCE701464888401C322290FB63
:10217000F2F302FB13000A88904201D1012070475C
:102180000020FCE700203B49488008803A4948800D
:1021900008803A494880088039494880088070475B
:1021A00030B585B005460C462046FFF7D3FF08B191
:1021B00005B030BD2188201D00EB0110006800F043
:1021C0007040F8B104208DF808002188201D00EB34
:1021D0000110006820F0704001902188201D00EB64
:1021E000011000798DF80A0000208DF809009DF893
:1021F0000A202388201D00EB0310411D0DF10B0068
:1022000008F023FD1F48854217D102221B491E48B2
:1022100002F0CDFB2188201D00EB0110407B38B976
:102220002088401C322190FBF1F201FB120020803B
:102230006946144803F08EFE1AE01448854217D10F
:1022400001220C49124802F0B2FB0A480188001D25
:1022500000EB0110407B38B92088401C322190FBF4
:10226000F1F201FB120020806946084803F072FE7B
:1022700000BF9DE7F86000201C640020D45D0020B2
:102280004067002000680040E01300200064004028
:10229000A02D0020002239210A54C2610021818230
:1022A000704710B52DED0E8B4FF40050FE4908809D
:1022B0009FEDFE0B084680ED040B9FEDFE0A80EDBE
:1022C000010A43F6991008814FF40050FA4908803A
:1022D0009FEDFA0A084680ED010A42F22830088193
:1022E0009FEDF70B084680ED040B0020F6490870BF
:1022F0009FEDF60A084680ED010A0120087244F6B7
:102300002C404881012008734FF4FA6008824FF690
:10231000E040C881012088742820ED49888300208E
:1023200048604FF47A70C8831822E349E94808F0FE
:10233000D1FC0020E749703908704870052088708A
:102340003221E4487038C1800020E2497039888029
:102350006421E048703801811422DB493C3008F0E8
:10236000B9FCDC487038B0F90810DFEDDB1A9FEDDE
:10237000DB1ADFEDDB0AB0EE0C0AB03002F0D2FB64
:10238000D4487038C168F7EE001A9FEDD61ADFED19
:10239000D60AB1EE040A883002F0C4FB1822C649FE
:1023A000CC48D83008F096FC0020CA49703981F832
:1023B000D8000021C748703880F8D910052180F86E
:1023C000DA103221A0F8DE100021A0F8DC10642120
:1023D000A0F8E0101422BC4900F58A7008F07AFCDD
:1023E000BC487038B0F9E010DFEDBB1A9FEDBB1AA6
:1023F000DFEDBB0AB0EE0C0A00F5C47002F092FBF0
:10240000B4487038D0F8E410F7EE001A9FEDB51A12
:10241000DFEDB50AB1EE040A00F5B07002F082FB00
:102420001822A549B14808F055FC0020A949703987
:1024300081F8B0010021A748703880F8B11105215A
:1024400080F8B2113221A0F8B6110021A0F8B41121
:102450006421A0F8B81114229B4900F5F67008F029
:1024600039FC9C487038B0F9B811DFED9B1A9FED2C
:102470009B1ADFED9B0AB0EE0C0A00F5187002F013
:1024800051FB94487038D0F8BC11F7EE001A9FED5C
:10249000951ADFED950AB1EE040A00F50E7002F010
:1024A00041FB182284499148D83008F013FC0020E1
:1024B0008849703981F8880200218648703880F890
:1024C0008912052180F88A123221A0F88E1200218B
:1024D000A0F88C124FF47A71A0F8901214227A4965
:1024E00000F5317008F0F6FB7A487038B0F99012B8
:1024F000DFED791A9FED791ADFED790AB0EE0C0A5B
:1025000000F54E7002F00EFB72487038D0F894124D
:10251000F7EE001A9FED731ADFED730AB1EE040AAD
:1025200000F5447002F0FEFA002400E104EBC40060
:1025300000EB40006749703901EBC000644909684D
:1025400001656348416804EBC40000EB4000614A48
:10255000703A02EBC000416504EBC40101EB41019C
:1025600002EBC10101F1580018225949083108F065
:10257000B1FB04EBC40101EB4101564A703A02EB96
:10258000C101B1F870000BF033F841EC1A0B04EB09
:10259000C40000EB40004F4A703A02EBC00090EDDF
:1025A0001D0A10EE101A08460BF090FA41EC1C0BB5
:1025B00004EBC40000EB4000464A703A02EBC00056
:1025C00090ED100A10EE101A08460BF07FFA41EC5D
:1025D0001E0B04EBC40000EB40003E49703901EBD8
:1025E000C00090ED201BB0EE410AF0EE610A53EC02
:1025F000102B51EC1E0B0BF04BF853EC1C2B0BF07B
:1026000047F853EC1A2B0BF043F89FED390B53ECC2
:10261000102B0AF0E5FD0AF0A7FF04EBC40101EB63
:1026200041012C4A703A02EBC101086504EBC40178
:1026300001EB410102EBC101B1F870000AF0D8FFD3
:1026400041EC1A0B04EBC40000EB4000214A703A45
:1026500002EBC00090ED1D0A10EE101A08460BF0B8
:1026600035FA41EC1C0B04EBC40101EB4101194AA2
:10267000703A02EBC101B1F904000AF0A2FF41EC8B
:102680001E0B04EBC40000EB40001249703901EB53
:10269000C00090ED201BB0EE410AF0EE610A53EC51
:1026A000102B51EC1E0B27E0A06A002000000080D8
:1026B00087870F409A999941B86A0020000010421C
:1026C000000000000000F03F886A00200000E144A4
:1026D000686A0020406B0020CDCCCC3E000000009A
:1026E0008FC2F53DCDCC4C3E9A99993EF06C0020BE
:1026F00000000000008076400AF0CAFF53EC1C2B5B
:102700000AF0C6FF53EC1A2B0AF0C2FF1FED080BAC
:1027100053EC102B0AF064FD0AF0F6FE04EBC40142
:1027200001EB4101FE4A02EBC101C860641C042CAC
:10273000FFF6FCAE002314E003EBC30101EB410103
:10274000F74A02EBC100FFF7A5FD44F62C4103EB6D
:10275000C30000EB4000F24A02EBC000A0F84610B4
:102760005B1C042BE8DBBDEC0E8B10BD10B50446E2
:1027700004EBC40000EB4000E94901EBC000D0EDE0
:10278000260A04EBC40000EB400001EBC000B0F9E6
:10279000080000EE100AB8EEC00A20EE800ABDEE76
:1027A000C00A10EE100A04EBC40101EB4101DC4A3F
:1027B00002EBC101C1F8B00004EBC40000EB400023
:1027C000114601EBC000B0F9181004EBC40000EB97
:1027D000400002EBC000C0F8C81004EBC40101EBDC
:1027E000410102EBC10101F1B00002F0B4F904EBC8
:1027F000C40000EB4000CA4901EBC000C18804EBF3
:10280000C40000EB4000C64A02EBC000D0F8C40090
:10281000084401B204EBC40000EB400002EBC0002E
:10282000C18010BD10B5044604EBC40000EB4000AD
:10283000BB4901EBC000B0F94A0004EBC40101EB55
:102840004101B74A02EBC101C1F8B00004EBC4007A
:1028500000EB4000114601EBC000B0F9181004EB8A
:10286000C40000EB400002EBC000C0F8C81004EB4D
:10287000C40101EB410102EBC10101F1B00002F022
:102880006AF904EBC40000EB4000A54901EBC0006D
:10289000C18804EBC40000EB4000A14A02EBC00079
:1028A000D0F8C400084401B204EBC40000EB4000BF
:1028B00002EBC000C18004EBC40000EB40001146F5
:1028C00001EBC000B0F8580090BB04EBC40000EB73
:1028D000400001EBC000C069002807DD04EBC40024
:1028E00000EB400001EBC000C06908E004EBC4004D
:1028F00000EB40008A4901EBC000C069404240F64D
:10290000C411884215DD04EBC40000EB400084498B
:1029100001EBC000B0F86000401C81B204EBC400C1
:1029200000EB40007E4A02EBC000A0F860100AE015
:10293000FFE7002104EBC40000EB4000784A02EB03
:10294000C000A0F8601004EBC40000EB4000744924
:1029500001EBC000B0F86000322839DD002104EB43
:10296000C40000EB40006E4A02EBC000A0F860100B
:10297000002004EBC40101EB410102EBC10188829C
:10298000002104EBC40000EB400002EBC000C16179
:10299000052004EBC40101EB410102EBC101887089
:1029A000012104EBC40000EB400002EBC00080F802
:1029B0003510002004EBC40101EB410102EBC10121
:1029C0008880012004EBC40101EB410102F83100D1
:1029D00010BD10B52DED0E8B044604EBC40101EBC8
:1029E00041014F4A02EBC101B1F870000AF000FE4C
:1029F00041EC1A0B04EBC40000EB4000484A02EB28
:102A0000C00090ED1D0A10EE101A08460BF05EF89B
:102A100041EC1C0B04EBC40101EB4101404A02EB09
:102A2000C101B1F904000AF0CCFD41EC1E0B04EB2E
:102A3000C40000EB40003A4901EBC00090ED201BC0
:102A4000B0EE410AF0EE610A53EC102B51EC1E0B74
:102A50000AF01EFE53EC1C2B0AF01AFE53EC1A2B44
:102A60000AF016FE1FEDDE0B53EC102B0AF0B8FB3C
:102A70000AF04AFD04EBC40101EB4101284A02EBD4
:102A8000C101C86004EBC40000EB4000114601EB3B
:102A9000C000C06804EBC40101EB410102EBC101BD
:102AA000C1F8880004EBC40000EB4000114601EBC4
:102AB000C000407870B904EBC40000EB400001EBAB
:102AC000C000406D04EBC40101EB410102EBC10108
:102AD000C1F8880004EBC40000EB4000104901EB92
:102AE000C000C16904EBC40000EB40000C4A02EBDB
:102AF000C000C0F8A01004EBC40101EB410102EBDF
:102B0000C10101F1880002F026F804EBC40000EBDB
:102B10004000034901EBC000D0ED260A02E00000AE
:102B2000D06A002004EBC40000EB400001EBC000C1
:102B3000D0F89C0000EE100AB8EEC00A20EE800A21
:102B4000BDEEC00A10EE100A04EBC40101EB410116
:102B5000FE4A02EBC101C1F8B00004EBC40000EB77
:102B60004000114601EBC00090F84400A8B304EB0C
:102B7000C40000EB400001EBC000D0F8B00000281A
:102B800008DD04EBC40000EB400001EBC000D0F80E
:102B9000B00009E004EBC40000EB4000EB4901EB9E
:102BA000C000D0F8B000404204EBC40101EB410189
:102BB000E64A02EBC101B1F84610884221DD04EB80
:102BC000C40000EB4000114601EBC000D0F8B0009B
:102BD000002803DA4FF0FF3001E012E0012004EB9F
:102BE000C40101EB4101D94A02EBC101B1F8461021
:102BF000484304EBC40101EB410102EBC101C1F800
:102C0000B00004EBC40000EB4000D04901EBC00071
:102C1000B0F9181004EBC40000EB4000CB4A02EB03
:102C2000C000C0F8C81004EBC40101EB410102EB85
:102C3000C10101F1B00001F08EFF04EBC40000EB14
:102C40004000C24901EBC000C18804EBC40000EBA6
:102C50004000BE4A02EBC000D0F8C400084401B2F4
:102C600004EBC40000EB400002EBC000C18004EBA9
:102C7000C40000EB4000114601EBC000C06D00280D
:102C800007DD04EBC40000EB400001EBC000C06DA9
:102C900008E004EBC40000EB4000AC4901EBC000CD
:102CA000C06D4042B4280ADA012004EBC40101EBF4
:102CB0004101A64A02EBC10181F8340009E000207D
:102CC00004EBC40101EB4101A04A02EBC10181F810
:102CD0003400BDEC0E8B10BD70B52DED088B044695
:102CE00004EBC40000EB4000984901EBC000018CEC
:102CF00004EBC40000EB4000944A02EBC000008EDD
:102D0000081A01B204EBC40000EB400002EBC00063
:102D1000A0F8581004EBC40000EB4000114601EB92
:102D2000C000808A04EBC40101EB410102EBC10148
:102D3000888404EBC40000EB4000114601EBC000A6
:102D4000C18A04EBC40000EB400002EBC000C18468
:102D500004EBC40000EB4000114601EBC000018B06
:102D600004EBC40000EB400002EBC000018504EB63
:102D7000C40000EB4000114601EBC000C16904EB48
:102D8000C40000EB400002EBC000C16204EBC400D1
:102D900000EB4000114601EBC000018C04EBC400C5
:102DA00000EB400002EBC000018604EBC40000EB26
:102DB0004000114601EBC000418C04EBC40000EB65
:102DC000400002EBC000418604EBC40000EB400071
:102DD000114601EBC000B0F95800002808DD04EBF3
:102DE000C40000EB400001EBC000B0F9580009E05E
:102DF00004EBC40000EB4000544901EBC000B0F903
:102E00005800404241F2360188422CDD04EBC400F8
:102E100000EB40004D4901EBC000B0F9581004EB45
:102E2000C40000EB4000494A02EBC000B0F9580072
:102E3000002802DA4FF0FF3000E0012004EBC4026A
:102E400002EB4202414B03EBC202B2F8702000FBDE
:102E5000121001B204EBC40000EB40001A4602EB72
:102E6000C000A0F8581004EBC40000EB4000374944
:102E700001EBC000C16904EBC40000EB4000334A21
:102E800002EBC000B0F95800014404EBC40000EBB1
:102E9000400002EBC000C16104EBC40000EB400045
:102EA000114601EBC000C16804EBC40000EB400018
:102EB00002EBC000C069091A04EBC40000EB40003B
:102EC00002EBC000C16504EBC40101EB410102EB60
:102ED000C101B1F870000AF08BFB41EC190B04EB57
:102EE000C40000EB4000194901EBC000C06900EECE
:102EF000100AB8EEC00ADFED160A20EE200A04EB35
:102F0000C40000EB400001EBC000D0ED1D0A80EED4
:102F1000201A11EE105A28460AF0D8FD41EC1B0B7E
:102F200004EBC40000EB4000084901EBC00090ED49
:102F3000201BB0EE410AF0EE610A53EC102B51EC6D
:102F40001B0B0AF04DF953EC192B03E0D06A00205B
:102F50000000B4430AF044F90AF0D6FA00B204EBD8
:102F6000C40101EB4101FE4A02EBC101888204EB7E
:102F7000C40000EB4000114601EBC000407868B18E
:102F800004EBC40000EB400001EBC000C16904EB9E
:102F9000C40000EB400002EBC000416504EBC4003C
:102FA00000EB4000EE4901EBC00090F8390040B161
:102FB00004EBC40101EB4101E94A02EBC100FFF758
:102FC00069F9BDEC088B70BD014601EBC10000EB57
:102FD0004000E34A12F8300008B901207047E14888
:102FE000807C00287DD001EBC10000EB4000DC4A72
:102FF00002EBC0008078052873D101EBC10000EB23
:10300000400002EBC000C26901EBC10000EB4000D0
:10301000D34B03EBC000C06A101A002810DD01EB8F
:10302000C10000EB40001A4602EBC000C26901EB90
:10303000C10000EB400003EBC000C06A101A10E0B2
:1030400001EBC10000EB4000C54A02EBC000C26AC0
:1030500001EBC10000EB4000C14B03EBC000C069B5
:10306000101AC8283DDA01EBC10000EB4000BC4A51
:1030700002EBC000B0F91800002808DD01EBC10028
:1030800000EB400002EBC000B0F9180009E001EBD2
:10309000C10000EB4000B24A02EBC000B0F91800DA
:1030A000404264281EDA01EBC10000EB4000AC4A4C
:1030B00002EBC00090F83400A0B901EBC10000EBB6
:1030C000400002EBC000B0F86200401C82B201EB8D
:1030D000C10000EB4000A24B03EBC000A0F862204F
:1030E0000AE04BE0002201EBC10000EB40009C4BEA
:1030F00003EBC000A0F8622001EBC10000EB400030
:10310000974A02EBC000B0F8622001EBC10000EB6F
:103110004000934B03EBC000B0F86E00824209DD23
:10312000012201EBC10000EB400003EBC00080F87E
:10313000362009E0002201EBC10000EB4000884B83
:1031400003EBC00080F8362001EBC10000EB40002B
:10315000834A02EBC00090F8360001280CD100022F
:10316000814A1083002001EBC10202EB42027C4B3A
:1031700003F83200012031E700202FE700202DE77F
:1031800010B5044604EBC40000EB4000744911F88C
:10319000300001285ED104EBC40000EB400001EBDD
:1031A000C00090F84F00E8B307F064FA6F4951F897
:1031B0002410401A40F2DC51884214D304EBC400BE
:1031C00000EB4000664901EBC00090F86400401C31
:1031D000C1B204EBC40000EB4000614A02EBC00046
:1031E00080F8641009E0002104EBC40000EB40000B
:1031F0005B4A02EBC00080F8641004EBC40000EBF3
:103200004000574901EBC00090F8641004EBC40083
:1032100000EB4000524A02EBC000B0F86C00814263
:103220000EDD00E016E0012104EBC40000EB4000DD
:1032300002EBC00080F8371010204B49488309E0AA
:10324000002104EBC40000EB4000454A02EBC00043
:1032500080F8371010BD2DE9F04186B004460D46C8
:1032600016461F464FF4007800208DF80C008DF8AC
:103270000D0008208DF80E00CDF804803848007845
:10328000012805D1200A8DF80F008DF8104005E0C7
:1032900000208DF80F0000218DF81010304890F8B4
:1032A000D800012805D1290A8DF811108DF8125087
:1032B00004E000218DF811108DF81210284890F8C4
:1032C000B001012805D1310A8DF813108DF8146072
:1032D00004E000218DF813108DF81410204890F8A8
:1032E0008802012805D1390A8DF815108DF816705D
:1032F00004E000218DF815108DF8161001A91C4866
:1033000002F028FE06B0BDE8F081002056E000EB98
:10331000C00101EB4101124A02EBC101B1F90610F3
:10332000002908DD00EBC00101EB410102EBC10106
:10333000B1F9061009E000EBC00101EB4101084AB8
:1033400002EBC101B1F90610494200EBC00202EBE9
:103350004202034B03EBC202B2F87820914209E02B
:10336000D06A0020886A002000000240D8100020A7
:103370000068004020DD00EBC00101EB41011A466E
:1033800002EBC101B1F90610002902DA4FF0FF315A
:1033900000E0012100EBC00202EB42021E4B03EBF6
:1033A000C202B2F8782051430AB200EBC00101EB2F
:1033B000410103EBC101CA80411CC8B20828A6DB49
:1033C0007047002025E01549097800EBC00202EBA8
:1033D0004202114B03EBC20251701049497800EBD5
:1033E000C00202EB420203F832100C494A8800EB9B
:1033F000C00101EB410103EBC1010A810749898842
:1034000000EBC00202EB420203EBC2029180411CBE
:10341000C8B20428D7DB7047D06A00201C00002007
:103420004121095C19B1002241210A54826270478E
:1034300070B50720FE4908709FEDFE0A084680ED32
:10344000010A42F2107088600C20FB49087042F2B9
:10345000107088601520F9490870B2EE040A084619
:1034600080ED010A4FF47A7088600020F4490872F8
:1034700047F23050C8600120087441F2883048613A
:10348000B3EE0E0A084680ED010A6420ED49488437
:103490000120EB490876EB4988700020EA49087062
:1034A00048704880E948E24B0ECB3C300EC000200B
:1034B000E74908704870C8709FEDE60A084680ED3D
:1034C000010A002181609FEDE30A80ED040A416159
:1034D0004169F7EE001A9FEDE01ADFEDE00A9FED7B
:1034E000E00A443001F01EFBD9488168F7EE001A6B
:1034F000B7EE001ADFEDDB0A9FEDDB0A6C3001F05E
:1035000011FBDFEDDA1A9FEDDA1ADFEDD20A9FED3B
:10351000D90ACE486C3801F015FBDFEDD41A9FEDC7
:10352000D61ADFEDD60A9FEDCF0AC848383801F029
:1035300009FBD348BE4B0ECB3C300EC00020C44923
:1035400081F848010021C24880F8491180F84B11E8
:103550009FEDC00A80ED530AC0F850119FEDBD0ADF
:1035600080ED560AC0F85C114169F7EE001A9FED34
:10357000BA1ADFEDBA0A9FEDBA0A00F5C67001F07B
:10358000D1FAB3488168F7EE001AB7EE001ADFED02
:10359000B50A9FEDB50A00F5DA7001F0C3FADFED68
:1035A000B31A9FEDB31ADFEDAB0A9FEDB20AB44830
:1035B0006C3801F0C7FADFEDAD1A9FEDAF1ADFED01
:1035C000AF0A9FEDA80AAE48383801F0BBFAAD4803
:1035D000974B0ECB3C300EC000209D4981F89002E5
:1035E00000219B4880F8911280F893129FED990A70
:1035F00080EDA50AC0F898129FED960A80EDA80A02
:10360000C0F8A4124169F7EE001A9FED931ADFED9E
:10361000930A9FED930A00F5357001F083FA8C4808
:103620008168F7EE001AB7EE001ADFED8E0A9FED03
:103630008E0A00F53F7001F075FADFED8C1A9FEDF0
:103640008C1ADFED840A9FED8B0A8E486C3801F0EE
:1036500079FADFED861A9FED881ADFED880A9FED73
:10366000810A8848383801F06DFA8748704B0ECBD4
:103670003C300EC00020764981F8D8030021744800
:1036800080F8D91380F8DB139FED720A80EDF70AFA
:10369000C0F8E0139FED6F0A80EDFA0AC0F8EC1352
:1036A0004169F7EE001A9FED6C1ADFED6C0A9FED91
:1036B0006C0A00F21C4001F035FA65488168F7EEAB
:1036C000001AB7EE001ADFED670A9FED670A00F2F5
:1036D000444001F027FADFED651A9FED651ADFED32
:1036E0005D0A9FED640A68486C3801F02BFADFED43
:1036F0005F1A9FED611ADFED610A9FED5A0A624879
:10370000383801F01FFA002467E004EBC40101EB34
:1037100044114F4A02EBC100FFF782FE04EBC401E3
:1037200001EB44114A4A02EBC10101F590701C22E1
:10373000434907F0CFFA4348008804EBC40101EB8A
:103740004411434A02EBC101A1F8FC0004EBC400A0
:1037500000EB4410114601EBC0003A494988A0F83B
:10376000FE103848818804EBC40000EB441002EBE3
:10377000C000A0F800113348C18804EBC40000EB7E
:10378000441002EBC000A0F8021104EBC40000EBEF
:103790004410114601EBC000FC302A4A9168D268FF
:1037A000C0E902122748016904EBC40000EB441091
:1037B000274A02EBC000C0F80C1104EBC40000EB78
:1037C0004410114601EBC000FC301E4D6969AA6926
:1037D000EB692D6A14302EC0641C042C95DB70BD7F
:1037E00030B52DED028B81B00446B0EE408A0D4617
:1037F000002000909FED250A28EE000ABDEEC00AC9
:1038000010EE101A224A5388121D02EB0312501DAB
:103810006A46FEF78BFB44F0704040F480611C4820
:103820004288001D00EB021001600098C1B231E037
:1038300090710020000070429C710020A87100204F
:10384000B4710020D071002024000020F472002008
:10385000F471002000000000713D0A3F0AD7233FA9
:103860008FC275406F12833A4260E53BCDCC4C3E2F
:1038700017B7D1398FC2F53CBD37863517B7D13868
:103880003C74002084750020CC760020002474490C
:103890001C640020F7484288001D00EB02100171F3
:1038A000F4484188001D00EB01104573F148408841
:1038B000401C322190FBF1F201FB1200ED494880DF
:1038C0000121601E00EBC00202EB4010EA4A02EB4D
:1038D000C00080F8101106F0CDFE611E01EBC102A0
:1038E00002EB4111E44A02EBC101C1F8180101B039
:1038F000BDEC028B30BD10B5044604EBC40000EBF8
:103900004410DD4901EBC000D0F80C01002802DAB8
:103910004FF0FF3100E0012104EBC40000EB441044
:10392000D54A02EBC000C069002802DA4FF0FF3030
:1039300000E00120814205D19FEDD00AD04880ED02
:10394000000A04E09FEDCF0ACD4880ED000A04EBA9
:10395000C40000EB4410C84901EBC000D0F80C01D2
:10396000002808DD04EBC40000EB441001EBC000AC
:10397000D0F80C0109E004EBC40000EB4410BE4990
:1039800001EBC000D0F80C01404200EE100AB8EE86
:10399000C00ABB48D0ED000AB2EE041A60EE810AFC
:1039A000B4EEE00AF1EE10FA29DD04EBC40000EBFE
:1039B0004410B14901EBC00090ED080A04EBC400CB
:1039C00000EB441001EBC000D0F80C01002802DA33
:1039D0004FF0FF3000E0012000EE900AF8EEE00A20
:1039E000A74890ED001A00EE810A04EBC40000EB3A
:1039F0004410A14901EBC00080ED030A25E004EB6F
:103A0000C40000EB44109C4901EBC000D0F80C014D
:103A100000EE900AF8EEE00AB2EE041AC0EE811A47
:103A2000B0EE610A04EBC40000EB441001EBC000EF
:103A3000D0ED080A70EE800A04EBC40000EB4410DD
:103A400001EBC000C0ED030A00BF04EBC40101EBB1
:103A50004411894A02EBC10101F10C0001F013FB92
:103A600004EBC40101EB4411834A02EBC101D1ED27
:103A7000030AB0EE600A611CC8B20021FFF7B0FE75
:103A800010BD30B52DED028B81B00446B0EE408AFA
:103A90000D46002000909FED7C0A28EE000ABDEE46
:103AA000C00A10EE101A734A5388121D02EB03125B
:103AB000501D6A46FEF73AFA44F0704040F48071B7
:103AC0006C484288001D00EB021001600098C1B2F2
:103AD00068484288001D00EB02100171654841886A
:103AE000001D00EB0110457362484088401C3221E4
:103AF00090FBF1F201FB12005E4948800121601E3B
:103B000000EBC00202EB40105B4A02EBC00080F801
:103B1000101106F0AFFD611E01EBC10202EB411175
:103B2000554A02EBC101C1F8180101B0BDEC028B8E
:103B300030BD70B5044604EBC40202EB44124E4B98
:103B400003EBC202D2F8441104EBC40202EB4412AC
:103B500003EBC20202F1080001F019FB04EBC40000
:103B600000EB4410444901EBC000816804EBC40041
:103B700000EB4410404A02EBC000C0F8F81004EB20
:103B8000C40303EB4413154605EBC303DA6904EBE6
:103B9000C40303EB441305EBC303996804EBC403AC
:103BA00003EB441305EBC30303F1C80001F004F871
:103BB00004EBC40000EB4410294601EBC00090ED7B
:103BC0003A0A04EBC40000EB441001EBC000D0ED56
:103BD000500A20EE200A04EBC40000EB441001EB75
:103BE000C00080ED010A04EBC40101EB44112A4638
:103BF00002EBC101D1ED490AB0EE600A04EBC40149
:103C000001EB441102EBC101081D01F0A4FA04EB21
:103C1000C40101EB44112A4602EBC101D1ED010AB6
:103C2000B0EE600A611CC8B20021FFF72AFF70BD28
:103C300010B52DED048B82B0044604EBC40000EBFC
:103C400044100D4901EBC000D0F80C01002802DA45
:103C50004FF0FF3100E0012104EBC40000EB441001
:103C6000054A02EBC000C06900280FDA4FF0FF30B0
:103C70000DE000001C640020F471002000002A43C5
:103C80002C0000200000B44200007A440120814250
:103C900005D11FED060AFE4880ED000A04E01FED85
:103CA000070AFB4880ED000A04EBC40000EB441057
:103CB000F84901EBC000D0F80C01002808DD04EB46
:103CC000C40000EB441001EBC000D0F80C0109E087
:103CD00004EBC40000EB4410EE4901EBC000D0F847
:103CE0000C01404200EE100AB8EEC00AE848D0EDE0
:103CF000000AB2EE041A60EE810AB4EEE00AF1EEB8
:103D000010FA29DD04EBC40000EB4410E14901EB9B
:103D1000C00090ED080A04EBC40000EB441001EB76
:103D2000C000D0F80C01002802DA4FF0FF3000E0AC
:103D3000012000EE900AF8EEE00AD54890ED001A56
:103D400000EE810A04EBC40000EB4410D14901EB02
:103D5000C00080ED030A25E004EBC40000EB441032
:103D6000CC4901EBC000D0F80C0100EE900AF8EE4F
:103D7000E00AB2EE041AC0EE811AB0EE610A04EB5A
:103D8000C40000EB441001EBC000D0ED080A70EE57
:103D9000800A04EBC40000EB441001EBC000C0ED4E
:103DA000030A00BF04EBC40101EB4411B94A02EB62
:103DB000C10101F10C0001F066F904EBC40000EB55
:103DC0004410B44901EBC00090ED081AF0EE410A2E
:103DD00004EBC40000EB441001EBC00090ED031AAB
:103DE000B0EE410A01F038FAB0EE408A04EBC400AC
:103DF00000EB4410A74901EBC000807818B1B1EE88
:103E0000480AB0EE408A04EBC40000EB4410A1491C
:103E100001EBC00090ED250A20EE080A8DED010AA5
:103E200004EBC40000EB441001EBC00090ED260A47
:103E30009948D0ED000A60EE200A984890ED000AFB
:103E400008EE200A80ED000A954890ED000A92489D
:103E5000D0ED000A30EE200A914880ED000A91482A
:103E600090ED000AB4EE408AF1EE10FA02D1DFEDD7
:103E70008E8A19E004EBC40000EB4410854901EB85
:103E8000C000D0ED270A864890ED001A80EE810A26
:103E90008448D0ED000A78EE600A60EE208A9FED3B
:103EA000820A7F4880ED000A04EBC40000EB441056
:103EB000784901EBC000D0ED290A7C4890ED000A5A
:103EC00030EE681A90ED000A00EEC10A80ED000A9B
:103ED00090ED000AF0EE408AB7EE000A01A801F06A
:103EE0003AF99DED010AB0EEC00AF7EE000A30EE95
:103EF000C00AB0EE409A694801F02DF9694880ED9A
:103F0000008A9DED010A6548D0ED000A30EE200AD6
:103F100030EE280A8DED000AF7EE000ABFEE000A27
:103F2000684601F0F1F804EBC40000EB4410594975
:103F300001EBC00090ED500ADDED000A20EE200AF2
:103F400004EBC40000EB441001EBC00080ED010A5B
:103F500004EBC40000EB441001EBC00090ED010A3B
:103F6000B5EEC00AF1EE10FA08DD04EBC40000EB78
:103F7000441001EBC00090ED010A0AE004EBC4001C
:103F800000EB4410434901EBC00090ED010AB1EE93
:103F9000400A04EBC40000EB44103E4901EBC000B2
:103FA000D0ED490AB4EEE00AF1EE10FA27DD04EB99
:103FB000C40000EB441001EBC00090ED010AB5EE27
:103FC000C00AF1EE10FA02D24FF0FF3000E00120FB
:103FD00000EE100AB8EEC00A04EBC40000EB441077
:103FE0002C4901EBC000D0ED490A20EE200A04EB79
:103FF000C40000EB441001EBC00080ED010A04EBAB
:10400000C40101EB4411234A02EBC101D1ED010AC5
:10401000B0EE600A611CC8B20021FFF732FD02B0A9
:10402000BDEC048B10BDF8B504460E4615460020C5
:1040300000901F494A88091D01EB0211481D6A467C
:104040003146FDF773FF44F0704040F4407118486A
:104050004288001D00EB021001600098C1B21448B4
:104060004288001D00EB0210017111484188001DBB
:1040700000EB011045730E484088401C322190FB34
:10408000F1F201FB12000A4948800121601E11E093
:104090002C000020F47100203000002034000020AB
:1040A0003C000020380000200000000040000020FC
:1040B0001C64002000EBC00202EB4010F74A02EB48
:1040C000C00080F8101106F0D5FA611E01EBC102A4
:1040D00002EB4111F14A02EBC101C1F81801F8BD30
:1040E00070B52DED048B044604EBC40000EB4410C6
:1040F000EA4901EBC000406904EBC40101EB441143
:10410000E64A02EBC101486404EBC40000EB441032
:10411000114601EBC000407870B904EBC40000EB1D
:10412000441001EBC000D0F8080104EBC40101EB1E
:10413000441102EBC101486404EBC40000EB4410DD
:10414000D64901EBC00090F8280168B3D448D0F8F4
:104150008800002803DDD248D0F8880003E0D0486A
:10416000D0F88800404204EBC40101EB4411CB4A73
:1041700002EBC101D1F82C11884215DDC848D0F8F6
:104180008800002802DA4FF0FF3000E0012004EB45
:10419000C40101EB4411C14A02EBC101D1F82C1159
:1041A0004843BF49C1F8880004EBC40000EB441049
:1041B000BA4901EBC000816A04EBC40000EB441073
:1041C000B64A02EBC000C16504EBC40101EB441127
:1041D00002EBC10101F1440000F0BDFC04EBC4019D
:1041E00001EB4411AD4A02EBC101886D09F0E9F918
:1041F00041EC190BB0EE490AF0EE690AA94800F04B
:10420000C0FDB0EE408AF0EE608A51EC180B09F068
:104210007BF904EBC40101EB4411A04A02EBC1019C
:104220008865104690F83001C8B304EBC40000EB79
:104230004410114601EBC000806D002807DD04EB3F
:10424000C40000EB441001EBC000806D08E004EBFB
:10425000C40000EB4410914901EBC000806D404266
:104260008E49D1F83411884219DD04EBC40000EB0B
:1042700044108A4901EBC000806D002802DA4FF03B
:10428000FF3000E001208549D1F83411484304EBA8
:10429000C40101EB4411814A02EBC101886504EBC2
:1042A000C40000EB44107D4901EBC000D0F80C01C4
:1042B000002808DD04EBC40000EB441001EBC00053
:1042C000D0F80C0109E004EBC40000EB4410734982
:1042D00001EBC000D0F80C0140423C280ADA012171
:1042E00004EBC40000EB44106C4A02EBC00080F801
:1042F000431009E0002104EBC40000EB4410674ABE
:1043000002EBC00080F8431004EBC40202EB44123D
:10431000624B03EBC202926D04EBC40303EB441344
:104320005E4D05EBC30393F83C3102FB03F1621CC5
:10433000D0B20022FFF777FEBDEC048B70BD30B524
:104340002DED028B81B00446B0EE408A0D46002070
:1043500000909FED550A28EE000ABDEEC00A10EE4F
:10436000101A524A5388121D02EB0312501D6A465E
:10437000FDF7DCFD44F0704040F480614B4842881A
:10438000001D00EB021001600098C1B2474842884E
:10439000001D00EB0210017144484188001D00EB34
:1043A0000110457341484088401C322190FBF1F2D6
:1043B00001FB12003D4948800121601E00EBC00254
:1043C00002EB4010354A02EBC00080F8101106F0F5
:1043D00051F9611E01EBC10202EB41112F4A02EBC0
:1043E000C101C1F8180101B0BDEC028B30BD30B580
:1043F0002DED028B81B00446B0EE408A0D460020C0
:1044000000909FED290A28EE000ABDEEC00A10EECA
:10441000101A264A5388121D02EB0312501D6A46D9
:10442000FDF784FD44F0704020494A88091D01EBE6
:10443000021108600098C1B21C484288001D00EBC0
:104440000210017119484188001D00EB01104573ED
:1044500016484088401C322190FBF1F201FB12000B
:10446000124948800121601E00EBC00202EB40109F
:104470000A4A02EBC00080F8101106F0FBF8611E3A
:1044800001EBC10202EB4111044A02EBC101C1F888
:10449000180101B0BDEC028B30BD0000F4710020AA
:1044A000D06A002014770020002474491C64002086
:1044B00030B52DED028B81B00446B0EE408A0D463A
:1044C000002000909FEDC00A28EE000ABDEEC00A51
:1044D00010EE101ABD4A5388121D02EB0312501D34
:1044E0006A46FDF723FD44F0704040F00201B748F2
:1044F0004288001D00EB021001600098C1B2B34871
:104500004288001D00EB02100171B0484188001D77
:1045100000EB01104573AD484088401C322190FBF0
:10452000F1F201FB1200A94948800121601E00EB55
:10453000C00202EB4010A64A02EBC00080F8101146
:1045400006F098F8611E01EBC10202EB4111A04A8E
:1045500002EBC101C1F8180101B0BDEC028B30BD06
:1045600030B52DED028B81B00446B0EE408A0D4689
:10457000002000909FED940A28EE000ABDEEC00ACC
:1045800010EE101A914A5388121D02EB0312501DAF
:104590006A46FDF7CBFC44F0704040F00F018B48B9
:1045A0004288001D00EB021001600098C1B28748EC
:1045B0004288001D00EB0210017184484188001DF3
:1045C00000EB0110457381484088401C322190FB6C
:1045D000F1F201FB12007D4948800121601E00EBD1
:1045E000C00202EB40107A4A02EBC00080F81011C2
:1045F00006F040F8611E01EBC10202EB4111744A62
:1046000002EBC101C1F8180101B0BDEC028B30BD55
:1046100010B50446601E00EBC00101EB40106C4970
:1046200011F8300008B9012010BD6A48407E00280A
:104630007AD0601E00EBC00101EB4010644901EB31
:10464000C000C07802286FD1601E00EBC00101EBF2
:1046500040105F4901EBC0008068002864D0601EF4
:1046600000EBC00101EB4010594901EBC000C069EB
:10467000002809DD601E00EBC00101EB4010544929
:1046800001EBC000C06909E0601E00EBC00101EB56
:1046900040104F4901EBC000C0694042142816DAAF
:1046A000601E00EBC00101EB4010494901EBC00066
:1046B000B0F81201401C81B2601E00EBC00202EB98
:1046C0004010434A02EBC000A0F812110AE000219A
:1046D000601E00EBC00202EB40103D4A02EBC0003E
:1046E000A0F81211601E00EBC00101EB4010384928
:1046F00001EBC000B0F81211601E00EBC00202EB2B
:104700004010334A02EBC000B0F81E0181420CDDBC
:104710000121601E00EBC00202EB40102C4A02EBAC
:10472000C00080F840100BE025E00021601E00EB87
:10473000C00202EB4010264A02EBC00080F8401095
:10474000601E00EBC00101EB4010214901EBC000ED
:1047500090F8400001280CD101F0E0F900219FED14
:104760001E0A2046FFF78DF9204600F0EFFB0020DF
:104770005AE7012058E7012056E710B5002420E051
:104780002046FFF745FF1548007804EBC40101EB14
:1047900044110F4A02EBC10148701048407804EB05
:1047A000C40101EB441102F831000C48B0F90210C9
:1047B00004EBC40000EB441002EBC0008160601CFD
:1047C000C4B2042CDCDB10BD00007A441C64002061
:1047D000F4710020B47100200000000024000020CB
:1047E00030B502460023012904D10120CC4C2072AF
:1047F000062303E00120CA4C60720823002029E050
:1048000000256724444302EBC40425616724444324
:1048100002EBC40425736724444342F834506724F0
:10482000444302EBC40465606724444302EBC404C0
:10483000E5826724444302EBC404A5826724444311
:1048400002EBC404A5606724444302EBC40484F86B
:104850002550401C9842D3DB30BD2DE9F041054680
:104860000E4617464FF00008012F02D14FF0060800
:1048700001E04FF00808002494E06720604305EB56
:10488000C000006901287DDB3046FDF76CFC08B1F3
:10489000BDE8F0816721614305EBC10101F114001E
:1048A000FDF758FC30B100216720604305EBC000E4
:1048B0008160EDE76720604305EBC0000069401EA2
:1048C0006721614305EBC10108616720604305EB87
:1048D000C00018306721614305EBC101898A00EBF4
:1048E000011072880168301D00EB02100160672022
:1048F000604305EBC00018306721614305EBC1013F
:10490000898A00EB011001797288301D00EB0210DA
:1049100001716720604305EBC000183067216143D7
:1049200005EBC101898A00EB0110417B7288301DC3
:1049300000EB021041736723634305EBC303183395
:104940004FF0670C04FB0CFC05EBCC0CBCF814C05E
:1049500003EB0C13591DB6F802C0331D03EB0C1307
:104960001A79331D03EB0C13581D06F06EF93088CD
:10497000401C322190FBF1F201FB120030806720D5
:10498000604300E00DE005EBC000808A401C90FB16
:10499000F1F201FB120081B26720604305EBC00019
:1049A0008182641C4445FFF668AF00BF70E72DE9C3
:1049B000F04104460E4617464FF00008FF253188A7
:1049C000301D00EB0110407B08B9BDE8F081012FDC
:1049D00002D14FF0060809E04FF008083188301D79
:1049E00000EB01100088A0F2013085B245450DDAD8
:1049F0006721694304EBC10101F11400FDF7B3FB2A
:104A000048B1012F03D101204549887286E0012079
:104A10004349C87282E06720684304EBC000006924
:104A2000401C6721694304EBC101086167206843AA
:104A300054F83000401C6721694344F83100318844
:104A4000301D00EB011002686720684304EBC000D2
:104A500018306721694304EBC101C98A00EB0110DA
:104A600002603188301D00EB011002796720684335
:104A700004EBC00018306721694304EBC101C98A07
:104A800000EB011002713188301D00EB0110427BF8
:104A90006720684304EBC00018306721694304EBCA
:104AA000C101C98A00EB0110427367236B4304EB19
:104AB000C30318334FF0670C05FB0CFC04EBCC0C64
:104AC000BCF816C003EB0C131A7967236B4304EB95
:104AD000C30318334FF0670C05FB0CFC04EBCC0C44
:104AE000BCF816C003EB0C13581DB6F800C0331DFC
:104AF00003EB0C13591D06F0A8F86720684304EB7C
:104B0000C000C08A401C322190FBF1F201FB120070
:104B100081B26720684304EBC000C18200BF54E744
:104B2000381100200022826180ED031AC0ED020AD4
:104B300080ED010AC0ED041A0160C2610023036226
:104B40004362704780ED000AC0ED010A80ED021A51
:104B5000C0ED041A704701688269891AC161C2698F
:104B6000016A511A00EE101AB8EEC00AD0ED010A1F
:104B700020EE200A90ED021AC16900EE901AF8EEBC
:104B8000E00A01EE200AC269016A022303FB112236
:104B9000416A114400EE901AF8EEE00A90ED031A13
:104BA00001EE200ABDEEC00A10EE101A4161026A41
:104BB0004262C2690262704770B504460D461646ED
:104BC0002563E662206BE16A401A6062206B002870
:104BD00001DD206B01E0206B4042142806DA9FEDD6
:104BE000360A84ED060A606AA06270BD606A00EE53
:104BF000100AB8EEC00AD4ED000A20EE200ADFED5C
:104C00002F0A80EE201A84ED051A606A00EE100A61
:104C1000B8EEC00AD4ED010A60EE200A9FED281A12
:104C200080EE810A9FED251AC0EE010A94ED060A76
:104C300030EE800A84ED060A606AA16A401A00EE2E
:104C4000100AB8EEC00AD4ED020A20EE200A84ED64
:104C5000070A94ED030AD4ED070A70EE600A94ED9A
:104C6000030A94ED041A01EE600A84ED030A94ED40
:104C7000030A84ED070AF7EE000ABFEE000A04F10A
:104C8000180000F041FA606AA06294ED050AD4EDC4
:104C9000060A30EE200AD4ED070A30EE200A84ED31
:104CA000080AF7EE000ABFEE000A04F1200000F047
:104CB0002BFA00BF99E70000000000000000C84286
:104CC00000007A441CB50121084602F031F9F020B9
:104CD000009001208DF8040002208DF805000020CE
:104CE0008DF8060001208DF8070069461F4801F085
:104CF000D9FE10201D490883202008834020088306
:104D0000802008831CBD10B51020184948836420FA
:104D100000F05AF9202015494883642000F054F926
:104D2000402012494883642000F04EF980200F494A
:104D30004883642000F048F910200C49088364205F
:104D400000F042F9202009490883642000F03CF972
:104D5000402006490883642000F036F9802003498A
:104D60000883642000F030F910BD0000000002400C
:104D70009FED5E0A80ED000A9FED5D0A80ED020A5C
:104D8000704710B52DED0C8B0446B0EE408AF0EE66
:104D9000608A94ED020ADFED570A30EEC00AD4EDC6
:104DA000000A20EE200A10EE101A084608F08EFEC7
:104DB00041EC1B0B94ED020A10EE101A084608F0A5
:104DC00085FE41EC1D0B53EC182B08F061FC41EC07
:104DD0001C0B53EC1B2B08F047F941EC1A0B9FED11
:104DE000460B53EC102B08F0FBF941EC190B08F0C3
:104DF00009F9606094ED010A84ED000A94ED010A5E
:104E000010EE101A084608F061FE41EC100BBDECE4
:104E10000C8B10BDB7EE000A80ED020AB7EE000A57
:104E200080ED030AB7EE000A80ED050A9FED340A13
:104E300080ED060A9FED330A80ED070A9FED2B0AED
:104E400080ED0C0A704710B52DED068B0446B0EED0
:104E5000408A18EE100A08F039FE41EC1A0BB0EE49
:104E60004A0AF0EE6A0A2848FFF78BFFB0EE409A34
:104E7000F0EE609A51EC190B08F0C4F8206394ED41
:104E8000050AD4ED070A30EE200AD4ED050A80EEBB
:104E9000801A84ED0A1A94ED0C0AD4ED030A94EDFD
:104EA000091A00EEC10AD4ED090A94ED0A1A41EE7E
:104EB000000AC4ED080AD4ED0A0A94ED031AB7EE0D
:104EC000000A00EEC10AD4ED050A20EE200A84EDA6
:104ED000040A94ED040A84ED050A94ED080A84EDB1
:104EE000090A94ED080ABDEC068B10BD0000000015
:104EF0000000254400007A440000000000408F407C
:104F0000ACC52737CDCCCC3D147700201CB5012192
:104F1000022002F00DF84FF44070009001208DF84F
:104F2000040000208DF8060002208DF80500694677
:104F30001A4801F0B7FD4FF48071184801F02EFEB9
:104F40004FF40071154801F02BFE1CBD70B50446EE
:104F5000112C00DD11241248055D00261AE04FF4E3
:104F600080710E4801F01CFE05F0010028B14FF4DD
:104F700000710A4801F012FE04E04FF40071074886
:104F800001F00EFE4FF48071044801F007FE6D1031
:104F9000701CC6B2082EE2DB70BD000000040240A7
:104FA000B2DD0008704706E04FF4FA7000F00CF82C
:104FB0000920FFF7CBFFF7E700BFFEE700BFFEE7E2
:104FC00000BFFEE77047704710B5002107E04AF2C6
:104FD000104200BF1300A2F10102FBD1491C814223
:104FE000F5D310BD10B5002106E0282200BF130044
:104FF000A2F10102FBD1491C8142F6D310BD00BFD2
:105000000100A0F1010290B2FAD1704790ED001AB0
:10501000B4EEC01AF1EE10FA12D290ED001A31EE91
:10502000201AB4EEC01AF1EE10FA06D290ED001A72
:1050300031EE201A80ED001A1BE080ED000A18E026
:1050400090ED001AB4EEC01AF1EE10FA11DD90EDF9
:10505000001A31EE601AB4EEC01AF1EE10FA06DD55
:1050600090ED001A31EE601A80ED001A01E080ED3B
:10507000000A7047F0EE401A31EE612A70EEE12A24
:1050800082EE220A704710B50446D4ED000AB0EE55
:10509000600ADFEDF90A07F0A7FA84ED000A94ED43
:1050A000000AB5EEC00AF1EE10FA07D294ED000A3C
:1050B000DFEDF10A30EE200A84ED000A10BD07E0B2
:1050C00090ED000ADFEDED0A30EE200A80ED000AD7
:1050D00090ED000ADFEDEA0AB4EEE00AF1EE10FA14
:1050E000EED307E090ED000ADFEDE40A30EE600A4F
:1050F00080ED000A90ED000ADFEDE20AB4EEE00A6E
:10510000F1EE10FAEEDC70470146002091ED001A36
:10511000B4EEE01AF1EE10FA03DDC1ED000A012051
:1051200009E091ED001AB4EEC01AF1EE10FA02D2C5
:1051300081ED000A0120704710B5034600201C686D
:10514000944202DD1A60012004E01C688C4201DAFE
:105150001960012010BD01460020D1ED000AF4EED7
:10516000C00AF1EE10FA03DD81ED000A01200DE026
:10517000D1ED000AB1EE401AF4EEC10AF1EE10FAD8
:1051800004D2F1EE400AC1ED000A0120704710B5CB
:105190000246002013688B4202DD1160012006E008
:1051A0004C421368A34202DA4B421360012010BD47
:1051B000F0EE402A32EEE00A32EE613A20EE030AC7
:1051C00071EE603A80EE233A33EE210A704770B5F3
:1051D0000446049D601AEE1A7043561A90FBF6F0CE
:1051E000184470BDB0EE401A90ED000AB0EEC00A4F
:1051F000B4EEC10AF1EE10FA04D29FEDA30A80EDDD
:10520000000A28E070EEC11A80EEA12AB0EE420A30
:10521000D0ED001AF5EEC01AF1EE10FA0CDDD0ED6B
:10522000001A61EE801AB7EE002A32EE402A40EEF4
:10523000821AC0ED001A0DE0D0ED001AF1EE611AED
:1052400061EE801AB7EE002A32EE402A50EEC21A02
:10525000C0ED001A00BF7047B0EE401A71EE601A40
:10526000B0EE610A05E0DFED841A70EE211AB0EEAF
:10527000610ADFED861AB4EEE10AF1EE10FAF2D31C
:1052800005E0DFED7D1A70EE611AB0EE610ADFED28
:10529000801AB4EEE10AF1EE10FAF2DC7047B0EEDB
:1052A000401A71EE601AB0EE610A05E0DFED731A84
:1052B00070EE211AB0EE610ADFED711AB4EEE10A68
:1052C000F1EE10FAF2D305E0DFED6C1A70EE611A20
:1052D000B0EE610ADFED6B1AB4EEE10AF1EE10FAFE
:1052E000F2DC7047B0EE402AB0EEC20ADFED692A68
:1052F00030EE220AB0EE401AF5EEC00AF1EE10FAD6
:1053000018DB30EEC13A70EE813A83EE234AB0EEFC
:10531000440A20EE003AF0EE432A9FED5F3ADFEDBB
:105320005F3A13EEA23ADFED5E3AF0EE631A43EE17
:10533000001A18E030EE813A71EE603A83EE234AAB
:10534000B0EE440A20EE003AF0EE432A9FED523AC6
:10535000DFED523A13EEA23ADFED523AF0EE631A65
:1053600043EE001A00BFB5EEC02AF1EE10FA02D2E9
:10537000B1EE610A7047B0EE610AFBE705E0DFEDD0
:105380003F0A70EE200AB0EE600ADFED3D0AB4EE8F
:10539000E00AF1EE10FAF2D305E0DFED380A70EE24
:1053A000600AB0EE600ADFED370AB4EEE00AF1EE13
:1053B00010FAF2DCB5EEC00AF1EE10FA36D2DFEDEB
:1053C0003A0A60EE200A9FED391A20EE011A41EEEA
:1053D000000AC0ED000AD0ED000AF5EEC00AF1EEB9
:1053E00010FA12D2D0ED000A90ED001AD0ED001A9A
:1053F000F1EE611A51EE210A90ED001ADFED2C1A40
:1054000001EEA01A80ED001A64E0D0ED000A90EDE4
:10541000001AD0ED001A51EE210A90ED001ADFEDCE
:10542000241A01EEA01A80ED001A53E0DFED1E0AE7
:1054300060EE200A9FED1D1A20EE011A41EE400A8F
:10544000C0ED000AD0ED000AF5EEC00AF1EE10FA48
:1054500030D2D0ED000A90ED001AD0ED001AF1EE36
:10546000611A51EE210A90ED001ADFED111A01EEDA
:10547000A01A80ED001A2DE00000B443DB0FC940F4
:10548000DB0F49C0DB0F494000000000000034C3BF
:105490000000344308E53C1EB1507B3FDE02493E2C
:1054A000DB0F493FE4CB164083F9A23F7B81CF3E1F
:1054B0006666663ED0ED000A90ED001AD0ED001A47
:1054C00051EE210A90ED001A5FED071A01EEA01AC5
:1054D00080ED001ADFEDFD0A70EE200AB0EE600AE2
:1054E0005FED180AB4EEE00AF1EE10FA05DD5FEDAB
:1054F0001D0A70EE600AB0EE600AB5EEC00AF1EE69
:1055000010FA36D25FED180A60EE200A1FED191A64
:1055100020EE011A41EE000AC1ED000AD1ED000AA9
:10552000F5EEC00AF1EE10FA12D2D1ED000A91EDBB
:10553000001AD1ED001AF1EE611A51EE210A91ED37
:10554000001A5FED251A01EEA01A81ED001A46E05F
:10555000D1ED000A91ED001AD1ED001A51EE210AA9
:1055600091ED001A5FED2E1A01EEA01A81ED001ADE
:1055700035E05FED330A60EE200A1FED341A20EEAD
:10558000011A41EE400AC1ED000AD1ED000AF5EE24
:10559000C00AF1EE10FA12D2D1ED000A91ED001A14
:1055A000D1ED001AF1EE611A51EE210A91ED001AC7
:1055B0005FED411A01EEA01A81ED001A0FE0D1ED66
:1055C000000A91ED001AD1ED001A51EE210A91ED79
:1055D000001A5FED491A01EEA01A81ED001A70471A
:1055E0003CB504460B4615461FED590AF0EE404AFD
:1055F0001FED5B0AB0EE405A002222E004EB82006D
:10560000D0ED000AB0EE600A694601A8FFF7B6FEC9
:1056100003EB8200D0ED000A9DED011AB0EE640AA2
:1056200001EE200AF0EE404A03EB8200D0ED000AC2
:105630009DED001AB0EE450A01EE200AB0EE405A88
:10564000521CAA42DADBF0EE450AB0EE640AFFF71C
:1056500049FE3CBDF0EE401AF4EEE01AF1EE10FA0D
:1056600011D8F4EEC11AF1EE10FA0CD8F4EEC10A1A
:10567000F1EE10FA02D8B0EE602A01E0B0EE412A55
:10568000B0EE420A22E0F4EEE10AF1EE10FA11D88F
:10569000F4EEC10AF1EE10FA0CD8F4EEC11AF1EEF4
:1056A00010FA02D8B0EE612A01E0B0EE412AB0EE65
:1056B000420A0BE0F4EEE01AF1EE10FA02D8B0EE76
:1056C000612A01E0B0EE602AB0EE420A704710B5E0
:1056D00003468B4208DC934206DC914201DC0C4617
:1056E00000E01446204610E0994208DC914206DCB6
:1056F000934201DC1C4600E01446204605E08B4244
:1057000001DC1C4600E00C46204610BD08B5F0EE5A
:10571000400AB6EE000A20EE800AB0EE401ACDED47
:10572000000A6B490098A1EB600000909DED000A13
:1057300060EE011A9DED002AB7EE080A01EEC20ADA
:10574000DDED001A20EE210A8DED000A9DED000A24
:1057500008BD70B52DED028B05460C46B0EE408AB3
:105760000026D5ED000A60EEA00A94ED001AD4EDF3
:10577000001A41EE210AB0EE600A07F0FBFAF0EEE3
:10578000408AB0EEC80AB0EE408A9FED520AF4EEAD
:10579000C08AF1EE10FA03D29FED4E0AF0EE408A75
:1057A000F4EEC88AF1EE10FA11DDC8EE280AB0EE68
:1057B000600AD5ED000A60EE800AC5ED000AD4ED5E
:1057C000000A60EE800AC4ED000A012600BF3046E0
:1057D000BDEC028B70BD05E05FEDD80A70EE200ACB
:1057E000B0EE600A5FEDDA0AB4EEE00AF1EE10FA0C
:1057F000F2D305E05FEDDF0A70EE600AB0EE600AFA
:105800005FEDE00AB4EEE00AF1EE10FAF2DCB5EE7C
:10581000C00AF1EE10FA0CD25FEDDD0A60EE200A4C
:105820001FEDDE1A20EE011A41EE000AC0ED000A5B
:105830000BE05FEDE30A60EE200A1FEDE41A20EEB4
:10584000011A41EE400AC0ED000ADFED200A70EEB9
:10585000200AB0EE600A5FEDF50AB4EEE00AF1EE60
:1058600010FA05DD5FEDFB0A70EE600AB0EE600A2B
:10587000B5EEC00AF1EE10FA0CD25FEDF50A60EE5B
:10588000200A1FEDF61A20EE011A41EE000AC1EDC2
:10589000000A0BE05FEDFC0A60EE200A1FEDFD1A26
:1058A00020EE011A41EE400AC1ED000A7047B0EE49
:1058B000401AF0EEC11AB0EEE02AF4EEC21AF1EE90
:1058C00010FA09D2B0EE410A08E00000DB0FC93F30
:1058D000DF59375FFFE6DB2EB0EE600A7047B0EEAF
:1058E000401AF0EEC11AB0EEE02AF4EEC21AF1EE60
:1058F00010FA02DDB0EE410A01E0B0EE600A704736
:1059000070B506460D460020287080240BE006EA9C
:105910000400A04201D171A000E071A00146284618
:1059200005F087F96410002CF1DC70BD10B52DED89
:10593000088BB0EE409AF0EE609AB0EE41AA0446B1
:105940009FED680AF0EE40AABFEE000AB4EEC09ADE
:10595000F1EE10FA03D2BFEE000AB0EE409AB7EEB5
:10596000000AB4EEC09AF1EE10FA03DDB7EE000AB9
:10597000B0EE409AF0EEC98AB5EEC09AF1EE10FA98
:1059800002DBB0EE698A01E0B0EE4A8A34BBB5EEC4
:10599000C08AF1EE10FA14DBB7EE001A38EE011AE5
:1059A000F0EE410AB7EE001A31EE681AB0EE410A85
:1059B00006F0DAFEF7EE000A30EEC00AF0EE40AA7A
:1059C0007EE0B7EE000A30EE480AF0EE400AB0EE94
:1059D000680A06F0C9FEF0EE40AA71E0012C48D139
:1059E000B0EEC80A5FED450AB4EEE00AF1EE10FA37
:1059F00002D2F0EE68AA63E0B5EEC08AF1EE10FACA
:105A00001EDBF7EE000A70EEE80A60EE880AB0EEE0
:105A1000600A06F0F5FCF7EE000A30EE60BAB0EE70
:105A2000480A06F0EDFCF7EE000A70EE600A8BEE15
:105A3000200AF7EE000A30EEC00AF0EE40AA3FE07E
:105A4000F1EE480A60EEA80AB0EE600A06F0D8FC53
:105A5000F7EE000A30EE60BAB1EE480A06F0D0FC6C
:105A6000F7EE000A30EE600ACBEE000AF0EE60AA14
:105A700026E0022C22D1B5EEC08AF1EE10FA10DB3E
:105A8000B7EE000A70EE680AB7EE000A08EE280AC0
:105A900080EE801AB7EE000A30EE410AF0EE40AA1E
:105AA0000EE0B7EE000A70EE680AB7EE000A08EEE4
:105AB000600AC8EE800AF0EE60AA01E0F0EE68AA83
:105AC000B5EEC09AF1EE10FA03D2B1EE6A0AF0EE2A
:105AD00040AAB0EE6A0ABDEC088B10BD3100000090
