:020000040800F2
:1000000058BF002091840008B94F0008BB4F00087A
:10001000CD4F0008D14F0008D54F00080000000068
:10002000000000000000000000000000D94F0008A0
:10003000DB4F00080000000017A700087BA900089C
:10004000AB840008AB840008AB840008AB840008D4
:10005000AB840008AB840008AB840008AB840008C4
:10006000AB840008AB840008AB840008AB840008B4
:10007000AB840008AB840008AB840008AB840008A4
:10008000AB840008E3050008AB840008AB840008DB
:1000900095110008AB840008AB840008AB8400080D
:1000A000AB840008AB840008AB840008AB84000874
:1000B000DF030008EB1F0008AB840008AB840008D6
:1000C000AB840008AB840008AB840008AB84000854
:1000D000AB840008AB84000809060008AB84000864
:1000E000AB840008AB840008AB840008AB84000834
:1000F000AB840008AB840008AB840008AB84000824
:10010000AB840008AB840008A1160008AB8400088B
:10011000AB840008AB840008AB840008AB84000803
:10012000AB840008AB840008AB840008AB840008F3
:10013000AB840008AB840008AB840008AB840008E3
:100140006D190008A31A0008AB840008AB840008EE
:10015000AB840008AB840008AB840008AB840008C3
:10016000AB840008AB840008AB840008AB840008B3
:10017000AB840008AB840008AB840008AB840008A3
:10018000AB840008AB84000800F002F800F053F8DC
:100190000AA090E8000C82448344AAF10107DA45E2
:1001A00001D100F048F8AFF2090EBAE80F0013F0E1
:1001B000010F18BFFB1A43F0010318471CDF0000B2
:1001C0003CDF0000103A24BF78C878C1FAD8520743
:1001D00024BF30C830C144BF04680C6070470000C1
:1001E0000023002400250026103A28BF78C1FBD840
:1001F000520728BF30C148BF0B60704764290AF01E
:10020000A384002070471FB50DF0D9FC9DE80300C2
:100210000AF0DEFD0BF058FA0400002000210CF07B
:10022000E3FE401C6060002000210CF0C7FEE0608F
:100230001FBD10B510BD0AF04EFF1146FFF7E3FFDA
:1002400000F051F80BF0C6F903B4FFF7F2FF03BC5E
:100250000BF034FA13E0012004F01AFA022004F043
:1002600017FA032004F014FA042004F011FA3949B3
:10027000394801F07BFF4FF47A700AF055F9EAE74C
:1002800006E03449344801F071FF02200AF04CF9CD
:10029000F7E703E04FF4FA600AF046F9FAE770B5C1
:1002A0000446002500BF0AF07EFB00F02BFC0AF09C
:1002B00011FA05460723294A0021294809F0EEFDD5
:1002C0001023284A0021284809F0E8FD1223274A74
:1002D0000021274809F0E2FD05200AF05DF82846D4
:1002E0000AF0FCF970BD10B508F038F84FF48061E1
:1002F00001F007021F4B18684FF6FF0318401E4B12
:10030000034343EA02201B4B186000BF062142F65C
:10031000DF6000F039F801F03DFE01F091F900F0E6
:100320002DFE01F055FA00F0C1F801F011FF022195
:10033000124804F069FA01F049FD08F001FA0523BA
:100340000F4A00210F4809F0A9FD08F020FB00200A
:1003500010BD00001464002000680040AC080020BC
:1003600093020008AC0C002081020008AC100020B1
:10037000550200080CED00E00000FA05D81300203B
:10038000AC0400209F0200087FB505460C46012101
:10039000084606F00AFE0295ADF804400020ADF8CC
:1003A0000600ADF80C0001A94FF0804006F0B5FF43
:1003B0001C208DF8000001208DF801008DF802004E
:1003C0008DF80300684605F0D2FB01221146900724
:1003D00007F044FC0121880707F028F87FBD10B51D
:1003E0000121880707F051FC012853D10121800722
:1003F00007F05CFC002432E004EBC40000EB40009A
:10040000254911F8300028B304EBC40000EB40008C
:1004100001EBC0004078F0B104EBC40000EB4000F9
:1004200001EBC0008078012806D0022805D00428FE
:100430000BD005280DD104E00CE020B202F0F5F954
:1004400008E020B202F024FB04E020B202F049FAF6
:1004500000E000BF02E020B202F01AFB641C042C92
:10046000CADB0D4CB4F98E32B4F9B621B4F9DE1002
:10047000B4F9060002F051FF02F0C4FF0749084832
:1004800001F074FE0748407A20B102220349064871
:1004900004F0F7F910BD0000C86A0020CC5D002010
:1004A0000068004030110020D813002000B597B03C
:1004B0000121084606F046FD0121480406F075FDBD
:1004C0000121480506F03EFD07220221FE4806F004
:1004D0007EFB07220321FC4806F079FB0C201190DB
:1004E00002208DF8480000208DF84A0003208DF886
:1004F000490000208DF84B0011A9F34806F0DCFA02
:100500004FF4E13013900020ADF85000ADF85200E8
:10051000ADF85400ADF858000C20ADF8560013A902
:10052000EA4807F0EDFC012240F22551E74807F0C8
:1005300025FE26208DF8400004208DF84100012082
:100540008DF842008DF8430010A805F010FB012142
:10055000DE4807F05DFDDE4806F06CF84FF0006005
:1005600001900020059040200490DA480390D7487D
:10057000001D029000150790002006900990089039
:100580000A904FF440300B9000200C9001200D9009
:1005900000200F900E9001A9CD4806F0EDF8CE494D
:1005A000CB4806F09CF9CC49C94806F0F3F9012282
:1005B0001021C74806F0A7F911208DF84000072048
:1005C0008DF8410001208DF842008DF8430010A8FD
:1005D00005F0CDFA01228021BC4807F0C6FD17B016
:1005E00000BD10B5BC49BA4806F0AAF901280AD1E5
:1005F000B949B74806F073F9B749B54806F0CAF9E2
:100600000020B649C87310BD10B52DED028B002433
:1006100040F22531AD4807F0ECFD50B1AB4807F092
:1006200026FD0020AE4908702021AE480AF08EFB5E
:100630005AE240F22551A54807F0DBFD0028F7D02B
:100640002021A24807F0CCFD40F225519F4807F039
:1006500007FE9E4807F00BFDC4B2A148007800F0E9
:10066000400008B39E48007800F0800020BBFF2CBB
:1006700006D19B48007840F08000994908701BE043
:100680009748007800F03F01964844549448007819
:10069000401C934908700846007800F03F00282865
:1006A0000ADD0020087007E0EE2C05D18C480078A8
:1006B00040F040008A4908708948007800F08000C6
:1006C0000028B5D0884890F82102012804D1864836
:1006D00090F8230285490870834890F8230220B1DE
:1006E000012803D0022800D110E1F4E17E4890F8FF
:1006F0002502082822D17C4890F8260211281DD115
:10070000794890F82702302806D0312808D03228BE
:100710000AD0332810D10BE00020754908700CE096
:1007200001207349087008E002207149087004E054
:1007300003206F49087000E000BF00BF6A4890F8CE
:100740002502092821D1684890F8260210281CD1DA
:10075000654890F8280258B1012814D164490978F5
:1007600001EBC10101EB4101624A02F831000BE0EB
:1007700000205F49097801EBC10101EB41015D4AAD
:1007800002F8310000E000BF00BF574890F8250292
:100790000A2823D1544890F8260210281ED1524826
:1007A00090F8280260B1012816D15149097801EB6F
:1007B000C10101EB41014F4A02EBC10148700CE05D
:1007C00000204B49097801EBC10101EB4101494A85
:1007D00002EBC101487000E000BF00BF424890F842
:1007E0002502032834D1404890F8260211282FD141
:1007F0003D4890F82702322804D034280ED03528FE
:1008000024D117E002203A49097801EBC10101EB3C
:100810004101384A02EBC101887018E004203449D4
:10082000097801EBC10101EB4101324A02EBC10140
:1008300088700CE005202E49097801EBC10101EB1D
:1008400041012C4A02EBC101887000E000BF00BFEB
:10085000254890F8250201281CD1234890F826024B
:10086000112817D11F48C01D0BF0B6FDB0EE408A0D
:10087000F0EE608A51EC180B0CF04EFE01B21C48F1
:10088000007800EBC00000EB40001A4A02EBC00009
:10089000018120E1144890F82502022835D1124840
:1008A00090F82602112830D10E48C01D0BF094FD9F
:1008B000B0EE408AF0EE608A51EC180B0CF02CFE82
:1008C00000B20B49097817E00000024000440040E4
:1008D000A06002406512002000802020301100201E
:1008E00001000020651300204511002000000020B9
:1008F00003000020C86A002001EBC10101EB4101A7
:10090000FD4A02EBC1018880E5E0E4E0FB4890F895
:100910002502082822D1F94890F8260211281DD175
:10092000F64890F82702302812D0312804D0322817
:1009300006D0332810D107E00120F14908700CE0FF
:100940000220EF49087008E00320ED49087004E038
:100950000020EB49087000E000BF00BFE74890F8B6
:100960002502092821D1E54890F8260210281CD13B
:10097000E24890F8280258B1012814D1E0490978DA
:1009800001EBC10202EB4111DE4A02F831000BE03B
:100990000020DB49097801EBC10202EB4111D94A81
:1009A00002F8310000E000BF00BFD44890F82502F3
:1009B0000A2823D1D14890F8260210281ED1CF480A
:1009C00090F8280260B1012816D1CD49097801EBD1
:1009D000C10202EB4111CB4A02EBC10148700CE0AD
:1009E0000020C749097801EBC10202EB4111C54A59
:1009F00002EBC101487000E000BF00BFBF4890F8A3
:100A00002502032826D1BD4890F82602112821D1BD
:100A1000BA4890F82702322802D0352818D10BE0C6
:100A20000220B749097801EBC10202EB4111B54A36
:100A300002EBC101C8700CE00520B149097801EB57
:100A4000C10202EB4111AF4A02EBC101C87000E0E4
:100A500000BF00BFA94890F8250201281AD1A74875
:100A600090F82602112815D1A7480BF0B5FCB0EE7E
:100A7000408AF0EE608A51EC180B0CF04DFDA04955
:100A8000097801EBC10202EB41119E4A02EBC10160
:100A9000886020E0994890F8250202281AD19748EA
:100AA00090F82602112815D197480BF095FCB0EE6E
:100AB000408AF0EE608A51EC180B0CF02DFD904945
:100AC000097801EBC10202EB41118E4A02EBC10130
:100AD000486100E000BF00BF00208C490870202161
:100AE0008948C01F0AF032F9BDEC028B10BD10B569
:100AF00004462146864805F09AFE0121844805F007
:100B000075FE10BD70B52DED028B0024EE2221463E
:100B1000641C80484254B1222146641C4254102275
:100B20002146641C425400222146641C4254214642
:100B3000641C42542146641C425405222146641C14
:100B4000425410222046611CCCB272490A54002241
:100B50002046611CCCB26F490A5401222046611C18
:100B6000CCB26C490A54FF222046611CCCB26949C0
:100B70000A54FC222046611CCCB266490A54FF226A
:100B80002146601CC4B2634842542046611CCCB26A
:100B900060490A5460480078012802D002287CD1BC
:100BA000F5E0EE222146601CC4B25A484254B122FC
:100BB0002046611CCCB257490A5412222046611CBF
:100BC000CCB254490A5400222046611CCCB251498F
:100BD0000A5401222046611CCCB24E490A54002519
:100BE000D1E005EBC50000EB4000434901EBC0003C
:100BF000807800287ED000222046611CCCB2454976
:100C00000A5401222046611CCCB242490A540022F7
:100C10002046611CCCB23F490A5405EBC50000EBED
:100C20004000354901EBC000B0F918203BA13C4819
:100C300009F042FF3A4809F0E7FFC2B22046611CC2
:100C4000CCB234490A540819354909F0B9FF34487F
:100C500009F0DAFF2044C4B200222046611CCCB265
:100C60002C490A5402222046611CCCB229490A545C
:100C700000222046611CCCB226490A5405EBC5006F
:100C800000EB40001C4901EBC000B0F9142023A187
:100C9000234809F011FF224800E05FE109F0B4FFAA
:100CA000C2B22046611CCCB21A490A5408191C4928
:100CB00009F086FF1A4809F0A7FF2044C4B20022B9
:100CC0002046611CCCB213490A5409222046611CFB
:100CD000CCB210490A5410222046611CCCB20D49F6
:100CE0000A5401222046611CCCB20A490A5405EB81
:100CF000C50017E046E00000C86A0020451100204A
:100D000004000020EC7100206C1300200100002082
:100D1000A060024065120020000000202564000051
:100D2000B010002000EB4000904901EBC000427879
:100D30002046611CCCB28E490A5400222046611C18
:100D4000CCB28B490A540A222046611CCCB2884995
:100D50000A5410222046611CCCB285490A54012253
:100D60002046611CCCB282490A5405EBC50000EB59
:100D700040007E4901EBC00042782046611CCCB2A5
:100D80007B490A546D1C042DFFF62BAFE7E0EE22E1
:100D90002046611CCCB276490A54B1222046611C1F
:100DA000CCB273490A5412222046611CCCB270495D
:100DB0000A5400222046611CCCB26D490A5402221A
:100DC0002046611CCCB26A490A540025C2E005EBFA
:100DD000C50000EB4510674901EBC000C078002852
:100DE0007ED000222046611CCCB261490A54012207
:100DF0002146601CC4B25E48425400222046611C59
:100E0000CCB25B490A5405EBC50000EB45105949CB
:100E100001EBC000C269AFF2FC01574809F04CFE7B
:100E2000554809F0F1FEC2B22146641C50484254B4
:100E300001464819504909F0C3FE4F4809F0E4FE45
:100E40002044C4B200222046611CCCB248490A5456
:100E500002222046611CCCB245490A540022204699
:100E6000611CCCB242490A5405EBC50000EB4510A9
:100E7000404A02EBC00090ED080A10EE101A084636
:100E80000CF02CFE41EC180B53EC182BAFF2741144
:100E9000394809F011FE384809F0B6FEC2B22146C1
:100EA000641C3348425401464819334909F088FE0E
:100EB000314809F0A9FE2044C4B200222046611C3A
:100EC000CCB22B490A5409222046611CCCB22849D5
:100ED0000A5410222146601CC4B22548425400E046
:100EE00037E001222046611CCCB221490A5405EBAF
:100EF000C50000EB45101F4901EBC00042782046B9
:100F0000611CCCB21A490A5400222046611CCCB2A2
:100F100017490A5409222046611CCCB214490A54CC
:100F200010222046611CCCB211490A5401222046ED
:100F3000611CCCB20E490A5405EBC50000EB45100C
:100F40000C4901EBC00042782146601CC4B208483D
:100F500042546D1C042DFFF63AAF00E000BF00BF05
:100F60002046FFF7C4FDBDEC028B70BDC86A0020AF
:100F700065120020EC710020B010002000B58BB08D
:100F80000121480606F011F80121084605F0DAFFB4
:100F900009220B21FE4805F01AFE09220C21FC480B
:100FA00005F015FE02208DF81C004FF4C05006908D
:100FB00006A9F74805F080FD00208DF826008DF881
:100FC00027008DF828008DF829008DF82A008DF86B
:100FD0002B008DF822008DF8230008208DF82400C6
:100FE00003208DF82500ADF8200008A9E94804F099
:100FF00042FE14208DF8040003208DF80500002027
:101000008DF8060001208DF8070001A804F0AFFD5F
:1010100001208DF812008DF8130000208DF81400C7
:1010200046F2A000ADF8080046F2C000ADF80A0094
:1010300046F2E000ADF80C004FF4C240ADF80E00EF
:101040000020ADF8100001208DF8150002A804F072
:101050009CFE02208DF8120001208DF81300002064
:101060008DF814004FF4C840ADF8080046F2200097
:10107000ADF80A0046F24000ADF80C0046F2600000
:10108000ADF80E000020ADF8100001208DF815001D
:1010900002A804F07AFE03208DF8120001208DF8DA
:1010A000130000208DF814004FF4C040ADF8080084
:1010B0000020ADF80A00ADF80C00ADF80E00ADF858
:1010C000100001208DF8150002A804F05EFEB14862
:1010D00004F0B8FD08A804F0D9FE01220221AD48B1
:1010E00005F052F90BB000BD10B501F54072AA4BE6
:1010F0005C881B1D03EB04131A600423A64A548862
:10110000121D02EB0412137110BD70B505460E4698
:10111000144606F54070A1494A88091D01EB0211E9
:10112000086008219D484288001D00EB02100171F3
:10113000AA7A9A494B88091D01EB0311481D05F154
:101140000B0109F08CFD217894484288001D00EBCA
:1011500002104172617891484288001D00EB021034
:101160008172A1788D484288001D00EB0210C17287
:10117000E1788A484288001D00EB0210017387481D
:101180004088401C322190FBF1F201FB12008349A0
:10119000488070BD30B585B002217E4805F05CF90D
:1011A00000287DD002217B4805F0F1F90221794821
:1011B00005F02FF96A460021764804F0CAFF00982E
:1011C000C5B20098B0F5407F6BD19DF80B004D285B
:1011D00021D19DF80C004F281DD1002415E09DF869
:1011E0000F0000F0010004EBC40101EB44116C4A54
:1011F00002F8310004EBC40000EB4410114611F872
:10120000300008B100204870641C042CE7DB29463C
:101210006846FFF769FF9DF80B0053281ED19DF823
:101220000C0054281AD1002412E004EBC40101EB95
:1012300044115B4A02EBC101896A00EE901AF8EE94
:10124000E00AB0EE600AE0B2002102F009FB641C83
:10125000042CEADB29466846FFF746FF9DF80B00A1
:10126000422815D19DF80C00472811D1002409E02F
:10127000012004EBC40101EB4411494A02EBC10116
:101280004870641C042CF3DB29466846FFF72CFFEA
:101290009DF80B0050281ED19DF80C00582801E045
:1012A000BFE159E017D1681CC5B2002411E004EB7E
:1012B000C40101EB44113A4A02EBC10101F12800DB
:1012C000384900F007FE374A29466846FFF71DFFF8
:1012D000641C042CEBDB9DF80B0056281BD19DF8F9
:1012E0000C00582817D1A81CC5B2002411E004EB4B
:1012F000C40101EB44112A4A02EBC10101F11C00B7
:10130000284900F0E7FD274A29466846FFF7FDFE19
:10131000641C042CEBDB9DF80B0049281BD19DF8C5
:101320000C00512817D1E81CC5B2002411E004EBD1
:10133000C40101EB44111A4A02EBC10101F118008A
:10134000184900F0B3FD174A29466846FFF7DDFE4D
:10135000641C042CEBDB00BF0098B0F5407F31D952
:101360000098B0F5417F2DD80098401EC5B29DF879
:101370000B004A2826D19DF80C00562822D10A4994
:101380000DF10E0000F0CFFD074801680EE00000EF
:101390000000024000640040CC5D0020F0600020AE
:1013A000EC710020080000200C00002005EBC500B7
:1013B00000EB45109C4A02EBC000C161294668461B
:1013C000FFF792FE0098B0F5987F7ED90098B0F5AF
:1013D0009A7F7AD89DF80B00532814D19DF80C0001
:1013E000542810D10098401FC5B2002005EBC5015C
:1013F00001EB45118C4A02EBC101487020252946BA
:101400006846FFF771FE9DF80B00422814D19DF845
:101410000C00472810D10098401FC5B2002005EBF2
:10142000C50101EB4511804A02EBC101487020253E
:1014300029466846FFF758FE9DF80B00502826D134
:101440009DF80C00582822D10098A0F23110C5B2A6
:1014500076490DF10F0000F066FD744890ED000A2A
:10146000B8EEC00ADFED720A80EE201ABDEEC10AA6
:1014700010EE100A00B205EBC50101EB41016D4A07
:1014800002EBC101888029466846FFF72DFE9DF8D2
:101490000B004D2819D19DF80C004F2815D100984C
:1014A000A0F23110C5B29DF80F0010B1012001E08B
:1014B0000BE0002005EBC50101EB41015D4A02F89C
:1014C000310029466846FFF70FFE0098B0F5487FC7
:1014D00031D10098A0F54870C5B29DF80B004D2899
:1014E0002AD19DF80C004F2826D100201DE09DF840
:1014F000101009B1012100E0002100EBC00202EB55
:1015000042024C4B03F8321000EBC00101EB4101E9
:101510001A4612F8311039B9002100EBC00202EB73
:10152000420203EBC2025170401C0428DFDB294653
:101530006846FFF7D9FD73E09DF80B0053281ED1D4
:101540009DF80C0050281AD1002415E03A490DF1FD
:101550000F0000F0E8FC3848008881B204EBC400BA
:1015600000EB4000334A02EBC000A0F846102946C9
:101570006846FFF7B9FD641C042CE7DB50E09DF8DA
:101580000B00502828D19DF80C00582824D10020A9
:101590001BE000EBC00101EB4101264A02EBC10157
:1015A000898A642211FB02F1244A11541146095C14
:1015B0000A120DF10B0101F8102020490B5C4100CB
:1015C000491C0DF10B025354401C0428E1DB294651
:1015D0006846FFF789FD23E000201BE000EBC00117
:1015E00001EB4101134A02EBC101898A642211FB1C
:1015F00002F1124A11541146095C0A120DF10B0155
:1016000001F810200D490B5C4100491C0DF10B0243
:101610005354401C0428E1DB29466846FFF764FD6B
:1016200000BF05B030BD0000EC71002010000020AC
:101630000000C842C86A00200C00002008000020FA
:101640001FB50121082005F0B0FC42F6DF600290D2
:101650000B20ADF804000020ADF80C00ADF806003A
:1016600001A9594805F059FE32208DF800000120EB
:101670008DF803008DF8010000208DF80200684607
:1016800004F075FA0121504806F0FCFA01221146D7
:101690004D4806F0E3FA01214B4805F0C7FE1FBD97
:1016A00070B50121484806F0F0FA002877D00121F2
:1016B000454806F0FBFA002482E004EBC40000EB8E
:1016C0004410424911F83000002878D004EBC400DF
:1016D00000EB441001EBC000407800286FD004EB11
:1016E000C40000EB441001EBC000C0780A2864D2AB
:1016F000DFE800F044051633632F575B635F04EBAC
:10170000C40101EB4411314A02EBC101D1ED010AE0
:10171000B0EE600A611CC8B2002102F0F0F94DE0A1
:1017200004EBC40202EB4412284B03EBC2029268A2
:1017300004EBC40303EB4413244D05EBC30393F8FC
:101740003C3102FB03F1621CD0B2002202F0AAFC81
:1017500034E0E0B202F00DF930E004EBC40101EB3B
:1017600044111A4A02EBC101D1ED480AB0EE600AF9
:10177000611CC8B2002102F0CEFE1FE004EBC401E0
:1017800001EB4411114A02EBC101D1ED040AB0EEA4
:10179000600A611CC8B2002102F067FE0EE012E090
:1017A0000DE0E0B202F0DAFC08E0E0B202F07EFA0E
:1017B00004E0E0B202F0FBF900E000BF00BF641CEF
:1017C000042CFFF67AAF70BD000C0040EC710020D5
:1017D00000B58BB00121880605F0E7FB012102204E
:1017E00005F0B0FB09220521FE4805F0F0F90922B9
:1017F0000621FC4805F0EBF902208DF81800602066
:10180000059005A9F74805F057F940208DF8280004
:1018100002208DF8290000208DF82A0001208DF883
:101820002B000AA804F0A3F941208DF8280002201B
:101830008DF829008DF82A0001208DF82B000AA8C8
:1018400004F095F9E84804F0FDF907A804F01EFB40
:1018500000208DF8220001208DF8230000208DF853
:1018600024008DF825008DF826008DF827008DF8CE
:101870001E008DF81F0008208DF8200003208DF831
:101880002100ADF81C0007A9D74804F0F4F90E2098
:101890008DF80E0001208DF80F0000208DF810004B
:1018A00044F22000ADF8040044F24000ADF8060018
:1018B00044F26000ADF808004FF48140ADF80A0032
:1018C0000020ADF80C0001208DF8110001A804F0F3
:1018D0005CFA0F208DF80E0001208DF80F0000201B
:1018E0008DF8100044F2A000ADF8040044F2C000EE
:1018F000ADF8060044F2E000ADF808004FF4824075
:10190000ADF80A000020ADF80C0001208DF81100A0
:1019100001A804F03AFA14208DF80E0000208DF88A
:101920000F0001208DF810000020ADF804004FF4E6
:101930009040ADF806004FF6FF70ADF808000020AB
:10194000ADF80A000120ADF80C008DF8110001A8D7
:1019500004F01BFA01221021A34804F015FD012216
:101960000221A14804F010FD0BB000BD10B586B0F7
:1019700002219D4804F070FD00287DD001AA0021BD
:10198000994804F0E6FB0198B0F5007F7ED90198F4
:10199000B0F5027F7AD89DF80D00002876D1019825
:1019A000401EC4B2914850F82400914941F82400E7
:1019B00008F06AFE8D4941F82400084650F82400DA
:1019C0008B4951F82410401A8A4941F824009DF8A7
:1019D00012109DF8110041EA002001B204EBC4008E
:1019E00000EB4000844A02EBC00001839DF8100028
:1019F0009DF80F1040EA012001B204EBC40000EB97
:101A0000400002EBC00001849DF814109DF8130003
:101A100041EA002001B204EBC40000EB400002EBFD
:101A2000C000C1829DF8151004EBC40000EB40001B
:101A300002EBC0004184204601F0AFF904EBC40082
:101A400000EB40006C4901EBC00090F83A00E0B9AF
:101A5000012104EBC40000EB4000674A02EBC00028
:101A600080F83A10002104EBC40000EB400002EBC8
:101A7000C000A0F8581001E011E007E004EBC4003A
:101A800000EB400002EBC000C16100BF02215648DC
:101A900004F07DFD0221544804F0BBFC00BF06B0F9
:101AA00010BD10B586B010214F4804F0D5FC0028B9
:101AB0007ED001AA01214C4804F04BFB10214A487A
:101AC00004F065FD1021484804F0A3FC9DF80C00CB
:101AD00004286ED19DF80D000028FAD100900298DC
:101AE00000F00F00401EC4B209210298B1EB102F84
:101AF00076D169460DF10F0000F015FA04EBC40130
:101B000001EB44113D4A02EBC10191F83C1190FBFD
:101B1000F1F104EBC40000EB441002EBC000C16122
:101B20006946B2EE040A0DF10F0000F022FA04EB50
:101B3000C40000EB4410314901EBC00080ED060AFF
:101B40006946B2EE040A0DF10F0000F012FA04EB40
:101B5000C40000EB4410294901EBC00080ED080AE5
:101B60000DF11601481E00F040F9BDF8151004EB08
:101B7000C40000EB4410214A02EBC000A0F80011A1
:101B800004EBC40000EB4410114601EBC000B0F8B8
:101B9000001104EBC40000EB441002EBC000B0F8ED
:101BA0000201081A00B204EBC40101EB441101E088
:101BB000F2E0F0E002EBC101A1F8FC0004EBC4008C
:101BC00000EB4410114601EBC00090F8FE0010B38A
:101BD000002104EBC40000EB441002EBC0000FE056
:101BE000CDE000000004024000680040F01000203A
:101BF000D010002010110020C86A0020EC710020D5
:101C000080F8FE10002004EBC40101EB441102EB4C
:101C1000C101A1F8FC0004EBC40000EB44106849CA
:101C200001EBC000B0F8001104EBC40000EB44105D
:101C3000634A02EBC000A0F8021104EBC40000EB01
:101C40004410114601EBC000B0F9FC00002808DD8B
:101C500004EBC40000EB441001EBC000B0F9FC0041
:101C600009E004EBC40000EB4410554901EBC0004F
:101C7000B0F9FC004042B0F5E16F27DD04EBC40091
:101C800000EB44104E4901EBC000B0F9FC0004EB3E
:101C9000C40101EB44114A4A02EBC101B1F9FC1045
:101CA000002902DA4FF0FF3100E00121C1EB4112BF
:101CB000C2EB0121A0EB011000B204EBC40101EB67
:101CC00044113F4A02EBC101A1F8FC0004EBC4003F
:101CD00000EB44103A4901EBC000806A04EBC401F8
:101CE00001EB4411364A02EBC101B1F9FC10014489
:101CF00004EBC40000EB441002EBC000816204EB73
:101D0000C40000EB4410114601EBC000416904EB34
:101D1000C40000EB441002EBC000806A091A04EB17
:101D2000C40000EB441002EBC000C0F80C1104EB3F
:101D3000C40000EB4410114601EBC0004078F0B144
:101D400004EBC40000EB441001EBC00090ED080A66
:101D500004EBC40000EB441001EBC00080ED410A2D
:101D600004EBC40000EB441001EBC000816A04EBFB
:101D7000C40000EB441002EBC000C0F8081108F0EA
:101D800083FC04EBC40101EB44110D4A02EBC101D9
:101D9000C1F8180100BF00BF06B010BD4168491C62
:101DA0004160002101730169491E0161818A491C5A
:101DB000322291FBF2F302FB131181827047000083
:101DC000EC710020012036494872704710B500F0D0
:101DD000C0FAFFF7F7FF02F089FF03F0ABF83148D4
:101DE00002F0DAFF01F06CFB10BD00220A780378E4
:101DF0000B700270704710B5082008F007FE04460B
:101E000000206060204610BD02460B46114605E0EA
:101E10000888984201D10846704749680029F7D1DF
:101E20000020F9E770B506460C46354600E06D68BF
:101E300015B16868A042FAD14CB16068686020466C
:101E400008F013FE18480078401E1749087070BD4E
:101E50002DE9F041074688463C4641462046FFF7BB
:101E6000D3FF08B1BDE8F081002602E06468701C71
:101E7000C6B20D480078B04201DD002CF6D16CB13D
:101E8000082008F0C3FD0546A5F80080606868607A
:101E9000656005480078401C0349087000BFE1E711
:101EA000301100200C7700201400002008B590EDC0
:101EB000000A8DED000ABDF800200A70BDF8002070
:101EC000120A4A70BDF802208A70BDF80220120A78
:101ED000CA7008BD08B502680092BDF800200A70FB
:101EE000BDF80020120A4A70BDF802208A70BDF8C1
:101EF0000220120ACA7008BD30B50C0E15686B1CA2
:101F000013604455C1F3074415686B1C13604455B6
:101F1000C1F3072415686B1C1360445515686B1CCE
:101F20001360415530BD10B502460B68D35C1C06EA
:101F30000B685B1CD35C44EA03440B689B1CD35CBA
:101F400044EA03230C68E41C145D43EA04000B68B4
:101F50001B1D0B6010BD10B502460B685B1CD35CEB
:101F60000C68145D43EA042318B20B689B1C0B60D9
:101F700010BD30B50446F0EE400A0D462946204615
:101F8000FFF7E9FF00EE100AB8EEC01A81EE200A52
:101F900030BD00001FB50121022005F006F85C48A5
:101FA00002900520ADF804000020ADF80600ADF861
:101FB0000C001D208DF8000003208DF80100012089
:101FC0008DF802008DF80300684603F0D0FD01A9EA
:101FD000504805F0A2F9012211464E4805F03EFE98
:101FE00001214C4805F022FA1FBD70B50121494876
:101FF00005F04BFE01287DD10121464805F056FE33
:10200000002479E004EBC40000EB4410424901EBEA
:10201000C00090F81001012830D104EBC40000EB9F
:10202000441011F8300048B308F02EFB04EBC40153
:1020300001EB4411384A02EBC101D1F81811411AE1
:1020400004EBC40000EB441002EBC000B0F81C012C
:10205000814213D904EBC40000EB4410114601EB9C
:10206000C00090F81401401CC1B204EBC40000EBA6
:10207000441002EBC00080F8141109E0002104EBC9
:10208000C40000EB4410244A02EBC00080F8141195
:1020900004EBC40000EB44101F4901EBC00090F8B2
:1020A000140114280ADD621C032343EA021242F4DD
:1020B00080711A4A5068FFF7CBFE19E0002104EB4B
:1020C000C40000EB4410144A02EBC00080F8421038
:1020D000621C032343EA021242F480710F4A5068E3
:1020E000FFF792FE05460D4948682946FFF79AFE1C
:1020F000601C00E00AE0C4B2042C83DB002403E08F
:10210000A0B201F09FF8641C042CF9DB70BD000044
:102110005FAE0A0000040040EC71002014000020B3
:10212000014608884A88904201D10120704700206A
:10213000FCE701464888401C322290FBF2F302FB88
:1021400013000A88904201D1012070470020FCE76B
:10215000002074494880088073494880088073498A
:1021600048800880724948800880704730B585B043
:1021700005460C462046FFF7D3FF08B105B030BD39
:102180002188201D00EB01100068B0F5407F2CD99C
:1021900000208DF808002188201D00EB0110006848
:1021A00000906448854205D101225E49624802F0F0
:1021B00012FC04E002225D49604802F00CFC218818
:1021C000201D00EB011000798DF80A0000208DF829
:1021D00009009DF80A202388201D00EB0310411DF3
:1021E0000DF10B0008F03BFD63E02188201D00EBA2
:1021F0000110006800F0704000B304208DF8080062
:102200002188201D00EB0110006820F07040019033
:102210002188201D00EB011000798DF80A000020B4
:102220008DF809009DF80A202388201D00EB03107B
:10223000411D0DF10B0008F012FD3AE02188201D30
:1022400000EB01100068082833D200208DF8080048
:102250002188201D00EB0110006800902188201DBE
:1022600000EB011000798DF80A002188201D00EB99
:102270000110006840F01F00092808D12188201DA6
:1022800000EB0110006840F01F00142803D000206C
:102290008DF8090002E002208DF809009DF80A205F
:1022A0002388201D00EB0310411D0DF10B0008F0E9
:1022B000D6FC2348854217D102221C491F4802F050
:1022C0008AFB2188201D00EB0110407B38B9208853
:1022D000401C322190FBF1F201FB12002080694684
:1022E000174803F041FE1AE01248854217D1012237
:1022F0000C49114802F06FFB0A480188001D00EBF1
:102300000110407B38B92088401C322190FBF1F24B
:1023100001FB120020806946064803F025FE00BF3D
:102320002CE70000F060002014640020CC5D002049
:102330003867002000640040982D0020D81300204A
:1023400000680040002239210A54C26100218182C4
:10235000704710B52DED0E8B4FF40050FE490880EC
:102360009FEDFE0B084680ED040B9FEDFE0A80ED0D
:10237000010A43F6991008814FF40050FA49088089
:102380009FEDFA0A084680ED010A42F228300881E2
:102390009FEDF70B084680ED040B0020F64908700E
:1023A0009FEDF60A084680ED010A012008724FF4FD
:1023B000FA604881012008734FF4FA6008824FF6F2
:1023C000E040C881012088742820ED4988830020DE
:1023D00048604FF47A70C8831822E349E94808F04E
:1023E00083FC0020E7497039087048700520887028
:1023F0003221E4487038C1800020E2497039888079
:102400006421E048703801811422DB493C3008F037
:102410006BFCDC487038B0F90810DFEDDB1A9FED7B
:10242000DB1ADFEDDB0AB0EE0C0AB03002F08EFBF7
:10243000D4487038C168F7EE001A9FEDD61ADFED68
:10244000D60AB1EE040A883002F080FB1822C64991
:10245000CC48D83008F048FC0020CA49703981F8CF
:10246000D8000021C748703880F8D910052180F8BD
:10247000DA103221A0F8DE100021A0F8DC1064216F
:10248000A0F8E0101422BC4900F58A7008F02CFC7A
:10249000BC487038B0F9E010DFEDBB1A9FEDBB1AF5
:1024A000DFEDBB0AB0EE0C0A00F5C47002F04EFB83
:1024B000B4487038D0F8E410F7EE001A9FEDB51A62
:1024C000DFEDB50AB1EE040A00F5B07002F03EFB94
:1024D0001822A549B14808F007FC0020A949703925
:1024E00081F8B0010021A748703880F8B1110521AA
:1024F00080F8B2113221A0F8B6110021A0F8B41171
:102500006421A0F8B81114229B4900F5F67008F078
:10251000EBFB9C487038B0F9B811DFED9B1A9FEDCA
:102520009B1ADFED9B0AB0EE0C0A00F5187002F062
:102530000DFB94487038D0F8BC11F7EE001A9FEDEF
:10254000951ADFED950AB1EE040A00F50E7002F05F
:10255000FDFA182284499148D83008F0C5FB0020C4
:102560008849703981F8880200218648703880F8DF
:102570008912052180F88A123221A0F88E120021DA
:10258000A0F88C124FF47A71A0F8901214227A49B4
:1025900000F5317008F0A8FB7A487038B0F9901255
:1025A000DFED791A9FED7C1ADFED7A0AB2EE000AB0
:1025B00000F54E7002F0CAFA72487038D0F89412E2
:1025C000F7EE001A9FED741ADFED720AB2EE000A00
:1025D00000F5447002F0BAFA002400E104EBC400F4
:1025E00000EB40006749703901EBC000644909689D
:1025F00001656348416804EBC40000EB4000614A98
:10260000703A02EBC000416504EBC40101EB4101EB
:1026100002EBC10101F1580018225949083108F0B4
:1026200063FB04EBC40101EB4101564A703A02EB33
:10263000C101B1F870000AF0E3FF41EC1A0B04EBA2
:10264000C40000EB40004F4A703A02EBC00090ED2E
:102650001D0A10EE101A08460BF040FA41EC1C0B54
:1026600004EBC40000EB4000464A703A02EBC000A5
:1026700090ED100A10EE101A08460BF02FFA41ECFC
:102680001E0B04EBC40000EB40003E49703901EB27
:10269000C00090ED201BB0EE410AF0EE610A53EC51
:1026A000102B51EC1E0B0AF0FBFF53EC1C2B0AF015
:1026B000F7FF53EC1A2B0AF0F3FF9FED390B53ECA5
:1026C000102B0AF095FD0AF057FF04EBC40101EB53
:1026D00041012C4A703A02EBC101086504EBC401C8
:1026E00001EB410102EBC101B1F870000AF088FF73
:1026F00041EC1A0B04EBC40000EB4000214A703A95
:1027000002EBC00090ED1D0A10EE101A08460BF007
:10271000E5F941EC1C0B04EBC40101EB4101194A42
:10272000703A02EBC101B1F904000AF052FF41EC2A
:102730001E0B04EBC40000EB40001249703901EBA2
:10274000C00090ED201BB0EE410AF0EE610A53ECA0
:10275000102B51EC1E0B27E0986A0020000000802F
:1027600087870F409A999941B06A00200000104273
:10277000000000000000F03F806A00200000E144FB
:10278000606A0020386B0020CDCCCC3E00000000F9
:102790008FC2F53DCDCC4C3E9A99993EE86C002015
:1027A00000000000008076400AF07AFF53EC1C2BFA
:1027B0000AF076FF53EC1A2B0AF072FF1FED080B9C
:1027C00053EC102B0AF014FD0AF0A6FE04EBC40132
:1027D00001EB4101FE4A02EBC101C860641C042CFC
:1027E000FFF6FCAE0020FB49C87088704870087185
:1027F0000870002314E003EBC30101EB4101F44A2C
:1028000002EBC100FFF79EFD4FF4FA6103EBC3003A
:1028100000EB4000EE4A02EBC000A0F846105B1C43
:10282000042BE8DBBDEC0E8B10BD10B5044604EBA9
:10283000C40000EB4000E64901EBC000D0ED260AE1
:1028400004EBC40000EB400001EBC000B0F908004D
:1028500000EE100AB8EEC00A20EE800ABDEEC00AF3
:1028600010EE100A04EBC40101EB4101D84A02EB5F
:10287000C101C1F8B00004EBC40000EB40001146F8
:1028800001EBC000B0F9181004EBC40000EB4000ED
:1028900002EBC000C0F8C81004EBC40101EB410119
:1028A00002EBC10101F1B00002F069F904EBC400D0
:1028B00000EB4000C64901EBC000C18804EBC40036
:1028C00000EB4000C24A02EBC000D0F8C40008444C
:1028D00001B204EBC40000EB400002EBC000C18079
:1028E00010BD10B5044604EBC40000EB4000B8492D
:1028F00001EBC000B0F94A0004EBC40101EB410157
:10290000B34A02EBC101C1F8B00004EBC40000EB14
:102910004000114601EBC000B0F9181004EBC400F0
:1029200000EB400002EBC000C0F8C81004EBC4018B
:1029300001EB410102EBC10101F1B00002F01FF90E
:1029400004EBC40000EB4000A14901EBC000C188CA
:1029500004EBC40000EB40009D4A02EBC000D0F83D
:10296000C400084401B204EBC40000EB400002EBD9
:10297000C000C18004EBC40000EB4000114601EB35
:10298000C000B0F8580090BB04EBC40000EB40005E
:1029900001EBC000C069002807DD04EBC40000EBB8
:1029A000400001EBC000C06908E004EBC40000EB8C
:1029B0004000874901EBC000C069404240F6C411A5
:1029C000884215DD04EBC40000EB4000804901EBB8
:1029D000C000B0F86000401C81B204EBC40000EB02
:1029E00040007B4A02EBC000A0F860100AE0FFE75D
:1029F000002104EBC40000EB4000754A02EBC0006C
:102A0000A0F8601004EBC40000EB4000704901EB3B
:102A1000C000B0F86000322839DD002104EBC400AA
:102A200000EB40006A4A02EBC000A0F860100020F2
:102A300004EBC40101EB410102EBC10188820021DA
:102A400004EBC40000EB400002EBC000C1610520B4
:102A500004EBC40101EB410102EBC10188700121CB
:102A600004EBC40000EB400002EBC00080F835101E
:102A7000002004EBC40101EB410102EBC10188809D
:102A8000012004EBC40101EB410102F8310010BD4B
:102A900010B52DED0E8B044604EBC40101EB410192
:102AA0004B4A02EBC101B1F870000AF0A9FD41ECFC
:102AB0001A0B04EBC40000EB4000454A02EBC000D7
:102AC00090ED1D0A10EE101A08460BF007F841ECC5
:102AD0001C0B04EBC40101EB41013D4A02EBC101B7
:102AE000B1F904000AF075FD41EC1E0B04EBC400C3
:102AF00000EB4000364901EBC00090ED201BB0EE2A
:102B0000410AF0EE610A53EC102B51EC1E0B0AF057
:102B1000C7FD53EC1C2B0AF0C3FD53EC1A2B0AF033
:102B2000BFFD1FEDE10B53EC102B0AF061FB0AF027
:102B3000F3FC04EBC40101EB4101254A02EBC101A6
:102B4000C86004EBC40000EB4000114601EBC0007C
:102B5000C06804EBC40101EB410102EBC101C1F803
:102B6000880004EBC40000EB4000114601EBC000FC
:102B7000407870B904EBC40000EB400001EBC000EA
:102B8000406D04EBC40101EB410102EBC101C1F84E
:102B9000880004EBC40000EB40000D4901EBC000CD
:102BA000C16904EBC40000EB4000094A02EBC0001D
:102BB000C0F8A01004EBC40101EB410102EBC1011C
:102BC00001F1880001F0DBFF04EBC40004E0000029
:102BD000C86A00201C00002000EB4000FE4901EB09
:102BE000C000D0ED260A04EBC40000EB400001EB6E
:102BF000C000D0F89C0000EE100AB8EEC00A20EE2B
:102C0000800ABDEEC00A10EE100A04EBC40101EB0D
:102C10004101F14A02EBC101C1F8B00004EBC4006C
:102C200000EB4000114601EBC00090F84400A8B34F
:102C300004EBC40000EB400001EBC000D0F8B00092
:102C4000002808DD04EBC40000EB400001EBC000ED
:102C5000D0F8B00009E004EBC40000EB4000DE490E
:102C600001EBC000D0F8B000404204EBC40101EB1E
:102C70004101D94A02EBC101B1F84610884221DD79
:102C800004EBC40000EB4000114601EBC000D0F89B
:102C9000B000002803DA4FF0FF3001E012E001201D
:102CA00004EBC40101EB4101CB4A02EBC101B1F8D5
:102CB0004610484304EBC40101EB410102EBC101A2
:102CC000C1F8B00004EBC40000EB4000C24901EBC6
:102CD000C000B0F9181004EBC40000EB4000BE4A7D
:102CE00002EBC000C0F8C81004EBC40101EB4101C5
:102CF00002EBC10101F1B00001F041FF04EBC4009F
:102D000000EB4000B44901EBC000C18804EBC400F3
:102D100000EB4000B04A02EBC000D0F8C400084409
:102D200001B204EBC40000EB400002EBC000C18024
:102D300004EBC40000EB4000114601EBC000C06D85
:102D4000002807DD04EBC40000EB400001EBC000ED
:102D5000C06D08E004EBC40000EB40009E4901EBAD
:102D6000C000C06D4042B4280ADA012004EBC4015F
:102D700001EB4101984A02EBC10181F8340009E0FE
:102D8000002004EBC40101EB4101934A02EBC101B5
:102D900081F83400BDEC0E8B10BD70B52DED088BA5
:102DA000044604EBC40000EB40008B4901EBC0007B
:102DB000018C04EBC40000EB4000874A02EBC0002A
:102DC000008E081A01B204EBC40000EB400002EBD5
:102DD000C000A0F8581004EBC40000EB40001146FE
:102DE00001EBC000808A04EBC40101EB410102EB5E
:102DF000C101888404EBC40000EB4000114601EBE4
:102E0000C000C18A04EBC40000EB400002EBC0002C
:102E1000C18404EBC40000EB4000114601EBC0008C
:102E2000018B04EBC40000EB400002EBC000018505
:102E300004EBC40000EB4000114601EBC000C16987
:102E400004EBC40000EB400002EBC000C16204EBE5
:102E5000C40000EB4000114601EBC000018C04EB04
:102E6000C40000EB400002EBC000018604EBC4008C
:102E700000EB4000114601EBC000418C04EBC400A4
:102E800000EB400002EBC000418604EBC40000EB05
:102E90004000114601EBC000B0F95800002808DDE1
:102EA00004EBC40000EB400001EBC000B0F9580097
:102EB00009E004EBC40000EB4000474901EBC0000F
:102EC000B0F95800404241F2360188422CDD04EB53
:102ED000C40000EB4000404901EBC000B0F95810BD
:102EE00004EBC40000EB40003B4A02EBC000B0F929
:102EF0005800002802DA4FF0FF3000E0012004EB18
:102F0000C40202EB4202344B03EBC202B2F870205F
:102F100000FB121001B204EBC40000EB40001A46A3
:102F200002EBC000A0F8581004EBC40000EB400016
:102F3000294901EBC000C16904EBC40000EB40006B
:102F4000254A02EBC000B0F95800014404EBC4006C
:102F500000EB400002EBC000C16104EBC40000EBD9
:102F60004000114601EBC000C16804EBC40000EB57
:102F7000400002EBC000C069091A04EBC40000EB7A
:102F8000400002EBC000C16504EBC40101EB41014C
:102F900002EBC101B1F870000AF032FB41EC190BF1
:102FA00004EBC40000EB40000B4901EBC000C0691A
:102FB00000EE100AB8EEC00ADFED080A20EE200A83
:102FC00004EBC40000EB400001EBC000D0ED1D0A93
:102FD00080EE201A04E00000C86A00200000B4431C
:102FE00011EE105A28460AF079FD41EC1B0B04EB58
:102FF000C40000EB4000F94901EBC00090ED201B3C
:10300000B0EE410AF0EE610A53EC102B51EC1B0BB1
:103010000AF0EEF853EC192B0AF0EAF80AF07CFA01
:1030200000B204EBC40101EB4101EC4A02EBC10127
:10303000888204EBC40000EB4000114601EBC000A5
:10304000407868B104EBC40000EB400001EBC00025
:10305000C16904EBC40000EB400002EBC000416515
:1030600004EBC40000EB4000DC4901EBC00090F829
:10307000390040B104EBC40101EB4101D74A02EB36
:10308000C100FFF75FF9BDEC088B70BD014601EB95
:10309000C10000EB4000D14A12F8300008B901200D
:1030A0007047CF48807C00287DD001EBC10000EB49
:1030B0004000CA4A02EBC0008078052873D101EBBA
:1030C000C10000EB400002EBC000C26901EBC1008F
:1030D00000EB4000C14B03EBC000C06A101A00288F
:1030E00010DD01EBC10000EB40001A4602EBC0000E
:1030F000C26901EBC10000EB400003EBC000C06AF5
:10310000101A10E001EBC10000EB4000B34A02EBE3
:10311000C000C26A01EBC10000EB4000AF4B03EB03
:10312000C000C069101AC8283DDA01EBC10000EBED
:103130004000AA4A02EBC000B0F91800002808DDE0
:1031400001EBC10000EB400002EBC000B0F9180039
:1031500009E001EBC10000EB4000A04A02EBC00017
:10316000B0F91800404264281EDA01EBC10000EB00
:1031700040009A4A02EBC00090F83400A0B901EB7D
:10318000C10000EB400002EBC000B0F86200401C40
:1031900082B201EBC10000EB4000904B03EBC0009A
:1031A000A0F862200AE04BE0002201EBC10000EB36
:1031B00040008A4B03EBC000A0F8622001EBC10085
:1031C00000EB4000854A02EBC000B0F8622001EB42
:1031D000C10000EB4000814B03EBC000B0F86E0073
:1031E000824209DD012201EBC10000EB400003EB4C
:1031F000C00080F8362009E0002201EBC10000EB9E
:103200004000764B03EBC00080F8362001EBC10094
:1032100000EB4000714A02EBC00090F83600012834
:103220000CD100026F4A1083002001EBC10202EBB7
:1032300042026A4B03F83200012031E700202FE7F9
:1032400000202DE710B5044604EBC40000EB40005D
:10325000624911F8300001285ED104EBC40000EB94
:10326000400001EBC00090F84F00E8B307F00CFA03
:103270005D4951F82410401A40F2DC51884214D3C1
:1032800004EBC40000EB4000544901EBC00090F88F
:103290006400401CC1B204EBC40000EB40004F4A84
:1032A00002EBC00080F8641009E0002104EBC400C8
:1032B00000EB4000494A02EBC00080F8641004EBC8
:1032C000C40000EB4000454901EBC00090F86410D9
:1032D00004EBC40000EB4000404A02EBC000B0F831
:1032E0006C0081420EDD00E016E0012104EBC40019
:1032F00000EB400002EBC00080F837101020394985
:10330000488309E0002104EBC40000EB4000334A8D
:1033100002EBC00080F8371010BD2DE9F04186B0F7
:1033200004460D4616461F464FF0000800208DF853
:103330000C008DF80D0008208DF80E004FF4007879
:10334000CDF804800020FFF7A1FE48B123480078A3
:10335000012805D1200A8DF80F008DF8104005E0F6
:1033600000208DF80F0000218DF810100120FFF7CC
:103370008DFE50B1194890F8D800012805D1290ACE
:103380008DF811108DF8125004E000218DF8111005
:103390008DF812100220FFF779FE50B10F4890F817
:1033A000B001012805D1310A8DF813108DF8146091
:1033B00004E000218DF813108DF814100320FFF79E
:1033C00065FE98B1054890F8880201280ED1390AA7
:1033D0008DF815108DF816700DE00000C86A0020F9
:1033E000806A002000000240D010002000218DF8EB
:1033F00015108DF8161001A92B4802F0B5FD06B086
:10340000BDE8F08100204BE000EBC00101EB410181
:10341000264A02EBC101B1F90610002908DD00EBD4
:10342000C00101EB410102EBC101B1F9061009E055
:1034300000EBC00101EB41011C4A02EBC101B1F9F3
:103440000610494200EBC00202EB4202174B03EBAD
:10345000C202B2F87820914220DD00EBC00101EBFE
:1034600041011A4602EBC101B1F90610002902DA46
:103470004FF0FF3100E0012100EBC00202EB4202FD
:103480000A4B03EBC202B2F8782051430AB200EBB8
:10349000C00101EB410103EBC101CA80411CC8B26C
:1034A0000828B1DB7047000000680040C86A0020AF
:1034B0004121095C19B1002241210A5482627047FE
:1034C00070B50720FE4908709FEDFE0A084680EDA2
:1034D000010A42F2107088600C20FB49087042F229
:1034E000107088601520F9490870B2EE040A084689
:1034F00080ED010A4FF47A7088600020F449087268
:1035000047F23050C8600120087441F288304861A9
:10351000B3EE0E0A084680ED010A6420ED494884A6
:1035200001208870EC48E84B0ECB3C300EC00020E8
:10353000EA4908704870C8709FEDE90A084680EDB6
:10354000010A002181609FEDE60A80ED040A4161D5
:103550004169F7EE001A9FEDE31ADFEDE30A9FEDF4
:10356000E30A443001F0F2FADC488168F7EE001A11
:10357000B7EE001ADFEDDE0A9FEDDE0A6C3001F0D7
:10358000E5FADFEDDD1A9FEDDD1ADFEDD50A9FEDDF
:10359000DC0AD1486C3801F0E9FADFEDD71A9FED6B
:1035A000D91ADFEDD90A9FEDD20ACB48383801F09D
:1035B000DDFAD648C44B0ECB3C300EC00020C749C4
:1035C00081F848010021C54880F8491180F84B1165
:1035D0009FEDC30A80ED530AC0F850119FEDC00A59
:1035E00080ED560AC0F85C114169F7EE001A9FEDB4
:1035F000BD1ADFEDBD0A9FEDBD0A00F5C67001F0F2
:10360000A5FAB6488168F7EE001AB7EE001ADFEDAA
:10361000B80A9FEDB80A00F5DA7001F097FADFED0D
:10362000B61A9FEDB61ADFEDAE0A9FEDB50AB748A0
:103630006C3801F09BFADFEDB01A9FEDB21ADFEDA6
:10364000B20A9FEDAB0AB148383801F08FFAB048A2
:103650009D4B0ECB3C300EC00020A04981F890025B
:1036600000219E4880F8911280F893129FED9C0AE9
:1036700080EDA50AC0F898129FED990A80EDA80A7E
:10368000C0F8A4124169F7EE001A9FED961ADFED1B
:10369000960A9FED960A00F5357001F057FA8F48AB
:1036A0008168F7EE001AB7EE001ADFED910A9FED80
:1036B000910A00F53F7001F049FADFED8F1A9FED96
:1036C0008F1ADFED870A9FED8E0A91486C3801F062
:1036D0004DFADFED891A9FED8B1ADFED8B0A9FED16
:1036E000840A8B48383801F041FA8A48764B0ECB71
:1036F0003C300EC00020794981F8D803002177487A
:1037000080F8D91380F8DB139FED750A80EDF70A76
:10371000C0F8E0139FED720A80EDFA0AC0F8EC13CE
:103720004169F7EE001A9FED6F1ADFED6F0A9FED0A
:103730006F0A00F21C4001F009FA68488168F7EE50
:10374000001AB7EE001ADFED6A0A9FED6A0A00F26E
:10375000444001F0FBF9DFED681A9FED681ADFEDD8
:10376000600A9FED670A6B486C3801F0FFF9DFEDE6
:10377000621A9FED641ADFED640A9FED5D0A6548E9
:10378000383801F0F3F9002467E004EBC40101EBE1
:103790004411524A02EBC100FFF78AFE04EBC40158
:1037A00001EB44114D4A02EBC10101F590701C225E
:1037B000474907F099FA4748008804EBC40101EB38
:1037C0004411464A02EBC101A1F8FC0004EBC4001D
:1037D00000EB4410114601EBC0003E494988A0F8B7
:1037E000FE103C48818804EBC40000EB441002EB5F
:1037F000C000A0F800113748C18804EBC40000EBFA
:10380000441002EBC000A0F8021104EBC40000EB6E
:103810004410114601EBC000FC302E4A9168D2687A
:10382000C0E902122B48016904EBC40000EB44100C
:103830002A4A02EBC000C0F80C1104EBC40000EBF4
:103840004410114601EBC000FC30224D6969AA69A1
:10385000EB692D6A14302EC0641C042C95DB70BDFE
:1038600030B52DED028B81B00446B0EE408A0D4696
:10387000002000909FED280A28EE000ABDEEC00A45
:1038800010EE101A254A5388121D02EB0312501D28
:103890006A46FEF731FB44F0704040F480611F48F7
:1038A0004288001D00EB021001600098C1B21B4865
:1038B0004288001D00EB02100171184841882FE07A
:1038C000887100200000704294710020A0710020D7
:1038D000AC710020C8710020EC720020EC71002057
:1038E00000000000713D0A3F0AD7233F8FC2754098
:1038F0006F12833A4260E53BCDCC4C3E17B7D139CD
:103900008FC2F53CBD37863517B7D13834740020E7
:103910007C750020C47600200024744914640020C3
:10392000001D00EB01104573FE484088401C322109
:1039300090FBF1F201FB1200FA4948800121601E60
:1039400000EBC00202EB4010F74A02EBC00080F827
:10395000101106F099FE611E01EBC10202EB41114C
:10396000F14A02EBC101C1F8180101B0BDEC028BB4
:1039700030BD10B5044604EBC40000EB4410EA4926
:1039800001EBC000D0F80C01002802DA4FF0FF3143
:1039900000E0012104EBC40000EB4410E24A02EB1A
:1039A000C000C069002802DA4FF0FF3000E00120BB
:1039B000814205D19FEDDD0ADD4880ED000A04E07B
:1039C0009FEDDC0ADA4880ED000A04EBC40000EB4E
:1039D0004410D54901EBC000D0F80C01002808DDE7
:1039E00004EBC40000EB441001EBC000D0F80C0164
:1039F00009E004EBC40000EB4410CB4901EBC0002C
:103A0000D0F80C01404200EE100AB8EEC00AC848D7
:103A1000D0ED000AB2EE041A60EE810AB4EEE00ABC
:103A2000F1EE10FA29DD04EBC40000EB4410BE49AE
:103A300001EBC00090ED080A04EBC40000EB441059
:103A400001EBC000D0F80C01002802DA4FF0FF3083
:103A500000E0012000EE900AF8EEE00AB44890ED94
:103A6000001A00EE810A04EBC40000EB4410AE49DA
:103A700001EBC00080ED030A25E004EBC40000EB7D
:103A80004410A94901EBC000D0F80C0100EE900AE7
:103A9000F8EEE00AB2EE041AC0EE811AB0EE610A46
:103AA00004EBC40000EB441001EBC000D0ED080AA9
:103AB00070EE800A04EBC40000EB441001EBC00080
:103AC000C0ED030A00BF04EBC40101EB4411964AA8
:103AD00002EBC10101F10C0001F0DFFA04EBC401BB
:103AE00001EB4411904A02EBC101D1ED030AB0EEA3
:103AF000600A611CC8B20021FFF7B2FE10BD30B5EC
:103B00002DED028B81B00446B0EE408A0D460020B8
:103B100000909FED890A28EE000ABDEEC00A10EE63
:103B2000101A804A5388121D02EB0312501D6A4678
:103B3000FEF7E2F944F0704040F480717948428821
:103B4000001D00EB021001600098C1B27548428868
:103B5000001D00EB0210017172484188001D00EB4E
:103B6000011045736F484088401C322190FBF1F2F0
:103B700001FB12006B4948800121601E00EBC0026E
:103B800002EB4010684A02EBC00080F8101106F00A
:103B90007BFD611E01EBC10202EB4111624A02EBA7
:103BA000C101C1F8180101B0BDEC028B30BD70B588
:103BB000044604EBC40202EB44125B4B03EBC2026B
:103BC000D2F8441104EBC40202EB441203EBC2022C
:103BD00002F1080001F0E5FA04EBC40000EB441028
:103BE000514901EBC000816804EBC40000EB4410B4
:103BF0004D4A02EBC000C0F8F81004EBC40303EB1D
:103C00004413154605EBC303DA6904EBC40303EB65
:103C1000441305EBC303996804EBC40303EB44139B
:103C200005EBC30303F1C80000F0DAFF04EBC400A6
:103C300000EB4410294601EBC00090ED3A0A04EB7A
:103C4000C40000EB441001EBC000D0ED500A20EEA0
:103C5000200A04EBC40000EB441001EBC00080ED2F
:103C6000010A04EBC40101EB44112A4602EBC10135
:103C7000D1ED490AB0EE600A04EBC40101EB441136
:103C800002EBC101081D01F070FA04EBC40101EB65
:103C900044112A4602EBC101D1ED010AB0EE600ADF
:103CA000611CC8B20021FFF72AFF70BD10B52DEDD1
:103CB000048B82B0044604EBC40000EB44101A49A4
:103CC00001EBC000D0F80C01002802DA4FF0FF3100
:103CD00000E0012104EBC40000EB4410124A02EBA7
:103CE000C000C069002802DA4FF0FF3000E0012078
:103CF000814205D19FED0D0A0D4880ED000A04E0D8
:103D00009FED0C0A0A4880ED000A04EBC40000EBAA
:103D10004410054901EBC000D0F80C01002816DD65
:103D20000CE0000014640020EC71002000002A4325
:103D3000240000200000B44200007A4404EBC400D8
:103D400000EB441001EBC000D0F80C0109E004EBDB
:103D5000C40000EB4410F84901EBC000D0F80C019E
:103D6000404200EE100AB8EEC00AF448D0ED000A56
:103D7000B2EE041A60EE810AB4EEE00AF1EE10FA37
:103D800029DD04EBC40000EB4410EB4901EBC0005B
:103D900090ED080A04EBC40000EB441001EBC000F6
:103DA000D0F80C01002802DA4FF0FF3000E00120CB
:103DB00000EE900AF8EEE00AE04890ED001A00EEFE
:103DC000810A04EBC40000EB4410DB4901EBC000A6
:103DD00080ED030A25E004EBC40000EB4410D64953
:103DE00001EBC000D0F80C0100EE900AF8EEE00AFA
:103DF000B2EE041AC0EE811AB0EE610A04EBC40000
:103E000000EB441001EBC000D0ED080A70EE800A10
:103E100004EBC40000EB441001EBC000C0ED030A4A
:103E200000BF04EBC40101EB4411C34A02EBC10122
:103E300001F10C0001F031F904EBC40000EB441077
:103E4000BD4901EBC00090ED081AF0EE410A04EB09
:103E5000C40000EB441001EBC00090ED031AB0EE7B
:103E6000410A01F003FAB0EE408A04EBC40000EB13
:103E70004410B14901EBC000807818B1B1EE480A96
:103E8000B0EE408A04EBC40000EB4410AA4901EBF9
:103E9000C00090ED250A20EE080A8DED010A04EB22
:103EA000C40000EB441001EBC00090ED260AA448CA
:103EB000D0ED000A60EE200AA24890ED000A08EE5C
:103EC000200A80ED000AA04890ED000A9C48D0ED41
:103ED000000A30EE200A9C4880ED000A9B4890EDD5
:103EE000000AB4EE408AF1EE10FA02D1DFED988AB2
:103EF00019E004EBC40000EB44108F4901EBC00053
:103F0000D0ED270A904890ED001A80EE810A8F4884
:103F1000D0ED000A78EE600A60EE208A9FED8C0AF0
:103F2000894880ED000A04EBC40000EB441082498C
:103F300001EBC000D0ED290A864890ED000A30EE72
:103F4000681A90ED000A00EEC10A80ED000A90EDBB
:103F5000000AF0EE408AB7EE000A01A801F005F968
:103F60009DED010AB0EEC00AF7EE000A30EEC00A7D
:103F7000B0EE409A734801F0F8F8744880ED008A7A
:103F80009DED010A6F48D0ED000A30EE200A30EEB8
:103F9000280A8DED000AF7EE000ABFEE000A684617
:103FA00001F0BCF804EBC40000EB4410624901EBE3
:103FB000C00090ED500ADDED000A20EE200A04EB6F
:103FC000C40000EB441001EBC00080ED010A04EBDB
:103FD000C40000EB441001EBC00090ED010AB5EE07
:103FE000C00AF1EE10FA08DD04EBC40000EB441047
:103FF00001EBC00090ED010A0AE004EBC40000EB05
:1040000044104D4901EBC00090ED010AB1EE400AA9
:1040100004EBC40000EB4410474901EBC000D0EDB5
:10402000490AB4EEE00AF1EE10FA27DD04EBC40011
:1040300000EB441001EBC00090ED010AB5EEC00AA0
:10404000F1EE10FA02D24FF0FF3000E0012000EE56
:10405000100AB8EEC00A04EBC40000EB4410364965
:1040600001EBC000D0ED490A20EE200A04EBC400A9
:1040700000EB441001EBC00080ED010A04EBC40129
:1040800001EB44112C4A02EBC101D1ED010AB0EE63
:10409000600A611CC8B20021FFF731FD02B0BDEC1F
:1040A000048B10BDF8B504460E461546002000905E
:1040B00029494A88091D01EB0211481D6A4631460B
:1040C000FDF71AFF44F0704040F4407122484288E6
:1040D000001D00EB021001600098C1B21E4842882A
:1040E000001D00EB021001711B484188001D00EB10
:1040F0000110457318484088401C322190FBF1F2B2
:1041000001FB1200144948800121601E00EBC0022F
:1041100002EB4010084A02EBC00080F8101106F0D4
:10412000B3FA611E01EBC10202EB4111024A02EB3C
:10413000C101C1F81801F8BDEC7100202400002075
:10414000280000202C000020340000203000002037
:1041500000000000380000201464002070B52DED30
:10416000048B044604EBC40000EB4410FE4901EB51
:10417000C000406904EBC40101EB4411FA4A02EBB0
:10418000C101486404EBC40000EB4410114601EB8C
:10419000C000407870B904EBC40000EB441001EBA0
:1041A000C000D0F8080104EBC40101EB441102EB9C
:1041B000C101486404EBC40000EB4410EA4901EB80
:1041C000C00090F8280168B3E848D0F888000028BB
:1041D00003DDE648D0F8880003E0E448D0F8880022
:1041E000404204EBC40101EB4411DF4A02EBC10180
:1041F000D1F82C11884215DDDC48D0F88800002861
:1042000002DA4FF0FF3000E0012004EBC40101EBC3
:104210004411D54A02EBC101D1F82C114843D349CE
:10422000C1F8880004EBC40000EB4410CE4901EB58
:10423000C000816A04EBC40000EB4410CA4A02EBE0
:10424000C000C16504EBC40101EB441102EBC101E4
:1042500001F1440000F093FC04EBC40101EB4411B4
:10426000C14A02EBC101886D09F0B3F941EC190BA9
:10427000B0EE490AF0EE690ABD4800F096FDB0EED6
:10428000408AF0EE608A51EC180B09F045F904EB16
:10429000C40101EB4411B44A02EBC1018865104628
:1042A00090F83001C8B304EBC40000EB4410114691
:1042B00001EBC000806D002807DD04EBC40000EBBB
:1042C000441001EBC000806D08E004EBC40000EB7B
:1042D0004410A54901EBC000806D4042A249D1F8CD
:1042E0003411884219DD04EBC40000EB44109E49F0
:1042F00001EBC000806D002802DA4FF0FF3000E0D3
:1043000001209949D1F83411484304EBC40101EB71
:104310004411954A02EBC101886504EBC40000EB2F
:104320004410914901EBC000D0F80C01002808DDD1
:1043300004EBC40000EB441001EBC000D0F80C010A
:1043400009E004EBC40000EB4410874901EBC00016
:10435000D0F80C0140423C280ADA012104EBC400E9
:1043600000EB4410804A02EBC00080F8431009E0E3
:10437000002104EBC40000EB44107B4A02EBC000B8
:1043800080F8431004EBC40202EB4412764B03EBBB
:10439000C202926D04EBC40303EB4413724D05EBB0
:1043A000C30393F83C3102FB03F1621CD0B200223C
:1043B000FFF778FEBDEC048B70BD30B52DED028BA0
:1043C00081B00446B0EE408A0D46002000909FED7B
:1043D000690A28EE000ABDEEC00A10EE101A664AFD
:1043E0005388121D02EB0312501D6A46FDF784FD2F
:1043F00044F0704040F480615F484288001D00EB4B
:10440000021001600098C1B25B484288001D00EBB9
:104410000210017158484188001D00EB01104573DE
:1044200055484088401C322190FBF1F201FB1200FC
:10443000514948800121601E00EBC00202EB401090
:10444000494A02EBC00080F8101106F01DF9611E08
:1044500001EBC10202EB4111434A02EBC101C1F879
:10446000180101B0BDEC028B30BD30B52DED028BD3
:1044700081B00446B0EE408A0D46002000909FEDCA
:104480003D0A28EE000ABDEEC00A10EE101A3A4AA4
:104490005388121D02EB0312501D6A46FDF72CFDD6
:1044A00044F0704034494A88091D01EB021108604C
:1044B0000098C1B230484288001D00EB0210017123
:1044C0002D484188001D00EB011045732A484088A3
:1044D000401C322190FBF1F201FB1200264948807A
:1044E0000121601E00EBC00202EB40101E4A02EBED
:1044F000C00080F8101106F0C7F8611E01EBC10280
:1045000002EB4111184A02EBC101C1F8180101B0D8
:10451000BDEC028B30BD30B52DED028B81B0044671
:10452000B0EE408A0D46002000909FED140A28EE60
:10453000000ABDEEC00A10EE101A0F4A5388121D71
:1045400002EB0312501D6A46FDF7D6FC44F07040A2
:1045500040F0020108484288001D00EB0210016093
:104560000098C1B204480BE0EC710020C86A00203A
:104570000C770020002474491464002000007A4461
:104580004288001D00EB021001719C484188001D0B
:1045900000EB0110457399484088401C322190FB84
:1045A000F1F201FB1200954948800121601E00EBE9
:1045B000C00202EB4010924A02EBC00080F81011DA
:1045C00006F062F8611E01EBC10202EB41118C4A58
:1045D00002EBC101C1F8180101B0BDEC028B30BD86
:1045E00030B52DED028B81B00446B0EE408A0D4609
:1045F000002000901FED1F0A28EE000ABDEEC00A41
:1046000010EE101A7D4A5388121D02EB0312501D42
:104610006A46FDF771FC44F0704040F00C017748A9
:104620004288001D00EB021001600098C1B273487F
:104630004288001D00EB0210017170484188001D86
:1046400000EB011045736D484088401C322190FBFF
:10465000F1F201FB1200694948800121601E00EB64
:10466000C00202EB4010664A02EBC00080F8101155
:1046700006F00AF8611E01EBC10202EB4111604A2B
:1046800002EBC101C1F8180101B0BDEC028B30BDD5
:1046900010B50446601E00EBC00101EB4010584904
:1046A00011F8300008B9012010BD5648407E00289E
:1046B0007AD0601E00EBC00101EB4010504901EBC5
:1046C000C000C07802286FD1601E00EBC00101EB72
:1046D00040104B4901EBC000C069002864D0601E47
:1046E00000EBC00101EB4010454901EBC000C0697F
:1046F000002809DD601E00EBC00101EB40104049BD
:1047000001EBC000C06909E0601E00EBC00101EBD5
:1047100040103B4901EBC000C0694042142816DA42
:10472000601E00EBC00101EB4010354901EBC000F9
:10473000B0F81201401C81B2601E00EBC00202EB17
:1047400040102F4A02EBC000A0F812110AE000212D
:10475000601E00EBC00202EB4010294A02EBC000D1
:10476000A0F81211601E00EBC00101EB40102449BB
:1047700001EBC000B0F81211601E00EBC00202EBAA
:1047800040101F4A02EBC000B0F81E0181420CDD50
:104790000121601E00EBC00202EB4010184A02EB40
:1047A000C00080F840100BE025E00021601E00EB07
:1047B000C00202EB4010124A02EBC00080F8401029
:1047C000601E00EBC00101EB40100D4901EBC00081
:1047D00090F8400001280CD101F0AAF90021601ED8
:1047E00000EBC00202EB4010054A02F83010012035
:1047F0005AE7002058E700BF56E700001464002085
:10480000EC710020AC71002030B502460023012974
:1048100004D10120CC4C2072062303E00120CA4CB5
:1048200060720823002029E000256724444302EB3E
:10483000C40425616724444302EBC4042573672440
:10484000444342F834506724444302EBC404656097
:104850006724444302EBC404E5826724444302EB2B
:10486000C404A5826724444302EBC404A560672402
:10487000444302EBC40484F82550401C9842D3DB27
:1048800030BD2DE9F04105460E4617464FF00008B1
:10489000012F02D14FF0060801E04FF00808002474
:1048A00094E06720604305EBC000006901287DDBD0
:1048B0003046FDF73EFC08B1BDE8F0816721614359
:1048C00005EBC10101F11400FDF72AFC30B1002114
:1048D0006720604305EBC0008160EDE7672060431F
:1048E00005EBC0000069401E6721614305EBC10173
:1048F00008616720604305EBC00018306721614301
:1049000005EBC101898A00EB011072880168301D36
:1049100000EB021001606720604305EBC000183017
:104920006721614305EBC101898A00EB0110017920
:104930007288301D00EB021001716720604305EBA7
:10494000C00018306721614305EBC101898A00EB83
:104950000110417B7288301D00EB02104173672308
:10496000634305EBC30318334FF0670C04FB0CFCE7
:1049700005EBCC0CBCF814C003EB0C13591DB6F8B6
:1049800002C0331D03EB0C131A79331D03EB0C1318
:10499000581D06F064F93088401C322190FBF1F27A
:1049A00001FB120030806720604300E00DE005EB62
:1049B000C000808A401C90FBF1F201FB120081B222
:1049C0006720604305EBC0008182641C4445FFF60C
:1049D00068AF00BF70E72DE9F04104460E46174668
:1049E0004FF00008FF253188301D00EB0110407B9F
:1049F00008B9BDE8F081012F02D14FF0060809E0A7
:104A00004FF008083188301D00EB01100088A0F23B
:104A1000013085B245450DDA6721694304EBC101D8
:104A200001F11400FDF785FB48B1012F03D10120EE
:104A30004549887286E001204349C87282E06720B8
:104A4000684304EBC0000069401C6721694304EB24
:104A5000C10108616720684354F83000401C672199
:104A6000694344F831003188301D00EB01100268C1
:104A70006720684304EBC00018306721694304EBEA
:104A8000C101C98A00EB011002603188301D00EBC2
:104A9000011002796720684304EBC00018306721D9
:104AA000694304EBC101C98A00EB0110027131882E
:104AB000301D00EB0110427B6720684304EBC0000F
:104AC00018306721694304EBC101C98A00EB01106A
:104AD000427367236B4304EBC30318334FF0670C37
:104AE00005FB0CFC04EBCC0CBCF816C003EB0C1360
:104AF0001A7967236B4304EBC30318334FF0670C39
:104B000005FB0CFC04EBCC0CBCF816C003EB0C133F
:104B1000581DB6F800C0331D03EB0C13591D06F0E9
:104B20009EF86720684304EBC000C08A401C322115
:104B300090FBF1F201FB120081B26720684304EBA5
:104B4000C000C18200BF54E7301100200022826102
:104B500080ED031AC0ED020A80ED010AC0ED041ACF
:104B60000160C261002303624362704780ED000A66
:104B7000C0ED010A80ED021AC0ED041A7047016809
:104B80008269891AC161C269016A511A00EE101A5C
:104B9000B8EEC00AD0ED010A20EE200A90ED021A0C
:104BA000C16900EE901AF8EEE00A01EE200AC2692F
:104BB000016A022303FB1122416A114400EE901A9C
:104BC000F8EEE00A90ED031A01EE200ABDEEC00AED
:104BD00010EE101A4161026A4262C26902627047B5
:104BE00070B504460D4616462563E662206BE16A01
:104BF000401A6062206B002801DD206B01E0206B11
:104C00004042142806DA9FED360A84ED060A606AEF
:104C1000A06270BD606A00EE100AB8EEC00AD4ED62
:104C2000000A20EE200ADFED2F0A80EE201A84ED24
:104C3000051A606A00EE100AB8EEC00AD4ED010A47
:104C400060EE200A9FED281A80EE810A9FED251A5A
:104C5000C0EE010A94ED060A30EE800A84ED060AE1
:104C6000606AA16A401A00EE100AB8EEC00AD4EDDC
:104C7000020A20EE200A84ED070A94ED030AD4ED1F
:104C8000070A70EE600A94ED030A94ED041A01EE2F
:104C9000600A84ED030A94ED030A84ED070AF7EE37
:104CA000000ABFEE000A04F1180000F037FA606A4B
:104CB000A06294ED050AD4ED060A30EE200AD4ED88
:104CC000070A30EE200A84ED080AF7EE000ABFEE6C
:104CD000000A04F1200000F021FA00BF99E700006B
:104CE000000000000000C84200007A441CB5012109
:104CF000084602F027F9F020009001208DF804000A
:104D000002208DF8050000208DF8060001208DF8A6
:104D1000070069461F4801F0CFFE10201D49088397
:104D20002020088340200883802008831CBD10B504
:104D3000102018494883322000F050F920201549EE
:104D40004883322000F04AF940201249488332203B
:104D500000F044F980200F494883322000F03EF9EA
:104D600010200C490883322000F038F9202009492E
:104D70000883322000F032F94020064908833220AF
:104D800000F02CF9802003490883322000F026F936
:104D900010BD0000000002409FED5E0A80ED000A99
:104DA0009FED5D0A80ED020A704710B52DED0C8B6A
:104DB0000446B0EE408AF0EE608A94ED020ADFED20
:104DC000570A30EEC00AD4ED000A20EE200A10EE99
:104DD000101A084608F082FE41EC1B0B94ED020A03
:104DE00010EE101A084608F079FE41EC1D0B53EC4A
:104DF000182B08F055FC41EC1C0B53EC1B2B08F056
:104E00003BF941EC1A0B9FED460B53EC102B08F0CD
:104E1000EFF941EC190B08F0FDF8606094ED010A20
:104E200084ED000A94ED010A10EE101A084608F00D
:104E300055FE41EC100BBDEC0C8B10BDB7EE000A1B
:104E400080ED020AB7EE000A80ED030AB7EE000A11
:104E500080ED050A9FED340A80ED060A9FED330AC6
:104E600080ED070A9FED2B0A80ED0C0A704710B504
:104E70002DED068B0446B0EE408A18EE100A08F0BD
:104E80002DFE41EC1A0BB0EE4A0AF0EE6A0A2848F1
:104E9000FFF78BFFB0EE409AF0EE609A51EC190BE1
:104EA00008F0B8F8206394ED050AD4ED070A30EE57
:104EB000200AD4ED050A80EE801A84ED0A1A94EDDA
:104EC0000C0AD4ED030A94ED091A00EEC10AD4EDE0
:104ED000090A94ED0A1A41EE000AC4ED080AD4ED5D
:104EE0000A0A94ED031AB7EE000A00EEC10AD4EDE7
:104EF000050A20EE200A84ED040A94ED040A84EDEC
:104F0000050A94ED080A84ED090A94ED080ABDEC3F
:104F1000068B10BD000000000000254400007A440C
:104F20000000000000408F40ACC52737CDCCCC3D01
:104F30000C7700201CB50121022002F003F84FF489
:104F40004070009001208DF8040000208DF80600CC
:104F500002208DF805006946154801F0ADFD4FF4BB
:104F60008071134801F024FE4FF40071104801F0E5
:104F700021FE1CBD70B50446112C00DD11240D4826
:104F8000055D002610E005F0010028B14FF4007126
:104F9000074801F00DFE04E04FF48071044801F071
:104FA00007FE6D10701CC6B2082EECDB70BD000051
:104FB00000040240C2DD0008704706E04FF4FA70BA
:104FC00000F00CF80920FFF7D5FFF7E700BFFEE778
:104FD00000BFFEE700BFFEE77047704710B5002135
:104FE00007E04AF2104200BF1300A2F10102FBD118
:104FF000491C8142F5D310BD10B5002106E02822DE
:1050000000BF1300A2F10102FBD1491C8142F6D37B
:1050100010BD00BF0100A0F1010290B2FAD17047AB
:1050200090ED001AB4EEC01AF1EE10FA12D290ED23
:10503000001A31EE201AB4EEC01AF1EE10FA06D2C0
:1050400090ED001A31EE201A80ED001A1BE080ED81
:10505000000A18E090ED001AB4EEC01AF1EE10FA52
:1050600011DD90ED001A31EE601AB4EEC01AF1EEC7
:1050700010FA06DD90ED001A31EE601A80ED001A8C
:1050800001E080ED000A7047F0EE401A31EE612A2F
:1050900070EEE12A82EE220A704710B50446D4ED84
:1050A000000AB0EE600ADFEDF90A07F0A5FA84ED18
:1050B000000A94ED000AB5EEC00AF1EE10FA07D22C
:1050C00094ED000ADFEDF10A30EE200A84ED000ACB
:1050D00010BD07E090ED000ADFEDED0A30EE200A8A
:1050E00080ED000A90ED000ADFEDEA0AB4EEE00A76
:1050F000F1EE10FAEED307E090ED000ADFEDE40ADE
:1051000030EE600A80ED000A90ED000ADFEDE20A61
:10511000B4EEE00AF1EE10FAEEDC70470146002032
:1051200091ED001AB4EEE01AF1EE10FA03DDC1EDD4
:10513000000A012009E091ED001AB4EEC01AF1EE68
:1051400010FA02D281ED000A0120704710B5034623
:1051500000201C68944202DD1A60012004E01C68F3
:105160008C4201DA1960012010BD01460020D1ED0A
:10517000000AF4EEC00AF1EE10FA03DD81ED000A38
:1051800001200DE0D1ED000AB1EE401AF4EEC10AA3
:10519000F1EE10FA04D2F1EE400AC1ED000A01204E
:1051A000704710B50246002013688B4202DD116083
:1051B000012006E04C421368A34202DA4B4213601E
:1051C000012010BDF0EE402A32EEE00A32EE613AE4
:1051D00020EE030A71EE603A80EE233A33EE210AA4
:1051E000704770B50446049D601AEE1A7043561A53
:1051F00090FBF6F0184470BDB0EE401A90ED000A36
:10520000B0EEC00AB4EEC10AF1EE10FA04D29FED7E
:10521000A30A80ED000A28E070EEC11A80EEA12AF0
:10522000B0EE420AD0ED001AF5EEC01AF1EE10FA17
:105230000CDDD0ED001A61EE801AB7EE002A32EED6
:10524000402A40EE821AC0ED001A0DE0D0ED001A9F
:10525000F1EE611A61EE801AB7EE002A32EE402AB2
:1052600050EEC21AC0ED001A00BF7047B0EE401AEF
:1052700071EE601AB0EE610A05E0DFED841A70EE9F
:10528000211AB0EE610ADFED861AB4EEE10AF1EE02
:1052900010FAF2D305E0DFED7D1A70EE611AB0EE80
:1052A000610ADFED801AB4EEE10AF1EE10FAF2DCE9
:1052B0007047B0EE401A71EE601AB0EE610A05E078
:1052C000DFED731A70EE211AB0EE610ADFED711A8C
:1052D000B4EEE10AF1EE10FAF2D305E0DFED6C1A5C
:1052E00070EE611AB0EE610ADFED6B1AB4EEE10AFE
:1052F000F1EE10FAF2DC7047B0EE402AB0EEC20ACE
:10530000DFED692A30EE220AB0EE401AF5EEC00A4F
:10531000F1EE10FA18DB30EEC13A70EE813A83EE0E
:10532000234AB0EE440A20EE003AF0EE432A9FED05
:105330005F3ADFED5F3A13EEA23ADFED5E3AF0EE50
:10534000631A43EE001A18E030EE813A71EE603ACB
:1053500083EE234AB0EE440A20EE003AF0EE432AF0
:105360009FED523ADFED523A13EEA23ADFED523A98
:10537000F0EE631A43EE001A00BFB5EEC02AF1EE5C
:1053800010FA02D2B1EE610A7047B0EE610AFBE793
:1053900005E0DFED3F0A70EE200AB0EE600ADFEDB7
:1053A0003D0AB4EEE00AF1EE10FAF2D305E0DFEDCB
:1053B000380A70EE600AB0EE600ADFED370AB4EE2C
:1053C000E00AF1EE10FAF2DCB5EEC00AF1EE10FAE6
:1053D00036D2DFED3A0A60EE200A9FED391A20EE50
:1053E000011A41EE000AC0ED000AD0ED000AF5EE08
:1053F000C00AF1EE10FA12D2D0ED000A90ED001AB8
:10540000D0ED001AF1EE611A51EE210A90ED001A6A
:10541000DFED2C1A01EEA01A80ED001A64E0D0ED49
:10542000000A90ED001AD0ED001A51EE210A90ED1D
:10543000001ADFED241A01EEA01A80ED001A53E0E5
:10544000DFED1E0A60EE200A9FED1D1A20EE011A04
:1054500041EE400AC0ED000AD0ED000AF5EEC00AA8
:10546000F1EE10FA30D2D0ED000A90ED001AD0ED36
:10547000001AF1EE611A51EE210A90ED001ADFEDEB
:10548000111A01EEA01A80ED001A2DE00000B443BD
:10549000DB0FC940DB0F49C0DB0F494000000000B3
:1054A000000034C30000344308E53C1EB1507B3F8C
:1054B000DE02493EDB0F493FE4CB164083F9A23FB1
:1054C0007B81CF3E6666663ED0ED000A90ED001A05
:1054D000D0ED001A51EE210A90ED001A5FED071A87
:1054E00001EEA01A80ED001ADFEDFD0A70EE200A31
:1054F000B0EE600A5FED180AB4EEE00AF1EE10FAC1
:1055000005DD5FED1D0A70EE600AB0EE600AB5EED3
:10551000C00AF1EE10FA36D25FED180A60EE200AEA
:105520001FED191A20EE011A41EE000AC1ED000A22
:10553000D1ED000AF5EEC00AF1EE10FA12D2D1ED6B
:10554000000A91ED001AD1ED001AF1EE611A51EE48
:10555000210A91ED001A5FED251A01EEA01A81EDE6
:10556000001A46E0D1ED000A91ED001AD1ED001AC3
:1055700051EE210A91ED001A5FED2E1A01EEA01AEC
:1055800081ED001A35E05FED330A60EE200A1FED71
:10559000341A20EE011A41EE400AC1ED000AD1EDA5
:1055A000000AF5EEC00AF1EE10FA12D2D1ED000AAF
:1055B00091ED001AD1ED001AF1EE611A51EE210AB7
:1055C00091ED001A5FED411A01EEA01A81ED001A6B
:1055D0000FE0D1ED000A91ED001AD1ED001A51EE65
:1055E000210A91ED001A5FED491A01EEA01A81ED32
:1055F000001A70473CB504460B4615461FED590A84
:10560000F0EE404A1FED5B0AB0EE405A002222E065
:1056100004EB8200D0ED000AB0EE600A694601A8F2
:10562000FFF7B6FE03EB8200D0ED000A9DED011AF4
:10563000B0EE640A01EE200AF0EE404A03EB82006D
:10564000D0ED000A9DED001AB0EE450A01EE200AE9
:10565000B0EE405A521CAA42DADBF0EE450AB0EE38
:10566000640AFFF749FE3CBDF0EE401AF4EEE01A82
:10567000F1EE10FA11D8F4EEC11AF1EE10FA0CD8CE
:10568000F4EEC10AF1EE10FA02D8B0EE602A01E0A1
:10569000B0EE412AB0EE420A22E0F4EEE10AF1EE69
:1056A00010FA11D8F4EEC10AF1EE10FA0CD8F4EEAB
:1056B000C11AF1EE10FA02D8B0EE612A01E0B0EEA4
:1056C000412AB0EE420A0BE0F4EEE01AF1EE10FAD5
:1056D00002D8B0EE612A01E0B0EE602AB0EE420AD4
:1056E000704710B503468B4208DC934206DC9142BA
:1056F00001DC0C4600E01446204610E0994208DC2C
:10570000914206DC934201DC1C4600E01446204630
:1057100005E08B4201DC1C4600E00C46204610BD33
:1057200008B5F0EE400AB6EE000A20EE800AB0EEB0
:10573000401ACDED000A6B490098A1EB6000009083
:105740009DED000A60EE011A9DED002AB7EE080AF1
:1057500001EEC20ADDED001A20EE210A8DED000AED
:105760009DED000A08BD70B52DED028B05460C4677
:10577000B0EE408A0026D5ED000A60EEA00A94ED56
:10578000001AD4ED001A41EE210AB0EE600A07F0CB
:10579000F9FAF0EE408AB0EEC80AB0EE408A9FED0A
:1057A000520AF4EEC08AF1EE10FA03D29FED4E0ACF
:1057B000F0EE408AF4EEC88AF1EE10FA11DDC8EE80
:1057C000280AB0EE600AD5ED000A60EE800AC5ED49
:1057D000000AD4ED000A60EE800AC4ED000A01263A
:1057E00000BF3046BDEC028B70BD05E05FEDD80A0E
:1057F00070EE200AB0EE600A5FEDDA0AB4EEE00A5D
:10580000F1EE10FAF2D305E05FEDDF0A70EE600A08
:10581000B0EE600A5FEDE00AB4EEE00AF1EE10FAD5
:10582000F2DCB5EEC00AF1EE10FA0CD25FEDDD0A43
:1058300060EE200A1FEDDE1A20EE011A41EE000A8A
:10584000C0ED000A0BE05FEDE30A60EE200A1FEDF9
:10585000E41A20EE011A41EE400AC0ED000ADFED25
:10586000200A70EE200AB0EE600A5FEDF50AB4EE91
:10587000E00AF1EE10FA05DD5FEDFB0A70EE600A5A
:10588000B0EE600AB5EEC00AF1EE10FA0CD25FED90
:10589000F50A60EE200A1FEDF61A20EE011A41EE1D
:1058A000000AC1ED000A0BE05FEDFC0A60EE200A81
:1058B0001FEDFD1A20EE011A41EE400AC1ED000A6B
:1058C0007047B0EE401AF0EEC11AB0EEE02AF4EEE6
:1058D000C21AF1EE10FA09D2B0EE410A08E0000057
:1058E000DB0FC93FDF59375FFFE6DB2EB0EE600A02
:1058F0007047B0EE401AF0EEC11AB0EEE02AF4EEB6
:10590000C21AF1EE10FA02DDB0EE410A01E0B0EE8B
:10591000600A704770B506460D4600202870802446
:105920000BE006EA0400A04201D171A000E071A0E2
:105930000146284605F087F96410002CF1DC70BDA3
:1059400010B52DED088BB0EE409AF0EE609AB0EEF7
:1059500041AA04469FED680AF0EE40AABFEE000A95
:10596000B4EEC09AF1EE10FA03D2BFEE000AB0EE28
:10597000409AB7EE000AB4EEC09AF1EE10FA03DDD9
:10598000B7EE000AB0EE409AF0EEC98AB5EEC09AC2
:10599000F1EE10FA02DBB0EE698A01E0B0EE4A8A5D
:1059A00034BBB5EEC08AF1EE10FA14DBB7EE001A84
:1059B00038EE011AF0EE410AB7EE001A31EE681A1D
:1059C000B0EE410A06F0D8FEF7EE000A30EEC00A4B
:1059D000F0EE40AA7EE0B7EE000A30EE480AF0EEA4
:1059E000400AB0EE680A06F0C7FEF0EE40AA71E089
:1059F000012C48D1B0EEC80A5FED450AB4EEE00ACA
:105A0000F1EE10FA02D2F0EE68AA63E0B5EEC08AB9
:105A1000F1EE10FA1EDBF7EE000A70EEE80A60EE17
:105A2000880AB0EE600A06F0F3FCF7EE000A30EEEA
:105A300060BAB0EE480A06F0EBFCF7EE000A70EE32
:105A4000600A8BEE200AF7EE000A30EEC00AF0EE94
:105A500040AA3FE0F1EE480A60EEA80AB0EE600A04
:105A600006F0D6FCF7EE000A30EE60BAB1EE480A56
:105A700006F0CEFCF7EE000A30EE600ACBEE000A2C
:105A8000F0EE60AA26E0022C22D1B5EEC08AF1EE3B
:105A900010FA10DBB7EE000A70EE680AB7EE000AE3
:105AA00008EE280A80EE801AB7EE000A30EE410AAE
:105AB000F0EE40AA0EE0B7EE000A70EE680AB7EE0C
:105AC000000A08EE600AC8EE800AF0EE60AA01E063
:105AD000F0EE68AAB5EEC09AF1EE10FA03D2B1EE7C
