:020000040800F2
:10000000D0B50020F56400081D3000081F3000083E
:100010003130000835300008393000080000000099
:100020000000000000000000000000003D3000085B
:100030003F300008000000007B870008DF890008CF
:100040000F6500080F6500080F6500080F650008C0
:100050000F6500080F6500080F6500080F650008B0
:100060000F6500080F6500080F6500080F650008A0
:100070000F6500080F6500080F6500080F65000890
:100080000F650008AB0F00080F6500080F6500083A
:100090000F6500080F6500080F6500080F65000870
:1000A0000F6500080F6500080F6500080F65000860
:1000B000FF030008470E00080F6500080F650008E1
:1000C0000F6500080F6500080F6500080F65000840
:1000D0000F650008810C0008D10F00080F650008AB
:1000E0000F6500080F6500080F6500080F65000820
:1000F0000F6500080F6500080F6500080F65000810
:100100000F6500080F650008A10600080F650008CC
:100110000F6500080F6500080F6500080F650008EF
:100120000F6500080F6500080F6500080F650008DF
:100130000F6500080F6500080F6500080F650008CF
:100140001B080008510900080F6500080F6500082A
:100150000F6500080F6500085B0C00080F650008BC
:100160000F6500080F6500080F6500080F6500089F
:100170000F6500080F6500080F6500080F6500088F
:100180000F6500080F65000800F002F800F053F852
:100190000AA090E8000C82448344AAF10107DA45E2
:1001A00001D100F048F8AFF2090EBAE80F0013F0E1
:1001B000010F18BFFB1A43F00103184760BC000091
:1001C00080BC0000103A24BF78C878C1FAD8520722
:1001D00024BF30C830C144BF04680C6070470000C1
:1001E0000023002400250026103A28BF78C1FBD840
:1001F000520728BF30C148BF0B607047642908F020
:10020000D584002070471FB50BF07BFB9DE80300F1
:1002100008F010FE09F08AFA0400002000210AF01C
:1002200017FF401C6060002000210AF0FBFEE06028
:100230001FBD10B510BD08F080FF1146FFF7E3FFAA
:1002400000F063F809F0F8F903B4FFF7F2FF03BC1C
:1002500009F066FA032003F09DFC0FE04FF4FA600A
:1002600008F094F94448007802F018FE4349B1F9C7
:10027000180000231A46194600F06DFDEEE7002035
:100280003F49087024E03E480078F0B13B4801F057
:100290007CFE42F228313948A0F846100520374943
:1002A00088704FF2047088800120087048703248CE
:1002B000007802F0F3FD642008F068F92E48007819
:1002C00002F0ECFD00202E490870642008F05EF971
:1002D000D9E770B50446002500BF08F096FB08F08A
:1002E0002BFA05460A23274A0021274807F008FE73
:1002F0000723264A0021264807F002FE052008F0C1
:100300007DF8284608F01CFA70BD10B506F058F8C4
:100310004FF4806101F007021E4B18684FF6FF038F
:1003200018401D4B034343EA02201A4B186000BFDC
:10033000062142F6DF6000F037F800F081F900F0A6
:10034000C5F800F0BBF900F0E9FB02F087FD01F011
:1003500051FA0221114802F00FFB00F073FB06F086
:1003600021FA05230E4A00210E4807F0C9FD06F0C8
:1003700040FB002010BD00000000002000670020AE
:10038000010000208C0C00207F0200088C08002057
:10039000550200080CED00E00000FA0514100020E2
:1003A0008C040020D30200087FB505460C460121CD
:1003B000084604F02CFE0295ADF804400020ADF88C
:1003C0000600ADF80C0001A94FF0804004F0D7FF03
:1003D0001C208DF8000001208DF801008DF802002E
:1003E0008DF80300684603F0F4FB012211469007E4
:1003F00005F066FC0121880705F04AF87FBD10B5BD
:100400000121880705F073FC012853D101218007E1
:1004100005F07EFC002432E004EBC40000EB400059
:10042000254911F8300028B304EBC40000EB40006C
:1004300001EBC0004078F0B104EBC40000EB4000D9
:1004400001EBC0008078012806D0022805D00428DE
:100450000BD005280DD104E00CE020B201F039FDED
:1004600008E020B201F06FFE04E020B201F094FD3C
:1004700000E000BF02E020B201F065FE641C052C24
:10048000CADB0D4CB4F98E32B4F9B621B4F9DE10E2
:10049000B4F9060002F0BBF902F015FA0749084862
:1004A00001F0B6F90748407A20B102220349064814
:1004B00002F09FFA10BD000000670020085A0020DB
:1004C00000680040FC0C00201410002000B58BB028
:1004D0000121480604F09BFD0121084604F064FD5B
:1004E00009220B21544804F0A4FB09220C21524894
:1004F00004F09FFB02208DF81C004FF4C0500690C2
:1005000006A94D4804F00AFB00208DF826008DF85E
:1005100027008DF828008DF829008DF82A008DF825
:100520002B008DF822008DF8230008208DF8240080
:1005300003208DF82500ADF8200008A93F4803F0FE
:10054000CCFB14208DF8040003208DF8050000205A
:100550008DF8060001208DF8070001A803F039FB93
:1005600001208DF812008DF8130000208DF8140082
:1005700046F2A000ADF8080046F2C000ADF80A004F
:1005800046F2E000ADF80C004FF4C240ADF80E00AA
:100590000020ADF8100001208DF8150002A803F02E
:1005A00026FC02208DF8120001208DF81300002097
:1005B0008DF814004FF4C840ADF8080046F2200052
:1005C000ADF80A0046F24000ADF80C0046F26000BB
:1005D000ADF80E000020ADF8100001208DF81500D8
:1005E00002A803F004FC03208DF8120001208DF80E
:1005F000130000208DF814004FF4C040ADF808003F
:100600000020ADF80A00ADF80C00ADF80E00ADF812
:10061000100001208DF8150002A803F0E8FB074840
:1006200003F042FB08A803F063FC01220221034807
:1006300003F0DCFE0BB000BD00000240006400408F
:100640001FB50121082004F0E2FC42F6DF600290B1
:100650000B20ADF804000020ADF80C00ADF806004A
:1006600001A9154804F08BFE32208DF8000001200E
:100670008DF803008DF8010000208DF80200684617
:1006800003F0A7FA01210C4805F02EFB01221146C8
:10069000094805F015FB0121074804F0F9FE1FBDCC
:1006A00010B50121044805F022FB18B101210248D0
:1006B00005F02EFB10BD0000000C004000B58BB013
:1006C0000121880604F0A3FC0121022004F06CFC47
:1006D00009220521D34804F0ACFA09220621D148A9
:1006E00004F0A7FA02208DF818006020059005A9F3
:1006F000CC4804F013FA40208DF8280002208DF831
:10070000290000208DF82A0001208DF82B000AA86E
:1007100003F05FFA41208DF8280002208DF82900AF
:100720008DF82A0001208DF82B000AA803F051FA59
:10073000BD4803F0B9FA07A803F0DAFB00208DF8F2
:10074000220001208DF8230000208DF824008DF870
:1007500025008DF826008DF827008DF81E008DF8F5
:100760001F0008208DF8200003208DF82100ADF82F
:100770001C0007A9AC4803F0B0FA0E208DF80E005B
:1007800001208DF80F0000208DF8100044F22000A9
:10079000ADF8040044F24000ADF8060044F26000F9
:1007A000ADF808004FF48140ADF80A000020ADF824
:1007B0000C0001208DF8110001A803F018FB0F2098
:1007C0008DF80E0001208DF80F0000208DF810002C
:1007D00044F2A000ADF8040044F2C000ADF80600F9
:1007E00044F2E000ADF808004FF48240ADF80A0092
:1007F0000020ADF80C0001208DF8110001A803F0D5
:10080000F6FA01221021884803F0F0FD01220221AE
:10081000854803F0EBFD0BB000BD10B586B002219A
:10082000814803F04BFE00287DD001AA00217E48BC
:1008300003F0C1FC0198B0F5007F7ED90198B0F5B6
:10084000027F7AD89DF80D00002876D10198401ECD
:10085000C4B2764850F82400754941F8240007F0E6
:1008600045FF724941F82400084650F824007049B9
:1008700051F82410401A6F4941F824009DF81210D5
:100880009DF8110041EA002001B204EBC40000EB26
:100890004000694A02EBC00001839DF810009DF8FA
:1008A0000F1040EA012001B204EBC40000EB40004D
:1008B00002EBC00001849DF814109DF8130041EA7A
:1008C000002001B204EBC40000EB400002EBC000CA
:1008D000C1829DF8151004EBC40000EB400002EB50
:1008E000C0004184204601F0B0FD04EBC40000EBE1
:1008F0004000514901EBC00090F83A00E0B90121F5
:1009000004EBC40000EB40004B4A02EBC00080F84F
:100910003A10002104EBC40000EB400002EBC000E1
:10092000A0F8581001E011E007E004EBC40000EB70
:10093000400002EBC000C16100BF02213A4803F051
:1009400058FE0221384803F096FD00BF06B010BDE6
:1009500000B585B01021344803F0B0FD68B16A4697
:100960000121314803F027FC10212F4803F041FEFC
:1009700010212D4803F07FFD00BF05B000BDF0B58C
:1009800085B007460D4600241220009001900020FB
:100990008DF808008DF809008DF80A5000BF05E0B9
:1009A000395D0DF10B000155601C84B2AC42F7DBE0
:1009B00069461D4803F00AFB0646002401E0601C5E
:1009C00084B23146184803F099FB18B940F6FF701D
:1009D0008442F4DB40F6FF70844202DB012005B064
:1009E000F0BD0020FBE730B585B0054600210E487C
:1009F00003F064FC10B9002005B030BD6A46002148
:100A0000094803F0D8FB002404E00DF10B00005D61
:100A10002855641C9DF80A00A042F6D89DF80A00EB
:100A2000EAE700000004024000680040BC0C00201F
:100A30009C0C0020DC0C00200067002001203549C0
:100A40004872704710B500F0CFFF03F089F8FFF748
:100A5000F5FF02F04BFA02F09FFA10BD00220A786F
:100A600003780B700270704710B5082008F000F88A
:100A7000044600206060204610BD02460B46114629
:100A800005E00888984201D1084670474968002966
:100A9000F7D10020F9E770B506460C46354600E070
:100AA0006D6815B16868A042FAD14CB160686860A1
:100AB000204608F00CF818480078401E16490870C7
:100AC00070BD2DE9F041074688463C464146204628
:100AD000FFF7D3FF08B1BDE8F081002602E06468AB
:100AE000701CC6B20C480078B04201DD002CF6D173
:100AF0006CB1082007F0BCFF0546A5F800806068CF
:100B00006860656004480078401C0349087000BFB5
:100B1000E1E70000FC0C00200400002000B597B0C5
:100B20000121084604F040FA0121102004F080FA67
:100B30000121880504F038FA07220921A34804F0AE
:100B400078F807220A21A14804F073F84FF4C06036
:100B5000119002208DF8480000208DF84A000220F4
:100B60008DF8490001208DF84B0011A9974803F03A
:100B7000D5FF4FF4E13013900020ADF85000ADF8F0
:100B80005200ADF85400ADF858000C20ADF85600F6
:100B900013A98F4805F0E6F98E4803F07DFD4FF06C
:100BA0000060019000200590402004908A48039046
:100BB0008748001D029000150790002006900990BC
:100BC00008900A904FF440300B9000200C900120C8
:100BD0000D9000200F900E9001A97E4803F0FEFDBD
:100BE0007E497C4803F0ADFE7C497A4803F004FF5F
:100BF00001221021774803F0B8FE46208DF840000E
:100C000005208DF8410001208DF842008DF8430049
:100C100010A802F0DEFF012280216D4805F0D7FA0E
:100C200001216B4805F026FA17B000BD70B50446E7
:100C30000D466B48007878B92A462146664808F088
:100C400040F82946634803F024FE0121614803F07F
:100C5000FFFD01206249087070BD10B55F495D4815
:100C600003F0A0FE01280AD15C495A4803F069FE4E
:100C70005A49584803F0C0FE00205949087010BD79
:100C800010B540F22551524805F0E5FA002844D04D
:100C900040F225514E4805F0D5FA40F225514C4816
:100CA00005F010FB4A4805F014FAC4B24D4800782C
:100CB00000F0400008B34B48007800F0800020BBF3
:100CC0000D2C06D14748007840F080004549087057
:100CD0001BE04448007800F03F0043490C54414871
:100CE0000078401C3F4908700846007800F03F003B
:100CF00020280ADD0020087007E0232C05D13948A0
:100D0000007840F04000374908703648007800F01D
:100D1000800010B100203349087010BD30B5024684
:100D20000B464FF6FF70002112E0555C684000242E
:100D30000AE000F0010525B14AF2010585EA6000EC
:100D400000E04010651CECB2082CF2DB4D1CE9B24F
:100D50009942EADB30BD2DE9FE4305460E461746B3
:100D60009846E8B28DF80000280A8DF80100F0B22C
:100D70008DF80200300A8DF80300F8B28DF80400F7
:100D8000380A8DF8050008F0FF008DF806004FEADC
:100D900018208DF8070008216846FFF7BFFF0446BA
:100DA0002046E11704EB11610912A4EB0121C9B23D
:100DB0008DF80810E11704EB1161090A8DF809108C
:100DC0000A216846FFF732FFBDE8FE8300000240BB
:100DD00000100140B8640240910F002000800028FC
:100DE0000C00002011000020C40F00201FB50121BD
:100DF000022004F00CF942F6DF6002900620ADF804
:100E000004000020ADF80600ADF80C001D208DF8A0
:100E1000000001208DF8010000208DF80200012063
:100E20008DF80300684602F0D4FE01A9104804F0D2
:100E3000A6FA012211460E4804F042FF01210C4897
:100E400004F026FB1FBD10B50121094804F04FFF37
:100E500001280BD10121064804F05AFF002403E0C9
:100E6000A0B201F069FC641C082CF9DB10BD000085
:100E70000004004000B597B00121084604F094F842
:100E80000121480404F0C3F80121480504F08CF85E
:100E900007220221FE4803F0CCFE07220321FC4872
:100EA00003F0C7FE0C20119002208DF848000020AE
:100EB0008DF84A0003208DF8490000208DF84B0082
:100EC00011A9F34803F02AFE4FF4E13013900020FB
:100ED000ADF85000ADF85200ADF85400ADF8580030
:100EE0000C20ADF8560013A9EA4805F03BF80122A2
:100EF00040F22551E74805F073F926208DF84000AF
:100F000004208DF8410001208DF842008DF8430047
:100F100010A802F05EFE0121DE4805F0ABF8DE48C5
:100F200003F0BAFB4FF000600190002005904020D4
:100F30000490DA480390D748001D029000150790EE
:100F400000200690099008900A904FF440300B90D2
:100F500000200C9001200D9000200F900E9001A910
:100F6000CD4803F03BFCCE49CB4803F0EAFCCC492A
:100F7000C94803F041FD01221021C74803F0F5FCE8
:100F800011208DF8400007208DF8410001208DF8D8
:100F900042008DF8430010A802F01BFE01228021C0
:100FA000BC4805F014F917B000BD10B5BC49BA48EB
:100FB00003F0F8FC01280AD1B949B74803F0C1FC95
:100FC000B749B54803F018FD0020B649C87310BDF5
:100FD00010B52DED028B002440F22531AD4805F00F
:100FE0003AF950B1AB4805F074F80020AE490870EA
:100FF0002021AE4807F0DCFE8EE240F22551A548E4
:1010000005F029F90028F7D02021A24805F01AF9A7
:1010100040F225519F4805F055F99E4805F059F8D2
:10102000C4B2A148007800F0400008B39E480078A0
:1010300000F0800020BBFF2C06D19B48007840F0D8
:101040008000994908701BE09748007800F03F0144
:101050009648445494480078401C934908700846C8
:10106000007800F03F0028280ADD0020087007E023
:10107000EE2C05D18C48007840F040008A49087079
:101080008948007800F080000028B5D0884890F8A2
:101090002102012804D1864890F82302854908706E
:1010A000834890F8230220B1012803D0052800D1FD
:1010B00010E128E27E4890F82502082822D17C48D9
:1010C00090F8260211281DD1794890F8270230287F
:1010D00006D0312808D032280AD0332810D10BE0AE
:1010E0000020754908700CE001207349087008E081
:1010F00002207149087004E003206F49087000E085
:1011000000BF00BF6A4890F82502092821D168482D
:1011100090F8260210281CD1654890F8280258B192
:10112000012814D16449097801EBC10101EB4101A7
:10113000624A02F831000BE000205F49097801EBB8
:10114000C10101EB41015D4A02F8310000E000BF3E
:1011500000BF574890F825020A2823D1544890F838
:10116000260210281ED1524890F8280260B10128AA
:1011700016D15149097801EBC10101EB41014F4AF8
:1011800002EBC10148700CE000204B49097801EBEB
:10119000C10101EB4101494A02EBC101487000E085
:1011A00000BF00BF424890F82502032834D14048D0
:1011B00090F8260211282FD13D4890F827023228B6
:1011C00004D034280ED0352824D117E002203A4923
:1011D000097801EBC10101EB4101384A02EBC10181
:1011E000887018E004203449097801EBC10101EB53
:1011F0004101324A02EBC10188700CE005202E4902
:10120000097801EBC10101EB41012C4A02EBC1015C
:10121000887000E000BF00BF254890F82502012833
:101220001CD1234890F82602112817D11F48C01D51
:1012300009F006F9B0EE408AF0EE608A51EC180B26
:101240000AF0F6F801B21C48007800EBC00000EB91
:1012500040001A4A02EBC000018154E1144890F8A2
:101260002502022835D1124890F82602112830D1E3
:101270000E48C01D09F0E4F8B0EE408AF0EE608A36
:1012800051EC180B0AF0D4F800B20B49097817E0BA
:101290000000024000440040A0600240310E0020E7
:1012A00000802020FC0C002013000020310F0020C3
:1012B000110D002012000020150000200067002002
:1012C00001EBC10101EB4101FE4A02EBC101888043
:1012D00019E118E1FC4890F82502022809D1FA48E2
:1012E00090F82602102804D1F8484088F5498880F3
:1012F00009E1F54890F82502072813D1F24890F843
:10130000260211280ED1F24809F09AF8B0EE408A70
:10131000F0EE608A51EC180B0AF08AF800B2E94945
:101320008880F0E0E84890F82502032809D1E648D3
:1013300090F82602102804D1E4488088E14988808A
:10134000E1E0E14890F82502082813D1DE4890F842
:10135000260211280ED1DE4809F072F8B0EE408A5C
:10136000F0EE608A51EC180B0AF062F800B2D54931
:101370008880C8E0D44890F82502042809D1D248D2
:1013800090F82602102804D1D048C088CD49888022
:10139000B9E0CD4890F82502092813D1CA4890F841
:1013A000260211280ED1CA4809F04AF8B0EE408A48
:1013B000F0EE608A51EC180B0AF03AF800B2C1491D
:1013C0008880A0E0C04890F82502052809D1BE48D1
:1013D00090F82602102804D1BC480089B9498880B9
:1013E00091E0B94890F825020A2813D1B64890F840
:1013F000260211280ED1B64809F022F8B0EE408A34
:10140000F0EE608A51EC180B0AF012F800B2AD4908
:10141000888078E0AC4890F82502062809D1AA48CF
:1014200090F82602102804D1A8484089A549888050
:1014300069E0A54890F825020B2813D1A24890F83E
:10144000260211280ED1A24808F0FAFFB0EE408A19
:10145000F0EE608A51EC180B09F0EAFF00B29949EE
:10146000888050E0984890F82502102813D19648BB
:1014700090F8260211280ED1954808F0E1FFB0EE51
:10148000408AF0EE608A51EC180B09F0D1FF01B2EE
:101490008C48018137E08C4890F82502112809D149
:1014A000894890F82602102804D101208549087047
:1014B000487028E0844890F825020E2809D1824817
:1014C00090F82602102804D1804800887D49888041
:1014D00019E07D4890F825020D2805D17A4890F84A
:1014E0002602102800D10EE0774890F82502112836
:1014F00008D1754890F82602102803D100207149C0
:10150000087000E000BF00BF002072490870202171
:101510006F48C01F07F04CFCBDEC028B10BD10B52E
:10152000044621466C4803F0B4F901216A4803F0EF
:101530008FF910BD70B50024EE222146641C674867
:101540004254B1222146641C425410222146641C9C
:10155000425400222146641C42542146641C4254D9
:101560002146641C425405222146641C4254102228
:101570002046611CCCB259490A5400222046611C05
:10158000CCB256490A5401222046611CCCB25349C0
:101590000A54FF222046611CCCB250490A54FC2256
:1015A0002046611CCCB24D490A54FF222046611CE2
:1015B000CCB24A490A542046611CCCB247490A546D
:1015C0004748007801287BD1EE222046611CCCB22E
:1015D00042490A54B1222046611CCCB23F490A5408
:1015E00012222046611CCCB23C490A5400222046FB
:1015F000611CCCB239490A5401222046611CCCB28C
:1016000036490A540025CDE005EBC50000EB40004B
:101610002C4901EBC0008078002852D000222046DF
:10162000611CCCB22D490A5401222046611CCCB267
:101630002A490A5400222046611CCCB227490A5488
:1016400005EBC50000EB40001E4901EBC000B0F9FE
:10165000182024A1244807F061FA234807F006FB6C
:10166000C2B22046611CCCB21C490A5408191E495A
:1016700007F0D8FA1C4807F0F9FA2044C4B2002257
:101680002046611CCCB215490A5402222046611C36
:10169000CCB212490A5400222046611CCCB20F4938
:1016A0000A5405EBC50000EB4000064901EBC00001
:1016B000B0F914200BA10C4807F030FA0A4815E0E5
:1016C00074E06EE000670020110D0020900C0020F7
:1016D000380F002013000020A0600240310E0020CF
:1016E0001200002025640000E40F002007F0BEFA7D
:1016F000C2B22046611CCCB22F490A5408192F49A6
:1017000007F090FA2D4807F0B1FA2044C4B2002245
:101710002046611CCCB228490A5409222046611C8B
:10172000CCB225490A5410222046611CCCB2224971
:101730000A5401222046611CCCB21F490A5405EB11
:10174000C50000EB40001E4901EBC0004278204676
:10175000611CCCB218490A5400222046611CCCB24C
:1017600015490A540A222046611CCCB212490A5477
:1017700010222046611CCCB20F490A540122204697
:10178000611CCCB20C490A5405EBC50000EB4000CB
:101790000B4901EBC00042782046611CCCB20649DF
:1017A0000A546D1C042DFFF62FAF00E000BF00BFF0
:1017B0002046FFF7B4FE70BD310E0020E40F00207C
:1017C00000670020014608884A88904201D1012024
:1017D00070470020FCE701464888401C322290FBFD
:1017E000F2F302FB13000A88904201D101207047F6
:1017F0000020FCE700207449488008807349488035
:101800000880734948800880724948800880704782
:1018100030B585B005460C462046FFF7D3FF08B12A
:1018200005B030BD2188201D00EB01100068B0F527
:10183000407F2CD900208DF808002188201D00EB66
:101840000110006800906448854205D101225E497C
:10185000624801F078F904E002225D49604801F035
:1018600072F92188201D00EB011000798DF80A0023
:1018700000208DF809009DF80A202388201D00EB28
:101880000310411D0DF10B0007F01BFA63E02188E6
:10189000201D00EB0110006800F0704000B3042030
:1018A0008DF808002188201D00EB0110006820F051
:1018B000704001902188201D00EB011000798DF807
:1018C0000A0000208DF809009DF80A202388201DB9
:1018D00000EB0310411D0DF10B0007F0F2F93AE0A7
:1018E0002188201D00EB01100068082833D2002059
:1018F0008DF808002188201D00EB01100068009081
:101900002188201D00EB011000798DF80A00218844
:10191000201D00EB0110006840F01F00092808D1CD
:101920002188201D00EB0110006840F01F001428E2
:1019300003D000208DF8090002E002208DF8090094
:101940009DF80A202388201D00EB0310411D0DF196
:101950000B0007F0B6F92348854217D102221C4933
:101960001F4801F0F0F82188201D00EB0110407B9A
:1019700038B92088401C322190FBF1F201FB1200A3
:1019800020806946174802F021FB1AE01248854280
:1019900017D101220C49114801F0D5F80A480188F5
:1019A000001D00EB0110407B38B92088401C32211B
:1019B00090FBF1F201FB120020806946064802F01C
:1019C00005FB00BF2CE700002C5D002050600020CC
:1019D000085A00207463002000640040D4290020CD
:1019E000141000200068004010B52DED0E8B4FF450
:1019F0000050FE4908809FEDFE0B084680ED040B69
:101A00009FEDFD0A80ED010A43F6991008814FF41D
:101A10000050FA4908809FEDFA0A084680ED010A55
:101A200042F2283008819FEDF70B084680ED040B49
:101A30000020F64908709FEDF60A084680ED010A7D
:101A4000012008724FF4FA604881012008734FF4B6
:101A5000FA6008824FF6E040C88100208874282090
:101A6000EC498883002048604FF47A70C8831822BC
:101A7000DE49E94807F06AF90020E7497039087043
:101A80004870052088700021E3487038C18000202C
:101A9000E149703988800021DF48703801811422C3
:101AA000DA493C3007F052F9DB487038B0F90810D9
:101AB000DFEDDA1A9FEDDA1ADFEDDA0AB2EE000A8C
:101AC000B03001F0FBF8D4487038C168F7EE001A66
:101AD0009FEDD31ADFEDD30AB2EE000A883001F091
:101AE000EDF81822C549CC48D83007F02FF900206E
:101AF000C949703981F8D8000021C748703880F88A
:101B0000D910052180F8DA106421A0F8DE10002138
:101B1000A0F8DC104FF47A71A0F8E0101422BB4951
:101B200000F58A7007F012F9BB487038B0F9E01080
:101B3000DFEDBA1A9FEDBA1ADFEDBA0AB2EE000A6B
:101B400000F5C47001F0BAF8B3487038D0F8E4106A
:101B5000F7EE001A9FEDB21ADFEDB20AB2EE000AFC
:101B600000F5B07001F0AAF81822A449AE4807F0B9
:101B7000EDF80020A849703981F8B0010021A6488D
:101B8000703880F8B111052180F8B2116421A0F8F5
:101B9000B6110021A0F8B4114FF47A71A0F8B81171
:101BA00014229A4900F5F67007F0D0F89A48703878
:101BB000B0F9B811DFED991A9FED9C1ADFED9C0A80
:101BC000B0EE0C0A00F5187001F078F89248703801
:101BD000D0F8BC11F7EE001A9FED921ADFED900AD3
:101BE000B1EE040A00F50E7001F068F8182283497E
:101BF0008D48D83007F0AAF800208749703981F85D
:101C0000880200218448703880F88912052180F804
:101C10008A126421A0F88E120021A0F88C124FF4D1
:101C20007A71A0F890121422784900F5317007F00B
:101C30008DF879487038B0F99012DFED781A9FED81
:101C4000781ADFED780AB2EE000A00F54E7001F066
:101C500035F871487038D0F89412F7EE001A9FEDFD
:101C6000701ADFED700AB2EE000A00F5447001F060
:101C700025F8002417E104EBC40000EB400066499E
:101C8000703901EBC000634909680165614841682A
:101C900004EBC40000EB40005F4A703A02EBC00066
:101CA000416504EBC40101EB410102EBC10101F10B
:101CB00058000A225749083107F048F85548418A28
:101CC00004EBC40000EB4000534A703A02EBC00042
:101CD000A0F8621004EBC40000EB4000114601EBD9
:101CE000C0004C4B59699A69DB6964300EC004EB43
:101CF000C40000EB4000484A703A02EBC00090ED8F
:101D00001D0A10EE101A084609F08AFD41EC1A0B64
:101D100004EBC40101EB41013F4A703A02EBC101FF
:101D2000B1F8700009F0F8FB41EC1C0B04EBC400A7
:101D300000EB4000384A703A02EBC00090ED100A08
:101D400010EE101A084609F06BFD41EC1E0B04EB77
:101D5000C40000EB40003049703901EBC00090ED49
:101D6000201BB0EE410AF0EE610A53EC102B51EC4F
:101D70001E0B09F021FC53EC1C2B09F01DFC53EC4D
:101D80001A2B09F019FC9FED2B0B53EC102B09F0CB
:101D9000BBF909F07DFB04EBC40101EB41011E4AD4
:101DA000703A02EBC101086504EBC40101EB41018B
:101DB00002EBC101B1F8700009F0AEFB41EC1A0B67
:101DC00004EBC40000EB4000134A703A02EBC00081
:101DD00090ED1D0A10EE101A084609F021FD41ECA5
:101DE0001C0B04EBC40101EB410127E0D06600208D
:101DF0000000008087870F409A999941E86600208B
:101E000000001042000000000000F03FB866002013
:101E10000000E1449866002070670020CDCCCC3EE5
:101E20009A99993ECDCC4C3E2069002000000000DC
:101E30008FC2F53D0000000000807640FE4A02EBB4
:101E4000C101B1F9040009F050FB41EC1E0B04EB99
:101E5000C40000EB4000F84901EBC00090ED201BEE
:101E6000B0EE410AF0EE610A53EC102B51EC1E0B60
:101E700009F0A2FB53EC1C2B09F09EFB53EC1A2B30
:101E800009F09AFB1FED150B53EC102B09F03CF9F0
:101E900009F0CEFA04EBC40101EB4101E64A02EB82
:101EA000C101C860641C082CFFF6E5AE00200BE001
:101EB0004FF4FA6200EBC00101EB4101DE4B03EB92
:101EC000C101A1F84620401C0428F1DBBDEC0E8BBB
:101ED00010BD10B5044604EBC40000EB4000D64929
:101EE00001EBC000D0ED260A04EBC40000EB40007B
:101EF00001EBC000B0F9080000EE100AB8EEC00A0D
:101F000020EE800ABDEEC00A10EE100A04EBC401F8
:101F100001EB4101C84A02EBC101C1F8B00004EB7A
:101F2000C40000EB4000114601EBC000B0F91810EE
:101F300004EBC40000EB400002EBC000C0F8C81086
:101F400004EBC40101EB410102EBC10101F1B0005E
:101F500000F0CDFE04EBC40000EB4000B64901EBFD
:101F6000C000C18804EBC40000EB4000B24A02EBA1
:101F7000C000D0F8C400084401B204EBC40000EB78
:101F8000400002EBC000C18010BD002239210A547C
:101F9000C26100218182704710B5044604EBC40081
:101FA00000EB4000A44901EBC000B0F94A0004EB8B
:101FB000C40101EB4101A04A02EBC101C1F8B0002C
:101FC00004EBC40000EB4000114601EBC000B0F987
:101FD000181004EBC40000EB400002EBC000C0F896
:101FE000C81004EBC40101EB410102EBC10101F196
:101FF000B00000F07CFE04EBC40000EB40008E4912
:1020000001EBC000C18804EBC40000EB40008A4A29
:1020100002EBC000D0F8C400084401B204EBC400D5
:1020200000EB400002EBC000C18004EBC40000EBF9
:102030004000114601EBC000B0F8580090BB04EB23
:10204000C40000EB400001EBC000C069002807DDC0
:1020500004EBC40000EB400001EBC000C06908E0E5
:1020600004EBC40000EB4000734901EBC000C06901
:10207000404240F6C411884215DD04EBC40000EB79
:1020800040006D4901EBC000B0F86000401C81B217
:1020900004EBC40000EB4000674A02EBC000A0F86C
:1020A00060100AE0FFE7002104EBC40000EB4000F1
:1020B000614A02EBC000A0F8601004EBC40000EB22
:1020C00040005D4901EBC000B0F86000322839DD06
:1020D000002104EBC40000EB4000574A02EBC000B3
:1020E000A0F86010002004EBC40101EB410102EBF9
:1020F000C1018882002104EBC40000EB400002EB28
:10210000C000C161052004EBC40101EB410102EBF9
:10211000C1018870012104EBC40000EB400002EB18
:10212000C00080F83510002004EBC40101EB410130
:1021300002EBC1018880012004EBC40101EB4101E5
:1021400002F8310010BD10B52DED0E8B044604EBE6
:10215000C40101EB4101384A02EBC101B1F8700042
:1021600009F0DAF941EC1A0B04EBC40000EB400073
:10217000314A02EBC00090ED1D0A10EE101A08461D
:1021800009F04EFB41EC1C0B04EBC40101EB4101D7
:10219000294A02EBC101B1F9040009F0A6F941ECAA
:1021A0001E0B04EBC40000EB4000234901EBC00010
:1021B00090ED201BB0EE410AF0EE610A53EC102BBB
:1021C00051EC1E0B09F0F8F953EC1C2B09F0F4F953
:1021D00053EC1A2B09F0F0F91FEDEA0B53EC102B1E
:1021E00008F092FF09F024F904EBC40101EB41016E
:1021F000114A02EBC101C86004EBC40000EB4000CF
:10220000114601EBC000C06804EBC40101EB4101C1
:1022100002EBC101C1F8880004EBC40000EB4000F0
:10222000114601EBC000407888B904EBC40000EB14
:10223000400001EBC00001E000670020406D04EBAE
:10224000C40101EB410102EBC101C1F8880004EBBC
:10225000C40000EB4000FE4901EBC000C16904EB83
:10226000C40000EB4000FA4A02EBC000C0F8A01026
:1022700004EBC40101EB410102EBC10101F1880053
:1022800000F035FD04EBC40000EB4000F04901EB29
:10229000C000D0ED260A04EBC40000EB400001EBC7
:1022A000C000D0F89C0000EE100AB8EEC00A20EE84
:1022B000800ABDEEC00A10EE100A04EBC40101EB67
:1022C0004101E34A02EBC101C1F8B00004EBC400D4
:1022D00000EB4000114601EBC00090F84400A8B3A9
:1022E00004EBC40000EB400001EBC000D0F8B000EC
:1022F000002808DD04EBC40000EB400001EBC00047
:10230000D0F8B00009E004EBC40000EB4000D04975
:1023100001EBC000D0F8B000404204EBC40101EB77
:102320004101CB4A02EBC101B1F84610884221DDE0
:1023300004EBC40000EB4000114601EBC000D0F8F4
:10234000B000002803DA4FF0FF3001E012E0012076
:1023500004EBC40101EB4101BD4A02EBC101B1F83C
:102360004610484304EBC40101EB410102EBC101FB
:10237000C1F8B00004EBC40000EB4000B44901EB2D
:10238000C000B0F9181004EBC40000EB4000B04AE4
:1023900002EBC000C0F8C81004EBC40101EB41011E
:1023A00002EBC10101F1B00000F0A1FC04EBC4009C
:1023B00000EB4000A64901EBC000C18804EBC4005B
:1023C00000EB4000A24A02EBC000D0F8C400084471
:1023D00001B204EBC40000EB400002EBC000C1807E
:1023E00004EBC40000EB4000114601EBC000C06DDF
:1023F000002807DD04EBC40000EB400001EBC00047
:10240000C06D08E004EBC40000EB4000904901EB14
:10241000C000C06D4042B4280ADA012004EBC401B8
:1024200001EB41018A4A02EBC10181F8340009E065
:10243000002004EBC40101EB4101854A02EBC1011C
:1024400081F83400BDEC0E8B10BD70B52DED088BFE
:10245000044604EBC40000EB40007D4901EBC000E2
:10246000018C04EBC40000EB4000794A02EBC00091
:10247000008E081A01B204EBC40000EB400002EB2E
:10248000C000A0F8581004EBC40000EB4000114657
:1024900001EBC000808A04EBC40101EB410102EBB7
:1024A000C101888404EBC40000EB4000114601EB3D
:1024B000C000C18A04EBC40000EB400002EBC00086
:1024C000C18404EBC40000EB4000114601EBC000E6
:1024D000018B04EBC40000EB400002EBC00001855F
:1024E00004EBC40000EB4000114601EBC000C169E1
:1024F00004EBC40000EB400002EBC000C16204EB3F
:10250000C40000EB4000114601EBC000018C04EB5D
:10251000C40000EB400002EBC000018604EBC400E5
:1025200000EB4000114601EBC000418C04EBC400FD
:1025300000EB400002EBC000418604EBC40000EB5E
:102540004000114601EBC000B0F95800002808DD3A
:1025500004EBC40000EB400001EBC000B0F95800F0
:1025600009E004EBC40000EB4000394901EBC00076
:10257000B0F95800404241F2360188422CDD04EBAC
:10258000C40000EB4000324901EBC000B0F9581024
:1025900004EBC40000EB40002D4A02EBC000B0F990
:1025A0005800002802DA4FF0FF3000E0012004EB71
:1025B000C40202EB4202264B03EBC202B2F87020C7
:1025C00000FB121001B204EBC40000EB40001A46FD
:1025D00002EBC000A0F8581004EBC40000EB400070
:1025E0001B4901EBC000C16904EBC40000EB4000D3
:1025F000174A02EBC000B0F95800014404EBC400D4
:1026000000EB400002EBC000C16104EBC40000EB32
:102610004000114601EBC000C16804EBC40000EBB0
:10262000400002EBC000C069091A04EBC40000EBD3
:10263000400002EBC000C16504EBC40101EB4101A5
:1026400002EBC101B1F8700008F066FF02E0000083
:102650000067002041EC190B04EBC40000EB4000C4
:10266000C14901EBC000C06900EE100AB8EEC00A13
:10267000DFEDBE0A20EE200A04EBC40000EB4000B0
:1026800001EBC000D0ED1D0A80EE201A11EE105AA9
:10269000284609F0C5F841EC1B0B04EBC40000EB25
:1026A0004000B14901EBC00090ED201BB0EE410AA3
:1026B000F0EE610A53EC102B51EC1B0B08F024FDDB
:1026C00053EC192B08F020FD08F0B2FE00B204EB29
:1026D000C40101EB4101A44A02EBC101888204EB71
:1026E000C40000EB4000114601EBC000407868B127
:1026F00004EBC40000EB400001EBC000C16904EB37
:10270000C40000EB400002EBC000416504EBC400D4
:1027100000EB4000944901EBC00090F8390040B153
:1027200004EBC40101EB41018F4A02EBC100FFF74A
:102730002CFCBDEC088B70BD10B5044604EBC40046
:1027400000EB4000884911F8300001285ED104EB0D
:10275000C40000EB400001EBC00090F84E00E8B36D
:1027600005F0C4FF824951F82410401A40F2DC51B0
:10277000884214D304EBC40000EB40007A4901EB1B
:10278000C00090F86400401CC1B204EBC40000EB30
:102790004000754A02EBC00080F8641009E0002197
:1027A00004EBC40000EB40006F4A02EBC00080F86D
:1027B000641004EBC40000EB40006B4901EBC00067
:1027C00090F8641004EBC40000EB4000664A02EB92
:1027D000C000B0F86C0000EB800000E016E04000A4
:1027E000814209DD012104EBC40000EB400002EB53
:1027F000C00080F8371009E0002104EBC40000EBB2
:102800004000594A02EBC00080F8371010BD2DE996
:10281000F04186B004460D4616461F464FF00008AC
:1028200000208DF80C008DF80D0008208DF80E00AA
:102830004FF40078CDF804804B480078012805D18A
:10284000200A8DF80F008DF8104005E000208DF86B
:102850000F0000218DF81010434890F8D80001288F
:1028600005D1290A8DF811108DF8125004E00021CD
:102870008DF811108DF812103B4890F8B001012826
:1028800005D1310A8DF813108DF8146004E0002191
:102890008DF813108DF81410334890F88802012831
:1028A00005D1390A8DF815108DF8167004E0002155
:1028B0008DF815108DF8161001A92E4801F086FB31
:1028C00006B0BDE8F08100204BE000EBC00101EB59
:1028D0004101254A02EBC101B1F90610002908DDCA
:1028E00000EBC00101EB410102EBC101B1F906109F
:1028F00009E000EBC00101EB41011B4A02EBC10101
:10290000B1F90610494200EBC00202EB4202164B3D
:1029100003EBC202B2F87820914220DD00EBC00147
:1029200001EB41011A4602EBC101B1F90610002981
:1029300002DA4FF0FF3100E0012100EBC00202EBB0
:102940004202094B03EBC202B2F8782051430AB2AB
:1029500000EBC00101EB410103EBC101CA80411C46
:10296000C8B20828B1DB7047006700200000B443FC
:102970009C0C00200068004030B50246002301296D
:1029800004D10120CC4C2072062303E00120CA4C64
:1029900060720823002029E000256724444302EBED
:1029A000C40425616724444302EBC40425736724EF
:1029B000444342F834506724444302EBC404656046
:1029C0006724444302EBC404E5826724444302EBDA
:1029D000C404A5826724444302EBC404A5606724B1
:1029E000444302EBC40484F82550401C9842D3DBD6
:1029F00030BD2DE9F04105460E4617464FF0000860
:102A0000012F02D14FF0060801E04FF00808002422
:102A100094E06720604305EBC000006901287DDB7E
:102A20003046FEF7D8FE08B1BDE8F081672161436A
:102A300005EBC10101F11400FEF7C4FE30B1002125
:102A40006720604305EBC0008160EDE767206043CD
:102A500005EBC0000069401E6721614305EBC10121
:102A600008616720604305EBC000183067216143AF
:102A700005EBC101898A00EB011072880168301DE5
:102A800000EB021001606720604305EBC0001830C6
:102A90006721614305EBC101898A00EB01100179CF
:102AA0007288301D00EB021001716720604305EB56
:102AB000C00018306721614305EBC101898A00EB32
:102AC0000110417B7288301D00EB021041736723B7
:102AD000634305EBC30318334FF0670C04FB0CFC96
:102AE00005EBCC0CBCF814C003EB0C13591DB6F865
:102AF00002C0331D03EB0C131A79331D03EB0C13C7
:102B0000581D06F0DEF83088401C322190FBF1F2AF
:102B100001FB120030806720604300E00DE005EB10
:102B2000C000808A401C90FBF1F201FB120081B2D0
:102B30006720604305EBC0008182641C4445FFF6BA
:102B400068AF00BF70E72DE9F04104460E46174616
:102B50004FF00008FF253188301D00EB0110407B4D
:102B600008B9BDE8F081012F02D14FF0060809E055
:102B70004FF008083188301D00EB01100088A0F2EA
:102B8000013085B245450DDA6721694304EBC10187
:102B900001F11400FEF71FFE48B1012F03D10120FF
:102BA0004549887286E001204349C87282E0672067
:102BB000684304EBC0000069401C6721694304EBD3
:102BC000C10108616720684354F83000401C672148
:102BD000694344F831003188301D00EB0110026870
:102BE0006720684304EBC00018306721694304EB99
:102BF000C101C98A00EB011002603188301D00EB71
:102C0000011002796720684304EBC0001830672187
:102C1000694304EBC101C98A00EB011002713188DC
:102C2000301D00EB0110427B6720684304EBC000BD
:102C300018306721694304EBC101C98A00EB011018
:102C4000427367236B4304EBC30318334FF0670CE5
:102C500005FB0CFC04EBCC0CBCF816C003EB0C130E
:102C60001A7967236B4304EBC30318334FF0670CE7
:102C700005FB0CFC04EBCC0CBCF816C003EB0C13EE
:102C8000581DB6F800C0331D03EB0C13591D06F098
:102C900018F86720684304EBC000C08A401C32214A
:102CA00090FBF1F201FB120081B26720684304EB54
:102CB000C000C18200BF54E7FC0C002000228261EA
:102CC00080ED031AC0ED020A80ED010AC0ED041A7E
:102CD0000160C261002303624362704780ED000A15
:102CE000C0ED010A80ED021AC0ED041A70470168B8
:102CF0008269891AC161C269016A511A00EE101A0B
:102D0000B8EEC00AD0ED010A20EE200A90ED021ABA
:102D1000C16900EE901AF8EEE00A01EE200AC269DD
:102D2000016A022303FB1122416A114400EE901A4A
:102D3000F8EEE00A90ED031A01EE200ABDEEC00A9B
:102D400010EE101A4161026A4262C2690262704763
:102D500070B504460D4616462563E662206BE16AAF
:102D6000401A6062206B002801DD206B01E0206BBF
:102D70004042142806DA9FED360A84ED060A606A9E
:102D8000A06270BD606A00EE100AB8EEC00AD4ED11
:102D9000000A20EE200ADFED2F0A80EE201A84EDD3
:102DA000051A606A00EE100AB8EEC00AD4ED010AF6
:102DB00060EE200A9FED281A80EE810A9FED251A09
:102DC000C0EE010A94ED060A30EE800A84ED060A90
:102DD000606AA16A401A00EE100AB8EEC00AD4ED8B
:102DE000020A20EE200A84ED070A94ED030AD4EDCE
:102DF000070A70EE600A94ED030A94ED041A01EEDE
:102E0000600A84ED030A94ED030A84ED070AF7EEE5
:102E1000000ABFEE000A04F1180000F0B1F9606A80
:102E2000A06294ED050AD4ED060A30EE200AD4ED36
:102E3000070A30EE200A84ED080AF7EE000ABFEE1A
:102E4000000A04F1200000F09BF900BF99E70000A0
:102E5000000000000000C84200007A441CB50121B7
:102E6000042002F0A1F84FF44060009000208DF89B
:102E7000060001208DF8040002208DF80500694647
:102E8000194801F04BFE4FF48061174801F0C2FE73
:102E90004FF40061144801F0BFFE1CBD70B504463C
:102EA000FF2C00DDFF2400251AE04FF480610E485E
:102EB00001F0B2FE04F0010028B14FF400610A48AD
:102EC00001F0A8FE04E04FF40061074801F0A4FE01
:102ED0004FF48061044801F09DFE6410681CC5B287
:102EE000082DE2DB70BD0000000802401CB5012186
:102EF000084602F059F8F020009001208DF80400F7
:102F000002208DF8050000208DF8060001208DF8C4
:102F1000070069461F4801F001FE10201D49088383
:102F20002020088340200883802008831CBD10B522
:102F3000102018494883642000F082F820201549A9
:102F40004883642000F07CF84020124948836420C4
:102F500000F076F880200F494883642000F070F874
:102F600010200C490883642000F06AF820200949E9
:102F70000883642000F064F8402006490883642038
:102F800000F05EF8802003490883642000F058F8C0
:102F900010BD0000000002401CB50121022002F01B
:102FA00003F84FF44070009001208DF804000020D9
:102FB0008DF8060002208DF805006946154801F0DD
:102FC000ADFD4FF48071134801F024FE4FF4007101
:102FD000104801F021FE1CBD70B50446112C00DD27
:102FE00011240D48055D002610E005F0010028B110
:102FF0004FF40071074801F00DFE04E04FF48071BA
:10300000044801F007FE6D10701CC6B2082EECDB00
:1030100070BD00000004024006BB0008704706E0D7
:103020004FF4FA7000F00CF80920FFF7D5FFF7E72E
:1030300000BFFEE700BFFEE700BFFEE77047704736
:1030400010B5002107E04AF2104200BF1300A2F1C0
:103050000102FBD1491C8142F5D310BD10B50021FE
:1030600006E0282200BF1300A2F10102FBD1491C97
:103070008142F6D310BD00BF0100A0F1010290B261
:10308000FAD1704790ED001AB4EEC01AF1EE10FAC2
:1030900012D290ED001A31EE201AB4EEC01AF1EE01
:1030A00010FA06D290ED001A31EE201A80ED001AC7
:1030B0001BE080ED000A18E090ED001AB4EEC01A93
:1030C000F1EE10FA11DD90ED001A31EE601AB4EE57
:1030D000C01AF1EE10FA06DD90ED001A31EE601A1A
:1030E00080ED001A01E080ED000A7047F0EE401A12
:1030F00031EE612A70EEE12A82EE220A704710B5A5
:103100000446D4ED000AB0EE600ADFEDF90A07F0DC
:10311000A7FA84ED000A94ED000AB5EEC00AF1EEBC
:1031200010FA07D294ED000ADFEDF10A30EE200A22
:1031300084ED000A10BD07E090ED000ADFEDED0A16
:1031400030EE200A80ED000A90ED000ADFEDEA0A79
:10315000B4EEE00AF1EE10FAEED307E090ED000ACB
:10316000DFEDE40A30EE600A80ED000A90ED000A1F
:10317000DFEDE20AB4EEE00AF1EE10FAEEDC7047A1
:103180000146002091ED001AB4EEE01AF1EE10FABB
:1031900003DDC1ED000A012009E091ED001AB4EE53
:1031A000C01AF1EE10FA02D281ED000A0120704738
:1031B00010B5034600201C68944202DD1A6001200D
:1031C00004E01C688C4201DA1960012010BD014640
:1031D0000020D1ED000AF4EEC00AF1EE10FA03DD92
:1031E00081ED000A01200DE0D1ED000AB1EE401A98
:1031F000F4EEC10AF1EE10FA04D2F1EE400AC1ED8C
:10320000000A0120704710B50246002013688B4267
:1032100002DD1160012006E04C421368A34202DA8D
:103220004B421360012010BDF0EE402A32EEE00A5E
:1032300032EE613A20EE030A71EE603A80EE233AF4
:1032400033EE210A704770B50446049D601AEE1AE9
:103250007043561A90FBF6F0184470BDB0EE401A59
:1032600090ED000AB0EEC00AB4EEC10AF1EE10FA19
:1032700004D29FEDA30A80ED000A28E070EEC11A87
:1032800080EEA12AB0EE420AD0ED001AF5EEC01A87
:10329000F1EE10FA0CDDD0ED001A61EE801AB7EEF7
:1032A000002A32EE402A40EE821AC0ED001A0DE0EC
:1032B000D0ED001AF1EE611A61EE801AB7EE002A25
:1032C00032EE402A50EEC21AC0ED001A00BF70471D
:1032D000B0EE401A71EE601AB0EE610A05E0DFED63
:1032E000841A70EE211AB0EE610ADFED861AB4EE90
:1032F000E10AF1EE10FAF2D305E0DFED7D1A70EE8F
:10330000611AB0EE610ADFED801AB4EEE10AF1EE67
:1033100010FAF2DC7047B0EE401A71EE601AB0EEAF
:10332000610A05E0DFED731A70EE211AB0EE610A52
:10333000DFED711AB4EEE10AF1EE10FAF2D305E016
:10334000DFED6C1A70EE611AB0EE610ADFED6B1AF8
:10335000B4EEE10AF1EE10FAF2DC7047B0EE402A6A
:10336000B0EEC20ADFED692A30EE220AB0EE401A52
:10337000F5EEC00AF1EE10FA18DB30EEC13A70EE4D
:10338000813A83EE234AB0EE440A20EE003AF0EE92
:10339000432A9FED5F3ADFED5F3A13EEA23ADFED8D
:1033A0005E3AF0EE631A43EE001A18E030EE813A0E
:1033B00071EE603A83EE234AB0EE440A20EE003A02
:1033C000F0EE432A9FED523ADFED523A13EEA23A65
:1033D000DFED523AF0EE631A43EE001A00BFB5EE8D
:1033E000C02AF1EE10FA02D2B1EE610A7047B0EED7
:1033F000610AFBE705E0DFED3F0A70EE200AB0EE60
:10340000600ADFED3D0AB4EEE00AF1EE10FAF2D305
:1034100005E0DFED380A70EE600AB0EE600ADFED1D
:10342000370AB4EEE00AF1EE10FAF2DCB5EEC00AAB
:10343000F1EE10FA36D2DFED3A0A60EE200A9FED87
:10344000391A20EE011A41EE000AC0ED000AD0ED53
:10345000000AF5EEC00AF1EE10FA12D2D0ED000A21
:1034600090ED001AD0ED001AF1EE611A51EE210A2A
:1034700090ED001ADFED2C1A01EEA01A80ED001A73
:1034800064E0D0ED000A90ED001AD0ED001A51EE84
:10349000210A90ED001ADFED241A01EEA01A80ED4A
:1034A000001A53E0DFED1E0A60EE200A9FED1D1AA0
:1034B00020EE011A41EE400AC0ED000AD0ED000AEC
:1034C000F5EEC00AF1EE10FA30D2D0ED000A90ED20
:1034D000001AD0ED001AF1EE611A51EE210A90EDBA
:1034E000001ADFED111A01EEA01A80ED001A2DE08E
:1034F0000000B443DB0FC940DB0F49C0DB0F49407C
:1035000000000000000034C30000344308E53C1E06
:10351000B1507B3FDE02493EDB0F493FE4CB164012
:1035200083F9A23F7B81CF3E6666663ED0ED000AFE
:1035300090ED001AD0ED001A51EE210A90ED001A1C
:103540005FED071A01EEA01A80ED001ADFEDFD0A0B
:1035500070EE200AB0EE600A5FED180AB4EEE00AE1
:10356000F1EE10FA05DD5FED1D0A70EE600AB0EEB7
:10357000600AB5EEC00AF1EE10FA36D25FED180A15
:1035800060EE200A1FED191A20EE011A41EE000A22
:10359000C1ED000AD1ED000AF5EEC00AF1EE10FA15
:1035A00012D2D1ED000A91ED001AD1ED001AF1EE20
:1035B000611A51EE210A91ED001A5FED251A01EE14
:1035C000A01A81ED001A46E0D1ED000A91ED001A33
:1035D000D1ED001A51EE210A91ED001A5FED2E1A7D
:1035E00001EEA01A81ED001A35E05FED330A60EEBE
:1035F000200A1FED341A20EE011A41EE400AC1EDF7
:10360000000AD1ED000AF5EEC00AF1EE10FA12D26E
:10361000D1ED000A91ED001AD1ED001AF1EE611A18
:1036200051EE210A91ED001A5FED411A01EEA01A48
:1036300081ED001A0FE0D1ED000A91ED001AD1EDF5
:10364000001A51EE210A91ED001A5FED491A01EEC0
:10365000A01A81ED001A70473CB504460B4615468A
:103660001FED590AF0EE404A1FED5B0AB0EE405ADA
:10367000002222E004EB8200D0ED000AB0EE600AE6
:10368000694601A8FFF7B6FE03EB8200D0ED000A01
:103690009DED011AB0EE640A01EE200AF0EE404AF8
:1036A00003EB8200D0ED000A9DED001AB0EE450A52
:1036B00001EE200AB0EE405A521CAA42DADBF0EECC
:1036C000450AB0EE640AFFF749FE3CBDF0EE401A31
:1036D000F4EEE01AF1EE10FA11D8F4EEC11AF1EEA0
:1036E00010FA0CD8F4EEC10AF1EE10FA02D8B0EEDE
:1036F000602A01E0B0EE412AB0EE420A22E0F4EE88
:10370000E10AF1EE10FA11D8F4EEC10AF1EE10FA66
:103710000CD8F4EEC11AF1EE10FA02D8B0EE612A1C
:1037200001E0B0EE412AB0EE420A0BE0F4EEE01AFE
:10373000F1EE10FA02D8B0EE612A01E0B0EE602A94
:10374000B0EE420A704710B503468B4208DC934244
:1037500006DC914201DC0C4600E01446204610E0F5
:10376000994208DC914206DC934201DC1C4600E0F1
:103770001446204605E08B4201DC1C4600E00C4666
:10378000204610BD08B5F0EE400AB6EE000A20EE65
:10379000800AB0EE401ACDED000A6B490098A1EB0B
:1037A000600000909DED000A60EE011A9DED002A78
:1037B000B7EE080A01EEC20ADDED001A20EE210A7A
:1037C0008DED000A9DED000A08BD70B52DED028B50
:1037D00005460C46B0EE408A0026D5ED000A60EEA4
:1037E000A00A94ED001AD4ED001A41EE210AB0EEC1
:1037F000600A07F0FBFAF0EE408AB0EEC80AB0EEBD
:10380000408A9FED520AF4EEC08AF1EE10FA03D21C
:103810009FED4E0AF0EE408AF4EEC88AF1EE10FAFF
:1038200011DDC8EE280AB0EE600AD5ED000A60EEA0
:10383000800AC5ED000AD4ED000A60EE800AC4EDEE
:10384000000A012600BF3046BDEC028B70BD05E0CA
:103850005FEDD80A70EE200AB0EE600A5FEDDA0A7A
:10386000B4EEE00AF1EE10FAF2D305E05FEDDF0A04
:1038700070EE600AB0EE600A5FEDE00AB4EEE00AB6
:10388000F1EE10FAF2DCB5EEC00AF1EE10FA0CD24D
:103890005FEDDD0A60EE200A1FEDDE1A20EE011A50
:1038A00041EE000AC0ED000A0BE05FEDE30A60EEB6
:1038B000200A1FEDE41A20EE011A41EE400AC0ED85
:1038C000000ADFED200A70EE200AB0EE600A5FED1C
:1038D000F50AB4EEE00AF1EE10FA05DD5FEDFB0A41
:1038E00070EE600AB0EE600AB5EEC00AF1EE10FAB2
:1038F0000CD25FEDF50A60EE200A1FEDF61A20EEFD
:10390000011A41EE000AC1ED000A0BE05FEDFC0A6E
:1039100060EE200A1FEDFD1A20EE011A41EE400A6A
:10392000C1ED000A7047B0EE401AF0EEC11AB0EED9
:10393000E02AF4EEC21AF1EE10FA09D2B0EE410A12
:1039400008E00000DB0FC93FDF59375FFFE6DB2EE1
:10395000B0EE600A7047B0EE401AF0EEC11AB0EE59
:10396000E02AF4EEC21AF1EE10FA02DDB0EE410ADE
:1039700001E0B0EE600A704770B506460D460020C3
:10398000287080240BE006EA0400A04201D171A057
:1039900000E071A00146284605F087F96410002C6C
:1039A000F1DC70BD10B52DED088BB0EE409AF0EE55
:1039B000609AB0EE41AA04469FED680AF0EE40AA74
:1039C000BFEE000AB4EEC09AF1EE10FA03D2BFEED9
:1039D000000AB0EE409AB7EE000AB4EEC09AF1EEDB
:1039E00010FA03DDB7EE000AB0EE409AF0EEC98A95
:1039F000B5EEC09AF1EE10FA02DBB0EE698A01E092
:103A0000B0EE4A8A34BBB5EEC08AF1EE10FA14DB90
:103A1000B7EE001A38EE011AF0EE410AB7EE001ABE
:103A200031EE681AB0EE410A06F0DAFEF7EE000A4F
:103A300030EEC00AF0EE40AA7EE0B7EE000A30EEAB
:103A4000480AF0EE400AB0EE680A06F0C9FEF0EE51
:103A500040AA71E0012C48D1B0EEC80A5FED450ADA
:103A6000B4EEE00AF1EE10FA02D2F0EE68AA63E0DA
:103A7000B5EEC08AF1EE10FA1EDBF7EE000A70EE2A
:103A8000E80A60EE880AB0EE600A06F0F5FCF7EE90
:103A9000000A30EE60BAB0EE480A06F0EDFCF7EE30
:103AA000000A70EE600A8BEE200AF7EE000A30EE94
:103AB000C00AF0EE40AA3FE0F1EE480A60EEA80A24
:103AC000B0EE600A06F0D8FCF7EE000A30EE60BAFD
:103AD000B1EE480A06F0D0FCF7EE000A30EE600ABC
:103AE000CBEE000AF0EE60AA26E0022C22D1B5EE61
:103AF000C08AF1EE10FA10DBB7EE000A70EE680A29
:103B0000B7EE000A08EE280A80EE801AB7EE000A27
:103B100030EE410AF0EE40AA0EE0B7EE000A70EE79
:103B2000680AB7EE000A08EE600AC8EE800AF0EEF6
:103B300060AA01E0F0EE68AAB5EEC09AF1EE10FAC4
:103B400003D2B1EE6A0AF0EE40AAB0EE6A0ABDEC0A
:103B5000088B10BD310000003000000000000000A4
:103B60001CB50121084601F01FFA01208DF8040060
:103B700000208DF806004FF48070009000208DF832
:103B8000050069460F4800F0C9FF4FF480700D49E9
:103B900048831CBD70B50446002510E04FF48070CA
:103BA000084908834FF4FA6004F0F0FC4FF4807089
:103BB000044948834FF4FA6004F0E8FC6D1CA54208
:103BC000ECDB70BD0000024032490143324A116013
:103BD000704770B5002100230F22C4781CB32E4C0F
:103BE000246804F4E064C4F5E064C4F30721C1F17F
:103BF0000404E3B20A4144789C40E1B28478144062
:103C000021430C07210E254C05786155047804F0FA
:103C10001F050124AC4005786D11AD0005F1E025CC
:103C2000C5F8004109E0047804F01F050124AC4008
:103C30001B4D0678761145F8264070BD194A0A409A
:103C40000243154B1B1F1A60704739B1124A121DEF
:103C500012680243104B1B1D1A6006E00E4A121D2B
:103C6000126882430C4B1B1D1A607047042808D150
:103C70004FF0E021096941F004014FF0E0221161A9
:103C800007E04FF0E021096921F004014FF0E02244
:103C9000116170470000FA050CED00E000E400E05F
:103CA00080E100E080FFFF1F10B50446FE4884421B
:103CB00009D10121480601F012FA00214FF00070ED
:103CC00001F00DFA08E00121880601F008FA002150
:103CD0004FF0806001F003FA10BD30B502460020BD
:103CE0000023146824F002041460146844F00104F2
:103CF000146000E05B1C546804F001041CB94FF62A
:103D0000FF74A342F6D1546804F001040CB90020FA
:103D10006CE08C79012C04D1146844F080041460A8
:103D200003E0146824F080041460CC79012C04D1E1
:103D3000146844F04004146003E0146824F0400464
:103D400014600C7A012C04D1146844F0200414602F
:103D500003E0146824F0200414604C7A012C04D190
:103D6000146844F01004146003E0146824F0100494
:103D700014608C7A012C04D1146844F00804146097
:103D800003E0146824F008041460CC7A012C04D1F8
:103D9000146844F00404146003E0146824F004047C
:103DA00014608C78A407CD7844EA05640D7944EA60
:103DB00005444D7944EA05540D886D1E2C43D461A9
:103DC000146824F001041460002300E05B1C5468B4
:103DD00004F001041CB14FF6FF74A342F6D15468FD
:103DE00004F001040CB1002000E0012030BD10B54A
:103DF0000021837A012202FA03F1AC4A126842F0F0
:103E00000102AA4B1A60A94A1C3212688A43A74BC6
:103E10001C331A60027BCAB9A44A0C3212688A4366
:103E2000A24B0C331A604288C38842EA03439F4A7C
:103E30004032847A42F834300288838842EA03436D
:103E40009A4A4032847A02EBC4025360027B012A10
:103E500019D1964A0C3212680A43944B0C331A60FB
:103E60004288038842EA0343904A4032847A42F807
:103E70003430C288838842EA03438C4A4032847AD1
:103E800002EBC4025360C27A3AB9884A121D126822
:103E90008A43864B1B1D1A6006E0844A121D126875
:103EA0000A43824B1B1D1A60028932B97F4A1432C1
:103EB00012688A437D4B14331A600289012A06D1A5
:103EC0007A4A143212680A43784B14331A60427BE0
:103ED000012A06D1754A1C3212680A43734B1C33FF
:103EE0001A60724A126822F00102704B1A6010BD0B
:103EF00000218171C171017241728172C172817040
:103F0000C1700321017102214171012101807047BB
:103F10006649096841F00101644A11601146096867
:103F200043F60E729143614A11601146096841EAF5
:103F3000002111601146096821F0010111607047EC
:103F400021B1026842F48032026003E0026822F488
:103F5000803202607047E1B1026842F08002026084
:103F60004FF4C272125842F480734FF4C27213506D
:103F70004FF4CA72125842F480734FF4CA7213504D
:103F80004FF4D272125842F480734FF4D27213502D
:103F90001BE0026822F0800202604FF4C2721258E5
:103FA00022F480734FF4C27213504FF4CA72125845
:103FB00022F480734FF4CA7213504FF4D272125825
:103FC00022F480734FF4D2721350704710B502463A
:103FD0000020936803F08063B3F1806F00D110E09C
:103FE000936803F00063B3F1006F01D1012008E092
:103FF000936803F08053B3F1805F01D1022000E0A9
:104000000420042879D002F5C07303EB00131B6869
:1040100003F0010402F5C07303EB00131C600B7A7C
:104020007BB94B7A0C8843EA445302F5C07404EB25
:1040300000142468234302F5C07404EB00142360C9
:1040400010E00B7A4C6843EAC4034C7A234302F530
:10405000C07404EB00142468234302F5C07404EB1D
:10406000001423608B7A03F00F038B7202F5C07388
:1040700003EB00135B6823F00F0402F5C07303EB3E
:1040800000135C6002F5C07303EB00135B688C7A6D
:10409000234302F5C07404EB001463608B7B1C06A1
:1040A0004B7B44EA034403E00064004000660040A8
:1040B0000B7B44EA0323CC7A234302F5C07404EB60
:1040C0000014A3608B7C1C064B7C44EA03440B7CED
:1040D00044EA0323CC7B234302F5C07404EB0014B1
:1040E000E36002F5C07303EB00131B6843F00104A7
:1040F00002F5C07303EB00131C6010BD10B502463F
:10410000002321B1012907D002290FD109E09068CD
:10411000F94C00EA04030BE09068F84C00EA040351
:1041200006E09068F64C00EA040301E0002300BFBB
:1041300000BFF44C181BA34216D007DC83B16FF00C
:104140008060184470B1022818D111E0B0F5007FEA
:1041500010D0ED4C204448B1B0F5003F0ED10BE03B
:1041600002230DE000230BE0002309E0002307E019
:10417000012305E0012303E0012301E0002300BF48
:1041800000BFD8B210BD21B1012907D002290FD13B
:1041900009E0826842F0800282600AE0826842F4AC
:1041A0000042826005E0826842F40002826000E022
:1041B00000BF00BF704710B500F5D87303EB0113C3
:1041C0001B6803F004031372137A53B900F5D87314
:1041D00003EB01131B6840F2FF7404EA53531360AE
:1041E00009E000F5D87303EB01131B686FF060441E
:1041F00004EAD303536000F5D87303EB01131B6883
:1042000003F00203537200F5D87303EB01135B68EC
:1042100003F00F03937200F5D87303EB01135B688F
:104220001B0AD37400F5D87303EB01139B68D37298
:1042300000F5D87303EB01139B681C0A147300F597
:10424000D87303EB01139B681C0C547300F5D873EF
:1042500003EB01139B681B0E937300F5D87303EBFC
:104260000113DB68D37300F5D87303EB0113DB682C
:104270001C0A147400F5D87303EB0113DB681C0CE3
:10428000547400F5D87303EB0113DB681B0E9374B1
:1042900021B9C36843F02003C36003E0036943F01E
:1042A0002003036110BD21B9C26842F02002C26040
:1042B00003E0026942F020020261704702460020DA
:1042C00019B9D36803F0030006E0012903D113698B
:1042D00003F0030000E00020704710B502460B46D3
:1042E00000204FF6FF71BBB9146824F0020444F0BB
:1042F0000104146000E0491E546804F00304012C1A
:1043000001D00029F7D1546804F00304012C01D036
:10431000002032E0012030E0012B13D1146824F09A
:104320000304146000E0491E546804F003040CB157
:104330000029F8D1546804F003040CB100201CE0FB
:1043400001201AE0022B17D1146824F0010444F074
:104350000204146000E0491E546804F00304022CB7
:1043600001D00029F7D1546804F00304022C01D0D5
:10437000002002E0012000E0002010BD01460020E6
:104380000A6822F0010242F002020A604A6802F062
:104390000302022A00D10120704701464FF6FF7246
:1043A00000200B6823F002030B6000E0521E4B68F4
:1043B00003F00203022B01D1002AF7D14B6803F06E
:1043C0000203022B00D001207047014600208A69B9
:1043D00002F070007047014600208A69100E704795
:1043E000014600208A69C2F3074070471AB1436949
:1043F0000B43436102E043698B434361704710B54F
:104400000246002001F4700343B19369C1F3130421
:1044100023400BB101202DE000202BE001F0807340
:1044200043B15368C1F3130423400BB1012021E0D1
:1044300000201FE001F0006343B19368C1F313044F
:1044400023400BB1012015E0002013E001F00073C0
:1044500043B1D368C1F3130423400BB1012009E039
:10446000002007E01369C1F3130423400BB10120BE
:1044700000E0002010BD0022244B994202D100230D
:10448000836111E0C1F3130201F000730BB1C2604C
:104490000AE001F080630BB1026105E001F0006306
:1044A0000BB1826000E0426070470246002002EAE1
:1044B00001030BB1012000E00020704770B50446F5
:1044C0000D46002660692840002872D0B5F5807F2F
:1044D00069D01DDC082D42D006DC012D2DD0022D27
:1044E00031D0042D7FD134E0102D3ED0202D42D08C
:1044F000402D78D145E000000300000400030008CF
:1045000000000310000100080001FFF77000F03008
:10451000B5F5004F61D009DCB5F5007F4AD0B5F59F
:10452000806F4DD0B5F5006F5DD150E0B5F5803F9F
:104530002DD0B5F5003F56D12FE0A0685549FFF7C3
:10454000B4FF064651E0E0680321FFF7AEFF0646E0
:104550004BE0E0680821FFF7A8FF064645E0E06869
:104560001021FFF7A2FF06463FE020690321FFF775
:104570009CFF064639E020690821FFF796FF0646B2
:1045800033E020691021FFF790FF06462DE06068B8
:104590000821FFF78AFF064627E060681021FFF731
:1045A00084FF064621E0A0690121FFF77EFF064651
:1045B0001BE01BE0A0690221FFF777FF064614E02D
:1045C000A0690421FFF771FF06460EE00BE0A06929
:1045D0007021FFF76AFF064607E060680421FFF7D5
:1045E00064FF064601E0002600BF00E000263046DA
:1045F00070BDB1F5007F3AD00FDC202928D006DC51
:1046000001291CD004291DD0082940D11DE04029D2
:1046100021D0B1F5807F3AD126E0B1F5004F31D0FD
:1046200006DCB1F5806F25D0B1F5006F2FD124E005
:10463000B1F5803F12D0B1F5003F28D111E0154A05
:10464000826025E00822C26022E01022C2601FE0E2
:10465000082202611CE01022026119E00822426077
:1046600016E01022426013E00422426010E00422AF
:1046700042600DE0042242600AE0002282610422CE
:10468000426005E0002282610422426000E000BF37
:1046900000BF704701010100016821F001010160C4
:1046A0000021016041608160C1600161212141619F
:1046B000DB49884204D13D21D94A103A91608CE00F
:1046C000D7491831884205D14FF47461D44A103A61
:1046D000916082E0D2493031884205D14FF47411A3
:1046E000CF4A103A916078E0CD494831884205D1EF
:1046F0004FF07461CA4A103A91606EE0C849603167
:10470000884204D1C749C64A103AD16065E0C4491D
:104710007831884204D1C449C14A103AD1605CE082
:10472000BF499031884204D1C049BD4A103AD16096
:1047300053E0BB49A831884205D14FF03D51B84AFA
:10474000103AD16049E0BA49884204D13D21B84AC3
:10475000083A116041E0B6491831884205D14FF45A
:104760007461B34A083A116037E0B1493031884288
:1047700005D14FF47411AE4A083A11602DE0AC49EE
:104780004831884205D14FF07461A94A083A116056
:1047900023E0A7496031884204D1A249A44A121FEC
:1047A00011601AE0A2497831884204D19E49A04A9A
:1047B000121F116011E09E499031884204D19B493B
:1047C0009B4A121F116008E09949A831884204D120
:1047D0004FF03D51964A121F1160704710B50022EC
:1047E0000268944B1A40CC680B6823434C692343FE
:1047F0008C692343CC6923430C6A23434C6A2343CB
:104800008C6A23434C6B23438C6B23431A43026013
:10481000426922F00702D1E90B3423431A43426173
:104820000B6943604B6883608B68C36010BD0021D7
:10483000016041608160C160016141618161C1616C
:10484000016241628162C1620163416381637047B9
:1048500021B1026842F00102026003E0026822F026
:1048600001020260704721B1026842F40042026016
:1048700003E0026822F400420260704721B102683E
:1048800042F02002026003E0026822F0200202608F
:104890007047416070470146486880B2704722B156
:1048A000036843F40023036003E0036823F4002358
:1048B00003600161704721B1026842F48022026006
:1048C00003E0026822F48022026070470AB10161AD
:1048D00000E0C1607047014600200A6802F400222F
:1048E0000AB1012000E000207047014600200A685C
:1048F00002F001020AB1012000E0002070470146E9
:1049000000204A6902F03800704730B503460A4675
:1049100000200024464DAB4202D24149103901E04B
:104920004349103902F000550DB14C6800E00C68A5
:10493000414D2C4004EA02050DB1012000E00020A9
:1049400030BD02463A4B9A4202D23548103801E057
:104950003748103801F000531BB1374B0B40C36090
:1049600002E0354B0B408360704710B501F08003C7
:104970004BB122B1436943F08003436103E04369D3
:1049800023F08003436180290BD02AB1036801F032
:104990001E042343036004E0036801F01E04A343E4
:1049A000036010BD70B50246002000240025204E93
:1049B000B24202D21A4B103B01E01D4B103B1F4E7E
:1049C0000E4036B11E2606EAD124166806EA040512
:1049D00002E0566906F0800501F000560EB15C68F1
:1049E00000E01C68144E344004EA010616B10DB113
:1049F000012000E0002070BD02460D4B9A4202D219
:104A00000748103801E00A48103801F000531BB184
:104A1000094B0B40C36002E0074B0B4083607047BB
:104A2000106002403D000020400F002000003D20AB
:104A3000106402403F801CF07D0F7D0F3C0F3C0F47
:104A400010B504468C48844208D10121084600F084
:104A500000FB0021012000F0FCFA5EE08748844260
:104A600008D10121022000F0F4FA0021022000F018
:104A7000F0FA52E08248844208D10121042000F07B
:104A8000E8FA0021042000F0E4FA46E07D48844280
:104A900008D10121082000F0DCFA0021082000F0F4
:104AA000D8FA3AE07848844208D10121102000F079
:104AB000D0FA0021102000F0CCFA2EE07348844296
:104AC00008D10121202000F0C4FA0021202000F0AC
:104AD000C0FA22E06E48844208D10121402000F053
:104AE000B8FA0021402000F0B4FA16E06948844288
:104AF00008D10121802000F0ACFA0021802000F0D4
:104B0000A8FA0AE06448844207D10121801500F028
:104B1000A0FA0021A01500F09CFA10BDF0B50A46DD
:104B200000210023002400BF3DE0012505FA01F328
:104B3000156805EA03049C4234D105684F0003263A
:104B4000BE40B543056015794E00B5400668354353
:104B500005601579012D02D01579022D16D18568D1
:104B60004F000326BE40B543856055794E00B540E1
:104B7000866835438560456801268E40B5434560AB
:104B8000456896798E40B6B235434560C5684F009A
:104B90000326BE40B543C560D5794E00B540C66812
:104BA0003543C560491C1029BFD3F0BD4FF6FF71D6
:104BB00001600021017141718171C171704708B5B7
:104BC0004FF480320092009A0A430092009AC26128
:104BD000C161009AC261C2690092C269009208BDB7
:104BE0000246002013690B400BB1012000E00020B9
:104BF00070470146086980B2704702460020536939
:104C00000B400BB1012000E00020704701464869CD
:104C100080B2704701837047418370470AB10183B6
:104C200000E0418370474161704742694A404261F8
:104C30007047F0B5002300244D07ED0E02FA05F38E
:104C4000CE1000F1200555F826504E07F70E0F261E
:104C5000BE40B543CF1000F1200646F82750CE10D5
:104C600000F1200555F8265045EA0304CE1000F166
:104C7000200545F82640F0BD000002400004024037
:104C800000080240000C02400010024000140240E4
:104C900000180240001C024000200240FA48006850
:104CA00040F00100F84908600020F7490831086029
:104CB000F5480068F5490840F3490860F448091DC3
:104CC0000860081F006820F48020091F0860002089
:104CD000ED490C31086070470021EB4A921C1170BD
:104CE00011460870704710B50146002200230020CD
:104CF0004A11012A02D1E44C236808E0022A03D1B8
:104D0000E14C7034236802E0DF4C7434236801F016
:104D10001F02012494401C400CB1012000E000203F
:104D200010BD38B5002000900024002500BF3120C0
:104D3000FFF7D9FF05460098401C00900098B0F599
:104D4000A06F01D0002DF2D03120FFF7CCFF08B1C9
:104D5000012400E00024204638BD01460020CA4A54
:104D6000106820F0F80040EAC10010607047C9499F
:104D7000086070470021C44A703211701170012818
:104D800002D004280AD104E00121BF4A7032117018
:104D900005E00521BC4A7032117000E000BF00BF81
:104DA0007047BD490860704770B5049C41EA8215A0
:104DB0000126C6EB530645EA0645054345EA046568
:104DC000B14E361D356070BDB2490866704782012C
:104DD00042EA0172AC4B84331A607047AD49886671
:104DE0007047AC49C864704702460020A64B0833A0
:104DF000186820F0EC6042EA01031843A24B083324
:104E000018607047024600209F4B0833186820F056
:104E1000784042EA010318439B4B083318607047FF
:104E200001460020984A0832106820F00300084329
:104E30001060704794480830006800F00C0070471C
:104E400001460020904A0832106820F0F000084324
:104E500010607047014600208B4A0832106820F429
:104E6000E05008431060704701460020864A08322F
:104E7000106820F4604040EAC10010607047F0B54F
:104E80000021002200240225002602237E4F08373D
:104E90003F6807F00C0121B1042905D0082937D15A
:104EA00005E07E4F076036E07D4F076033E0764FC8
:104EB0003F1D3F68C7F38056734F3F1D3F6807F0A3
:104EC0003F036EB1764FB7FBF3F7DFF8BCC10CF1CF
:104ED000040CDCF800C0CCF3881C07FB0CF40CE0DD
:104EE0006E4FB7FBF3F7DFF8A0C10CF1040CDCF850
:104EF00000C0CCF3881C07FB0CF4634F3F1D3F68D8
:104F0000C7F301477F1C7D00B4FBF5F7076002E0A3
:104F1000624F076000BF00BF5B4F08373F6807F074
:104F2000F00109095F4F7A5C0768D7404760564F28
:104F300008373F6807F4E051890A5A4F7A5C47689E
:104F4000D7408760504F08373F6807F46041490BEE
:104F5000544F7A5C4768D740C760F0BD002100F429
:104F60004072B2F5407F0AD1474A0832116821F4F5
:104F7000F8114D4A02401143434A08321160424A37
:104F800070321268C0F30B031A433F4B70331A6040
:104F9000704741494439086070473F4940390860CB
:104FA000704742490860704739B1374A3032126859
:104FB0000243354B30331A6006E0334A3032126810
:104FC0008243314B30331A60704739B12E4A343244
:104FD000126802432C4B34331A6006E02A4A3432FA
:104FE00012688243284B34331A60704739B1264A1D
:104FF000383212680243244B38331A6006E0224AE2
:10500000383212688243204B38331A60704739B106
:105010001D4A4032126802431B4B40331A6006E0BF
:10502000194A403212688243174B40331A60704766
:1050300039B1154A443212680243134B44331A60A3
:1050400006E0114A4432126882430F4B44331A601F
:10505000704739B10C4A1032126802430A4B1033C0
:105060001A6006E0084A103212688243064B103379
:105070001A607047E1B1044A143212680243024BCD
:1050800014331A6019E0000000380240FFFFF6FEFA
:105090001030002400004742800E47420024F400F4
:1050A00040787D0117000020FFFCFF0F5C014742A4
:1050B0005B4A126882435A4B1A60704739B1584AAA
:1050C000121D12680243564B1B1D1A6006E0544A1B
:1050D000121D12688243524B1B1D1A60704739B172
:1050E0004F4A0C32126802434D4B0C331A6006E0F3
:1050F0004B4A0C3212688243494B0C331A6070479A
:1051000039B1474A103212680243454B10331A60D6
:1051100006E0434A103212688243414B10331A6052
:10512000704739B13E4A3C32126802433C4B3C3333
:105130001A6006E03A4A3C3212688243384B3C33EC
:105140001A60704739B1364A403212680243344B14
:1051500040331A6006E0324A403212688243304BD4
:1051600040331A60704739B12D4A44321268024305
:105170002B4B44331A6006E0294A443212688243BA
:10518000274B44331A60704739B1254A4C321268B4
:105190000243234B4C331A6006E0214A4C3212681A
:1051A00082431F4B4C331A60704739B11C4A50324E
:1051B000126802431A4B50331A6006E0184A503204
:1051C00012688243164B50331A60704739B1144A43
:1051D000D21F12780243124BDB1F1A7006E0104AEE
:1051E000D21F127882430E4BDB1F1A7070470C4897
:1051F0006030006840F08070094960310860704795
:1052000001460020064A083A12680A400AB1012005
:1052100000E0002070470249891F087070470000B5
:105220001438024010B50446FE48844208D10121DA
:105230000846FFF765FF00210120FFF761FF9DE0B1
:10524000B4F1804F08D101210846FFF748FF002143
:105250000120FFF744FF91E0F348844208D1012187
:105260000220FFF73CFF00210220FFF738FF85E016
:10527000EE48844208D101210420FFF730FF0021CD
:105280000420FFF72CFF79E0E948844208D101218E
:105290000820FFF724FF00210820FFF720FF6DE022
:1052A000E448844208D101211020FFF718FF0021B3
:1052B0001020FFF714FF61E0DF48844208D101218C
:1052C0002020FFF70CFF00212020FFF708FF55E00A
:1052D000DA48844208D101210220FFF711FF0021A2
:1052E0000220FFF70DFF49E0D548844209D1012192
:1052F0000804FFF705FF00214FF48030FFF700FF9F
:105300003CE0D048844209D101214804FFF7F8FE6F
:1053100000214FF40030FFF7F3FE2FE0CA4884422B
:1053200009D101218804FFF7EBFE00214FF4802012
:10533000FFF7E6FE22E0C548844208D10121402063
:10534000FFF7CDFE00214020FFF7C9FE16E0C04860
:10535000844208D101218020FFF7C1FE0021802076
:10536000FFF7BDFE0AE0BB48844207D1012180154A
:10537000FFF7B5FE0021A015FFF7B1FE10BD00221A
:105380000288A84B98420ED0AC4B98420BD0B0F19B
:10539000804F08D0A44B984205D0A44B984202D02D
:1053A000A34B984204D14FF68F731A404B881A438F
:1053B000A04B984207D0A04B984204D04FF6FF4331
:1053C0001A400B891A4302804B68C3620B8803851D
:1053D000944B984202D0994B984201D18B7A038624
:1053E0000123838270474FF0FF314160002101802B
:1053F00001814180817270470185828270470A462F
:10540000002101884FF68F731940114301807047C6
:1054100041627047C16270470146486A7047014661
:10542000088D704721B1028842F00202028004E038
:1054300002884FF6FD731A400280704721B102883E
:1054400042F00402028004E002884FF6FB731A4027
:105450000280704721B1028842F08002028004E09D
:1054600002884FF67F731A400280704702884FF619
:10547000F7731A40028002880A430280704702884C
:105480004FF6FF431A40028002880A4302807047A9
:1054900021B1028842F00102028004E002884FF646
:1054A000FE731A400280704770B50024002200236A
:1054B000058C4FF6FE7635400584028C8388048B7C
:1054C0004FF68F752C40B51E2C400D882C43751E51
:1054D0002A408D892A434D882A43524DA84202D042
:1054E000564DA84213D14FF6F7752A40CD892A436D
:1054F0004FF6FB752A408D882A434FF6FF652B40F7
:105500004FF6FF552B400D8A2B434D8A2B4383804A
:1055100004838D684563028470BD70B50024002249
:105520000023058C4FF6EF7635400584028C838886
:10553000048B48F6FF752C404FF6FF452C400D8834
:105540004FF6FF7606EA05252C434FF6DF752A4015
:105550008D8906EA05152A434D8806EA05152A4372
:10556000304DA84202D0354DA8421DD14FF67F756F
:105570002A40CD894FF6FF7606EA05152A434FF6F5
:10558000BF752A408D8806EA05152A434FF6FF3578
:105590002B404FF2FF752B400D8A06EA85052B4301
:1055A0004D8A06EA85052B43838004838D688563D5
:1055B000028470BD70B5002400220023058C4FF6D4
:1055C000FF6635400584028C8388848B4FF68F7587
:1055D0002C404FF6FC752C400D882C434FF6FF55A0
:1055E0002A408D894FF6FF7606EA05252A434D8825
:1055F00006EA05252A430B4DA84202D00F4DA842CA
:1056000038D14FF2FF752A40CD894FF6FF7606EA72
:1056100005252A434FF6FF352A408D8806EA0525E1
:105620002A4319E000000140000400400008004047
:10563000000C004000100040001400400004014035
:105640000040014000440140004801400018004073
:10565000001C0040002000404EF6FF752B404DF628
:10566000FF752B400D8A06EA05152B434D8A06EA85
:1056700005152B43838084838D68C563028470BDC8
:1056800070B5002200230024058C4EF6FF763540CD
:105690000584038C8488828B48F6FF752A404FF678
:1056A000FF452A400D884FF6FF7606EA05252A4376
:1056B0004DF6FF752B408D8906EA05352B434D8845
:1056C00006EA05352B43FE4DA84202D0FD4DA84207
:1056D00008D14BF6FF752C400D8A4FF6FF7606EA8F
:1056E00085152C43848082838D680564038470BD96
:1056F000002101804180818081608181C18101829E
:105700004182704770B503460020002418461830C7
:1057100001258D40ACB21D8CA5431D8409B108291B
:105720000AD100EB610005684FF68F7635400560C1
:105730000568154305600FE00D1FC5F34E052844AD
:10574000056848F6FF763540056005684FF6FF7638
:1057500006EA02263543056070BD416370478163E8
:105760007047C1637047016470470A460021018B8E
:105770004FF68F7319401143018370470A46002189
:10578000018B48F6FF7319404FF6FF7303EA0223BB
:105790001943018370470A460021818B4FF68F73AE
:1057A00019401143818370470A460021818B48F6D6
:1057B000FF7319404FF6FF7303EA022319438183F5
:1057C00070470A460021018B4FF6F77319401143C9
:1057D000018370470A460021018B4FF2FF73194085
:1057E0004FF6FF7303EA02231943018370470A4609
:1057F0000021818B4FF6F773194011438183704765
:105800000A460021818B4FF2FF7319404FF6FF7358
:1058100003EA02231943818370470A460021018B62
:105820004FF6FB7319401143018370470A4600216C
:10583000018B4FF6FF3319404FF6FF7303EA022343
:105840001943018370470A460021818B4FF6FB7391
:1058500019401143818370470A460021818B4FF61E
:10586000FF3319404FF6FF7303EA02231943818384
:1058700070470A460021018B4FF67F731940114390
:10588000018370470A460021018BC1F30E014FF6D8
:10589000FF7303EA02231943018370470A4600217C
:1058A000818B4FF67F7319401143818370470A46FD
:1058B0000021818BC1F30E014FF6FF7303EA02232F
:1058C0001943818370470A460021018C4FF6FD730E
:1058D00019401143018470470A460021018C4FF69C
:1058E000F77319401143018470470A460021018C67
:1058F0004FF6DF7319404FF6FF7303EA02131943A3
:10590000018470470A460021018C4FF67F731940CD
:105910004FF6FF7303EA02131943018470470A46E6
:105920000021018C4FF6FF5319404FF6FF7303EA35
:1059300002231943018470470A460021018C4FF26B
:10594000FF7319404FF6FF7303EA022319430184E2
:1059500070470A460021018C4DF6FF7319404FF63F
:10596000FF7303EA023319430184704730B5002303
:1059700001248C40A3B2048C9C430484048C02FA5E
:1059800001F5ADB22C43048430BD30B500230424AE
:105990008C40A3B2048C9C430484048C02FA01F56D
:1059A000ADB22C43048430BD828B4FF2FF331A40DA
:1059B0008283828B4FF6FF7303EA01231A438283AB
:1059C0007047F0B50C461546002100220026078CD2
:1059D0004EF6FF7C07EA0C070784818B028C4FF69A
:1059E000FF7707EA043640F6FF4739404FF6FF7766
:1059F00007EA052739434FF6FF7707EA03373943AC
:105A000045F6FF773A4046F480573A438183028453
:105A1000F0BD828B4FF6F3731A408283828B0A4368
:105A200082837047F0B50C461546002100220026FF
:105A3000078C4FF6FF6C07EA0C070784818B028CFA
:105A40004FF6FF7707EA04264FF60C7739404FF6FA
:105A5000FF7707EA03172F4339434FF2FF573A40C6
:105A600046F480773A4381830284F0BD028B4FF283
:105A7000FF331A400283028B4FF6FF7303EA0123C0
:105A80001A4302837047F0B50C46154600210022E8
:105A90000026078C4FF6EF7C07EA0C070784018B82
:105AA000028C4FF6FF7707EA041640F6FF473940AD
:105AB0004FF6FF7707EA033739434FF6FF7703E0E6
:105AC000000001400004014007EA052739434FF672
:105AD0005F773A4046F010073A4301830284F0BDF5
