:020000040800F2
:1000000068040020290200083702000839020008AD
:100010003B0200083D0200083F020008000000000B
:100020000000000000000000000000004102000885
:1000300043020008000000004502000847020008D3
:100040004902000849020008490200084902000864
:100050004902000849020008490200084902000854
:100060004902000849020008490200084902000844
:100070004902000849020008490200084902000834
:100080004902000849020008490200084902000824
:100090004902000849020008490200084902000814
:1000A0004902000849020008490200084902000804
:1000B00049020008490200084902000849020008F4
:1000C00049020008490200084902000849020008E4
:1000D00049020008490200084902000849020008D4
:1000E00049020008490200084902000849020008C4
:1000F00049020008490200084902000849020008B4
:1001000049020008490200084902000849020008A3
:100110004902000849020008490200084902000893
:100120004902000849020008490200084902000883
:100130004902000849020008490200084902000873
:100140004902000849020008490200084902000863
:100150004902000849020008490200084902000853
:100160004902000849020008490200084902000843
:100170004902000849020008490200084902000833
:10018000490200084902000800F002F800F03CF8BB
:100190000AA090E8000C82448344AAF10107DA45E2
:1001A00001D100F031F8AFF2090EBAE80F0013F0F8
:1001B000010F18BFFB1A43F0010318478803000022
:1001C000A8030000103A24BF78C878C1FAD85207B3
:1001D00024BF30C830C144BF04680C6070470000C1
:1001E0000023002400250026103A28BF78C1FBD840
:1001F000520728BF30C148BF0B6070471FB500F0E1
:100200009BF91FBD10B510BD00F033F81146FFF784
:10021000F5FF00F081F900F051F803B4FFF7F2FFA9
:1002200003BC00F055F800000B48016841F4700170
:1002300001600A480047FEE7FEE7FEE7FEE7FEE74B
:10024000FEE7FEE7FEE7FEE7FEE70000044805499B
:10025000034A054B7047000088ED00E08901000863
:100260006800002068040020680000207047704784
:100270007047754600F028F8AE46050069465346BB
:1002800020F00700854618B020B5FFF7DFFFBDE876
:1002900020404FF000064FF000074FF000084FF0ED
:1002A000000B21F00701AC46ACE8C009ACE8C0097E
:1002B000ACE8C009ACE8C0098D4670470446AFF30E
:1002C00000802046FFF7A9FF004870470400002087
:1002D00001491820ABBEFEE726000200704700006F
:1002E0004A0A52020243014B1A60704708ED00E0CF
:1002F000F0B504460D4616461F461448006840F007
:1003000001001249086000201049083108600F48B8
:1003100000680F4908400D4908600E48091D086033
:10032000081F006820F48020091F0860002007498A
:100330000C3108603B4632462946204600F00CF856
:1003400000210846FFF7CCFFF0BD00000038024056
:10035000FFFFF6FE10300024F0B504460D460021E4
:1003600000203D4E366846F480363B4F3E6001E04B
:100370004E1CB1B2384E366806F400361EB941F64E
:10038000FF76B142F4DB41F6FF76B14201D10120A4
:1003900060E0314E4036366846F080562E4F40378A
:1003A0003E602E4E366846F440462C4F3E602A4E44
:1003B0000836366846F41446274F08373E60264E06
:1003C000366826F08076244F3E6045EA8416012781
:1003D000C7EB520746EA074646EA036646F480063C
:1003E0001D4F3F1D3E603E1F366846F080763F1F22
:1003F0003E6000BF184E366806F00076002EF9D039
:10040000174E366846F48076154F3E603E46366895
:1004100046F400763E603E46366846F480663E60AE
:100420003E46366846F005063E600B4E0836366896
:1004300026F00306084F08373E603E46366846F011
:1004400002063E6000BF044E0836366806F00C0611
:10045000082EF8D1F0BD00000038024000700040C6
:10046000003C02404FF0E021096921F004014FF007
:10047000E0221161C21700EB5272C2F3C702074BB0
:100480001A701946097801EB4102C2EBC1114FF60F
:10049000FF7202EAC101024A118070470000002089
:1004A0000200002070B504464FF4077094FBF0F092
:1004B000C6B24FF4077094FBF0F100FB114085B217
:1004C00005E04FF4077000F009F8701EC6B2002E68
:1004D000F7D115B1284600F001F870BD01460D4A6C
:1004E00012884A434FF0E0235A6100229A610122A8
:1004F0001A6100BF4FF0E022106900F001021AB14A
:1005000000F48032002AF5D000224FF0E0231A6177
:100510009A617047020000200723022208214FF44D
:10052000A870FFF7E5FEA820FFF79CFF03E04FF45B
:10053000FA70FFF7B7FFFAE74FF04070E1EE100AEC
:10054000704700006405000800000020040000005F
:10055000C4010008680500080400002064040000CD
:08056000E001000800000000AA
:040000050800018965
:00000001FF
