:020000040800F2
:1000000008B4002021620008B12D0008B32D0008BB
:10001000C52D0008C92D0008CD2D000800000000E6
:10002000000000000000000000000000D12D0008CA
:10003000D32D000800000000A78400080B870008EB
:100040003B6200083B6200083B6200083B6200081C
:100050003B6200083B6200083B6200083B6200080C
:100060003B6200083B6200083B6200083B620008FC
:100070003B6200083B620008E90E00083B62000892
:100080003B620008EB0500083B6200083B62000889
:10009000450800083B6200083B6200083B6200081C
:1000A0003B6200083B6200083B6200083B620008BC
:1000B000E7030008A31200083B6200083B62000847
:1000C0003B6200083B6200083B6200083B6200089C
:1000D0003B620008DD100008110600083D0F000813
:1000E0003B6200083B6200083B6200083B6200087C
:1000F0003B6200083B6200083B6200083B6200086C
:100100003B6200083B620008E10800083B6200080F
:100110003B6200083B6200083B6200083B6200084B
:100120003B6200083B6200083B6200083B6200083B
:100130003B6200083B6200083B6200083B6200082B
:100140008D0A0008C30B00083B6200083B620008F0
:100150003B6200083B620008B71000083B620008E1
:100160003B6200083B6200083B6200083B620008FB
:100170003B6200083B6200083B6200083B620008EB
:100180003B6200083B62000800F002F800F040F813
:100190000AA090E8000C82448344AAF10107DA45E2
:1001A00001D100F035F8AFF2090EBAE80F0013F0F4
:1001B000010F18BFFB1A43F001031847ACA0000061
:1001C000CCA00000103A24BF78C878C1FAD85207F2
:1001D00024BF30C830C144BF04680C6070470000C1
:1001E0000023002400250026103A28BF78C1FBD840
:1001F000520728BF30C148BF0B6070471FB509F0D8
:100200006EFE9DE8030008F0C1FB1FBD10B510BDD8
:1002100008F028FC1146FFF7F1FF00F025F808F080
:1002200046FC03B4FFF7F2FF03BC08F073FC0000C8
:1002300003E04FF4FA6008F03FF8FAE770B50446BF
:10024000002500BF08F077FA08F00CF905460723EF
:10025000474A0021474807F0E9FC052007F064FF02
:10026000284608F003F970BD10B505F03FFF4FF4C4
:10027000806101F00702404B18684FF6FF031840F9
:100280003E4B034343EA02203B4B186000BF06216C
:1002900042F6DF6000F07CF800F0F2FA00F0C6F9F8
:1002A00000F02CFB00F068FE00F004F900F082FD85
:1002B00001F026F80221324802F0F6F800F00CFDB9
:1002C00006F006F905232F4A00212F4807F0AEFC5F
:1002D00006F025FA002010BD49E02C48B0F91800BE
:1002E00000EE900AF8EEE00AB0EE600A012002F09B
:1002F0007FFC2648B0F9160000EE900AF8EEE00AFE
:10030000B0EE600A022002F073FC2048B0F914003D
:1003100000EE900AF8EEE00AB0EE600A032002F068
:1003200067FC0420B1EE000A02F062FC0520B1EE89
:10033000040A02F05DFC0620B1EE080A02F058FC47
:100340000720B1EE0C0A02F053FC0820B2EE000ABE
:1003500002F04EFC0920B2EE020A02F049FC0A202B
:10036000B2EE040A02F044FC642007F0A5FFB4E7F3
:1003700084080020310200080CED00E00000FA05BE
:10038000E00D0020840400203D020008D06400201D
:100390007FB505460C460121084604F0CEFC0295C7
:1003A000ADF804400020ADF80600ADF80C0001A93E
:1003B0004FF0804004F079FE1C208DF800000120F1
:1003C0008DF801008DF802008DF80300684603F0F7
:1003D00096FA01221146900705F008FB01218807D3
:1003E00004F0ECFE7FBD10B50121880705F015FB78
:1003F000012853D10121800705F020FB002432E0C1
:1004000004EBC40000EB4000254911F8300028B38C
:1004100004EBC40000EB400001EBC0004078F0B1F9
:1004200004EBC40000EB400001EBC0008078012821
:1004300006D0022805D004280BD005280DD104E0F1
:100440000CE020B201F0E2FA08E020B201F011FC69
:1004500004E020B201F036FB00E000BF02E020B271
:1004600001F007FC641C052CCADB0D4CB4F98E327C
:10047000B4F9B621B4F9DE10B4F9060001F05FFF5B
:1004800001F0B9FF0749084800F048FF0748407AE3
:1004900020B102220349064802F043F810BD0000D3
:1004A000D0640020D457002000680040E80A0020F3
:1004B000E00D002000B597B00121084604F00AFCC9
:1004C0000121480404F039FC0121480504F002FC34
:1004D000072202214F4804F042FA072203214D4827
:1004E00004F03DFA0C20119002208DF84800002005
:1004F0008DF84A0003208DF8490000208DF84B004C
:1005000011A9444804F0A0F94FF4E1301390002001
:10051000ADF85000ADF85200ADF85400ADF85800F9
:100520000C20ADF8560013A93B4805F0B1FB0122A1
:1005300040F22551384805F0E9FC26208DF84000AE
:1005400004208DF8410001208DF842008DF8430011
:1005500010A803F0D4F901212F4805F021FC2F4801
:1005600003F030FF4FF00060019000200590402024
:1005700004902B4803902848001D02900015079016
:1005800000200690099008900A904FF440300B909C
:1005900000200C9001200D9000200F900E9001A9DA
:1005A0001E4803F0B1FF1F491C4804F060F81D49C4
:1005B0001A4804F0B7F801221021184804F06BF82B
:1005C00011208DF8400007208DF8410001208DF8A2
:1005D00042008DF8430010A803F091F90122802118
:1005E0000D4805F08AFC17B000BD10B50D490B4849
:1005F00004F06EF801280AD10A49084804F037F8D7
:100600000849064804F08EF800200749C87310BD59
:10061000704700000000024000440040A06002401B
:100620001D0C002000802020E80A002000B58BB0BF
:100630000121480604F081FB0121084604F04AFB31
:1006400009220B218A4804F08AF909220C218848E2
:1006500004F085F902208DF81C004FF4C05006907C
:1006600006A9834804F0F0F800208DF826008DF8E4
:1006700027008DF828008DF829008DF82A008DF8C4
:100680002B008DF822008DF8230008208DF824001F
:1006900003208DF82500ADF8200008A9754803F067
:1006A000B2F914208DF8040003208DF80500002015
:1006B0008DF8060001208DF8070001A803F01FF94E
:1006C00001208DF812008DF8130000208DF8140021
:1006D00046F2A000ADF8080046F2C000ADF80A00EE
:1006E00046F2E000ADF80C004FF4C240ADF80E0049
:1006F0000020ADF8100001208DF8150002A803F0CD
:100700000CFA02208DF8120001208DF81300002051
:100710008DF814004FF4C840ADF8080046F22000F0
:10072000ADF80A0046F24000ADF80C0046F2600059
:10073000ADF80E000020ADF8100001208DF8150076
:1007400002A803F0EAF903208DF8120001208DF8C9
:10075000130000208DF814004FF4C040ADF80800DD
:100760000020ADF80A00ADF80C00ADF80E00ADF8B1
:10077000100001208DF8150002A803F0CEF93D48C5
:1007800003F028F908A803F049FA012202213948A8
:1007900003F0C2FC0BB000BD10B501F54072364B42
:1007A0005C881B1D03EB04131A600423324A54882F
:1007B000121D02EB0412137110BD70B505460E46F2
:1007C000144606F540702D494A88091D01EB0211B7
:1007D0000860082129484288001D00EB02100171C1
:1007E000AA7A26494B88091D01EB0311481D05F122
:1007F0000B0108F035F8217820484288001D00EBF5
:100800000210417261781D484288001D00EB021001
:100810008172A17819484288001D00EB0210C17254
:10082000E17816484288001D00EB0210017313485E
:100830004088401C322190FBF1F201FB12000F496D
:10084000488070BD00B585B002210A4803F0CCFC99
:1008500060B10221074803F062FD0221054803F060
:10086000A0FC6A460021034803F03BFB05B000BD35
:100870000000024000640040D4570020F85A0020D5
:100880001FB50121082004F058FA42F6DF600290FB
:100890000B20ADF804000020ADF80C00ADF8060008
:1008A00001A9154804F001FC32208DF80000012058
:1008B0008DF803008DF8010000208DF802006846D5
:1008C00003F01DF801210C4805F0A4F8012211469F
:1008D000094805F08BF80121074804F06FFC1FBDA3
:1008E00010B50121044805F098F818B1012102481B
:1008F00005F0A4F810BD0000000C004000B58BB05E
:100900000121880604F019FA0121022004F0E2F91D
:1009100009220521E84804F022F809220621E648C8
:1009200004F01DF802208DF818006020059005A93C
:10093000E14803F089FF40208DF8280002208DF85F
:10094000290000208DF82A0001208DF82B000AA82C
:1009500002F0D5FF41208DF8280002208DF82900F3
:100960008DF82A0001208DF82B000AA802F0C7FF9D
:10097000D24803F02FF807A803F050F900208DF8B3
:10098000220001208DF8230000208DF824008DF82E
:1009900025008DF826008DF827008DF81E008DF8B3
:1009A0001F0008208DF8200003208DF82100ADF8ED
:1009B0001C0007A9C14803F026F80E208DF80E0090
:1009C00001208DF80F0000208DF8100044F2200067
:1009D000ADF8040044F24000ADF8060044F26000B7
:1009E000ADF808004FF48140ADF80A000020ADF8E2
:1009F0000C0001208DF8110001A803F08EF80F20E3
:100A00008DF80E0001208DF80F0000208DF81000E9
:100A100044F2A000ADF8040044F2C000ADF80600B6
:100A200044F2E000ADF808004FF48240ADF80A004F
:100A30000020ADF80C0001208DF8110001A803F092
:100A40006CF818208DF80E0001208DF80F000020A2
:100A50008DF81000ADF80400ADF80600ADF8080000
:100A6000ADF80A000120ADF80C008DF8110001A8C6
:100A700003F053F801221021904803F04DFB0122AE
:100A800002218E4803F048FB0BB000BD10B586B0C4
:100A900002218A4803F0A8FB00287DD001AA00218A
:100AA000864803F01EFA0198B0F5007F7ED90198C0
:100AB000B0F5027F7AD89DF80D00002876D1019814
:100AC000401EC4B27E4850F824007E4941F82400FC
:100AD00007F0A2FC7A4941F82400084650F82400A7
:100AE000784951F82410401A774941F824009DF8BC
:100AF00012109DF8110041EA002001B204EBC4007D
:100B000000EB4000714A02EBC00001839DF8100029
:100B10009DF80F1040EA012001B204EBC40000EB85
:100B2000400002EBC00001849DF814109DF81300F2
:100B300041EA002001B204EBC40000EB400002EBEC
:100B4000C000C1829DF8151004EBC40000EB40000A
:100B500002EBC0004184204601F010FA04EBC4000F
:100B600000EB4000594901EBC00090F83A00E0B9B1
:100B7000012104EBC40000EB4000544A02EBC0002A
:100B800080F83A10002104EBC40000EB400002EBB7
:100B9000C000A0F8581001E011E007E004EBC40029
:100BA00000EB400002EBC000C16100BF02214348DE
:100BB00003F0B5FB0221414803F0F3FA00BF06B091
:100BC00010BD00B585B010213C4803F00DFB68B1A5
:100BD0006A460121394803F084F91021374803F0AF
:100BE0009EFB1021354803F0DCFA00BF05B000BDC4
:100BF000F0B585B007460D46002412200090019004
:100C000000208DF808008DF809008DF80A5000BF0B
:100C100005E0395D0DF10B000155601C84B2AC425A
:100C2000F7DB6946254803F067F80646002401E033
:100C3000601C84B23146214803F0F6F818B940F63A
:100C4000FF708442F4DB40F6FF70844202DB012037
:100C500005B0F0BD0020FBE74168491C4160002160
:100C600001730169491E0161818A491C322291FB8D
:100C7000F2F302FB13118182704730B585B005464F
:100C800000210E4803F0B0F910B9002005B030BDC6
:100C90006A460021094803F024F9002404E00DF11C
:100CA0000B00005D2855641C9DF80A00A042F6D890
:100CB0009DF80A00EAE700000004024000680040D6
:100CC000A80A0020880A0020C80A0020D06400205A
:100CD000012035494872704710B500F012FCFFF74B
:100CE000F7FF01F053FE02F021F8304801F0A4FEB6
:100CF00010BD00220A7803780B700270704710B59F
:100D0000082007F04BFD044600206060204610BD1F
:100D100002460B46114605E00888984201D1084674
:100D2000704749680029F7D10020F9E770B50646F9
:100D30000C46354600E06D6815B16868A042FAD1EE
:100D40004CB160686860204607F057FD184800788D
:100D5000401E1749087070BD2DE9F04107468846CE
:100D60003C4641462046FFF7D3FF08B1BDE8F0817D
:100D7000002602E06468701CC6B20D480078B042DC
:100D800001DD002CF6D16CB1082007F007FD054607
:100D9000A5F8008060686860656005480078401CC0
:100DA0000349087000BFE1E7E80A0020906B0020CB
:100DB0000000002000B597B00121042003F08AFF55
:100DC0000121880403F0B9FF0121480503F082FFE7
:100DD00007220A21624803F0C2FD07220B21604866
:100DE00003F0BDFD4FF44060119002208DF84800E3
:100DF00000208DF84A0003208DF8490000208DF86E
:100E00004B0011A9564803F01FFD4FF4E130139039
:100E10000020ADF85000ADF85200ADF85400ADF828
:100E200058000C20ADF8560013A94E4804F030FFCE
:100E3000012240F225514B4805F068F827208DF833
:100E4000400004208DF8410000208DF84200012070
:100E50008DF8430010A802F052FD434803F0B2FAA7
:100E60004FF00060019000200590402004903F4822
:100E700003903C48001D029000150790002006904A
:100E8000099008900A904FF440300B9000200C908D
:100E900001200D9000200F900E9001A9324803F020
:100EA00033FB3349304803F0E2FB31492E4803F06D
:100EB00039FC0E208DF8400002208DF841000420FE
:100EC0008DF8420001208DF8430010A802F017FDB4
:100ED00001221021244803F0DEFB01228021214859
:100EE00005F00BF817B000BD10B521491E4803F0FE
:100EF000EFFB01280AD11E491B4803F0B8FB1C492F
:100F0000194803F00FFC00201A49087410BD70B591
:100F100004460D461748007C78B92A4621461348F6
:100F200007F09EFC2946104803F049FB01210E48BA
:100F300003F024FB01200F49087470BD10B540F286
:100F40002551084805F01DF840B12021054805F05D
:100F50000FF840F22551034805F04AF810BD000093
:100F60000008024000480040586002403D0D00204B
:100F700000800018E80A002000B597B0012108465B
:100F800003F0A8FE0121102003F0E8FE01218805EE
:100F900003F0A0FE07220921A34803F0E0FC07228A
:100FA0000A21A14803F0DBFC4FF4C060119002203D
:100FB0008DF8480000208DF84A0002208DF8490085
:100FC00001208DF84B0011A9974803F03DFC4FF428
:100FD000E13013900020ADF85000ADF85200ADF8AC
:100FE0005400ADF858000C20ADF8560013A98F48F6
:100FF00004F04EFE8E4803F0E5F94FF000600190DA
:1010000000200590402004908A4803908748001DE6
:1010100002900015079000200690099008900A9011
:101020004FF440300B9000200C9001200D900020D8
:101030000F900E9001A97E4803F066FA7E497C4825
:1010400003F015FB7C497A4803F06CFB0122102168
:10105000774803F020FB46208DF8400005208DF8EE
:10106000410001208DF842008DF8430010A802F0E5
:1010700046FC012280216D4804F03FFF01216B48AE
:1010800004F08EFE17B000BD70B504460D466B48E7
:10109000007878B92A462146664807F0E1FB2946E0
:1010A000634803F08CFA0121614803F067FA0120DC
:1010B0006249087070BD10B55F495D4803F008FBD8
:1010C00001280AD15C495A4803F0D1FA5A495848D4
:1010D00003F028FB00205949087010BD10B540F2FC
:1010E0002551524804F04DFF002844D040F22551CC
:1010F0004E4804F03DFF40F225514C4804F078FF83
:101100004A4804F07CFEC4B24D48007800F040002C
:1011100008B34B48007800F0800020BB0D2C06D1AE
:101120004748007840F08000454908701BE044487B
:10113000007800F03F0043490C5441480078401CBF
:101140003F4908700846007800F03F0020280ADD7B
:101150000020087007E0232C05D13948007840F0C2
:101160004000374908703648007800F0800010B120
:1011700000203349087010BD30B502460B464FF6CB
:10118000FF70002112E0555C684000240AE000F086
:10119000010525B14AF2010585EA600000E0401032
:1011A000651CECB2082CF2DB4D1CE9B29942EADB7B
:1011B00030BD2DE9FE4305460E4617469846E8B277
:1011C0008DF80000280A8DF80100F0B28DF80200B9
:1011D000300A8DF80300F8B28DF80400380A8DF853
:1011E000050008F0FF008DF806004FEA18208DF882
:1011F000070008216846FFF7BFFF04462046E117B5
:1012000004EB11610912A4EB0121C9B28DF8081099
:10121000E11704EB1161090A8DF809100A216846EB
:10122000FFF732FFBDE8FE830000024000100140DE
:10123000B86402407D0D00200080002808000020D6
:101240000D000020B00D00201FB50121022003F089
:1012500074FD42F6DF6002900620ADF80400002025
:10126000ADF80600ADF80C001D208DF8000001203F
:101270008DF8010000208DF8020001208DF8030098
:10128000684602F03CFB01A9104803F00EFF012262
:1012900011460E4804F0AAFB01210C4803F08EFF12
:1012A0001FBD10B50121094804F0B7FB01280BD17F
:1012B0000121064804F0C2FB002403E0A0B200F0C4
:1012C000D3FF641C082CF9DB10BD000000040040B3
:1012D000014608884A88904201D1012070470020C9
:1012E000FCE701464888401C322290FBF2F302FBE7
:1012F00013000A88904201D1012070470020FCE7CA
:1013000000207449488008807349488008807349E8
:1013100048800880724948800880704730B585B0A1
:1013200005460C462046FFF7D3FF08B105B030BD97
:101330002188201D00EB01100068B0F5407F2CD9FA
:1013400000208DF808002188201D00EB01100068A6
:1013500000906448854205D101225E49624801F04F
:101360008AF904E002225D49604801F084F921888D
:10137000201D00EB011000798DF80A0000208DF887
:1013800009009DF80A202388201D00EB0310411D51
:101390000DF10B0007F064FA63E02188201D00EBDB
:1013A0000110006800F0704000B304208DF80800C0
:1013B0002188201D00EB0110006820F07040019092
:1013C0002188201D00EB011000798DF80A00002013
:1013D0008DF809009DF80A202388201D00EB0310DA
:1013E000411D0DF10B0007F03BFA3AE02188201D6A
:1013F00000EB01100068082833D200208DF80800A7
:101400002188201D00EB0110006800902188201D1C
:1014100000EB011000798DF80A002188201D00EBF7
:101420000110006840F01F00092808D12188201D04
:1014300000EB0110006840F01F00142803D00020CA
:101440008DF8090002E002208DF809009DF80A20BD
:101450002388201D00EB0310411D0DF10B0007F048
:10146000FFF92348854217D102221C491F4801F089
:1014700002F92188201D00EB0110407B38B920883B
:10148000401C322190FBF1F201FB120020806946E2
:10149000174802F031FC1AE01248854217D10122A8
:1014A0000C49114801F0E7F80A480188001D00EBDB
:1014B0000110407B38B92088401C322190FBF1F2AA
:1014C00001FB120020806946064802F015FC00BFAF
:1014D0002CE70000F85A00201C5E0020D4570020A2
:1014E0004061002000640040A0270020E00D0020A3
:1014F00000680040002239210A54C2610021818223
:10150000704710B52DED0E8B4FF40050FE4908804A
:101510009FEDFE0B084680ED040B9FEDFE0A80ED6B
:10152000010A43F6991008814FF40050FA490880E7
:101530009FEDFA0A084680ED010A42F22830088140
:101540009FEDF70B084680ED040B0020F64908706C
:101550009FEDF60A084680ED010A012008724FF45B
:10156000FA604881012008734FF4FA6008824FF650
:10157000E040C881002088742820ED49888300203D
:1015800048604FF47A70C8831822E349E94807F0AD
:10159000ACF90020E7497039087048700520887060
:1015A0000021E4487038C1800020E2497039888009
:1015B0000021E048703801811422DB493C3007F0FB
:1015C00094F9DC487038B0F90810DFEDDB1A9FEDB4
:1015D000DB1ADFEDDB0AB0EE0C0AB03001F006F9E1
:1015E000D4487038C168F7EE001A9FEDD61ADFEDC7
:1015F000D60AB1EE040A883001F0F8F81822C6497C
:10160000CC48D83007F071F90020CA49703981F808
:10161000D8000021C748703880F8D910052180F81B
:10162000DA106421A0F8DE100021A0F8DC104FF4DD
:101630007A71A0F8E0101422BB4900F58A7007F017
:1016400054F9BC487038B0F9E010DFEDBB1A9FEDDB
:10165000BE1ADFEDBC0AB2EE000A00F5C47001F05C
:10166000C5F8B4487038D0F8E410F7EE001A9FEDD2
:10167000B61ADFEDB40AB2EE000A00F5B07001F060
:10168000B5F81822A449B14807F02FF90020A9495C
:10169000703981F8B0010021A648703880F8B11186
:1016A000052180F8B2116421A0F8B6110021A0F83C
:1016B000B4114FF47A71A0F8B81114229A4900F5C8
:1016C000F67007F012F99B487038B0F9B811DFEDE9
:1016D0009A1A9FED9A1ADFED9A0AB0EE0C0A00F5FD
:1016E000187001F083F893487038D0F8BC11F7EE09
:1016F000001A9FED941ADFED940AB1EE040A00F58A
:101700000E7001F073F8182283499048D83007F022
:10171000ECF800208749703981F88802002185485B
:10172000703880F88912052180F88A126421A0F8A7
:101730008E120021A0F88C124FF47A71A0F890124A
:101740001422794900F5317007F0CFF879487038E4
:10175000B0F99012DFED781A9FED7B1ADFED790A70
:10176000B2EE000A00F54E7001F040F87148703892
:10177000D0F89412F7EE001A9FED731ADFED710A9C
:10178000B2EE000A00F5447001F030F8002418E1D0
:1017900004EBC40000EB40006649703901EBC00067
:1017A0006349096801656248416804EBC40000EBC5
:1017B0004000604A703A02EBC000416504EBC4018E
:1017C00001EB410102EBC10101F158000A22584925
:1017D000083107F08AF85648418A04EBC40000EB50
:1017E0004000544A703A02EBC000A0F8621004EBCB
:1017F000C40000EB4000114601EBC0004C4B59699E
:101800009A69DB6964300EC004EBC40000EB400051
:10181000484A703A02EBC00090ED1D0A10EE101A13
:10182000084608F0EBFA41EC1A0B04EBC40101EB9B
:101830004101404A703A02EBC101B1F8700008F072
:10184000E1F841EC1C0B04EBC40000EB4000394A0A
:10185000703A02EBC00090ED100A10EE101A084624
:1018600008F0CCFA41EC1E0B04EBC40000EB400086
:101870003049703901EBC00090ED201BB0EE410AF9
:10188000F0EE610A53EC102B51EC1E0B08F0CEF871
:1018900053EC1C2B08F0CAF853EC1A2B08F0C6F8CE
:1018A0009FED2B0B53EC102B07F0E0FE08F066F8D1
:1018B00004EBC40101EB41011E4A703A02EBC10185
:1018C000086504EBC40101EB410102EBC101B1F871
:1018D000700008F097F841EC1A0B04EBC40000EB21
:1018E0004000144A703A02EBC00090ED1D0A10EE61
:1018F000101A084608F082FA41EC1C0B04EBC401F4
:1019000001EB41010B4A27E0A064002000000080A9
:1019100087870F409A999941B864002000001042CF
:10192000000000000000F03F886400200000E14457
:101930006864002040650020CDCCCC3E0000000053
:101940008FC2F53DCDCC4C3E9A99993EF066002071
:101950000000000000807640703A02EBC101B1F94E
:10196000040008F038F841EC1E0B04EBC40000EB57
:101970004000FE4901EBC00090ED201BB0EE410A93
:10198000F0EE610A53EC102B51EC1E0B08F04EF8F0
:1019900053EC1C2B08F04AF853EC1A2B08F046F8CD
:1019A0001FED150B53EC102B07F060FE07F0B6FF90
:1019B00004EBC40101EB4101EC4A02EBC101C86038
:1019C000641C082CFFF6E4AE0020E949C87088705A
:1019D000487008710870002313E04FF4FA6103EBBC
:1019E000C30000EB4000E14A02EBC000A0F8461043
:1019F00003EBC30101EB410102EBC100FFF77AFDEC
:101A00005B1C042BE9DBBDEC0E8B10BD10B504464E
:101A100004EBC40000EB4000D44901EBC000D0ED62
:101A2000260A04EBC40000EB400001EBC000B0F953
:101A3000080000EE100AB8EEC00A20EE800ABDEEE3
:101A4000C00A10EE100A04EBC40101EB4101C74AC1
:101A500002EBC101C1F8B00004EBC40000EB400090
:101A6000114601EBC000B0F9181004EBC40000EB04
:101A7000400002EBC000C0F8C81004EBC40101EB49
:101A8000410102EBC10101F1B00000F0C8FE04EB1E
:101A9000C40000EB4000B54901EBC000C18804EB75
:101AA000C40000EB4000B14A02EBC000D0F8C40013
:101AB000084401B204EBC40000EB400002EBC0009C
:101AC000C18010BD10B5044604EBC40000EB40001B
:101AD000A64901EBC000B0F94A0004EBC40101EBD8
:101AE0004101A24A02EBC101C1F8B00004EBC400FD
:101AF00000EB4000114601EBC000B0F9181004EBF8
:101B0000C40000EB400002EBC000C0F8C81004EBBA
:101B1000C40101EB410102EBC10101F1B00000F091
:101B20007EFE04EBC40000EB4000904901EBC000D6
:101B3000C18804EBC40000EB40008C4A02EBC000FB
:101B4000D0F8C400084401B204EBC40000EB40002C
:101B500002EBC000C18004EBC40000EB4000114662
:101B600001EBC000B0F8580090BB04EBC40000EBE0
:101B7000400001EBC000C069002807DD04EBC40091
:101B800000EB400001EBC000C06908E004EBC400BA
:101B900000EB4000754901EBC000C069404240F6CF
:101BA000C411884215DD04EBC40000EB40006F490E
:101BB00001EBC000B0F86000401C81B204EBC4002F
:101BC00000EB4000694A02EBC000A0F860100AE098
:101BD000FFE7002104EBC40000EB4000634A02EB86
:101BE000C000A0F8601004EBC40000EB40005F49A7
:101BF00001EBC000B0F86000322839DD002104EBB1
:101C0000C40000EB4000594A02EBC000A0F860108D
:101C1000002004EBC40101EB410102EBC101888209
:101C2000002104EBC40000EB400002EBC000C161E6
:101C3000052004EBC40101EB410102EBC1018870F6
:101C4000012104EBC40000EB400002EBC00080F86F
:101C50003510002004EBC40101EB410102EBC1018E
:101C60008880012004EBC40101EB410102F831003E
:101C700010BD10B52DED0E8B044604EBC40101EB35
:101C800041013A4A02EBC101B1F8700007F0BAFE17
:101C900041EC1A0B04EBC40000EB4000334A02EBAA
:101CA000C00090ED1D0A10EE101A084608F0A6F8C4
:101CB00041EC1C0B04EBC40101EB41012B4A02EB8C
:101CC000C101B1F9040007F086FE41EC1E0B04EBE4
:101CD000C40000EB4000254901EBC00090ED201B43
:101CE000B0EE410AF0EE610A53EC102B51EC1E0BE2
:101CF00007F09CFE53EC1C2B07F098FE53EC1A2BBC
:101D000007F094FE1FEDEE0B53EC102B07F0AEFC2A
:101D100007F004FE04EBC40101EB4101134A02EB9E
:101D2000C101C86004EBC40000EB4000114601EBA8
:101D3000C000C06804EBC40101EB410102EBC1012A
:101D4000C1F8880004EBC40000EB4000114601EB31
:101D5000C0004078A0B904EBC40000EB400001EBE8
:101D6000C000406D04EBC40104E00000D06400201A
:101D70000E00002001EB410102EBC101C1F8880017
:101D800004EBC40000EB4000FE4901EBC000C16958
:101D900004EBC40000EB4000FA4A02EBC000C0F8BC
:101DA000A01004EBC40101EB410102EBC10101F100
:101DB000880000F034FD04EBC40000EB4000F14962
:101DC00001EBC000D0ED260A04EBC40000EB40009C
:101DD00001EBC000D0F89C0000EE100AB8EEC00A7B
:101DE00020EE800ABDEEC00A10EE100A04EBC4011A
:101DF00001EB4101E34A02EBC101C1F8B00004EB81
:101E0000C40000EB4000114601EBC00090F8440014
:101E1000A8B304EBC40000EB400001EBC000D0F815
:101E2000B000002808DD04EBC40000EB400001EB2B
:101E3000C000D0F8B00009E004EBC40000EB4000A3
:101E4000D04901EBC000D0F8B000404204EBC4011F
:101E500001EB4101CB4A02EBC101B1F846108842C7
:101E600021DD04EBC40000EB4000114601EBC00093
:101E7000D0F8B000002803DA4FF0FF3001E012E0A4
:101E8000012004EBC40101EB4101BE4A02EBC10198
:101E9000B1F84610484304EBC40101EB410102EBE9
:101EA000C101C1F8B00004EBC40000EB4000B5492B
:101EB00001EBC000B0F9181004EBC40000EB4000C7
:101EC000B04A02EBC000C0F8C81004EBC40101EB3B
:101ED000410102EBC10101F1B00000F0A0FC04EBF4
:101EE000C40000EB4000A74901EBC000C18804EB2F
:101EF000C40000EB4000A34A02EBC000D0F8C400CD
:101F0000084401B204EBC40000EB400002EBC00047
:101F1000C18004EBC40000EB4000114601EBC0009F
:101F2000C06D002807DD04EBC40000EB400001EBAE
:101F3000C000C06D08E004EBC40000EB4000914914
:101F400001EBC000C06D4042B4280ADA012004EB66
:101F5000C40101EB41018B4A02EBC10181F834005D
:101F600009E0002004EBC40101EB4101854A02EBCA
:101F7000C10181F83400BDEC0E8B10BD70B52DEDA4
:101F8000088B044604EBC40000EB40007D4901EBE4
:101F9000C000018C04EBC40000EB4000794A02EB66
:101FA000C000008E081A01B204EBC40000EB400030
:101FB00002EBC000A0F8581004EBC40000EB400096
:101FC000114601EBC000808A04EBC40101EB410122
:101FD00002EBC101888404EBC40000EB4000114611
:101FE00001EBC000C18A04EBC40000EB400002EB2F
:101FF000C000C18404EBC40000EB4000114601EBBB
:10200000C000018B04EBC40000EB400002EBC000F9
:10201000018504EBC40000EB4000114601EBC00059
:10202000C16904EBC40000EB400002EBC000C162D8
:1020300004EBC40000EB4000114601EBC000018C32
:1020400004EBC40000EB400002EBC000018604EB8F
:10205000C40000EB4000114601EBC000418C04EBD2
:10206000C40000EB400002EBC000418604EBC4005A
:1020700000EB4000114601EBC000B0F95800002809
:1020800008DD04EBC40000EB400001EBC000B0F938
:10209000580009E004EBC40000EB4000394901EBB3
:1020A000C000B0F95800404241F2360188422CDDB0
:1020B00004EBC40000EB4000324901EBC000B0F972
:1020C000581004EBC40000EB40002E4A02EBC000A5
:1020D000B0F95800002802DA4FF0FF3000E001208C
:1020E00004EBC40202EB4202264B03EBC202B2F83D
:1020F000702000FB121001B204EBC40000EB4000A2
:102100001A4602EBC000A0F8581004EBC40000EB24
:1021100040001C4901EBC000C16904EBC40000EBA6
:102120004000184A02EBC000B0F95800014404EB2B
:10213000C40000EB400002EBC000C16104EBC4002E
:1021400000EB4000114601EBC000C16804EBC40085
:1021500000EB400002EBC000C069091A04EBC400A8
:1021600000EB400002EBC000C16504EBC40101EBD1
:10217000410102EBC101B1F8700007F043FC41ECF2
:10218000190B01E0D064002004EBC40000EB400018
:10219000C14901EBC000C06900EE100AB8EEC00AE8
:1021A000DFEDBE0A20EE200A04EBC40000EB400085
:1021B00001EBC000D0ED1D0A80EE201A11EE105A7E
:1021C000284607F01BFE41EC1B0B04EBC40000EBA0
:1021D0004000B14901EBC00090ED201BB0EE410A78
:1021E000F0EE610A53EC102B51EC1B0B07F03EFA9A
:1021F00053EC192B07F03AFA07F090FB00B204EB0E
:10220000C40101EB4101A44A02EBC101888204EB45
:10221000C40000EB4000114601EBC000407868B1FB
:1022200004EBC40000EB400001EBC000C16904EB0B
:10223000C40000EB400002EBC000416504EBC400A9
:1022400000EB4000944901EBC00090F8390040B128
:1022500004EBC40101EB41018F4A02EBC100FFF71F
:1022600049F9BDEC088B70BD10B5044604EBC40001
:1022700000EB4000884911F8300001285ED104EBE2
:10228000C40000EB400001EBC00090F84E00E8B342
:1022900006F0C2F8824951F82410401A40F2DC518D
:1022A000884214D304EBC40000EB40007A4901EBF0
:1022B000C00090F86400401CC1B204EBC40000EB05
:1022C0004000754A02EBC00080F8641009E000216C
:1022D00004EBC40000EB40006F4A02EBC00080F842
:1022E000641004EBC40000EB40006B4901EBC0003C
:1022F00090F8641004EBC40000EB4000664A02EB67
:10230000C000B0F86C0000EB800000E016E0400078
:10231000814209DD012104EBC40000EB400002EB27
:10232000C00080F8371009E0002104EBC40000EB86
:102330004000594A02EBC00080F8371010BD2DE96B
:10234000F04186B004460D4616461F464FF0000881
:1023500000208DF80C008DF80D0008208DF80E007F
:102360004FF40078CDF804804B480078012805D15F
:10237000200A8DF80F008DF8104005E000208DF840
:102380000F0000218DF81010434890F8D800012864
:1023900005D1290A8DF811108DF8125004E00021A2
:1023A0008DF811108DF812103B4890F8B0010128FB
:1023B00005D1310A8DF813108DF8146004E0002166
:1023C0008DF813108DF81410334890F88802012806
:1023D00005D1390A8DF815108DF8167004E000212A
:1023E0008DF815108DF8161001A92E4801F084FC07
:1023F00006B0BDE8F08100204BE000EBC00101EB2E
:102400004101254A02EBC101B1F90610002908DD9E
:1024100000EBC00101EB410102EBC101B1F9061073
:1024200009E000EBC00101EB41011B4A02EBC101D5
:10243000B1F90610494200EBC00202EB4202164B12
:1024400003EBC202B2F87820914220DD00EBC0011C
:1024500001EB41011A4602EBC101B1F90610002956
:1024600002DA4FF0FF3100E0012100EBC00202EB85
:102470004202094B03EBC202B2F8782051430AB280
:1024800000EBC00101EB410103EBC101CA80411C1B
:10249000C8B20828B1DB7047D06400200000B44304
:1024A000880A00200068004030B502460023012958
:1024B00004D10120CC4C2072062303E00120CA4C39
:1024C00060720823002029E000256724444302EBC2
:1024D000C40425616724444302EBC40425736724C4
:1024E000444342F834506724444302EBC40465601B
:1024F0006724444302EBC404E5826724444302EBAF
:10250000C404A5826724444302EBC404A560672485
:10251000444302EBC40484F82550401C9842D3DBAA
:1025200030BD2DE9F04105460E4617464FF0000834
:10253000012F02D14FF0060801E04FF008080024F7
:1025400094E06720604305EBC000006901287DDB53
:102550003046FEF7C6FE08B1BDE8F0816721614351
:1025600005EBC10101F11400FEF7B2FE30B100210C
:102570006720604305EBC0008160EDE767206043A2
:1025800005EBC0000069401E6721614305EBC101F6
:1025900008616720604305EBC00018306721614384
:1025A00005EBC101898A00EB011072880168301DBA
:1025B00000EB021001606720604305EBC00018309B
:1025C0006721614305EBC101898A00EB01100179A4
:1025D0007288301D00EB021001716720604305EB2B
:1025E000C00018306721614305EBC101898A00EB07
:1025F0000110417B7288301D00EB0210417367238C
:10260000634305EBC30318334FF0670C04FB0CFC6A
:1026100005EBCC0CBCF814C003EB0C13591DB6F839
:1026200002C0331D03EB0C131A79331D03EB0C139B
:10263000581D06F015F93088401C322190FBF1F24C
:1026400001FB120030806720604300E00DE005EBE5
:10265000C000808A401C90FBF1F201FB120081B2A5
:102660006720604305EBC0008182641C4445FFF68F
:1026700068AF00BF70E72DE9F04104460E461746EB
:102680004FF00008FF253188301D00EB0110407B22
:1026900008B9BDE8F081012F02D14FF0060809E02A
:1026A0004FF008083188301D00EB01100088A0F2BF
:1026B000013085B245450DDA6721694304EBC1015C
:1026C00001F11400FEF70DFE48B1012F03D10120E6
:1026D0004549887286E001204349C87282E067203C
:1026E000684304EBC0000069401C6721694304EBA8
:1026F000C10108616720684354F83000401C67211D
:10270000694344F831003188301D00EB0110026844
:102710006720684304EBC00018306721694304EB6D
:10272000C101C98A00EB011002603188301D00EB45
:10273000011002796720684304EBC000183067215C
:10274000694304EBC101C98A00EB011002713188B1
:10275000301D00EB0110427B6720684304EBC00092
:1027600018306721694304EBC101C98A00EB0110ED
:10277000427367236B4304EBC30318334FF0670CBA
:1027800005FB0CFC04EBCC0CBCF816C003EB0C13E3
:102790001A7967236B4304EBC30318334FF0670CBC
:1027A00005FB0CFC04EBCC0CBCF816C003EB0C13C3
:1027B000581DB6F800C0331D03EB0C13591D06F06D
:1027C0004FF86720684304EBC000C08A401C3221E8
:1027D00090FBF1F201FB120081B26720684304EB29
:1027E000C000C18200BF54E7E80A002000228261D5
:1027F00080ED031AC0ED020A80ED010AC0ED041A53
:102800000160C261002303624362704780ED000AE9
:10281000C0ED010A80ED021AC0ED041A704701688C
:102820008269891AC161C269016A511A00EE101ADF
:10283000B8EEC00AD0ED010A20EE200A90ED021A8F
:10284000C16900EE901AF8EEE00A01EE200AC269B2
:10285000016A022303FB1122416A114400EE901A1F
:10286000F8EEE00A90ED031A01EE200ABDEEC00A70
:1028700010EE101A4161026A4262C2690262704738
:1028800070B504460D4616462563E662206BE16A84
:10289000401A6062206B002801DD206B01E0206B94
:1028A0004042142806DA9FED360A84ED060A606A73
:1028B000A06270BD606A00EE100AB8EEC00AD4EDE6
:1028C000000A20EE200ADFED2F0A80EE201A84EDA8
:1028D000051A606A00EE100AB8EEC00AD4ED010ACB
:1028E00060EE200A9FED281A80EE810A9FED251ADE
:1028F000C0EE010A94ED060A30EE800A84ED060A65
:10290000606AA16A401A00EE100AB8EEC00AD4ED5F
:10291000020A20EE200A84ED070A94ED030AD4EDA2
:10292000070A70EE600A94ED030A94ED041A01EEB2
:10293000600A84ED030A94ED030A84ED070AF7EEBA
:10294000000ABFEE000A04F1180000F0E3FA606A22
:10295000A06294ED050AD4ED060A30EE200AD4ED0B
:10296000070A30EE200A84ED080AF7EE000ABFEEEF
:10297000000A04F1200000F0CDFA00BF99E7000042
:10298000000000000000C84200007A441CB501218C
:10299000084602F09FF9F020009001208DF8040015
:1029A00002208DF8050000208DF8060001208DF82A
:1029B000070069461F4801F047FF10201D490883A2
:1029C0002020088340200883802008831CBD10B588
:1029D000102018494883642000F0FCF92020154994
:1029E0004883642000F0F6F94020124948836420AF
:1029F00000F0F0F980200F494883642000F0EAF9E4
:102A000010200C490883642000F0E4F920200949D3
:102A10000883642000F0DEF9402006490883642022
:102A200000F0D8F9802003490883642000F0D2F92F
:102A300010BD0000000002409FED5E0A80ED000A1C
:102A40009FED5D0A80ED020A704710B52DED0C8BED
:102A50000446B0EE408AF0EE608A94ED020ADFEDA3
:102A6000570A30EEC00AD4ED000A20EE200A10EE1C
:102A7000101A084607F0C2F941EC1B0B94ED020A4C
:102A800010EE101A084607F0B9F941EC1D0B53EC93
:102A9000182B06F0CBFF41EC1C0B53EC1B2B06F064
:102AA0003DFD41EC1A0B9FED460B53EC102B06F04D
:102AB000DDFD41EC190B06F0FFFC606094ED010AAE
:102AC00084ED000A94ED010A10EE101A084607F092
:102AD00095F941EC100BBDEC0C8B10BDB7EE000A64
:102AE00080ED020AB7EE000A80ED030AB7EE000A95
:102AF00080ED050A9FED340A80ED060A9FED330A4A
:102B000080ED070A9FED2B0A80ED0C0A704710B587
:102B10002DED068B0446B0EE408A18EE100A07F041
:102B20006DF941EC1A0BB0EE4A0AF0EE6A0A284839
:102B3000FFF78BFFB0EE409AF0EE609A51EC190B64
:102B400006F0BAFC206394ED050AD4ED070A30EED6
:102B5000200AD4ED050A80EE801A84ED0A1A94ED5D
:102B60000C0AD4ED030A94ED091A00EEC10AD4ED63
:102B7000090A94ED0A1A41EE000AC4ED080AD4EDE0
:102B80000A0A94ED031AB7EE000A00EEC10AD4ED6A
:102B9000050A20EE200A84ED040A94ED040A84ED6F
:102BA000050A94ED080A84ED090A94ED080ABDECC3
:102BB000068B10BD000000000000254400007A4490
:102BC0000000000000408F40ACC52737CDCCCC3D85
:102BD000906B002030B503461C788C545D78541CF3
:102BE0000D559D78941C0D55DD78D41C0D5530BDC8
:102BF00011B52DED020B04460A2C00DC04B91EBDF4
:102C00000B2C43D2DFE804F042060C12181E242AD3
:102C100030363C00012244496846FFF7DBFF35E0CF
:102C2000052241496846FFF7D5FF2FE009223E49BA
:102C30006846FFF7CFFF29E00D223B496846FFF7C2
:102C4000C9FF23E0112238496846FFF7C3FF1DE0A2
:102C5000152235496846FFF7BDFF17E019223249B2
:102C60006846FFF7B7FF11E01D222F496846FFF7BE
:102C7000B1FF0BE021222C496846FFF7ABFF05E0CE
:102C8000252229496846FFF7A5FF00BF00BF00BF06
:102C9000B5E701460A2900DC09B900207047242065
:102CA000214A10700B293CD2DFE801F03B060B10E3
:102CB000151A1F24292F350005201B4A50710620A4
:102CC000ECE70920184A50720A20E7E70D20164A5F
:102CD00050730E20E2E71120134A50741220DDE7F2
:102CE0001520114A50751620D8E719200E4A507643
:102CF0001A20D3E71D200C4A50771E20CEE7212052
:102D0000094A82F821002220C8E72520064A82F8D5
:102D100025002620C2E72920034A82F829002A201C
:102D2000BCE700BF0020B9E7D06B00201CB5012133
:102D3000022001F0CFFF4FF44070009001208DF889
:102D4000040000208DF8060002208DF80500694679
:102D5000154801F079FD4FF48071134801F0F0FD42
:102D60004FF40071104801F0EDFD1CBD70B5044634
:102D7000112C00DD11240D48055D002610E005F042
:102D8000010028B14FF40071074801F0D9FD04E0BB
:102D90004FF48071044801F0D3FD6D10701CC6B271
:102DA000082EECDB70BD000000040240E69F000826
:102DB000704706E04FF4FA7000F00CF80920FFF7B6
:102DC000D5FFF7E700BFFEE700BFFEE700BFFEE765
:102DD0007047704710B5002107E04AF2104200BF6B
:102DE0001300A2F10102FBD1491C8142F5D310BDB1
:102DF00010B5002106E0282200BF1300A2F1010255
:102E0000FBD1491C8142F6D310BD00BF0100A0F1E7
:102E1000010290B2FAD1704790ED001AB4EEC01AD8
:102E2000F1EE10FA12D290ED001A31EE201AB4EE43
:102E3000C01AF1EE10FA06D290ED001A31EE201A07
:102E400080ED001A1BE080ED000A18E090ED001AFA
:102E5000B4EEC01AF1EE10FA11DD90ED001A31EE69
:102E6000601AB4EEC01AF1EE10FA06DD90ED001A09
:102E700031EE601A80ED001A01E080ED000A704723
:102E8000F0EE401A31EE612A70EEE12A82EE220A5B
:102E9000704710B50446D4ED000AB0EE600ADFEDCD
:102EA000F90A05F065FF84ED000A94ED000AB5EE1D
:102EB000C00AF1EE10FA07D294ED000ADFEDF10A34
:102EC00030EE200A84ED000A10BD07E090ED000A04
:102ED000DFEDED0A30EE200A80ED000A90ED000AE9
:102EE000DFEDEA0AB4EEE00AF1EE10FAEED307E005
:102EF00090ED000ADFEDE40A30EE600A80ED000A92
:102F000090ED000ADFEDE20AB4EEE00AF1EE10FA0D
:102F1000EEDC70470146002091ED001AB4EEE01A95
:102F2000F1EE10FA03DDC1ED000A012009E091ED98
:102F3000001AB4EEC01AF1EE10FA02D281ED000AC6
:102F40000120704710B5034600201C68944202DD42
:102F50001A60012004E01C688C4201DA196001202B
:102F600010BD01460020D1ED000AF4EEC00AF1EEDA
:102F700010FA03DD81ED000A01200DE0D1ED000A19
:102F8000B1EE401AF4EEC10AF1EE10FA04D2F1EEFD
:102F9000400AC1ED000A0120704710B5024600202A
:102FA00013688B4202DD1160012006E04C42136879
:102FB000A34202DA4B421360012010BDF0EE402A1A
:102FC00032EEE00A32EE613A20EE030A71EE603A28
:102FD00080EE233A33EE210A704770B50446049D13
:102FE000601AEE1A7043561A90FBF6F0184470BD42
:102FF000B0EE401A90ED000AB0EEC00AB4EEC10A7D
:10300000F1EE10FA04D29FEDA30A80ED000A28E049
:1030100070EEC11A80EEA12AB0EE420AD0ED001A7D
:10302000F5EEC01AF1EE10FA0CDDD0ED001A61EEEB
:10303000801AB7EE002A32EE402A40EE821AC0ED26
:10304000001A0DE0D0ED001AF1EE611A61EE801A5F
:10305000B7EE002A32EE402A50EEC21AC0ED001A36
:1030600000BF7047B0EE401A71EE601AB0EE610A10
:1030700005E0DFED841A70EE211AB0EE610ADFED93
:10308000861AB4EEE10AF1EE10FAF2D305E0DFEDB4
:103090007D1A70EE611AB0EE610ADFED801AB4EEAF
:1030A000E10AF1EE10FAF2DC7047B0EE401A71EE70
:1030B000601AB0EE610A05E0DFED731A70EE211AB6
:1030C000B0EE610ADFED711AB4EEE10AF1EE10FA2A
:1030D000F2D305E0DFED6C1A70EE611AB0EE610A12
:1030E000DFED6B1AB4EEE10AF1EE10FAF2DC704794
:1030F000B0EE402AB0EEC20ADFED692A30EE220AB5
:10310000B0EE401AF5EEC00AF1EE10FA18DB30EE20
:10311000C13A70EE813A83EE234AB0EE440A20EEC3
:10312000003AF0EE432A9FED5F3ADFED5F3A13EE8F
:10313000A23ADFED5E3AF0EE631A43EE001A18E0B1
:1031400030EE813A71EE603A83EE234AB0EE440AE3
:1031500020EE003AF0EE432A9FED523ADFED523A6C
:1031600013EEA23ADFED523AF0EE631A43EE001A84
:1031700000BFB5EEC02AF1EE10FA02D2B1EE610A3C
:103180007047B0EE610AFBE705E0DFED3F0A70EE45
:10319000200AB0EE600ADFED3D0AB4EEE00AF1EE7F
:1031A00010FAF2D305E0DFED380A70EE600AB0EEF7
:1031B000600ADFED370AB4EEE00AF1EE10FAF2DC55
:1031C000B5EEC00AF1EE10FA36D2DFED3A0A60EE43
:1031D000200A9FED391A20EE011A41EE000AC0EDD7
:1031E000000AD0ED000AF5EEC00AF1EE10FA12D294
:1031F000D0ED000A90ED001AD0ED001AF1EE611A40
:1032000051EE210A90ED001ADFED2C1A01EEA01A02
:1032100080ED001A64E0D0ED000A90ED001AD0EDC8
:10322000001A51EE210A90ED001ADFED241A01EE8A
:10323000A01A80ED001A53E0DFED1E0A60EE200AAE
:103240009FED1D1A20EE011A41EE400AC0ED000A62
:10325000D0ED000AF5EEC00AF1EE10FA30D2D0ED52
:10326000000A90ED001AD0ED001AF1EE611A51EE4D
:10327000210A90ED001ADFED111A01EEA01A80ED7F
:10328000001A2DE00000B443DB0FC940DB0F49C03A
:10329000DB0F494000000000000034C3000034434D
:1032A00008E53C1EB1507B3FDE02493EDB0F493F43
:1032B000E4CB164083F9A23F7B81CF3E6666663E33
:1032C000D0ED000A90ED001AD0ED001A51EE210A5F
:1032D00090ED001A5FED071A01EEA01A80ED001ABA
:1032E000DFEDFD0A70EE200AB0EE600A5FED180A0D
:1032F000B4EEE00AF1EE10FA05DD5FED1D0A70EEA6
:10330000600AB0EE600AB5EEC00AF1EE10FA36D2ED
:103310005FED180A60EE200A1FED191A20EE011A5F
:1033200041EE000AC1ED000AD1ED000AF5EEC00A37
:10333000F1EE10FA12D2D1ED000A91ED001AD1EDA2
:10334000001AF1EE611A51EE210A91ED001A5FEDBB
:10335000251A01EEA01A81ED001A46E0D1ED000A0F
:1033600091ED001AD1ED001A51EE210A91ED001AEB
:103370005FED2E1A01EEA01A81ED001A35E05FED27
:10338000330A60EE200A1FED341A20EE011A41EED6
:10339000400AC1ED000AD1ED000AF5EEC00AF1EED7
:1033A00010FA12D2D1ED000A91ED001AD1ED001AF7
:1033B000F1EE611A51EE210A91ED001A5FED411A0A
:1033C00001EEA01A81ED001A0FE0D1ED000A91ED97
:1033D000001AD1ED001A51EE210A91ED001A5FEDAD
:1033E000491A01EEA01A81ED001A70473CB5044657
:1033F0000B4615461FED590AF0EE404A1FED5B0AD9
:10340000B0EE405A002222E004EB8200D0ED000A28
:10341000B0EE600A694601A8FFF7B6FE03EB820032
:10342000D0ED000A9DED011AB0EE640A01EE200A0B
:10343000F0EE404A03EB8200D0ED000A9DED001A49
:10344000B0EE450A01EE200AB0EE405A521CAA42E4
:10345000DADBF0EE450AB0EE640AFFF749FE3CBD48
:10346000F0EE401AF4EEE01AF1EE10FA11D8F4EE94
:10347000C11AF1EE10FA0CD8F4EEC10AF1EE10FA0E
:1034800002D8B0EE602A01E0B0EE412AB0EE420A66
:1034900022E0F4EEE10AF1EE10FA11D8F4EEC10ADE
:1034A000F1EE10FA0CD8F4EEC11AF1EE10FA02D8CF
:1034B000B0EE612A01E0B0EE412AB0EE420A0BE024
:1034C000F4EEE01AF1EE10FA02D8B0EE612A01E053
:1034D000B0EE602AB0EE420A704710B503468B4248
:1034E00008DC934206DC914201DC0C4600E0144605
:1034F000204610E0994208DC914206DC934201DC50
:103500001C4600E01446204605E08B4201DC1C46C8
:1035100000E00C46204610BD08B5F0EE400AB6EEBD
:10352000000A20EE800AB0EE401ACDED000A6B4989
:103530000098A1EB600000909DED000A60EE011A7A
:103540009DED002AB7EE080A01EEC20ADDED001A71
:1035500020EE210A8DED000A9DED000A08BD70B530
:103560002DED028B05460C46B0EE408A0026D5EDC7
:10357000000A60EEA00A94ED001AD4ED001A41EEA4
:10358000210AB0EE600A05F051FFF0EE408AB0EE7D
:10359000C80AB0EE408A9FED520AF4EEC08AF1EEFE
:1035A00010FA03D29FED4E0AF0EE408AF4EEC88A7C
:1035B000F1EE10FA11DDC8EE280AB0EE600AD5ED82
:1035C000000A60EE800AC5ED000AD4ED000A60EE44
:1035D000800AC4ED000A012600BF3046BDEC028B14
:1035E00070BD05E05FEDD80A70EE200AB0EE600A0B
:1035F0005FEDDA0AB4EEE00AF1EE10FAF2D305E07C
:103600005FEDDF0A70EE600AB0EE600A5FEDE00A7F
:10361000B4EEE00AF1EE10FAF2DCB5EEC00AF1EE1B
:1036200010FA0CD25FEDDD0A60EE200A1FEDDE1A03
:1036300020EE011A41EE000AC0ED000A0BE05FED3A
:10364000E30A60EE200A1FEDE41A20EE011A41EEB3
:10365000400AC0ED000ADFED200A70EE200AB0EE4D
:10366000600A5FEDF50AB4EEE00AF1EE10FA05DD4E
:103670005FEDFB0A70EE600AB0EE600AB5EEC00ABC
:10368000F1EE10FA0CD25FEDF50A60EE200A1FEDA4
:10369000F61A20EE011A41EE000AC1ED000A0BE015
:1036A0005FEDFC0A60EE200A1FEDFD1A20EE011A04
:1036B00041EE400AC1ED000A7047B0EE401AF0EE4C
:1036C000C11AB0EEE02AF4EEC21AF1EE10FA09D2F5
:1036D000B0EE410A08E00000DB0FC93FDF59375F59
:1036E000FFE6DB2EB0EE600A7047B0EE401AF0EE57
:1036F000C11AB0EEE02AF4EEC21AF1EE10FA02DDC1
:10370000B0EE410A01E0B0EE600A704770B50646BF
:103710000D460020287080240BE006EA0400A04239
:1037200001D171A000E071A00146284605F08CF897
:103730006410002CF1DC70BD10B52DED088BB0EEDF
:10374000409AF0EE609AB0EE41AA04469FED680AF6
:10375000F0EE40AABFEE000AB4EEC09AF1EE10FA05
:1037600003D2BFEE000AB0EE409AB7EE000AB4EE04
:10377000C09AF1EE10FA03DDB7EE000AB0EE409AFF
:10378000F0EEC98AB5EEC09AF1EE10FA02DBB0EEA7
:10379000698A01E0B0EE4A8A34BBB5EEC08AF1EE28
:1037A00010FA14DBB7EE001A38EE011AF0EE410AF7
:1037B000B7EE001A31EE681AB0EE410A05F030FBA0
:1037C000F7EE000A30EEC00AF0EE40AA7EE0B7EE57
:1037D000000A30EE480AF0EE400AB0EE680A05F042
:1037E0001FFBF0EE40AA71E0012C48D1B0EEC80AF0
:1037F0005FED450AB4EEE00AF1EE10FA02D2F0EE07
:1038000068AA63E0B5EEC08AF1EE10FA1EDBF7EEAF
:10381000000A70EEE80A60EE880AB0EE600A05F071
:10382000B3F9F7EE000A30EE60BAB0EE480A05F0E0
:10383000ABF9F7EE000A70EE600A8BEE200AF7EEA5
:10384000000A30EEC00AF0EE40AA3FE0F1EE480A6E
:1038500060EEA80AB0EE600A05F096F9F7EE000AED
:1038600030EE60BAB1EE480A05F08EF9F7EE000AC4
:1038700030EE600ACBEE000AF0EE60AA26E0022CE1
:1038800022D1B5EEC08AF1EE10FA10DBB7EE000AD5
:1038900070EE680AB7EE000A08EE280A80EE801A79
:1038A000B7EE000A30EE410AF0EE40AA0EE0B7EEA5
:1038B000000A70EE680AB7EE000A08EE600AC8EE69
:1038C000800AF0EE60AA01E0F0EE68AAB5EEC09AB8
:1038D000F1EE10FA03D2B1EE6A0AF0EE40AAB0EEB1
:1038E0006A0ABDEC088B10BD3100000030000000FA
:1038F0000000000032490143324A1160704770B540
:10390000002100230F22C4781CB32E4C246804F439
:10391000E064C4F5E064C4F30721C1F10404E3B238
:103920000A4144789C40E1B28478144021430C075A
:10393000210E254C05786155047804F01F050124FB
:10394000AC4005786D11AD0005F1E025C5F80041EA
:1039500009E0047804F01F050124AC401B4D0678F3
:10396000761145F8264070BD194A0A400243154BAE
:103970001B1F1A60704739B1124A121D12680243A8
:10398000104B1B1D1A6006E00E4A121D126882437E
:103990000C4B1B1D1A607047042808D14FF0E02122
:1039A000096941F004014FF0E022116107E04FF096
:1039B000E021096921F004014FF0E0221161704714
:1039C0000000FA050CED00E000E400E080E100E01A
:1039D00080FFFF1F10B50446FE48844209D1012133
:1039E000480601F012FA00214FF0007001F00DFAC4
:1039F00008E00121880601F008FA00214FF08060FC
:103A000001F003FA10BD30B502460020002314680F
:103A100024F002041460146844F00104146000E00F
:103A20005B1C546804F001041CB94FF6FF74A342F8
:103A3000F6D1546804F001040CB900206CE08C79D4
:103A4000012C04D1146844F08004146003E014686D
:103A500024F080041460CC79012C04D1146844F063
:103A60004004146003E0146824F0400414600C7AED
:103A7000012C04D1146844F02004146003E014689D
:103A800024F0200414604C7A012C04D1146844F012
:103A90001004146003E0146824F0100414608C7A9D
:103AA000012C04D1146844F00804146003E0146885
:103AB00024F008041460CC7A012C04D1146844F07A
:103AC0000404146003E0146824F0040414608C7887
:103AD000A407CD7844EA05640D7944EA05444D799C
:103AE00044EA05540D886D1E2C43D461146824F0FB
:103AF00001041460002300E05B1C546804F001041E
:103B00001CB14FF6FF74A342F6D1546804F00104CF
:103B10000CB1002000E0012030BD10B50021837AF7
:103B2000012202FA03F1AC4A126842F00102AA4BE8
:103B30001A60A94A1C3212688A43A74B1C331A60C8
:103B4000027BCAB9A44A0C3212688A43A24B0C33D6
:103B50001A604288C38842EA03439F4A4032847A0B
:103B600042F834300288838842EA03439A4A40325A
:103B7000847A02EBC4025360027B012A19D1964A6F
:103B80000C3212680A43944B0C331A604288038843
:103B900042EA0343904A4032847A42F83430C28881
:103BA000838842EA03438C4A4032847A02EBC4029F
:103BB0005360C27A3AB9884A121D12688A43864B0A
:103BC0001B1D1A6006E0844A121D12680A43824BCC
:103BD0001B1D1A60028932B97F4A143212688A4367
:103BE0007D4B14331A600289012A06D17A4A1432B5
:103BF00012680A43784B14331A60427B012A06D1BB
:103C0000754A1C3212680A43734B1C331A60724A9D
:103C1000126822F00102704B1A6010BD0021817100
:103C2000C171017241728172C1728170C1700321D0
:103C300001710221417101210180704766490968C3
:103C400041F00101644A11601146096843F60E72A1
:103C50009143614A11601146096841EA00211160EF
:103C60001146096821F001011160704721B1026815
:103C700042F48032026003E0026822F48032026083
:103C80007047E1B1026842F0800202604FF4C272F4
:103C9000125842F480734FF4C27213504FF4CA7238
:103CA000125842F480734FF4CA7213504FF4D27218
:103CB000125842F480734FF4D27213501BE0026822
:103CC00022F0800202604FF4C272125822F4807314
:103CD0004FF4C27213504FF4CA72125822F4807318
:103CE0004FF4CA7213504FF4D272125822F48073F8
:103CF0004FF4D2721350704710B5024600209368FB
:103D000003F08063B3F1806F00D110E0936803F09B
:103D10000063B3F1006F01D1012008E0936803F064
:103D20008053B3F1805F01D1022000E00420042819
:103D300079D002F5C07303EB00131B6803F0010494
:103D400002F5C07303EB00131C600B7A7BB94B7A4E
:103D50000C8843EA445302F5C07404EB0014246851
:103D6000234302F5C07404EB0014236010E00B7AC7
:103D70004C6843EAC4034C7A234302F5C07404EB55
:103D800000142468234302F5C07404EB001423607C
:103D90008B7A03F00F038B7202F5C07303EB0013F1
:103DA0005B6823F00F0402F5C07303EB00135C6043
:103DB00002F5C07303EB00135B688C7A234302F5B2
:103DC000C07404EB001463608B7B1C064B7B44EADD
:103DD000034403E000640040006600400B7B44EABB
:103DE0000323CC7A234302F5C07404EB0014A360D0
:103DF0008B7C1C064B7C44EA03440B7C44EA032383
:103E0000CC7B234302F5C07404EB0014E36002F59D
:103E1000C07303EB00131B6843F0010402F5C07389
:103E200003EB00131C6010BD10B50246002321B146
:103E3000012907D002290FD109E09068F94C00EA66
:103E400004030BE09068F84C00EA040306E0906875
:103E5000F64C00EA040301E0002300BF00BFF44C6D
:103E6000181BA34216D007DC83B16FF080601844A2
:103E700070B1022818D111E0B0F5007F10D0ED4CE0
:103E8000204448B1B0F5003F0ED10BE002230DE015
:103E900000230BE0002309E0002307E0012305E0F5
:103EA000012303E0012301E0002300BF00BFD8B2DB
:103EB00010BD21B1012907D002290FD109E0826884
:103EC00042F0800282600AE0826842F4004282602E
:103ED00005E0826842F40002826000E000BF00BF9B
:103EE000704710B500F5D87303EB01131B6803F09E
:103EF00004031372137A53B900F5D87303EB01135B
:103F00001B6840F2FF7404EA5353136009E000F5A4
:103F1000D87303EB01131B686FF0604404EAD3030A
:103F2000536000F5D87303EB01131B6803F0020321
:103F3000537200F5D87303EB01135B6803F00F03B2
:103F4000937200F5D87303EB01135B681B0AD374FB
:103F500000F5D87303EB01139B68D37200F5D87397
:103F600003EB01139B681C0A147300F5D87303EB71
:103F700001139B681C0C547300F5D87303EB0113F9
:103F80009B681B0E937300F5D87303EB0113DB687A
:103F9000D37300F5D87303EB0113DB681C0A1474A8
:103FA00000F5D87303EB0113DB681C0C547400F5A7
:103FB000D87303EB0113DB681B0E937421B9C3683C
:103FC00043F02003C36003E0036943F0200303616F
:103FD00010BD21B9C26842F02002C26003E002694C
:103FE00042F02002026170470246002019B9D368EE
:103FF00003F0030006E0012903D1136903F0030075
:1040000000E00020704710B502460B4600204FF636
:10401000FF71BBB9146824F0020444F00104146079
:1040200000E0491E546804F00304012C01D000296B
:10403000F7D1546804F00304012C01D0002032E0D1
:10404000012030E0012B13D1146824F00304146024
:1040500000E0491E546804F003040CB10029F8D1B3
:10406000546804F003040CB100201CE001201AE0A5
:10407000022B17D1146824F0010444F002041460E8
:1040800000E0491E546804F00304022C01D000290A
:10409000F7D1546804F00304022C01D0002002E0A0
:1040A000012000E0002010BD014600200A6822F037
:1040B000010242F002020A604A6802F00302022A88
:1040C00000D10120704701464FF6FF7200200B68B7
:1040D00023F002030B6000E0521E4B6803F0020362
:1040E000022B01D1002AF7D14B6803F00203022B07
:1040F00000D001207047014600208A6902F070005C
:104100007047014600208A69100E70470146002062
:104110008A69C2F3074070471AB143690B43436190
:1041200002E043698B434361704710B502460020AB
:1041300001F4700343B19369C1F3130423400BB13D
:1041400001202DE000202BE001F0807343B1536883
:10415000C1F3130423400BB1012021E000201FE034
:1041600001F0006343B19368C1F3130423400BB122
:10417000012015E0002013E001F0007343B1D36883
:10418000C1F3130423400BB1012009E0002007E034
:104190001369C1F3130423400BB1012000E0002098
:1041A00010BD0022244B994202D10023836111E00B
:1041B000C1F3130201F000730BB1C2600AE001F019
:1041C00080630BB1026105E001F000630BB1826016
:1041D00000E0426070470246002002EA01030BB192
:1041E000012000E00020704770B504460D4600260F
:1041F00060692840002872D0B5F5807F69D01DDC49
:10420000082D42D006DC012D2DD0022D31D0042DF9
:104210007FD134E0102D3ED0202D42D0402D78D1DA
:1042200045E0000003000004000300080000031044
:10423000000100080001FFF77000F030B5F5004FF5
:1042400061D009DCB5F5007F4AD0B5F5806F4DD05F
:10425000B5F5006F5DD150E0B5F5803F2DD0B5F5D7
:10426000003F56D12FE0A0685549FFF7B4FF06463E
:1042700051E0E0680321FFF7AEFF06464BE0E0683F
:104280000821FFF7A8FF064645E0E0681021FFF788
:10429000A2FF06463FE020690321FFF79CFF064688
:1042A00039E020690821FFF796FF064633E02069D0
:1042B0001021FFF790FF06462DE060680821FFF708
:1042C0008AFF064627E060681021FFF784FF064654
:1042D00021E0A0690121FFF77EFF06461BE01BE0FD
:1042E000A0690221FFF777FF064614E0A0690421C8
:1042F000FFF771FF06460EE00BE0A0697021FFF7A3
:104300006AFF064607E060680421FFF764FF06467F
:1043100001E0002600BF00E00026304670BDB1F588
:10432000007F3AD00FDC202928D006DC01291CD0E0
:1043300004291DD0082940D11DE0402921D0B1F524
:10434000807F3AD126E0B1F5004F31D006DCB1F5DF
:10435000806F25D0B1F5006F2FD124E0B1F5803FFB
:1043600012D0B1F5003F28D111E0154A826025E056
:104370000822C26022E01022C2601FE0082202610F
:104380001CE01022026119E00822426016E01022AF
:10439000426013E00422426010E0042242600DE01B
:1043A000042242600AE0002282610422426005E0A9
:1043B000002282610422426000E000BF00BF70471B
:1043C00001010100016821F001010160002101608B
:1043D00041608160C160016121214161DB49884206
:1043E00004D13D21D94A103A91608CE0D749183167
:1043F000884205D14FF47461D44A103A916082E04A
:10440000D2493031884205D14FF47411CF4A103A65
:10441000916078E0CD494831884205D14FF0746110
:10442000CA4A103A91606EE0C8496031884204D1AE
:10443000C749C64A103AD16065E0C449783188421C
:1044400004D1C449C14A103AD1605CE0BF499031FF
:10445000884204D1C049BD4A103AD16053E0BB49FB
:10446000A831884205D14FF03D51B84A103AD16089
:1044700049E0BA49884204D13D21B84A083A11605E
:1044800041E0B6491831884205D14FF47461B34A0E
:10449000083A116037E0B1493031884205D14FF414
:1044A0007411AE4A083A11602DE0AC494831884297
:1044B00005D14FF07461A94A083A116023E0A74979
:1044C0006031884204D1A249A44A121F11601AE047
:1044D000A2497831884204D19E49A04A121F116036
:1044E00011E09E499031884204D19B499B4A121F9A
:1044F000116008E09949A831884204D14FF03D513C
:10450000964A121F1160704710B500220268944B42
:104510001A40CC680B6823434C6923438C692343BE
:10452000CC6923430C6A23434C6A23438C6A23439C
:104530004C6B23438C6B23431A430260426922F085
:104540000702D1E90B3423431A4342610B694360EC
:104550004B6883608B68C36010BD002101604160BF
:104560008160C160016141618161C161016241623B
:104570008162C162016341638163704721B1026856
:1045800042F00102026003E0026822F001020260D0
:10459000704721B1026842F40042026003E0026801
:1045A00022F400420260704721B1026842F020020A
:1045B000026003E0026822F020020260704741605E
:1045C00070470146486880B2704722B1036843F4DF
:1045D0000023036003E0036823F400230360016108
:1045E000704721B1026842F48022026003E0026851
:1045F00022F48022026070470AB1016100E0C160CC
:104600007047014600200A6802F400220AB1012026
:1046100000E000207047014600200A6802F0010215
:104620000AB1012000E000207047014600204A69DD
:1046300002F03800704730B503460A4600200024D7
:10464000464DAB4202D24149103901E0434910398D
:1046500002F000550DB14C6800E00C68414D2C4053
:1046600004EA02050DB1012000E0002030BD024641
:104670003A4B9A4202D23548103801E03748103898
:1046800001F000531BB1374B0B40C36002E0354BC8
:104690000B408360704710B501F080034BB122B12D
:1046A000436943F08003436103E0436923F08003DF
:1046B000436180290BD02AB1036801F01E04234313
:1046C000036004E0036801F01E04A343036010BD0F
:1046D00070B50246002000240025204EB24202D2CE
:1046E0001A4B103B01E01D4B103B1F4E0E4036B1E4
:1046F0001E2606EAD124166806EA040502E0566979
:1047000006F0800501F000560EB15C6800E01C6800
:10471000144E344004EA010616B10DB1012000E048
:10472000002070BD02460D4B9A4202D20748103855
:1047300001E00A48103801F000531BB1094B0B404F
:10474000C36002E0074B0B4083607047106002407B
:104750003D000020400F002000003D20106402407A
:104760003F801CF07D0F7D0F3C0F3C0F10B50446C1
:104770008C48844208D10121084600F000FB00214A
:10478000012000F0FCFA5EE08748844208D1012154
:10479000022000F0F4FA0021022000F0F0FA52E0CA
:1047A0008248844208D10121042000F0E8FA002167
:1047B000042000F0E4FA46E07D48844208D101215B
:1047C000082000F0DCFA0021082000F0D8FA3AE0D6
:1047D0007848844208D10121102000F0D0FA00214D
:1047E000102000F0CCFA2EE07348844208D1012159
:1047F000202000F0C4FA0021202000F0C0FA22E0BE
:104800006E48844208D10121402000F0B8FA00210E
:10481000402000F0B4FA16E06948844208D1012132
:10482000802000F0ACFA0021802000F0A8FA0AE015
:104830006448844207D10121801500F0A0FA0021CC
:10484000A01500F09CFA10BDF0B50A460021002327
:10485000002400BF3DE0012505FA01F3156805EAD3
:1048600003049C4234D105684F000326BE40B54383
:10487000056015794E00B540066835430560157929
:10488000012D02D01579022D16D185684F0003261F
:10489000BE40B543856055794E00B54086683543C6
:1048A0008560456801268E40B54345604568967928
:1048B0008E40B6B235434560C5684F000326BE4002
:1048C000B543C560D5794E00B540C6683543C5606F
:1048D000491C1029BFD3F0BD4FF6FF7101600021C4
:1048E000017141718171C171704708B54FF4803217
:1048F0000092009A0A430092009AC261C161009A34
:10490000C261C2690092C269009208BD02460020DD
:1049100013690B400BB1012000E0002070470146F5
:10492000086980B270470246002053690B400BB102
:10493000012000E0002070470146486980B27047BE
:1049400001837047418370470AB1018300E04183CE
:1049500070474161704742694A4042617047F0B513
:10496000002300244D07ED0E02FA05F3CE1000F1EE
:10497000200555F826504E07F70E0F26BE40B543CA
:10498000CF1000F1200646F82750CE1000F1200588
:1049900055F8265045EA0304CE1000F1200545F8ED
:1049A0002640F0BD00000240000402400008024022
:1049B000000C0240001002400014024000180240A7
:1049C000001C024000200240FA48006840F001004C
:1049D000F84908600020F74908310860F548006888
:1049E000F5490840F3490860F448091D0860081FAC
:1049F000006820F48020091F08600020ED490C3178
:104A0000086070470021EB4A921C11701146087033
:104A1000704710B501460022002300204A11012AE8
:104A200002D1E44C236808E0022A03D1E14C70343F
:104A3000236802E0DF4C7434236801F01F02012474
:104A400094401C400CB1012000E0002010BD38B59E
:104A5000002000900024002500BF3120FFF7D9FF7F
:104A600005460098401C00900098B0F5A06F01D05A
:104A7000002DF2D03120FFF7CCFF08B1012400E077
:104A80000024204638BD01460020CA4A106820F0A4
:104A9000F80040EAC10010607047C94908607047DB
:104AA0000021C44A703211701170012802D004280C
:104AB0000AD104E00121BF4A7032117005E00521DE
:104AC000BC4A7032117000E000BF00BF7047BD49A2
:104AD0000860704770B5049C41EA82150126C6EB58
:104AE000530645EA0645054345EA0465B14E361DC1
:104AF000356070BDB24908667047820142EA0172B2
:104B0000AC4B84331A607047AD4988667047AC4936
:104B1000C864704702460020A64B0833186820F08E
:104B2000EC6042EA01031843A24B08331860704757
:104B3000024600209F4B0833186820F0784042EA74
:104B4000010318439B4B083318607047014600204F
:104B5000984A0832106820F003000843106070473C
:104B600094480830006800F00C00704701460020AF
:104B7000904A0832106820F0F00008431060704737
:104B8000014600208B4A0832106820F4E0500843A8
:104B90001060704701460020864A0832106820F4F1
:104BA000604040EAC10010607047F0B5002100226B
:104BB00000240225002602237E4F08373F6807F0B5
:104BC0000C0121B1042905D0082937D105E07E4F19
:104BD000076036E07D4F076033E0764F3F1D3F684A
:104BE000C7F38056734F3F1D3F6807F03F036EB118
:104BF000764FB7FBF3F7DFF8BCC10CF1040CDCF81F
:104C000000C0CCF3881C07FB0CF40CE06E4FB7FB24
:104C1000F3F7DFF8A0C10CF1040CDCF800C0CCF312
:104C2000881C07FB0CF4634F3F1D3F68C7F3014727
:104C30007F1C7D00B4FBF5F7076002E0624F076060
:104C400000BF00BF5B4F08373F6807F0F00109095C
:104C50005F4F7A5C0768D7404760564F08373F6818
:104C600007F4E051890A5A4F7A5C4768D740876059
:104C7000504F08373F6807F46041490B544F7A5C46
:104C80004768D740C760F0BD002100F44072B2F51C
:104C9000407F0AD1474A0832116821F4F8114D4A81
:104CA00002401143434A08321160424A703212688E
:104CB000C0F30B031A433F4B70331A6070474149EE
:104CC0004439086070473F4940390860704742499D
:104CD0000860704739B1374A303212680243354BA9
:104CE00030331A6006E0334A303212688243314B67
:104CF00030331A60704739B12E4A34321268024399
:104D00002C4B34331A6006E02A4A3432126882434C
:104D1000284B34331A60704739B1264A383212684A
:104D20000243244B38331A6006E0224A38321268B4
:104D30008243204B38331A60704739B11D4A4032E4
:104D4000126802431B4B40331A6006E0194A403296
:104D500012688243174B40331A60704739B1154AC5
:104D6000443212680243134B44331A6006E0114A7E
:104D70004432126882430F4B44331A60704739B192
:104D80000C4A1032126802430A4B10331A6006E0D4
:104D9000084A103212688243064B10331A6070477B
:104DA000E1B1044A143212680243024B14331A6010
:104DB00019E0000000380240FFFFF6FE103000242A
:104DC00000004742800E47420024F40040787D01F5
:104DD00013000020FFFCFF0F5C0147425B4A126892
:104DE00082435A4B1A60704739B1584A121D1268F3
:104DF0000243564B1B1D1A6006E0544A121D1268EE
:104E00008243524B1B1D1A60704739B14F4A0C3216
:104E1000126802434D4B0C331A6006E04B4A0C32C9
:104E200012688243494B0C331A60704739B1474AC4
:104E3000103212680243454B10331A6006E0434AB1
:104E4000103212688243414B10331A60704739B1F7
:104E50003E4A3C32126802433C4B3C331A6006E047
:104E60003A4A3C3212688243384B3C331A607047EE
:104E700039B1364A403212680243344B40331A602B
:104E800006E0324A403212688243304B40331A60A7
:104E9000704739B12D4A4432126802432B4B4433D8
:104EA0001A6006E0294A443212688243274B443391
:104EB0001A60704739B1254A4C3212680243234BBD
:104EC0004C331A6006E0214A4C32126882431F4B71
:104ED0004C331A60704739B11C4A50321268024391
:104EE0001A4B50331A6006E0184A50321268824357
:104EF000164B50331A60704739B1144AD21F1278DA
:104F00000243124BDB1F1A7006E0104AD21F1278C0
:104F100082430E4BDB1F1A7070470C4860300068EC
:104F200040F08070094960310860704701460020F8
:104F3000064A083A12680A400AB1012000E000203F
:104F400070470249891F08707047000014380240FA
:104F500010B50446FE48844208D101210846FFF7F7
:104F600065FF00210120FFF761FF9DE0B4F1804F54
:104F700008D101210846FFF748FF00210120FFF773
:104F800044FF91E0F348844208D101210220FFF759
:104F90003CFF00210220FFF738FF85E0EE48844205
:104FA00008D101210420FFF730FF00210420FFF782
:104FB0002CFF79E0E948844208D101210820FFF75D
:104FC00024FF00210820FFF720FF6DE0E448844221
:104FD00008D101211020FFF718FF00211020FFF752
:104FE00014FF61E0DF48844208D101212020FFF74F
:104FF0000CFF00212020FFF708FF55E0DA4884422B
:1050000008D101210220FFF711FF00210220FFF744
:105010000DFF49E0D548844209D101210804FFF77A
:1050200005FF00214FF48030FFF700FF3CE0D0483F
:10503000844209D101214804FFF7F8FE00214FF412
:105040000030FFF7F3FE2FE0CA48844209D1012166
:105050008804FFF7EBFE00214FF48020FFF7E6FE07
:1050600022E0C548844208D101214020FFF7CDFE4F
:1050700000214020FFF7C9FE16E0C048844208D155
:1050800001218020FFF7C1FE00218020FFF7BDFE37
:105090000AE0BB48844207D101218015FFF7B5FE25
:1050A0000021A015FFF7B1FE10BD00220288A84B19
:1050B00098420ED0AC4B98420BD0B0F1804F08D044
:1050C000A44B984205D0A44B984202D0A34B9842DF
:1050D00004D14FF68F731A404B881A43A04B984265
:1050E00007D0A04B984204D04FF6FF431A400B89DB
:1050F0001A4302804B68C3620B880385944B984225
:1051000002D0994B984201D18B7A03860123838286
:1051100070474FF0FF3141600021018001814180E3
:10512000817270470185828270470A46002101889A
:105130004FF68F73194011430180704741627047E9
:10514000C16270470146486A70470146088D704742
:1051500021B1028842F00202028004E002884FF688
:10516000FD731A400280704721B1028842F00402A8
:10517000028004E002884FF6FB731A4002807047F9
:1051800021B1028842F08002028004E002884FF6DA
:105190007F731A400280704702884FF6F7731A40F7
:1051A000028002880A430280704702884FF6FF435C
:1051B0001A40028002880A430280704721B10288A7
:1051C00042F00102028004E002884FF6FE731A40AA
:1051D0000280704770B5002400220023058C4FF632
:1051E000FE7635400584028C8388048B4FF68F75DC
:1051F0002C40B51E2C400D882C43751E2A408D89ED
:105200002A434D882A43524DA84202D0564DA84207
:1052100013D14FF6F7752A40CD892A434FF6FB7517
:105220002A408D882A434FF6FF652B404FF6FF55E5
:105230002B400D8A2B434D8A2B43838004838D683A
:105240004563028470BD70B5002400220023058CE4
:105250004FF6EF7635400584028C8388048B48F640
:10526000FF752C404FF6FF452C400D884FF6FF761A
:1052700006EA05252C434FF6DF752A408D8906EA9C
:1052800005152A434D8806EA05152A43304DA842E4
:1052900002D0354DA8421DD14FF67F752A40CD89E9
:1052A0004FF6FF7606EA05152A434FF6BF752A40EA
:1052B0008D8806EA05152A434FF6FF352B404FF23D
:1052C000FF752B400D8A06EA85052B434D8A06EAB9
:1052D00085052B43838004838D688563028470BDBC
:1052E00070B5002400220023058C4FF6FF66354080
:1052F0000584028C8388848B4FF68F752C404FF683
:10530000FC752C400D882C434FF6FF552A408D89A3
:105310004FF6FF7606EA05252A434D8806EA05255D
:105320002A430B4DA84202D00F4DA84238D14FF26C
:10533000FF752A40CD894FF6FF7606EA05252A43F8
:105340004FF6FF352A408D8806EA05252A4319E0E5
:10535000000001400004004000080040000C004034
:1053600000100040001400400004014000400140D3
:10537000004401400048014000180040001C00406B
:10538000002000404EF6FF752B404DF6FF752B4078
:105390000D8A06EA05152B434D8A06EA05152B43AF
:1053A000838084838D68C563028470BD70B50022DC
:1053B00000230024058C4EF6FF7635400584038CCF
:1053C0008488828B48F6FF752A404FF6FF452A40B5
:1053D0000D884FF6FF7606EA05252A434DF6FF7540
:1053E0002B408D8906EA05352B434D8806EA0535A5
:1053F0002B43FE4DA84202D0FD4DA84208D14BF6EA
:10540000FF752C400D8A4FF6FF7606EA85152C4372
:10541000848082838D680564038470BD00210180CF
:105420004180818081608181C18101824182704798
:1054300070B50346002000241846183001258D4021
:10544000ACB21D8CA5431D8409B108290AD100EB1B
:10545000610005684FF68F76354005600568154395
:1054600005600FE00D1FC5F34E052844056848F69A
:10547000FF763540056005684FF6FF7606EA02269E
:105480003543056070BD4163704781637047C163F8
:105490007047016470470A460021018B4FF68F73F5
:1054A00019401143018370470A460021018B48F6D9
:1054B000FF7319404FF6FF7303EA02231943018378
:1054C00070470A460021818B4FF68F7319401143B4
:1054D000818370470A460021818B48F6FF7319408B
:1054E0004FF6FF7303EA02231943818370470A468C
:1054F0000021018B4FF6F773194011430183704768
:105500000A460021018B4FF2FF7319404FF6FF73DB
:1055100003EA02231943018370470A460021818B65
:105520004FF6F77319401143818370470A460021F3
:10553000818B4FF2FF7319404FF6FF7303EA02238A
:105540001943818370470A460021018B4FF6FB7394
:1055500019401143018370470A460021018B4FF621
:10556000FF3319404FF6FF7303EA02231943018307
:1055700070470A460021818B4FF6FB731940114397
:10558000818370470A460021818B4FF6FF33194013
:105590004FF6FF7303EA02231943818370470A46DB
:1055A0000021018B4FF67F7319401143018370472F
:1055B0000A460021018BC1F30E014FF6FF7303EA87
:1055C00002231943018370470A460021818B4FF65D
:1055D0007F7319401143818370470A460021818BF4
:1055E000C1F30E014FF6FF7303EA022319438183CF
:1055F00070470A460021018C4FF6FD731940114394
:10560000018470470A460021018C4FF6F773194058
:105610001143018470470A460021018C4FF6DF7365
:1056200019404FF6FF7303EA0213194301847047D0
:105630000A460021018C4FF67F7319404FF6FF7325
:1056400003EA02131943018470470A460021018CC2
:105650004FF6FF5319404FF6FF7303EA0223194335
:10566000018470470A460021018C4FF2FF731940F4
:105670004FF6FF7303EA02231943018470470A4679
:105680000021018C4DF6FF7319404FF6FF7303EABA
:10569000023319430184704730B5002301248C4044
:1056A000A3B2048C9C430484048C02FA01F5ADB2CD
:1056B0002C43048430BD30B5002304248C40A3B2B5
:1056C000048C9C430484048C02FA01F5ADB22C4393
:1056D000048430BD828B4FF2FF331A408283828B69
:1056E0004FF6FF7303EA01231A4382837047F0B534
:1056F0000C461546002100220026078C4EF6FF7C42
:1057000007EA0C070784818B028C4FF6FF7707EAC4
:10571000043640F6FF4739404FF6FF7707EA052782
:1057200039434FF6FF7707EA0337394345F6FF77EA
:105730003A4046F480573A4381830284F0BD828B1D
:105740004FF6F3731A408283828B0A438283704739
:10575000F0B50C461546002100220026078C4FF6B6
:10576000FF6C07EA0C070784818B028C4FF6FF77EA
:1057700007EA04264FF60C7739404FF6FF7707EA21
:1057800003172F4339434FF2FF573A4046F48077CF
:105790003A4381830284F0BD028B4FF2FF331A40FB
:1057A0000283028B4FF6FF7303EA01231A4302833D
:1057B0007047F0B50C461546002100220026078CE4
:1057C0004FF6EF7C07EA0C070784018B028C4FF63B
:1057D000FF7707EA041640F6FF4739404FF6FF7798
:1057E00007EA033739434FF6FF7703E00000014033
:1057F0000004014007EA052739434FF65F773A4036
:1058000046F010073A4301830284F0BD028B4FF645
:10581000F3731A400283028B0A4302837047F0B588
:105820000C46154600210022068C4FF6FE773E40BE
:105830000684018B028C4FF60C7631407E1C06EA02
:1058400003162E4331434FF6F576324044F00106FD
:10585000324301830284F0BD70B505460C462088B2
:1058600050B92389A28861882846FFF7D8FFE188CC
:105870002846FFF7CBFF25E0208804280AD123899A
:10588000A28861882846FFF794FFE1882846FFF741
:1058900083FF17E0208808280AD12389A28861881D
:1058A0002846FFF755FFE1882846FFF748FF09E043
:1058B0002389A28861882846FFF719FFE1882846D6
:1058C000FFF708FF70BD0021018041800121818028
:1058D0000021C180018170472DE9F04105460C4649
:1058E00000260127608808B9022600E00026A0886B
:1058F000012801D1022700E001272088A0B92389CF
:10590000A28861882846FFF78AFFE1882846FFF7CA
:105910007DFF23893A4631462846FFF74AFFE18852
:105920002846FFF739FF13E02389A28861882846BB
:10593000FFF73FFFE1882846FFF72EFF23893A460D
:1059400031462846FFF76BFFE1882846FFF75EFFE8
:10595000BDE8F0810146486B70470146886B70478F
:105960000146C86B70470146086C70470A884B882F
:105970001A438B881A43CB881A430B891A434B89E5
:105980001A438B891A43A0F84420704700210180F4
:1059900041808180C180018141818181704731B125
:1059A000B0F8442042F40042A0F8442005E0B0F8EA
:1059B0004420C2F30E02A0F84420704721B182882F
:1059C00042F00402828004E082884FF6FB731A40A2
:1059D0008280704721B1828842F00102828004E017
:1059E00082884FF6FE731A40828070471AB183890D
:1059F0000B43838102E083898B43838170478182DB
:105A0000704702460020138A0B400BB1012000E0D2
:105A100000207047CA430282704730B5024600201A
:105A200000230024158A05EA0103958905EA01048B
:105A300013B10CB1012000E0002030BDCA43028246
:105A4000704741EA0203A0F8483070471AB18389D1
:105A50000B43838102E083898B438381704721B1AB
:105A6000828842F00802828004E082884FF6F77351
:105A70001A408280704701894FF6F8721140018107
:105A800070470A46002101894FF68F731940114370
:105A90000181704730B504460D4629462046FFF780
:105AA000F0FF208940F00700208130BD2DE9F04152
:105AB00004460D4616461F46602D06D13B46012280
:105AC00031462046FFF775FE05E03B460122314690
:105AD0002046FFF7A4FE29462046FFF7D2FF208983
