:020000040800F2
:10000000C8BD00208D830008AD4E0008AF4E00082B
:10001000C74E0008CB4E0008CF4E0008000000007D
:10002000000000000000000000000000D34E0008A7
:10003000D54E00080000000013A6000877A80008AD
:10004000A7830008A7830008A7830008A7830008E8
:10005000A7830008A7830008A7830008A7830008D8
:10006000A7830008A7830008A7830008A7830008C8
:10007000A7830008A7830008A7830008A7830008B8
:10008000A783000833060008A7830008A783000899
:100090008B130008A7830008A7830008A783000824
:1000A000A7830008A7830008A7830008A783000888
:1000B0003104000853230008A7830008A783000821
:1000C000A7830008A7830008A7830008A783000868
:1000D000A7830008F924000859060008A783000830
:1000E000A7830008A7830008A7830008A783000848
:1000F000A7830008A7830008A7830008A783000838
:10010000A7830008A783000875180008A7830008C4
:10011000A7830008A7830008A7830008A783000817
:10012000A7830008A7830008A7830008A783000807
:10013000A7830008A7830008A7830008A7830008F7
:10014000BD1C0008051E0008A7830008A78300083F
:10015000A7830008A7830008D3240008A78300080A
:10016000A7830008A7830008A7830008A7830008C7
:10017000A7830008A7830008A7830008A7830008B7
:10018000A7830008A783000800F002F800F053F8E6
:100190000AA090E8000C82448344AAF10107DA45E2
:1001A00001D100F048F8AFF2090EBAE80F0013F0E1
:1001B000010F18BFFB1A43F0010318471CDE0000B3
:1001C0003CDE0000103A24BF78C878C1FAD8520744
:1001D00024BF30C830C144BF04680C6070470000C1
:1001E0000023002400250026103A28BF78C1FBD840
:1001F000520728BF30C148BF0B60704764290AF01E
:100200002184002070471FB50DF059FC9DE80300C4
:100210000AF05CFD0BF0D6F90400002000210CF080
:1002200063FE401C6060002000210CF047FEE0608F
:100230001FBD10B510BD0AF0CCFE1146FFF7E3FF5D
:1002400000F076F80BF044F903B4FFF7F2FF03BCBB
:100250000BF0B2F90CE0524C94F8F33394F8A3226B
:1002600094F85311E07802F0B2F964200AF0DAF859
:10027000F1E72BE0002424E004EBC40000EB400095
:10028000484901EBC00090F83700012806D1611CF5
:10029000C8B204F0DFFD64200AF0C4F8C4EBC40067
:1002A00000EB40003E4901EB001090F842000128AD
:1002B00006D1611DC8B204F0CDFD64200AF0B2F889
:1002C000641C042CD8DB64200AF0ACF8D2E70320CD
:1002D00005F0ACFB002004F0BDFD04E004F097FC49
:1002E000C8200AF09FF8F9E770B50446002500BF62
:1002F0000AF0D7FA00F0C2FC0AF06AF905460723B3
:10030000294A0021294809F047FD1023284A0021E5
:10031000284809F041FD1223274A0021274809F007
:100320003BFD052009F0B6FF28460AF055F970BDDF
:1003300010B507F091FF4FF4806101F00702204BE8
:1003400018684FF6FF0318401E4B034343EA022090
:100350001B4B186000BF00F0CFFE01F0C1FB00F0A6
:100360003BF801F0CBFF01F055FA00F0C7F802F0BE
:1003700011F802F08FF90221134804F0B5F901F0E9
:10038000C7FE00201149087008F058F90523104AEB
:100390000021104809F000FD08F077FA002010BD98
:1003A0003870002010690020B4080020CF02000837
:1003B000B40C002073020008B40E0020550200089F
:1003C0000CED00E00000FA052012002000000020E3
:1003D000B4040020E90200081FB50121084606F018
:1003E00062FD42F6DF6002900620ADF804000020B6
:1003F000ADF80600ADF80C0001A94FF0804006F002
:100400000AFF1C208DF8000001208DF801008DF8F6
:1004100002008DF80300684605F027FB0122114613
:10042000900707F099FB0121880706F07DFF1FBDAB
:1004300010B50121880707F0A6FB012853D101213F
:10044000800707F0B1FB002432E004EBC40000EBAE
:100450004000254911F8300028B304EBC40000EB3C
:10046000400001EBC0004078F0B104EBC40000EBA9
:10047000400001EBC0008078012806D0022805D09A
:1004800004280BD005280DD104E00CE020B202F0C6
:1004900025FC08E020B202F054FD04E020B202F096
:1004A00079FC00E000BF02E020B202F04AFD641CCB
:1004B000042CCADB0C4CB4F98E32B4F9B621B4F971
:1004C000DE10B4F9060003F083F903F0EBF90749F5
:1004D000074802F0EDF80748407A20B102220349AC
:1004E000054804F03EF910BD10690020145C00209E
:1004F00000680040380F00202012002000B597B09F
:100500000121084606F09CFC0121480406F0CBFCC2
:100510000121480506F094FC07220221FE4806F05E
:10052000D4FA07220321FC4806F0CFFA0C201190E0
:1005300002208DF8480000208DF84A0003208DF835
:10054000490000208DF84B0011A9F34806F032FA5B
:100550004FF4E13013900020ADF85000ADF8520098
:10056000ADF85400ADF858000C20ADF8560013A9B2
:10057000EA4807F043FC012240F22551E74807F022
:100580007BFD26208DF8400004208DF841000120DD
:100590008DF842008DF8430010A805F066FA01219D
:1005A000DE4807F0B3FCDE4805F0C2FF4FF0006004
:1005B00001900020059040200490DA480390D7482D
:1005C000001D0290001507900020069009900890E9
:1005D0000A904FF440300B9000200C9001200D90B9
:1005E00000200F900E9001A9CD4806F043F8CE49A7
:1005F000CB4806F0F2F8CC49C94806F049F9012287
:100600001021C74806F0FDF811208DF840000720A2
:100610008DF8410001208DF842008DF8430010A8AC
:1006200005F023FA01228021BC4807F01CFD17B019
:1006300000BD10B5BC49BA4806F000F901280AD13E
:10064000B949B74806F0C9F8B749B54806F020F9E6
:100650000020B649C87310BD10B52DED028B0024E3
:1006600040F22531AD4807F042FD50B1AB4807F0EC
:100670007CFC0020AE4908702021AE480AF0E4FA64
:10068000EEE240F22551A54807F031FD0028F7D0F1
:100690002021A24807F022FD40F225519F4807F093
:1006A0005DFD9E4807F061FCC4B2A148007800F0EF
:1006B000400008B39E48007800F0800020BBFF2C6B
:1006C00006D19B48007840F08000994908701BE0F3
:1006D0009748007800F03F019648445494480078C9
:1006E000401C934908700846007800F03F00282815
:1006F0000ADD0020087007E0EE2C05D18C48007858
:1007000040F040008A4908708948007800F0800075
:100710000028B5D0884890F82102012804D18648E5
:1007200090F8230285490870834890F8230230B17D
:10073000012805D0022879D0062800D1F8E186E208
:100740007D4890F82502082822D17B4890F826029F
:1007500011281DD1784890F82702302806D031287A
:1007600008D032280AD0332810D10BE00020744979
:1007700008700CE001207249087008E002207049FE
:10078000087004E003206E49087000E000BF00BF5D
:10079000694890F82502092821D1674890F8260277
:1007A00010281CD1644890F8280258B1012814D1AF
:1007B0006349097801EBC10101EB4101614A02F88B
:1007C00031000BE000205E49097801EBC10101EB2B
:1007D00041015C4A02F8310000E000BF00BF56480A
:1007E00090F825020A2824D1534890F826021028B0
:1007F0001FD1514890F8280260B1012817D1504903
:10080000097801EBC10101EB41014E4A02EBC10144
:1008100048700DE000204A49097801EBC10101EB65
:100820004101484A02EBC101487001E099E000BF74
:1008300000BF414890F82502032834D13E4890F883
:10084000260211282FD13C4890F82702322804D0E4
:1008500034280ED0352824D117E0022038490978F1
:1008600001EBC10101EB4101364A02EBC101887085
:1008700018E004203249097801EBC10101EB410184
:10088000304A02EBC10188700CE005202C49097840
:1008900001EBC10101EB41012A4A02EBC101887061
:1008A00000E000BF00BF244890F8250201281CD1B9
:1008B000214890F82602112817D11E48C01D0BF0C0
:1008C0000BFDB0EE408AF0EE608A51EC180B0CF094
:1008D000A3FD01B21A48007800EBC00000EB400015
:1008E000184A02EBC0000181B1E1134890F82502DB
:1008F000022835D1104890F82602112830D10D4831
:10090000C01D0BF0E9FCB0EE408AF0EE608A51ECBD
:10091000180B0CF081FD17E000000240004400407D
:10092000A06002406D10002000802020380F0020C1
:10093000020000206D1100204D0F0020010000205A
:10094000040000201069002000B2FE49097801EB84
:10095000C10101EB4101FC4A02EBC101888076E153
:1009600075E1FA4890F82502082822D1F74890F856
:10097000260211281DD1F54890F82702302812D000
:10098000312804D0322806D0332810D107E00120C6
:10099000EF4908700CE00220ED49087008E00320E0
:1009A000EB49087004E00020E949087000E000BF4E
:1009B00000BFE64890F82502092823D1E34890F8C3
:1009C000260210281ED1E14890F8280260B10128C3
:1009D00016D1DF490978C1EBC10101EB4101DD4AC4
:1009E00002EB011108700CE00020D9490978C1EB35
:1009F000C10101EB4101D74A02EB0111087000E08F
:100A000000BF00BFD14890F825020A2823D1CF4863
:100A100090F8260210281ED1CC4890F8280260B128
:100A2000012816D1CA490978C1EBC10101EB410186
:100A3000C84A02EB011148700CE00020C449097853
:100A4000C1EBC10101EB4101C24A02EB0111487047
:100A500000E000BF00BFBD4890F82502032826D162
:100A6000BA4890F82602112821D1B84890F82702F8
:100A7000322802D0352818D10BE00220B449097879
:100A8000C1EBC10101EB4101B24A02EB0111C87097
:100A90000CE00520AE490978C1EBC10101EB410131
:100AA000AC4A02EB0111C87000E000BF00BFA748CC
:100AB00090F8250201281AD1A44890F8260211289E
:100AC00015D1A5480BF008FCB0EE408AF0EE608A24
:100AD00051EC180B0CF0A0FC9D490978C1EBC10149
:100AE00001EB41019B4A02EB01118860AFE097489E
:100AF00090F8250202281AD1944890F8260211286D
:100B000015D195480BF0E8FBB0EE408AF0EE608A14
:100B100051EC180B0CF080FC8D490978C1EBC10138
:100B200001EB41018B4A02EB011148618FE000BFEC
:100B3000864890F82502012812D1844890F82602B0
:100B400011280DD184480BF0C7FBB0EE408AF0EEBF
:100B5000608A51EC180B0CF05FFC00B27F494880B2
:100B60007A4890F82502022812D1784890F8260297
:100B700011280DD178480BF0AFFBB0EE408AF0EEB3
:100B8000608A51EC180B0CF047FC00B27449C88025
:100B90006E4890F82502032812D16C4890F826027E
:100BA00011280DD16C480BF097FBB0EE408AF0EEA7
:100BB000608A51EC180B0CF02FFC00B26849888059
:100BC000624890F82502042807D1604890F8260270
:100BD000102802D10120624948705C4890F8250233
:100BE000052807D1594890F82602102802D1012083
:100BF0005B490870554890F82502062807D15348EC
:100C000090F82602102802D10120544948704F481C
:100C100090F82502042807D14C4890F826021028A5
:100C200002D101204D490870484890F825020C284F
:100C30000CD1464890F82602102807D100204749D9
:100C400048704749087048704449087000BF00BFA9
:100C500000204449087020213F48C01F09F0F4FFDC
:100C6000BDEC028B10BD10B5044621463E4805F090
:100C70005CFD01213C4805F037FD10BD70B52DED40
:100C8000028B0024EE222146641C38484254B122D3
:100C90002146641C425410222146641C4254002206
:100CA0002146641C42542146641C42542146641C63
:100CB000425405222146641C425410222046611CE5
:100CC000CCB22A490A5400222046611CCCB22749E2
:100CD0000A5401222046611CCCB224490A54FF2246
:100CE0002046611CCCB221490A54FC222046611CDA
:100CF000CCB21E490A54FF222146601CC4B21B48D4
:100D000042542046611CCCB218490A541848007855
:100D1000012802D002287DD1F7E0EE222146601C96
:100D2000C4B212484254B1222046611CCCB20F49D1
:100D30000A5412222046611CCCB20C490A540022EB
:100D4000204617E004000020106900204D0F00200D
:100D500005000020387000207411002034000020AD
:100D60002A00002002000020A06002406D10002038
:100D700001000020611CCCB2DA490A54012220464D
:100D8000611CCCB2D7490A540025BAE005EBC50076
:100D900000EB4000D44901EBC000807800287CD0F3
:100DA00000222046611CCCB2CE490A5401222046C2
:100DB000611CCCB2CB490A5400222046611CCCB243
:100DC000C8490A5405EBC50000EB4000C64901EBD9
:100DD000C000B0F91820C5A1C54809F0EBFDC44812
:100DE00009F090FEC2B22046611CCCB2BD490A5443
:100DF0000819BF4909F062FEBD4809F083FE20448E
:100E0000C4B200222046611CCCB2B6490A54022268
:100E1000204600E05EE1611CCCB2B2490A540022D7
:100E20002046611CCCB2AF490A5405EBC50000EB6B
:100E30004000AD4901EBC000B0F91420ABA1AC48B3
:100E400009F0B8FDAA4809F05DFEC2B22046611C57
:100E5000CCB2A4490A540819A54909F02FFEA448A8
:100E600009F050FE2044C4B200222046611CCCB2DE
:100E70009C490A5409222046611CCCB299490A5463
:100E800010222046611CCCB296490A540122204609
:100E9000611CCCB293490A5400E031E005EBC50077
:100EA00000EB4000904901EBC00042782046611CF5
:100EB000CCB28C490A5400222046611CCCB289492C
:100EC0000A540A222046611CCCB286490A541022D8
:100ED0002046611CCCB283490A5401222046611C81
:100EE000CCB280490A5405EBC50000EB40007E49B6
:100EF00001EBC00042782046611CCCB279490A540B
:100F00006D1C042DFFF642AFE5E0EE222046611C89
:100F1000CCB274490A54B1222046611CCCB271494A
:100F20000A5412222046611CCCB26E490A54002297
:100F30002046611CCCB26B490A5402222046611C37
:100F4000CCB268490A540025C0E0C5EBC50000EBEF
:100F50004000684901EB0010C07800287ED00022D4
:100F60002046611CCCB25F490A5401222146601C14
:100F7000C4B25C48425400222046611CCCB259499C
:100F80000A54C5EBC50000EB40005A4901EB0010C4
:100F9000C26956A1564809F00DFD554809F0B2FD49
:100FA000C2B22146641C4F48425401464819504978
:100FB00009F084FD4E4809F0A5FD2044C4B200228A
:100FC0002046611CCCB247490A5402222046611CCB
:100FD000CCB244490A5400222046611CCCB241499B
:100FE0000A54C5EBC50000EB4000424A02EB00107A
:100FF00090ED080A10EE101A08460CF0EFFC41ECD8
:10100000180B53EC182B39A1394809F0D3FC384898
:1010100009F078FDC2B22146641C324842540146B0
:101020004819334909F04AFD314809F06BFD204465
:10103000C4B200222146601CC4B22A48425409228C
:101040002046611CCCB227490A5410222046611C5C
:10105000CCB224490A540122204600E035E0611C4C
:10106000CCB220490A54C5EBC50000EB4000214931
:1010700001EB001042782046611CCCB219490A5499
:1010800000222046611CCCB216490A54092220468F
:10109000611CCCB213490A5410222046611CCCB208
:1010A00010490A5401222046611CCCB20D490A5451
:1010B000C5EBC50000EB40000E4901EB0010427883
:1010C0002046611CCCB207490A546D1C042DFFF662
:1010D0003CAF00E000BF00BF2046FFF7C4FDBDEC01
:1010E000028B70BD6D100020106900202564000087
:1010F000B80E00203870002000B58BB001214806E2
:1011000005F0D1FE0121084605F09AFE09220B21C7
:10111000FB4805F0DAFC09220C21F94805F0D5FC62
:1011200002208DF81C004FF4C050069006A9F44828
:1011300005F040FC14208DF8040003208DF8050014
:1011400000208DF8060001208DF8070001A804F0AA
:101150008CFCEC4804F0F4FC08A804F015FE002018
:101160008DF8260001208DF8270000208DF828003A
:101170008DF829008DF82A008DF82B008DF82200BB
:101180008DF8230008208DF8240003208DF8250019
:10119000ADF8200008A9DB4804F0EBFC01208DF835
:1011A00012008DF8130000208DF8140046F2A00004
:1011B000ADF8080046F2C000ADF80A0046F2E000C3
:1011C000ADF80C004FF4C240ADF80E000020ADF8B1
:1011D000100001208DF8150002A804F054FD022033
:1011E0008DF8120001208DF8130000208DF81400F6
:1011F0004FF4C140ADF8080046F22000ADF80A00F7
:1012000046F24000ADF80C0046F26000ADF80E006A
:101210000020ADF8100001208DF8150002A804F0A0
:1012200032FD03208DF8120001208DF813000020FC
:101230008DF814004FF4C040ADF808004FF4C840DA
:10124000ADF80A000020ADF80C00ADF80E00ADF8C6
:10125000100001208DF8150002A804F014FD0122F1
:101260000221A84805F00EF80BB000BD70B5044689
:101270000D4605F52070A4494A88091D01EB0211AD
:1012800008600421A0484288001D00EB0210017193
:10129000A27A9D494B88091D01EB0311481D04F1F9
:1012A0000B0109F05AFC98484088401C322190FB01
:1012B000F1F201FB12009449488070BD70B50546FB
:1012C0000E46144606F520708F494A88091D01EB29
:1012D0000211086008218C484288001D00EB0210B2
:1012E0000171AA7A88494B88091D01EB0311481D39
:1012F00005F10B0109F031FC217883484288001D7B
:1013000000EB0210417261787F484288001D00EBBB
:1013100002108172A1787C484288001D00EB021007
:10132000C172E17878484288001D00EB0210017319
:1013300075484088401C322190FBF1F201FB1200FD
:101340007149488070BD70B586B005460C4616469A
:1013500004F52070019000208DF80C008DF80D0030
:1013600008208DF80E00002007E0684931F81020B1
:101370000DF10F0121F81020401C0428F5DB01A914
:10138000604804F06FFD06B070BD30B585B0022135
:101390005C4804F0DFFF00287ED00221594805F0A8
:1013A00074F80221574804F0B2FF6A4600215548FC
:1013B00004F04DFE0098C5B20098B0F5407F6CD1A6
:1013C0009DF80B004D2826D19DF80C004F2822D106
:1013D00004208DF80A00002417E09DF80F0000F0AB
:1013E0000100C4EBC40101EB4101494A02EB0111C8
:1013F0000870C4EBC40000EB4000114601EB001084
:10140000007808B100204870641C042CE5DB2946F4
:101410006846FFF72BFF9DF80B00532816D19DF867
:101420000C00542812D100240AE00121C4EBC400AE
:1014300000EB4000364A02EB001080F84510641CB7
:10144000042CF2DB29466846FFF710FF9DF80B00DD
:10145000422829D19DF80C00472825D100241AE004
:101460000220C4EBC40101EB4101294A02EB011146
:10147000C8700120C4EBC40101EB410102EB011172
:1014800048700021C4EBC40000EB400002EB0010E8
:1014900080F84410641C01E0ACE171E0042CDFDB57
:1014A00029466846FFF7E2FE9DF80B0050281BD145
:1014B0009DF80C00582817D1681CC5B2002411E013
:1014C000C4EBC40101EB4101114A02EB011101F12E
:1014D0002800104900F0A2FE0E4A29466846FFF790
:1014E000EDFE641C042CEBDB9DF80B00562827D185
:1014F0009DF80C00582823D1A81CC5B200241DE07B
:101500000000024000640040385F0020140000200A
:101510003870002008000020C4EBC40101EB410139
:10152000B54A02EB011101F11C00B44900F076FE4E
:10153000B24A29466846FFF7C1FE641C042CEBDB67
:101540009DF80B0049281AD19DF80C00512816D19E
:10155000E81CC5B2002410E0C4EBC40101EB41015A
:10156000A54A02EB0111081DA44900F043FEA34A5D
:1015700029466846FFF7A2FE641C042CECDB00BF82
:101580000098B0F5407F20D90098B0F5417F1CD875
:101590000098401EC5B29DF80B004A2815D19DF851
:1015A0000C00562811D1DDF80F0095490860084657
:1015B0000168C5EBC50000EB40008F4A02EB00104C
:1015C000816029466846FFF751FE0098B0F5417FDB
:1015D00079D90098B0F5427F75D89DF80B00532853
:1015E00013D19DF80C0054280FD10098401FC5B2AC
:1015F000002005EBC50101EB4101824A02EBC1016C
:10160000487029466846FFF731FE9DF80B004228D6
:1016100013D19DF80C0047280FD10098401FC5B288
:10162000012005EBC50101EB4101764A02EBC10146
:10163000487029466846FFF719FE9DF80B005028B0
:1016400025D19DF80C00582821D10098C5B26E49CB
:101650000DF10F0000F00BFE6B4890ED000AB8EEA4
:10166000C00ADFED6A0A80EE201ABDEEC10A10EE54
:10167000100A01B2681F00EBC00000EB4000614A95
:1016800002EBC000818029466846FFF7EFFD9DF818
:101690000B004D2817D19DF80C004F2813D100984E
:1016A000C5B29DF80F0008B1012100E00021681FBC
:1016B00000EBC00000EB4000524A02F8301029460F
:1016C0006846FFF7D3FD0098B0F5487F31D1009808
:1016D000A0F54870C5B29DF80B004D282AD19DF8A1
:1016E0000C004F2826D100201DE09DF8101009B1F4
:1016F000012100E0002100EBC00202EB4202414B5D
:1017000003F8321000EBC00101EB41011A4612F858
:10171000311039B9002100EBC00202EB420203EBA9
:10172000C2025170401C0428DFDB29466846FFF7DF
:101730009DFD5EE09DF80B0053281ED19DF80C0026
:1017400050281AD1002415E02D490DF10F0000F0AA
:101750008EFD2B48008881B204EBC40000EB4000F2
:10176000284A02EBC000A0F8461029466846FFF759
:101770007DFD641C042CE7DB3BE09DF80B0050284A
:1017800008D19DF80C00582804D129466846FFF777
:101790006DFD2EE0002025E00DF10B0131F8101059
:1017A0001B4A22F81010114631F91010642291FBE7
:1017B000F2F109B200EBC00202EB4202114B03EB63
:1017C000C202918000EBC00101EB41011A4602EB1D
:1017D000C101898A642211FB02F109B20C4A22F884
:1017E0001010401C0428D7DB094A29466846FFF739
:1017F000AAFD00BF05B030BD3870002008000020F1
:101800000C00002010690020100000200000C842D9
:10181000140000201FB50121082005F044FB42F60A
:10182000DF6002900B20ADF804000020ADF80C0042
:10183000ADF8060001A9A24805F0EDFC32208DF8B4
:10184000000001208DF803008DF8010000208DF8C4
:101850000200684604F009F90121994806F090F960
:1018600001221146964806F077F90121944805F0C7
:101870005BFD1FBD70B50121914806F084F9002879
:101880007AD001218E4806F08FF900240BE1C4EBD9
:10189000C40000EB40008B4901EB001000780028E9
:1018A0006BD0C4EBC40000EB400001EB00104078AB
:1018B000002869D0C4EBC40000EB400001EB00102D
:1018C000C0780A285ED2DFE800F0460516335D2FA7
:1018D0005D5D5D59C4EBC40101EB4101794A02EB46
:1018E0000111D1ED010AB0EE600A611CC8B20021FD
:1018F00002F0A1FB47E0C4EBC40202EB4202714BD1
:1019000003EB02129268C4EBC40303EB43036D4D77
:1019100005EB031393F8443102FB03F1621CD0B2D0
:10192000002202F048FC2EE0E0B202F0B5FA2AE014
:10193000C4EBC40101EB4101624A02EB0111D1ED9C
:101940004A0AF8EEE00AB0EE600A611CC8B2002153
:1019500002F031FD17E0C4EBC40101EB4101594A2B
:1019600002EB0111D1ED040AB0EE600A611CC8B2AD
:10197000002102F0A3FC06E098E08CE0E0B202F067
:101980009BFB00E000BF00BFC4EBC40000EB4000C5
:101990004C4901EB001090F84400002852D1C4EBF0
:1019A000C40000EB400001EB001090F84500012856
:1019B00078D1C4EBC40000EB400001EB001090F8BC
:1019C0001901401CC1B2C4EBC40000EB40003D4A09
:1019D00002EB001080F81911C4EBC40000EB4000CA
:1019E000114601EB001090F81911C4EBC40000EB94
:1019F000400002EB0010B0F82201814223DD0121FA
:101A0000C4EBC40000EB400002EB001080F844106F
:101A10000021C4EBC40000EB400002EB001080F892
:101A200045100520C4EBC40101EB410102EB01119B
:101A3000C8700021C4EBC40000EB400002EB0010B2
:101A400080F819112EE00320C4EBC40101EB410121
:101A50001C4A02EB0111C870C4EBC40000EB40004B
:101A6000114601EB001090ED080ABCEEC00A10EE22
:101A7000100A154908700846007800EE100AB8EE02
:101A8000400AC4EBC40000EB4000114601EB00101B
:101A900080ED030A06E0611CC8B200219FED0B0A2D
:101AA00002F0C9FA641C042CFFF6F1AE084909489B
:101AB00000F0FEFD0849094800F0FAFD70BD000085
:101AC000000C0040387000201C00002000000000C6
:101AD0005C62002000680040385F00200064004025
:101AE00000B58BB00121880605F0DDF90121022047
:101AF00005F0A6F909220521FE4804F0E6FF0922B7
:101B00000621FC4804F0E1FF02208DF81800602057
:101B1000059005A9F74804F04DFF40208DF82800F6
:101B200002208DF8290000208DF82A0001208DF870
:101B30002B000AA803F099FF41208DF8280002200D
:101B40008DF829008DF82A0001208DF82B000AA8B5
:101B500003F08BFFE84803F0F3FF07A804F014F943
:101B600000208DF8220001208DF8230000208DF840
:101B700024008DF825008DF826008DF827008DF8BB
:101B80001E008DF81F0008208DF8200003208DF81E
:101B90002100ADF81C0007A9D74803F0EAFF0E208A
:101BA0008DF80E0001208DF80F0000208DF8100038
:101BB00044F22000ADF8040044F24000ADF8060005
:101BC00044F26000ADF808004FF48140ADF80A001F
:101BD0000020ADF80C0001208DF8110001A804F0E0
:101BE00052F80F208DF80E0001208DF80F00002014
:101BF0008DF8100044F2A000ADF8040044F2C000DB
:101C0000ADF8060044F2E000ADF808004FF4824061
:101C1000ADF80A000020ADF80C0001208DF811008D
:101C200001A804F030F814208DF80E0000208DF883
:101C30000F0001208DF810000020ADF804004FF4D3
:101C40009040ADF806004FF6FF70ADF80800002098
:101C5000ADF80A000120ADF80C008DF8110001A8C4
:101C600004F011F819208DF80E0000208DF80F00F7
:101C700001208DF810000020ADF804004FF4004062
:101C8000ADF806004FF6FF70ADF808004FF478404D
:101C9000ADF80A000120ADF80C008DF8110001A884
:101CA00003F0F1FF01221021934804F0EBFA012226
:101CB0000221914804F0E6FA0BB000BD10B586B0E1
:101CC00002218D4804F046FB00287DD001AA0021A6
:101CD000894804F0BCF90198B0F5007F75D90198E6
:101CE000B0F5027F71D89DF80D0000287FD10198D2
:101CF000401FC4B2814850F82400814941F82400B3
:101D000008F040FC7D4941F82400084650F82400C2
:101D10007B4951F82410401A7A4941F824009DF873
:101D200012109DF8110041EA002001B204EBC4003A
:101D300000EB4000744A02EBC00001839DF81000E4
:101D40009DF80F1040EA012001B204EBC40000EB43
:101D5000400002EBC00001849DF814109DF81300B0
:101D600041EA002001B204EBC40000EB400002EBAA
:101D7000C000C1829DF8151004EBC40000EB4000C8
:101D800002EBC0004184204601F05EFA08F0FAFB45
:101D900004EBC40101EB41015B4A02EBC10188661F
:101DA00004EBC40000EB4000114601EBC00090F8CA
:101DB0003A00D8B9012104EBC40000EB400002EB6B
:101DC000C00080F83A1001E01AE010E0002104EBB6
:101DD000C40000EB400002EBC000A0F8581004EB78
:101DE000C40000EB400002EBC000C16100BF022153
:101DF000414804F04AFB02213F4804F088FA00BF42
:101E000006B010BD10B586B010213B4804F0A2FA10
:101E100000286ED001AA0121374804F018F91021DA
:101E2000354804F032FB1021334804F070FA9DF875
:101E30000C0004286CD19DF80D000028FAD1009008
:101E4000029800F00F00401EC4B209210298B1EBC5
:101E5000102F7DD169460DF10F0000F008FAC4EB98
:101E6000C40101EB4101294A02EB011191F844112F
:101E700090FBF1F1C4EBC40000EB400002EB00105A
:101E8000C1616946B2EE040A0DF10F0000F015FAC7
:101E9000C4EBC40000EB40001C4901EB001080EDD6
:101EA000060A6946B2EE040A0DF10F0000F005FAC9
:101EB000C4EBC40000EB4000144901EB001080EDBE
:101EC000080A0DF11601481E00F033F9BDF815108F
:101ED000C4EBC40000EB40000C4A02EB0010A0F879
:101EE0000411C4EBC40000EB4000114601EB0010EC
:101EF0000FE004E10004024000680040F80E0020FA
:101F0000D80E0020180F0020106900203870002023
:101F1000F4E0B0F80411C4EBC40000EB400002EBA5
:101F20000010B0F80601081A00B2C4EBC40101EBBE
:101F3000410102EB0111A1F80001C4EBC40000EB68
:101F40004000114601EB001090F8020198B100E04A
:101F5000C8E00021C4EBC40000EB400002EB00101D
:101F600080F802110020C4EBC40101EB410102EB37
:101F70000111A1F80001C4EBC40000EB400061496D
:101F800001EB0010B0F80411C4EBC40000EB4000FA
:101F90005C4A02EB0010A0F80611C4EBC40000EB91
:101FA0004000114601EB0010B0F90001002808DDE7
:101FB000C4EBC40000EB400001EB0010B0F90001DD
:101FC00009E0C4EBC40000EB40004E4901EB0010F7
:101FD000B0F90001404242F22831884226DDC4EBCC
:101FE000C40000EB4000474901EB0010B0F90011BC
:101FF000C4EBC40000EB4000424A02EB0010B0F911
:102000000001002802DA4FF0FF3000E0012040F22A
:1020100065425043A1EB001000B2C4EBC40101EBD8
:102020004101384A02EB0111A1F80001C4EBC400E0
:1020300000EB4000334901EB0010B0F9000105212D
:1020400090FBF1F1C4EBC40000EB40002D4A02EB21
:102050000010806A0144C4EBC40000EB400002EBB6
:1020600000108162C4EBC40000EB4000114601EB9C
:1020700000104169C4EBC40000EB400002EB00100B
:10208000806A091AC4EBC40000EB400002EB0010A8
:10209000C0F81011C4EBC40000EB4000114601EB86
:1020A00000104078F0B1C4EBC40000EB400001EB3D
:1020B000001090ED080AC4EBC40000EB400001EBF7
:1020C000001080ED420AC4EBC40000EB400001EBBD
:1020D0000010816AC4EBC40000EB400002EB00106A
:1020E000C0F80C1108F04EFAC4EBC40101EB410139
:1020F000044A02EB0111C1F81C0100BF00BF06B089
:1021000010BD000038700020012037494872704728
:1021100010B500F07CFBFFF7F7FF02F057FD02F06F
:1021200079FE03F069FC314802F0A6FD01F056FC8F
:1021300010BD00220A7803780B700270704710B54A
:10214000082008F0E1FB044600206060204610BD36
:1021500002460B46114605E00888984201D1084620
:10216000704749680029F7D10020F9E770B50646A5
:102170000C46354600E06D6815B16868A042FAD19A
:102180004CB160686860204608F0EDFB18480078A4
:10219000401E1749087070BD2DE9F041074688467A
:1021A0003C4641462046FFF7D3FF08B1BDE8F08129
:1021B000002602E06468701CC6B20D480078B04288
:1021C00001DD002CF6D16CB1082008F09DFB05461E
:1021D000A5F8008060686860656005480078401C6C
:1021E0000349087000BFE1E7380F00207875002030
:1021F0002000002008B590ED000A8DED000ABDF822
:1022000000200A70BDF80020120A4A70BDF80220B2
:102210008A70BDF80220120ACA7008BD08B50268AB
:102220000092BDF800200A70BDF80020120A4A7022
:10223000BDF802208A70BDF80220120ACA7008BDDB
:1022400030B50C0E15686B1C13604455C1F3074480
:1022500015686B1C13604455C1F3072415686B1C8B
:102260001360445515686B1C1360415530BD10B5A3
:1022700002460B68D35C1C060B685B1CD35C44EA0B
:1022800003440B689B1CD35C44EA03230C68E41CE6
:10229000145D43EA04000B681B1D0B6010BD10B5F4
:1022A00002460B685B1CD35C0C68145D43EA042394
:1022B00018B20B689B1C0B6010BD30B50446F0EEE5
:1022C000400A0D4629462046FFF7E9FF00EE100AB6
:1022D000B8EEC01A81EE200A30BD10B50246B1F941
:1022E00000305B1CD35CB1F90040145D43EA042369
:1022F00018B20B889B1C1BB20B8010BD1FB50121AF
:10230000022004F0D0FD214802900320ADF8040023
:102310000020ADF80600ADF80C001D208DF800007F
:1023200003208DF8010001208DF802008DF80300D4
:10233000684603F09AFB01A9154804F06CFF0122DE
:102340001146134805F008FC0121114804F0ECFF88
:102350001FBD10B501210E4805F015FC012814D150
:1023600001210B4805F020FC002404E0204602F087
:1023700015F9601CC4B2042CF8DB002403E0A0B201
:1023800001F0B6F9641C042CF9DB10BDBFD40100C8
:102390000004004000B597B00121084604F050FD4C
:1023A0000121102004F090FD0121880504F048FD72
:1023B00007220921A34804F088FB07220A21A1482B
:1023C00004F083FB4FF4C060119002208DF84800A8
:1023D00000208DF84A0002208DF8490001208DF878
:1023E0004B0011A9974804F0E5FA4FF4E13013903F
:1023F0000020ADF85000ADF85200ADF85400ADF833
:1024000058000C20ADF8560013A98F4805F0F6FCD3
:102410008E4804F08DF84FF0006001900020059088
:10242000402004908A4803908748001D02900015C0
:10243000079000200690099008900A904FF44030D1
:102440000B9000200C9001200D9000200F900E901A
:1024500001A97E4804F00EF97E497C4804F0BDF9DC
:102460007C497A4804F014FA01221021774804F0DC
:10247000C8F946208DF8400003208DF84100012066
:102480008DF842008DF8430010A803F0EEFA012207
:1024900080216D4805F0E7FD01216B4805F036FD10
:1024A00017B000BD70B504460D466B48807B78B907
:1024B0002A462146664808F050FB2946634804F046
:1024C00034F90121614804F00FF901206249887351
:1024D00070BD10B55F495D4804F0B0F901280AD11C
:1024E0005C495A4804F079F95A49584804F0D0F93F
:1024F00000205949887310BD10B540F2255152484B
:1025000005F0F5FD002844D040F225514E4805F075
:10251000E5FD40F225514C4805F020FE4A4805F003
:1025200024FDC4B24D48007800F0400008B34B4889
:10253000007800F0800020BB0D2C06D147480078C1
:1025400040F08000454908701BE04448007800F0E6
:102550003F0043490C5441480078401C3F490870F3
:102560000846007800F03F0020280ADD00200870AF
:1025700007E0232C05D13948007840F04000374966
:1025800008703648007800F0800010B10020334910
:10259000087010BD30B502460B464FF6FF700021A3
:1025A00012E0555C684000240AE000F0010525B106
:1025B0004AF2010585EA600000E04010651CECB2BB
:1025C000082CF2DB4D1CE9B29942EADB30BD2DE963
:1025D000FE4305460E4617469846280A8DF8010028
:1025E000E8B28DF80000300A8DF80300F0B28DF8E3
:1025F0000200380A8DF80500F8B28DF804004FEAA1
:1026000018208DF8070008F0FF008DF8060008215B
:102610006846FFF7BFFF04462046E11704EB11614F
:102620000912A4EB0121C9B28DF80810E11704EBDF
:102630001161090A8DF809100A216846FFF732FF77
:10264000BDE8FE830000024000100140B864024073
:10265000CD11002000800028380F00202800002025
:10266000ED110020014608884A88904201D10120DE
:1026700070470020FCE701464888401C322290FB4E
:10268000F2F302FB13000A88904201D10120704747
:102690000020FCE7002052494880088051494880CA
:1026A0000880514948800880504948800880704718
:1026B00030B585B005460C462046FFF7D3FF08B17C
:1026C00005B030BD2188201D00EB0110006800F02E
:1026D0007040F8B104208DF808002188201D00EB1F
:1026E0000110006820F0704001902188201D00EB4F
:1026F000011000798DF80A0000208DF809009DF87E
:102700000A202388201D00EB0310411D0DF10B0052
:1027100008F023FA2188201D00EB01100068B0F5B5
:10272000207F25D32188201D00EB01100068B0F523
:10273000287F1DD800208DF808002188201D00EB7F
:102740000110006800902188201D00EB0110007925
:102750008DF80A0000208DF809009DF80A202388D2
:10276000201D00EB0310411D0DF10B0008F0F5F9E1
:102770001F48854217D102221B491E4802F09BF8D0
:102780002188201D00EB0110407B38B92088401CB7
:10279000322190FBF1F201FB1200208069461448BF
:1027A00003F060FB1AE01448854217D101220C495E
:1027B000124802F080F80A480188001D00EB011061
:1027C000407B38B92088401C322190FBF1F201FB9C
:1027D000120020806946084803F044FB00BF6FE701
:1027E000385F00205C620020145C002080650020BF
:1027F000006800402012002000640040E02B002010
:10280000002239210A54C26100218182704710B52B
:102810002DED0E8B4FF40050FE4908809FEDFE0B0E
:10282000084680ED040B9FEDFE0A80ED010A43F699
:10283000991008814FF40050FA4908809FEDFA0A78
:10284000084680ED010A42F2283008819FEDF70B1F
:10285000084680ED040B0020F64908709FEDF60A4B
:10286000084680ED010A0120087244F62C40488198
:10287000012008734FF4FA6008824FF6E040C881E7
:10288000002088740120C8742820EC498883002027
:1028900048604FF47A70C8831822E249E84808F08B
:1028A000A1F90020E6497039087048700520887049
:1028B0003221E3487038C1800020E14970398880B6
:1028C0006421DF48703801811422DA493C3008F075
:1028D00089F9DB487038B0F90810DFEDDA1A9FED9E
:1028E000DA1ADFEDDA0AB0EE0C0AB03002F09EF828
:1028F000D3487038C168F7EE001A9FEDD51ADFEDA6
:10290000D50AB1EE040A883002F090F81822C549C1
:10291000CB48D83008F066F90020C949703981F8F1
:10292000D8000021C648703880F8D910052180F8F9
:10293000DA103221A0F8DE100021A0F8DC106421AA
:10294000A0F8E0101422BB4900F58A7008F04AF99B
:10295000BB487038B0F9E010DFEDBA1A9FEDBA1A33
:10296000DFEDBA0AB0EE0C0A00F5C47002F05EF8B2
:10297000B3487038D0F8E410F7EE001A9FEDB41A9F
:10298000DFEDB30AB1EE040A00F5B07002F04EF8C4
:102990001822A449B04808F025F90020A849703948
:1029A00081F8B0010021A648703880F8B1110521E6
:1029B00080F8B2113221A0F8B6110021A0F8B411AC
:1029C0006421A0F8B81114229A4900F5F67008F0B5
:1029D00009F99B487038B0F9B811DFED9A1A9FEDEC
:1029E0009A1ADFED9A0AB0EE0C0A00F5187002F0A0
:1029F0001DF893487038D0F8BC11F7EE001A9FED1F
:102A0000941ADFED940AB1EE040A00F50E7002F09C
:102A10000DF8182283499048D83008F0E3F80020D8
:102A20008749703981F8880200218548703880F81C
:102A30008912052180F88A123221A0F88E12002115
:102A4000A0F88C124FF47A71A0F8901214227949F0
:102A500000F5317008F0C6F879487038B0F9901276
:102A6000DFED781A9FED781ADFED780AB0EE0C0AE8
:102A700000F54E7001F0DAFF71487038D0F894120A
:102A8000F7EE001A9FED721ADFED720AB1EE040A3A
:102A900000F5447001F0CAFF002400E104EBC4001B
:102AA00000EB40006649703901EBC00063490968DA
:102AB00001656248416804EBC40000EB4000604AD5
:102AC000703A02EBC000416504EBC40101EB410127
:102AD00002EBC10101F1580018225849083108F0F1
:102AE00081F804EBC40101EB4101554A703A02EB55
:102AF000C101B1F870000AF003FD41EC1A0B04EBC0
:102B0000C40000EB40004E4A703A02EBC00090ED6A
:102B10001D0A10EE101A08460AF060FF41EC1C0B6B
:102B200004EBC40000EB4000454A703A02EBC000E1
:102B300090ED100A10EE101A08460AF04FFF41EC13
:102B40001E0B04EBC40000EB40003D49703901EB63
:102B5000C00090ED201BB0EE410AF0EE610A53EC8C
:102B6000102B51EC1E0B0AF01BFD53EC1C2B0AF032
:102B700017FD53EC1A2B0AF013FD9FED380B53ECA5
:102B8000102B0AF0B5FA0AF077FC04EBC40101EB54
:102B900041012B4A703A02EBC101086504EBC40104
:102BA00001EB410102EBC101B1F870000AF0A8FC91
:102BB00041EC1A0B04EBC40000EB4000204A703AD1
:102BC00002EBC00090ED1D0A10EE101A08460AF044
:102BD00005FF41EC1C0B04EBC40101EB4101184A59
:102BE000703A02EBC101B1F904000AF072FC41EC49
:102BF0001E0B04EBC40000EB40001149703901EBDF
:102C0000C00090ED201BB0EE410AF0EE610A53ECDB
:102C1000102B27E0E06800200000008087870F402D
:102C20009A999941F8680020000010420000006065
:102C300055551340C86800200000E144A8680020F2
:102C400080690020CDCCCC3E000000008FC2F53D55
:102C5000CDCC4C3E9A99993E306B0020000000008C
:102C60000080764051EC1E0B0AF09AFC53EC1C2BB2
:102C70000AF096FC53EC1A2B0AF092FC1FED090B9C
:102C800053EC102B0AF034FA0AF0C6FB04EBC40133
:102C900001EB4101FE4A02EBC101C860641C042C37
:102CA000FFF6FCAE002314E003EBC30101EB41018E
:102CB000F74A02EBC100FFF7A3FD44F62C4103EBFA
:102CC000C30000EB4000F24A02EBC000A0F846103F
:102CD0005B1C042BE8DBBDEC0E8B10BD10B504466D
:102CE00004EBC40000EB4000E94901EBC000D0ED6B
:102CF000260A04EBC40000EB400001EBC000B0F971
:102D0000080000EE100AB8EEC00A20EE800ABDEE00
:102D1000C00A10EE100A04EBC40101EB4101DC4AC9
:102D200002EBC101C1F8B00004EBC40000EB4000AD
:102D3000114601EBC000B0F9181004EBC40000EB21
:102D4000400002EBC000C0F8C81004EBC40101EB66
:102D5000410102EBC10101F1B00001F080FE04EB82
:102D6000C40000EB4000CA4901EBC000C18804EB7D
:102D7000C40000EB4000C64A02EBC000D0F8C4001B
:102D8000084401B204EBC40000EB400002EBC000B9
:102D9000C18010BD10B5044604EBC40000EB400038
:102DA000BB4901EBC000B0F94A0004EBC40101EBE0
:102DB0004101B74A02EBC101C1F8B00004EBC40005
:102DC00000EB4000114601EBC000B0F9181004EB15
:102DD000C40000EB400002EBC000C0F8C81004EBD8
:102DE000C40101EB410102EBC10101F1B00001F0AE
:102DF00036FE04EBC40000EB4000A54901EBC00027
:102E0000C18804EBC40000EB4000A14A02EBC00003
:102E1000D0F8C400084401B204EBC40000EB400049
:102E200002EBC000C18004EBC40000EB400011467F
:102E300001EBC000B0F8580090BB04EBC40000EBFD
:102E4000400001EBC000C069002807DD04EBC400AE
:102E500000EB400001EBC000C06908E004EBC400D7
:102E600000EB40008A4901EBC000C069404240F6D7
:102E7000C411884215DD04EBC40000EB4000844916
:102E800001EBC000B0F86000401C81B204EBC4004C
:102E900000EB40007E4A02EBC000A0F860100AE0A0
:102EA000FFE7002104EBC40000EB4000784A02EB8E
:102EB000C000A0F8601004EBC40000EB40007449AF
:102EC00001EBC000B0F86000322839DD002104EBCE
:102ED000C40000EB40006E4A02EBC000A0F8601096
:102EE000002004EBC40101EB410102EBC101888227
:102EF000002104EBC40000EB400002EBC000C16104
:102F0000052004EBC40101EB410102EBC101887013
:102F1000012104EBC40000EB400002EBC00080F88C
:102F20003510002004EBC40101EB410102EBC101AB
:102F30008880012004EBC40101EB410102F831005B
:102F400010BD10B52DED0E8B044604EBC40000EB54
:102F500040004F4A02EBC00090ED1D0A10EE101A1F
:102F600008460AF03BFD41EC1A0B04EBC40101EBEF
:102F70004101474A02EBC101B1F870000AF0C0FA02
:102F800041EC1C0B04EBC40101EB4101404A02EB94
:102F9000C101B1F904000AF09CFA41EC1E0B04EBEC
:102FA000C40000EB40003A4901EBC00090ED201B4B
:102FB000B0EE410AF0EE610A53EC102B51EC1E0BFF
:102FC0000AF0EEFA53EC1C2B0AF0EAFA53EC1A2B37
:102FD0000AF0E6FA1FEDDF0B53EC102B0AF088F82D
:102FE0000AF01AFA04EBC40101EB4101284A02EB92
:102FF000C101C86004EBC40000EB4000114601EBC6
:10300000C000C06804EBC40101EB410102EBC10147
:10301000C1F8880004EBC40000EB4000114601EB4E
:10302000C000407870B904EBC40000EB400001EB35
:10303000C000406D04EBC40101EB410102EBC10192
:10304000C1F8880004EBC40000EB4000104901EB1C
:10305000C000C16904EBC40000EB40000C4A02EB65
:10306000C000C0F8A01004EBC40101EB410102EB69
:10307000C10101F1880001F0F2FC04EBC40000EB97
:103080004000034901EBC000D0ED260A02E0000039
:103090001069002004EBC40000EB400001EBC0000D
:1030A000D0F89C0000EE100AB8EEC00A20EE800AAC
:1030B000BDEEC00A10EE100A04EBC40101EB4101A1
:1030C000FE4A02EBC101C1F8B00004EBC40000EB02
:1030D0004000114601EBC00090F84400A8B304EB97
:1030E000C40000EB400001EBC000D0F8B0000028A5
:1030F00008DD04EBC40000EB400001EBC000D0F899
:10310000B00009E004EBC40000EB4000EB4901EB28
:10311000C000D0F8B000404204EBC40101EB410113
:10312000E64A02EBC101B1F84610884221DD04EB0A
:10313000C40000EB4000114601EBC000D0F8B00025
:10314000002803DA4FF0FF3001E012E0012004EB29
:10315000C40101EB4101D94A02EBC101B1F84610AB
:10316000484304EBC40101EB410102EBC101C1F88A
:10317000B00004EBC40000EB4000D04901EBC000FC
:10318000B0F9181004EBC40000EB4000CB4A02EB8E
:10319000C000C0F8C81004EBC40101EB410102EB10
:1031A000C10101F1B00001F05AFC04EBC40000EBD6
:1031B0004000C24901EBC000C18804EBC40000EB31
:1031C0004000BE4A02EBC000D0F8C400084401B27F
:1031D00004EBC40000EB400002EBC000C18004EB34
:1031E000C40000EB4000114601EBC000C06D002898
:1031F00007DD04EBC40000EB400001EBC000C06D34
:1032000008E004EBC40000EB4000AC4901EBC00057
:10321000C06D4042B4280ADA012004EBC40101EB7E
:103220004101A64A02EBC10181F8340009E0002007
:1032300004EBC40101EB4101A04A02EBC10181F89A
:103240003400BDEC0E8B10BD70B52DED088B04461F
:1032500004EBC40000EB4000984901EBC000018C76
:1032600004EBC40000EB4000944A02EBC000008E67
:10327000081A01B204EBC40000EB400002EBC000EE
:10328000A0F8581004EBC40000EB4000114601EB1D
:10329000C000808A04EBC40101EB410102EBC101D3
:1032A000888404EBC40000EB4000114601EBC00031
:1032B000C18A04EBC40000EB400002EBC000C184F3
:1032C00004EBC40000EB4000114601EBC000018B91
:1032D00004EBC40000EB400002EBC000018504EBEE
:1032E000C40000EB4000114601EBC000C16904EBD3
:1032F000C40000EB400002EBC000C16204EBC4005C
:1033000000EB4000114601EBC000018C04EBC4004F
:1033100000EB400002EBC000018604EBC40000EBB0
:103320004000114601EBC000418C04EBC40000EBEF
:10333000400002EBC000418604EBC40000EB4000FB
:10334000114601EBC000B0F95800002808DD04EB7D
:10335000C40000EB400001EBC000B0F9580009E0E8
:1033600004EBC40000EB4000544901EBC000B0F98D
:103370005800404241F2360188422CDD04EBC40083
:1033800000EB40004D4901EBC000B0F9581004EBD0
:10339000C40000EB4000494A02EBC000B0F95800FD
:1033A000002802DA4FF0FF3000E0012004EBC402F5
:1033B00002EB4202414B03EBC202B2F8702000FB69
:1033C000121001B204EBC40000EB40001A4602EBFD
:1033D000C000A0F8581004EBC40000EB40003749CF
:1033E00001EBC000C16904EBC40000EB4000334AAC
:1033F00002EBC000B0F95800014404EBC40000EB3C
:10340000400002EBC000C16104EBC40000EB4000CF
:10341000114601EBC000C16804EBC40000EB4000A2
:1034200002EBC000C069091A04EBC40000EB4000C5
:1034300002EBC000C16504EBC40101EB410102EBEA
:10344000C101B1F870000AF05BF841EC190B04EB14
:10345000C40000EB4000194901EBC000C06900EE58
:10346000100AB8EEC00ADFED160A20EE200A04EBBF
:10347000C40000EB400001EBC000D0ED1D0A80EE5F
:10348000201A11EE105A28460AF0A8FA41EC1B0B3C
:1034900004EBC40000EB4000084901EBC00090EDD4
:1034A000201BB0EE410AF0EE610A53EC102B51ECF8
:1034B0001B0B09F01DFE53EC192B03E010690020D3
:1034C0000000B44309F014FE09F0A6FF00B204EBBB
:1034D000C40101EB4101FE4A02EBC101888204EB09
:1034E000C40000EB4000114601EBC000407868B119
:1034F00004EBC40000EB400001EBC000C16904EB29
:10350000C40000EB400002EBC000416504EBC400C6
:1035100000EB4000EE4901EBC00090F8390040B1EB
:1035200004EBC40101EB4101E94A02EBC100FFF7E2
:1035300067F9BDEC088B70BD10B5044604EBC40000
:1035400000EB4000E24911F8300008B9012010BD3D
:10355000E048807C00287DD004EBC40000EB4000F4
:10356000DB4901EBC0008078052873D104EBC4006F
:1035700000EB400001EBC000C16904EBC40000EBAC
:103580004000D34A02EBC000C06A081A002810DDD0
:1035900004EBC40000EB4000114601EBC000C16920
:1035A00004EBC40000EB400002EBC000C06A081A44
:1035B00010E004EBC40000EB4000C54901EBC00083
:1035C000C16A04EBC40000EB4000C14A02EBC0003A
:1035D000C069081AC8283DDA04EBC40000EB4000BB
:1035E000BB4901EBC000B0F91800002808DD04EB6E
:1035F000C40000EB400001EBC000B0F9180009E086
:1036000004EBC40000EB4000B14901EBC000B0F98D
:103610001800404264281EDA04EBC40000EB4000AE
:10362000AB4901EBC00090F83400A0B904EBC40032
:1036300000EB400001EBC000B0F86200401C81B21A
:1036400004EBC40000EB4000A14A02EBC000A0F86C
:1036500062100AE04AE0002104EBC40000EB4000E5
:103660009B4A02EBC000A0F8621004EBC40000EB20
:103670004000974901EBC000B0F8621004EBC400B1
:1036800000EB4000924A02EBC000B0F86E008142AD
:1036900009DD012104EBC40000EB400002EBC00097
:1036A00080F8361009E0002104EBC40000EB400074
:1036B000874A02EBC00080F8361004EBC40000EB30
:1036C0004000834901EBC00090F8360001280BD17F
:1036D00002F0ACF9002004EBC40101EB41017C4A8B
:1036E00002F83100012032E7002030E700202EE709
:1036F00010B5044604EBC40000EB4000744911F817
:103700003000012863D104EBC40000EB400001EB62
:10371000C00090F84F00002859D006F033FF6E49E2
:1037200051F82410401A40F2DC51884214D304EBC3
:10373000C40000EB4000664901EBC00090F8640053
:10374000401CC1B204EBC40000EB4000604A02EB35
:10375000C00080F8641009E0002104EBC40000EB15
:1037600040005B4A02EBC00080F8641004EBC40028
:1037700000EB4000564901EBC00090F8641004EBE8
:10378000C40000EB4000524A02EBC000B0F86C00ED
:10379000814209DD012104EBC40000EB400002EB93
:1037A000C00080F8371012E0494890F8370070B92F
:1037B000474890F80F0150B9454890F8E70130B9F3
:1037C000434890F8BF0210B9002001F043FB10BD40
:1037D0002DE9F04186B004460D4616461F4640F2DC
:1037E000FF1800208DF80C008DF80D0008208DF8D2
:1037F0000E00CDF804800020FFF79EFE48B9344843
:103800000078012805D1200A8DF80F008DF81040AE
:1038100005E000208DF80F0000218DF81010012028
:10382000FFF78AFE50B92A4890F8D800012805D140
:10383000290A8DF811108DF8125004E000218DF83E
:1038400011108DF812100220FFF776FE50B92048B3
:1038500090F8B001012805D1310A8DF813108DF8C8
:10386000146004E000218DF813108DF8141003206B
:10387000FFF762FE50B9164890F88802012805D17A
:10388000390A8DF815108DF8167004E000218DF8B6
:1038900015108DF8161001A9104802F0E3FA06B0D1
:1038A000BDE8F081002053E000EBC00101EB4101D5
:1038B000074A02EBC101B1F90610002910DD00EB47
:1038C000C00101EB410102EBC101B1F9061011E0A9
:1038D00010690020C8680020D80E00200068004051
:1038E00000EBC00101EB4101364A02EBC101B1F925
:1038F0000610494200EBC00202EB4202314B03EBDF
:10390000C202B2F87820914220DD00EBC00101EB49
:1039100041011A4602EBC101B1F90610002902DA91
:103920004FF0FF3100E0012100EBC00202EB420248
:10393000244B03EBC202B2F8782051430AB200EBE9
:10394000C00101EB410103EBC101CA80411CC8B2B7
:103950000828A9DB7047002030E01B49097800EBFC
:10396000C00202EB4202174B03EBC2025170164930
:10397000497800EBC00202EB420203F83210124910
:103980004A8800EBC00101EB410103EBC1010A8150
:103990000D49898800EBC00202EB420203EBC20230
:1039A00091800949C9888AB200EBC00101EB41014D
:1039B00003EBC101A1F84620411CC8B20428CCDBAE
:1039C00070470000106900202A0000204121095C96
:1039D00019B1002241210A548262704710B50720B4
:1039E000FE4908709FEDFE0A084680ED010A42F28A
:1039F000107088600C20FB49087042F210708860DB
:103A00001520F9490870B2EE040A084680ED010A53
:103A10004FF47A7088600020F449087247F2305001
:103A2000C8600120087441F288304861B3EE0E0A84
:103A3000084680ED010A40F6B83008606420EC4981
:103A4000888428200884052048840020E7490876D7
:103A500001204876E64988700020E64908704870E1
:103A60004880E548DD4B0ECB44300EC00020E349D2
:103A7000087048700220C8709FEDE10A084680ED8A
:103A8000010A002181609FEDDE0A80ED040A416198
:103A90004169F7EE001A9FEDDB1ADFEDDB0A9FEDBF
:103AA000DB0A483000F0C2FFD4488168F7EE001A04
:103AB000B7EE001ADFEDD60A9FEDD60A703000F09F
:103AC000B5FFDFEDD51A9FEDD51ADFEDCD0A9FEDDD
:103AD000D40AC948683800F0B9FFDFEDCF1A9FED6E
:103AE000D11ADFEDD10A9FEDCA0AC348343800F07D
:103AF000ADFFCE48B94B0ECB44300EC00020BF49BD
:103B000081F850010021BD4880F85111022180F850
:103B100053119FEDBB0A80ED550A0021C0F85811E2
:103B20009FEDB70A80ED580AC0F864114169F7EEBD
:103B3000001A9FEDB41ADFEDB40A9FEDB40A00F548
:103B4000CC7000F073FFAD488168F7EE001AB7EE55
:103B5000001ADFEDAF0A9FEDAF0A00F5E07000F04C
:103B600065FFDFEDAD1A9FEDAD1ADFEDA50A9FED04
:103B7000AC0AAE48683800F069FFDFEDA71A9FED88
:103B8000A91ADFEDA90A9FEDA20AA848343800F06F
:103B90005DFFA748914B0ECB44300EC000209749E3
:103BA00081F8A0020021954880F8A112022180F836
:103BB000A3129FED930A80EDA90A0021C0F8A81274
:103BC0009FED8F0A80EDAC0AC0F8B4124169F7EEA0
:103BD000001A9FED8C1ADFED8C0A9FED8C0A00F520
:103BE0003A7000F023FF85488168F7EE001AB7EEBF
:103BF000001ADFED870A9FED870A00F5447000F098
:103C000015FFDFED851A9FED851ADFED7D0A9FED2B
:103C1000840A8748683800F019FFDFED7F1A9FEDAE
:103C2000811ADFED810A9FED7A0A8148343800F06D
:103C30000DFF8048694B0ECB44300EC000206F4909
:103C400081F8F00300216D4880F8F113022180F81B
:103C5000F3139FED6B0A80EDFD0A0021C0F8F81305
:103C60009FED670A00F57C7080ED040A6348C0F898
:103C700004144169F7EE001A9FED621ADFED620A43
:103C80009FED620A00F5876000F0D0FE5B48816816
:103C9000F7EE001AB7EE001ADFED5D0A9FED5D0A40
:103CA00000F58C6000F0C2FEDFED5B1A9FED5B1A41
:103CB000DFED530A9FED5A0A5E48683800F0C6FEF1
:103CC000DFED551A9FED571ADFED570A9FED500AA9
:103CD0005848343800F0BAFE002466E0C4EBC40152
:103CE00001EB4101454A02EB0110FFF76FFEC4EB07
:103CF000C40101EB4101414A02EB011101F594704D
:103D00001C223A4906F06EFF39480088C4EBC40112
:103D100001EB4101394A02EB0111A1F80001C4EBAA
:103D2000C40000EB4000114601EB00103049498807
:103D3000A0F802112E488188C4EBC40000EB4000BB
:103D400002EB0010A0F804112948C188C4EBC4009C
:103D500000EB400002EB0010A0F80611C4EBC40019
:103D600000EB4000114601EB001000F58070204A86
:103D70009168D268C0E902121D480169C4EBC40011
:103D800000EB40001D4A02EB0010C0F81011C4EB1C
:103D9000C40101EB410102EB011101F58A7014220B
:103DA0001349143106F01EFF641C042C96DB10BD71
:103DB00030B52DED028B81B00446B0EE408A0D4641
:103DC000002000909FED1C0A28EE000ABDEEC00AFC
:103DD00010EE101A194A5388121D31E0D06F0020DE
:103DE00000007042DC6F0020E86F0020F46F0020BC
:103DF000107000203400002038710020387000203E
:103E000000000000713D0A3F0AD7233F8FC2754072
:103E10006F12833A4260E53BCDCC4C3E17B7D139A7
:103E20008FC2F53CBD37863517B7D1388872002070
:103E3000D873002028750020002474495C6200209B
:103E400002EB0312501D6A46FEF7FAF944F0704087
:103E500040F48061FE484288001D00EB02100160C2
:103E60000098C1B2FA484288001D00EB02100171AF
:103E7000F7484188001D00EB01104573F448408865
:103E8000401C322190FBF1F201FB1200F049488006
:103E900001B0BDEC028B30BD10B50446C4EBC400CC
:103EA00000EB4000EB4901EB0010D0F810010028B6
:103EB00002DA4FF0FF3100E00121C4EBC40000EB57
:103EC0004000E44A02EB0010C069002802DA4FF01B
:103ED000FF3000E00120814205D19FEDDF0ADF487D
:103EE00080ED000A04E09FEDDE0ADC4880ED000A68
:103EF000C4EBC40000EB4000D64901EB0010D0F841
:103F00001001002808DDC4EBC40000EB400001EB09
:103F10000010D0F8100109E0C4EBC40000EB400031
:103F2000CC4901EB0010D0F81001404200EE100A1D
:103F3000B8EEC00AC948D0ED000AB2EE041A60EE2D
:103F4000810AB4EEE00AF1EE10FA29DDC4EBC400F8
:103F500000EB4000BF4901EB001090ED080AC4EBF4
:103F6000C40000EB400001EB0010D0F81001002865
:103F700002DA4FF0FF3000E0012000EE900AF8EE88
:103F8000E00AB64890ED001A00EE810AC4EBC400C6
:103F900000EB4000AF4901EB001080ED030A2EE07A
:103FA000C4EBC40000EB4000AA4901EB001090F8FC
:103FB000440020BBC4EBC40000EB400001EB001048
:103FC000D0F8100100EE900AF8EEE00AB2EE041A02
:103FD000C0EE811AB0EE610AC4EBC40000EB4000F1
:103FE00001EB0010D0ED080A70EE800AC4EBC400AB
:103FF00000EB400001EB0010C0ED030A00BFC4EB72
:10400000C40101EB4101934A02EB011101F10C00E3
:1040100000F0C1FFC4EBC40101EB41018D4A02EB8A
:104020000111D1ED030AB0EE600A611CC8B2002193
:10403000FFF7BEFE10BD30B52DED028B81B00446FA
:10404000B0EE408A0D46002000909FED860A28EED3
:10405000000ABDEEC00A10EE101A7D4A5388121DE8
:1040600002EB0312501D6A46FEF7EAF844F0704076
:1040700040F4807176484288001D00EB0210016018
:104080000098C1B272484288001D00EB0210017115
:104090006F484188001D00EB011045736C48408853
:1040A000401C322190FBF1F201FB1200684948806C
:1040B00001B0BDEC028B30BD70B50446C4EBC40248
:1040C00002EB4202634B03EB0212D2F84C11C4EB39
:1040D000C40202EB420203EB021202F1080000F0FC
:1040E000DEFFC4EBC40000EB40005A4901EB0010B6
:1040F0008168C4EBC40000EB4000564A02EB00109C
:10410000C0F8FC10C4EBC40303EB4303154605EBF6
:104110000313DA69C4EBC40303EB430305EB031396
:104120009968C4EBC40303EB430305EB031303F1EA
:10413000CC0000F0C5FCC4EBC40000EB40002946F5
:1041400001EB001090ED3B0AC4EBC40000EB400013
:1041500001EB0010D0ED520A20EE200AC4EBC4009F
:1041600000EB400001EB001080ED010AC4EBC4013C
:1041700001EB41012A4602EB0111D1ED4B0AB0EEF1
:10418000600AC4EBC40101EB410102EB0111081DFF
:1041900000F069FFC4EBC40101EB41012A4602EBC8
:1041A0000111D1ED010AB0EE600A611CC8B2002114
:1041B000FFF741FF70BDF8B504460E4615460020D6
:1041C000009023494A88091D01EB0211481D6A46E7
:1041D0003146FEF735F844F0704040F440711C4819
:1041E0004288001D00EB021001600098C1B218481F
:1041F0004288001D00EB0210017115484188001D26
:1042000000EB0110457312484088401C322190FB9E
:10421000F1F201FB12000E494880F8BD30B52DEDDA
:10422000028B81B00446B0EE408A0D46002000901B
:104230009FED0D0A28EE000ABDEEC00A10EE101A1E
:10424000034A5388121D02EB0312501D6A460DE00B
:104250005C6200203870002000002A433C000020EF
:104260000000B44200007A4400247449FDF7E8FFDE
:1042700044F0704040F48061F9484288001D00EB32
:10428000021001600098C1B2F5484288001D00EBA1
:1042900002100171F2484188001D00EB01104573C6
:1042A000EF484088401C322190FBF1F201FB1200E4
:1042B000EB49488001B0BDEC028B30BD30B52DED2F
:1042C000028B81B00446B0EE408A0D46002000907B
:1042D0001FED1B0A28EE000ABDEEC00A10EE101AF0
:1042E000DF4A5388121D02EB0312501D6A46FDF788
:1042F000A7FF44F07040DA494A88091D01EB02111A
:1043000008600098C1B2D6484288001D00EB021038
:104310000171D3484188001D00EB01104573D0485E
:104320004088401C322190FBF1F201FB1200CC4985
:10433000488001B0BDEC028B30BDF8B505460C4697
:1043400016460020009000EE104AB8EEC00A5FED5D
:104350003B0A20EE200ABDEEC00A10EE101AC04A39
:104360005388121D02EB0312501D6A46FDF768FFC9
:1043700045F0704040F40071B9484288001D00EBE0
:10438000021001600098C1B2B5484288001D00EBE0
:1043900002100171B2484188001D00EB0110467304
:1043A000AF484088401C322190FBF1F201FB120023
:1043B000AB494880F8BD30B52DED028B81B0044685
:1043C000B0EE408A0D46002000901FED5A0A28EEFC
:1043D000000ABDEEC00A10EE101AA14A5388121D41
:1043E00002EB0312501D6A46FDF72AFF44F07040AD
:1043F00040F440619A484288001D00EB02100160C1
:104400000098C1B296484288001D00EB021001716D
:1044100093484188001D00EB011045739048408887
:10442000401C322190FBF1F201FB12008C494880C4
:1044300001B0BDEC028B30BD10B50446601EC0EB70
:10444000C00000EB4000874901EB0010007808B97C
:10445000012010BD8448407E002876D0601EC0EB4D
:10446000C00000EB40007F4901EB0010C07802283B
:104470006BD1601EC0EBC00000EB400001EB0010F0
:104480008068002861D0601EC0EBC00000EB4000D7
:1044900001EB0010C069002808DD601EC0EBC00001
:1044A00000EB400001EB0010C06909E0601EC0EBAA
:1044B000C00000EB40006B4901EB0010C0694042B6
:1044C000142816DA601EC0EBC00000EB40006549FE
:1044D00001EB0010B0F81601401C81B2601EC0EB69
:1044E000C00000EB40005F4A02EB0010A0F816117C
:1044F0000AE00021601EC0EBC00000EB4000594AFA
:1045000002EB0010A0F81611601EC0EBC00000EB1B
:104510004000544901EB0010B0F81611601EC0EBCA
:10452000C00000EB40004F4A02EB0010B0F824013D
:1045300081420BDD0121601EC0EBC00000EB40009A
:1045400002EB001080F840100BE025E00021601E17
:10455000C0EBC00000EB4000424A02EB001080F8C4
:104560004010601EC0EBC00000EB40003D4901EB75
:10457000001090F8400001280CD101F057FA0021FA
:104580009FED3A0A2046FFF756FD204600F062FCF8
:1045900000205EE701205CE701205AE710B50446E1
:1045A000C4EBC40000EB40002E4901EB0010007882
:1045B000012870D1C4EBC40000EB400001EB0010F7
:1045C00090F84101002866D005F0DCFFC4EBC4017F
:1045D00001EB4101234A02EB0111D1F81C11401AF1
:1045E00040F2DC51884213D3C4EBC40000EB40001E
:1045F000114601EB001090F81801401CC1B2C4EB49
:10460000C40000EB400002EB001080F8181109E034
:104610000021C4EBC40000EB4000124A02EB001082
:1046200080F81811C4EBC40000EB40000D4901EB09
:10463000001090F81811C4EBC40000EB4000094AC8
:1046400002EB0010B0F82001814211DD0121C4EB22
:10465000C40000EB400002EB001080F842101AE0AA
:104660005C62002038700020F46F00200000000021
:104670001B4890F8420070B9194890F8920150B95F
:10468000174890F8E20230B9154890F8320410B992
:10469000002000F0DFFB10BD00201EE0114909786A
:1046A000C0EBC00202EB42020D4B03EB0212517051
:1046B0000C494978C0EBC00202EB420203EB021244
:1046C00011700849B1F90220C0EBC00101EB4101B2
:1046D00003EB01118A60411CC8B20428DEDB70477D
:1046E000387000203400002030B502460023012934
:1046F00004D10120CC4C2072062303E00120CA4CD7
:1047000060720823002029E000256724444302EB5F
:10471000C40425616724444302EBC4042573672461
:10472000444342F834506724444302EBC4046560B8
:104730006724444302EBC404E5826724444302EB4C
:10474000C404A5826724444302EBC404A560672423
:10475000444302EBC40484F82550401C9842D3DB48
:1047600030BD2DE9F04105460E4617464FF00008D2
:10477000012F02D14FF0060801E04FF00808002495
:1047800094E06720604305EBC000006901287DDBF1
:104790003046FDF770FF08B1BDE8F0816721614345
:1047A00005EBC10101F11400FDF75CFF30B1002100
:1047B0006720604305EBC0008160EDE76720604340
:1047C00005EBC0000069401E6721614305EBC10194
:1047D00008616720604305EBC00018306721614322
:1047E00005EBC101898A00EB011072880168301D58
:1047F00000EB021001606720604305EBC000183039
:104800006721614305EBC101898A00EB0110017941
:104810007288301D00EB021001716720604305EBC8
:10482000C00018306721614305EBC101898A00EBA4
:104830000110417B7288301D00EB02104173672329
:10484000634305EBC30318334FF0670C04FB0CFC08
:1048500005EBCC0CBCF814C003EB0C13591DB6F8D7
:1048600002C0331D03EB0C131A79331D03EB0C1339
:10487000581D06F072F93088401C322190FBF1F28D
:1048800001FB120030806720604300E00DE005EB83
:10489000C000808A401C90FBF1F201FB120081B243
:1048A0006720604305EBC0008182641C4445FFF62D
:1048B00068AF00BF70E72DE9F04104460E46174689
:1048C0004FF00008FF253188301D00EB0110407BC0
:1048D00008B9BDE8F081012F02D14FF0060809E0C8
:1048E0004FF008083188301D00EB01100088A0F25D
:1048F000013085B245450DDA6721694304EBC101FA
:1049000001F11400FDF7B7FE48B1012F03D10120DA
:104910004549887286E001204349C87282E06720D9
:10492000684304EBC0000069401C6721694304EB45
:10493000C10108616720684354F83000401C6721BA
:10494000694344F831003188301D00EB01100268E2
:104950006720684304EBC00018306721694304EB0B
:10496000C101C98A00EB011002603188301D00EBE3
:10497000011002796720684304EBC00018306721FA
:10498000694304EBC101C98A00EB0110027131884F
:10499000301D00EB0110427B6720684304EBC00030
:1049A00018306721694304EBC101C98A00EB01108B
:1049B000427367236B4304EBC30318334FF0670C58
:1049C00005FB0CFC04EBCC0CBCF816C003EB0C1381
:1049D0001A7967236B4304EBC30318334FF0670C5A
:1049E00005FB0CFC04EBCC0CBCF816C003EB0C1361
:1049F000581DB6F800C0331D03EB0C13591D06F00B
:104A0000ACF86720684304EBC000C08A401C322128
:104A100090FBF1F201FB120081B26720684304EBC6
:104A2000C000C18200BF54E7380F0020002282611D
:104A300080ED031AC0ED020A80ED010AC0ED041AF0
:104A40000160C261002303624362704780ED000A87
:104A5000C0ED010A80ED021AC0ED041A704701682A
:104A60008269891AC161C269016A511A00EE101A7D
:104A7000B8EEC00AD0ED010A20EE200A90ED021A2D
:104A8000C16900EE901AF8EEE00A01EE200AC26950
:104A9000016A022303FB1122416A114400EE901ABD
:104AA000F8EEE00A90ED031A01EE200ABDEEC00A0E
:104AB00010EE101A4161026A4262C26902627047D6
:104AC00070B504460D4616462563E662206BE16A22
:104AD000401A6062206B002801DD206B01E0206B32
:104AE0004042142806DA9FED360A84ED060A606A11
:104AF000A06270BD606A00EE100AB8EEC00AD4ED84
:104B0000000A20EE200ADFED2F0A80EE201A84ED45
:104B1000051A606A00EE100AB8EEC00AD4ED010A68
:104B200060EE200A9FED281A80EE810A9FED251A7B
:104B3000C0EE010A94ED060A30EE800A84ED060A02
:104B4000606AA16A401A00EE100AB8EEC00AD4EDFD
:104B5000020A20EE200A84ED070A94ED030AD4ED40
:104B6000070A70EE600A94ED030A94ED041A01EE50
:104B7000600A84ED030A94ED030A84ED070AF7EE58
:104B8000000ABFEE000A04F1180000F045FA606A5E
:104B9000A06294ED050AD4ED060A30EE200AD4EDA9
:104BA000070A30EE200A84ED080AF7EE000ABFEE8D
:104BB000000A04F1200000F02FFA00BF99E700007E
:104BC000000000000000C84200007A441CB501212A
:104BD000084602F035F9F020009001208DF804001D
:104BE00002208DF8050000208DF8060001208DF8C8
:104BF000070069461F4801F0DDFE10201D490883AB
:104C00002020088340200883802008831CBD10B525
:104C1000102018494883642000F05DF920201549D0
:104C20004883642000F057F94020124948836420EB
:104C300000F051F980200F494883642000F04BF9BF
:104C400010200C490883642000F045F92020094910
:104C50000883642000F03FF940200649088364205F
:104C600000F039F9802003490883642000F033F90B
:104C700010BD0000000002409FED5E0A80ED000ABA
:104C80009FED5D0A80ED020A704710B52DED0C8B8B
:104C90000446B0EE408AF0EE608A94ED020ADFED41
:104CA000570A30EEC00AD4ED000A20EE200A10EEBA
:104CB000101A084608F092FE41EC1B0B94ED020A14
:104CC00010EE101A084608F089FE41EC1D0B53EC5B
:104CD000182B08F065FC41EC1C0B53EC1B2B08F067
:104CE0004BF941EC1A0B9FED460B53EC102B08F0DF
:104CF000FFF941EC190B08F00DF9606094ED010A21
:104D000084ED000A94ED010A10EE101A084608F02E
:104D100065FE41EC100BBDEC0C8B10BDB7EE000A2C
:104D200080ED020AB7EE000A80ED030AB7EE000A32
:104D300080ED050A9FED340A80ED060A9FED330AE7
:104D400080ED070A9FED2B0A80ED0C0A704710B525
:104D50002DED068B0446B0EE408A18EE100A08F0DE
:104D60003DFE41EC1A0BB0EE4A0AF0EE6A0A284802
:104D7000FFF78BFFB0EE409AF0EE609A51EC190B02
:104D800008F0C8F8206394ED050AD4ED070A30EE68
:104D9000200AD4ED050A80EE801A84ED0A1A94EDFB
:104DA0000C0AD4ED030A94ED091A00EEC10AD4ED01
:104DB000090A94ED0A1A41EE000AC4ED080AD4ED7E
:104DC0000A0A94ED031AB7EE000A00EEC10AD4ED08
:104DD000050A20EE200A84ED040A94ED040A84ED0D
:104DE000050A94ED080A84ED090A94ED080ABDEC61
:104DF000068B10BD000000000000254400007A442E
:104E00000000000000408F40ACC52737CDCCCC3D22
:104E1000787500201CB50121022002F011F84FF432
:104E20004070009001208DF8040000208DF80600ED
:104E300002208DF8050069461A4801F0BBFD4FF4C9
:104E40008071184801F032FE4FF40071154801F0EE
:104E50002FFE1CBD70B50446112C00DD1124124834
:104E6000055D00261AE04FF480710E4801F020FE27
:104E700005F0010028B14FF400710A4801F016FE58
:104E800004E04FF40071074801F012FE4FF4807106
:104E9000044801F00BFE6D10701CC6B2082EE2DB58
:104EA00070BD000000040240C2DC0008704709E049
:104EB0004FF4FA7000F00FF80920FFF7CBFF042041
:104EC00000F0B4FDF4E700BFFEE700BFFEE700BF5F
:104ED000FEE77047704710B5002107E04AF2104224
:104EE00000BF1300A2F10102FBD1491C8142F5D39E
:104EF00010BD10B5002106E0282200BF1300A2F16A
:104F00000102FBD1491C8142F6D310BD00BF010054
:104F1000A0F1010290B2FAD17047000090ED001AA2
:104F2000B4EEC01AF1EE10FA12D290ED001A31EE82
:104F3000201AB4EEC01AF1EE10FA06D290ED001A63
:104F400031EE201A80ED001A1BE080ED000A18E017
:104F500090ED001AB4EEC01AF1EE10FA11DD90EDEA
:104F6000001A31EE601AB4EEC01AF1EE10FA06DD46
:104F700090ED001A31EE601A80ED001A01E080ED2C
:104F8000000A7047F0EE401A31EE612A70EEE12A15
:104F900082EE220A704710B50446D4ED000AB0EE46
:104FA000600ADFEDF90A07F0A7FA84ED000A94ED34
:104FB000000AB5EEC00AF1EE10FA07D294ED000A2D
:104FC000DFEDF10A30EE200A84ED000A10BD07E0A3
:104FD00090ED000ADFEDED0A30EE200A80ED000AC8
:104FE00090ED000ADFEDEA0AB4EEE00AF1EE10FA05
:104FF000EED307E090ED000ADFEDE40A30EE600A40
:1050000080ED000A90ED000ADFEDE20AB4EEE00A5E
:10501000F1EE10FAEEDC70470146002091ED001A27
:10502000B4EEE01AF1EE10FA03DDC1ED000A012042
:1050300009E091ED001AB4EEC01AF1EE10FA02D2B6
:1050400081ED000A0120704710B5034600201C685E
:10505000944202DD1A60012004E01C688C4201DAEF
:105060001960012010BD01460020D1ED000AF4EEC8
:10507000C00AF1EE10FA03DD81ED000A01200DE017
:10508000D1ED000AB1EE401AF4EEC10AF1EE10FAC9
:1050900004D2F1EE400AC1ED000A0120704710B5BC
:1050A0000246002013688B4202DD1160012006E0F9
:1050B0004C421368A34202DA4B421360012010BD38
:1050C000F0EE402A32EEE00A32EE613A20EE030AB8
:1050D00071EE603A80EE233A33EE210A704770B5E4
:1050E0000446049D601AEE1A7043561A90FBF6F0BF
:1050F000184470BDB0EE401A90ED000AB0EEC00A40
:10510000B4EEC10AF1EE10FA04D29FEDA30A80EDCD
:10511000000A28E070EEC11A80EEA12AB0EE420A21
:10512000D0ED001AF5EEC01AF1EE10FA0CDDD0ED5C
:10513000001A61EE801AB7EE002A32EE402A40EEE5
:10514000821AC0ED001A0DE0D0ED001AF1EE611ADE
:1051500061EE801AB7EE002A32EE402A50EEC21AF3
:10516000C0ED001A00BF7047B0EE401A71EE601A31
:10517000B0EE610A05E0DFED841A70EE211AB0EEA0
:10518000610ADFED861AB4EEE10AF1EE10FAF2D30D
:1051900005E0DFED7D1A70EE611AB0EE610ADFED19
:1051A000801AB4EEE10AF1EE10FAF2DC7047B0EECC
:1051B000401A71EE601AB0EE610A05E0DFED731A75
:1051C00070EE211AB0EE610ADFED711AB4EEE10A59
:1051D000F1EE10FAF2D305E0DFED6C1A70EE611A11
:1051E000B0EE610ADFED6B1AB4EEE10AF1EE10FAEF
:1051F000F2DC7047B0EE402AB0EEC20ADFED692A59
:1052000030EE220AB0EE401AF5EEC00AF1EE10FAC6
:1052100018DB30EEC13A70EE813A83EE234AB0EEED
:10522000440A20EE003AF0EE432A9FED5F3ADFEDAC
:105230005F3A13EEA23ADFED5E3AF0EE631A43EE08
:10524000001A18E030EE813A71EE603A83EE234A9C
:10525000B0EE440A20EE003AF0EE432A9FED523AB7
:10526000DFED523A13EEA23ADFED523AF0EE631A56
:1052700043EE001A00BFB5EEC02AF1EE10FA02D2DA
:10528000B1EE610A7047B0EE610AFBE705E0DFEDC1
:105290003F0A70EE200AB0EE600ADFED3D0AB4EE80
:1052A000E00AF1EE10FAF2D305E0DFED380A70EE15
:1052B000600AB0EE600ADFED370AB4EEE00AF1EE04
:1052C00010FAF2DCB5EEC00AF1EE10FA36D2DFEDDC
:1052D0003A0A60EE200A9FED391A20EE011A41EEDB
:1052E000000AC0ED000AD0ED000AF5EEC00AF1EEAA
:1052F00010FA12D2D0ED000A90ED001AD0ED001A8B
:10530000F1EE611A51EE210A90ED001ADFED2C1A30
:1053100001EEA01A80ED001A64E0D0ED000A90EDD5
:10532000001AD0ED001A51EE210A90ED001ADFEDBF
:10533000241A01EEA01A80ED001A53E0DFED1E0AD8
:1053400060EE200A9FED1D1A20EE011A41EE400A80
:10535000C0ED000AD0ED000AF5EEC00AF1EE10FA39
:1053600030D2D0ED000A90ED001AD0ED001AF1EE27
:10537000611A51EE210A90ED001ADFED111A01EECB
:10538000A01A80ED001A2DE00000B443DB0FC940E5
:10539000DB0F49C0DB0F494000000000000034C3B0
:1053A0000000344308E53C1EB1507B3FDE02493E1D
:1053B000DB0F493FE4CB164083F9A23F7B81CF3E10
:1053C0006666663ED0ED000A90ED001AD0ED001A38
:1053D00051EE210A90ED001A5FED071A01EEA01AB6
:1053E00080ED001ADFEDFD0A70EE200AB0EE600AD3
:1053F0005FED180AB4EEE00AF1EE10FA05DD5FED9C
:105400001D0A70EE600AB0EE600AB5EEC00AF1EE59
:1054100010FA36D25FED180A60EE200A1FED191A55
:1054200020EE011A41EE000AC1ED000AD1ED000A9A
:10543000F5EEC00AF1EE10FA12D2D1ED000A91EDAC
:10544000001AD1ED001AF1EE611A51EE210A91ED28
:10545000001A5FED251A01EEA01A81ED001A46E050
:10546000D1ED000A91ED001AD1ED001A51EE210A9A
:1054700091ED001A5FED2E1A01EEA01A81ED001ACF
:1054800035E05FED330A60EE200A1FED341A20EE9E
:10549000011A41EE400AC1ED000AD1ED000AF5EE15
:1054A000C00AF1EE10FA12D2D1ED000A91ED001A05
:1054B000D1ED001AF1EE611A51EE210A91ED001AB8
:1054C0005FED411A01EEA01A81ED001A0FE0D1ED57
:1054D000000A91ED001AD1ED001A51EE210A91ED6A
:1054E000001A5FED491A01EEA01A81ED001A70470B
:1054F0003CB504460B4615461FED590AF0EE404AEE
:105500001FED5B0AB0EE405A002222E004EB82005D
:10551000D0ED000AB0EE600A694601A8FFF7B6FEBA
:1055200003EB8200D0ED000A9DED011AB0EE640A93
:1055300001EE200AF0EE404A03EB8200D0ED000AB3
:105540009DED001AB0EE450A01EE200AB0EE405A79
:10555000521CAA42DADBF0EE450AB0EE640AFFF70D
:1055600049FE3CBDF0EE401AF4EEE01AF1EE10FAFE
:1055700011D8F4EEC11AF1EE10FA0CD8F4EEC10A0B
:10558000F1EE10FA02D8B0EE602A01E0B0EE412A46
:10559000B0EE420A22E0F4EEE10AF1EE10FA11D880
:1055A000F4EEC10AF1EE10FA0CD8F4EEC11AF1EEE5
:1055B00010FA02D8B0EE612A01E0B0EE412AB0EE56
:1055C000420A0BE0F4EEE01AF1EE10FA02D8B0EE67
:1055D000612A01E0B0EE602AB0EE420A704710B5D1
:1055E00003468B4208DC934206DC914201DC0C4608
:1055F00000E01446204610E0994208DC914206DCA7
:10560000934201DC1C4600E01446204605E08B4234
:1056100001DC1C4600E00C46204610BD08B5F0EE4B
:10562000400AB6EE000A20EE800AB0EE401ACDED38
:10563000000A6B490098A1EB600000909DED000A04
:1056400060EE011A9DED002AB7EE080A01EEC20ACB
:10565000DDED001A20EE210A8DED000A9DED000A15
:1056600008BD70B52DED028B05460C46B0EE408AA4
:105670000026D5ED000A60EEA00A94ED001AD4EDE4
:10568000001A41EE210AB0EE600A07F0FBFAF0EED4
:10569000408AB0EEC80AB0EE408A9FED520AF4EE9E
:1056A000C08AF1EE10FA03D29FED4E0AF0EE408A66
:1056B000F4EEC88AF1EE10FA11DDC8EE280AB0EE59
:1056C000600AD5ED000A60EE800AC5ED000AD4ED4F
:1056D000000A60EE800AC4ED000A012600BF3046D1
:1056E000BDEC028B70BD05E05FEDD80A70EE200ABC
:1056F000B0EE600A5FEDDA0AB4EEE00AF1EE10FAFD
:10570000F2D305E05FEDDF0A70EE600AB0EE600AEA
:105710005FEDE00AB4EEE00AF1EE10FAF2DCB5EE6D
:10572000C00AF1EE10FA0CD25FEDDD0A60EE200A3D
:105730001FEDDE1A20EE011A41EE000AC0ED000A4C
:105740000BE05FEDE30A60EE200A1FEDE41A20EEA5
:10575000011A41EE400AC0ED000ADFED200A70EEAA
:10576000200AB0EE600A5FEDF50AB4EEE00AF1EE51
:1057700010FA05DD5FEDFB0A70EE600AB0EE600A1C
:10578000B5EEC00AF1EE10FA0CD25FEDF50A60EE4C
:10579000200A1FEDF61A20EE011A41EE000AC1EDB3
:1057A000000A0BE05FEDFC0A60EE200A1FEDFD1A17
:1057B00020EE011A41EE400AC1ED000A7047B0EE3A
:1057C000401AF0EEC11AB0EEE02AF4EEC21AF1EE81
:1057D00010FA09D2B0EE410A08E00000DB0FC93F21
:1057E000DF59375FFFE6DB2EB0EE600A7047B0EEA0
:1057F000401AF0EEC11AB0EEE02AF4EEC21AF1EE51
:1058000010FA02DDB0EE410A01E0B0EE600A704726
:1058100070B506460D460020287080240BE006EA8D
:105820000400A04201D171A000E071A00146284609
:1058300005F087F96410002CF1DC70BD10B52DED7A
:10584000088BB0EE409AF0EE609AB0EE41AA0446A2
:105850009FED680AF0EE40AABFEE000AB4EEC09ACF
:10586000F1EE10FA03D2BFEE000AB0EE409AB7EEA6
:10587000000AB4EEC09AF1EE10FA03DDB7EE000AAA
:10588000B0EE409AF0EEC98AB5EEC09AF1EE10FA89
:1058900002DBB0EE698A01E0B0EE4A8A34BBB5EEB5
:1058A000C08AF1EE10FA14DBB7EE001A38EE011AD6
:1058B000F0EE410AB7EE001A31EE681AB0EE410A76
:1058C00006F0DAFEF7EE000A30EEC00AF0EE40AA6B
:1058D0007EE0B7EE000A30EE480AF0EE400AB0EE85
:1058E000680A06F0C9FEF0EE40AA71E0012C48D12A
:1058F000B0EEC80A5FED450AB4EEE00AF1EE10FA28
:1059000002D2F0EE68AA63E0B5EEC08AF1EE10FABA
:105910001EDBF7EE000A70EEE80A60EE880AB0EED1
:10592000600A06F0F5FCF7EE000A30EE60BAB0EE61
:10593000480A06F0EDFCF7EE000A70EE600A8BEE06
:10594000200AF7EE000A30EEC00AF0EE40AA3FE06F
:10595000F1EE480A60EEA80AB0EE600A06F0D8FC44
:10596000F7EE000A30EE60BAB1EE480A06F0D0FC5D
:10597000F7EE000A30EE600ACBEE000AF0EE60AA05
:1059800026E0022C22D1B5EEC08AF1EE10FA10DB2F
:10599000B7EE000A70EE680AB7EE000A08EE280AB1
:1059A00080EE801AB7EE000A30EE410AF0EE40AA0F
:1059B0000EE0B7EE000A70EE680AB7EE000A08EED5
:1059C000600AC8EE800AF0EE60AA01E0F0EE68AA74
:1059D000B5EEC09AF1EE10FA03D2B1EE6A0AF0EE1B
:1059E00040AAB0EE6A0ABDEC088B10BD3100000081
:1059F00030000000000000001CB50121084601F045
:105A00001FFA01208DF8040000208DF806004FF4E5
:105A10008070009000208DF8050069460F4800F066
:105A2000C9FF4FF480700D4948831CBD70B5044612
:105A3000002510E04FF48070084908834FF4FA60A5
:105A400004F0F0FC4FF48070044948834FF4FA608E
:105A500004F0E8FC6D1CA542ECDB70BD00000240C8
:105A600032490143324A1160704770B5002100236A
:105A70000F22C4781CB32E4C246804F4E064C4F5EF
:105A8000E064C4F30721C1F10404E3B20A4144789D
:105A90009C40E1B28478144021430C07210E254C30
:105AA00005786155047804F01F050124AC400578A1
:105AB0006D11AD0005F1E025C5F8004109E004785D
:105AC00004F01F050124AC401B4D0678761145F803
:105AD000264070BD194A0A400243154B1B1F1A602D
