:020000040800F2
:10000000C0CA002085A40008157C0008177C0008E1
:10001000297C00082D7C0008317C000800000000CD
:10002000000000000000000000000000357C000817
:10003000377C00080000000073A700089FA6000896
:100040009FA400089FA400089FA400089FA4000884
:100050009FA400089FA400089FA400089FA4000874
:100060009FA400089FA400089FA400089FA4000864
:100070009FA400089FA40008A52A00089FA40008C8
:100080009FA400087F1C00089FA400089FA40008EC
:100090000F1500089FA400089FA400089FA4000853
:1000A0009FA400089FA400089FA400089FA4000824
:1000B00087100008871900089FA400089FA4000863
:1000C0009FA400089FA400089FA400089FA4000804
:1000D0009FA400089FA40008A51C0008F92A000896
:1000E0009FA400089FA400089FA400089FA40008E4
:1000F0009FA400089FA400089FA400089FA40008D4
:100100009FA400089FA40008751600089FA400087B
:100110009FA400089FA400089FA400089FA40008B3
:100120009FA400089FA400089FA400089FA40008A3
:100130009FA400089FA400089FA400089FA4000893
:100140005F080008CF0900089FA400089FA40008CA
:100150009FA400089FA400089FA400089FA4000873
:100160009FA400089FA400089FA400089FA4000863
:100170009FA400089FA400089FA400089FA4000853
:100180009FA400089FA40008DFF80CD00CF0E4FF47
:10019000004800478D020008C0CA002006E08049E0
:1001A000804806F0E9F902200CF046FBF7E709E089
:1001B00006F079FE7C48007806F05EFD4FF47A7018
:1001C0000CF03AFBF4E730E07848007805F068F886
:1001D00032200CF031FB022005F062F832200CF0E6
:1001E0002BFB032005F05CF832200CF025FB0021EE
:1001F000012004F080FD0021012004F011FF6420A3
:100200000CF01AFB0021022004F075FD00210220F1
:1002100004F006FF64200CF00FFB0021032004F023
:100220006AFD0021032004F0FBFECDE703E04FF45C
:10023000FA600CF001FBFAE770B50446002500BF38
:100240000AF043FA02F083F80AF072FA054607232F
:10025000574A002157480BF0A9FF0923564A0021AD
:1002600056480BF0A3FF0823554A002155480BF0D0
:100270009DFF1023544A002154480BF097FF05209E
:100280000CF012FA28460AF057FA70BD10B50AF0C1
:100290005FF84FF4806101F007024D4B18684FF68C
:1002A000FF0318404B4B034343EA0220484B1860BE
:1002B00000BF062142F6DF6000F0BAFE01F0AAF9A5
:1002C00001F0B6F800F060F900F0FAFF01F03CFC34
:1002D00002F04EFB06F0B0FC06F040F902213E4869
:1002E00005F082FF01F01CF90AF0B2FB05233B4A3E
:1002F00000213B480BF05AFF0AF0D1FC002010BD52
:100300004CE03848B0F9180000EE900AF8EEE00A28
:10031000B0EE600A012006F0E5FC3248B0F91600A4
:1003200000EE900AF8EEE00AB0EE600A022006F055
:10033000D9FC2C48B0F9140000EE900AF8EEE00A5F
:10034000B0EE600A032006F0CDFC0420B1EE000AF6
:1003500006F0C8FC0520B1EE040A06F0C3FC062036
:10036000B1EE080A06F0BEFC0720B1EE0C0A06F05A
:10037000B9FC0820B2EE000A06F0B4FC0920B2EE87
:10038000020A06F0AFFC0A20B2EE040A06F0AAFC4C
:10039000032006F0F8FC64200CF04EFAB1E70000F0
:1003A000687B002000680040010000200000002061
:1003B000CC0800202D020008CC0E0020C701000848
:1003C000CC160020AF010008CC1200209D010008CF
:1003D0000CED00E00000FA052C2B0020CC040020DE
:1003E00039020008901A00200022826180ED031A71
:1003F000C0ED020A80ED010AC0ED041A0160C2617D
:10040000002303624362704780ED000AC0ED010AD9
:1004100080ED021AC0ED041A704701688269891ADA
:10042000C161C269016A511A00EE101AB8EEC00A21
:10043000D0ED010A20EE200A90ED021AC16900EE0B
:10044000901AF8EEE00A01EE200AC269016A02235E
:1004500003FB1122416A114400EE901AF8EEE00A03
:1004600090ED031A01EE200ABDEEC00A10EE101A3C
:100470004161026A4262C2690262704770B5044615
:100480000D4616462563E662206BE16A401A6062FB
:10049000206B002801DD206B01E0206B4042142816
:1004A00006DA9FED360A84ED060A606AA06270BD26
:1004B000606A00EE100AB8EEC00AD4ED000A20EE21
:1004C000200ADFED2F0A80EE201A84ED051A606AFB
:1004D00000EE100AB8EEC00AD4ED010A60EE200A60
:1004E0009FED281A80EE810A9FED251AC0EE010AC1
:1004F00094ED060A30EE800A84ED060A606AA16A6D
:10050000401A00EE100AB8EEC00AD4ED020A20EE3E
:10051000200A84ED070A94ED030AD4ED070A70EE71
:10052000600A94ED030A94ED041A01EE600A84ED6A
:10053000030A94ED030A84ED070AF7EE000ABFEE02
:10054000000A04F1180006F0A3FD606AA06294EDB1
:10055000050AD4ED060A30EE200AD4ED070A30EE83
:10056000200A84ED080AF7EE000ABFEE000A04F143
:10057000200006F08DFD00BF99E70000000000009C
:100580000000C84200007A4400B58BB00121880603
:1005900007F00BFD0121022007F0D4FC0922052100
:1005A000FC4808F058FD09220621FA4808F053FDDE
:1005B00002208DF818006020059005A9F54808F084
:1005C000BFFC40208DF8280002208DF82900002073
:1005D0008DF82A0001208DF82B000AA807F0AFFA49
:1005E00041208DF8280002208DF829008DF82A007E
:1005F00001208DF82B000AA807F0A1FAE64808F0C0
:100600006DFF07A809F08EF800208DF82200012068
:100610008DF8230000208DF824008DF825008DF83A
:1006200026008DF827008DF81E008DF81F00082089
:100630008DF8200003208DF82100ADF81C0007A9DB
:10064000D54808F064FF0E208DF80E0001208DF8CB
:100650000F0000208DF8100044F22000ADF80400D7
:1006600044F24000ADF8060044F26000ADF8080026
:100670004FF48140ADF80A000020ADF80C000120D5
:100680008DF8110001A808F0CCFF0F208DF80E00A6
:1006900001208DF80F0000208DF8100044F2A0001A
:1006A000ADF8040044F2C000ADF8060044F2E000EA
:1006B000ADF808004FF48240ADF80A000020ADF814
:1006C0000C0001208DF8110001A808F0AAFF1020ED
:1006D0008DF80E0001208DF80F0000208DF810001D
:1006E00045F22000ADF8040045F24000ADF80600E8
:1006F00045F26000ADF808004FF4A140ADF80A00E3
:100700000120ADF80C008DF8110001A808F089FF58
:1007100011208DF80E0001208DF80F0000208DF8BB
:10072000100045F2A000ADF8040045F2C000ADF89D
:10073000060045F2E000ADF808004FF4A240ADF825
:100740000A000120ADF80C008DF8110001A808F096
:1007500068FF12208DF80E0001208DF80F00002098
:100760008DF810004FF48150ADF804004FF4825022
:10077000ADF806004FF48350ADF808004FF48450F4
:10078000ADF80A000120ADF80C008DF8110001A8A9
:1007900008F047FF13208DF80E0001208DF80F00A0
:1007A00000208DF810004FF48550ADF804004FF490
:1007B0008650ADF806004FF48750ADF808004FF4AE
:1007C0008850ADF80A000120ADF80C008DF811003A
:1007D00001A808F026FF14208DF80E0000208DF8E7
:1007E0000F0001208DF810000020ADF804004FF438
:1007F0009040ADF806004FF6FF70ADF808000020FD
:10080000ADF80A000120ADF80C008DF8110001A828
:1008100008F007FF18208DF80E0001208DF80F005A
:1008200000208DF81000ADF80400ADF80600ADF81A
:100830000800ADF80A000120ADF80C008DF8110099
:1008400001A808F0EEFE01221021534809F0E8F952
:1008500001220221504809F0E3F90BB000BD10B5A8
:1008600086B002214C4809F043FA00287DD001AA45
:100870000021494809F0B9F80198B0F5007F7ED908
:100880000198B0F5027F7AD89DF80D00002876D146
:100890000198401EC4B2414850F82400404941F834
:1008A00024000CF079F83D4941F82400084650F83E
:1008B00024003B4951F82410401A3A4941F82400D9
:1008C0009DF812109DF8110041EA002001B204EBDE
:1008D000C40000EB4000344A02EBC00001839DF8E5
:1008E00010009DF80F1040EA012001B204EBC40093
:1008F00000EB400002EBC00001849DF814109DF84D
:10090000130041EA002001B204EBC40000EB4000F8
:1009100002EBC000C1829DF8151004EBC40000EB8F
:10092000400002EBC0004184204602F03BFE04EB95
:10093000C40000EB40001C4901EBC00090F83A00F5
:10094000E0B9012104EBC40000EB4000164A02EBC1
:10095000C00080F83A10002104EBC40000EB400016
:1009600002EBC000A0F8581001E011E007E004EB32
:10097000C40000EB400002EBC000C16100BF0221D7
:10098000054809F050FA0221034809F08EF900BF2A
:1009900006B010BD0004024000680040F0160020C0
:1009A000D016002010170020901A00204168491C22
:1009B0004160002101730169491E0161818A491C5E
:1009C000322291FBF2F302FB13118182704710B5C2
:1009D00086B01021FE4809F08BF900287BD001AACF
:1009E0000121FB4809F001F81021F94809F01BFA30
:1009F0001021F74809F059F90198B0F5207F6BD91B
:100A00000198B0F5227F67D89DF80D00002863D1CA
:100A10000198A0F28120C4B29DF80F00412807D1AF
:100A20009DF81000432803D1002008B9012000E000
:100A300000209DF80F10422907D19DF8101047297A
:100A400003D1002109B9012100E0002108439DF8EC
:100A50000F104A2907D19DF81010562903D1002103
:100A600009B9012100E0002108439DF80F104D292C
:100A700007D19DF810104F2903D1002109B9012198
:100A800000E0002108439DF80F10502907D19DF880
:100A90001010522903D1002109B9012100E00021E1
:100AA00008439DF80F10532907D19DF810104429D1
:100AB00003D1002109B9012100E0002108439DF87C
:100AC0000F10532909D19DF81010542905D1002188
:100AD00019B9012102E053E2FFE0002108439DF82B
:100AE0000F10442907D19DF81010432903D100218C
:100AF00009B9012100E0002108439DF80F10552994
:100B000007D19DF810104D2903D1002109B9012109
:100B100000E00021084330B167216143AD4A02EB98
:100B2000C100FFF743FF9DF80F004D2811D19DF83C
:100B300010004F280DD1002058B99DF8130008B1BE
:100B4000012000E0002004EB4411A34A02EB8101E4
:100B500088709DF80F00562823D19DF81000582862
:100B60001FD10020E8B9DDF8131004EB44109A4AB5
:100B700002EB8000016204EB4410114601EB80009F
:100B8000B0F878003C2190FBF1F104EB441002EB4B
:100B90008000006A90FBF1F104EB441002EB80004E
:100BA00001629DF80F0050284ED19DF81000582882
:100BB0004AD10020F0BBDDF8130004EB4411864A53
:100BC00002EB81014A6A04EB4411834B03EB810180
:100BD000CA6304EB44111A4602EB8101486204EB3C
:100BE000441102EB810191ED1F0A9FED7C1AC1EEC9
:100BF000000A00EE100AB8EEC00A20EE800A04EBEC
:100C0000441102EB810191ED201AC0EE010A04EBC0
:100C1000441102EB8101B1F8781000EE101AB8EE21
:100C2000401A80EE810AF1EE000A80EE201ABDEE35
:100C3000C10A00E008E010EE101A09B204EB4412F9
:100C400003EB8202918300BF9DF80F0049280ED16B
:100C50009DF8100051280AD1002040B9BDF81300BA
:100C600001B204EB44105C4A02EB8000C1839DF8A2
:100C70000F0055280CD19DF810004D2808D10020F8
:100C800030B99DF8130004EB4411534A02F82100D7
:100C90009DF80F0041280DD19DF81000432809D17F
:100CA000002038B9DDF8131004EB44104A4A02EB77
:100CB0008000C1629DF80F0044280DD19DF81000FE
:100CC000432809D1002038B9DDF8131004EB441093
:100CD000414A02EB8000016300BF019881281BD3C9
:100CE0000198882818D89DF80D00A8B99DF8100023
:100CF000822811D09DF8100010280DD04FF01061FF
:100D0000019841EA00409DF80F1040EA01209DF84B
:100D100010100843324908609DF80C0004287DD16A
:100D20009DF80D000028FAD10090029800F00F0005
:100D3000401EC4B209210298B1EB102F6FD1694651
:100D40000DF10F0006F0BFFE04EB8401254A02EB13
:100D5000811191F8341190FBF1F104EB840002EB66
:100D60008010C1616946B2EE040A0DF10F0006F071
:100D7000D0FE04EB84001B4901EB801080ED060AD5
:100D80006946B2EE040A0DF10F0006F0C2FE04EB54
:100D90008400144901EB801080ED080A0DF1160162
:100DA000481E00F0D3FBBDF8151004EB84000D4A7B
:100DB00002EB8010A0F8001104EB8400114601EB57
:100DC0008010B0F8001104EB840002EB80100BE0FF
:100DD000006800402C2B0020902100200000B4432C
:100DE0002C0000201C260020B0F80201081A00B2D6
:100DF00004EB840102EB8111A1F8FC0004EB8400F8
:100E0000114601EB801090F8FE0080B1002104EB48
:100E1000840002EB801080F8FE1001E096E094E080
:100E2000002004EB840102EB8111A1F8FC0004EB2B
:100E300084007D4901EB8010B0F8001104EB8400C0
:100E4000794A02EB8010A0F8021104EB84001146ED
:100E500001EB8010B0F9FC00002806DD04EB8400F3
:100E600001EB8010B0F9FC0007E004EB84006E4950
:100E700001EB8010B0F9FC004042B0F5E16F21DDDC
:100E800004EB8400684901EB8010B0F9FC0004EB2E
:100E90008401654A02EB8111B1F9FC10002902DAE4
:100EA0004FF0FF3100E00121C1EB4112C2EB012103
:100EB000A0EB011000B204EB84015B4A02EB81114C
:100EC000A1F8FC0004EB8400574901EB8010806A14
:100ED00004EB8401544A02EB8111B1F9FC10014486
:100EE00004EB840002EB8010816204EB8400114665
:100EF00001EB8010416904EB840002EB8010806AF2
:100F0000091A04EB840002EB8010C0F80C1104EB0A
:100F10008400114601EB80104078B0B104EB8400EE
:100F200001EB801090ED080A04EB840001EB8010C7
:100F300080ED410A04EB840001EB8010816A04EB30
:100F4000840002EB8010C0F8081100BF0198B0F5D2
:100F5000007F0CD90198B0F5027F08D89DF80D00EC
:100F600028B9019840F01F00142800D100BF019853
:100F700028B90598009001A80FC805F0EEFD00BF44
:100F800006B010BDF0B585B007460D46002412200E
:100F90000090019000208DF808008DF809008DF870
:100FA0000A5000BF05E0395D0DF10B000155601CD2
:100FB00084B2AC42F7DB69461C4808F021FC0646C7
:100FC000002401E0601C84B23146184808F0B0FCEF
:100FD00018B940F6FF708442F4DB40F6FF7084429B
:100FE00002DB012005B0F0BD0020FBE730B585B085
:100FF000054600210D4808F07BFD10B9002005B022
:1010000030BD6A460021094808F0EFFC002404E0E6
:101010000DF10B00005D2855641C9DF80A00A042EC
:10102000F6D89DF80A00EAE71C2600200068004078
:101030007FB505460C460121084606F0B6FF02952D
:10104000ADF804400020ADF80600ADF80C0001A991
:101050004FF0804007F061F91C208DF8000001205E
:101060008DF801008DF802008DF80300684606F047
:1010700066FD01221146900707F0F0FD0121880767
:1010800007F0D4F97FBD10B50121880707F0FDFDF9
:1010900001287AD10121800707F008FE00243DE0F5
:1010A00004EBC40000EB40007D4911F8300070B340
:1010B00004EBC40101EB4101794A02EBC10002F0EB
:1010C0000EF804EBC40000EB4000754901EBC000D2
:1010D0004078F8B104EBC40000EB400001EBC00025
:1010E0008078012806D0022805D004280BD00528D6
:1010F0000ED104E00DE020B201F095FF09E020B22E
:1011000002F0CBF805E020B201F0F0FF01E004E0CE
:1011100000BF02E020B202F0C0F8641C052CBFDB67
:101120005F4CB4F98E32B4F9B621B4F9DE10B4F9DB
:10113000060002F018FC02F072FC5A495A4805F009
:101140001BFA5A48407A20B102225649584805F005
:1011500088F800249CE0C4EB0410564901EB8000A1
:10116000407800287ED0C4EB041001EB800080782A
:10117000002877D0C4EB041011F82000012805D016
:10118000022818D0052873D13AE088E0C4EB041196
:10119000484A02EB810191ED030AB0EE402AE0B229
:1011A000DFED451A9FED441ADFED430A9FED420A39
:1011B00005F0EFFB6AE0C4EB04113E4A02EB81014B
:1011C00091ED030AB0EE402AC4EB041102EB810159
:1011D000B1F9381000EE101AB8EEC00AF0EE401A5D
:1011E000C4EB041102EB810191ED040AF0EE400A18
:1011F000E0B29FED311A9FED300A05F0CAFB45E0E1
:10120000C4EB04112B4A02EB8101D1ED032AB0EEAD
:10121000622AC4EB041102EB8101B1F9381002EE2D
:10122000901AF8EEE22AF0EE621AC4EB041102EB17
:101230008101B1F9361002EE901AF8EEE22AB0EE12
:10124000621AC4EB041102EB8101D1ED042AF0EE25
:10125000620AC4EB041102EB8101D1ED022AB0EE67
:10126000620A01E013E003E0E0B205F092FB0DE05A
:10127000E0B29FED112ADFED101A9FED0F1ADFED9E
:101280000E0A9FED0D0A05F084FB00BF00BF641C31
:10129000062CFFF660AF0949034805F06DF910BD53
:1012A000901A0020207500200068004030170020B0
:1012B0002C2B0020BC810020000000008C7E002030
:1012C00000B597B00121880506F03CFE01211020F1
:1012D00006F07CFE072209214F4807F0BCFE0722DA
:1012E0000A214D4807F0B7FE02208DF858004FF450
:1012F000C060159003208DF8590000208DF85A0029
:101300008DF85B0015A9444807F01AFE0C20ADF8D3
:101310004E000020ADF848004FF4E130119000205D
:10132000ADF85000ADF84C00ADF84A0011A93B48AB
:1013300007F014FF012240F22551394808F04CF81B
:101340004FF4C06006F0F6FB25208DF84000012028
:101350008DF8410010A806F0F2FB324808F0B6FD07
:101360004FF00060019000200590402004902E482E
:1013700003902B48001D0290001507900020069056
:10138000099008900A904FF440300B9000200C9088
:1013900001200D9000200F900E9001A9214808F027
:1013A00037FE22491F4808F0E6FE20491D4808F094
:1013B0003DFF012210211B4808F0F1FE11208DF89D
:1013C000400007208DF8410001208DF842008DF883
:1013D000430010A806F0B3FB01228021104807F05B
:1013E000F2FF01210D4807F041FF17B000BD10B515
:1013F00004462146094807F064FF00BF80210748E2
:1014000008F00FF80028F9D000BF4021034808F089
:1014100008F80028F9D010BD00000240001001407B
:1014200000440040A0600240651800200080202099
:1014300000B58BB00121480606F0B7FD0121084632
:1014400006F080FD09220B21314807F004FE092235
:101450000C212F4807F0FFFD02208DF81C004FF4EF
:10146000C050069006A92A4807F06AFD00208DF8B2
:1014700026008DF827008DF828008DF829008DF8BA
:101480002A008DF82B008DF822008DF8230008200B
:101490008DF8240003208DF82500ADF8200008A960
:1014A0001C4808F034F814208DF8040003208DF84F
:1014B000050000208DF8060001208DF8070001A826
:1014C00006F03DFB01208DF812008DF8130000207E
:1014D0008DF81400ADF80800ADF80A00ADF80C0066
:1014E000ADF80E00ADF8100001208DF8150002A82F
:1014F00008F097F8074807F0F1FF08A808F012F97C
:1015000001220221034808F08BFB0BB000BD70479D
:10151000000002400064004001203A4948727047D0
:1015200010B502F0D5FA384802F011FC01F002FBC8
:10153000FFF7F2FF05F096FC05F0EAFC334800F0F7
:1015400027F903F02BFF05F02DF910BD00220A78D2
:1015500003780B700270704710B508200CF010FE75
:10156000044600206060204610BD02460B4611462E
:1015700005E00888984201D108467047496800296B
:10158000F7D10020F9E770B506460C46354600E075
:101590006D6815B16868A042FAD14CB160686860A6
:1015A00020460CF0C5FD1A480078401E1849087006
:1015B00070BD2DE9F041074688463C46414620462D
:1015C000FFF7D3FF08B1BDE8F081002602E06468B0
:1015D000701CC6B20E480078B04201DD002CF6D176
:1015E0006CB108200CF0CCFD0546A5F800806068C1
:1015F0006860656006480078401C0549087000BFB7
:10160000E1E700003017002000680040C819002002
:10161000040000201FB50121082006F0C6FC42F698
:10162000DF6002900B20ADF804000020ADF80C0044
:10163000ADF8060001A9544806F06FFE32208DF87F
:10164000000001208DF803008DF8010000208DF8C6
:101650000200684606F073FA01214B4807F012FBBE
:1016600001221146484807F0F9FA0121464806F0E0
:10167000DDFE1FBD70B50121434807F006FB0028C1
:101680006FD00121404807F011FB002479E004EB02
:1016900084013E4A02EB811003F04AFF04EB840010
:1016A0003A4901EB80100078002869D004EB8400EF
:1016B00001EB80104078002862D004EB840001EB3D
:1016C0008010C0780A2859D2DFE800F03C05142DBC
:1016D00058294C50585404EB84012C4A02EB8111D8
:1016E000D1ED010AB0EE600A611CC8B2002104F01D
:1016F00027F844E004EB8402244B03EB8212926847
:1017000004EB8403214D05EB831393F8343102FB82
:1017100003F1621CD0B2002204F0C3FA2FE0E0B261
:1017200003F062FF2BE004EB8401184A02EB811105
:10173000D1ED470AB0EE600A611CC8B2002104F086
:10174000A4FC1CE004EB8401104A02EB8111D1EDF2
:10175000040AB0EE600A611CC8B2002104F038FC33
:101760000DE010E0E0B204F0E2FA08E0E0B204F0CC
:10177000D3F804E0E0B204F06AF800E000BF00BF74
:10178000641C032C83DB70BD000C00401C26002071
:101790009FED5E0A80ED000A9FED5D0A80ED020A72
:1017A000704710B52DED0C8B0446B0EE408AF0EE7C
:1017B000608A94ED020ADFED570A30EEC00AD4EDDC
:1017C000000A20EE200A10EE101A08460BF028FB43
:1017D00041EC1B0B94ED020A10EE101A08460BF0B8
:1017E0001FFB41EC1D0B53EC182B0BF0E2F941EC05
:1017F0001C0B53EC1B2B0BF035F941EC1A0B9FED36
:10180000460B53EC102B0BF046FA41EC190B0BF086
:101810001AFB606094ED010A84ED000A94ED010A60
:1018200010EE101A08460BF0FBFA41EC100BBDEC61
:101830000C8B10BDB7EE000A80ED020AB7EE000A6D
:1018400080ED030AB7EE000A80ED050A9FED340A29
:1018500080ED060A9FED330A80ED070A9FED2B0A03
:1018600080ED0C0A704710B52DED068B0446B0EEE6
:10187000408A18EE100A0BF0D3FA41EC1A0BB0EEC6
:101880004A0AF0EE6A0A2848FFF78BFFB0EE409A4A
:10189000F0EE609A51EC190B0BF0D5FA206394ED41
:1018A000050AD4ED070A30EE200AD4ED050A80EED1
:1018B000801A84ED0A1A94ED0C0AD4ED030A94ED13
:1018C000091A00EEC10AD4ED090A94ED0A1A41EE94
:1018D000000AC4ED080AD4ED0A0A94ED031AB7EE23
:1018E000000A00EEC10AD4ED050A20EE200A84EDBC
:1018F000040A94ED040A84ED050A94ED080A84EDC7
:10190000090A94ED080ABDEC068B10BD000000002A
:101910000000254400007A440000000000408F4091
:10192000ACC52737CDCCCC3DC81900201FB501214F
:10193000022006F03AFB42F6DF6002900620ADF886
:1019400004000020ADF80600ADF80C001D208DF855
:10195000000001208DF8010000208DF80200012018
:101960008DF80300684606F0EAF801A9724806F00F
:10197000D4FC01221146704807F070F901216E482D
:1019800006F054FD1FBD70B501216B4807F07DF9CD
:10199000012870D10121684807F088F9002466E029
:1019A00004EB8400654901EB801090F810010128D8
:1019B00027D104EB840001EB8010007808B30AF013
:1019C000EBFF04EB84015D4A02EB8111D1F81411A5
:1019D000411A04EB840002EB8010B0F81801814238
:1019E0000FD904EB8400114601EB801090F811012F
:1019F000401CC1B204EB840002EB801080F811118E
:101A000007E0002104EB84004C4A02EB801080F8D0
:101A1000111104EB8400494901EB801090F8110189
:101A200014280ADD621C032343EA021242F4807187
:101A3000434A5068FFF7BDFD17E0002104EB840026
:101A40003E4A02EB801080F84210621C032343EAF6
:101A5000021242F480713A4A5068FFF786FD05464B
:101A6000374948682946FFF78EFD601CC4B2042C34
:101A700096DB002454E05DE004EB4410314901EBB7
:101A800080008078E8B304EB441001EB800090F80C
:101A9000760000B30AF080FF04EB4411294A02EB00
:101AA0008101096F411A04EB441002EB8000B0F889
:101AB000740081420FD904EB4410114601EB800001
:101AC000B0F86C00401C81B204EB441002EB8000C3
:101AD000A0F86C1007E0002104EB4410194A02EB57
:101AE0008000A0F86C1004EB4410164901EB800054
:101AF000B0F86C000A280ADD012104EB4410114AF9
:101B000000E00CE002EB800080F84F1007E00021BD
:101B100004EB44100B4A02EB800080F84F10641C69
:101B2000042CA9DB002403E0A0B201F0B1FE641C88
:101B3000082CF9DB70BD0000000400401C260020CA
:101B4000040000209021002000B597B00121084634
:101B500006F0F8F90121480406F027FA01214805AA
:101B600006F0F0F907220221FE4807F074FA072276
:101B70000321FC4807F06FFA0C20119002208DF829
:101B8000480000208DF84A0003208DF8490000200D
:101B90008DF84B0011A9F34807F0D2F94FF4E1306A
:101BA00013900020ADF85000ADF85200ADF854008D
:101BB000ADF858000C20ADF8560013A9EA4807F01C
:101BC000CDFA012240F22551E74807F005FC262016
:101BD0008DF8400004208DF8410001208DF842006E
:101BE0008DF8430010A805F0AAFF0121DE4807F098
:101BF0003DFBDE4808F06AF94FF0006001900020DC
:101C0000059040200490DA480390D748001D0290C8
:101C10000015079000200690099008900A904FF454
:101C200040300B9000200C9001200D9000200F9070
:101C30000E9001A9CD4808F0EBF9CE49CB4808F049
:101C40009AFACC49C94808F0F1FA01221021C74894
:101C500008F0A5FA11208DF8400007208DF841000A
:101C600001208DF842008DF8430010A805F067FFB1
:101C700001228021BC4807F0A6FB17B000BD10B5BB
:101C8000BC49BA4808F0A8FA01280AD1B949B748AE
:101C900008F071FAB749B54808F0C8FA0020B6490B
:101CA000C87310BD70B52DED028B002440F22531B4
:101CB000AD4807F0CCFB50B1AB4807F006FB002065
:101CC000AE4908702021AE480AF0A5FE31E340F28B
:101CD0002551A54807F0BBFB0028F7D02021A248DA
:101CE00007F0ACFB40F225519F4807F0E7FB9E4808
:101CF00007F0EBFAC4B2A148007800F0400008B346
:101D00009E48007800F0800020BBFF2C06D19B4845
:101D1000007840F08000994908701BE097480078EF
:101D200000F03F019648445494480078401C934981
:101D300008700846007800F03F0028280ADD0020DF
:101D4000087007E0EE2C05D18C48007840F0400088
:101D50008A4908708948007800F080000028B5D0D2
:101D6000884890F82102012804D1864890F823027F
:101D700085490870834890F8230230B1012805D0C6
:101D8000022879D0032800D111E1C9E27D4890F8FA
:101D90002502082822D17B4890F8260211281DD15F
:101DA000784890F82702302806D0312808D0322809
:101DB0000AD0332810D10BE00020744908700CE0E1
:101DC00001207249087008E002207049087004E0A0
:101DD00003206E49087000E000BF00BF694890F81A
:101DE0002502092821D1674890F8260210281CD125
:101DF000644890F8280258B1012814D16349097841
:101E000001EBC10101EB4101614A02F831000BE035
:101E100000205E49097801EBC10101EB41015C4AF8
:101E200002F8310000E000BF00BF564890F82502DC
:101E30000A2824D1534890F8260210281FD151486F
:101E400090F8280260B1012817D15049097801EBB8
:101E5000C10101EB41014E4A02EBC10148700DE0A6
:101E600000204A49097801EBC10101EB4101484AD0
:101E700002EBC101487001E07BE100BF00BF4148B7
:101E800090F82502032834D13E4890F82602112804
:101E90002FD13C4890F82702322804D034280ED0A5
:101EA000352824D117E002203849097801EBC10117
:101EB00001EB4101364A02EBC101887018E00420B1
:101EC0003249097801EBC10101EB4101304A02EBD3
:101ED000C10188700CE005202C49097801EBC10193
:101EE00001EB41012A4A02EBC101887000E000BF0A
:101EF00000BF244890F8250201281CD1214890F801
:101F00002602112817D11E48C01D0BF041FBB0EE70
:101F1000408AF0EE608A51EC180B0AF049FF01B2DA
:101F20001A48007800EBC00000EB4000184A02EBB2
:101F3000C0000181F4E1134890F82502022835D150
:101F4000104890F82602112830D10D48C01D0BF022
:101F50001FFBB0EE408AF0EE608A51EC180B0AF0DD
:101F600027FF17E00000024000440040A06002404C
:101F70006518002000802020301700200D00002070
:101F800065190020451700200C0000200F000020DC
:101F9000901A002000B2FE49097801EBC10101EB63
:101FA0004101FC4A02EBC1018880B9E1B8E1FA487D
:101FB00090F82502082822D1F74890F82602112827
:101FC0001DD1F54890F82702302812D0312804D0CE
:101FD000322806D0332810D107E00120EF490870DD
:101FE0000CE00220ED49087008E00320EB4908707E
:101FF00004E00020E949087000E000BF00BFE648A7
:1020000090F8250209281FD1E34890F826021028ED
:102010001AD1E14890F8280250B1012812D1DF49C5
:10202000097801EB4111DE4A02EB810148700AE0B8
:102030000020DA49097801EB4111D94A02EB81010C
:10204000487000E000BF00BFD34890F825020A287E
:102050001FD1D14890F8260210281AD1CE4890F806
:10206000280250B1012812D1CC49097801EB411165
:10207000CB4A02EB810188700AE00020C749097849
:1020800001EB4111C64A02EB8101887000E000BFFC
:1020900000BFC14890F82502032825D1BE4890F81A
:1020A0002602112820D1BC4890F82702322804D0FB
:1020B000342809D0352815D10DE000220221B74877
:1020C000007801F068FE0EE000220421B348007899
:1020D00001F061FE07E000220521B048007801F020
:1020E0005AFE00E000BF00BFAB4890F8250201286F
:1020F0001CD1A94890F82602112817D1A9480BF045
:1021000047FAB0EE408AF0EE608A51EC180B0AF004
:102110006EFEC5B201222946A048007802F079FA85
:1021200000219E48007802F016F8F9E09A4890F8ED
:10213000250202281CD1984890F82602112817D1B0
:1021400098480BF025FAB0EE408AF0EE608A51EC28
:10215000180B0AF02DFE0546012229468F4800780B
:1021600002F099F800218D48007801F0F4FFD7E0E3
:10217000D6E0894890F82502082822D1864890F8B0
:10218000260211281DD1844890F82702302812D049
:10219000312804D0322806D0332810D107E001209E
:1021A000814908700CE002207F49087008E0032094
:1021B0007D49087004E000207B49087000E000BF02
:1021C00000BF754890F8250209281FD1724890F881
:1021D000260210281AD1704890F8280250B1012820
:1021E00012D17149097801EB8101704A02EB81112A
:1021F00008700AE000206C49097801EB81016B4A04
:1022000002EB8111087000E000BF00BF624890F847
:1022100025020A281FD1604890F8260210281AD1FA
:102220005D4890F8280250B1012812D15E49097822
:1022300001EB81015D4A02EB811148700AE0002048
:102240005949097801EB8101584A02EB8111487024
:1022500000E000BF00BF504890F82502032822D1BB
:102260004D4890F8260211281DD14B4890F82702BE
:10227000322802D0352814D109E002204A490978D1
:1022800001EB8101494A02EB8111C8700AE0052087
:102290004549097801EB8101444A02EB8111C8707C
:1022A00000E000BF00BF3C4890F82502012818D18B
:1022B000394890F82602112813D13A480BF068F9F2
:1022C000B0EE408AF0EE608A51EC180B0AF070FD17
:1022D0003549097801EB8101344A02EB81118860AC
:1022E0001EE02D4890F82502022818D12A4890F8BF
:1022F0002602112813D12B480BF04AF9B0EE408A80
:10230000F0EE608A51EC180B0AF052FD264909786C
:1023100001EB8101254A02EB8111486100E000BF19
:1023200000BF00202249087020211E48C01F0AF06B
:1023300072FBBDEC028B70BD10B5044621461D48F2
:1023400007F0C1FE01211B4807F09CFE10BD70B5CF
:102350002DED028B0024EE222146641C16484254C7
:10236000B1222146641C425410222146641C42546E
:1023700000222146641C42542146641C42542146DA
:10238000641C425405222146641C4254102215E06C
:102390000F000020901A0020451700200E0000209A
:1023A000902100206C190020100000201C26002025
:1023B0000D000020A0600240651800202146601C2E
:1023C000C4B2FE48425400222046611CCCB2FB49F4
:1023D0000A5401222146601CC4B2F8484254FF222C
:1023E0002046611CCCB2F5490A54FC222046611CEF
:1023F000CCB2F2490A54FF222046611CCCB2EF490C
:102400000A542046611CCCB2EC490A54EC480078CE
:10241000012804D002287DD003287CD1DFE0EE2201
:102420002146601CC4B2E5484254B1222046611CDA
:10243000CCB2E2490A5412222046611CCCB2DF49D8
:102440000A5400222046611CCCB2DC490A54012205
:102450002046611CCCB2D9490A540025BBE005EBEB
:10246000C50000EB4000D74901EBC0008078002890
:102470007DD000222046611CCCB2D0490A540122F2
:102480002046611CCCB2CD490A5400222046611C72
:10249000CCB2CA490A5405EBC50000EB4000C9495B
:1024A00001EBC000B0F91820C7A1C8480BF048F8EC
:1024B000C6480AF0C7FAC2B22046611CCCB2BF4976
:1024C0000A540819C1490AF0C4FAC0480AF0BAFA15
:1024D0002044C4B200222046611CCCB2B7490A5441
:1024E00002222046611CCCB2B4490A540022204684
:1024F000611CCCB2B1490A5405EBC50000EB4000A9
:10250000B04901EBC000B0F91420AFA1AF480BF007
:1025100017F801E034E11DE2AC480AF093FAC2B2C8
:102520002046611CCCB2A5490A540819A7490AF0F3
:1025300090FAA6480AF086FA2044C4B20022204647
:10254000611CCCB29D490A5409222046611CCCB2C0
:102550009A490A5410222046611CCCB297490A5469
:1025600001222046611CCCB294490A5400E031E0BB
:1025700005EBC50000EB4000924901EBC00042783A
:102580002046611CCCB28D490A5400222046611CB1
:10259000CCB28A490A540A222046611CCCB287492F
:1025A0000A5410222046611CCCB284490A540122EC
:1025B0002046611CCCB281490A5405EBC50000EBF2
:1025C0004000804901EBC00042782046611CCCB23B
:1025D0007A490A546D1C042DFFF641AFBBE1EE228F
:1025E0002046611CCCB275490A54B1222046611CB8
:1025F000CCB272490A5412222046611CCCB26F49F7
:102600000A5400222046611CCCB26C490A540322B1
:102610002046611CCCB269490A540025ACE005EBA8
:1026200045106B4911F8200000287DD0002220467B
:10263000611CCCB261490A5401222046611CCCB213
:102640005E490A5400222046611CCCB25B490A5400
:1026500005EB45105E4901EB8000026A5AA15B4818
:102660000AF06EFF59480AF0EDF9C2B22046611C2B
:10267000CCB252490A54081954490AF0EAF95348AD
:102680000AF0E0F92044C4B200222046611CCCB21A
:102690004A490A5402222046611CCCB247490A54D6
:1026A00000222046611CCCB244490A5405EB451077
:1026B000474901EB8000B0F91C2043A143480AF0D0
:1026C0003FFF42480AF0BEF9C2B22046611CCCB2BC
:1026D0003A490A5408193D490AF0BBF93B480AF047
:1026E000B1F92044C4B200222046611CCCB2334967
:1026F0000A5409222046611CCCB230490A541022E7
:102700002046611CCCB22D490A5401222046611C8E
:10271000CCB22A490A5405EB45102D4901EB800043
:1027200042782046611C00E025E0CCB223490A54DF
:1027300000222046611CCCB220490A540A222046BD
:10274000611CCCB21D490A5410222046611CCCB237
:102750001A490A5401222046611CCCB217490A5476
:1027600005EB45101A4901EB800042782046611CB8
:10277000CCB212490A546D1C042DFFF650AFEAE0AA
:10278000EE222046611CCCB20C490A54B1222046EC
:10279000611CCCB209490A5412222046611CCCB2F9
:1027A00006490A5400222046611CCCB203490A544F
:1027B00002222046611CCCB200490BE065180020C3
:1027C0000C000020901A002025640000081A002048
:1027D000902100200A540025B8E005EB85006149EE
:1027E00001EB8010C07800287ED000222046611CBA
:1027F000CCB25D490A5401222046611CCCB25A4930
:102800000A5400222046611CCCB257490A5405EBF9
:102810008500544901EB8010C269AFF2540153485E
:102820000AF08EFE51480AF00DF9C2B22046611C32
:10283000CCB24D490A5448194C490AF00AF94B48A0
:102840000AF000F92044C4B200222046611CCCB238
:1028500045490A5402222146601CC4B242484254EF
:1028600000222046611CCCB23F490A5405EB85008A
:102870003C4A02EB801090ED080A10EE101A084650
:102880000AF0CEFA41EC180B53EC182BAFF2C8014A
:1028900036480AF055FE35480AF0D4F8C2B2204650
:1028A000611CCCB230490A54481930490AF0D1F8B9
:1028B0002E480AF0C7F82044C4B200222046611C0A
:1028C000CCB229490A5409222146601CC4B22648C8
:1028D000425410222046611CCCB223490A540122E2
:1028E0002146601CC4B200E02FE01F48425405EBB3
:1028F00085001C4901EB801042782046611CCCB257
:1029000019490A5400222046611CCCB216490A54C7
:1029100009222146601CC4B21348425410222046AA
:10292000611CCCB210490A5401222046611CCCB271
:102930000D490A5405EB85000A4901EB80104278E5
:102940002146601CC4B2084842546D1C042DFFF699
:1029500044AF00E000BF00BF2046FFF7EDFCBDEC38
:10296000028B70BD1C26002065180020081A00206C
:1029700000B597B00121042005F0E4FA0121880494
:1029800005F013FB0121480505F0DCFA07220A21B6
:10299000624806F060FB07220B21604806F05BFBF3
:1029A0004FF44060119002208DF8480000208DF80F
:1029B0004A0003208DF8490000208DF84B0011A932
:1029C000564806F0BDFA4FF4E13013900020ADF800
:1029D0005000ADF85200ADF85400ADF858000C208E
:1029E000ADF8560013A94E4806F0B8FB012240F29C
:1029F00025514B4806F0F0FC27208DF840000420BC
:102A00008DF8410000208DF8420001208DF8430030
:102A100010A805F094F8434807F058FA4FF000600A
:102A2000019000200590402004903F4803903C48CE
:102A3000001D029000150790002006900990089054
:102A40000A904FF440300B9000200C9001200D9024
:102A500000200F900E9001A9324807F0D9FA3349AF
:102A6000304807F088FB31492E4807F0DFFB0E2085
:102A70008DF8400002208DF8410004208DF84200BE
:102A800001208DF8430010A805F059F8012210210B
:102A9000244807F084FB01228021214806F093FCA2
:102AA00017B000BD10B521491E4807F095FB01285D
:102AB0000AD11E491B4807F05EFB1C49194807F064
:102AC000B5FB00201A49087410BD70B504460D46C8
:102AD0001748007C78B92A462146134809F082FF3E
:102AE0002946104807F0EFFA01210E4807F0CAFA0C
:102AF00001200F49087470BD10B540F225510848F7
:102B000006F0A5FC40B12021054806F097FC40F2F4
:102B10002551034806F0D2FC10BD00000008024019
:102B200000480040586002408519002000800018CD
:102B30003017002010B52DED0E8B4FF40050FE49DC
:102B400008809FEDFE0B084680ED040B9FEDFD0A0B
:102B500080ED010A43F6991008814FF40050FA49BC
:102B600008809FEDFA0A084680ED010A42F22830FB
:102B700008819FEDF70B084680ED040B0020F64915
:102B800008709FEDF60A084680ED010A01200872E0
:102B90004FF4FA604881012008734FF4FA6008820C
:102BA0004FF6E040C881002088742820EC498883D3
:102BB000002048604FF47A70C8831822E249E9483F
:102BC00009F010FF0020E7497039087048708870DC
:102BD0000021E4487038C1800020E24970398880C3
:102BE0000021E048703801811422DB493C3009F0B3
:102BF000F9FEDC487038B0F90810DFEDDB1A9FED04
:102C0000DB1ADFEDDB0AB0EE0C0AB030FDF7ECFBAF
:102C1000D4487038C168F7EE001A9FEDD61ADFED80
:102C2000D60AB1EE040A8830FDF7DEFB1822C64949
:102C3000CC48D83009F0D6FE0020CA49703981F856
:102C4000D8000021C748703880F8D91080F8DA1011
:102C50006421A0F8DE100021A0F8DC104FF47A7196
:102C6000A0F8E0101422BC4900F58A7009F0BAFE01
:102C7000BC487038B0F9E010DFEDBB1A9FEDBE1A0A
:102C8000DFEDBC0AB2EE000A00F5C470FDF7ACFB44
:102C9000B4487038D0F8E410F7EE001A9FEDB61A79
:102CA000DFEDB40AB2EE000A00F5B070FDF79CFB50
:102CB0001822A549B14809F095FE0020A9497039AC
:102CC00081F8B0010021A748703880F8B11180F870
:102CD000B2116421A0F8B6110021A0F8B4114FF48C
:102CE0007A71A0F8B81114229B4900F5F67009F02A
:102CF00079FE9C487038B0F9B811DFED9B1A9FED52
:102D00009B1ADFED9B0AB0EE0C0A00F51870FDF778
:102D10006BFB94487038D0F8BC11F7EE001A9FEDA9
:102D2000951ADFED950AB1EE040A00F50E70FDF775
:102D30005BFB182284499148D83009F053FE0020EB
:102D40008849703981F8880200218648703880F8F7
:102D5000891280F88A126421A0F88E120021A0F84E
:102D60008C124FF47A71A0F8901214227A4900F56F
:102D7000317009F037FE7B487038B0F99012DFED02
:102D80007A1A9FED7D1ADFED7B0AB2EE000A00F59C
:102D90004E70FDF729FB73487038D0F89412F7EEA7
:102DA000001A9FED751ADFED730AB2EE000A00F506
:102DB0004470FDF719FB002418E104EBC40000EB9C
:102DC00040006849703901EBC00065490968016538
:102DD0006348416804EBC40000EB4000614A703A6C
:102DE00002EBC000416504EBC40101EB410102EBC1
:102DF000C10101F158000A225949083109F0F2FDD8
:102E00005748418A04EBC40000EB4000554A703A31
:102E100002EBC000A0F8621004EBC40000EB40001D
:102E2000114601EBC0004E4B59699A69DB69643069
:102E30000EC004EBC40000EB40004A4A703A02EBBB
:102E4000C00090ED1D0A10EE101A084609F0E8FFC8
:102E500041EC1A0B04EBC40101EB4101414A703A09
:102E600002EBC101B1F8700009F095FF41EC1C0BB9
:102E700004EBC40000EB40003A4A703A02EBC00099
:102E800090ED100A10EE101A084609F0C9FF41EC47
:102E90001E0B04EBC40000EB40003249703901EB1B
:102EA000C00090ED201BB0EE410AF0EE610A53EC39
:102EB000102B51EC1E0B09F07CFE53EC1C2B09F07F
:102EC00078FE53EC1A2B09F074FE9FED2D0B53EC9A
:102ED000102B09F0E0FE09F08AFF04EBC40101EBBE
:102EE0004101204A703A02EBC101086504EBC401BC
:102EF00001EB410102EBC101B1F8700009F04BFF99
:102F000041EC1A0B04EBC40000EB4000154A703A88
:102F100002EBC00090ED1D0A10EE101A084609F0F1
:102F20007FFF41EC1C0B04EBC40101EB41010D4A96
:102F3000703A02EBC10127E0601A00200000008017
:102F400087870F409A999941781A00200000104213
:102F5000000000000000F03F481A00200000E1449B
:102F6000281A0020001B0020CDCCCC3E0000000021
:102F70008FC2F53DCDCC4C3E9A99993EB01C0020B5
:102F80000000000000807640B1F9040009F0F2FE74
:102F900041EC1E0B04EBC40000EB4000FE4901EBCA
:102FA000C00090ED201BB0EE410AF0EE610A53EC38
:102FB000102B51EC1E0B09F0FCFD53EC1C2B09F0FF
:102FC000F8FD53EC1A2B09F0F4FD1FED130B53EC35
:102FD000102B09F060FE09F0EBFE04EBC40101EBDD
:102FE0004101ED4A02EBC101C860641C082CFFF6E8
:102FF000E4AE0020E949C870887048700871087014
:1030000000BF0BE04FF4FA6200EBC00101EB41019D
:10301000E14B03EBC101A1F84620401C0828F1DB7D
:10302000BDEC0E8B10BD10B5044604EBC40000EBE4
:103030004000D94901EBC000D0ED260A04EBC400E2
:1030400000EB400001EBC000B0F9080000EE100AF0
:10305000B8EEC00A20EE800ABDEEC00A10EE100ADB
:1030600004EBC40101EB4101CB4A02EBC101C1F801
:10307000B00004EBC40000EB4000114601EBC000BF
:10308000B0F9181004EBC40000EB400002EBC000E4
:10309000C0F8C81004EBC40101EB410102EBC1010F
:1030A00001F1B000FDF7B9F904EBC40000EB4000FA
:1030B000B94901EBC000C18804EBC40000EB40003B
:1030C000B54A02EBC000D0F8C400084401B204EBDA
:1030D000C40000EB400002EBC000C18010BD002224
:1030E00039210A54C26100218182704710B504461B
:1030F00004EBC40000EB4000A74901EBC000B0F9AD
:103100004A0004EBC40101EB4101A34A02EBC101F7
:10311000C1F8B00004EBC40000EB4000114601EB25
:10312000C000B0F9181004EBC40000EB400002EB43
:10313000C000C0F8C81004EBC40101EB410102EB70
:10314000C10101F1B000FDF768F904EBC40000EB28
:103150004000914901EBC000C18804EBC40000EBC2
:1031600040008D4A02EBC000D0F8C400084401B210
:1031700004EBC40000EB400002EBC000C18004EB94
:10318000C40000EB4000114601EBC000B0F858004D
:1031900090BB04EBC40000EB400001EBC000C06931
:1031A000002807DD04EBC40000EB400001EBC00089
:1031B000C06908E004EBC40000EB4000764901EB75
:1031C000C000C069404240F6C411884215DD04EBDE
:1031D000C40000EB4000704901EBC000B0F8600093
:1031E000401C81B204EBC40000EB40006A4A02EBD1
:1031F000C000A0F860100AE0FFE7002104EBC40063
:1032000000EB4000644A02EBC000A0F8601004EB41
:10321000C40000EB4000604901EBC000B0F8600062
:10322000322839DD002104EBC40000EB40005A4A8B
:1032300002EBC000A0F86010002004EBC40101EB19
:10324000410102EBC1018882002104EBC40000EBC4
:10325000400002EBC000C161052004EBC40101EB9A
:10326000410102EBC1018870012104EBC40000EBB5
:10327000400002EBC00080F83510002004EBC401D0
:1032800001EB410102EBC1018880012004EBC40184
:1032900001EB410102F8310010BD10B52DED0E8B90
:1032A000044604EBC40101EB41013B4A02EBC101BE
:1032B000B1F8700009F06FFD41EC1A0B04EBC4008B
:1032C00000EB4000344A02EBC00090ED1D0A10EE06
:1032D000101A084609F0A4FD41EC1C0B04EBC401D4
:1032E00001EB41012C4A02EBC101B1F9040009F0E4
:1032F00041FD41EC1E0B04EBC40000EB40002649ED
:1033000001EBC00090ED201BB0EE410AF0EE610A27
:1033100053EC102B51EC1E0B09F04BFC53EC1C2B07
:1033200009F047FC53EC1A2B09F043FC1FEDEC0BA2
:1033300053EC102B09F0AFFC09F03AFD04EBC4018B
:1033400001EB4101144A02EBC101C86004EBC40067
:1033500000EB4000114601EBC000C06804EBC40163
:1033600001EB410102EBC101C1F8880004EBC4008C
:1033700000EB4000114601EBC0004078A0B904EB1F
:10338000C40000EB400001EBC000406D04EBC40141
:1033900001EB410104E00000901A00201100002020
:1033A00002EBC101C1F8880004EBC40000EB40004F
:1033B000FE4901EBC000C16904EBC40000EB400012
:1033C000FA4A02EBC000C0F8A01004EBC40101EB04
:1033D000410102EBC10101F18800FDF71EF804EB89
:1033E000C40000EB4000F14901EBC000D0ED260A1B
:1033F00004EBC40000EB400001EBC000D0F89C00DF
:1034000000EE100AB8EEC00A20EE800ABDEEC00A37
:1034100010EE100A04EBC40101EB4101E34A02EB98
:10342000C101C1F8B00004EBC40000EB400011463C
:1034300001EBC00090F84400A8B304EBC40000EB1B
:10344000400001EBC000D0F8B000002808DD04EB1C
:10345000C40000EB400001EBC000D0F8B00009E070
:1034600004EBC40000EB4000D04901EBC000D0F8F1
:10347000B000404204EBC40101EB4101CB4A02EB36
:10348000C101B1F84610884221DD04EBC40000EB15
:103490004000114601EBC000D0F8B000002803DA6C
:1034A0004FF0FF3001E012E0012004EBC40101EB1A
:1034B0004101BE4A02EBC101B1F84610484304EB9A
:1034C000C40101EB410102EBC101C1F8B00004EB02
:1034D000C40000EB4000B54901EBC000B0F9181082
:1034E00004EBC40000EB4000B04A02EBC000C0F89F
:1034F000C81004EBC40101EB410102EBC10101F171
:10350000B000FCF78AFF04EBC40000EB4000A749C1
:1035100001EBC000C18804EBC40000EB4000A34AEB
:1035200002EBC000D0F8C400084401B204EBC400B0
:1035300000EB400002EBC000C18004EBC40000EBD4
:103540004000114601EBC000C06D002807DD04EB10
:10355000C40000EB400001EBC000C06D08E004EBCC
:10356000C40000EB4000914901EBC000C06D404237
:10357000B4280ADA012004EBC40101EB41018B4AB3
:1035800002EBC10181F8340009E0002004EBC40122
:1035900001EB4101854A02EBC10181F83400BDEC29
:1035A0000E8B10BD70B52DED088B044604EBC400E6
:1035B00000EB40007D4901EBC000018C04EBC4002E
:1035C00000EB4000794A02EBC000008E081A01B2FD
:1035D00004EBC40000EB400002EBC000A0F8581060
:1035E00004EBC40000EB4000114601EBC000808AF0
:1035F00004EBC40101EB410102EBC101888404EB3F
:10360000C40000EB4000114601EBC000C18A04EB8E
:10361000C40000EB400002EBC000C18404EBC40016
:1036200000EB4000114601EBC000018B04EBC4002D
:1036300000EB400002EBC000018504EBC40000EB8E
:103640004000114601EBC000C16904EBC40000EB6F
:10365000400002EBC000C16204EBC40000EB40007C
:10366000114601EBC000018C04EBC40000EB4000EC
:1036700002EBC000018604EBC40000EB40001146E1
:1036800001EBC000418C04EBC40000EB400002EBF6
:10369000C000418604EBC40000EB4000114601EB82
:1036A000C000B0F95800002808DD04EBC40000EBAE
:1036B000400001EBC000B0F9580009E004EBC40081
:1036C00000EB4000394901EBC000B0F9580040421E
:1036D00041F2360188422CDD04EBC40000EB4000CF
:1036E000324901EBC000B0F9581004EBC40000EB04
:1036F00040002E4A02EBC000B0F95800002802DA60
:103700004FF0FF3000E0012004EBC40202EB420264
:10371000264B03EBC202B2F8702000FB121001B27C
:1037200004EBC40000EB40001A4602EBC000A0F816
:10373000581004EBC40000EB40001C4901EBC00032
:10374000C16904EBC40000EB4000184A02EBC00062
:10375000B0F95800014404EBC40000EB400002EB58
:10376000C000C16104EBC40000EB4000114601EB56
:10377000C000C16804EBC40000EB400002EBC000D5
:10378000C069091A04EBC40000EB400002EBC00062
:10379000C16504EBC40101EB410102EBC101B1F8C9
:1037A000700009F0F8FA41EC190B01E0901A0020C2
:1037B00004EBC40000EB4000C14901EBC000C0694C
:1037C00000EE100AB8EEC00ADFEDBE0A20EE200AB5
:1037D00004EBC40000EB400001EBC000D0ED1D0A7B
:1037E00080EE201A11EE105A284609F019FB41EC20
:1037F0001B0B04EBC40000EB4000B14901EBC0001F
:1038000090ED201BB0EE410AF0EE610A53EC102B54
:1038100051EC1B0B09F03FFA53EC192B09F03BFA62
:1038200009F0C6FA00B204EBC40101EB4101A44A5D
:1038300002EBC101888204EBC40000EB400011469A
:1038400001EBC000407868B104EBC40000EB40001D
:1038500001EBC000C16904EBC40000EB400002EBC7
:10386000C000416504EBC40000EB4000944901EB4B
:10387000C00090F8390040B104EBC40101EB4101F4
:103880008F4A02EBC100FFF72AFCBDEC088B70BD2C
:1038900010B5044604EBC40000EB4000884911F861
:1038A000300001285ED104EBC40000EB400001EBC6
:1038B000C00090F84E00E8B309F06EF8824951F864
:1038C0002410401A40F2DC51884214D304EBC400A7
:1038D00000EB40007A4901EBC00090F86400401C06
:1038E000C1B204EBC40000EB4000754A02EBC0001B
:1038F00080F8641009E0002104EBC40000EB4000F4
:103900006F4A02EBC00080F8641004EBC40000EBC7
:1039100040006B4901EBC00090F8641004EBC40058
:1039200000EB4000664A02EBC000B0F86C0000EB10
:10393000800000E016E04000814209DD012104EB37
:10394000C40000EB400002EBC00080F8371009E033
:10395000002104EBC40000EB4000594A02EBC00018
:1039600080F8371010BD2DE9F04186B004460D46B1
:1039700016461F464FF0000800208DF80C008DF809
:103980000D0008208DF80E004FF40078CDF804806B
:103990004B480078012805D1200A8DF80F008DF8DA
:1039A000104005E000208DF80F0000218DF8101068
:1039B000434890F8D800012805D1290A8DF8111044
:1039C0008DF8125004E000218DF811108DF81210BE
:1039D0003B4890F8B001012805D1310A8DF8131049
:1039E0008DF8146004E000218DF813108DF8141088
:1039F000334890F88802012805D1390A8DF815104E
:103A00008DF8167004E000218DF815108DF8161051
:103A100001A92E4805F0F4FE06B0BDE8F0810020B3
:103A20004BE000EBC00101EB4101254A02EBC10173
:103A3000B1F90610002908DD00EBC00101EB4101DE
:103A400002EBC101B1F9061009E000EBC00101EB86
:103A500041011B4A02EBC101B1F90610494200EBDA
:103A6000C00202EB4202164B03EBC202B2F878200E
:103A7000914220DD00EBC00101EB41011A4602EB4F
:103A8000C101B1F90610002902DA4FF0FF3100E060
:103A9000012100EBC00202EB4202094B03EBC20220
:103AA000B2F8782051430AB200EBC00101EB4101AA
:103AB00003EBC101CA80411CC8B20828B1DB7047C2
:103AC000901A00200000B443D01600200068004087
:103AD00010B54FF48050FE490880B1EE040A084644
:103AE00080ED010AB7EE000A80ED020A4FF47A7009
:103AF000F84908809FEDF80A084680ED010A002089
:103B0000F64908709FEDF60A084680ED010A01208B
:103B100008724FF448704881012008734FF4FA701E
:103B2000C881C0000882C010EE490882EE48E94B07
:103B30000ECB78300EC00020EB498870487005200D
:103B40000870002088806421E7488160C1800021DE
:103B5000C1608430DE4B0ECB78300EC00021E248CD
:103B600080F8861080F885100520DF4981F88400F0
:103B70004FF49671DC48A0F888106421C0F88C10CE
:103B8000A0F88A100021C0F8901000F58470D04B86
:103B90000ECB78300EC00021D34880F80A1180F88F
:103BA00009110520D04981F808014FF49671CE48DB
:103BB000A0F80C116421C0F81011A0F80E1100211A
:103BC000C0F8141100F5C670C14BD3E900219B6801
:103BD000C0E91F1382670021C34880F88E1180F866
:103BE0008D110520C04981F88C014FF49671BE48B3
:103BF000A0F890116421C0F89411A0F8921100214E
:103C0000C0F8981100F50470B14BD3E900219B680E
:103C1000C0E91F1382670021B34880F81212052003
:103C2000B14981F810024FF49671AF48A0F8141210
:103C30006421C0F81812A0F816120021C0F81C1256
:103C400000F52570A24B0ECB78300EC00021A6489F
:103C500080F8961280F895120520A34981F8940205
:103C60004FF49671A048A0F898126421C0F89C12F5
:103C7000A0F89A120021C0F8A01200F54670944BEB
:103C80000ECB78300EC00021974880F81A1380F8C8
:103C900019130520944981F818034FF4967192483E
:103CA000A0F81C136421C0F82013A0F81E130021F3
:103CB000C0F8241300F56770854B0ECB78300EC02A
:103CC0000021894880F89E1380F89D1305208649BD
:103CD00081F89C034FF496718348A0F8A0136421E7
:103CE000C0F8A413A0F8A2130021C0F8A813002460
:103CF0002AE004EB44117C4A02EB810101F15000FF
:103D00001422764908F06EFE04EB4410764901EB6C
:103D1000800074490A6842668988A0F86810714872
:103D2000C18804EB4410704A02EB8000A0F86A10CE
:103D300004EB4410114601EB80006A4B9968DA6885
:103D40001B696C300EC0641C082CD2DB10BD10B592
:103D500086B00446002001908DF80D008DF80C000F
:103D600008208DF80E0001208DF80F0000218DF83D
:103D700010108DF811108DF812108DF813108DF8A9
:103D800014108DF815108DF8161001A9204605F0B5
:103D900037FD06B010BD70B504460D46164604F555
:103DA000407052494A88091D01EB02110860082140
:103DB0004E484288001D00EB0210017155214B480E
:103DC0004288001D00EB021041714D214748428896
:103DD000001D00EB02108171002144484288001D43
:103DE00000EB0210C17141484288001D00EB021037
:103DF00001723E484188001D00EB01104572002110
:103E00003A484288001D00EB021081723748428810
:103E1000001D00EB0210C17234484288001D00EB07
:103E20000210017331484088401C322190FBF1F2AE
:103E300001FB12002D4948800121601E00EB40105B
:103E4000294A02EB800080F8761008F0A5FD611E7B
:103E500001EB4111244A02EB8101086770BD70B586
:103E600004460D4604F5407020494A88091D01EBBF
:103E70000211086004211D484288001D00EB021059
:103E80000171532119484288001D00EB0210417155
:103E9000562116484288001D00EB02108171002156
:103EA00012484288001D00EB0210C1710F48428881
:103EB000001D00EB021001720C484188001D00EB50
:103EC0000110457309484088401C322110E0000071
:103ED000502100205C210020E43896416821002018
:103EE000000034447C210020902100202075002017
:103EF00090FBF1F201FB1200FE4948800121601E97
:103F000000EB4010FC4A02EB800080F8761008F0CD
:103F100043FD611E01EB4111F74A02EB8101086785
:103F200070BD70B504460D46164604F54070F14963
:103F30004A88091D01EB021108600821ED484288FA
:103F4000001D00EB021001714121EA484288001D6A
:103F500000EB021041714321E6484288001D00EB4E
:103F6000021081710021E3484288001D00EB02101D
:103F7000C171E0484288001D00EB02100172DD486B
:103F80004188001D00EB0110C0F80950D948418854
:103F9000001D00EB01104673D6484088401C3221BA
:103FA00090FBF1F201FB1200D24948800121601E12
:103FB00000EB4010D04A02EB800080F8761008F049
:103FC000EBFC611E01EB4111CB4A02EB810108675A
:103FD00070BD70B504460D46164604F54070C549DF
:103FE0004A88091D01EB021108600821C148428876
:103FF000001D00EB021001714421BE484288001DE3
:1040000000EB021041714321BA484288001D00EBC9
:10401000021081710021B7484288001D00EB021098
:10402000C171B4484288001D00EB02100172B14812
:104030004188001D00EB0110C0F80950AD484188CF
:10404000001D00EB01104673AA484088401C322135
:1040500090FBF1F201FB1200A64948800121601E8D
:1040600000EB4010A44A02EB800080F8761008F0C4
:1040700093FC611E01EB41119F4A02EB810108672D
:1040800070BD70B504460D46164604F5407099495A
:104090004A88091D01EB02110860082195484288F1
:1040A000001D00EB021001714D2192484288001D55
:1040B00000EB021041714F218E484288001D00EB39
:1040C0000210817100218B484288001D00EB021014
:1040D000C17188484288001D00EB021001728548BA
:1040E0004188001D00EB0110457200218148428883
:1040F000001D00EB021081727E484288001D00EB1B
:104100000210C1727B484288001D00EB021001734F
:1041100078484188001D00EB0110467375484088BF
:10412000401C322190FBF1F201FB120071494880E2
:104130000121601E00EB40106F4A02EB800080F806
:10414000761008F029FC611E01EB41116A4A02EB6E
:104150008101086770BD70B504460D4604F54070D6
:1041600064494A88091D01EB021108600421614875
:104170004288001D00EB0210017142215D48428817
:10418000001D00EB0210417147215A484288001D72
:1041900000EB02108171002156484288001D00EB9F
:1041A0000210C17153484288001D00EB02100172D9
:1041B00050484188001D00EB011045734D48408870
:1041C000401C322190FBF1F201FB1200494948806A
:1041D0000121601E00EB4010474A02EB800080F88E
:1041E000761008F0D9FB611E01EB4111424A02EB47
:1041F0008101086770BD70B504460D4604F5407036
:104200003C494A88091D01EB021108600421394824
:104210004288001D00EB021001715321354842888D
:10422000001D00EB02104171542132484288001DEC
:1042300000EB0210817100212E484288001D00EB26
:104240000210C1712B484288001D00EB0210017260
:1042500028484188001D00EB01104573254840881F
:10426000401C322190FBF1F201FB120021494880F1
:104270000121601E00EB40101F4A02EB800080F815
:10428000761008F089FB611E01EB41111A4A02EB1E
:104290008101086770BD2DE9F04104460D461646C0
:1042A000601E00EB4010144901EB8000B0F878006C
:1042B000800068433C2190FBF1F704F540700D4904
:1042C0004A88091D01EB021108600821094842884B
:1042D000001D00EB02100171532106484288001DA9
:1042E00000EB02104171502102484288001D00EB92
:1042F000021003E020750020902100208171002130
:10430000FE484288001D00EB0210C171FB48428844
:10431000001D00EB02100172F8484188001D00EBFF
:104320000110C0F80970F5484188001D00EB01102C
:104330004673F2484088401C322190FBF1F201FBA9
:104340001200EE4948800121601E00EB4010EC4A4B
:1043500002EB800080F8761008F01EFB611E01EB76
:104360004111E74A02EB81010867BDE8F0812DE9C0
:10437000F04104460D461646601E00EB4010E04931
:1043800001EB8000B0F878008000684300EE100A6E
:10439000B8EEC00A601E00EB401001EB8000D0EDCB
:1043A0001F0A20EE200A601E00EB401001EB800087
:1043B000D0ED200A20EE200ADFEDD20A80EE201A8E
:1043C000BDEEC10A10EE107A04F54070CB494A8860
:1043D000091D01EB021108600821C8484288001D30
:1043E00000EB021001715021C4484288001D00EB0F
:1043F000021041714121C1484288001D00EB0210AA
:1044000081710021BD484288001D00EB0210C1717E
:10441000BA484288001D00EB02100172B74841887B
:10442000001D00EB0110C0F80970B4484188001D60
:1044300000EB01104673B1484088401C322190FBCC
:10444000F1F201FB1200AD4948800121601E00EB32
:104450004010AB4A02EB800080F8761008F09CFA1E
:10446000611E01EB4111A64A02EB81010867BDE81C
:10447000F0812DE9F04104460D461646601E00EB22
:1044800040109F4901EB8000B0F87800800068433D
:1044900000EE100AB8EEC00A601E00EB401001EBFF
:1044A0008000D0ED1F0A20EE200ADFED960A80EE94
:1044B000201ABDEEC10A10EE107A04F540708F4943
:1044C0004A88091D01EB0211086008218B484288C7
:1044D000001D00EB02100171502188484288001D28
:1044E00000EB02104171522184484288001D00EB0C
:1044F00002108171002181484288001D00EB0210EA
:10450000C1717E484288001D00EB021001727B4899
:104510004188001D00EB0110C0F809707748418800
:10452000001D00EB0110467374484088401C322186
:1045300090FBF1F201FB1200704948800121601EDE
:1045400000EB40106E4A02EB800080F8761008F015
:1045500023FA611E01EB4111694A02EB81010867F0
:10456000BDE8F08170B504460D461646002163484B
:104570004288001D00EB0210016008215F4842885C
:10458000001D00EB0210017150215C484288001DA3
:1045900000EB02104171582158484288001D00EB81
:1045A00002108171002155484288001D00EB021065
:1045B000C17152484288001D00EB021001724F4841
:1045C0004188001D00EB0110C0F809504B4841889C
:1045D000001D00EB0110467348484088401C322102
:1045E00090FBF1F201FB1200444948800121601E5A
:1045F00000EB4010424A02EB800080F8761008F091
:10460000CBF9611E01EB41113D4A02EB81010867C4
:1046100070BD2DE9F04104460F461546601E00EBC3
:104620004010374901EB8000B0F8780004EB4411EA
:10463000334A02EB81018968484300EE100AB8EE64
:10464000C00ADFED310A80EE201ABDEEC10A10EE7D
:10465000106A04F5407029494A88091D01EB0211CE
:104660000860082125484288001D00EB02100171F6
:104670004A2122484288001D00EB02104171562158
:104680001E484288001D00EB0210817100211B486A
:104690004288001D00EB0210C17118484288001DBD
:1046A00000EB0210017215484188001D00EB01105B
:1046B000C0F8096011484188001D00EB01104573E6
:1046C0000E484088401C322190FBF1F201FB1200A1
:1046D0000A4948800121601E00EB4010084A02EBA5
:1046E000800080F8761008F057F9611E01EB411147
:1046F000034A02EB81010867BDE8F08120750020C4
:10470000902100200000B4430000704270B50446C0
:104710000D46164604F54070FE494A88091D01EB16
:10472000021108600821FB484288001D00EB0210BE
:1047300001715421F7484288001D00EB02104171BD
:104740004321F4484288001D00EB021081710021D2
:10475000F0484288001D00EB0210C171ED4842880C
:10476000001D00EB02100172EA484188001D00EBB9
:104770000110C0F80950E7484188001D00EB011006
:104780004673E4484088401C322190FBF1F201FB63
:104790001200E04948800121601E00EB4010DE4A13
:1047A00002EB800080F8761008F0F6F8611E01EB4D
:1047B0004111D94A02EB8101086770BD70B504460A
:1047C0000D46164604F54070D2494A88091D01EB92
:1047D000021108600821CF484288001D00EB02103A
:1047E00001715221CB484288001D00EB021041713B
:1047F0004D21C8484288001D00EB02108171002144
:10480000C4484288001D00EB0210C171C1484288B3
:10481000001D00EB02100172BE484188001D00EB34
:104820000110C0F80950BB484188001D00EB011081
:104830004673B8484088401C322190FBF1F201FBDE
:104840001200B44948800121601E00EB4010B24ABA
:1048500002EB800080F8761008F09EF8611E01EBF4
:104860004111AD4A02EB8101086770BD70B5044685
:104870000D46164604F54070A6494A88091D01EB0D
:10488000021108600821A3484288001D00EB0210B5
:10489000017150219F484288001D00EB02104171B8
:1048A00056219C484288001D00EB021081710021B6
:1048B00098484288001D00EB0210C171954842885B
:1048C000001D00EB0210017292484188001D00EBB0
:1048D0000110457200218F484288001D00EB021034
:1048E00081728C484288001D00EB0210C172894819
:1048F0004288001D00EB0210017386484188001DAC
:1049000000EB0110467383484088401C322190FB25
:10491000F1F201FB12007F4948800121601E00EB8B
:1049200040107D4A02EB800080F8761008F034F8E1
:10493000611E01EB4111784A02EB8101086770BDED
:104940002DE9F04104460D4616461F4604F5407019
:1049500070494A88091D01EB0211086008216D4861
:104960004288001D00EB021001714D216948428808
:10497000001D00EB02104171502166484288001D65
:1049800000EB0210817163484188001D00EB0110AB
:10499000C57100215F484288001D00EB02100172C2
:1049A0005C484188001D00EB0110C0F809605948BF
:1049B0004188001D00EB0110477356484088401C99
:1049C000322190FBF1F201FB120052494880012193
:1049D000601E00EB4010504A02EB800080F8761019
:1049E00007F0DAFF611E01EB41114B4A02EB810136
:1049F0000867BDE8F0812DE9F04104460D461646F2
:104A00001F4604F5407043494A88091D01EB021115
:104A1000086008213F484288001D00EB0210017128
:104A200051213C484288001D00EB02104171502189
:104A300038484288001D00EB0210817135484188DA
:104A4000001D00EB0110C571002132484288001D95
:104A500000EB021001722F484188001D00EB01108D
:104A6000C0F809602B484188001D00EB0110477316
:104A700028484088401C322190FBF1F201FB1200D3
:104A8000244948800121601E00EB4010224A02EBBD
:104A9000800080F8761007F07FFF611E01EB411166
:104AA0001D4A02EB81010867BDE8F0812DE9F04164
:104AB00004460D4616461F4604F5407015494A88BF
:104AC000091D01EB02110860082112484288001DEF
:104AD00000EB0210017151210E484288001D00EBCD
:104AE0000210417154210B484288001D00EB021056
:104AF000817108484188001D00EB0110C57100213B
:104B000004484288001D00EB0210017201484188F0
:104B1000001D03E0207500209021002000EB011013
:104B2000C0F80960FE484188001D00EB0110477382
:104B3000FB484088401C322190FBF1F201FB12003F
:104B4000F74948800121601E00EB4010F54A02EB56
:104B5000800080F8761007F01FFF611E01EB411105
:104B6000F04A02EB81010867BDE8F0812DE9F041D0
:104B700004460D4616461F4604F54070E8494A882B
:104B8000091D01EB021108600821E5484288001D5B
:104B900000EB021001715121E1484288001D00EB39
:104BA000021041715621DE484288001D00EB0210C0
:104BB0008171DB484188001D00EB0110C5710021A7
:104BC000D7484288001D00EB02100172D44841888A
:104BD000001D00EB0110C0F80960D1484188001D9C
:104BE00000EB01104773CE484088401C322190FBF7
:104BF000F1F201FB1200CA4948800121601E00EB5E
:104C00004010C84A02EB800080F8761007F0C4FE1E
:104C1000611E01EB4111C34A02EB81010867BDE847
:104C2000F08170B504460D46164604F54070BC4947
:104C30004A88091D01EB021108600821B848428822
:104C4000001D00EB021001715021B5484288001D83
:104C500000EB021041715421B1484288001D00EB65
:104C6000021081710021AE484288001D00EB021045
:104C7000C171AB484288001D00EB02100172A848C8
:104C80004188001D00EB011045720021A4484288B4
:104C9000001D00EB02108172A1484288001D00EB4C
:104CA0000210C1729E484288001D00EB0210017381
:104CB0009B484188001D00EB0110467398484088CE
:104CC000401C322190FBF1F201FB12009449488014
:104CD0000121601E00EB4010924A02EB800080F838
:104CE000761007F059FE611E01EB41118D4A02EB6F
:104CF0008101086770BD70B504460D4604F540702B
:104D000087494A88091D01EB021108600421844883
:104D10004288001D00EB0210017156218048428834
:104D2000001D00EB0210417158217D484288001D92
:104D300000EB02108171002179484288001D00EBD0
:104D40000210C17176484288001D00EB021001720A
:104D500073484188001D00EB01104573704840887E
:104D6000401C322190FBF1F201FB12006C4948809B
:104D70000121601E00EB40106A4A02EB800080F8BF
:104D8000761007F009FE611E01EB4111654A02EB46
:104D90008101086770BD70B504460D4604F540708A
:104DA0005F494A88091D01EB0211086004215C4833
:104DB0004288001D00EB02100171492158484288C9
:104DC000001D00EB02104171512155484288001D21
:104DD00000EB02108171002151484288001D00EB58
:104DE0000210C1714E484288001D00EB0210017292
:104DF0004B484188001D00EB01104573484840882E
:104E0000401C322190FBF1F201FB12004449488022
:104E10000121601E00EB4010424A02EB800080F846
:104E2000761007F0B9FD611E01EB41113D4A02EB1E
:104E30008101086770BD70B504460D4600213848F1
:104E40004288001D00EB02100160042134484288B2
:104E5000001D00EB02100171502131484288001DF5
:104E600000EB0210417141212D484288001D00EBEA
:104E70000210817100212A484288001D00EB0210B7
:104E8000C17127484288001D00EB021001722448BE
:104E90004188001D00EB0110457321484088401CEB
:104EA000322190FBF1F201FB12001D4948800121E3
:104EB000601E00EB40101B4A02EB800080F8761069
:104EC00007F06AFD611E01EB4111164A02EB8101F8
:104ED000086770BD70B504460D4604F54070104972
:104EE0004A88091D01EB0211086004210C48428820
:104EF000001D00EB02100171412109484288001D8C
:104F000000EB02104171432105484288001D00EB6F
:104F100002108171002102484288001D04E0000057
:104F2000207500209021002000EB0210C171FE4886
:104F30004288001D00EB02100172FB484188001DF1
:104F400000EB01104573F8484088401C322190FB6B
:104F5000F1F201FB1200F44948800121601E00EBD0
:104F60004010F24A02EB800080F8761007F014FD42
:104F7000611E01EB4111ED4A02EB8101086770BD32
:104F800070B504460D4604F54070E7494A88091D8E
:104F900001EB021108600421E3484288001D00EB88
:104FA000021001714421E0484288001D00EB02100C
:104FB00041714321DC484288001D00EB02108171E1
:104FC0000021D9484288001D00EB0210C171D6486B
:104FD0004288001D00EB02100172D3484188001D79
:104FE00000EB01104573D0484088401C322190FBF3
:104FF000F1F201FB1200CC4948800121601E00EB58
:105000004010CA4A02EB800080F8761007F0C4FC1A
:10501000611E01EB4111C54A02EB8101086770BDB9
:1050200070B504460D4604F54070BF494A88091D15
:1050300001EB021108600421BB484288001D00EB0F
:10504000021001715021B8484288001D00EB021087
:1050500041715821B4484288001D00EB0210817153
:105060000021B1484288001D00EB0210C171AE481A
:105070004288001D00EB02100172AB484188001D00
:1050800000EB01104573A8484088401C322190FB7A
:10509000F1F201FB1200A44948800121601E00EBDF
:1050A0004010A24A02EB800080F8761007F074FCF2
:1050B000611E01EB41119D4A02EB8101086770BD41
:1050C00070B504460D4604F5407097494A88091D9D
:1050D00001EB02110860042193484288001D00EB97
:1050E00002100171532190484288001D00EB02100C
:1050F000417150218C484288001D00EB02108171E3
:10510000002189484288001D00EB0210C1718648C9
:105110004288001D00EB0210017283484188001D87
:1051200000EB0110457380484088401C322190FB01
:10513000F1F201FB12007C4948800121601E00EB66
:1051400040107A4A02EB800080F8761007F024FCC9
:10515000611E01EB4111754A02EB8101086770BDC8
:1051600070B504460D4604F540706F494A88091D24
:1051700001EB0211086004216B484288001D00EB1E
:10518000021001714D2168484288001D00EB021099
:1051900041714F2164484288001D00EB021081716B
:1051A000002161484288001D00EB0210C1715E4879
:1051B0004288001D00EB021001725B484188001D0F
:1051C00000EB0110457358484088401C322190FB89
:1051D000F1F201FB1200544948800121601E00EBEE
:1051E0004010524A02EB800080F8761007F0D4FBA2
:1051F000611E01EB41114D4A02EB8101086770BD50
:1052000070B504460D4604F5407047494A88091DAB
:1052100001EB02110860042143484288001D00EBA5
:1052200002100171552140484288001D00EB021018
:1052300041714D213C484288001D00EB02108171F4
:10524000002139484288001D00EB0210C171364828
:105250004288001D00EB0210017233484188001D96
:1052600000EB0110457330484088401C322190FB10
:10527000F1F201FB12002C4948800121601E00EB75
:1052800040102A4A02EB800080F8761007F084FB79
:10529000611E01EB4111254A02EB8101086770BDD7
:1052A00010B504462248407940B1002221480178D7
:1052B0002046FEF770FD00201D4948711C484078CB
:1052C00040B100221C4801782046FEF7DAFE00209B
:1052D000174948701648007830B100212046FEF783
:1052E0003AFF0020124908701148807940B11348F4
:1052F000017800222046FFF78CF900200C498871C4
:105300000B48807840B100220D4801682046FFF725
:105310002EF80020064988700548C078C8B10022E0
:105320000848016820460FE02075002090210020E9
:10533000B02500201C0000201D00002024000020BB
:105340002000002018000020FEF7A5FF00201149D2
:10535000C8701048C07930B100212046FEF74BFFDD
:1053600000200C49C8710B48007930B1002120465B
:10537000FEF775FD0020074908710648007A40B124
:105380000022054801682046FFF7ECF8002001499B
:10539000087210BDB02500202800002010B507209D
:1053A000FE4908709FEDFE0A084680ED010A42F2B0
:1053B000107088600C20FB49087042F21070886001
:1053C0001520F9490870B2EE040A084680ED010A7A
:1053D0004FF47A7088600020F449087247F2305028
:1053E000C8600120087441F288304861B3EE0E0AAB
:1053F000084680ED010A0120ED498870ED48E74B31
:105400000ECB34300EC00020EB4908704870C870D5
:105410009FEDEA0A084680ED010A002181609FEDB8
:10542000E70A80ED040A41614169F7EE001A9FED39
:10543000E41ADFEDE40A9FEDE40A4430FAF7D4FF02
:10544000DD488168F7EE001AB7EE001ADFEDDF0ADB
:105450009FEDDF0A6C30FAF7C7FFDFEDDE1A9FED34
:10546000DE1ADFEDD60A9FEDDD0AD2486C38FAF776
:10547000CBFFDFEDD81A9FEDDA1ADFEDDA0A9FEDE8
:10548000D30ACC483838FAF7BFFF00244DE004EBCC
:105490008401C94A02EB811101F58E701822C349BB
:1054A00007F0A0FAC248008804EB8401C24A02EB6C
:1054B0008111A1F8FC0004EB8400114601EB80107F
:1054C000BB494988A0F8FE10B948818804EB8400E4
:1054D00002EB8010A0F80011B548C18804EB8400ED
:1054E00002EB8010A0F8021104EB8400114601EBDE
:1054F0008010FC30AE4A9168D268C0E90212AC4814
:10550000016904EB8400AC4A02EB8010C0F80C1176
:1055100004EB8400114601EB8010FC30A44B596968
:105520009A69DB6914300EC0641C042CAFDB10BD1B
:105530004121095C19B1002241210A54826270475D
:1055400030B52DED028B81B00446B0EE408A0D4699
:10555000002000909FEDA40A28EE000ABDEEC00ACC
:1055600010EE101AA14A5388121D02EB0312501DAF
:105570006A4602F091FA44F0704040F480619B4822
:105580004288001D00EB021001600098C1B29748EC
:105590004288001D00EB0210017194484188001DF3
:1055A00000EB0110457391484088401C322190FB6C
:1055B000F1F201FB12008D4948800121601E00EBD1
:1055C00080007D4A02EB801080F8101107F0E4F9AA
:1055D000611E01EB8101784A02EB8111C1F81401CF
:1055E00001B0BDEC028B30BD10B5044604EB840065
:1055F000714901EB8010D0F80C01002802DA4FF05D
:10560000FF3100E0012104EB84006B4A02EB8010C3
:10561000C069002802DA4FF0FF3000E0012081422B
:1056200005D19FED730A734880ED000A04E09FEDF9
:10563000720A704880ED000A04EB84005E4901EBB9
:105640008010D0F80C01002806DD04EB840001EB8B
:105650008010D0F80C0107E004EB8400564901EB00
:105660008010D0F80C01404200EE100AB8EEC00ADB
:105670006048D0ED000AB2EE041A60EE810AB4EE82
:10568000E00AF1EE10FA23DD04EB84004A4901EB55
:10569000801090ED080A04EB840001EB8010D0F834
:1056A0000C01002802DA4FF0FF3000E0012000EE8C
:1056B000900AF8EEE00A4F4890ED001A00EE810AD9
:1056C00004EB84003C4901EB801080ED030A1FE0ED
:1056D00004EB8400384901EB8010D0F80C0100EE97
:1056E000900AF8EEE00AB2EE041AC0EE811AB0EEAB
:1056F000610A04EB840001EB8010D0ED080A70EE23
:10570000800A04EB840001EB8010C0ED030A00BFA7
:1057100004EB8401284A02EB811101F10C0001F035
:1057200076FC04EB8401244A02EB8111D1ED030ADB
:10573000B0EE600A611CC8B20021FFF701FF10BD86
:1057400030B52DED028B81B00446B0EE408A0D4697
:10575000002000909FED290A28EE000ABDEEC00A45
:1057600010EE101A214A5388121D02EB0312501D2D
:105770006A4602F091F944F0704040F480711B4891
:105780004288001D00EB021001600098C1B217486A
:105790004288001D00EB0210017131E0C02500209D
:1057A00000007042CC250020D8250020E4250020F0
:1057B000FC2500201C2700201C26002000000000E3
:1057C000713D0A3F0AD7233F8FC275406F12833A5B
:1057D0004260E53BCDCC4C3E17B7D1398FC2F53C8A
:1057E000BD37863517B7D13800247449687B00204F
:1057F00000002A43300000200000B44200007A4438
:10580000FB484188001D00EB01104573F8484088B3
:10581000401C322190FBF1F201FB1200F449488058
:105820000121601E00EB8000F24A02EB801080F83C
:10583000101107F0B1F8611E01EB8101ED4A02EB96
:105840008111C1F8140101B0BDEC028B30BD70B5FF
:10585000044604EB8402E74B03EB8212D2F83C11BE
:1058600004EB840203EB821202F1080001F053FC06
:1058700004EB8400DF4901EB8010816804EB8400B5
:10588000DC4A02EB8010C0F8F81004EB84031546E4
:1058900005EB8313DA6904EB840305EB8313996842
:1058A00004EB840305EB831303F1C800FAF7E6FD6C
:1058B00004EB8400294601EB801090ED3A0A04EBDA
:1058C000840001EB8010D0ED4E0A20EE200A04EB9C
:1058D000840001EB801080ED010A04EB84012A466C
:1058E00002EB8111D1ED480AB0EE600A04EB8401AD
:1058F00002EB8111081D01F0F2FB04EB84012A4642
:1059000002EB8111D1ED010AB0EE600A611CC8B250
:105910000021FFF715FF70BD10B52DED048B82B08F
:10592000044604EB8400B34901EB8010D0F80C016D
:10593000002802DA4FF0FF3100E0012104EB84007F
:10594000AC4A02EB8010C069002802DA4FF0FF3049
:1059500000E00120814205D11FED5B0AA64880EDE1
:10596000000A04E01FED5C0AA34880ED000A04EB86
:105970008400A04901EB8010D0F80C01002806DD5E
:1059800004EB840001EB8010D0F80C0107E004EB7D
:105990008400984901EB8010D0F80C01404200EEE1
:1059A000100AB8EEC00A9448D0ED000AB2EE041A0C
:1059B00060EE810AB4EEE00AF1EE10FA23DD04EBAA
:1059C00084008C4901EB801090ED080A04EB840000
:1059D00001EB8010D0F80C01002802DA4FF0FF3004
:1059E00000E0012000EE900AF8EEE00A824890ED17
:1059F000001A00EE810A04EB84007E4901EB80105E
:105A000080ED030A1FE004EB84007A4901EB80106B
:105A1000D0F80C0100EE900AF8EEE00AB2EE041A9B
:105A2000C0EE811AB0EE610A04EB840001EB801035
:105A3000D0ED080A70EE800A04EB840001EB8010C0
:105A4000C0ED030A00BF04EB84016A4A02EB811136
:105A500001F10C0001F0DBFA04EB8400654901EB75
:105A6000801090ED081AF0EE410A04EB840001EB7F
:105A7000801090ED031AB0EE410A01F0B1FBB0EED8
:105A8000408A04EB84005B4901EB8010807818B1F8
:105A9000B1EE480AB0EE408A04EB8400554901EBB0
:105AA000801090ED250A20EE080A8DED010A04EB26
:105AB000840001EB801090ED260A5048D0ED000ADA
:105AC00060EE200A4E4890ED000A08EE200A80EDB4
:105AD000000A4C4890ED000A4848D0ED000A30EE2C
