:020000040800F2
:1000000008D80020F9B70008898300088B8300080E
:100010009D830008A1830008A5830008000000005C
:10002000000000000000000000000000A98300089C
:10003000AB830008000000007FDA0008E3DC000862
:1000400013B8000813B8000813B8000813B8000864
:1000500013B8000813B8000813B8000813B8000854
:1000600013B8000813B8000813B8000813B8000844
:1000700013B8000813B80008252C000813B80008AE
:1000800013B800084B08000813B8000813B800089C
:100090005517000813B8000813B8000813B8000873
:1000A00013B8000813B8000813B8000813B8000804
:1000B000E9040008C730000813B8000813B80008A6
:1000C00013B8000813B8000813B8000813B80008E4
:1000D00013B80008192E000871080008792C0008D0
:1000E00013B8000813B8000813B8000813B80008C4
:1000F00013B8000813B8000813B8000813B80008B4
:1001000013B8000813B80008391C000813B8000819
:1001100013B8000813B8000813B8000813B8000893
:1001200013B8000813B8000813B8000813B8000883
:1001300013B8000813B8000813B8000813B8000873
:10014000FF2000087322000813B8000813B8000845
:1001500013B8000813B80008F32D000813B80008FE
:1001600013B8000813B8000813B8000813B8000843
:1001700013B8000813B8000813B8000813B8000833
:1001800013B8000813B8000800F002F800F053F8A4
:100190000AA090E8000C82448344AAF10107DA45E2
:1001A00001D100F048F8AFF2090EBAE80F0013F0E1
:1001B000010F18BFFB1A43F0010318478412010016
:1001C000A4120100103A24BF78C878C1FAD85207A7
:1001D00024BF30C830C144BF04680C6070470000C1
:1001E0000023002400250026103A28BF78C1FBD840
:1001F000520728BF30C148BF0B60704764290DF01B
:100200005786002070471FB510F08DFE9DE8030053
:100210000DF092FF0EF00CFC04000020002110F005
:1002200097F8401C60600020002110F07BF8E0602F
:100230001FBD10B510BD0EF002F91146FFF7E3FF28
:1002400000F0BEF80EF07AFB03B4FFF7F2FF03BC38
:100250000EF0E8FB06E0012005F06CFE4FF47A702A
:100260000DF016FBF7E707E07149724803F032F82A
:100270004FF47A700DF00CFBF6E706E06C496D4820
:1002800003F028F802200DF003FBF7E709E007F080
:1002900036FF6948007805F0A5FF4FF47A700DF03D
:1002A000F7FAF4E716E0654A92ED2D0ABDEEC00AB2
:1002B00010EE102A11B2614A92ED2C0ABDEEC00A6E
:1002C00010EE102A10B200231A4602F010FE64202D
:1002D0000DF0DEFAE7E730E05948007807F070FEED
:1002E00032200DF0D5FA022007F06AFE32200DF020
:1002F000CFFA032007F064FE32200DF0C9FA002186
:10030000012007F088FB0021012007F019FD64207F
:100310000DF0BEFA0021022007F07DFB0021022033
:1003200007F00EFD64200DF0B3FA0021032007F062
:1003300072FB0021032007F003FDCDE703E04FF43B
:10034000FA600DF0A5FAFAE770B50446002500BF83
:100350000DF0DDFC00F0E1FD0DF070FB054607231C
:10036000384A002138480CF04DFF0923374A002154
:1003700037480CF047FF1223364A002136480CF06C
:1003800041FF0823354A002135480CF03BFF10237C
:10039000344A002134480CF035FF1223334A00213F
:1003A00033480CF02FFF1423324A002132480CF05E
:1003B00029FF05200DF0A4F928460DF043FB70BD80
:1003C00010B50BF07FF94FF4806101F007022B4B61
:1003D00018684FF6FF031840294B034343EA0220F5
:1003E000264B186000BF00F053F801F0F5FB01F058
:1003F000A5F801F0D3FC02F05DFC00F08BF902F0EF
:1004000077FB05F0CFFE02F057FF02211D4804F0F4
:10041000E3FF02F0F1FA0BF047FB05231A4A002133
:100420001A480CF0EFFE0BF066FC002010BD000037
:10043000747200200068004001000020488A0020FB
:1004400000000020CC0800203D030008CC0E002056
:10045000D7020008CC0A0020A5020008CC1E00200C
:100460008D020008CC1200207B020008CC16002070
:1004700067020008CC1A0020550200080CED00E0CD
:100480000000FA0538220020CC04002049030008AF
:100490001FB50121084609F03CFF42F6DF600290DB
:1004A0000620ADF804000020ADF80600ADF80C0001
:1004B00001A94FF080400AF0E4F81C208DF80000FC
:1004C00001208DF801008DF802008DF803006846C8
:1004D00008F001FD0122114690070AF073FD012189
:1004E00088070AF057F91FBD10B5012188070AF0E7
:1004F00080FD012875D1012180070AF08BFD0024C1
:1005000032E004EBC40000EB40007A4911F83000FF
:1005100028B304EBC40000EB400001EBC0004078BE
:10052000F0B104EBC40000EB400001EBC0008078A8
:10053000012806D0022805D004280BD005280DD1AB
:1005400004E00CE020B203F0CDFA08E020B203F0A2
:10055000FCFB04E020B203F021FB00E000BF02E05E
:1005600020B203F0F2FB641C052CCADB614CB4F929
:100570008E32B4F9B621B4F9DE10B4F9060003F0F6
:100580004AFF03F0A4FF5C495C4802F0A3FE5C480C
:10059000407A20B1022258495A4804F05AFF0024F8
:1005A000A0E004EB840000EBC400574901EB80009D
:1005B000407800287DD004EB840000EBC40001EB00
:1005C00080008078002874D004EB840000EBC40025
:1005D00011F82000012805D002281AD0052871D171
:1005E00042E086E004EB840101EBC401464A02EBE1
:1005F000810191ED020AB0EE402AE0B2DFED431A2C
:100600009FED421ADFED410A9FED400A05F04FFFD2
:1006100066E004EB840101EBC4013B4A02EB81017B
:1006200091ED020AB0EE402A04EB840101EBC40113
:1006300002EB8101B1F9301000EE101AB8EEC00AD9
:10064000F0EE401A04EB840101EBC40102EB8101DE
:1006500091ED030AF0EE400AE0B29FED2C1A9FEDF7
:100660002B0A05F024FF3BE004EB840101EBC401FD
:10067000254A02EB8101D1ED020AB0EE602A04EBBB
:10068000840101EBC40102EB8101B1F92E1000EEEF
:10069000901AF8EEE00AB0EE601A04EB840101EB68
:1006A000C40102EB8101D1ED010AB0EE600AE0B2B3
:1006B00001E016E006E0DFED151ADFED140A05F0A3
:1006C000F6FE0DE0E0B29FED112ADFED101A9FED6E
:1006D0000F1ADFED0E0A9FED0D0A05F0E8FE00BFD0
:1006E00000BF641C062CFFF65CAF0949034802F00A
:1006F000F1FD10BD487C00202C6C002000680040FB
:10070000501F002038220020488A002000000000EE
:100710009875002000B597B00121084609F0C6FD84
:100720000121480409F0F5FD0121480509F0BEFD4D
:1007300007220221FE4809F0FEFB07220321FC48A4
:1007400009F0F9FB0C20119002208DF848000020E0
:100750008DF84A0003208DF8490000208DF84B00E9
:1007600011A9F34809F05CFB4FF4E130139000202D
:10077000ADF85000ADF85200ADF85400ADF8580097
:100780000C20ADF8560013A9EA480AF06DFD0122CD
:1007900040F22551E7480AF0A5FE26208DF84000DA
:1007A00004208DF8410001208DF842008DF84300AF
:1007B00010A808F090FB0121DE480AF0DDFDDE48BC
:1007C00009F0ECF84FF00060019000200590402007
:1007D0000490DA480390D748001D02900015079056
:1007E00000200690099008900A904FF440300B903A
:1007F00000200C9001200D9000200F900E9001A978
:10080000CD4809F06DF9CE49CB4809F01CFACC4926
:10081000C94809F073FA01221021C74809F027FAE4
:1008200011208DF8400007208DF8410001208DF83F
:1008300042008DF8430010A808F04DFB01228021F2
:10084000BC480AF046FE17B000BD10B5BC49BA4816
:1008500009F02AFA01280AD1B949B74809F0F3F991
:10086000B749B54809F04AFA0020B649C87310BD27
:1008700070B52DED028B002440F22531AD480AF011
:100880006CFE50B1AB480AF0A6FD0020AE490870DE
:100890002021AE480DF00EFC31E340F22551A54871
:1008A0000AF05BFE0028F7D02021A2480AF04CFE97
:1008B00040F225519F480AF087FE9E480AF08BFDC2
:1008C000C4B2A148007800F0400008B39E48007808
:1008D00000F0800020BBFF2C06D19B48007840F040
:1008E0008000994908701BE09748007800F03F01AC
:1008F0009648445494480078401C93490870084630
:10090000007800F03F0028280ADD0020087007E08A
:10091000EE2C05D18C48007840F040008A490870E0
:100920008948007800F080000028B5D0884890F809
:100930002102012804D1864890F8230285490870D5
:10094000834890F8230230B1012805D0022879D0DD
:10095000032800D111E1C9E27D4890F8250208285A
:1009600022D17B4890F8260211281DD1784890F8B2
:100970002702302806D0312808D032280AD0332860
:1009800010D10BE00020744908700CE0012072497E
:10099000087008E002207049087004E003206E49E6
:1009A000087000E000BF00BF694890F825020928E0
:1009B00021D1674890F8260210281CD1644890F88D
:1009C000280258B1012814D16349097801EBC1010B
:1009D00001EB4101614A02F831000BE000205E4961
:1009E000097801EBC10101EB41015C4A02F83100D9
:1009F00000E000BF00BF564890F825020A2824D125
:100A0000534890F8260210281FD1514890F8280228
:100A100060B1012817D15049097801EBC10101EB00
:100A200041014E4A02EBC10148700DE000204A49E5
:100A3000097801EBC10101EB4101484A02EBC10118
:100A4000487001E07BE100BF00BF414890F82502FB
:100A5000032834D13E4890F8260211282FD13C4873
:100A600090F82702322804D034280ED0352824D11B
:100A700017E002203849097801EBC10101EB41017F
:100A8000364A02EBC101887018E004203249097827
:100A900001EBC10101EB4101304A02EBC101887059
:100AA0000CE005202C49097801EBC10101EB410163
:100AB0002A4A02EBC101887000E000BF00BF244851
:100AC00090F8250201281CD1214890F8260211280F
:100AD00017D11E48C01D0EF033FEB0EE408AF0EE76
:100AE000608A51EC180B0FF0CBFE01B21A48007867
:100AF00000EBC00000EB4000184A02EBC00001818F
:100B0000F4E1134890F82502022835D1104890F8F6
:100B10002602112830D10D48C01D0EF011FEB0EE96
:100B2000408AF0EE608A51EC180B0FF0A9FE17E036
:100B30000000024000440040A060024085200020E8
:100B400000802020501F002003000020852100206D
:100B5000651F00200200002005000020487C0020C6
:100B600000B2FE49097801EBC10101EB4101FC4AE9
:100B700002EBC1018880B9E1B8E1FA4890F825029A
:100B8000082822D1F74890F8260211281DD1F548EF
:100B900090F82702302812D0312804D0322806D00D
:100BA000332810D107E00120EF4908700CE0022043
:100BB000ED49087008E00320EB49087004E00020CC
:100BC000E949087000E000BF00BFE64890F8250240
:100BD00009281FD1E34890F8260210281AD1E148CD
:100BE00090F8280250B1012812D1DF49097801EBB1
:100BF0004111DE4A02EB810148700AE00020DA4927
:100C0000097801EB4111D94A02EB8101487000E0FB
:100C100000BF00BFD34890F825020A281FD1D14851
:100C200090F8260210281AD1CE4890F8280250B128
:100C3000012812D1CC49097801EB4111CB4A02EBD2
:100C4000810188700AE00020C749097801EB411151
:100C5000C64A02EB8101887000E000BF00BFC148B6
:100C600090F82502032825D1BE4890F826021128C5
:100C700020D1BC4890F82702322804D0342809D06B
:100C8000352815D10DE000220221B748007805F083
:100C900012FF0EE000220421B348007805F00BFF9C
:100CA00007E000220521B048007805F004FF00E0CD
:100CB00000BF00BFAB4890F8250201281CD1A9480D
:100CC00090F82602112817D1A9480EF039FDB0EE90
:100CD000408AF0EE608A51EC180B0FF001FEC5B2AD
:100CE00001222946A048007806F023FB00219E48F7
:100CF000007806F0C0F8F9E09A4890F8250202283A
:100D00001CD1984890F82602112817D198480EF067
:100D100017FDB0EE408AF0EE608A51EC180B0FF030
:100D2000AFFD0546012229468F48007806F043F9B9
:100D300000218D48007806F09EF8D7E0D6E089487B
:100D400090F82502082822D1864890F8260211281A
:100D50001DD1844890F82702302812D0312804D0C1
:100D6000322806D0332810D107E0012081490870CD
:100D70000CE002207F49087008E003207D490870DC
:100D800004E000207B49087000E000BF00BF754808
:100D900090F8250209281FD1724890F826021028E1
:100DA0001AD1704890F8280250B1012812D1714927
:100DB000097801EB8101704A02EB811108700AE0A9
:100DC00000206C49097801EB81016B4A02EB81112B
:100DD000087000E000BF00BF624890F825020A28B2
:100DE0001FD1604890F8260210281AD15D4890F86B
:100DF000280250B1012812D15E49097801EB810126
:100E00005D4A02EB811148700AE0002059490978D7
:100E100001EB8101584A02EB8111487000E000BFEC
:100E200000BF504890F82502032822D14D4890F881
:100E3000260211281DD14B4890F82702322802D0F3
:100E4000352814D109E002204A49097801EB8101D3
:100E5000494A02EB8111C8700AE00520454909782A
:100E600001EB8101444A02EB8111C87000E000BF30
:100E700000BF3C4890F82502012818D1394890F865
:100E80002602112813D13A480EF05AFCB0EE408ADF
:100E9000F0EE608A51EC180B0FF0F2FC354909783E
:100EA00001EB8101344A02EB811188601EE02D487C
:100EB00090F82502022818D12A4890F82602112815
:100EC00013D12B480EF03CFCB0EE408AF0EE608A65
:100ED00051EC180B0FF0D4FC2649097801EB810185
:100EE000254A02EB8111486100E000BF00BF0020ED
:100EF0002249087020211E48C01F0DF0DBF8BDEC10
:100F0000028B70BD10B5044621461D4808F043FE13
:100F100001211B4808F01EFE10BD70B52DED028B9F
:100F20000024EE222146641C16484254B122214678
:100F3000641C425410222146641C42540022214663
:100F4000641C42542146641C42542146641C425491
:100F500005222146641C4254102215E005000020A1
:100F6000487C0020651F0020040000208C8B00209E
:100F70008C21002006000020648300200300002054
:100F8000A0600240852000202146601CC4B2FE48BB
:100F9000425400222046611CCCB2FB490A54012273
:100FA0002146601CC4B2F8484254FF222046611C0E
:100FB000CCB2F5490A54FC222046611CCCB2F2495D
:100FC0000A54FF222046611CCCB2EF490A54204645
:100FD000611CCCB2EC490A54EC480078012804D0DA
:100FE00002287DD003287CD1DFE0EE222146601C60
:100FF000C4B2E5484254B1222046611CCCB2E24959
:101000000A5412222046611CCCB2DF490A54002245
:101010002046611CCCB2DC490A5401222046611CE6
:10102000CCB2D9490A540025BBE005EBC50000EB62
:101030004000D74901EBC000807800287DD0002215
:101040002046611CCCB2D0490A5401222046611CC2
:10105000CCB2CD490A5400222046611CCCB2CA4908
:101060000A5405EBC50000EB4000C94901EBC00084
:10107000B0F91820C7A1C8480CF0D2FEC6480CF041
:1010800077FFC2B22046611CCCB2BF490A5408198E
:10109000C1490CF049FFC0480CF06AFF2044C4B2BB
:1010A00000222046611CCCB2B7490A5402222046D5
:1010B000611CCCB2B4490A5400222046611CCCB257
:1010C000B1490A5405EBC50000EB4000B04901EB03
:1010D000C000B0F91420AFA1AF480CF0A1FE01E0B0
:1010E00034E11DE2AC480CF043FFC2B22046611C63
:1010F000CCB2A5490A540819A7490CF015FFA64817
:101100000CF036FF2044C4B200222046611CCCB251
:101110009D490A5409222046611CCCB29A490A54BE
:1011200010222046611CCCB297490A540122204665
:10113000611CCCB294490A5400E031E005EBC500D3
:1011400000EB4000924901EBC00042782046611C50
:10115000CCB28D490A5400222046611CCCB28A4987
:101160000A540A222046611CCCB287490A54102234
:101170002046611CCCB284490A5401222046611CDD
:10118000CCB281490A5405EBC50000EB4000804910
:1011900001EBC00042782046611CCCB27A490A5467
:1011A0006D1C042DFFF641AFBBE1EE222046611C11
:1011B000CCB275490A54B1222046611CCCB27249A6
:1011C0000A5412222046611CCCB26F490A540022F4
:1011D0002046611CCCB26C490A5403222046611C93
:1011E000CCB269490A540025ACE005EB45106B49C7
:1011F00011F8200000287DD000222046611CCCB2CE
:1012000061490A5401222046611CCCB25E490A544D
:1012100000222046611CCCB25B490A5405EB451004
:101220005E4901EB8000026A5AA15B480CF0F8FDB0
:1012300059480CF09DFEC2B22046611CCCB2524906
:101240000A54081954490CF06FFE53480CF090FEF4
:101250002044C4B200222046611CCCB24A490A5440
:1012600002222046611CCCB247490A540022204683
:10127000611CCCB244490A5405EB4510474901EBC7
:101280008000B0F91C2043A143480CF0C9FD42483E
:101290000CF06EFEC2B22046611CCCB23A490A5430
:1012A00008193D490CF040FE3B480CF061FE20441B
:1012B000C4B200222046611CCCB233490A54092230
:1012C0002046611CCCB230490A5410222046611CD1
:1012D000CCB22D490A5401222046611CCCB22A49C5
:1012E0000A5405EB45102D4901EB80004278204659
:1012F000611C00E025E0CCB223490A5400222046BC
:10130000611CCCB220490A540A222046611CCCB28E
:101310001D490A5410222046611CCCB21A490A54B5
:1013200001222046611CCCB217490A5405EB451036
:101330001A4901EB800042782046611CCCB2124968
:101340000A546D1C042DFFF650AFEAE0EE22204651
:10135000611CCCB20C490A54B1222046611CCCB2AB
:1013600009490A5412222046611CCCB206490A548B
:1013700000222046611CCCB203490A5402222046B6
:10138000611CCCB200490BE0852000200200002047
:10139000487C002025640000D01E00208C8B00209B
:1013A0000A540025B8E005EB8500614901EB801087
:1013B000C07800287ED000222046611CCCB25D4956
:1013C0000A5401222046611CCCB25A490A54002218
:1013D0002046611CCCB257490A5405EB850054499C
:1013E00001EB8010C269AFF2540153480CF018FDB4
:1013F00051480CF0BDFDC2B22046611CCCB24D4933
:101400000A5448194C490CF08FFD4B480CF0B0FDC4
:101410002044C4B200222046611CCCB245490A5483
:1014200002222146601CC4B2424842540022204697
:10143000611CCCB23F490A5405EB85003C4A02EBE3
:10144000801090ED080A10EE101A08460FF0FAFC12
:1014500041EC180B53EC182BAFF2C80136480CF0D6
:10146000DFFC35480CF084FDC2B22046611CCCB2D2
:1014700030490A54481930490CF056FD2E480CF0FA
:1014800077FD2044C4B200222046611CCCB2294919
:101490000A5409222146601CC4B226484254102234
:1014A0002046611CCCB223490A5401222146601C0B
:1014B000C4B200E02FE01F48425405EB85001C49F0
:1014C00001EB801042782046611CCCB219490A54C5
:1014D00000222046611CCCB216490A54092221463A
:1014E000601CC4B21348425410222046611CCCB286
:1014F00010490A5401222046611CCCB20D490A54FD
:1015000005EB85000A4901EB801042782146601CFA
:10151000C4B2084842546D1C042DFFF644AF00E0ED
:1015200000BF00BF2046FFF7EDFCBDEC028B70BD95
:101530006483002085200020D01E002000B58BB0E1
:101540000121480608F0E5FE0121084608F0AEFE3C
:1015500009220B21FE4808F0EEFC09220C21FC4870
:1015600008F0E9FC02208DF81C004FF4C0500690F2
:1015700006A9F74808F054FC00208DF826008DF8E5
:1015800027008DF828008DF829008DF82A008DF8A5
:101590002B008DF822008DF8230008208DF8240000
:1015A00003208DF82500ADF8200008A9E94807F0D0
:1015B00016FD14208DF8040003208DF8050000208E
:1015C0008DF8060001208DF8070001A807F083FCC4
:1015D00001208DF812008DF8130000208DF8140002
:1015E00046F2A000ADF8080046F2C000ADF80A00CF
:1015F00046F2E000ADF80C004FF4C240ADF80E002A
:101600000020ADF8100001208DF8150002A807F0A9
:1016100070FD02208DF8120001208DF813000020CB
:101620008DF814004FF4C840ADF8080046F22000D1
:10163000ADF80A0046F24000ADF80C0046F260003A
:10164000ADF80E000020ADF8100001208DF8150057
:1016500002A807F04EFD03208DF8120001208DF83E
:10166000130000208DF814004FF4C040ADF80800BE
:101670000020ADF80A00ADF80C00ADF80E00ADF892
:10168000100001208DF8150002A807F032FDB148C6
:1016900007F08CFC08A807F0ADFD01220221AD483F
:1016A00008F026F80BB000BD10B501F54072AA4B4A
:1016B0005C881B1D03EB04131A600423A64A54889C
:1016C000121D02EB0412137110BD70B505460E46D3
:1016D000144606F54070A1494A88091D01EB021124
:1016E000086008219D484288001D00EB021001712E
:1016F000AA7A9A494B88091D01EB0311481D05F18F
:101700000B010CF060FC217894484288001D00EB2E
:1017100002104172617891484288001D00EB02106E
:101720008172A1788D484288001D00EB0210C172C1
:10173000E1788A484288001D00EB02100173874857
:101740004088401C322190FBF1F201FB12008349DA
:10175000488070BD30B585B002217E4808F030F871
:1017600000287BD002217B4808F0C5F80221794887
:1017700008F003F86A460021764807F09EFE0098BC
:10178000C5B20098B0F5407F69D19DF80B004D2897
:101790001FD19DF80C004F281BD1002413E09DF8A9
:1017A0000F0000F0010004EB84016D4A02EB81118F
:1017B000087004EB8400114601EB8010007808B13A
:1017C00000204870641C042CE9DB29466846FFF7BA
:1017D0006BFF9DF80B0053281CD19DF80C0054287A
:1017E00018D1002410E004EB84015D4A02EB811162
:1017F000896A00EE901AF8EEE00AB0EE600AE0B2F4
:10180000002102F096FF641C042CECDB294668469C
:10181000FFF74AFF9DF80B00422813D19DF80C00FA
:1018200047280FD1002407E0012004EB84014C4A33
:1018300002EB81114870641C042CF5DB29466846D4
:10184000FFF732FF9DF80B0050281BD19DF80C00CC
:10185000582817D1681CC5B2002411E0ADE14EE054
:1018600004EB84013E4A02EB811101F128003D495D
:1018700001F09CFB3B4A29466846FFF726FF641CA3
:10188000042CEDDB9DF80B00562819D19DF80C00B7
:10189000582815D1A81CC5B200240FE004EB840120
:1018A0002F4A02EB811101F11C002E4901F07EFB51
:1018B0002C4A29466846FFF708FF641C042CEDDB20
:1018C0009DF80B00492819D19DF80C00512815D11D
:1018D000E81CC5B200240FE004EB8401204A02EBAF
:1018E000811101F118001F4901F04CFB1D4A2946E6
:1018F0006846FFF7EAFE641C042CEDDB00BF00988D
:10190000B0F5407F1FD90098B0F5417F1BD80098F3
:10191000401EC5B29DF80B004A2814D19DF80C005A
:10192000562810D110490DF10E0001F068FB0E4849
:10193000016805EB85000A4A02EB8010C161294667
:101940006846FFF7B1FE0098B0F5987F7CD90DE0AE
:1019500000000240006400402C6C0020506F00200A
:1019600064830020080000200C0000200098B0F5DF
:101970009A7F76D89DF80B00532812D19DF80C0061
:1019800054280ED10098401FC5B2002005EB8501F8
:101990008B4A02EB81114870202529466846FFF7E3
:1019A00083FE9DF80B00422812D19DF80C004728B9
:1019B0000ED10098401FC5B2002005EB8501804A7A
:1019C00002EB81114870202529466846FFF76CFE1E
:1019D0009DF80B00502826D19DF80C00582822D1E4
:1019E0000098A0F23110C5B276490DF10F0001F058
:1019F00006FB744890ED000AB8EEC00ADFED720AEB
:101A000080EE201ABDEEC10A10EE100A00B205EBFE
:101A1000C50101EB41016D4A02EBC10188802946F5
:101A20006846FFF741FE9DF80B004D2819D19DF83F
:101A30000C004F2815D10098A0F23110C5B29DF8C6
:101A40000F0010B1012001E00BE0002005EBC50103
:101A500001EB41015D4A02F8310029466846FFF773
:101A600023FE0098B0F5487F31D10098A0F548706A
:101A7000C5B29DF80B004D282AD19DF80C004F28C7
:101A800026D100201DE09DF8101009B1012100E0D1
:101A9000002100EBC00202EB42024C4B03F8321073
:101AA00000EBC00101EB41011A4612F8311039B9BF
:101AB000002100EBC00202EB420203EBC2025170B4
:101AC000401C0428DFDB29466846FFF7EDFD73E084
:101AD0009DF80B0053281ED19DF80C0050281AD1F8
:101AE000002415E03A490DF10F0001F088FA38485A
:101AF000008881B204EBC40000EB4000334A02EBE3
:101B0000C000A0F8461029466846FFF7CDFD641CCA
:101B1000042CE7DB50E09DF80B00502828D19DF8FD
:101B20000C00582824D100201BE000EBC00101EB81
:101B30004101264A02EBC101898A642211FB02F1AC
:101B4000244A11541146095C0A120DF10B0101F8E7
:101B5000102020490B5C4100491C0DF10B0253542D
:101B6000401C0428E1DB29466846FFF79DFD23E081
:101B700000201BE000EBC00101EB4101134A02EB26
:101B8000C101898A642211FB02F1124A11541146E3
:101B9000095C0A120DF10B0101F810200D490B5CD4
:101BA0004100491C0DF10B025354401C0428E1DB99
:101BB00029466846FFF778FD00BF05B030BD00003C
:101BC00064830020100000200000C842487C0020F0
:101BD0000C000020080000201FB50121082008F09B
:101BE00098FB42F6DF6002900B20ADF80400002065
:101BF000ADF80C00ADF8060001A9634808F041FDFE
:101C000032208DF8000001208DF803008DF80100CE
:101C100000208DF80200684607F05DF901215A485E
:101C200009F0E4F901221146574809F0CBF90121E6
:101C3000554808F0AFFD1FBD70B50121524809F0AD
:101C4000D8F9002870D001214F4809F0E3F90024A9
:101C500072E004EB84004D4901EB8010007800280D
:101C600069D004EB840001EB80104078002862D03A
:101C700004EB840001EB8010C0780A2859D2DFE819
:101C800000F03C05142D58294B4F585404EB8401A7
:101C90003E4A02EB8111D1ED010AB0EE600A611CEF
:101CA000C8B2002102F045FE44E004EB8402374B49
:101CB00003EB8212926804EB8403344D05EB83132B
:101CC00093F8343102FB03F1621CD0B2002203F01E
:101CD000E0F82FE0E0B202F080FD2BE004EB84019D
:101CE0002A4A02EB8111D1ED470AB0EE600A611C6D
:101CF000C8B2002103F0C1FA1CE004EB8401234ABE
:101D000002EB8111D1ED040AB0EE600A611CC8B289
:101D1000002103F055FA0DE0E0B203F000F909E00C
:101D2000E0B202F0F2FE05E02DE0E0B202F088FE43
:101D300000E000BF00BF641C042C8ADB00241CE010
:101D400004EB4400124901EB40100078082813D13D
:101D500004EB440001EB40104078022806D005282F
:101D600009D1611C88B204F052F804E0611C88B209
:101D700004F093F800BF00BF641C042CE0DB0549AD
:101D8000054801F0A7FA70BD000C004064830020F4
:101D9000A8880020BC7800200068004000B58BB007
:101DA0000121880608F0B5FA0121022008F07EFA28
:101DB00009220521FE4808F0BEF809220621FC4848
:101DC00008F0B9F802208DF818006020059005A9E8
:101DD000F74808F025F840208DF8280002208DF8FB
:101DE000290000208DF82A0001208DF82B000AA878
:101DF00007F071F841208DF8280002208DF82900A5
:101E00008DF82A0001208DF82B000AA807F063F84E
:101E1000E84807F0CBF807A807F0ECF900208DF8A8
:101E2000220001208DF8230000208DF824008DF879
:101E300025008DF826008DF827008DF81E008DF8FE
:101E40001F0008208DF8200003208DF82100ADF838
:101E50001C0007A9D74807F0C2F80E208DF80E0025
:101E600001208DF80F0000208DF8100044F22000B2
:101E7000ADF8040044F24000ADF8060044F2600002
:101E8000ADF808004FF48140ADF80A000020ADF82D
:101E90000C0001208DF8110001A807F02AF90F208D
:101EA0008DF80E0001208DF80F0000208DF8100035
:101EB00044F2A000ADF8040044F2C000ADF8060002
:101EC00044F2E000ADF808004FF48240ADF80A009B
:101ED0000020ADF80C0001208DF8110001A807F0DA
:101EE00008F910208DF80E0001208DF80F00002059
:101EF0008DF8100045F22000ADF8040045F24000D6
:101F0000ADF8060045F26000ADF808004FF4A140BE
:101F1000ADF80A000120ADF80C008DF8110001A801
:101F200007F0E7F811208DF80E0001208DF80F0062
:101F300000208DF8100045F2A000ADF8040045F235
:101F4000C000ADF8060045F2E000ADF808004FF41F
:101F5000A240ADF80A000120ADF80C008DF8110088
:101F600001A807F0C6F812208DF80E0001208DF8A8
:101F70000F0000208DF810004FF48150ADF80400E0
:101F80004FF48250ADF806004FF48350ADF80800CE
:101F90004FF48450ADF80A000120ADF80C008DF824
:101FA000110001A807F0A5F813208DF80E000120FC
:101FB0008DF80F0000208DF810004FF48550ADF81B
:101FC00004004FF48650ADF806004FF48750ADF88A
:101FD00008004FF48850ADF80A000120ADF80C005D
:101FE0008DF8110001A807F084F814208DF80E0078
:101FF00000208DF80F0001208DF810000020ADF8B2
:1020000004004FF49040ADF806004FF6FF70ADF8B5
:1020100008000020ADF80A000120ADF80C008DF892
:10202000110001A807F065F815208DF80E000120B9
:102030008DF80F0000208DF810002020ADF804006E
:102040004020ADF806006020ADF808008020ADF813
:102050000A000120ADF80C008DF8110001A807F06E
:1020600048F816208DF80E0001208DF80F00002092
:102070008DF8100044F26000ADF804004FF4814088
:10208000ADF8060044F22010ADF808004FF485408A
:10209000ADF80A000120ADF80C008DF8110001A880
:1020A00007F027F817208DF80E0001208DF80F009B
:1020B00000208DF8100048F26000ADF8040048F2EE
:1020C0008000ADF8060048F22010ADF8080048F294
:1020D0008020ADF80A000120ADF80C008DF8110049
:1020E00001A807F006F801221021324807F000FB92
:1020F000012202212F4807F0FBFA0BB000BD10B5FA
:1021000086B002212B4807F05BFB00287ED001AA95
:102110000021284807F0D1F90198B0F5007F76D961
:102120000198B0F5027F72D89DF80D0000286ED19D
:102130000198401EC4B2204850F824001F4941F8BD
:1021400024000BF055FC1C4941F82400084650F8C7
:1021500024001A4951F82410401A194941F8240062
:102160009DF812109DF8110041EA002001B204EB25
:10217000C40000EB4000134A02EBC00001839DF84D
:1021800010009DF80F1040EA012001B204EBC400DA
:1021900000EB400002EBC00001849DF814109DF894
:1021A000130041EA002001B204EBC4000CE000007F
:1021B0000004024000680040101F0020F01E0020B4
:1021C000301F0020487C002000EB400002EBC000E4
:1021D000C1829DF8151004EBC40000EB400002EB37
:1021E000C0004184204601F035FF04EBC40000EB41
:1021F0004000FE4901EBC00090F83A00E0B901212F
:1022000004EBC40000EB4000F84A01E01EE014E0DB
:1022100002EBC00080F83A10002104EBC40000EB90
:10222000400002EBC000A0F8581004EBC40000EB23
:10223000400002EBC000C16100BF0221EC4807F082
:102240005AFB0221EA4807F098FA00BF06B010BD19
:102250004168491C4160002101730169491E016107
:10226000818A491C322291FBF2F302FB1311818215
:10227000704710B586B01021DD4807F0A1FA00289C
:102280007BD001AA0121DA4807F017F91021D848BC
:1022900007F031FB1021D64807F06FFA0198B0F52E
:1022A000207F6BD90198B0F5227F67D89DF80D008B
:1022B000002863D10198A0F28120C4B29DF80F00DC
:1022C000412807D19DF81000432803D1002008B908
:1022D000012000E000209DF80F10422907D19DF851
:1022E0001010472903D1002109B9012100E0002184
:1022F00008439DF80F104A2907D19DF81010562960
:1023000003D1002109B9012100E0002108439DF813
:102310000F104D2907D19DF810104F2903D100212E
:1023200009B9012100E0002108439DF80F10502950
:1023300007D19DF81010522903D1002109B90121BC
:1023400000E0002108439DF80F10532907D19DF8A4
:102350001010442903D1002109B9012100E0002116
:1023600008439DF80F10532909D19DF810105429E6
:1023700005D1002119B9012102E0DDE2FFE00021D1
:1023800008439DF80F10442907D19DF810104329E8
:1023900003D1002109B9012100E0002108439DF883
:1023A0000F10552907D19DF810104D2903D1002198
:1023B00009B9012100E00021084330B167216143E0
:1023C0008C4A02EBC100FFF743FF9DF80F004D2838
:1023D00011D19DF810004F280DD1002058B99DF85B
:1023E000130008B1012000E0002004EB4411824AF0
:1023F00002EB810188709DF80F00562823D19DF8CB
:10240000100058281FD10020E8B9DDF8131004EBA4
:102410004410794A02EB8000016204EB441011463B
:1024200001EB8000B0F878003C2190FBF1F104EB67
:10243000441002EB8000006A90FBF1F104EB4410C1
:1024400002EB800001629DF80F0050284ED19DF8EC
:10245000100058284AD10020F0BBDDF8130004EB2F
:102460004411654A02EB81014A6A04EB4411624B54
:1024700003EB8101CA6304EB44111A4602EB8101AC
:10248000486204EB441102EB810191ED1F0A9FEDBC
:102490005B1AC1EE000A00EE100AB8EEC00A20EE88
:1024A000800A04EB441102EB810191ED201AC0EE89
:1024B000010A04EB441102EB8101B1F8781000EE3F
:1024C000101AB8EE401A80EE810AF1EE000A80EE92
:1024D000201ABDEEC10A00E008E010EE101A09B2A1
:1024E00004EB441203EB8202918300BF9DF80F00BE
:1024F00049280ED19DF8100051280AD1002040B97A
:10250000BDF8130001B204EB44103B4A02EB80001B
:10251000C1839DF80F0055280CD19DF810004D285F
:1025200008D1002030B99DF8130004EB4411324A61
:1025300002F821009DF80F0041280DD19DF81000F0
:10254000432809D1002038B9DDF8131004EB4410FA
:10255000294A02EB8000C1629DF80F0044280DD18A
:102560009DF81000432809D1002038B9DDF8131078
:1025700004EB4410204A02EB8000016300BF019885
:1025800081281BD30198882818D89DF80D00A8B978
:102590009DF81000822811D09DF8100010280DD051
:1025A0004FF01061019841EA00409DF80F1040EA99
:1025B00001209DF810100843114908609DF80C0097
:1025C00004287CD19DF80D000028FAD100900298D3
:1025D00000F00F00401EC4B209210298B1EB102F89
:1025E0006ED169460DF10F000CE00000487C002020
:1025F00000680040382200208C8B00200000B4438B
:102600005400002000F0FBFC04EB8401F44A02EBD0
:10261000811191F8341190FBF1F104EB840002EB8D
:102620008010C1616946B2EE040A0DF10F0000F09E
:102630000CFD04EB8400EA4901EB801080ED060AF2
:102640006946B2EE040A0DF10F0000F0FEFC04EB47
:102650008400E34901EB801080ED080A0DF11601BA
:10266000481E00F0E1F9BDF8151004EB8400DC4AC7
:1026700002EB8010A0F8001104EB8400114601EB7E
:102680008010B0F8001104EB840002EB8010B0F869
:102690000201081A00B204EB840102EB8111A1F8D7
:1026A000FC0004EB8400114601EB801090F8FE0062
:1026B00080B1002104EB840002EB801001E098E07F
:1026C00096E080F8FE10002004EB840102EB8111FB
:1026D000A1F8FC0004EB8400C14901EB8010B0F8C4
:1026E000001104EB8400BE4A02EB8010A0F8021136
:1026F00004EB8400114601EB8010B0F9FC000028C7
:1027000006DD04EB840001EB8010B0F9FC0007E06B
:1027100004EB8400B24901EB8010B0F9FC004042A8
:10272000B0F5E16F21DD04EB8400AD4901EB8010D1
:10273000B0F9FC0004EB8401A94A02EB8111B1F964
:10274000FC10002902DA4FF0FF3100E00121C1EB5B
:102750004112C2EB0121A0EB011000B204EB840195
:102760009F4A02EB8111A1F8FC0004EB84009C4914
:1027700001EB8010806A04EB8401994A02EB81111D
:10278000B1F9FC10014404EB840002EB801081627B
:1027900004EB8400114601EB8010416904EB8400D6
:1027A00002EB8010806A091A04EB840002EB8010AF
:1027B000C0F80C1104EB8400114601EB8010407846
:1027C000B0B104EB840001EB801090ED080A04EB3B
:1027D000840001EB801080ED410A04EB840001EBE2
:1027E0008010816A04EB840002EB8010C0F80811AD
:1027F00000BF40F20321019888423BD340F21441CC
:102800000198884236D89DF80D0098BB0021019AA6
:10281000C2F3472140F20343019A9A4201D10122B7
:1028200000E0002240F20324019BA34201D10123D6
:1028300000E000231A437AB1DDF80F304A1E02EBA4
:102840004202684C04EB4212D3644A1E02EB42027D
:10285000234603EB4212D06440F20443019A9A42A9
:1028600001D1012200E00022019BB3F5017F02D1DA
:10287000012301E049E000231A4342B1DDF80F00D3
:102880004A1E02EB4202574B03EB4212106540F224
:102890000943019A9A4201D1012200E0002240F24C
:1028A0000924019BA34201D1012300E000231A4324
:1028B00082B1DDF80F004A1E02EB4202494B03EBE6
:1028C00042125063DDF813004A1E02EB420203EB92
:1028D0004212D06340F21443019A9A4201D101227C
:1028E00000E00022019BB3F5057F01D1012300E048
:1028F00000231A4342B1DDF813004A1E02EB4202E4
:10290000384B03EB4212906300BF019898B99DF8D1
:102910000F40621E02EB820303EBC202324B03EB59
:102920008201204603F0ACFE0598009001A80FC874
:1029300003F0C8FE00BF00BF06B010BDF0B585B003
:1029400007460D46002412200090019000208DF8CB
:1029500008008DF809008DF80A5000BF05E0395DC8
:102960000DF10B000155601C84B2AC42F7DB6946E7
:102970001E4806F0ADFC0646002401E0601C84B24F
:1029800031461A4806F03CFD18B940F6FF70844203
:10299000F4DB40F6FF70844202DB012005B0F0BD9D
:1029A0000020FBE730B585B0054600210F4806F052
:1029B00007FE10B9002005B030BD6A4600210B4863
:1029C00006F07BFD002404E00DF10B00005D2855AE
:1029D000641C9DF80A00A042F6D89DF80A00EAE7B8
:1029E00064830020A8880020488A002000680040F6
:1029F00001203B494872704710B503F0F9FE394891
:102A000004F035F800F0E7FD02F088FEFFF7F0FF74
:102A100005F054FB05F076FC334805F0A5FB01F00A
:102A2000B7FD03F063FC10BD00220A7803780B7039
:102A30000270704710B508200BF09CF90446002086
:102A40006060204610BD02460B46114605E008882E
:102A5000984201D10846704749680029F7D1002003
:102A6000F9E770B506460C46354600E06D6815B1CD
:102A70006868A042FAD14CB16068686020460BF0EB
:102A8000A8F91A480078401E1849087070BD2DE951
:102A9000F041074688463C4641462046FFF7D3FFB3
:102AA00008B1BDE8F081002602E06468701CC6B27F
:102AB0000E480078B04201DD002CF6D16CB1082040
:102AC0000BF058F90546A5F80080606868606560FD
:102AD00006480078401C0549087000BFE1E7000087
:102AE000501F002000680040BC8F00201400002010
:102AF00000B597B00121042007F0D8FB012188041C
:102B000007F007FC0121480507F0D0FB07220A2146
:102B1000624807F010FA07220B21604807F00BFA11
:102B20004FF44060119002208DF8480000208DF88D
:102B30004A0003208DF8490000208DF84B0011A9B0
:102B4000564807F06DF94FF4E13013900020ADF8CE
:102B50005000ADF85200ADF85400ADF858000C200C
:102B6000ADF8560013A94E4808F07EFB012240F252
:102B700025514B4808F0B6FC27208DF84000042072
:102B80008DF8410000208DF8420001208DF84300AF
:102B900010A806F0A0F9434806F000FF4FF00060CF
:102BA000019000200590402004903F4803903C484D
:102BB000001D0290001507900020069009900890D3
:102BC0000A904FF440300B9000200C9001200D90A3
:102BD00000200F900E9001A9324806F081FF334982
:102BE000304807F030F831492E4807F087F80E20BA
:102BF0008DF8400002208DF8410004208DF842003D
:102C000001208DF8430010A806F065F9012210217B
:102C1000244807F02CF801228021214808F059FCB3
:102C200017B000BD10B521491E4807F03DF8012836
:102C30000AD11E491B4807F006F81C49194807F03D
:102C40005DF800201A49087410BD70B504460D46A1
:102C50001748007C78B92A46214613480BF0B3F98F
:102C60002946104806F097FF01210E4806F072FF32
:102C700001200F49087470BD10B540F22551084875
:102C800008F06BFC40B12021054808F05DFC40F2E3
:102C90002551034808F098FC10BD000000080240D0
:102CA0000048004058600240A52100200080001824
:102CB000501F002000B597B00121084607F0F6FA32
:102CC0000121102007F036FB0121880507F0EEFAFC
:102CD00007220921A34807F02EF907220A21A1485B
:102CE00007F029F94FF4C060119002208DF84800D8
:102CF00000208DF84A0002208DF8490001208DF84F
:102D00004B0011A9974807F08BF84FF4E13013906E
:102D10000020ADF85000ADF85200ADF85400ADF809
:102D200058000C20ADF8560013A98F4808F09CFA03
:102D30008E4806F033FE4FF00060019000200590B1
:102D4000402004908A4803908748001D0290001597
:102D5000079000200690099008900A904FF44030A8
:102D60000B9000200C9001200D9000200F900E90F1
:102D700001A97E4806F0B4FE7E497C4806F063FF58
:102D80007C497A4806F0BAFF01221021774806F004
:102D90006EFF46208DF8400003208DF84100012091
:102DA0008DF842008DF8430010A806F094F8012237
:102DB00080216D4808F08DFB01216B4808F0DCFA9A
:102DC00017B000BD70B504460D466B48807B78B9DE
:102DD0002A46214666480BF0F6F82946634806F075
:102DE000DAFE0121614806F0B5FE012062498873D0
:102DF00070BD10B55F495D4806F056FF01280AD145
:102E00005C495A4806F01FFF5A49584806F076FFB9
:102E100000205949887310BD10B540F22551524821
:102E200008F09BFB002844D040F225514E4808F0A2
:102E30008BFB40F225514C4808F0C6FB4A4808F08D
:102E4000CAFAC4B24D48007800F0400008B34B48BD
:102E5000007800F0800020BB0D2C06D14748007898
:102E600040F08000454908701BE04448007800F0BD
:102E70003F0043490C5441480078401C3F490870CA
:102E80000846007800F03F0020280ADD0020087086
:102E900007E0232C05D13948007840F0400037493D
:102EA00008703648007800F0800010B100203349E7
:102EB000087010BD30B502460B464FF6FF7000217A
:102EC00012E0555C684000240AE000F0010525B1DD
:102ED0004AF2010585EA600000E04010651CECB292
:102EE000082CF2DB4D1CE9B29942EADB30BD2DE93A
:102EF000FE4305460E4617469846280A8DF80100FF
:102F0000E8B28DF80000300A8DF80300F0B28DF8B9
:102F10000200380A8DF80500F8B28DF804004FEA77
:102F200018208DF8070008F0FF008DF80600082132
:102F30006846FFF7BFFF04462046E11704EB116126
:102F40000912A4EB0121C9B28DF80810E11704EBB6
:102F50001161090A8DF809100A216846FFF732FF4E
:102F6000BDE8FE830000024000100140B86402404A
:102F7000E521002000800028501F002021000020B3
:102F80000522002008B590ED000A8DED000ABDF87D
:102F900000200A70BDF80020120A4A70BDF8022015
:102FA0008A70BDF80220120ACA7008BD08B502680E
:102FB0000092BDF800200A70BDF80020120A4A7085
:102FC000BDF802208A70BDF80220120ACA7008BD3E
:102FD00030B50C0E15686B1C13604455C1F30744E3
:102FE00015686B1C13604455C1F3072415686B1CEE
:102FF0001360445515686B1C1360415530BD10B506
:1030000002460B68D35C1C060B685B1CD35C44EA6D
:1030100003440B689B1CD35C44EA03230C68E41C48
:10302000145D43EA04000B681B1D0B6010BD10B556
:1030300002460B685B1CD35C0C68145D43EA0423F6
:1030400018B20B689B1C0B6010BD30B50446F0EE47
:10305000400A0D4629462046FFF7E9FF00EE100A18
:10306000B8EEC01A81EE200A30BD00001FB5012164
:10307000022007F04EF942F6DF6002900620ADF81C
:1030800004000020ADF80600ADF80C001D208DF8FE
:10309000000001208DF8010000208DF802000120C1
:1030A0008DF80300684605F016FF01A9724807F085
:1030B000E8FA01221146704807F084FF01216E48AA
:1030C00007F068FB1FBD70B501216B4807F091FF49
:1030D000012870D10121684807F09CFF002466E0B8
:1030E00004EB8400654901EB801090F81001012881
:1030F00027D104EB840001EB8010007808B30AF0BC
:1031000077FC04EB84015D4A02EB8111D1F81411C4
:10311000411A04EB840002EB8010B0F818018142E0
:103120000FD904EB8400114601EB801090F81101D7
:10313000401CC1B204EB840002EB801080F8111136
:1031400007E0002104EB84004C4A02EB801080F879
:10315000111104EB8400494901EB801090F8110132
:1031600014280ADD621C032343EA021242F4807130
:10317000434A5068FFF78BFC17E0002104EB840002
:103180003E4A02EB801080F84210621C032343EA9F
:10319000021242F480713A4A5068FFF754FC054627
:1031A000374948682946FFF75CFC601CC4B2042C10
:1031B00096DB002454E05DE004EB4410314901EB60
:1031C00080008078E8B304EB441001EB800090F8B5
:1031D000760000B30AF00CFC04EB4411294A02EB20
:1031E0008101096F411A04EB441002EB8000B0F832
:1031F000740081420FD904EB4410114601EB8000AA
:10320000B0F86C00401C81B204EB441002EB80006B
:10321000A0F86C1007E0002104EB4410194A02EBFF
:103220008000A0F86C1004EB4410164901EB8000FC
:10323000B0F86C000A280ADD012104EB4410114AA1
:1032400000E00CE002EB800080F84F1007E0002166
:1032500004EB44100B4A02EB800080F84F10641C12
:10326000042CA9DB002403E0A0B201F069F8641C7F
:10327000082CF9DB70BD00000004004064830020CE
:10328000140000208C8B0020014608884A88904258
:1032900001D1012070470020FCE701464888401C0E
:1032A000322290FBF2F302FB13000A88904201D114
:1032B000012070470020FCE70020BB4948800880BF
:1032C000BA4948800880BA4948800880B94948808E
:1032D0000880704730B585B005460C462046FFF79C
:1032E000D3FF08B105B030BD2188201D00EB0110CF
:1032F0000068B0F5407F01D9012000E0002022885D
:10330000211D01EB02110968B1F5447F01D20121B1
:1033100000E00021084060B300208DF808002188FB
:10332000201D00EB011000680090A348854205D1E4
:1033300001229D49A14802F036F904E002229C498D
:103340009F4802F030F92188201D00EB0110007920
:103350008DF80A0000208DF809009DF80A202388C6
:10336000201D00EB0310411D0DF10B000AF02BFE98
:10337000E1E02188201D00EB01100068082834D20C
:1033800000208DF808002188201D00EB0110006846
:1033900000902188201D00EB011000798DF80A00B3
:1033A0002188201D00EB0110006840F01F00092853
:1033B00008D12188201D00EB0110006840F01F009B
:1033C000142803D000208DF8090002E002208DF8B7
:1033D00009009DF80A202388201D00EB0310411DE1
:1033E0000DF10B000AF0EFFDA5E02188201D00EB98
:1033F00001100068B0F5007F75D92188201D00EB11
:1034000001100068B0F5836F6DD800208DF80800BA
:103410002188201D00EB0110006800902188201DEC
:1034200000EB011000798DF80A002188201D00EBC7
:103430000110006840F20321884218D02188201D25
:1034400000EB01100068B0F5017F10D02188201D2D
:1034500000EB0110006840F20921884207D0218862
:10346000201D00EB01100068B0F5057F03D102209C
:103470008DF809002AE02188201D00EB011000686A
:1034800040F2034188421AD02188201D00EB011030
:10349000006840F20441884211D02188201D00EBD1
:1034A0000110006840F20941884208D02188201D9F
:1034B00000EB0110006840F21441884203D1022061
:1034C0008DF8090002E000208DF809009DF80A201F
:1034D0002388201D00EB0310411D0DF10B000AF0A5
:1034E00072FD28E0FFE72188201D00EB0110006835
:1034F00000F07040F8B104208DF808002188201DEC
:1035000000EB0110006820F0704001902188201D20
:1035100000EB011000798DF80A0000208DF80900F9
:103520009DF80A202388201D00EB0310411D0DF19A
:103530000B000AF048FD2348854217D102221C499E
:103540001F4802F030F82188201D00EB0110407B5D
:1035500038B92088401C322190FBF1F201FB1200A7
:1035600020806946174805F0B3FE1AE012488542EC
:1035700017D101220C49114802F015F80A480188B8
:10358000001D00EB0110407B38B92088401C32211F
:1035900090FBF1F201FB120020806946064805F01D
:1035A00097FE00BF9EE60000506F0020747200205E
:1035B0002C6C00209875002000640040F83B00202F
:1035C0003822002000680040002239210A54C261DC
:1035D00000218182704710B52DED0E8B4FF4005005
:1035E000FE4908809FEDFE0B084680ED040B9FED21
:1035F000FE0A80ED010A43F6991008814FF400504D
:10360000FA490880B7EE000A084680ED010A42F246
:10361000283008819FEDF60B084680ED040B002052
:10362000F54908709FEDF50A084680ED010A012072
:1036300008724FF4FA604881012008734FF4FA6071
:1036400008824FF6E040C881002088742820EC49A9
:103650008883002048604FF47A70C8831822E349B9
:10366000E8480AF0F5FC0020E64970390870487017
:10367000052088700021E3487038C1800020E149AE
:10368000703988800021DF48703801811422DA49BE
:103690003C300AF0DDFCDB487038B0F90810F7EE7A
:1036A000001A9FEDD91AF6EE000AB2EE000AB03009
:1036B00002F0A8FCD3487038C168F7EE001A9FEDFD
:1036C000D21ADFEDD20A9FEDD20A883002F09AFCBE
:1036D0001822C649CB48D8300AF0BAFC0020C949A4
:1036E000703981F8D8000021C648703880F8D910A8
:1036F000052180F8DA106421A0F8DE100021A0F87E
:10370000DC104FF47A71A0F8E0101422BA4900F5E9
:103710008A700AF09DFCBB487038B0F9E010DFED0C
:10372000BD1A9FEDBD1ADFEDBD0AB2EE000A00F52D
:10373000C47002F067FCB3487038D0F8E410F7EEBC
:10374000001A9FEDB51ADFEDB50AB2EE000A00F5DA
:10375000B07002F057FC1822A449B1480AF078FC76
:103760000020A849703981F8B0010021A5487038BF
:1037700080F8B111052180F8B2116421A0F8B611CA
:103780000021A0F8B4114FF47A71A0F8B8111422F6
:10379000994900F5F6700AF05BFC9A487038B0F968
:1037A000B811DFED9C1A9FED981ADFED9E0AB0EE7E
:1037B0000C0A00F5187002F025FC92487038D0F819
:1037C000BC11F7EE001A9FED951ADFED930AB1EEEA
:1037D000040A00F50E7002F015FC18228349904887
:1037E000D8300AF035FC00208649703981F888020B
:1037F00000218448703880F88912052180F88A12E7
:103800006421A0F88E120021A0F88C124FF47A7176
:10381000A0F890121422784900F531700AF018FCD3
:1038200078487038B0F99012DFED7A1A9FED7A1A65
:10383000DFED7A0AB2EE000A00F54E7002F0E2FB0C
:1038400070487038D0F89412F7EE001A9FED721A93
:10385000DFED720AB2EE000A00F5447002F0D2FB0E
:1038600000241AE104EBC40000EB40006549703904
:1038700001EBC0006249096801656148416804EBD9
:10388000C40000EB40005F4A703A02EBC0004165A3
:1038900004EBC40101EB410102EBC10101F158004D
:1038A0000A22574908310AF0D3FB5548418A04EBF4
:1038B000C40000EB4000534A703A02EBC000A0F88D
:1038C000621004EBC40000EB4000114601EBC000A5
:1038D0004B4B59699A69DB6964300EC004EBC40034
:1038E00000EB4000474A703A02EBC00090ED1D0A21
:1038F00010EE101A08460DF0A5FA41EC1A0B04EB75
:10390000C40101EB41013F4A703A02EBC101B1F839
:1039100070000DF029F841EC1C0B04EBC40000EB27
:103920004000384A703A02EBC00090ED100A10EEE9
:10393000101A08460DF086FA41EC1E0B04EBC40089
:1039400000EB40002F49703901EBC00090ED201BC7
:10395000B0EE410AF0EE610A53EC102B51EC1E0B55
:103960000DF052F853EC1C2B0DF04EF853EC1A2BC3
:103970000DF04AF89FED2C0B53EC102B0CF0ECFDE6
:103980000CF0AEFF04EBC40101EB41011D4A703A9B
:1039900002EBC101086504EBC40101EB410102EB3C
:1039A000C101B1F870000CF0DFFF41EC1A0B04EB21
:1039B000C40000EB4000134A703A02EBC00090EDE7
:1039C0001D0A10EE101A08460DF03CFA41EC1C0BD3
:1039D00004EBC40101EB41010A4A29E0187C0020F4
:1039E0000000008087870F409A999941307C002021
:1039F000000000000000F03F007C00200000E144D7
:103A0000E07B0020B87C0020000000009A99193E5D
:103A10006666A63FCDCCCC3E9A99993ECDCC4C3E25
:103A2000687E00208FC2F53D0000000000807640D7
:103A3000703A02EBC101B1F904000CF07EFF41ECD9
:103A40001E0B04EBC40000EB4000FE4901EBC0007C
:103A500090ED201BB0EE410AF0EE610A53EC102B02
:103A600051EC1E0B0CF0D0FF53EC1C2B0CF0CCFFD8
:103A700053EC1A2B0CF0C8FF1FED150B53EC102B59
:103A80000CF06AFD0CF0FCFE04EBC40101EB4101FB
:103A9000EC4A02EBC101C860641C082CFFF6E2AEE0
:103AA0000020E949C87088704870087108700023C8
:103AB00013E04FF4FA6103EBC30000EB4000E14A6E
:103AC00002EBC000A0F8461003EBC30101EB41017B
:103AD00002EBC100FFF778FD5B1C042BE9DBBDECBA
:103AE0000E8B10BD10B5044604EBC40000EB400083
:103AF000D44901EBC000D0ED260A04EBC40000EB72
:103B0000400001EBC000B0F9080000EE100AB8EE6A
:103B1000C00A20EE800ABDEEC00A10EE100A04EBC7
:103B2000C40101EB4101C74A02EBC101C1F8B00079
:103B300004EBC40000EB4000114601EBC000B0F9FB
:103B4000181004EBC40000EB400002EBC000C0F80A
:103B5000C81004EBC40101EB410102EBC10101F10A
:103B6000B00002F068FA04EBC40000EB4000B54975
:103B700001EBC000C18804EBC40000EB4000B14A77
:103B800002EBC000D0F8C400084401B204EBC4004A
:103B900000EB400002EBC000C18010BD10B5044630
:103BA00004EBC40000EB4000A64901EBC000B0F9F3
:103BB0004A0004EBC40101EB4101A24A02EBC1013E
:103BC000C1F8B00004EBC40000EB4000114601EB6B
:103BD000C000B0F9181004EBC40000EB400002EB89
:103BE000C000C0F8C81004EBC40101EB410102EBB6
:103BF000C10101F1B00002F01EFA04EBC40000EBB9
:103C00004000904901EBC000C18804EBC40000EB08
:103C100040008C4A02EBC000D0F8C400084401B256
:103C200004EBC40000EB400002EBC000C18004EBD9
:103C3000C40000EB4000114601EBC000B0F8580092
:103C400090BB04EBC40000EB400001EBC000C06976
:103C5000002807DD04EBC40000EB400001EBC000CE
:103C6000C06908E004EBC40000EB4000754901EBBB
:103C7000C000C069404240F6C411884215DD04EB23
:103C8000C40000EB40006F4901EBC000B0F86000D9
:103C9000401C81B204EBC40000EB4000694A02EB17
:103CA000C000A0F860100AE0FFE7002104EBC400A8
:103CB00000EB4000634A02EBC000A0F8601004EB88
:103CC000C40000EB40005F4901EBC000B0F86000A9
:103CD000322839DD002104EBC40000EB4000594AD2
:103CE00002EBC000A0F86010002004EBC40101EB5F
:103CF000410102EBC1018882002104EBC40000EB0A
:103D0000400002EBC000C161052004EBC40101EBDF
:103D1000410102EBC1018870012104EBC40000EBFA
:103D2000400002EBC00080F83510002004EBC40115
:103D300001EB410102EBC1018880012004EBC401C9
:103D400001EB410102F8310010BD10B52DED0E8BD5
:103D5000044604EBC40101EB41013A4A02EBC10104
:103D6000B1F870000CF000FE41EC1A0B04EBC4003B
:103D700000EB4000334A02EBC00090ED1D0A10EE4C
:103D8000101A08460DF05EF841EC1C0B04EBC40160
:103D900001EB41012B4A02EBC101B1F904000CF027
:103DA000CCFD41EC1E0B04EBC40000EB40002549A8
:103DB00001EBC00090ED201BB0EE410AF0EE610A6D
:103DC00053EC102B51EC1E0B0CF01EFE53EC1C2B75
:103DD0000CF01AFE53EC1A2B0CF016FE1FEDEE0B36
:103DE00053EC102B0CF0B8FB0CF04AFD04EBC401B3
:103DF00001EB4101134A02EBC101C86004EBC400AE
:103E000000EB4000114601EBC000C06804EBC401A8
:103E100001EB410102EBC101C1F8880004EBC400D1
:103E200000EB4000114601EBC0004078A0B904EB64
:103E3000C40000EB400001EBC000406D04EBC40186
:103E400004E00000487C00202200002001EB41013A
:103E500002EBC101C1F8880004EBC40000EB400094
:103E6000FE4901EBC000C16904EBC40000EB400057
:103E7000FA4A02EBC000C0F8A01004EBC40101EB49
:103E8000410102EBC10101F1880002F0D4F804EB1A
:103E9000C40000EB4000F14901EBC000D0ED260A60
:103EA00004EBC40000EB400001EBC000D0F89C0024
:103EB00000EE100AB8EEC00A20EE800ABDEEC00A7D
:103EC00010EE100A04EBC40101EB4101E34A02EBDE
:103ED000C101C1F8B00004EBC40000EB4000114682
:103EE00001EBC00090F84400A8B304EBC40000EB61
:103EF000400001EBC000D0F8B000002808DD04EB62
:103F0000C40000EB400001EBC000D0F8B00009E0B5
:103F100004EBC40000EB4000D04901EBC000D0F836
:103F2000B000404204EBC40101EB4101CB4A02EB7B
:103F3000C101B1F84610884221DD04EBC40000EB5A
:103F40004000114601EBC000D0F8B000002803DAB1
:103F50004FF0FF3001E012E0012004EBC40101EB5F
:103F60004101BE4A02EBC101B1F84610484304EBDF
:103F7000C40101EB410102EBC101C1F8B00004EB47
:103F8000C40000EB4000B54901EBC000B0F91810C7
:103F900004EBC40000EB4000B04A02EBC000C0F8E4
:103FA000C81004EBC40101EB410102EBC10101F1B6
:103FB000B00002F040F804EBC40000EB4000A74959
:103FC00001EBC000C18804EBC40000EB4000A34A31
:103FD00002EBC000D0F8C400084401B204EBC400F6
:103FE00000EB400002EBC000C18004EBC40000EB1A
:103FF0004000114601EBC000C06D002807DD04EB56
:10400000C40000EB400001EBC000C06D08E004EB11
:10401000C40000EB4000914901EBC000C06D40427C
:10402000B4280ADA012004EBC40101EB41018B4AF8
:1040300002EBC10181F8340009E0002004EBC40167
:1040400001EB4101854A02EBC10181F83400BDEC6E
:104050000E8B10BD70B52DED088B044604EBC4002B
:1040600000EB40007D4901EBC000018C04EBC40073
:1040700000EB4000794A02EBC000008E081A01B242
:1040800004EBC40000EB400002EBC000A0F85810A5
:1040900004EBC40000EB4000114601EBC000808A35
:1040A00004EBC40101EB410102EBC101888404EB84
:1040B000C40000EB4000114601EBC000C18A04EBD4
:1040C000C40000EB400002EBC000C18404EBC4005C
:1040D00000EB4000114601EBC000018B04EBC40073
:1040E00000EB400002EBC000018504EBC40000EBD4
:1040F0004000114601EBC000C16904EBC40000EBB5
:10410000400002EBC000C16204EBC40000EB4000C1
:10411000114601EBC000018C04EBC40000EB400031
:1041200002EBC000018604EBC40000EB4000114626
:1041300001EBC000418C04EBC40000EB400002EB3B
:10414000C000418604EBC40000EB4000114601EBC7
:10415000C000B0F95800002808DD04EBC40000EBF3
:10416000400001EBC000B0F9580009E004EBC400C6
:1041700000EB4000394901EBC000B0F95800404263
:1041800041F2360188422CDD04EBC40000EB400014
:10419000324901EBC000B0F9581004EBC40000EB49
:1041A00040002E4A02EBC000B0F95800002802DAA5
:1041B0004FF0FF3000E0012004EBC40202EB4202AA
:1041C000264B03EBC202B2F8702000FB121001B2C2
:1041D00004EBC40000EB40001A4602EBC000A0F85C
:1041E000581004EBC40000EB40001C4901EBC00078
:1041F000C16904EBC40000EB4000184A02EBC000A8
:10420000B0F95800014404EBC40000EB400002EB9D
:10421000C000C16104EBC40000EB4000114601EB9B
:10422000C000C16804EBC40000EB400002EBC0001A
:10423000C069091A04EBC40000EB400002EBC000A7
:10424000C16504EBC40101EB410102EBC101B1F80E
:1042500070000CF089FB41EC190B01E0487C002058
:1042600004EBC40000EB4000C14901EBC000C06991
:1042700000EE100AB8EEC00ADFEDBE0A20EE200AFA
:1042800004EBC40000EB400001EBC000D0ED1D0AC0
:1042900080EE201A11EE105A28460CF0D3FD41ECA6
:1042A0001B0B04EBC40000EB4000B14901EBC00064
:1042B00090ED201BB0EE410AF0EE610A53EC102B9A
:1042C00051EC1B0B0CF048F953EC192B0CF044F992
:1042D0000CF0D6FA00B204EBC40101EB4101A44A90
:1042E00002EBC101888204EBC40000EB40001146E0
:1042F00001EBC000407868B104EBC40000EB400063
:1043000001EBC000C16904EBC40000EB400002EB0C
:10431000C000416504EBC40000EB4000944901EB90
:10432000C00090F8390040B104EBC40101EB410139
:104330008F4A02EBC100FFF747F9BDEC088B70BD57
:1043400010B5044604EBC40000EB4000884911F8A6
:10435000300001285ED104EBC40000EB400001EB0B
:10436000C00090F84E00E8B309F042FB824951F8D2
:104370002410401A40F2DC51884214D304EBC400EC
:1043800000EB40007A4901EBC00090F86400401C4B
:10439000C1B204EBC40000EB4000754A02EBC00060
:1043A00080F8641009E0002104EBC40000EB400039
:1043B0006F4A02EBC00080F8641004EBC40000EB0D
:1043C00040006B4901EBC00090F8641004EBC4009E
:1043D00000EB4000664A02EBC000B0F86C0000EB56
:1043E000800000E016E04000814209DD012104EB7D
:1043F000C40000EB400002EBC00080F8371009E079
:10440000002104EBC40000EB4000594A02EBC0005D
:1044100080F8371010BD2DE9F04186B004460D46F6
:1044200016461F464FF0000800208DF80C008DF84E
:104430000D0008208DF80E004FF40078CDF80480B0
:104440004B480078012805D1200A8DF80F008DF81F
:10445000104005E000208DF80F0000218DF81010AD
:10446000434890F8D800012805D1290A8DF8111089
:104470008DF8125004E000218DF811108DF8121003
:104480003B4890F8B001012805D1310A8DF813108E
:104490008DF8146004E000218DF813108DF81410CD
:1044A000334890F88802012805D1390A8DF8151093
:1044B0008DF8167004E000218DF815108DF8161097
:1044C00001A92E4804F004FF06B0BDE8F0810020E9
:1044D0004BE000EBC00101EB4101254A02EBC101B9
:1044E000B1F90610002908DD00EBC00101EB410124
:1044F00002EBC101B1F9061009E000EBC00101EBCC
:1045000041011B4A02EBC101B1F90610494200EB1F
:10451000C00202EB4202164B03EBC202B2F8782053
:10452000914220DD00EBC00101EB41011A4602EB94
:10453000C101B1F90610002902DA4FF0FF3100E0A5
:10454000012100EBC00202EB4202094B03EBC20265
:10455000B2F8782051430AB200EBC00101EB4101EF
:1045600003EBC101CA80411CC8B20828B1DB704707
:10457000487C00200000B443F01E0020006800408A
:104580004121095C19B1002241210A54826270471D
:1045900010B50720FE4908709FEDFE0A084680ED21
:1045A000010A42F2107088600C20FB49087042F248
:1045B000107088601520F9490870B2EE040A0846A8
:1045C00080ED010A4FF47A7088600020F449087287
:1045D00047F23050C8600120087441F288304861C9
:1045E000B3EE0E0A084680ED010A0120ED498870FD
:1045F000ED48E74B0ECB34300EC00020EB4908707D
:104600004870C8709FEDEA0A084680ED010A002153
:1046100081609FEDE70A80ED040A41614169F7EE90
:10462000001A9FEDE41ADFEDE40A9FEDE40A44303E
:1046300001F0E8FCDD488168F7EE001AB7EE001AD9
:10464000DFEDDF0A9FEDDF0A6C3001F0DBFCDFED10
:10465000DE1A9FEDDE1ADFEDD60A9FEDDD0AD248A5
:104660006C3801F0DFFCDFEDD81A9FEDDA1ADFEDD0
:10467000DA0A9FEDD30ACC48383801F0D3FC002485
:1046800054E004EB8401C94A02EB8110FFF778FF84
:1046900004EB8401C54A02EB811101F58E701822EA
:1046A000BF4909F0D5FCBF48008804EB8401BF4A2C
:1046B00002EB8111A1F8FC0004EB8400114601EB30
:1046C0008010B8494988A0F8FE10B648818804EBEC
:1046D000840002EB8010A0F80011B248C18804EBFE
:1046E000840002EB8010A0F8021104EB8400114654
:1046F00001EB8010FC30AB4A9168D268C0E902122D
:10470000A848016904EB8400A84A02EB8010C0F8B5
:104710000C1104EB8400114601EB8010FC30A14B1E
:1047200059699A69DB6914300EC0641C042CA8DB3B
:1047300010BD30B52DED028B81B00446B0EE408A3D
:104740000D46002000909FEDA50A28EE000ABDEE60
:10475000C00A10EE101AA24A5388121D02EB03126F
:10476000501D6A46FEF734FC44F0704040F480610E
:104770009B484288001D00EB021001600098C1B206
:1047800097484288001D00EB02100171944841884F
:10479000001D00EB0110457391484088401C3221F8
:1047A00090FBF1F201FB12008D4948800121601E4F
:1047B00000EB80007D4A02EB801080F8101109F0B8
:1047C00017F9611E01EB8101784A02EB8111C1F8F2
:1047D000140101B0BDEC028B30BD10B5044604EBF2
:1047E0008400724901EB8010D0F80C01002802DA35
:1047F0004FF0FF3100E0012104EB84006B4A02EB33
:104800008010C069002802DA4FF0FF3000E001207C
:10481000814205D19FED730A734880ED000A04E0E0
:104820009FED720A704880ED000A04EB84005F4936
:1048300001EB8010D0F80C01002806DD04EB8400A9
:1048400001EB8010D0F80C0107E004EB840057491D
:1048500001EB8010D0F80C01404200EE100AB8EED7
:10486000C00A6148D0ED000AB2EE041A60EE810A77
:10487000B4EEE00AF1EE10FA23DD04EB84004B49BC
:1048800001EB801090ED080A04EB840001EB80102E
:10489000D0F80C01002802DA4FF0FF3000E00120D0
:1048A00000EE900AF8EEE00A4F4890ED001A00EE94
:1048B000810A04EB84003D4901EB801080ED030A7E
:1048C0001FE004EB8400394901EB8010D0F80C01A3
:1048D00000EE900AF8EEE00AB2EE041AC0EE811A79
:1048E000B0EE610A04EB840001EB8010D0ED080A01
:1048F00070EE800A04EB840001EB8010C0ED030A27
:1049000000BF04EB8401294A02EB811101F10C0084
:1049100003F0ABFD04EB8401244A02EB8111D1EDDD
:10492000030AB0EE600A611CC8B20021FFF701FF64
:1049300010BD30B52DED028B81B00446B0EE408A3B
:104940000D46002000909FED2A0A28EE000ABDEED9
:10495000C00A10EE101A224A5388121D02EB0312ED
:10496000501D6A46FEF734FB44F0704040F48071FD
:104970001B484288001D00EB021001600098C1B284
:1049800017484288001D00EB02100171144831E005
:104990000883002000007042148300202083002040
:1049A0002C83002044830020648400206483002042
:1049B00000000000713D0A3F0AD7233F8FC27540B7
:1049C0006F12833A4260E53BCDCC4C3E17B7D139EC
:1049D0008FC2F53CBD37863517B7D13800247449EE
:1049E0007472002000002A43280000200000B44216
:1049F00000007A444188001D00EB01104573F8481F
:104A00004088401C322190FBF1F201FB1200F44976
:104A100048800121601E00EB8000F24A02EB80100A
:104A200080F8101108F0E4FF611E01EB8101ED4AEE
:104A300002EB8111C1F8140101B0BDEC028B30BD55
:104A400070B5044604EB8402E64B03EB8212D2F805
:104A50003C1104EB840203EB821202F1080003F024
:104A600088FD04EB8400DF4901EB8010816804EBD2
:104A70008400DC4A02EB8010C0F8F81004EB8403D9
:104A8000154605EB8313DA6904EB840305EB831306
:104A9000996804EB840305EB831303F1C80001F06C
:104AA000FBFA04EB8400294601EB801090ED3A0AF2
:104AB00004EB840001EB8010D0ED4E0A20EE200ABA
:104AC00004EB840001EB801080ED010A04EB84010B
:104AD0002A4602EB8111D1ED480AB0EE600A04EBE0
:104AE000840102EB8111081D03F027FD04EB840112
:104AF0002A4602EB8111D1ED010AB0EE600A611C79
:104B0000C8B20021FFF715FF70BD10B52DED048B65
:104B100082B0044604EB8400B24901EB8010D0F867
:104B20000C01002802DA4FF0FF3100E0012104EB14
:104B30008400AC4A02EB8010C069002802DA4FF012
:104B4000FF3000E00120814205D11FED5A0AA6483E
:104B500080ED000A04E01FED5B0AA34880ED000A27
:104B600004EB84009F4901EB8010D0F80C01002871
:104B700006DD04EB840001EB8010D0F80C0107E0A7
:104B800004EB8400974901EB8010D0F80C014042FF
:104B900000EE100AB8EEC00A9348D0ED000AB2EE5B
:104BA000041A60EE810AB4EEE00AF1EE10FA23DD99
:104BB00004EB84008B4901EB801090ED080A04EBB4
:104BC000840001EB8010D0F80C01002802DA4FF0CD
:104BD000FF3000E0012000EE900AF8EEE00A824883
:104BE00090ED001A00EE810A04EB84007D4901EB90
:104BF000801080ED030A1FE004EB8400794901EB8B
:104C00008010D0F80C0100EE900AF8EEE00AB2EE47
:104C1000041AC0EE811AB0EE610A04EB840001EBC5
:104C20008010D0ED080A70EE800A04EB840001EBDE
:104C30008010C0ED030A00BF04EB8401694A02EB57
:104C4000811101F10C0003F010FC04EB84006549B4
:104C500001EB801090ED081AF0EE410A04EB84009D
:104C600001EB801090ED031AB0EE410A03F0E6FC70
:104C7000B0EE408A04EB84005A4901EB8010807842
:104C800018B1B1EE480AB0EE408A04EB84005549F1
:104C900001EB801090ED250A20EE080A8DED010A47
:104CA00004EB840001EB801090ED260A4F48D0ED14
:104CB000000A60EE200A4E4890ED000A08EE200A35
:104CC00080ED000A4B4890ED000A4848D0ED000AFC
:104CD00030EE200A474880ED000A474890ED000A70
:104CE000B4EE408AF1EE10FA02D15FEDCF8A17E000
:104CF00004EB84003B4901EB8010D0ED270A3D48CE
:104D000090ED001A80EE810A3B48D0ED000A78EE63
:104D1000600A60EE208A1FEDDA0A364880ED000A4C
:104D200004EB84002F4901EB8010D0ED290A3348B1
:104D300090ED000A30EE681A90ED000A00EEC10A0C
:104D400080ED000A90ED000AF0EE408AB7EE000A0E
:104D500001A803F0F2FB9DED010AB0EEC00AF7EEE8
:104D6000000A30EEC00AB0EE409A214803F0E5FB9D
:104D7000214880ED008A9DED010A1D48D0ED000A12
:104D800030EE200A30EE280A8DED000AF7EE000A18
:104D9000BFEE000A684603F0A9FB04EB840011494A
:104DA00001EB801090ED4E0ADDED000A20EE200AA6
:104DB00004EB840001EB801080ED010A04EB840019
:104DC00001EB801090ED010AB5EEC00AF1EE10FA89
:104DD00016DD04EB840001EB801090ED010A18E071
:104DE0007472002064830020280000202C00002022
:104DF0003000002038000020340000203C0000205B
:104E000004EB8400FE4901EB801090ED010AB1EE45
:104E1000400A04EB8400FA4901EB8010D0ED480A07
:104E2000B4EEE00AF1EE10FA21DD04EB840001EBB0
:104E3000801090ED010AB5EEC00AF1EE10FA02D230
:104E40004FF0FF3000E0012000EE100AB8EEC00A7B
:104E500004EB8400EA4901EB8010D0ED480A20EE13
:104E6000200A04EB840001EB801080ED010A04EBC2
:104E70008401E34A02EB8111D1ED010AB0EE600A30
:104E8000611CC8B20021FFF754FD02B0BDEC048BD9
:104E900010BDF8B504460E46154600200090D949CD
:104EA0004A88091D01EB0211481D6A463146FEF78A
:104EB0008FF844F0704040F44071D2484288001DA1
:104EC00000EB021001600098C1B2CE484288001D7C
:104ED00000EB02100171CB484188001D00EB01106E
:104EE0004573C8484088401C322190FBF1F201FB19
:104EF0001200C44948800121601E00EB8000C04AB6
:104F000002EB801080F8101108F072FD611E01EBB9
:104F10008101BB4A02EB8111C1F81401F8BD70B5E3
:104F20002DED048B044604EB8400B54901EB8010A1
:104F3000406904EB8401B24A02EB8111486404EB3E
:104F40008400114601EB8010407850B904EB8400D6
:104F500001EB8010D0F8080104EB840102EB811111
:104F6000486404EB8400A64901EB801090F824010A
:104F700048B3A548D0F88800002803DDA248D0F83F
:104F8000880003E0A048D0F88800404204EB840188
:104F90009B4A02EB8111D1F82811884213DD9A480F
:104FA000D0F88800002802DA4FF0FF3000E001203E
:104FB00004EB8401924A02EB8111D1F82811484395
:104FC0009149C1F8880004EB84008D4901EB801001
:104FD000816A04EB84008A4A02EB8010C16504EB0D
:104FE000840102EB811101F1440001F024F804EB8B
:104FF0008401834A02EB8111886D0BF09EFC41EC29
:10500000190BB0EE490AF0EE690A804803F0B5F8D2
:10501000B0EE408AF0EE608A51EC180B0BF030FCD9
:1050200004EB8401764A02EB81118865104690F802
:105030002C0178B304EB8400114601EB8010806DE5
:10504000002805DD04EB840001EB8010806D06E094
:1050500004EB84006A4901EB8010806D404268498E
:10506000D1F83011884215DD04EB8400644901EB6E
:105070008010806D002802DA4FF0FF3000E0012040
:105080005F49D1F83011484304EB84015C4A02EBDC
:105090008111886504EB8400594901EB8010D0F838
:1050A0000C01002806DD04EB840001EB8010D0F831
:1050B0000C0107E004EB8400514901EB8010D0F8AB
:1050C0000C0140423C2808DA012104EB84004C4AE0
:1050D00002EB801080F8431007E0002104EB84000D
:1050E000474A02EB801080F8431004EB8402444BE3
:1050F00003EB8212926D04EB8403414D05EB8313A5
:1051000093F8343102FB03F1621CD0B20022FFF7A6
:10511000C0FEBDEC048B70BD30B52DED028B81B0AF
:105120000446B0EE408A0D46002000909FED380AFC
:1051300028EE000ABDEEC00A10EE101A314A53885C
:10514000121D02EB0312501D6A46FDF741FF44F0A9
:10515000704040F480612B484288001D00EB021033
:1051600001600098C1B227484288001D00EB021080
:10517000017124484188001D00EB0110457321484E
:105180004088401C322190FBF1F201FB12001D49C6
:1051900048800121601E00EB8000194A02EB80105C
:1051A00080F8101108F024FC611E01EB8101144A03
:1051B00002EB8111C1F8140101B0BDEC028B30BDCE
:1051C00030B52DED028B81B00446B0EE408A0D461D
:1051D000002000909FED0E0A28EE000ABDEEC00AE6
:1051E00010EE101A074A5388121D02EB0312501DCD
:1051F0006A46FDF7EDFE44F0704002494A8809E036
:105200006483002074720020487C0020BC8F002042
:1052100000247449091D01EB021108600098C1B215
:105220006A484288001D00EB0210017167484188FE
:10523000001D00EB0110457364484088401C32217A
:1052400090FBF1F201FB1200604948800121601ED1
:1052500000EB80005E4A02EB801080F8101108F02D
:10526000C7FB611E01EB8101594A02EB8111C1F8B4
:10527000140101B0BDEC028B30BD30B52DED028BB9
:1052800081B00446B0EE408A0D46002000909FEDAC
:10529000510A28EE000ABDEEC00A10EE101A4B4A61
:1052A0005388121D02EB0312501D6A46FDF790FE53
:1052B00044F0704040F0020144484288001D00EB79
:1052C000021001600098C1B240484288001D00EB06
:1052D000021001713D484188001D00EB011045732B
:1052E0003A484088401C322190FBF1F201FB120049
:1052F000364948800121601E00EB8000344A02EBF1
:10530000801080F8101108F073FB611E01EB810121
:105310002F4A02EB8111C1F8140101B0BDEC028BE0
:1053200030BD30B52DED028B81B00446B0EE408A21
:105330000D46002000909FED270A28EE000ABDEEE2
:10534000C00A10EE101A214A5388121D02EB0312F4
:10535000501D6A46FDF73CFE44F0704040F00C01E1
:105360001A484288001D00EB021001600098C1B28B
:1053700016484288001D00EB021001711348418855
:10538000001D00EB0110457310484088401C32217D
:1053900090FBF1F201FB12000C4948800121601ED4
:1053A00000EB80000A4A02EB801080F8101108F030
:1053B0001FFB611E01EB8101054A02EB8111C1F85F
:1053C000140101B0BDEC028B30BD000074720020EE
:1053D0006483002000007A4430B50246002301298E
:1053E00004D10120CC4C2072062303E00120CA4CDA
:1053F00060720823002029E000256724444302EB63
:10540000C40425616724444302EBC4042573672464
:10541000444342F834506724444302EBC4046560BB
:105420006724444302EBC404E5826724444302EB4F
:10543000C404A5826724444302EBC404A560672426
:10544000444302EBC40484F82550401C9842D3DB4B
:1054500030BD2DE9F04105460E4617464FF00008D5
:10546000012F02D14FF0060801E04FF00808002498
:1054700094E06720604305EBC000006901287DDBF4
:105480003046FDF70AFF08B1BDE8F08167216143AE
:1054900005EBC10101F11400FDF7F6FE30B100216A
:1054A0006720604305EBC0008160EDE76720604343
:1054B00005EBC0000069401E6721614305EBC10197
:1054C00008616720604305EBC00018306721614325
:1054D00005EBC101898A00EB011072880168301D5B
:1054E00000EB021001606720604305EBC00018303C
:1054F0006721614305EBC101898A00EB0110017945
:105500007288301D00EB021001716720604305EBCB
:10551000C00018306721614305EBC101898A00EBA7
:105520000110417B7288301D00EB0210417367232C
:10553000634305EBC30318334FF0670C04FB0CFC0B
:1055400005EBCC0CBCF814C003EB0C13591DB6F8DA
:1055500002C0331D03EB0C131A79331D03EB0C133C
:10556000581D08F030FD3088401C322190FBF1F2CC
:1055700001FB120030806720604300E00DE005EB86
:10558000C000808A401C90FBF1F201FB120081B246
:105590006720604305EBC0008182641C4445FFF630
:1055A00068AF00BF70E72DE9F04104460E4617468C
:1055B0004FF00008FF253188301D00EB0110407BC3
:1055C00008B9BDE8F081012F02D14FF0060809E0CB
:1055D0004FF008083188301D00EB01100088A0F260
:1055E000013085B245450DDA6721694304EBC101FD
:1055F00001F11400FDF751FE48B1012F03D1012044
:105600004549887286E001204349C87282E06720DC
:10561000684304EBC0000069401C6721694304EB48
:10562000C10108616720684354F83000401C6721BD
:10563000694344F831003188301D00EB01100268E5
:105640006720684304EBC00018306721694304EB0E
:10565000C101C98A00EB011002603188301D00EBE6
:10566000011002796720684304EBC00018306721FD
:10567000694304EBC101C98A00EB01100271318852
:10568000301D00EB0110427B6720684304EBC00033
:1056900018306721694304EBC101C98A00EB01108E
:1056A000427367236B4304EBC30318334FF0670C5B
:1056B00005FB0CFC04EBCC0CBCF816C003EB0C1384
:1056C0001A7967236B4304EBC30318334FF0670C5D
:1056D00005FB0CFC04EBCC0CBCF816C003EB0C1364
:1056E000581DB6F800C0331D03EB0C13591D08F00C
:1056F0006AFC6720684304EBC000C08A401C32216A
:1057000090FBF1F201FB120081B26720684304EBC9
:10571000C000C18200BF54E7501F002010B59FEDAC
:10572000FD0BFE4880ED020B1520FC49088023206C
:10573000088240F6B83048829FEDF60BF84880EDBD
:10574000020B0C20F64908801E2008824FF4FA60F4
:1057500048820020F34908709FEDF30A084680ED67
:10576000010A012008724FF4FA6048804010EF49A6
:105770004881282008811822E849ED4808F068FC93
:105780000020EB491039087005204870002088700F
:105790009FEDE80A084680ED0B0A9FEDE60A80EDD2
:1057A0000A0A9FEDE40A80ED0C0ADE4B0ECB543062
:1057B0000EC01822D949103008F04AFC0020DC49FC
:1057C000103981F860000521D948103880F861103F
:1057D000002180F862109FEDD70A80ED230A9FED2B
:1057E000D50A80ED220A9FEDD30A80ED240A6030AD
:1057F000CC4B0ECB54300EC01822C849103008F0E4
:1058000027FC0020CA49103981F8C0000521C8488A
:10581000103880F8C110002180F8C2109FEDC50A31
:1058200080ED3B0A9FEDC30A80ED3A0A9FEDC10A65
:1058300080ED3C0AC030BB4B0ECB54300EC018225A
:10584000B649103008F004FC0020B949103981F83D
:1058500020010521B648103880F82111002180F878
:1058600022119FEDB40A80ED530A9FEDB20A80ED3C
:10587000520A9FEDB00A80ED540A00F59070A94BD2
:10588000D3E900219B68C0E916134265002035E08A
:10589000A649096800EB4002A54B103B03EB4212FE
:1058A0001164A2498A8800EB400103EB4111A1F881
:1058B000442000EB40011A4602EB41119B4AD2F80A
:1058C000063041F8463F52898A809849CA6800EB01
:1058D0004001974B103B03EB4111CA6493490A699D
:1058E00000EB400103EB41110A654FF4FA6200EB53
:1058F000400103EB4111A1F85620401C0428C7DBEE
:1059000010BD072101EB40228B494B88091D01EB9B
:1059100003110A60042288494B88091D01EB031119
:105920000A71411E01EB4101814A103A02EB41111B
:105930000A7881494B88091D01EB03114A71002245
:105940007D494B88091D01EB03118A717A494B8807
:10595000091D01EB0311CA7177494B88091D01EB41
:1059600003110A7274494988491C322291FBF2F3EF
:1059700002FB1311704A518070470B2141EA40220B
:105980006D494B88091D01EB03110A6008226A4921
:105990004B88091D01EB03110A71411E01EB410106
:1059A000634A103A02EB41114978022909D00529CE
:1059B0000FD1032260494B88091D01EB03114A7185
:1059C00000BF02225C494B88091D01EB03114A719B
:1059D00000BF00BF002258494B88091D01EB03118D
:1059E0008A7155494B88091D01EB0311CA7152494F
:1059F0004B88091D01EB03110A72411E01EB4101A5
:105A00004B4A103A02EB41118A784B494B88091DE9
:105A100001EB03114A72002247494B88091D01EB33
:105A200003118A7244494B88091D01EB0311CA72A4
:105A300041494B88091D01EB03110A733E4949880E
:105A4000491C322291FBF2F302FB13113A4A5180B6
:105A50007047162141EA402237494B88091D01EB66
:105A600003110A60042234494B88091D01EB03111C
:105A70000A71002230494B88091D01EB03114A715C
:105A80002D494B88091D01EB03118A712A494B8866
:105A9000091D01EB0311CA7127494B88091D01EB50
:105AA00003110A7224494988491C322291FBF2F3FE
:105AB00002FB1311204A51807047182141EA40220D
:105AC0001D494B88091D01EB03110A6008221A4980
:105AD0004B88091D01EB03110A71002216494B88FE
