:020000040800F2
:1000000078D80020F9B80008898400088B8400089B
:100010009D840008A1840008A58400080000000059
:10002000000000000000000000000000A98400089B
:10003000AB840008000000007FDB0008E3DD00085F
:1000400013B9000813B9000813B9000813B9000860
:1000500013B9000813B9000813B9000813B9000850
:1000600013B9000813B9000813B9000813B9000840
:1000700013B9000813B900085D2C000813B9000873
:1000800013B90008AF08000813B9000813B9000835
:10009000B917000813B9000813B9000813B900080C
:1000A00013B9000813B9000813B9000813B9000800
:1000B00053050008FF30000813B9000813B9000801
:1000C00013B9000813B9000813B9000813B90008E0
:1000D00013B90008512E0008D5080008B12C0008FB
:1000E00013B9000813B9000813B9000813B90008C0
:1000F00013B9000813B9000813B9000813B90008B0
:1001000013B9000813B900089D1C000813B90008B2
:1001100013B9000813B9000813B9000813B900088F
:1001200013B9000813B9000813B9000813B900087F
:1001300013B9000813B9000813B9000813B900086F
:100140005B210008CD22000813B9000813B900088C
:1001500013B9000813B900082B2E000813B90008C2
:1001600013B9000813B9000813B9000813B900083F
:1001700013B9000813B9000813B9000813B900082F
:1001800013B9000813B9000800F002F800F053F8A2
:100190000AA090E8000C82448344AAF10107DA45E2
:1001A00001D100F048F8AFF2090EBAE80F0013F0E1
:1001B000010F18BFFB1A43F0010318478014010018
:1001C000A0140100103A24BF78C878C1FAD85207A9
:1001D00024BF30C830C144BF04680C6070470000C1
:1001E0000023002400250026103A28BF78C1FBD840
:1001F000520728BF30C148BF0B60704764290DF01B
:10020000D786002070471FB510F08BFF9DE80300D4
:100210000EF012F80EF08CFC04000020002110F00B
:100220005FF9401C60600020002110F043F9E0609D
:100230001FBD10B510BD0EF082F91146FFF7E3FFA8
:1002400000F0F1F80EF0FAFB03B4FFF7F2FF03BC85
:100250000EF068FC06E0012005F086FE4FF47A708F
:100260000DF096FBF7E707E08C498D4803F04EF858
:100270004FF47A700DF08CFBF6E706E0874988486A
:1002800003F044F802200DF083FBF7E709E007F0E4
:100290000AFF8448007805F0BFFF4FF47A700DF034
:1002A00077FBF4E749E08048B0F9180000EE900AC7
:1002B000F8EEE00AB0EE600A012008F005F87A488E
:1002C000B0F9160000EE900AF8EEE00AB0EE600A0F
:1002D000022007F0F9FF7448B0F9140000EE900A0C
:1002E000F8EEE00AB0EE600A032007F0EDFF04200C
:1002F000B1EE000A07F0E8FF0520B1EE040A07F0AE
:10030000E3FF0620B1EE080A07F0DEFF0720B1EE9A
:100310000C0A07F0D9FF0820B2EE000A07F0D4FF5C
:100320000920B2EE020A07F0CFFF0A20B2EE040A5B
:1003300007F0CAFF64200DF02BFBB4E730E05B4808
:10034000007807F011FE32200DF022FB022007F0AA
:100350000BFE32200DF01CFB032007F005FE3220BF
:100360000DF016FB0021012007F029FB00210120E0
:1003700007F0BAFC64200DF00BFB0021022007F00F
:100380001EFB0021022007F0AFFC64200DF000FBF3
:100390000021032007F013FB0021032007F0A4FC39
:1003A000CDE703E04FF4FA600DF0F2FAFAE770B52A
:1003B0000446002500BF0DF02AFD00F0E0FD0DF021
:1003C000BDFB054607233A4A00213A480CF09AFF44
:1003D0000923394A002139480CF094FF1223384A86
:1003E000002138480CF08EFF0823374A0021374897
:1003F0000CF088FF1023364A002136480CF082FFAB
:100400001223354A002135480CF07CFF1423344A6E
:10041000002134480CF076FF05200DF0F1F9284654
:100420000DF090FB70BD10B50BF0CCF94FF480616E
:1004300001F007022C4B18684FF6FF0318402B4BB6
:10044000034343EA0220284B186000BF062142F60E
:10045000DF6000F053F801F0F1FB01F0A1F801F0CA
:10046000CFFC02F043FC00F087F902F05DFB05F0E1
:10047000B3FE02F03DFF02211D4804F0C7FF02F069
:10048000D7FA0BF091FB05231A4A00211A480CF009
:1004900039FF0BF0B0FC002010BD00008C72002072
:1004A0000068004001000020607C00200000002067
:1004B000D4080020A3030008D40E00203D03000848
:1004C000D40A0020A5020008D41E00208D020008D6
:1004D000D41200207B020008D41600206702000816
:1004E000D41A0020550200080CED00E00000FA05C7
:1004F00050220020D4040020AF0300087FB5054639
:100500000C460121084609F084FF0295ADF804402D
:100510000020ADF80600ADF80C0001A94FF08040B6
:100520000AF02FF91C208DF8000001208DF8010041
:100530008DF802008DF80300684608F04CFD01229A
:10054000114690070AF0BEFD012188070AF0A2F9C2
:100550007FBD10B5012188070AF0CBFD01286FD1BE
:10056000012180070AF0D6FD002432E004EBC4002C
:1005700000EB4000784911F8300028B304EBC400C8
:1005800000EB400001EBC0004078F0B104EBC40088
:1005900000EB400001EBC0008078012806D0022863
:1005A00005D004280BD005280DD104E00CE020B2C2
:1005B00003F0B2FA08E020B203F0E1FB04E020B25D
:1005C00003F006FB00E000BF02E020B203F0D7FB1F
:1005D000641C052CCADB604CB4F98E32B4F9B62128
:1005E000B4F9DE10B4F9060003F02FFF03F089FF21
:1005F0005A495B4802F08AFE5A48407A20B10222EA
:100600005649594804F03FFF00249CE0C4EB041015
:10061000564901EB8000407800287CD0C4EB0410E0
:1006200001EB80008078002875D0C4EB041011F82D
:100630002000012805D0022818D0052873D13AE0FF
:1006400088E0C4EB0411494A02EB810191ED030AF1
:10065000B0EE402AE0B2DFED461A9FED451ADFED1D
:10066000440A9FED430A05F044FF6AE0C4EB04111D
:100670003E4A02EB810191ED030AB0EE402AC4EB41
:10068000041102EB8101B1F9381000EE101AB8EE36
:10069000C00AF0EE401AC4EB041102EB810191EDA7
:1006A000040AF0EE400AE0B29FED311A9FED300AE5
:1006B00005F01FFF45E0C4EB04112C4A02EB810159
:1006C000D1ED032AB0EE622AC4EB041102EB8101E2
:1006D000B1F9381002EE901AF8EEE22AF0EE621A42
:1006E000C4EB041102EB8101B1F9361002EE901A4D
:1006F000F8EEE22AB0EE621AC4EB041102EB8101BB
:10070000D1ED042AF0EE620AC4EB041102EB810180
:10071000D1ED022A01E015E005E0B0EE620AE0B298
:1007200005F0E7FE0DE0E0B29FED112ADFED101AB3
:100730009FED0F1ADFED0E0A9FED0D0A05F0D9FEB1
:1007400000BF00BF641C062CFFF660AF09490448D7
:1007500002F0DCFD10BD0000607C0020446C002035
:1007600000680040581F002050220020608A0020AE
:1007700000000000B075002000B597B001210846C8
:1007800009F014FE0121480409F043FE0121480547
:1007900009F00CFE07220221FE4809F04CFC07225A
:1007A0000321FC4809F047FC0C20119002208DF831
:1007B000480000208DF84A0003208DF849000020F1
:1007C0008DF84B0011A9F34809F0AAFB4FF4E13072
:1007D00013900020ADF85000ADF85200ADF8540071
:1007E000ADF858000C20ADF8560013A9EA480AF0FD
:1007F000BBFD012240F22551E7480AF0F3FE262016
:100800008DF8400004208DF8410001208DF8420051
:100810008DF8430010A808F0DEFB0121DE480AF045
:100820002BFEDE4809F03AF94FF0006001900020FD
:10083000059040200490DA480390D748001D0290AC
:100840000015079000200690099008900A904FF438
:1008500040300B9000200C9001200D9000200F9054
:100860000E9001A9CD4809F0BBF9CE49CB4809F05B
:100870006AFACC49C94809F0C1FA01221021C748D7
:1008800009F075FA11208DF8400007208DF841001D
:1008900001208DF842008DF8430010A808F09BFB62
:1008A00001228021BC480AF094FE17B000BD10B5AB
:1008B000BC49BA4809F078FA01280AD1B949B748C1
:1008C00009F041FAB749B54809F098FA0020B6494D
:1008D000C87310BD70B52DED028B002440F2253198
:1008E000AD480AF0BAFE50B1AB480AF0F4FD002062
:1008F000AE4908702021AE480DF05CFC31E340F2B7
:100900002551A5480AF0A9FE0028F7D02021A248C9
:100910000AF09AFE40F225519F480AF0D5FE9E4803
:100920000AF0D9FDC4B2A148007800F0400008B335
:100930009E48007800F0800020BBFF2C06D19B4829
:10094000007840F08000994908701BE097480078D3
:1009500000F03F019648445494480078401C934965
:1009600008700846007800F03F0028280ADD0020C3
:10097000087007E0EE2C05D18C48007840F040006C
:100980008A4908708948007800F080000028B5D0B6
:10099000884890F82102012804D1864890F8230263
:1009A00085490870834890F8230230B1012805D0AA
:1009B000022879D0032800D111E1C9E27D4890F8DE
:1009C0002502082822D17B4890F8260211281DD143
:1009D000784890F82702302806D0312808D03228ED
:1009E0000AD0332810D10BE00020744908700CE0C5
:1009F00001207249087008E002207049087004E084
:100A000003206E49087000E000BF00BF694890F8FD
:100A10002502092821D1674890F8260210281CD108
:100A2000644890F8280258B1012814D16349097824
:100A300001EBC10101EB4101614A02F831000BE019
:100A400000205E49097801EBC10101EB41015C4ADC
:100A500002F8310000E000BF00BF564890F82502C0
:100A60000A2824D1534890F8260210281FD1514853
:100A700090F8280260B1012817D15049097801EB9C
:100A8000C10101EB41014E4A02EBC10148700DE08A
:100A900000204A49097801EBC10101EB4101484AB4
:100AA00002EBC101487001E07BE100BF00BF41489B
:100AB00090F82502032834D13E4890F826021128E8
:100AC0002FD13C4890F82702322804D034280ED089
:100AD000352824D117E002203849097801EBC101FB
:100AE00001EB4101364A02EBC101887018E0042095
:100AF0003249097801EBC10101EB4101304A02EBB7
:100B0000C10188700CE005202C49097801EBC10176
:100B100001EB41012A4A02EBC101887000E000BFED
:100B200000BF244890F8250201281CD1214890F8E4
:100B30002602112817D11E48C01D0EF081FEB0EE0E
:100B4000408AF0EE608A51EC180B0FF061FF01B2A1
:100B50001A48007800EBC00000EB4000184A02EB96
:100B6000C0000181F4E1134890F82502022835D134
:100B7000104890F82602112830D10D48C01D0EF003
:100B80005FFEB0EE408AF0EE608A51EC180B0FF079
:100B90003FFF17E00000024000440040A060024018
:100BA0008D20002000802020581F002003000020FE
:100BB0008D2100206D1F0020020000200500002074
:100BC000607C002000B2FE49097801EBC10101EB15
:100BD0004101FC4A02EBC1018880B9E1B8E1FA4861
:100BE00090F82502082822D1F74890F8260211280B
:100BF0001DD1F54890F82702302812D0312804D0B2
:100C0000322806D0332810D107E00120EF490870C0
:100C10000CE00220ED49087008E00320EB49087061
:100C200004E00020E949087000E000BF00BFE6488A
:100C300090F8250209281FD1E34890F826021028D1
:100C40001AD1E14890F8280250B1012812D1DF49A9
:100C5000097801EB4111DE4A02EB810148700AE09C
:100C60000020DA49097801EB4111D94A02EB8101F0
:100C7000487000E000BF00BFD34890F825020A2862
:100C80001FD1D14890F8260210281AD1CE4890F8EA
:100C9000280250B1012812D1CC49097801EB411149
:100CA000CB4A02EB810188700AE00020C74909782D
:100CB00001EB4111C64A02EB8101887000E000BFE0
:100CC00000BFC14890F82502032825D1BE4890F8FE
:100CD0002602112820D1BC4890F82702322804D0DF
:100CE000342809D0352815D10DE000220221B7485B
:100CF000007805F0B4FE0EE000220421B34800782D
:100D000005F0ADFE07E000220521B048007805F0AF
:100D1000A6FE00E000BF00BFAB4890F82502012806
:100D20001CD1A94890F82602112817D1A9480EF025
:100D300087FDB0EE408AF0EE608A51EC180B0FF0A0
:100D400097FEC5B201222946A048007806F0C5FAF0
:100D500000219E48007806F062F8F9E09A4890F881
:100D6000250202281CD1984890F82602112817D194
:100D700098480EF065FDB0EE408AF0EE608A51ECC6
:100D8000180B0FF045FE0546012229468F480078D2
:100D900006F0E5F800218D48007806F040F8D7E02D
:100DA000D6E0894890F82502082822D1864890F894
:100DB000260211281DD1844890F82702302812D02D
:100DC000312804D0322806D0332810D107E0012082
:100DD000814908700CE002207F49087008E0032078
:100DE0007D49087004E000207B49087000E000BFE6
:100DF00000BF754890F8250209281FD1724890F865
:100E0000260210281AD1704890F8280250B1012803
:100E100012D17149097801EB8101704A02EB81110D
:100E200008700AE000206C49097801EB81016B4AE7
:100E300002EB8111087000E000BF00BF624890F82B
:100E400025020A281FD1604890F8260210281AD1DE
:100E50005D4890F8280250B1012812D15E49097806
:100E600001EB81015D4A02EB811148700AE000202C
:100E70005949097801EB8101584A02EB8111487008
:100E800000E000BF00BF504890F82502032822D19F
:100E90004D4890F8260211281DD14B4890F82702A2
:100EA000322802D0352814D109E002204A490978B5
:100EB00001EB8101494A02EB8111C8700AE005206B
:100EC0004549097801EB8101444A02EB8111C87060
:100ED00000E000BF00BF3C4890F82502012818D16F
:100EE000394890F82602112813D13A480EF0A8FC90
:100EF000B0EE408AF0EE608A51EC180B0FF088FDDE
:100F00003549097801EB8101344A02EB811188608F
:100F10001EE02D4890F82502022818D12A4890F8A2
:100F20002602112813D12B480EF08AFCB0EE408A1D
:100F3000F0EE608A51EC180B0FF06AFD2649097833
:100F400001EB8101254A02EB8111486100E000BFFD
:100F500000BF00202249087020211E48C01F0DF04C
:100F600029F9BDEC028B70BD10B5044621461D4821
:100F700008F091FE01211B4808F06CFE10BD70B511
:100F80002DED028B0024EE222146641C16484254AB
:100F9000B1222146641C425410222146641C425452
:100FA00000222146641C42542146641C42542146BE
:100FB000641C425405222146641C4254102215E050
:100FC00005000020607C00206D1F00200400002030
:100FD000CC8B002094210020060000207C83002080
:100FE00003000020A06002408D2000202146601CEC
:100FF000C4B2FE48425400222046611CCCB2FB49D8
:101000000A5401222146601CC4B2F8484254FF220F
:101010002046611CCCB2F5490A54FC222046611CD2
:10102000CCB2F2490A54FF222046611CCCB2EF49EF
:101030000A542046611CCCB2EC490A54EC480078B2
:10104000012804D002287DD003287CD1DFE0EE22E5
:101050002146601CC4B2E5484254B1222046611CBE
:10106000CCB2E2490A5412222046611CCCB2DF49BC
:101070000A5400222046611CCCB2DC490A540122E9
:101080002046611CCCB2D9490A540025BBE005EBCF
:10109000C50000EB4000D74901EBC0008078002874
:1010A0007DD000222046611CCCB2D0490A540122D6
:1010B0002046611CCCB2CD490A5400222046611C56
:1010C000CCB2CA490A5405EBC50000EB4000C9493F
:1010D00001EBC000B0F91820C7A1C8480CF020FFF0
:1010E000C6480CF0C5FFC2B22046611CCCB2BF4955
:1010F0000A540819C1490CF097FFC0480CF0B8FF1A
:101100002044C4B200222046611CCCB2B7490A5424
:1011100002222046611CCCB2B4490A540022204667
:10112000611CCCB2B1490A5405EBC50000EB40008C
:10113000B04901EBC000B0F91420AFA1AF480CF0EA
:10114000EFFE01E034E11DE2AC480CF091FFC2B2C9
:101150002046611CCCB2A5490A540819A7490CF0D5
:1011600063FFA6480CF084FF2044C4B2002220464E
:10117000611CCCB29D490A5409222046611CCCB2A4
:101180009A490A5410222046611CCCB297490A544D
:1011900001222046611CCCB294490A5400E031E09F
:1011A00005EBC50000EB4000924901EBC00042781E
:1011B0002046611CCCB28D490A5400222046611C95
:1011C000CCB28A490A540A222046611CCCB2874913
:1011D0000A5410222046611CCCB284490A540122D0
:1011E0002046611CCCB281490A5405EBC50000EBD6
:1011F0004000804901EBC00042782046611CCCB21F
:101200007A490A546D1C042DFFF641AFBBE1EE2272
:101210002046611CCCB275490A54B1222046611C9B
:10122000CCB272490A5412222046611CCCB26F49DA
:101230000A5400222046611CCCB26C490A54032295
:101240002046611CCCB269490A540025ACE005EB8C
:1012500045106B4911F8200000287DD0002220465F
:10126000611CCCB261490A5401222046611CCCB2F7
:101270005E490A5400222046611CCCB25B490A54E4
:1012800005EB45105E4901EB8000026A5AA15B48FC
:101290000CF046FE59480CF0EBFEC2B22046611C31
:1012A000CCB252490A54081954490CF0BDFE5348B7
:1012B0000CF0DEFE2044C4B200222046611CCCB2F9
:1012C0004A490A5402222046611CCCB247490A54BA
:1012D00000222046611CCCB244490A5405EB45105B
:1012E000474901EB8000B0F91C2043A143480CF0B2
:1012F00017FE42480CF0BCFEC2B22046611CCCB2C4
:101300003A490A5408193D490CF08EFE3B480CF04E
:10131000AFFE2044C4B200222046611CCCB2334947
:101320000A5409222046611CCCB230490A541022CA
:101330002046611CCCB22D490A5401222046611C72
:10134000CCB22A490A5405EB45102D4901EB800027
:1013500042782046611C00E025E0CCB223490A54C3
:1013600000222046611CCCB220490A540A222046A1
:10137000611CCCB21D490A5410222046611CCCB21B
:101380001A490A5401222046611CCCB217490A545A
:1013900005EB45101A4901EB800042782046611C9C
:1013A000CCB212490A546D1C042DFFF650AFEAE08E
:1013B000EE222046611CCCB20C490A54B1222046D0
:1013C000611CCCB209490A5412222046611CCCB2DD
:1013D00006490A5400222046611CCCB203490A5433
:1013E00002222046611CCCB200490BE08D20002077
:1013F00002000020607C002025640000D81E002030
:10140000CC8B00200A540025B8E005EB850061492B
:1014100001EB8010C07800287ED000222046611C9D
:10142000CCB25D490A5401222046611CCCB25A4913
:101430000A5400222046611CCCB257490A5405EBDD
:101440008500544901EB8010C269AFF25401534842
:101450000CF066FD51480CF00BFEC2B22046611C38
:10146000CCB24D490A5448194C490CF0DDFD4B48AB
:101470000CF0FEFD2044C4B200222046611CCCB218
:1014800045490A5402222146601CC4B242484254D3
:1014900000222046611CCCB23F490A5405EB85006E
:1014A0003C4A02EB801090ED080A10EE101A084634
:1014B0000FF090FD41EC180B53EC182BAFF2C80164
:1014C00036480CF02DFD35480CF0D2FDC2B2204656
:1014D000611CCCB230490A54481930490CF0A4FDC3
:1014E0002E480CF0C5FD2044C4B200222046611CE9
:1014F000CCB229490A5409222146601CC4B22648AC
:10150000425410222046611CCCB223490A540122C5
:101510002146601CC4B200E02FE01F48425405EB96
:1015200085001C4901EB801042782046611CCCB23A
:1015300019490A5400222046611CCCB216490A54AB
:1015400009222146601CC4B213484254102220468E
:10155000611CCCB210490A5401222046611CCCB255
:101560000D490A5405EB85000A4901EB80104278C9
:101570002146601CC4B2084842546D1C042DFFF67D
:1015800044AF00E000BF00BF2046FFF7EDFCBDEC1C
:10159000028B70BD7C8300208D200020D81E00208F
:1015A00000B58BB00121480608F033FF0121084641
:1015B00008F0FCFE09220B21FE4808F03CFD092240
:1015C0000C21FC4808F037FD02208DF81C004FF478
:1015D000C050069006A9F74808F0A2FC00208DF83C
:1015E00026008DF827008DF828008DF829008DF849
:1015F0002A008DF82B008DF822008DF8230008209A
:101600008DF8240003208DF82500ADF8200008A9EE
:10161000E94807F064FD14208DF8040003208DF8DC
:10162000050000208DF8060001208DF8070001A8B4
:1016300007F0D1FC01208DF812008DF81300002076
:101640008DF8140046F2A000ADF8080046F2C00084
:10165000ADF80A0046F2E000ADF80C004FF4C240CD
:10166000ADF80E000020ADF8100001208DF8150037
:1016700002A807F0BEFD02208DF8120001208DF8AF
:10168000130000208DF814004FF4C840ADF8080096
:1016900046F22000ADF80A0046F24000ADF80C001A
:1016A00046F26000ADF80E000020ADF810000120F9
:1016B0008DF8150002A807F09CFD03208DF812009C
:1016C00001208DF8130000208DF814004FF4C04065
:1016D000ADF808000020ADF80A00ADF80C00ADF838
:1016E0000E00ADF8100001208DF8150002A807F0DB
:1016F00080FDB14807F0DAFC08A807F0FBFD0122E5
:101700000221AD4808F074F80BB000BD10B501F52A
:101710004072AA4B5C881B1D03EB04131A60042360
:10172000A64A5488121D02EB0412137110BD70B545
:1017300005460E46144606F54070A1494A88091D23
:1017400001EB0211086008219D484288001D00EB52
:1017500002100171AA7A9A494B88091D01EB031105
:10176000481D05F10B010CF0AEFC2178944842882D
:10177000001D00EB02104172617891484288001D03
:1017800000EB02108172A1788D484288001D00EBA9
:101790000210C172E1788A484288001D00EB0210F5
:1017A000017387484088401C322190FBF1F201FB15
:1017B00012008349488070BD30B585B002217E4853
:1017C00008F07EF800287BD002217B4808F013F94E
:1017D0000221794808F051F86A460021764807F05E
:1017E000ECFE0098C5B20098B0F5407F69D19DF835
:1017F0000B004D281FD19DF80C004F281BD1002451
:1018000013E09DF80F0000F0010004EB84016D4A25
:1018100002EB8111087004EB8400114601EB80108B
:10182000007808B100204870641C042CE9DB2946CC
:101830006846FFF76BFF9DF80B0053281CD19DF8FD
:101840000C00542818D1002410E004EB84015D4AF8
:1018500002EB8111896A00EE901AF8EEE00AB0EE10
:10186000600AE0B2002102F07EFF641C042CECDB75
:1018700029466846FFF74AFF9DF80B00422813D11E
:101880009DF80C0047280FD1002407E0012004EB4D
:1018900084014C4A02EB81114870641C042CF5DB76
:1018A00029466846FFF732FF9DF80B0050281BD1F0
:1018B0009DF80C00582817D1681CC5B2002411E00F
:1018C000ADE14EE004EB84013E4A02EB811101F1EF
:1018D00028003D4901F086FB3B4A29466846FFF750
:1018E00026FF641C042CEDDB9DF80B00562819D153
:1018F0009DF80C00582815D1A81CC5B200240FE093
:1019000004EB84012F4A02EB811101F11C002E49E6
:1019100001F068FB2C4A29466846FFF708FF641C63
:10192000042CEDDB9DF80B00492819D19DF80C0023
:10193000512815D1E81CC5B200240FE004EB840146
:10194000204A02EB811101F118001F4901F036FB1A
:101950001D4A29466846FFF7EAFE641C042CEDDBAD
:1019600000BF0098B0F5407F1FD90098B0F5417FC7
:101970001BD80098401EC5B29DF80B004A2814D110
:101980009DF80C00562810D110490DF10E0001F001
:1019900052FB0E48016805EB85000A4A02EB8010F5
:1019A000C16129466846FFF7B1FE0098B0F5987FFF
:1019B0007CD90DE00000024000640040446C00202F
:1019C000686F00207C830020080000200C000020AD
:1019D0000098B0F59A7F76D89DF80B00532812D165
:1019E0009DF80C0054280ED10098401FC5B200206D
:1019F00005EB85018B4A02EB8111487020252946B1
:101A00006846FFF783FE9DF80B00422812D19DF82F
:101A10000C0047280ED10098401FC5B2002005EBEE
:101A20008501804A02EB81114870202529466846CD
:101A3000FFF76CFE9DF80B00502826D19DF80C0096
:101A4000582822D10098A0F23110C5B276490DF184
:101A50000F0001F0F0FA744890ED000AB8EEC00AE9
:101A6000DFED720A80EE201ABDEEC10A10EE100AF8
:101A700000B205EBC50101EB41016D4A02EBC1016A
:101A8000888029466846FFF741FE9DF80B004D28E7
:101A900019D19DF80C004F2815D10098A0F23110F3
:101AA000C5B29DF80F0010B1012001E00BE000204D
:101AB00005EBC50101EB41015D4A02F83100294601
:101AC0006846FFF723FE0098B0F5487F31D10098B3
:101AD000A0F54870C5B29DF80B004D282AD19DF89D
:101AE0000C004F2826D100201DE09DF8101009B1F0
:101AF000012100E0002100EBC00202EB42024C4B4E
:101B000003F8321000EBC00101EB41011A4612F854
:101B1000311039B9002100EBC00202EB420203EBA5
:101B2000C2025170401C0428DFDB29466846FFF7DB
:101B3000EDFD73E09DF80B0053281ED19DF80C00BD
:101B400050281AD1002415E03A490DF10F0001F098
:101B500072FA3848008881B204EBC40000EB400000
:101B6000334A02EBC000A0F8461029466846FFF74A
:101B7000CDFD641C042CE7DB50E09DF80B005028E1
:101B800028D19DF80C00582824D100201BE000EB40
:101B9000C00101EB4101264A02EBC101898A64229E
:101BA00011FB02F1244A11541146095C0A120DF18D
:101BB0000B0101F8102020490B5C4100491C0DF17C
:101BC0000B025354401C0428E1DB29466846FFF70A
:101BD0009DFD23E000201BE000EBC00101EB410173
:101BE000134A02EBC101898A642211FB02F1124AF5
:101BF00011541146095C0A120DF10B0101F8102075
:101C00000D490B5C4100491C0DF10B025354401C63
:101C10000428E1DB29466846FFF778FD00BF05B0E0
:101C200030BD00007C830020100000200000C8426E
:101C3000607C00200C000020080000201FB501215E
:101C4000082008F0E6FB42F6DF6002900B20ADF8BA
:101C500004000020ADF80C00ADF8060001A96348AF
:101C600008F08FFD32208DF8000001208DF8030070
:101C70008DF8010000208DF80200684607F0ABF9EE
:101C800001215A4809F032FA01221146574809F059
:101C900019FA0121554808F0FDFD1FBD70B501215D
:101CA000524809F026FA002870D001214F4809F067
:101CB00031FA002472E004EB84004D4901EB8010FE
:101CC0000078002869D004EB840001EB8010407894
:101CD000002862D004EB840001EB8010C0780A2851
:101CE00059D2DFE800F03C05142D58294B4F5854C9
:101CF00004EB84013E4A02EB8111D1ED010AB0EE02
:101D0000600A611CC8B2002102F02DFE44E004EB21
:101D10008402374B03EB8212926804EB8403344D48
:101D200005EB831393F8343102FB03F1621CD0B24C
:101D3000002203F0C8F82FE0E0B202F068FD2BE0CB
:101D400004EB84012A4A02EB8111D1ED470AB0EE7F
:101D5000600A611CC8B2002103F0A9FA1CE004EB80
:101D60008401234A02EB8111D1ED040AB0EE600A2E
:101D7000611CC8B2002103F03DFA0DE0E0B203F0AF
:101D8000E8F809E0E0B202F0DAFE05E02DE0E0B2AA
:101D900002F070FE00E000BF00BF641C042C8ADB70
:101DA00000241CE004EB4400124901EB40100078D1
:101DB000082813D104EB440001EB401040780228BE
:101DC00006D0052809D1611C88B204F03AF804E075
:101DD000611C88B204F07BF800BF00BF641C042CB7
:101DE000E0DB0549054801F091FA70BD000C0040A8
:101DF0007C830020C0880020D47800200068004048
:101E000000B58BB00121880608F003FB01210220F8
:101E100008F0CCFA09220521FE4808F00CF9092245
:101E20000621FC4808F007F902208DF81800602010
:101E3000059005A9F74808F073F840208DF82800B0
:101E400002208DF8290000208DF82A0001208DF84D
:101E50002B000AA807F0BFF841208DF828000220C7
:101E60008DF829008DF82A0001208DF82B000AA892
:101E700007F0B1F8E84807F019F907A807F03AFAAF
:101E800000208DF8220001208DF8230000208DF81D
:101E900024008DF825008DF826008DF827008DF898
:101EA0001E008DF81F0008208DF8200003208DF8FB
:101EB0002100ADF81C0007A9D74807F010F90E2043
:101EC0008DF80E0001208DF80F0000208DF8100015
:101ED00044F22000ADF8040044F24000ADF80600E2
:101EE00044F26000ADF808004FF48140ADF80A00FC
:101EF0000020ADF80C0001208DF8110001A807F0BA
:101F000078F90F208DF80E0001208DF80F000020C9
:101F10008DF8100044F2A000ADF8040044F2C000B7
:101F2000ADF8060044F2E000ADF808004FF482403E
:101F3000ADF80A000020ADF80C0001208DF811006A
:101F400001A807F056F910208DF80E0001208DF839
:101F50000F0000208DF8100045F22000ADF80400BD
:101F600045F24000ADF8060045F26000ADF808000B
:101F70004FF4A140ADF80A000120ADF80C008DF837
:101F8000110001A807F035F911208DF80E0001208D
:101F90008DF80F0000208DF8100045F2A000ADF87C
:101FA000040045F2C000ADF8060045F2E000ADF8CF
:101FB00008004FF4A240ADF80A000120ADF80C0073
:101FC0008DF8110001A807F014F912208DF80E0009
:101FD00001208DF80F0000208DF810004FF4815083
:101FE000ADF804004FF48250ADF806004FF4835072
:101FF000ADF808004FF48450ADF80A000120ADF8A8
:102000000C008DF8110001A807F0F3F813208DF8EB
:102010000E0001208DF80F0000208DF810004FF405
:102020008550ADF804004FF48650ADF806004FF42B
:102030008750ADF808004FF48850ADF80A00012031
:10204000ADF80C008DF8110001A807F0D2F81420AB
:102050008DF80E0000208DF80F0001208DF8100083
:102060000020ADF804004FF49040ADF806004FF6A4
:10207000FF70ADF808000020ADF80A000120ADF8AF
:102080000C008DF8110001A807F0B3F815208DF8A9
:102090000E0001208DF80F0000208DF81000ADF823
:1020A0000400ADF80600ADF80800ADF80A00012004
:1020B000ADF80C008DF8110001A807F09AF8162071
:1020C0008DF80E0001208DF80F0000208DF8100013
:1020D00044F26000ADF804004FF48140ADF8060012
:1020E00044F22010ADF808004FF48540ADF80A0026
:1020F0000120ADF80C008DF8110001A807F079F867
:1021000017208DF80E0001208DF80F0000208DF8AB
:10211000100048F26000ADF8040048F28000ADF80D
:10212000060048F22010ADF8080048F28020ADF813
:102130000A000120ADF80C008DF8110001A807F08D
:1021400058F801221021344807F052FB01220221E5
:10215000314807F04DFB0BB000BD10B586B0022131
:102160002D4807F0ADFB00287DD001AA00212A48A8
:1021700007F023FA0198B0F5007F75D90198B0F502
:10218000027F71D89DF80D0000286DD10198401E86
:10219000C4B2224850F82400214941F824000BF031
:1021A000A7FC1E4941F82400084650F824001C49A9
:1021B00051F82410401A1B4941F824009DF81210D0
:1021C0009DF8110041EA002001B204EBC40000EBCD
:1021D0004000154A02EBC00001839DF810009DF8F5
:1021E0000F1040EA012001B204EBC40000EB4000F4
:1021F00002EBC00001849DF814109DF8130041EA21
:10220000002001B204EBC40000EB400002EBC00070
:10221000C1820BE00004024000680040181F00204B
:10222000F81E0020381F0020607C00209DF815104B
:1022300004EBC40000EB400002EBC00041842046E8
:1022400001F022FF04EBC40000EB4000FE4901EB6B
:10225000C00090F83A00E0B9012104EBC40000EBA3
:102260004000F94A01E01EE014E002EBC00080F8F3
:102270003A10002104EBC40000EB400002EBC00068
:10228000A0F8581004EBC40000EB400002EBC000C3
:10229000C16100BF0221ED4807F0ADFB0221EB4810
:1022A00007F0EBFA00BF06B010BD4168491C416061
:1022B000002101730169491E0161818A491C322292
:1022C00091FBF2F302FB13118182704710B586B0C7
:1022D0001021DE4807F0F4FA00287BD001AA012182
:1022E000DA4807F06AF91021D84807F084FB10217A
:1022F000D64807F0C2FA0198B0F5207F6BD9019853
:10230000B0F5227F67D89DF80D00002863D10198B1
:10231000A0F28120C4B29DF80F00412807D19DF89A
:102320001000432803D1002008B9012000E000205C
:102330009DF80F10422907D19DF81010472903D1AD
:10234000002109B9012100E0002108439DF80F1088
:102350004A2907D19DF81010562903D1002109B947
:10236000012100E0002108439DF80F104D2907D1FD
:102370009DF810104F2903D1002109B9012100E077
:10238000002108439DF80F10502907D19DF8101027
:10239000522903D1002109B9012100E0002108439D
:1023A0009DF80F10532907D19DF81010442903D12F
:1023B000002109B9012100E0002108439DF80F1018
:1023C000532909D19DF81010542905D1002119B9BC
:1023D000012102E0CEE2FFE0002108439DF80F104A
:1023E000442907D19DF81010432903D1002109B9D0
:1023F000012100E0002108439DF80F10552907D165
:102400009DF810104D2903D1002109B9012100E0E8
:102410000021084330B1672161438D4A02EBC100BE
:10242000FFF743FF9DF80F004D2811D19DF81000D4
:102430004F280DD1002058B99DF8130008B1012094
:1024400000E0002004EB4411824A02EB8101887015
:102450009DF80F00562823D19DF8100058281FD151
:102460000020E8B9DDF8131004EB4410794A02EBC0
:102470008000016204EB4410114601EB8000B0F8CB
:1024800078003C2190FBF1F104EB441002EB80005A
:10249000006A90FBF1F104EB441002EB8000016252
:1024A0009DF80F0050284ED19DF8100058284AD1B1
:1024B0000020E0BBDDF8130004EB4411654A02EB99
:1024C00081014A6A04EB4411624B03EB8101CA6348
:1024D00004EB44111A4602EB8101486204EB4411FB
:1024E00002EB810191ED1F0A9FED5B1AC1EE000A1C
:1024F00000EE100AB8EEC00A20EE800A04EB441188
:1025000002EB810191ED201AC0EE010A04EB4411A7
:1025100002EB8101B1F8781000EE101AB8EE401A03
:1025200080EE810AF1EE000A80EE201A00E00AE057
:10253000BDEEC10A10EE101A09B204EB441203EB0F
:102540008202918300BF9DF80F0049280ED19DF8AB
:10255000100051280AD1002040B9BDF8130001B283
:1025600004EB44103B4A02EB8000C1839DF80F004E
:1025700055280CD19DF810004D2808D1002030B905
:102580009DF8130004EB4411324A02F821009DF833
:102590000F0041280DD19DF81000432809D10020DB
:1025A00038B9DDF8131004EB44102A4A02EB80001E
:1025B000C1629DF80F0044280DD19DF810004328FA
:1025C00009D1002038B9DDF8131004EB4410214A7A
:1025D00002EB8000016300BF019881281BD30198A2
:1025E000882818D89DF80D00A8B99DF810008228F9
:1025F00011D09DF8100010280DD04FF010610198F7
:1026000041EA00409DF80F1040EA01209DF81010AB
:102610000843124908609DF80C0004287ED19DF8FB
:102620000D000028FAD10090029800F00F00401E23
:10263000C4B209210298B1EB102F70D169460DF197
:102640000F0000F0F8FC0BE0607C00200068004008
:1026500050220020CC8B00200000B4435C000020FE
:1026600004EB8401ED4A02EB811191F8341190FBE7
:10267000F1F104EB840002EB8010C1616946B2EE17
:10268000040A0DF10F0000F0FCFC04EB8400E349A8
:1026900001EB801080ED060A6946B2EE040A0DF1E6
:1026A0000F0000F0EEFC04EB8400DC4901EB80102D
:1026B00080ED080A0DF11601481E00F0D1F9BDF8B1
:1026C000151004EB8400D54A02EB8010A0F800112D
:1026D00004EB8400114601EB8010B0F8001104EB0C
:1026E000840002EB8010B0F80201081A00B204EB7B
:1026F000840102EB8111A1F8FC0004EB8400114677
:1027000001EB801090F8FE0080B1002104EB840002
:1027100002EB801080F8FE10002001E095E093E0CD
:1027200004EB840102EB8111A1F8FC0004EB8400AE
:10273000BA4901EB8010B0F8001104EB8400B74AED
:1027400002EB8010A0F8021104EB8400114601EBAB
:102750008010B0F9FC00002806DD04EB840001EBDA
:102760008010B0F9FC0007E004EB8400AB4901EBFA
:102770008010B0F9FC004042B0F5E16F21DD04EBC0
:102780008400A64901EB8010B0F9FC0004EB840141
:10279000A24A02EB8111B1F9FC10002902DA4FF0D4
:1027A000FF3100E00121C1EB4112C2EB0121A0EB9E
:1027B000011000B204EB8401984A02EB8111A1F8E8
:1027C000FC0004EB8400954901EB8010806A04EB67
:1027D0008401924A02EB8111B1F9FC10014404EB2F
:1027E000840002EB8010816204EB8400114601EB4F
:1027F0008010416904EB840002EB8010806A091AA2
:1028000004EB840002EB8010C0F80C1104EB840090
:10281000114601EB80104078B0B104EB840001EB6D
:10282000801090ED080A04EB840001EB801080ED2D
:10283000410A04EB840001EB8010816A04EB840000
:1028400002EB8010C0F8081100BF40F2032101988C
:1028500088423BD340F214410198884236D89DF813
:102860000D0098BB0021019AC2F3472140F20343B7
:10287000019A9A4201D1012200E0002240F2032491
:10288000019BA34201D1012300E000231A437AB146
:10289000DDF80F304A1E02EB4202614C04EB42129B
:1028A000D3644A1E02EB4202234603EB4212D06479
:1028B00040F20443019A9A4201D1012200E0002231
:1028C000019BB3F5017F02D1012301E049E0002320
:1028D0001A4342B1DDF80F004A1E02EB4202504B90
:1028E00003EB4212106540F20943019A9A4201D16A
:1028F000012200E0002240F20924019BA34201D101
:10290000012300E000231A4382B1DDF80F004A1EC4
:1029100002EB4202424B03EB42125063DDF813001C
:102920004A1E02EB420203EB4212D06340F2144310
:10293000019A9A4201D1012200E00022019BB3F5E5
:10294000057F01D1012300E000231A4342B1DDF8E5
:1029500013004A1E02EB4202314B03EB421290631A
:1029600000BF019828B90598009001A80FC803F08E
:10297000A4FE00BF06B010BDF0B585B007460D46F9
:10298000002412200090019000208DF808008DF89E
:1029900009008DF80A5000BF05E0395D0DF10B000C
:1029A0000155601C84B2AC42F7DB69461D4806F055
:1029B0000FFD0646002401E0601C84B23146194830
:1029C00006F09EFD18B940F6FF708442F4DB40F635
:1029D000FF70844202DB012005B0F0BD0020FBE760
:1029E00030B585B0054600210E4806F069FE10B9E5
:1029F000002005B030BD6A4600210A4806F0DDFD22
:102A0000002404E00DF10B00005D2855641C9DF8C6
:102A10000A00A042F6D89DF80A00EAE77C8300206D
:102A2000C08800200068004001203B494872704780
:102A300010B503F0B1FE394803F0EDFF00F0E7FDFB
:102A400002F086FEFFF7F0FF05F00CFB05F0DAFC64
:102A5000334805F05DFB01F0B5FD03F053FC10BDFC
:102A600000220A7803780B700270704710B50820B6
:102A70000BF000FA044600206060204610BD0246BC
:102A80000B46114605E00888984201D10846704778
:102A900049680029F7D10020F9E770B506460C46D1
:102AA000354600E06D6815B16868A042FAD14CB1B6
:102AB0006068686020460BF00CFA1A480078401EE7
:102AC0001849087070BD2DE9F041074688463C461C
:102AD00041462046FFF7D3FF08B1BDE8F08100264C
:102AE00002E06468701CC6B20E480078B04201DD96
:102AF000002CF6D16CB108200BF0BCF90546A5F806
:102B0000008060686860656006480078401C054980
:102B1000087000BFE1E70000581F00200068004077
:102B2000FC8F00201400002000B597B00121042084
:102B300007F03CFC0121880407F06BFC01214805EB
:102B400007F034FC07220A21624807F074FA0722D2
:102B50000B21604807F06FFA4FF44060119002209B
:102B60008DF8480000208DF84A0003208DF84900B8
:102B700000208DF84B0011A9564807F0D1F94FF409
:102B8000E13013900020ADF85000ADF85200ADF8E0
:102B90005400ADF858000C20ADF8560013A94E486B
:102BA00008F0E2FB012240F225514B4808F01AFDE3
:102BB00027208DF8400004208DF8410000208DF87A
:102BC000420001208DF8430010A806F004FA4348A3
:102BD00006F064FF4FF00060019000200590402057
:102BE00004903F4803903C48001D02900015079058
:102BF00000200690099008900A904FF440300B9006
:102C000000200C9001200D9000200F900E9001A943
:102C1000324806F0E5FF3349304807F094F831496F
:102C20002E4807F0EBF80E208DF8400002208DF8BA
:102C3000410004208DF8420001208DF8430010A8C7
:102C400006F0C9F901221021244807F090F801226A
:102C50008021214808F0BDFC17B000BD10B5214906
:102C60001E4807F0A1F801280AD11E491B4807F0A9
:102C70006AF81C49194807F0C1F800201A4908747D
:102C800010BD70B504460D461748007C78B92A4639
:102C9000214613480BF017FA2946104806F0FBFFAF
:102CA00001210E4806F0D6FF01200F49087470BDBF
:102CB00010B540F22551084808F0CFFC40B1202162
:102CC000054808F0C1FC40F22551034808F0FCFC1F
:102CD00010BD00000008024000480040586002405B
:102CE000AD21002000800018581F002000B597B0CB
:102CF0000121084607F05AFB0121102007F09AFB3A
:102D00000121880507F052FB07220921A34807F09B
:102D100092F907220A21A14807F08DF94FF4C0600B
:102D2000119002208DF8480000208DF84A00022002
:102D30008DF8490001208DF84B0011A9974807F044
:102D4000EFF84FF4E13013900020ADF85000ADF8EB
:102D50005200ADF85400ADF858000C20ADF8560004
:102D600013A98F4808F000FB8E4806F097FE4FF03D
:102D70000060019000200590402004908A48039054
:102D80008748001D029000150790002006900990CA
:102D900008900A904FF440300B9000200C900120D6
:102DA0000D9000200F900E9001A97E4806F018FFAC
:102DB0007E497C4806F0C7FF7C497A4807F01EF838
:102DC00001221021774806F0D2FF46208DF84000FE
:102DD00005208DF8410001208DF842008DF8430058
:102DE00010A806F0F8F8012280216D4808F0F1FBE8
:102DF00001216B4808F040FB17B000BD70B50446D8
:102E00000D466B48007878B92A46214666480BF093
:102E10005AF92946634806F03EFF0121614806F051
:102E200019FF01206249087070BD10B55F495D4807
:102E300006F0BAFF01280AD15C495A4806F083FF20
:102E40005A49584806F0DAFF00205949087010BD69
:102E500010B540F22551524808F0FFFB002844D03D
:102E600040F225514E4808F0EFFB40F225514C4806
:102E700008F02AFC4A4808F02EFBC4B24D480078FE
:102E800000F0400008B34B48007800F0800020BB01
:102E90000D2C06D14748007840F080004549087065
:102EA0001BE04448007800F03F0043490C5441487F
:102EB0000078401C3F4908700846007800F03F0049
:102EC00020280ADD0020087007E0232C05D13948AE
:102ED000007840F04000374908703648007800F02C
:102EE000800010B100203349087010BD30B5024693
:102EF0000B464FF6FF70002112E0555C684000243D
:102F00000AE000F0010525B14AF2010585EA6000FA
:102F100000E04010651CECB2082CF2DB4D1CE9B25D
:102F20009942EADB30BD2DE9FE4305460E461746C1
:102F30009846E8B28DF80000280A8DF80100F0B23A
:102F40008DF80200300A8DF80300F8B28DF8040005
:102F5000380A8DF8050008F0FF008DF806004FEAEA
:102F600018208DF8070008216846FFF7BFFF0446C8
:102F70002046E11704EB11610912A4EB0121C9B24B
:102F80008DF80810E11704EB1161090A8DF809109A
:102F90000A216846FFF732FFBDE8FE8300000240C9
:102FA00000100140B8640240ED210020008000289C
:102FB0001C000020210000202022002008B590EDF8
:102FC000000A8DED000ABDF800200A70BDF800204F
:102FD000120A4A70BDF802208A70BDF80220120A57
:102FE000CA7008BD08B502680092BDF800200A70DA
:102FF000BDF80020120A4A70BDF802208A70BDF8A0
:103000000220120ACA7008BD30B50C0E15686B1C80
:1030100013604455C1F3074415686B1C1360445595
:10302000C1F3072415686B1C1360445515686B1CAD
:103030001360415530BD10B502460B68D35C1C06C9
:103040000B685B1CD35C44EA03440B689B1CD35C99
:1030500044EA03230C68E41C145D43EA04000B6893
:103060001B1D0B6010BD10B502460B685B1CD35CCA
:103070000C68145D43EA042318B20B689B1C0B60B8
:1030800010BD30B50446F0EE400A0D4629462046F4
:10309000FFF7E9FF00EE100AB8EEC01A81EE200A31
:1030A00030BD00001FB50121022007F0B2F942F641
:1030B000DF6002900620ADF804000020ADF80600A5
:1030C000ADF80C001D208DF8000001208DF80100E6
:1030D00000208DF8020001208DF80300684605F0FD
:1030E0007AFF01A9724807F04CFB01221146704893
:1030F00007F0E8FF01216E4807F0CCFB1FBD70B55B
:1031000001216B4807F0F5FF012870D101216848C3
:1031100008F000F8002466E004EB8400654901EB48
:10312000801090F81001012827D104EB840001EBF6
:103130008010007808B30AF0DBFC04EB84015D4AE0
:1031400002EB8111D1F81411411A04EB840002EB57
:103150008010B0F8180181420FD904EB84001146A9
:1031600001EB801090F81101401CC1B204EB840007
:1031700002EB801080F8111107E0002104EB8400BD
:103180004C4A02EB801080F8111104EB840049498D
:1031900001EB801090F8110114280ADD621C032352
:1031A00043EA021242F48071434A5068FFF78BFCF5
:1031B00017E0002104EB84003E4A02EB801080F807
:1031C0004210621C032343EA021242F480713A4A1D
:1031D0005068FFF754FC0546374948682946FFF711
:1031E0005CFC601CC4B2042C96DB002454E05DE05F
:1031F00004EB4410314901EB80008078E8B304EB24
:10320000441001EB800090F8760000B30AF070FCE7
:1032100004EB4411294A02EB8101096F411A04EBC6
:10322000441002EB8000B0F8740081420FD904EB27
:103230004410114601EB8000B0F86C00401C81B2D4
:1032400004EB441002EB8000A0F86C1007E00021B2
:1032500004EB4410194A02EB8000A0F86C1004EB58
:103260004410164901EB8000B0F86C000A280ADD12
:10327000012104EB4410114A00E00CE002EB800055
:1032800080F84F1007E0002104EB44100B4A02EBDA
:10329000800080F84F10641C042CA9DB002403E09C
:1032A000A0B201F067F8641C082CF9DB70BD0000C7
:1032B000000400407C83002014000020CC8B002000
:1032C000014608884A88904201D1012070470020B9
:1032D000FCE701464888401C322290FBF2F302FBD7
:1032E00013000A88904201D1012070470020FCE7BA
:1032F0000020BB4948800880BA4948800880BA4904
:1033000048800880B94948800880704730B585B04A
:1033100005460C462046FFF7D3FF08B105B030BD87
:103320002188201D00EB01100068B0F5407F01D915
:10333000012000E000202288211D01EB0211096814
:10334000B1F5447F01D2012100E00021084060B3C3
:1033500000208DF808002188201D00EB0110006876
:103360000090A348854205D101229D49A14802F061
:1033700034F904E002229C499F4802F02EF921888A
:10338000201D00EB011000798DF80A0000208DF857
:1033900009009DF80A202388201D00EB0310411D21
:1033A0000DF10B000AF08FFEE1E02188201D00EBFB
:1033B00001100068082834D200208DF80800218808
:1033C000201D00EB0110006800902188201D00EBFB
:1033D000011000798DF80A002188201D00EB0110F2
:1033E000006840F01F00092808D12188201D00EB4B
:1033F0000110006840F01F00142803D000208DF851
:10340000090002E002208DF809009DF80A202388B7
:10341000201D00EB0310411D0DF10B000AF053FEBF
:10342000A5E02188201D00EB01100068B0F5007FA9
:1034300075D92188201D00EB01100068B0F5836F5D
:103440006DD800208DF808002188201D00EB0110A8
:10345000006800902188201D00EB011000798DF894
:103460000A002188201D00EB0110006840F20321B2
:10347000884218D02188201D00EB01100068B0F5AB
:10348000017F10D02188201D00EB0110006840F260
:103490000921884207D02188201D00EB0110006817
:1034A000B0F5057F03D102208DF809002AE02188BC
:1034B000201D00EB0110006840F2034188421AD041
:1034C0002188201D00EB0110006840F20441884271
:1034D00011D02188201D00EB0110006840F2094145
:1034E000884208D02188201D00EB0110006840F2BE
:1034F0001441884203D102208DF8090002E0002027
:103500008DF809009DF80A202388201D00EB031088
:10351000411D0DF10B000AF0D6FD28E0FFE72188E0
:10352000201D00EB0110006800F07040F8B104208D
:103530008DF808002188201D00EB0110006820F0A4
:10354000704001902188201D00EB011000798DF85A
:103550000A0000208DF809009DF80A202388201D0C
:1035600000EB0310411D0DF10B000AF0ACFD2348E8
:10357000854217D102221C491F4802F02EF82188EB
:10358000201D00EB0110407B38B92088401C3221FF
:1035900090FBF1F201FB120020806946174805F00C
:1035A00017FF1AE01248854217D101220C49114831
:1035B00002F013F80A480188001D00EB0110407B5F
:1035C00038B92088401C322190FBF1F201FB120037
:1035D00020806946064805F0FBFE00BF9EE600001D
:1035E000686F00208C720020446C0020B0750020B1
:1035F00000640040103C0020502200200068004081
:10360000002239210A54C26100218182704710B51D
:103610002DED0E8B4FF40050FE4908809FEDFE0B00
:10362000084680ED040B9FEDFE0A80ED010A43F68B
:10363000991008814FF40050FA4908809FEDFA0A6A
:10364000084680ED010A42F2283008819FEDF70B11
:10365000084680ED040B0020F64908709FEDF60A3D
:10366000084680ED010A012008724FF4FA60488193
:10367000012008734FF4FA6008824FF6E040C881D9
:10368000002088742820ED498883002048604FF48A
:103690007A70C8831822E349E9480AF059FD0020EE
:1036A000E749703908704870052088700021E448A7
:1036B0007038C1800020E249703988800021E048DC
:1036C000703801811422DB493C300AF041FDDC48AE
:1036D0007038B0F90810DFEDDB1A9FEDDB1ADFED73
:1036E000DB0AB0EE0C0AB03002F0A6FCD448703809
:1036F000C168F7EE001A9FEDD61ADFEDD60AB1EEDB
:10370000040A883002F098FC1822C649CC48D83008
:103710000AF01EFD0020CA49703981F8D800002146
:10372000C748703880F8D910052180F8DA10642174
:10373000A0F8DE100021A0F8DC104FF47A71A0F898
:10374000E0101422BB4900F58A700AF001FDBC4864
:103750007038B0F9E010DFEDBB1A9FEDBE1ADFED57
:10376000BC0AB2EE000A00F5C47002F065FCB44871
:103770007038D0F8E410F7EE001A9FEDB61ADFEDBE
:10378000B40AB2EE000A00F5B07002F055FC18223F
:10379000A449B1480AF0DCFC0020A949703981F83D
:1037A000B0010021A648703880F8B111052180F8D9
:1037B000B2116421A0F8B6110021A0F8B4114FF4A1
:1037C0007A71A0F8B81114229A4900F5F6700AF03F
:1037D000BFFC9B487038B0F9B811DFED9A1A9FED25
:1037E0009A1ADFED9A0AB0EE0C0A00F5187002F092
:1037F00023FC93487038D0F8BC11F7EE001A9FED07
:10380000941ADFED940AB1EE040A00F50E7002F08E
:1038100013FC182283499048D8300AF099FC002004
:103820008749703981F8880200218548703880F80E
:103830008912052180F88A126421A0F88E120021D5
:10384000A0F88C124FF47A71A0F8901214227949E2
:1038500000F531700AF07CFC79487038B0F99012AC
:10386000DFED781A9FED7B1ADFED790AB2EE000AE0
:1038700000F54E7002F0E0FB71487038D0F89412F9
:10388000F7EE001A9FED731ADFED710AB2EE000A2F
:1038900000F5447002F0D0FB002418E104EBC400F2
:1038A00000EB40006649703901EBC00063490968CC
:1038B00001656248416804EBC40000EB4000604AC7
:1038C000703A02EBC000416504EBC40101EB410119
:1038D00002EBC10101F158000A22584908310AF0EF
:1038E00037FC5648418A04EBC40000EB4000544AC0
:1038F000703A02EBC000A0F8621004EBC40000EBC9
:103900004000114601EBC0004C4B59699A69DB69D4
:1039100064300EC004EBC40000EB4000484A703A2B
:1039200002EBC00090ED1D0A10EE101A08460DF0D3
:1039300051FB41EC1A0B04EBC40101EB4101404A7D
:10394000703A02EBC101B1F870000DF0D5F841EC0E
:103950001C0B04EBC40000EB4000394A703A02EB48
:10396000C00090ED100A10EE101A08460DF032FB60
:1039700041EC1E0B04EBC40000EB400030497039F1
:1039800001EBC00090ED201BB0EE410AF0EE610AA1
:1039900053EC102B51EC1E0B0DF0FEF853EC1C2BCE
:1039A0000DF0FAF853EC1A2B0DF0F6F89FED2B0BF7
:1039B00053EC102B0CF098FE0DF05AF804EBC401F8
:1039C00001EB41011E4A703A02EBC101086504EBAC
:1039D000C40101EB410102EBC101B1F870000DF02F
:1039E0008BF841EC1A0B04EBC40000EB4000144AC6
:1039F000703A02EBC00090ED1D0A10EE101A084656
:103A00000DF0E8FA41EC1C0B04EBC40101EB4101A1
:103A10000B4A27E0307C00200000008087870F40A1
:103A20009A999941487C0020000010420000000053
:103A30000000F03F187C00200000E144F87B0020EB
:103A4000D07C0020CDCCCC3E000000008FC2F53DE4
:103A5000CDCC4C3E9A99993E807E0020000000001B
:103A600000807640703A02EBC101B1F904000DF01C
:103A70002CF841EC1E0B04EBC40000EB4000FE49A7
:103A800001EBC00090ED201BB0EE410AF0EE610AA0
:103A900053EC102B51EC1E0B0DF07EF853EC1C2B4D
:103AA0000DF07AF853EC1A2B0DF076F81FED150B8C
:103AB00053EC102B0CF018FE0CF0AAFF04EBC40121
:103AC00001EB4101EC4A02EBC101C860641C082C07
:103AD000FFF6E4AE0020E949C870887048700871AC
:103AE0000870002313E04FF4FA6103EBC30000EB0E
:103AF0004000E14A02EBC000A0F8461003EBC3010E
:103B000001EB410102EBC100FFF77AFD5B1C042BC6
:103B1000E9DBBDEC0E8B10BD10B5044604EBC40010
:103B200000EB4000D44901EBC000D0ED260A04EBC5
:103B3000C40000EB400001EBC000B0F9080000EE4B
:103B4000100AB8EEC00A20EE800ABDEEC00A10EEE0
:103B5000100A04EBC40101EB4101C74A02EBC101A9
:103B6000C1F8B00004EBC40000EB4000114601EBCB
:103B7000C000B0F9181004EBC40000EB400002EBE9
:103B8000C000C0F8C81004EBC40101EB410102EB16
:103B9000C10101F1B00002F068FA04EBC40000EBCF
:103BA0004000B54901EBC000C18804EBC40000EB44
:103BB0004000B14A02EBC000D0F8C400084401B292
:103BC00004EBC40000EB400002EBC000C18010BD5C
:103BD00010B5044604EBC40000EB4000A64901EB1D
:103BE000C000B0F94A0004EBC40101EB4101A24A54
:103BF00002EBC101C1F8B00004EBC40000EB4000CF
:103C0000114601EBC000B0F9181004EBC40000EB42
:103C1000400002EBC000C0F8C81004EBC40101EB87
:103C2000410102EBC10101F1B00002F01EFA04EB08
:103C3000C40000EB4000904901EBC000C18804EBD8
:103C4000C40000EB40008C4A02EBC000D0F8C40076
:103C5000084401B204EBC40000EB400002EBC000DA
:103C6000C18004EBC40000EB4000114601EBC00032
:103C7000B0F8580090BB04EBC40000EB400001EB2F
:103C8000C000C069002807DD04EBC40000EB400061
:103C900001EBC000C06908E004EBC40000EB400089
:103CA000754901EBC000C069404240F6C41188422A
:103CB00015DD04EBC40000EB40006F4901EBC000D0
:103CC000B0F86000401C81B204EBC40000EB40007F
:103CD000694A02EBC000A0F860100AE0FFE700218B
:103CE00004EBC40000EB4000634A02EBC000A0F804
:103CF000601004EBC40000EB40005F4901EBC00022
:103D0000B0F86000322839DD002104EBC40000EB7C
:103D10004000594A02EBC000A0F86010002004EBFC
:103D2000C40101EB410102EBC1018882002104EBD7
:103D3000C40000EB400002EBC000C161052004EBB1
:103D4000C40101EB410102EBC1018870012104EBC8
:103D5000C40000EB400002EBC00080F835100020EA
:103D600004EBC40101EB410102EBC1018880012099
:103D700004EBC40101EB410102F8310010BD10B5A4
:103D80002DED0E8B044604EBC40101EB41013A4AD0
:103D900002EBC101B1F870000CF0AEFE41EC1A0B61
:103DA00004EBC40000EB4000334A02EBC00090ED8E
:103DB0001D0A10EE101A08460DF00CF941EC1C0B10
:103DC00004EBC40101EB41012B4A02EBC101B1F943
:103DD00004000CF07AFE41EC1E0B04EBC40000EB77
:103DE0004000254901EBC00090ED201BB0EE410AD8
:103DF000F0EE610A53EC102B51EC1E0B0CF0CCFED4
:103E000053EC1C2B0CF0C8FE53EC1A2B0CF0C4FE28
:103E10001FEDEE0B53EC102B0CF066FC0CF0F8FDD4
:103E200004EBC40101EB4101134A02EBC101C8607C
:103E300004EBC40000EB4000114601EBC000C06879
:103E400004EBC40101EB410102EBC101C1F88800A0
:103E500004EBC40000EB4000114601EBC0004078C9
:103E6000A0B904EBC40000EB400001EBC000406DC2
:103E700004EBC40104E00000607C0020220000206C
:103E800001EB410102EBC101C1F8880004EBC40061
:103E900000EB4000FE4901EBC000C16904EBC40027
:103EA00000EB4000FA4A02EBC000C0F8A01004EB9F
:103EB000C40101EB410102EBC10101F1880002F0F4
:103EC000D4F804EBC40000EB4000F14901EBC00062
:103ED000D0ED260A04EBC40000EB400001EBC0006B
:103EE000D0F89C0000EE100AB8EEC00A20EE800A5E
:103EF000BDEEC00A10EE100A04EBC40101EB410153
:103F0000E34A02EBC101C1F8B00004EBC40000EBCE
:103F10004000114601EBC00090F84400A8B304EB48
:103F2000C40000EB400001EBC000D0F8B000002856
:103F300008DD04EBC40000EB400001EBC000D0F84A
:103F4000B00009E004EBC40000EB4000D04901EBF5
:103F5000C000D0F8B000404204EBC40101EB4101C5
:103F6000CB4A02EBC101B1F84610884221DD04EBD7
:103F7000C40000EB4000114601EBC000D0F8B000D7
:103F8000002803DA4FF0FF3001E012E0012004EBDB
:103F9000C40101EB4101BE4A02EBC101B1F8461078
:103FA000484304EBC40101EB410102EBC101C1F83C
:103FB000B00004EBC40000EB4000B54901EBC000C9
:103FC000B0F9181004EBC40000EB4000B04A02EB5B
:103FD000C000C0F8C81004EBC40101EB410102EBC2
:103FE000C10101F1B00002F040F804EBC40000EBA5
:103FF0004000A74901EBC000C18804EBC40000EBFE
:104000004000A34A02EBC000D0F8C400084401B24B
:1040100004EBC40000EB400002EBC000C18004EBE5
:10402000C40000EB4000114601EBC000C06D002849
:1040300007DD04EBC40000EB400001EBC000C06DE5
:1040400008E004EBC40000EB4000914901EBC00024
:10405000C06D4042B4280ADA012004EBC40101EB30
:1040600041018B4A02EBC10181F8340009E00020D4
:1040700004EBC40101EB4101854A02EBC10181F867
:104080003400BDEC0E8B10BD70B52DED088B0446D1
:1040900004EBC40000EB40007D4901EBC000018C43
:1040A00004EBC40000EB4000794A02EBC000008E34
:1040B000081A01B204EBC40000EB400002EBC000A0
:1040C000A0F8581004EBC40000EB4000114601EBCF
:1040D000C000808A04EBC40101EB410102EBC10185
:1040E000888404EBC40000EB4000114601EBC000E3
:1040F000C18A04EBC40000EB400002EBC000C184A5
:1041000004EBC40000EB4000114601EBC000018B42
:1041100004EBC40000EB400002EBC000018504EB9F
:10412000C40000EB4000114601EBC000C16904EB84
:10413000C40000EB400002EBC000C16204EBC4000D
:1041400000EB4000114601EBC000018C04EBC40001
:1041500000EB400002EBC000018604EBC40000EB62
:104160004000114601EBC000418C04EBC40000EBA1
:10417000400002EBC000418604EBC40000EB4000AD
:10418000114601EBC000B0F95800002808DD04EB2F
:10419000C40000EB400001EBC000B0F9580009E09A
:1041A00004EBC40000EB4000394901EBC000B0F95A
:1041B0005800404241F2360188422CDD04EBC40035
:1041C00000EB4000324901EBC000B0F9581004EB9D
:1041D000C40000EB40002E4A02EBC000B0F95800CA
:1041E000002802DA4FF0FF3000E0012004EBC402A7
:1041F00002EB4202264B03EBC202B2F8702000FB36
:10420000121001B204EBC40000EB40001A4602EBAE
:10421000C000A0F8581004EBC40000EB40001C499B
:1042200001EBC000C16904EBC40000EB4000184A78
:1042300002EBC000B0F95800014404EBC40000EBED
:10424000400002EBC000C16104EBC40000EB400081
:10425000114601EBC000C16804EBC40000EB400054
:1042600002EBC000C069091A04EBC40000EB400077
:1042700002EBC000C16504EBC40101EB410102EB9C
:10428000C101B1F870000CF037FC41EC190B01E0F2
:10429000607C002004EBC40000EB4000C14901EB4E
:1042A000C000C06900EE100AB8EEC00ADFEDBE0A19
:1042B00020EE200A04EBC40000EB400001EBC0003C
:1042C000D0ED1D0A80EE201A11EE105A28460CF08F
:1042D00081FE41EC1B0B04EBC40000EB4000B14934
:1042E00001EBC00090ED201BB0EE410AF0EE610A38
:1042F00053EC102B51EC1B0B0CF0F6F953EC192B73
:104300000CF0F2F90CF084FB00B204EBC40101EBF9
:104310004101A44A02EBC101888204EBC40000EB16
:104320004000114601EBC000407868B104EBC400C6
:1043300000EB400001EBC000C16904EBC40000EBDE
:10434000400002EBC000416504EBC40000EB4000FC
:10435000944901EBC00090F8390040B104EBC4016E
:1043600001EB41018F4A02EBC100FFF749F9BDECB7
:10437000088B70BD10B5044604EBC40000EB400090
:10438000884911F8300001285ED104EBC40000EB2D
:10439000400001EBC00090F84E00E8B309F0A8FB24
:1043A000824951F82410401A40F2DC51884214D35B
:1043B00004EBC40000EB40007A4901EBC00090F828
:1043C0006400401CC1B204EBC40000EB4000754A1D
:1043D00002EBC00080F8641009E0002104EBC40087
:1043E00000EB40006F4A02EBC00080F8641004EB61
:1043F000C40000EB40006B4901EBC00090F8641072
:1044000004EBC40000EB4000664A02EBC000B0F8C9
:104410006C0000EB800000E016E04000814209DD06
:10442000012104EBC40000EB400002EBC00080F867
:10443000371009E0002104EBC40000EB4000594AAA
:1044400002EBC00080F8371010BD2DE9F04186B0B6
:1044500004460D4616461F464FF0000800208DF812
:104460000C008DF80D0008208DF80E004FF4007838
:10447000CDF804804B480078012805D1200A8DF83A
:104480000F008DF8104005E000208DF80F0000218E
:104490008DF81010434890F8D800012805D1290A5A
:1044A0008DF811108DF8125004E000218DF81110D4
:1044B0008DF812103B4890F8B001012805D1310A5F
:1044C0008DF813108DF8146004E000218DF813109E
:1044D0008DF81410334890F88802012805D1390A64
:1044E0008DF815108DF8167004E000218DF8151068
:1044F0008DF8161001A92E4804F06AFF06B0BDE839
:10450000F08100204BE000EBC00101EB4101254AA6
:1045100002EBC101B1F90610002908DD00EBC00172
:1045200001EB410102EBC101B1F9061009E000EB1A
:10453000C00101EB41011B4A02EBC101B1F90610B8
:10454000494200EBC00202EB4202164B03EBC202EF
:10455000B2F87820914220DD00EBC00101EB41016F
:104560001A4602EBC101B1F90610002902DA4FF038
:10457000FF3100E0012100EBC00202EB4202094BD7
:1045800003EBC202B2F8782051430AB200EBC0013B
:1045900001EB410103EBC101CA80411CC8B20828EC
:1045A000B1DB7047607C00200000B443F81E00209F
:1045B000006800404121095C19B1002241210A54E0
:1045C0008262704710B50720FE4908709FEDFE0A11
:1045D000084680ED010A42F2107088600C20FB4909
:1045E000087042F2107088601520F9490870B2EE28
:1045F000040A084680ED010A4FF47A7088600020B2
:10460000F449087247F23050C8600120087441F242
:1046100088304861B3EE0E0A084680ED010A012099
:10462000ED498870ED48E74B0ECB34300EC00020CA
:10463000EB4908704870C8709FEDEA0A084680EDA3
:10464000010A002181609FEDE70A80ED040A4161C3
:104650004169F7EE001A9FEDE41ADFEDE40A9FEDE1
:10466000E40A443001F0E8FCDD488168F7EE001A06
:10467000B7EE001ADFEDDF0A9FEDDF0A6C3001F0C4
:10468000DBFCDFEDDE1A9FEDDE1ADFEDD60A9FEDD3
:10469000DD0AD2486C3801F0DFFCDFEDD81A9FED5F
:1046A000DA1ADFEDDA0A9FEDD30ACC48383801F088
:1046B000D3FC002454E004EB8401C94A02EB8110CE
:1046C000FFF778FF04EB8401C54A02EB811101F585
:1046D0008E701822BF4909F03BFDBF48008804EBEB
:1046E0008401BF4A02EB8111A1F8FC0004EB8400B5
:1046F000114601EB8010B8494988A0F8FE10B64871
:10470000818804EB840002EB8010A0F80011B2480D
:10471000C18804EB840002EB8010A0F8021104EBC6
:104720008400114601EB8010FC30AB4A9168D268DE
:10473000C0E90212A848016904EB8400A84A02EB10
:104740008010C0F80C1104EB8400114601EB8010BE
:10475000FC30A14B59699A69DB6914300EC0641CA6
:10476000042CA8DB10BD30B52DED028B81B00446C2
:10477000B0EE408A0D46002000909FEDA50A28EE7D
:10478000000ABDEEC00A10EE101AA24A5388121D8C
:1047900002EB0312501D6A46FEF736FC44F07040EF
:1047A00040F480619B484288001D00EB02100160CC
:1047B0000098C1B297484288001D00EB02100171B9
:1047C00094484188001D00EB0110457391484088D2
:1047D000401C322190FBF1F201FB12008D49488010
:1047E0000121601E00EB80007D4A02EB801080F802
:1047F000101109F07DF9611E01EB8101784A02EB8D
:104800008111C1F8140101B0BDEC028B30BD10B5AF
:10481000044604EB8400724901EB8010D0F80C01CF
:10482000002802DA4FF0FF3100E0012104EB8400A0
:104830006B4A02EB8010C069002802DA4FF0FF30AB
:1048400000E00120814205D19FED730A734880ED9D
:10485000000A04E09FED720A704880ED000A04EB44
:1048600084005F4901EB8010D0F80C01002806DDC0
:1048700004EB840001EB8010D0F80C0107E004EB9E
:104880008400574901EB8010D0F80C01404200EE43
:10489000100AB8EEC00A6148D0ED000AB2EE041A60
:1048A00060EE810AB4EEE00AF1EE10FA23DD04EBCB
:1048B00084004B4901EB801090ED080A04EB840062
:1048C00001EB8010D0F80C01002802DA4FF0FF3025
:1048D00000E0012000EE900AF8EEE00A4F4890ED6B
:1048E000001A00EE810A04EB84003D4901EB8010C0
:1048F00080ED030A1FE004EB8400394901EB8010CE
:10490000D0F80C0100EE900AF8EEE00AB2EE041ABC
:10491000C0EE811AB0EE610A04EB840001EB801056
:10492000D0ED080A70EE800A04EB840001EB8010E1
:10493000C0ED030A00BF04EB8401294A02EB811198
:1049400001F10C0003F011FE04EB8401244A02EB98
:104950008111D1ED030AB0EE600A611CC8B20021DA
:10496000FFF701FF10BD30B52DED028B81B004467D
:10497000B0EE408A0D46002000909FED2A0A28EEF6
:10498000000ABDEEC00A10EE101A224A5388121D0A
:1049900002EB0312501D6A46FEF736FB44F07040EE
:1049A00040F480711B484288001D00EB021001603A
:1049B0000098C1B217484288001D00EB0210017137
:1049C000144831E020830020000070422C83002036
:1049D00038830020448300205C8300207C840020F6
:1049E0007C83002000000000713D0A3F0AD7233F6E
:1049F0008FC275406F12833A4260E53BCDCC4C3E8E
:104A000017B7D1398FC2F53CBD37863517B7D138C6
:104A1000002474498C72002000002A4328000020E2
:104A20000000B44200007A444188001D00EB0110F0
:104A30004573F8484088401C322190FBF1F201FB9D
:104A40001200F44948800121601E00EB8000F24A08
:104A500002EB801080F8101109F04AF8611E01EB9A
:104A60008101ED4A02EB8111C1F8140101B0BDECE6
:104A7000028B30BD70B5044604EB8402E64B03EBB9
:104A80008212D2F83C1104EB840203EB821202F191
:104A9000080003F0EEFD04EB8400DF4901EB801019
:104AA000816804EB8400DC4A02EB8010C0F8F81047
:104AB00004EB8403154605EB8313DA6904EB8403E6
:104AC00005EB8313996804EB840305EB831303F16F
:104AD000C80001F0FBFA04EB8400294601EB8010CA
:104AE00090ED3A0A04EB840001EB8010D0ED4E0A01
:104AF00020EE200A04EB840001EB801080ED010A17
:104B000004EB84012A4602EB8111D1ED480AB0EE94
:104B1000600A04EB840102EB8111081D03F08DFD96
:104B200004EB84012A4602EB8111D1ED010AB0EEBB
:104B3000600A611CC8B20021FFF715FF70BD10B5F7
:104B40002DED048B82B0044604EB8400B24901EBE6
:104B50008010D0F80C01002802DA4FF0FF3100E09D
:104B6000012104EB8400AC4A02EB8010C0690028EC
:104B700002DA4FF0FF3000E00120814205D11FED45
:104B80005A0AA64880ED000A04E01FED5B0AA3481C
:104B900080ED000A04EB84009F4901EB8010D0F8FF
:104BA0000C01002806DD04EB840001EB8010D0F836
:104BB0000C0107E004EB8400974901EB8010D0F86A
:104BC0000C01404200EE100AB8EEC00A9348D0ED46
:104BD000000AB2EE041A60EE810AB4EEE00AF1EEC9
:104BE00010FA23DD04EB84008B4901EB801090ED7B
:104BF000080A04EB840001EB8010D0F80C010028B7
:104C000002DA4FF0FF3000E0012000EE900AF8EEEB
:104C1000E00A824890ED001A00EE810A04EB84005D
:104C20007D4901EB801080ED030A1FE004EB840056
:104C3000794901EB8010D0F80C0100EE900AF8EEF3
:104C4000E00AB2EE041AC0EE811AB0EE610A04EB7B
:104C5000840001EB8010D0ED080A70EE800A04EBAE
:104C6000840001EB8010C0ED030A00BF04EB840157
:104C7000694A02EB811101F10C0003F076FC04EBB0
:104C80008400654901EB801090ED081AF0EE410AAE
:104C900004EB840001EB801090ED031AB0EE410AA2
:104CA00003F04CFDB0EE408A04EB84005A4901EB5E
:104CB0008010807818B1B1EE480AB0EE408A04EB5B
:104CC0008400554901EB801090ED250A20EE080A7A
:104CD0008DED010A04EB840001EB801090ED260AB3
:104CE0004F48D0ED000A60EE200A4E4890ED000AD1
:104CF00008EE200A80ED000A4B4890ED000A484873
:104D0000D0ED000A30EE200A474880ED000A4748FF
:104D100090ED000AB4EE408AF1EE10FA02D15FED98
:104D2000CF8A17E004EB84003B4901EB8010D0ED03
:104D3000270A3D4890ED001A80EE810A3B48D0EDED
:104D4000000A78EE600A60EE208A1FEDDA0A364823
:104D500080ED000A04EB84002F4901EB8010D0EDB8
:104D6000290A334890ED000A30EE681A90ED000AE7
:104D700000EEC10A80ED000A90ED000AF0EE408AD4
:104D8000B7EE000A01A803F058FC9DED010AB0EE51
:104D9000C00AF7EE000A30EEC00AB0EE409A214891
:104DA00003F04BFC214880ED008A9DED010A1D486F
:104DB000D0ED000A30EE200A30EE280A8DED000A10
:104DC000F7EE000ABFEE000A684603F00FFC04EBA2
:104DD0008400114901EB801090ED4E0ADDED000AD0
:104DE00020EE200A04EB840001EB801080ED010A24
:104DF00004EB840001EB801090ED010AB5EEC00ACF
:104E0000F1EE10FA16DD04EB840001EB801090ED5A
:104E1000010A18E08C7200207C830020280000200A
:104E20002C0000203000002038000020340000203A
:104E30003C00002004EB8400FE4901EB801090ED63
:104E4000010AB1EE400A04EB8400FA4901EB80103C
:104E5000D0ED480AB4EEE00AF1EE10FA21DD04EBE1
:104E6000840001EB801090ED010AB5EEC00AF1EE6E
:104E700010FA02D24FF0FF3000E0012000EE100ADD
:104E8000B8EEC00A04EB8400EA4901EB8010D0EDD3
:104E9000480A20EE200A04EB840001EB801080ED2C
:104EA000010A04EB8401E34A02EB8111D1ED010A0E
:104EB000B0EE600A611CC8B20021FFF754FD02B0D9
:104EC000BDEC048B10BDF8B504460E461546002017
:104ED0000090D9494A88091D01EB0211481D6A4614
:104EE0003146FEF791F844F0704040F44071D248EA
:104EF0004288001D00EB021001600098C1B2CE484C
:104F00004288001D00EB02100171CB484188001D52
:104F100000EB01104573C8484088401C322190FBCB
:104F2000F1F201FB1200C44948800121601E00EB30
:104F30008000C04A02EB801080F8101108F0D8FD04
:104F4000611E01EB8101BB4A02EB8111C1F8140122
:104F5000F8BD70B52DED048B044604EB8400B54913
:104F600001EB8010406904EB8401B24A02EB81112D
:104F7000486404EB8400114601EB8010407850B97E
:104F800004EB840001EB8010D0F8080104EB8401ED
:104F900002EB8111486404EB8400A64901EB801008
:104FA00090F8240148B3A548D0F88800002803DD14
:104FB000A248D0F8880003E0A048D0F8880040421A
:104FC00004EB84019B4A02EB8111D1F8281188423D
:104FD00013DD9A48D0F88800002802DA4FF0FF303D
:104FE00000E0012004EB8401924A02EB8111D1F828
:104FF000281148439149C1F8880004EB84008D4989
:1050000001EB8010816A04EB84008A4A02EB801075
:10501000C16504EB840102EB811101F1440001F050
:1050200024F804EB8401834A02EB8111886D0BF0B4
:105030004CFD41EC190BB0EE490AF0EE690A8048CC
:1050400003F06FF8B0EE408AF0EE608A51EC180B76
:105050000BF0DEFC04EB8401764A02EB81118865DB
:10506000104690F82C0178B304EB8400114601EB54
:105070008010806D002805DD04EB840001EB8010BA
:10508000806D06E004EB84006A4901EB8010806DBE
:1050900040426849D1F83011884215DD04EB8400A4
:1050A000644901EB8010806D002802DA4FF0FF3078
:1050B00000E001205F49D1F83011484304EB84013E
:1050C0005C4A02EB8111886504EB8400594901EBCD
:1050D0008010D0F80C01002806DD04EB840001EB01
:1050E0008010D0F80C0107E004EB8400514901EB7B
:1050F0008010D0F80C0140423C2808DA012104EB72
:1051000084004C4A02EB801080F8431007E0002135
:1051100004EB8400474A02EB801080F8431004EB54
:105120008402444B03EB8212926D04EB8403414DE5
:1051300005EB831393F8343102FB03F1621CD0B208
:105140000022FFF7C0FEBDEC048B70BD30B52DED25
:10515000028B81B00446B0EE408A0D4600200090DC
:105160009FED380A28EE000ABDEEC00A10EE101AB4
:10517000314A5388121D02EB0312501D6A46FDF797
:1051800043FF44F0704040F480612B484288001D8A
:1051900000EB021001600098C1B227484288001D50
:1051A00000EB0210017124484188001D00EB011042
:1051B000457321484088401C322190FBF1F201FBED
:1051C00012001D4948800121601E00EB8000194A31
:1051D00002EB801080F8101108F08AFC611E01EBD0
:1051E0008101144A02EB8111C1F8140101B0BDEC38
:1051F000028B30BD30B52DED028B81B00446B0EE90
:10520000408A0D46002000909FED0E0A28EE000A0D
:10521000BDEEC00A10EE101A074A5388121D02EBA9
:105220000312501D6A46FDF7EFFE44F0704002493C
:105230004A8809E07C8300208C720020607C00207A
:10524000FC8F002000247449091D01EB0211086045
:105250000098C1B26A484288001D00EB021001713B
:1052600067484188001D00EB011045736448408881
:10527000401C322190FBF1F201FB12006049488092
:105280000121601E00EB80005E4A02EB801080F876
:10529000101108F02DFC611E01EB8101594A02EB4F
:1052A0008111C1F8140101B0BDEC028B30BD30B5E5
:1052B0002DED028B81B00446B0EE408A0D460020F1
:1052C00000909FED510A28EE000ABDEEC00A10EED4
:1052D000101A4B4A5388121D02EB0312501D6A46E6
:1052E000FDF792FE44F0704040F0020144484288CD
:1052F000001D00EB021001600098C1B240484288D6
:10530000001D00EB021001713D484188001D00EBBB
:10531000011045733A484088401C322190FBF1F25D
:1053200001FB1200364948800121601E00EB80001D
:10533000344A02EB801080F8101108F0D9FB611E8E
:1053400001EB81012F4A02EB8111C1F8140101B078
:10535000BDEC028B30BD30B52DED028B81B0044623
:10536000B0EE408A0D46002000909FED270A28EEFF
:10537000000ABDEEC00A10EE101A214A5388121D11
:1053800002EB0312501D6A46FDF73EFE44F07040EA
:1053900040F00C011A484288001D00EB0210016029
:1053A0000098C1B216484288001D00EB021001713E
:1053B00013484188001D00EB0110457310484088D8
:1053C000401C322190FBF1F201FB12000C49488095
:1053D0000121601E00EB80000A4A02EB801080F879
:1053E000101108F085FB611E01EB8101054A02EBFB
:1053F0008111C1F8140101B0BDEC028B30BD000079
:105400008C7200207C83002000007A4430B5024674
:105410000023012904D10120CC4C2072062303E093
:105420000120CA4C60720823002029E0002567246F
:10543000444302EBC40425616724444302EBC404E3
:1054400025736724444342F834506724444302EBF5
:10545000C40465606724444302EBC404E582672406
:10546000444302EBC404A5826724444302EBC40412
:10547000A5606724444302EBC40484F82550401C13
:105480009842D3DB30BD2DE9F04105460E46174664
:105490004FF00008012F02D14FF0060801E04FF055
:1054A0000808002494E06720604305EBC000006911
:1054B00001287DDB3046FDF70CFF08B1BDE8F08127
:1054C0006721614305EBC10101F11400FDF7F8FE0E
:1054D00030B100216720604305EBC0008160EDE73B
:1054E0006720604305EBC0000069401E67216143EF
:1054F00005EBC10108616720604305EBC00018306F
:105500006721614305EBC101898A00EB01107288B4
:105510000168301D00EB021001606720604305EB5D
:10552000C00018306721614305EBC101898A00EB97
:10553000011001797288301D00EB021001716720A3
:10554000604305EBC00018306721614305EBC101E2
:10555000898A00EB0110417B7288301D00EB02103C
:1055600041736723634305EBC30318334FF0670CA4
:1055700004FB0CFC05EBCC0CBCF814C003EB0C13C7
:10558000591DB6F802C0331D03EB0C131A79331DF5
:1055900003EB0C13581D08F096FD3088401C322197
:1055A00090FBF1F201FB120030806720604300E0C5
:1055B0000DE005EBC000808A401C90FBF1F201FB7E
:1055C000120081B26720604305EBC0008182641C39
:1055D0004445FFF668AF00BF70E72DE9F04104468F
:1055E0000E4617464FF00008FF253188301D00EBAE
:1055F0000110407B08B9BDE8F081012F02D14FF0C6
:10560000060809E04FF008083188301D00EB011052
:105610000088A0F2013085B245450DDA6721694363
:1056200004EBC10101F11400FDF753FE48B1012F55
:1056300003D101204549887286E001204349C872A0
:1056400082E06720684304EBC0000069401C6721CA
:10565000694304EBC10108616720684354F83000D6
:10566000401C6721694344F831003188301D00EB4C
:10567000011002686720684304EBC00018306721FE
:10568000694304EBC101C98A00EB01100260318853
:10569000301D00EB011002796720684304EBC00065
:1056A00018306721694304EBC101C98A00EB01107E
:1056B00002713188301D00EB0110427B6720684386
:1056C00004EBC00018306721694304EBC101C98AAB
:1056D00000EB0110427367236B4304EBC3031833E1
:1056E0004FF0670C05FB0CFC04EBCC0CBCF816C0AF
:1056F00003EB0C131A7967236B4304EBC3031833D2
:105700004FF0670C05FB0CFC04EBCC0CBCF816C08E
:1057100003EB0C13581DB6F800C0331D03EB0C133C
:10572000591D08F0D0FC6720684304EBC000C08A14
:10573000401C322190FBF1F201FB120081B2672084
:10574000684304EBC000C18200BF54E7581F00202B
:1057500010B59FEDFD0BFE4880ED020B1520FC49B6
:1057600008802320088240F6B83048829FEDF60B6F
:10577000F84880ED020B0C20F64908801E200882B4
:105780004FF4FA6048820020F34908709FEDF30A55
:10579000084680ED010A012008724FF4FA60488043
:1057A0004010EF494881282008811822E849ED4837
:1057B00008F0CEFC0020EB49103908700520487035
:1057C000002088709FEDE80A084680ED0B0A9FEDE7
:1057D000E60A80ED0A0A9FEDE40A80ED0C0ADE4B32
:1057E0000ECB54300EC01822D949103008F0B0FC4E
:1057F0000020DC49103981F860000521D9481038B3
:1058000080F86110002180F862109FEDD70A80EDCA
:10581000230A9FEDD50A80ED220A9FEDD30A80ED81
:10582000240A6030CC4B0ECB54300EC01822C8492D
:10583000103008F08DFC0020CA49103981F8C000F2
:105840000521C848103880F8C110002180F8C21026
:105850009FEDC50A80ED3B0A9FEDC30A80ED3A0A31
:105860009FEDC10A80ED3C0AC030BB4B0ECB5430DB
:105870000EC01822B649103008F06AFC0020B94961
:10588000103981F820010521B648103880F821111F
:10589000002180F822119FEDB40A80ED530A9FED9C
:1058A000B20A80ED520A9FEDB00A80ED540A00F56D
:1058B0009070A94BD3E900219B68C0E9161342659B
:1058C000002035E0A649096800EB4002A54B103BDB
:1058D00003EB42121164A2498A8800EB400103EBFA
:1058E0004111A1F8442000EB40011A4602EB41119E
:1058F0009B4AD2F8063041F8463F52898A8098493F
:10590000CA6800EB4001974B103B03EB4111CA649E
:1059100093490A6900EB400103EB41110A654FF41A
:10592000FA6200EB400103EB4111A1F85620401C44
:105930000428C7DB10BD072101EB40228B494B88AF
:10594000091D01EB03110A60042288494B88091DD7
:1059500001EB03110A71411E01EB4101814A103A2A
:1059600002EB41110A7881494B88091D01EB0311B3
:105970004A7100227D494B88091D01EB03118A7190
:105980007A494B88091D01EB0311CA7177494B888D
:10599000091D01EB03110A7274494988491C32221E
:1059A00091FBF2F302FB1311704A518070470B21F7
:1059B00041EA40226D494B88091D01EB03110A6041
:1059C00008226A494B88091D01EB03110A71411E27
:1059D00001EB4101634A103A02EB41114978022977
:1059E00009D005290FD1032260494B88091D01EB1D
:1059F00003114A7100BF02225C494B88091D01EB6B
:105A000003114A7100BF00BF002258494B88091D8D
:105A100001EB03118A7155494B88091D01EB0311F4
:105A2000CA7152494B88091D01EB03110A72411ECC
:105A300001EB41014B4A103A02EB41118A784B4984
:105A40004B88091D01EB03114A72002247494B881C
:105A5000091D01EB03118A7244494B88091D01EBB2
:105A60000311CA7241494B88091D01EB03110A73E6
:105A70003E494988491C322291FBF2F302FB131183
:105A80003A4A51807047162141EA402237494B88F3
:105A9000091D01EB03110A60042234494B88091DDA
:105AA00001EB03110A71002230494B88091D01EBFB
:105AB00003114A712D494B88091D01EB03118A71AD
:105AC0002A494B88091D01EB0311CA7127494B88EC
:105AD000091D01EB03110A7224494988491C32222D
