:020000040800F2
:10000000A0B50020055B000895260008972600088B
:10001000A9260008AD260008B1260008000000004F
:10002000000000000000000000000000B5260008ED
:10003000B7260008000000008B7D0008EF7F000855
:100040001F5B00081F5B00081F5B00081F5B0008A8
:100050001F5B00081F5B00081F5B00081F5B000898
:100060001F5B00081F5B00081F5B00081F5B000888
:100070001F5B00081F5B00081F5B00081F5B000878
:100080001F5B00081F5B00081F5B00081F5B000868
:100090001F5B00081F5B00081F5B00081F5B000858
:1000A0001F5B00081F5B00081F5B00081F5B000848
:1000B000CB0300080F0E00081F5B00081F5B000841
:1000C0001F5B00081F5B00081F5B00081F5B000828
:1000D0001F5B0008490C00081F5B00081F5B00083D
:1000E0001F5B00081F5B00081F5B00081F5B000808
:1000F0001F5B00081F5B00081F5B00081F5B0008F8
:100100001F5B00081F5B00086D0600081F5B0008EE
:100110001F5B00081F5B00081F5B00081F5B0008D7
:100120001F5B00081F5B00081F5B00081F5B0008C7
:100130001F5B00081F5B00081F5B00081F5B0008B7
:10014000E70700081D0900081F5B00081F5B000887
:100150001F5B00081F5B0008230C00081F5B0008E2
:100160001F5B00081F5B00081F5B00081F5B000887
:100170001F5B00081F5B00081F5B00081F5B000877
:100180001F5B00081F5B000800F002F800F040F859
:100190000AA090E8000C82448344AAF10107DA45E2
:1001A00001D100F035F8AFF2090EBAE80F0013F0F4
:1001B000010F18BFFB1A43F0010318470096000017
:1001C00020960000103A24BF78C878C1FAD85207A8
:1001D00024BF30C830C144BF04680C6070470000C1
:1001E0000023002400250026103A28BF78C1FBD840
:1001F000520728BF30C148BF0B6070471FB509F0D8
:100200001CF99DE8030008F033F81FBD10B510BDC0
:1002100008F09AF81146FFF7F1FF00F05DF808F0DA
:10022000B8F803B4FFF7F2FF03BC08F0E5F80000EC
:100230000BE04FF4FA6007F0B1FC4249B1F9180045
:1002400000231A46194600F06AFDF2E700203E49F5
:10025000087024E03C480078F0B13A4801F0D1F948
:1002600042F228313748A0F84610052035498870F9
:100270004FF204708880012008704870334800787D
:1002800002F048F9642007F089FC3048007802F059
:1002900041F900202C490870642007F07FFCD9E761
:1002A00070B50446002500BF07F0B7FE07F04CFD0F
:1002B00005460A23264A0021264807F029F9072384
:1002C000254A0021254807F023F9052007F09EFB69
:1002D000284607F03DFD70BD10B505F079FB4FF4E1
:1002E000806101F007021E4B18684FF6FF031840AB
:1002F0001C4B034343EA0220194B186000BF062140
:1003000042F6DF6000F036F800F080F900F0C4F843
:1003100000F0BAF900F0E6FB02F0DCF800F0A6FD10
:100320000221114801F064FE00F072FB05F042FD6D
:1003300005230E4A00210E4807F0EAF805F061FE99
:10034000002010BDD0660020010000200000002029
:10035000840C00204D0200088408002031020008AF
:100360000CED00E00000FA05E00F002084040020FE
:10037000A10200087FB505460C460121084604F09D
:100380004EF90295ADF804400020ADF80600ADF836
:100390000C0001A94FF0804004F0F9FA1C208DF800
:1003A000000001208DF801008DF802008DF8030097
:1003B000684602F016FF01221146900704F088FFFC
:1003C0000121880704F06CFB7FBD10B5012188076F
:1003D00004F095FF012853D10121800704F0A0FF0C
:1003E000002432E004EBC40000EB4000254911F882
:1003F000300028B304EBC40000EB400001EBC00068
:100400004078F0B104EBC40000EB400001EBC00009
:100410008078012806D0022805D004280BD00528B2
:100420000DD104E00CE020B201F08FF808E020B21A
:1004300001F0C5F904E020B201F0EAF800E000BFE5
:1004400002E020B201F0BBF9641C052CCADB0D4CA4
:10045000B4F98E32B4F9B621B4F9DE10B4F906005D
:1004600001F011FD01F06BFD0749084800F00CFD9B
:100470000748407A20B102220349064801F0F5FD01
:1004800010BD0000D0660020D45900200068004054
:10049000E80C0020E00F002000B58BB001214806D9
:1004A00004F0BDF80121084604F086F809220B216A
:1004B000544803F0C6FE09220C21524803F0C1FE45
:1004C00002208DF81C004FF4C050069006A94D483C
:1004D00003F02CFE00208DF826008DF827008DF803
:1004E00028008DF829008DF82A008DF82B008DF852
:1004F00022008DF8230008208DF8240003208DF8B9
:100500002500ADF8200008A93F4802F0EEFE1420B7
:100510008DF8040003208DF8050000208DF80600FA
:1005200001208DF8070001A802F05BFE01208DF884
:1005300012008DF8130000208DF8140046F2A00080
:10054000ADF8080046F2C000ADF80A0046F2E0003F
:10055000ADF80C004FF4C240ADF80E000020ADF82D
:10056000100001208DF8150002A802F048FF0220BB
:100570008DF8120001208DF8130000208DF8140072
:100580004FF4C840ADF8080046F22000ADF80A006C
:1005900046F24000ADF80C0046F26000ADF80E00E7
:1005A0000020ADF8100001208DF8150002A802F01F
:1005B00026FF03208DF8120001208DF81300002083
:1005C0008DF814004FF4C040ADF808000020ADF8DD
:1005D0000A00ADF80C00ADF80E00ADF810000120D7
:1005E0008DF8150002A802F00AFF074802F064FE29
:1005F00008A802F085FF01220221034803F0FEF95A
:100600000BB000BD00000240006400401FB5012196
:10061000082004F004F842F6DF6002900B20ADF8E9
:1006200004000020ADF80C00ADF8060001A9154843
:1006300004F0ADF932208DF8000001208DF80300A0
:100640008DF8010000208DF80200684602F0C9FD17
:1006500001210C4804F050FE01221146094804F023
:1006600037FE0121074804F01BFA1FBD10B5012118
:10067000044804F044FE18B10121024804F050FE81
:1006800010BD0000000C004000B58BB001218806B1
:1006900003F0C5FF0121022003F08EFF092205218E
:1006A000D34803F0CEFD09220621D14803F0C9FD4D
:1006B00002208DF818006020059005A9CC4803F0B1
:1006C00035FD40208DF8280002208DF829000020FB
:1006D0008DF82A0001208DF82B000AA802F081FD78
:1006E00041208DF8280002208DF829008DF82A007D
:1006F00001208DF82B000AA802F073FDBD4802F01E
:10070000DBFD07A802F0FCFE00208DF8220001208E
:100710008DF8230000208DF824008DF825008DF839
:1007200026008DF827008DF81E008DF81F00082088
:100730008DF8200003208DF82100ADF81C0007A9DA
:10074000AC4802F0D2FD0E208DF80E0001208DF88D
:100750000F0000208DF8100044F22000ADF80400D6
:1007600044F24000ADF8060044F26000ADF8080025
:100770004FF48140ADF80A000020ADF80C000120D4
:100780008DF8110001A802F03AFE0F208DF80E003E
:1007900001208DF80F0000208DF8100044F2A00019
:1007A000ADF8040044F2C000ADF8060044F2E000E9
:1007B000ADF808004FF48240ADF80A000020ADF813
:1007C0000C0001208DF8110001A802F018FE012292
:1007D0001021884803F012F901220221854803F014
:1007E0000DF90BB000BD10B586B00221814803F0B1
:1007F0006DF900287DD001AA00217E4802F0E3FFB8
:100800000198B0F5007F7ED90198B0F5027F7AD8C3
:100810009DF80D00002876D10198401EC4B276489C
:1008200050F82400754941F8240007F067FA72492E
:1008300041F82400084650F82400704951F824106B
:10084000401A6F4941F824009DF812109DF81100DC
:1008500041EA002001B204EBC40000EB4000694A09
:1008600002EBC00001839DF810009DF80F1040EAD4
:10087000012001B204EBC40000EB400002EBC00019
:1008800001849DF814109DF8130041EA002001B284
:1008900004EBC40000EB400002EBC000C1829DF8F5
:1008A000151004EBC40000EB400002EBC0004184D3
:1008B000204601F006F904EBC40000EB400051496A
:1008C00001EBC00090F83A00E0B9012104EBC4004C
:1008D00000EB40004B4A02EBC00080F83A100021C8
:1008E00004EBC40000EB400002EBC000A0F858107D
:1008F00001E011E007E004EBC40000EB400002EB74
:10090000C000C16100BF02213A4803F07AF9022118
:10091000384803F0B8F800BF06B010BD00B585B088
:100920001021344803F0D2F868B16A4601213148F9
:1009300002F049FF10212F4803F063F910212D48E0
:1009400003F0A1F800BF05B000BDF0B585B00746C3
:100950000D46002412200090019000208DF8080020
:100960008DF809008DF80A5000BF05E0395D0DF1E2
:100970000B000155601C84B2AC42F7DB69461D4890
:1009800002F02CFE0646002401E0601C84B23146D1
:10099000184802F0BBFE18B940F6FF708442F4DB41
:1009A00040F6FF70844202DB012005B0F0BD00205C
:1009B000FBE730B585B0054600210E4802F086FF02
:1009C00010B9002005B030BD6A460021094802F088
:1009D000FAFE002404E00DF10B00005D2855641CB4
:1009E0009DF80A00A042F6D89DF80A00EAE7000048
:1009F0000004024000680040A80C0020880C002081
:100A0000C80C0020D066002001203449487270478D
:100A100010B500F025FBFFF7F7FF01F0A3FD01F093
:100A2000F7FD10BD00220A7803780B700270704742
:100A300010B5082007F024FB044600206060204623
:100A400010BD02460B46114605E00888984201D1C8
:100A50000846704749680029F7D10020F9E770B5CA
:100A600006460C46354600E06D6815B16868A04240
:100A7000FAD14CB160686860204607F030FB184836
:100A80000078401E1649087070BD2DE9F0410746F8
:100A900088463C4641462046FFF7D3FF08B1BDE8F3
:100AA000F081002602E06468701CC6B20C48007831
:100AB000B04201DD002CF6D16CB1082007F0E0FA5D
:100AC0000546A5F8008060686860656004480078A5
:100AD000401C0349087000BFE1E70000E80C00205B
:100AE0000400002000B597B00121084603F064FD22
:100AF0000121102003F0A4FD0121880503F05CFD15
:100B000007220921A34803F09CFB07220A21A148E0
:100B100003F097FB4FF4C060119002208DF848005D
:100B200000208DF84A0002208DF8490001208DF840
:100B30004B0011A9974803F0F9FA4FF4E1301390F4
:100B40000020ADF85000ADF85200ADF85400ADF8FB
:100B500058000C20ADF8560013A98F4804F00AFD88
:100B60008E4803F0A1F84FF000600190002005903E
:100B7000402004908A4803908748001D0290001589
:100B8000079000200690099008900A904FF440309A
:100B90000B9000200C9001200D9000200F900E90E3
:100BA00001A97E4803F022F97E497C4803F0D1F97F
:100BB0007C497A4803F028FA01221021774803F093
:100BC000DCF946208DF8400005208DF84100012019
:100BD0008DF842008DF8430010A802F002FB0122BC
:100BE00080216D4804F0FBFD01216B4804F04AFDB3
:100BF00017B000BD70B504460D466B48007878B953
:100C00002A462146664807F09DFA2946634803F0C4
:100C100048F90121614803F023F901206249087075
:100C200070BD10B55F495D4803F0C4F901280AD1D1
:100C30005C495A4803F08DF95A49584803F0E4F9E1
:100C400000205949087010BD10B540F22551524896
:100C500004F009FE002844D040F225514E4804F02B
:100C6000F9FD40F225514C4804F034FE4A4804F0A6
:100C700038FDC4B24D48007800F0400008B34B483E
:100C8000007800F0800020BB0D2C06D1474800788A
:100C900040F08000454908701BE04448007800F0AF
:100CA0003F0043490C5441480078401C3F490870BC
:100CB0000846007800F03F0020280ADD0020087078
:100CC00007E0232C05D13948007840F0400037492F
:100CD00008703648007800F0800010B100203349D9
:100CE000087010BD30B502460B464FF6FF7000216C
:100CF00012E0555C684000240AE000F0010525B1CF
:100D00004AF2010585EA600000E04010651CECB283
:100D1000082CF2DB4D1CE9B29942EADB30BD2DE92B
:100D2000FE4305460E4617469846E8B28DF8000089
:100D3000280A8DF80100F0B28DF80200300A8DF813
:100D40000300F8B28DF80400380A8DF8050008F0A9
:100D5000FF008DF806004FEA18208DF807000821E3
:100D60006846FFF7BFFF04462046E11704EB116118
:100D70000912A4EB0121C9B28DF80810E11704EBA8
:100D80001161090A8DF809100A216846FFF732FF40
:100D9000BDE8FE830000024000100140B86402403C
:100DA0007D0F0020008000280C0000201100002092
:100DB000B00F00201FB50121022003F030FC42F6E5
:100DC000DF6002900620ADF804000020ADF80600B8
:100DD000ADF80C001D208DF8000001208DF80100F9
:100DE00000208DF8020001208DF80300684602F013
:100DF000F8F901A9104803F0CAFD012211460E4876
:100E000004F066FA01210C4803F04AFE1FBD10B53C
:100E10000121094804F073FA01280BD10121064889
:100E200004F07EFA002403E0A0B200F0C1FF641CCD
:100E3000082CF9DB10BD00000004004001460888C2
:100E40004A88904201D1012070470020FCE701460A
:100E50004888401C322290FBF2F302FB13000A8800
:100E6000904201D1012070470020FCE70020744926
:100E7000488008807349488008807349488008800A
:100E8000724948800880704730B585B005460C46E9
:100E90002046FFF7D3FF08B105B030BD2188201DE3
:100EA00000EB01100068B0F5407F2CD900208DF8D0
:100EB00008002188201D00EB0110006800906448A4
:100EC000854205D101225E49624801F078F904E0CB
:100ED00002225D49604801F072F92188201D00EB73
:100EE000011000798DF80A0000208DF809009DF8A6
:100EF0000A202388201D00EB0310411D0DF10B007B
:100F000007F020F963E02188201D00EB0110006844
:100F100000F0704000B304208DF808002188201DE7
:100F200000EB0110006820F0704001902188201D26
:100F300000EB011000798DF80A0000208DF80900FF
:100F40009DF80A202388201D00EB0310411D0DF1A0
:100F50000B0007F0F7F83AE02188201D00EB0110A4
:100F60000068082833D200208DF808002188201D51
:100F700000EB0110006800902188201D00EB01109B
:100F800000798DF80A002188201D00EB011000680F
:100F900040F01F00092808D12188201D00EB011016
:100FA000006840F01F00142803D000208DF80900CD
:100FB00002E002208DF809009DF80A202388201DF8
:100FC00000EB0310411D0DF10B0007F0BBF82348A7
:100FD000854217D102221C491F4801F0F0F82188F0
:100FE000201D00EB0110407B38B92088401C3221C5
:100FF00090FBF1F201FB120020806946174802F0D5
:10100000EDFA1AE01248854217D101220C49114825
:1010100001F0D5F80A480188001D00EB0110407B63
:1010200038B92088401C322190FBF1F201FB1200FC
:1010300020806946064802F0D1FA00BF2CE7000084
:10104000F85C00201C600020D45900204063002080
:1010500000640040A0290020E00F0020006800404C
:1010600010B52DED0E8B4FF40050FE4908809FED1A
:10107000FE0B084680ED040B9FEDFD0A80ED010A92
:1010800043F6991008814FF40050FA4908809FED0B
:10109000FA0A084680ED010A42F2283008819FEDE5
:1010A000F70B084680ED040B0020F64908709FED11
:1010B000F60A084680ED010A012008724FF4FA6032
:1010C0004881012008734FF4FA6008824FF6E0402F
:1010D000C881002088742820EC498883002048605B
:1010E0004FF47A70C8831822E249E94807F06FF894
:1010F0000020E74970390870487005208870002189
:10110000E3487038C1800020E149703988800021AF
:10111000DF48703801811422DA493C3007F057F873
:10112000DB487038B0F90810DFEDDA1A9FEDDA1AF3
:10113000DFEDDA0AB0EE0C0AB03001F0FBF8D4486B
:101140007038C168F7EE001A9FEDD51ADFEDD50AA9
:10115000B1EE040A883001F0EDF81822C549CC48F8
:10116000D83007F034F80020C949703981F8D80028
:101170000021C748703880F8D910052180F8DA10AE
:101180006421A0F8DE100021A0F8DC104FF47A7181
:10119000A0F8E0101422BB4900F58A7007F017F898
:1011A000BB487038B0F9E010DFEDBA1A9FEDBD1AF8
:1011B000DFEDBB0AB2EE000A00F5C47001F0BAF828
:1011C000B3487038D0F8E410F7EE001A9FEDB51A66
:1011D000DFEDB30AB2EE000A00F5B07001F0AAF834
:1011E0001822A449B04806F0F2FF0020A84970393F
:1011F00081F8B0010021A648703880F8B1110521AE
:1012000080F8B2116421A0F8B6110021A0F8B41141
:101210004FF47A71A0F8B81114229A4900F5F670CB
:1012200006F0D5FF9A487038B0F9B811DFED991A79
:101230009FED991ADFED990AB0EE0C0A00F51870CF
:1012400001F078F892487038D0F8BC11F7EE001A27
:101250009FED931ADFED930AB1EE040A00F50E70CC
:1012600001F068F8182283498F48D83006F0AFFFA4
:1012700000208749703981F888020021844870383D
:1012800080F88912052180F88A126421A0F88E1254
:101290000021A0F88C124FF47A71A0F89012142259
:1012A000784900F5317006F092FF79487038B0F94E
:1012B0009012DFED781A9FED7B1ADFED790AB2EE1E
:1012C000000A00F54E7001F035F871487038D0F81A
:1012D0009412F7EE001A9FED731ADFED710AB2EE69
:1012E000000A00F5447001F025F8002417E104EB32
:1012F000C40000EB40006649703901EBC00063494F
:10130000096801656148416804EBC40000EB4000D6
:101310005F4A703A02EBC000416504EBC40101EB87
:10132000410102EBC10101F158000A22574908317D
:1013300006F04DFF5548418A04EBC40000EB400025
:10134000534A703A02EBC000A0F8621004EBC400EC
:1013500000EB4000114601EBC0004C4B59699A6903
:10136000DB6964300EC004EBC40000EB4000484A67
:10137000703A02EBC00090ED1D0A10EE101A0846FC
:1013800007F0EAFF41EC1A0B04EBC40101EB410149
:101390003F4A703A02EBC101B1F8700007F0CAFE93
:1013A00041EC1C0B04EBC40000EB4000384A703ADF
:1013B00002EBC00090ED100A10EE101A084607F07C
:1013C000CBFF41EC1E0B04EBC40000EB40003049A6
:1013D000703901EBC00090ED201BB0EE410AF0EE39
:1013E000610A53EC102B51EC1E0B07F0B7FE53ECC7
:1013F0001C2B07F0B3FE53EC1A2B07F0AFFE9FED4A
:101400002B0B53EC102B07F0C9FC07F04FFE04EB3D
:10141000C40101EB41011E4A703A02EBC1010865AB
:1014200004EBC40101EB410102EBC101B1F8700012
:1014300007F080FE41EC1A0B04EBC40000EB400007
:10144000134A703A02EBC00090ED1D0A10EE101A1C
:10145000084607F081FF41EC1C0B04EBC40101EBD3
:10146000410127E0A06600200000008087870F4030
:101470009A999941B86600200000104200000000CF
:101480000000F03F886600200000E144686600200C
:1014900040670020CDCCCC3E000000008FC2F53D5F
:1014A000CDCC4C3E9A99993EF06800200000000097
:1014B00000807640FE4A02EBC101B1F9040007F05A
:1014C00022FE41EC1E0B04EBC40000EB4000F84987
:1014D00001EBC00090ED201BB0EE410AF0EE610A76
:1014E00053EC102B51EC1E0B07F038FE53EC1C2B69
:1014F00007F034FE53EC1A2B07F030FE1FED150BEE
:1015000053EC102B07F04AFC07F0A0FD04EBC401DC
:1015100001EB4101E64A02EBC101C860641C082CE2
:10152000FFF6E5AE00200BE04FF4FA6200EBC001DD
:1015300001EB4101DE4B03EBC101A1F84620401C49
:101540000428F1DBBDEC0E8B10BD10B5044604EB96
:10155000C40000EB4000D64901EBC000D0ED260AE4
:1015600004EBC40000EB400001EBC000B0F9080040
:1015700000EE100AB8EEC00A20EE800ABDEEC00AE6
:1015800010EE100A04EBC40101EB4101C84A02EB62
:10159000C101C1F8B00004EBC40000EB40001146EB
:1015A00001EBC000B0F9181004EBC40000EB4000E0
:1015B00002EBC000C0F8C81004EBC40101EB41010C
:1015C00002EBC10101F1B00000F0CDFE04EBC4005C
:1015D00000EB4000B64901EBC000C18804EBC40039
:1015E00000EB4000B24A02EBC000D0F8C40008444F
:1015F00001B204EBC40000EB400002EBC000C1806C
:1016000010BD002239210A54C26100218182704735
:1016100010B5044604EBC40000EB4000A44901EB04
:10162000C000B0F94A0004EBC40101EB4101A04A3B
:1016300002EBC101C1F8B00004EBC40000EB4000B4
:10164000114601EBC000B0F9181004EBC40000EB28
:10165000400002EBC000C0F8C81004EBC40101EB6D
:10166000410102EBC10101F1B00000F07CFE04EB8E
:10167000C40000EB40008E4901EBC000C18804EBC0
:10168000C40000EB40008A4A02EBC000D0F8C4005E
:10169000084401B204EBC40000EB400002EBC000C0
:1016A000C18004EBC40000EB4000114601EBC00018
:1016B000B0F8580090BB04EBC40000EB400001EB15
:1016C000C000C069002807DD04EBC40000EB400047
:1016D00001EBC000C06908E004EBC40000EB40006F
:1016E000734901EBC000C069404240F6C411884212
:1016F00015DD04EBC40000EB40006D4901EBC000B8
:10170000B0F86000401C81B204EBC40000EB400064
:10171000674A02EBC000A0F860100AE0FFE7002172
:1017200004EBC40000EB4000614A02EBC000A0F8EB
:10173000601004EBC40000EB40005D4901EBC00009
:10174000B0F86000322839DD002104EBC40000EB62
:101750004000574A02EBC000A0F86010002004EBE4
:10176000C40101EB410102EBC1018882002104EBBD
:10177000C40000EB400002EBC000C161052004EB97
:10178000C40101EB410102EBC1018870012104EBAE
:10179000C40000EB400002EBC00080F835100020D0
:1017A00004EBC40101EB410102EBC101888001207F
:1017B00004EBC40101EB410102F8310010BD10B58A
:1017C0002DED0E8B044604EBC40101EB4101384AB8
:1017D00002EBC101B1F8700007F0ACFC41EC1A0B50
:1017E00004EBC40000EB4000314A02EBC00090ED76
:1017F0001D0A10EE101A084607F0AEFD41EC1C0B56
:1018000004EBC40101EB4101294A02EBC101B1F92A
:10181000040007F078FC41EC1E0B04EBC40000EB65
:101820004000234901EBC00090ED201BB0EE410ABF
:10183000F0EE610A53EC102B51EC1E0B07F08EFCFE
:1018400053EC1C2B07F08AFC53EC1A2B07F086FC98
:101850001FEDEA0B53EC102B07F0A0FA07F0F6FB94
:1018600004EBC40101EB4101114A02EBC101C86064
:1018700004EBC40000EB4000114601EBC000C0685F
:1018800004EBC40101EB410102EBC101C1F8880086
:1018900004EBC40000EB4000114601EBC0004078AF
:1018A00088B904EBC40000EB400001EBC00001E08C
:1018B000D0660020406D04EBC40101EB410102EB56
:1018C000C101C1F8880004EBC40000EB4000FE49F0
:1018D00001EBC000C16904EBC40000EB4000FA4A10
:1018E00002EBC000C0F8A01004EBC40101EB410101
:1018F00002EBC10101F1880000F035FD04EBC400EA
:1019000000EB4000F04901EBC000D0ED260A04EBEB
:10191000C40000EB400001EBC000D0F89C0000EEDA
:10192000100AB8EEC00A20EE800ABDEEC00A10EE22
:10193000100A04EBC40101EB4101E34A02EBC101CF
:10194000C1F8B00004EBC40000EB4000114601EB0D
:10195000C00090F84400A8B304EBC40000EB4000C2
:1019600001EBC000D0F8B000002808DD04EBC40093
:1019700000EB400001EBC000D0F8B00009E004EB40
:10198000C40000EB4000D04901EBC000D0F8B0002B
:10199000404204EBC40101EB4101CB4A02EBC1011F
:1019A000B1F84610884221DD04EBC40000EB400092
:1019B000114601EBC000D0F8B000002803DA4FF068
:1019C000FF3001E012E0012004EBC40101EB410112
:1019D000BD4A02EBC101B1F84610484304EBC40113
:1019E00001EB410102EBC101C1F8B00004EBC400FE
:1019F00000EB4000B44901EBC000B0F9181004EB53
:101A0000C40000EB4000B04A02EBC000C0F8C810B0
:101A100004EBC40101EB410102EBC10101F1B00093
:101A200000F0A1FC04EBC40000EB4000A64901EB70
:101A3000C000C18804EBC40000EB4000A24A02EBE6
:101A4000C000D0F8C400084401B204EBC40000EBAD
:101A5000400002EBC000C18004EBC40000EB40007A
:101A6000114601EBC000C06D002807DD04EBC40087
:101A700000EB400001EBC000C06D08E004EBC400C7
:101A800000EB4000904901EBC000C06D4042B4281B
:101A90000ADA012004EBC40101EB41018A4A02EB9E
:101AA000C10181F8340009E0002004EBC40101EB1E
:101AB0004101854A02EBC10181F83400BDEC0E8B77
:101AC00010BD70B52DED088B044604EBC40000EB8F
:101AD00040007D4901EBC000018C04EBC40000EB29
:101AE0004000794A02EBC000008E081A01B204EBF4
:101AF000C40000EB400002EBC000A0F8581004EB5B
:101B0000C40000EB4000114601EBC000808A04EBEA
:101B1000C40101EB410102EBC101888404EBC40064
:101B200000EB4000114601EBC000C18A04EBC40089
:101B300000EB400002EBC000C18404EBC40000EBEA
:101B40004000114601EBC000018B04EBC40000EB28
:101B5000400002EBC000018504EBC40000EB400034
:101B6000114601EBC000C16904EBC40000EB40006A
:101B700002EBC000C16204EBC40000EB4000114660
:101B800001EBC000018C04EBC40000EB400002EB51
:101B9000C000018604EBC40000EB4000114601EBDD
:101BA000C000418C04EBC40000EB400002EBC0001D
:101BB000418604EBC40000EB4000114601EBC0007D
:101BC000B0F95800002808DD04EBC40000EB400029
:101BD00001EBC000B0F9580009E004EBC40000EBD1
:101BE0004000394901EBC000B0F95800404241F2D1
:101BF000360188422CDD04EBC40000EB4000324982
:101C000001EBC000B0F9581004EBC40000EB400039
:101C10002D4A02EBC000B0F95800002802DA4FF05C
:101C2000FF3000E0012004EBC40202EB4202264B2D
:101C300003EBC202B2F8702000FB121001B204EBF9
:101C4000C40000EB40001A4602EBC000A0F8581098
:101C500004EBC40000EB40001B4901EBC000C1696C
:101C600004EBC40000EB4000174A02EBC000B0F9DF
:101C70005800014404EBC40000EB400002EBC0003C
:101C8000C16104EBC40000EB4000114601EBC00051
:101C9000C16804EBC40000EB400002EBC000C06967
:101CA000091A04EBC40000EB400002EBC000C16560
:101CB00004EBC40101EB410102EBC101B1F870007A
:101CC00007F038FA02E00000D066002041EC190B62
:101CD00004EBC40000EB4000C14901EBC000C06947
:101CE00000EE100AB8EEC00ADFEDBE0A20EE200AB0
:101CF00004EBC40000EB400001EBC000D0ED1D0A76
:101D000080EE201A11EE105A284607F025FB41EC10
:101D10001B0B04EBC40000EB4000B14901EBC00019
:101D200090ED201BB0EE410AF0EE610A53EC102B4F
:101D300051EC1B0B07F032F853EC192B07F02EF87F
:101D400007F084F900B204EBC40101EB4101A44A9D
:101D500002EBC101888204EBC40000EB4000114695
:101D600001EBC000407868B104EBC40000EB400018
:101D700001EBC000C16904EBC40000EB400002EBC2
:101D8000C000416504EBC40000EB4000944901EB46
:101D9000C00090F8390040B104EBC40101EB4101EF
:101DA0008F4A02EBC100FFF72CFCBDEC088B70BD25
:101DB00010B5044604EBC40000EB4000884911F85C
:101DC000300001285ED104EBC40000EB400001EBC1
:101DD000C00090F84E00E8B305F090FF824951F83A
:101DE0002410401A40F2DC51884214D304EBC400A2
:101DF00000EB40007A4901EBC00090F86400401C01
:101E0000C1B204EBC40000EB4000754A02EBC00015
:101E100080F8641009E0002104EBC40000EB4000EE
:101E20006F4A02EBC00080F8641004EBC40000EBC2
:101E300040006B4901EBC00090F8641004EBC40053
:101E400000EB4000664A02EBC000B0F86C0000EB0B
:101E5000800000E016E04000814209DD012104EB32
:101E6000C40000EB400002EBC00080F8371009E02E
:101E7000002104EBC40000EB4000594A02EBC00013
:101E800080F8371010BD2DE9F04186B004460D46AC
:101E900016461F464FF0000800208DF80C008DF804
:101EA0000D0008208DF80E004FF40078CDF8048066
:101EB0004B480078012805D1200A8DF80F008DF8D5
:101EC000104005E000208DF80F0000218DF8101063
:101ED000434890F8D800012805D1290A8DF811103F
:101EE0008DF8125004E000218DF811108DF81210B9
:101EF0003B4890F8B001012805D1310A8DF8131044
:101F00008DF8146004E000218DF813108DF8141082
:101F1000334890F88802012805D1390A8DF8151048
:101F20008DF8167004E000218DF815108DF816104C
:101F300001A92E4801F052FB06B0BDE8F081002057
:101F40004BE000EBC00101EB4101254A02EBC1016E
:101F5000B1F90610002908DD00EBC00101EB4101D9
:101F600002EBC101B1F9061009E000EBC00101EB81
:101F700041011B4A02EBC101B1F90610494200EBD5
:101F8000C00202EB4202164B03EBC202B2F8782009
:101F9000914220DD00EBC00101EB41011A4602EB4A
:101FA000C101B1F90610002902DA4FF0FF3100E05B
:101FB000012100EBC00202EB4202094B03EBC2021B
:101FC000B2F8782051430AB200EBC00101EB4101A5
:101FD00003EBC101CA80411CC8B20828B1DB7047BD
:101FE000D06600200000B443880C00200068004048
:101FF00030B502460023012904D10120CC4C2072C7
:10200000062303E00120CA4C60720823002029E067
:1020100000256724444302EBC4042561672444433C
:1020200002EBC40425736724444342F83450672408
:10203000444302EBC40465606724444302EBC404D8
:10204000E5826724444302EBC404A5826724444329
:1020500002EBC404A5606724444302EBC40484F883
:102060002550401C9842D3DB30BD2DE9F041054698
:102070000E4617464FF00008012F02D14FF0060818
:1020800001E04FF00808002494E06720604305EB6E
:10209000C000006901287DDB3046FEF7D8FE08B19C
:1020A000BDE8F0816721614305EBC10101F1140036
:1020B000FEF7C4FE30B100216720604305EBC0008D
:1020C0008160EDE76720604305EBC0000069401EBA
:1020D0006721614305EBC10108616720604305EB9F
:1020E000C00018306721614305EBC101898A00EB0C
:1020F000011072880168301D00EB0210016067203A
:10210000604305EBC00018306721614305EBC10156
:10211000898A00EB011001797288301D00EB0210F2
:1021200001716720604305EBC000183067216143EF
:1021300005EBC101898A00EB0110417B7288301DDB
:1021400000EB021041736723634305EBC3031833AD
:102150004FF0670C04FB0CFC05EBCC0CBCF814C076
:1021600003EB0C13591DB6F802C0331D03EB0C131F
:102170001A79331D03EB0C13581D05F0E3FF30886B
:10218000401C322190FBF1F201FB120030806720ED
:10219000604300E00DE005EBC000808A401C90FB2E
:1021A000F1F201FB120081B26720604305EBC00031
:1021B0008182641C4445FFF668AF00BF70E72DE9DB
:1021C000F04104460E4617464FF00008FF253188BF
:1021D000301D00EB0110407B08B9BDE8F081012FF4
:1021E00002D14FF0060809E04FF008083188301D91
:1021F00000EB01100088A0F2013085B245450DDAF0
:102200006721694304EBC10101F11400FEF71FFED1
:1022100048B1012F03D101204549887286E0012091
:102220004349C87282E06720684304EBC00000693C
:10223000401C6721694304EBC101086167206843C2
:1022400054F83000401C6721694344F8310031885C
:10225000301D00EB011002686720684304EBC000EA
:1022600018306721694304EBC101C98A00EB0110F2
:1022700002603188301D00EB01100279672068434D
:1022800004EBC00018306721694304EBC101C98A1F
:1022900000EB011002713188301D00EB0110427B10
:1022A0006720684304EBC00018306721694304EBE2
:1022B000C101C98A00EB0110427367236B4304EB31
:1022C000C30318334FF0670C05FB0CFC04EBCC0C7C
:1022D000BCF816C003EB0C131A7967236B4304EBAD
:1022E000C30318334FF0670C05FB0CFC04EBCC0C5C
:1022F000BCF816C003EB0C13581DB6F800C0331D14
:1023000003EB0C13591D05F01DFF6720684304EB18
:10231000C000C08A401C322190FBF1F201FB120088
:1023200081B26720684304EBC000C18200BF54E75C
:10233000E80C00200022826180ED031AC0ED020A41
:1023400080ED010AC0ED041A0160C261002303623E
:102350004362704780ED000AC0ED010A80ED021A69
:10236000C0ED041A704701688269891AC161C269A7
:10237000016A511A00EE101AB8EEC00AD0ED010A37
:1023800020EE200A90ED021AC16900EE901AF8EED4
:10239000E00A01EE200AC269016A022303FB11224E
:1023A000416A114400EE901AF8EEE00A90ED031A2B
:1023B00001EE200ABDEEC00A10EE101A4161026A59
:1023C0004262C2690262704770B504460D46164605
:1023D0002563E662206BE16A401A6062206B002888
:1023E00001DD206B01E0206B4042142806DA9FEDEE
:1023F000360A84ED060A606AA06270BD606A00EE6B
:10240000100AB8EEC00AD4ED000A20EE200ADFED73
:102410002F0A80EE201A84ED051A606A00EE100A79
:10242000B8EEC00AD4ED010A60EE200A9FED281A2A
:1024300080EE810A9FED251AC0EE010A94ED060A8E
:1024400030EE800A84ED060A606AA16A401A00EE46
:10245000100AB8EEC00AD4ED020A20EE200A84ED7C
:10246000070A94ED030AD4ED070A70EE600A94EDB2
:10247000030A94ED041A01EE600A84ED030A94ED58
:10248000030A84ED070AF7EE000ABFEE000A04F122
:10249000180000F0B1F9606AA06294ED050AD4ED6D
:1024A000060A30EE200AD4ED070A30EE200A84ED49
:1024B000080AF7EE000ABFEE000A04F1200000F05F
:1024C0009BF900BF99E70000000000000000C8422F
:1024D00000007A441CB50121042002F06DF84FF48D
:1024E0004060009000208DF8060001208DF8040067
:1024F00002208DF805006946194801F017FE4FF4D7
:102500008061174801F08EFE4FF40061144801F01D
:102510008BFE1CBD70B50446FF2C00DDFF2400259A
:102520001AE04FF480610E4801F07EFE04F00100D5
:1025300028B14FF400610A4801F074FE04E04FF442
:102540000061074801F070FE4FF48061044801F01B
:1025500069FE6410681CC5B2082DE2DB70BD000086
:10256000000802401CB50121084602F025F8F020C1
:10257000009001208DF8040002208DF80500002055
:102580008DF8060001208DF8070069461F4801F00C
:10259000CDFD10201D49088320200883402008839A
:1025A000802008831CBD10B5102018494883642082
:1025B00000F082F8202015494883642000F07CF860
:1025C000402012494883642000F076F880200F49AB
:1025D0004883642000F070F810200C4908836420C0
:1025E00000F06AF8202009490883642000F064F8AC
:1025F000402006490883642000F05EF880200349EB
:102600000883642000F058F810BD0000000002406C
:102610001CB50121022001F0CFFF4FF44070009063
:1026200001208DF8040000208DF8060002208DF8AE
:1026300005006946154801F079FD4FF48071134893
:1026400001F0F0FD4FF40071104801F0EDFD1CBDEC
:1026500070B50446112C00DD11240D48055D0026DF
:1026600010E005F0010028B14FF40071074801F0B7
:10267000D9FD04E04FF48071044801F0D3FD6D10E2
:10268000701CC6B2082EECDB70BD000000040240D6
:1026900038950008704706E04FF4FA7000F00CF827
:1026A0000920FFF7D5FFF7E700BFFEE700BFFEE711
:1026B00000BFFEE77047704710B5002107E04AF2FF
:1026C000104200BF1300A2F10102FBD1491C81425C
:1026D000F5D310BD10B5002106E0282200BF13007D
:1026E000A2F10102FBD1491C8142F6D310BD00BF0B
:1026F0000100A0F1010290B2FAD1704790ED001AEA
:10270000B4EEC01AF1EE10FA12D290ED001A31EECA
:10271000201AB4EEC01AF1EE10FA06D290ED001AAB
:1027200031EE201A80ED001A1BE080ED000A18E05F
:1027300090ED001AB4EEC01AF1EE10FA11DD90ED32
:10274000001A31EE601AB4EEC01AF1EE10FA06DD8E
:1027500090ED001A31EE601A80ED001A01E080ED74
:10276000000A7047F0EE401A31EE612A70EEE12A5D
:1027700082EE220A704710B50446D4ED000AB0EE8E
:10278000600ADFEDF90A05F065FF84ED000A94EDBB
:10279000000AB5EEC00AF1EE10FA07D294ED000A75
:1027A000DFEDF10A30EE200A84ED000A10BD07E0EB
:1027B00090ED000ADFEDED0A30EE200A80ED000A10
:1027C00090ED000ADFEDEA0AB4EEE00AF1EE10FA4D
:1027D000EED307E090ED000ADFEDE40A30EE600A88
:1027E00080ED000A90ED000ADFEDE20AB4EEE00AA7
:1027F000F1EE10FAEEDC70470146002091ED001A70
:10280000B4EEE01AF1EE10FA03DDC1ED000A01208A
:1028100009E091ED001AB4EEC01AF1EE10FA02D2FE
:1028200081ED000A0120704710B5034600201C68A6
:10283000944202DD1A60012004E01C688C4201DA37
:102840001960012010BD01460020D1ED000AF4EE10
:10285000C00AF1EE10FA03DD81ED000A01200DE05F
:10286000D1ED000AB1EE401AF4EEC10AF1EE10FA11
:1028700004D2F1EE400AC1ED000A0120704710B504
:102880000246002013688B4202DD1160012006E041
:102890004C421368A34202DA4B421360012010BD80
:1028A000F0EE402A32EEE00A32EE613A20EE030A00
:1028B00071EE603A80EE233A33EE210A704770B52C
:1028C0000446049D601AEE1A7043561A90FBF6F007
:1028D000184470BDB0EE401A90ED000AB0EEC00A88
:1028E000B4EEC10AF1EE10FA04D29FEDA30A80ED16
:1028F000000A28E070EEC11A80EEA12AB0EE420A6A
:10290000D0ED001AF5EEC01AF1EE10FA0CDDD0EDA4
:10291000001A61EE801AB7EE002A32EE402A40EE2D
:10292000821AC0ED001A0DE0D0ED001AF1EE611A26
:1029300061EE801AB7EE002A32EE402A50EEC21A3B
:10294000C0ED001A00BF7047B0EE401A71EE601A79
:10295000B0EE610A05E0DFED841A70EE211AB0EEE8
:10296000610ADFED861AB4EEE10AF1EE10FAF2D355
:1029700005E0DFED7D1A70EE611AB0EE610ADFED61
:10298000801AB4EEE10AF1EE10FAF2DC7047B0EE14
:10299000401A71EE601AB0EE610A05E0DFED731ABD
:1029A00070EE211AB0EE610ADFED711AB4EEE10AA1
:1029B000F1EE10FAF2D305E0DFED6C1A70EE611A59
:1029C000B0EE610ADFED6B1AB4EEE10AF1EE10FA37
:1029D000F2DC7047B0EE402AB0EEC20ADFED692AA1
:1029E00030EE220AB0EE401AF5EEC00AF1EE10FA0F
:1029F00018DB30EEC13A70EE813A83EE234AB0EE36
:102A0000440A20EE003AF0EE432A9FED5F3ADFEDF4
:102A10005F3A13EEA23ADFED5E3AF0EE631A43EE50
:102A2000001A18E030EE813A71EE603A83EE234AE4
:102A3000B0EE440A20EE003AF0EE432A9FED523AFF
:102A4000DFED523A13EEA23ADFED523AF0EE631A9E
:102A500043EE001A00BFB5EEC02AF1EE10FA02D222
:102A6000B1EE610A7047B0EE610AFBE705E0DFED09
:102A70003F0A70EE200AB0EE600ADFED3D0AB4EEC8
:102A8000E00AF1EE10FAF2D305E0DFED380A70EE5D
:102A9000600AB0EE600ADFED370AB4EEE00AF1EE4C
:102AA00010FAF2DCB5EEC00AF1EE10FA36D2DFED24
:102AB0003A0A60EE200A9FED391A20EE011A41EE23
:102AC000000AC0ED000AD0ED000AF5EEC00AF1EEF2
:102AD00010FA12D2D0ED000A90ED001AD0ED001AD3
:102AE000F1EE611A51EE210A90ED001ADFED2C1A79
:102AF00001EEA01A80ED001A64E0D0ED000A90ED1E
:102B0000001AD0ED001A51EE210A90ED001ADFED07
:102B1000241A01EEA01A80ED001A53E0DFED1E0A20
:102B200060EE200A9FED1D1A20EE011A41EE400AC8
:102B3000C0ED000AD0ED000AF5EEC00AF1EE10FA81
:102B400030D2D0ED000A90ED001AD0ED001AF1EE6F
:102B5000611A51EE210A90ED001ADFED111A01EE13
:102B6000A01A80ED001A2DE00000B443DB0FC9402D
:102B7000DB0F49C0DB0F494000000000000034C3F8
:102B80000000344308E53C1EB1507B3FDE02493E65
:102B9000DB0F493FE4CB164083F9A23F7B81CF3E58
:102BA0006666663ED0ED000A90ED001AD0ED001A80
:102BB00051EE210A90ED001A5FED071A01EEA01AFE
:102BC00080ED001ADFEDFD0A70EE200AB0EE600A1B
:102BD0005FED180AB4EEE00AF1EE10FA05DD5FEDE4
:102BE0001D0A70EE600AB0EE600AB5EEC00AF1EEA2
:102BF00010FA36D25FED180A60EE200A1FED191A9E
:102C000020EE011A41EE000AC1ED000AD1ED000AE2
:102C1000F5EEC00AF1EE10FA12D2D1ED000A91EDF4
:102C2000001AD1ED001AF1EE611A51EE210A91ED70
:102C3000001A5FED251A01EEA01A81ED001A46E098
:102C4000D1ED000A91ED001AD1ED001A51EE210AE2
:102C500091ED001A5FED2E1A01EEA01A81ED001A17
:102C600035E05FED330A60EE200A1FED341A20EEE6
:102C7000011A41EE400AC1ED000AD1ED000AF5EE5D
:102C8000C00AF1EE10FA12D2D1ED000A91ED001A4D
:102C9000D1ED001AF1EE611A51EE210A91ED001A00
:102CA0005FED411A01EEA01A81ED001A0FE0D1ED9F
:102CB000000A91ED001AD1ED001A51EE210A91EDB2
:102CC000001A5FED491A01EEA01A81ED001A704753
:102CD0003CB504460B4615461FED590AF0EE404A36
:102CE0001FED5B0AB0EE405A002222E004EB8200A6
:102CF000D0ED000AB0EE600A694601A8FFF7B6FE03
:102D000003EB8200D0ED000A9DED011AB0EE640ADB
:102D100001EE200AF0EE404A03EB8200D0ED000AFB
:102D20009DED001AB0EE450A01EE200AB0EE405AC1
:102D3000521CAA42DADBF0EE450AB0EE640AFFF755
:102D400049FE3CBDF0EE401AF4EEE01AF1EE10FA46
:102D500011D8F4EEC11AF1EE10FA0CD8F4EEC10A53
:102D6000F1EE10FA02D8B0EE602A01E0B0EE412A8E
:102D7000B0EE420A22E0F4EEE10AF1EE10FA11D8C8
:102D8000F4EEC10AF1EE10FA0CD8F4EEC11AF1EE2D
:102D900010FA02D8B0EE612A01E0B0EE412AB0EE9E
:102DA000420A0BE0F4EEE01AF1EE10FA02D8B0EEAF
:102DB000612A01E0B0EE602AB0EE420A704710B519
:102DC00003468B4208DC934206DC914201DC0C4650
:102DD00000E01446204610E0994208DC914206DCEF
:102DE000934201DC1C4600E01446204605E08B427D
:102DF00001DC1C4600E00C46204610BD08B5F0EE94
:102E0000400AB6EE000A20EE800AB0EE401ACDED80
:102E1000000A6B490098A1EB600000909DED000A4C
:102E200060EE011A9DED002AB7EE080A01EEC20A13
:102E3000DDED001A20EE210A8DED000A9DED000A5D
:102E400008BD70B52DED028B05460C46B0EE408AEC
:102E50000026D5ED000A60EEA00A94ED001AD4ED2C
:102E6000001A41EE210AB0EE600A05F051FFF0EEC3
:102E7000408AB0EEC80AB0EE408A9FED520AF4EEE6
:102E8000C08AF1EE10FA03D29FED4E0AF0EE408AAE
:102E9000F4EEC88AF1EE10FA11DDC8EE280AB0EEA1
:102EA000600AD5ED000A60EE800AC5ED000AD4ED97
:102EB000000A60EE800AC4ED000A012600BF304619
:102EC000BDEC028B70BD05E05FEDD80A70EE200A04
:102ED000B0EE600A5FEDDA0AB4EEE00AF1EE10FA45
:102EE000F2D305E05FEDDF0A70EE600AB0EE600A33
:102EF0005FEDE00AB4EEE00AF1EE10FAF2DCB5EEB6
:102F0000C00AF1EE10FA0CD25FEDDD0A60EE200A85
:102F10001FEDDE1A20EE011A41EE000AC0ED000A94
:102F20000BE05FEDE30A60EE200A1FEDE41A20EEED
:102F3000011A41EE400AC0ED000ADFED200A70EEF2
:102F4000200AB0EE600A5FEDF50AB4EEE00AF1EE99
:102F500010FA05DD5FEDFB0A70EE600AB0EE600A64
:102F6000B5EEC00AF1EE10FA0CD25FEDF50A60EE94
:102F7000200A1FEDF61A20EE011A41EE000AC1EDFB
:102F8000000A0BE05FEDFC0A60EE200A1FEDFD1A5F
:102F900020EE011A41EE400AC1ED000A7047B0EE82
:102FA000401AF0EEC11AB0EEE02AF4EEC21AF1EEC9
:102FB00010FA09D2B0EE410A08E00000DB0FC93F69
:102FC000DF59375FFFE6DB2EB0EE600A7047B0EEE8
:102FD000401AF0EEC11AB0EEE02AF4EEC21AF1EE99
:102FE00010FA02DDB0EE410A01E0B0EE600A70476F
:102FF00070B506460D460020287080240BE006EAD6
:103000000400A04201D171A000E071A00146284651
:1030100005F08CF86410002CF1DC70BD10B52DEDBE
:10302000088BB0EE409AF0EE609AB0EE41AA0446EA
:103030009FED680AF0EE40AABFEE000AB4EEC09A17
:10304000F1EE10FA03D2BFEE000AB0EE409AB7EEEE
:10305000000AB4EEC09AF1EE10FA03DDB7EE000AF2
:10306000B0EE409AF0EEC98AB5EEC09AF1EE10FAD1
:1030700002DBB0EE698A01E0B0EE4A8A34BBB5EEFD
:10308000C08AF1EE10FA14DBB7EE001A38EE011A1E
:10309000F0EE410AB7EE001A31EE681AB0EE410ABE
:1030A00005F030FBF7EE000A30EEC00AF0EE40AA61
:1030B0007EE0B7EE000A30EE480AF0EE400AB0EECD
:1030C000680A05F01FFBF0EE40AA71E0012C48D120
:1030D000B0EEC80A5FED450AB4EEE00AF1EE10FA70
:1030E00002D2F0EE68AA63E0B5EEC08AF1EE10FA03
:1030F0001EDBF7EE000A70EEE80A60EE880AB0EE1A
:10310000600A05F0B3F9F7EE000A30EE60BAB0EEEF
:10311000480A05F0ABF9F7EE000A70EE600A8BEE94
:10312000200AF7EE000A30EEC00AF0EE40AA3FE0B7
:10313000F1EE480A60EEA80AB0EE600A05F096F9D2
:10314000F7EE000A30EE60BAB1EE480A05F08EF9EB
:10315000F7EE000A30EE600ACBEE000AF0EE60AA4D
:1031600026E0022C22D1B5EEC08AF1EE10FA10DB77
:10317000B7EE000A70EE680AB7EE000A08EE280AF9
:1031800080EE801AB7EE000A30EE410AF0EE40AA57
:103190000EE0B7EE000A70EE680AB7EE000A08EE1D
:1031A000600AC8EE800AF0EE60AA01E0F0EE68AABC
:1031B000B5EEC09AF1EE10FA03D2B1EE6A0AF0EE63
:1031C00040AAB0EE6A0ABDEC088B10BD31000000C9
:1031D000300000000000000032490143324A116013
:1031E000704770B5002100230F22C4781CB32E4C09
:1031F000246804F4E064C4F5E064C4F30721C1F179
:103200000404E3B20A4144789C40E1B2847814405B
:1032100021430C07210E254C05786155047804F0F4
:103220001F050124AC4005786D11AD0005F1E025C6
:10323000C5F8004109E0047804F01F050124AC4002
:103240001B4D0678761145F8264070BD194A0A4094
:103250000243154B1B1F1A60704739B1124A121DE9
:1032600012680243104B1B1D1A6006E00E4A121D25
:10327000126882430C4B1B1D1A607047042808D14A
:103280004FF0E021096941F004014FF0E0221161A3
:1032900007E04FF0E021096921F004014FF0E0223E
:1032A000116170470000FA050CED00E000E400E059
:1032B00080E100E080FFFF1F10B50446FE48844215
:1032C00009D10121480601F012FA00214FF00070E7
:1032D00001F00DFA08E00121880601F008FA00214A
:1032E0004FF0806001F003FA10BD30B502460020B7
:1032F0000023146824F002041460146844F00104EC
:10330000146000E05B1C546804F001041CB94FF623
:10331000FF74A342F6D1546804F001040CB90020F4
:103320006CE08C79012C04D1146844F080041460A2
:1033300003E0146824F080041460CC79012C04D1DB
:10334000146844F04004146003E0146824F040045E
:1033500014600C7A012C04D1146844F02004146029
:1033600003E0146824F0200414604C7A012C04D18A
:10337000146844F01004146003E0146824F010048E
:1033800014608C7A012C04D1146844F00804146091
:1033900003E0146824F008041460CC7A012C04D1F2
:1033A000146844F00404146003E0146824F0040476
:1033B00014608C78A407CD7844EA05640D7944EA5A
:1033C00005444D7944EA05540D886D1E2C43D461A3
:1033D000146824F001041460002300E05B1C5468AE
:1033E00004F001041CB14FF6FF74A342F6D15468F7
:1033F00004F001040CB1002000E0012030BD10B544
:103400000021837A012202FA03F1AC4A126842F0E9
:103410000102AA4B1A60A94A1C3212688A43A74BC0
:103420001C331A60027BCAB9A44A0C3212688A4360
:10343000A24B0C331A604288C38842EA03439F4A76
:103440004032847A42F834300288838842EA034367
:103450009A4A4032847A02EBC4025360027B012A0A
:1034600019D1964A0C3212680A43944B0C331A60F5
:103470004288038842EA0343904A4032847A42F801
:103480003430C288838842EA03438C4A4032847ACB
:1034900002EBC4025360C27A3AB9884A121D12681C
:1034A0008A43864B1B1D1A6006E0844A121D12686F
:1034B0000A43824B1B1D1A60028932B97F4A1432BB
:1034C00012688A437D4B14331A600289012A06D19F
:1034D0007A4A143212680A43784B14331A60427BDA
:1034E000012A06D1754A1C3212680A43734B1C33F9
:1034F0001A60724A126822F00102704B1A6010BD05
:1035000000218171C171017241728172C172817039
:10351000C1700321017102214171012101807047B5
:103520006649096841F00101644A11601146096861
:1035300043F60E729143614A11601146096841EAEF
:10354000002111601146096821F0010111607047E6
:1035500021B1026842F48032026003E0026822F482
:10356000803202607047E1B1026842F0800202607E
:103570004FF4C272125842F480734FF4C272135067
:103580004FF4CA72125842F480734FF4CA72135047
:103590004FF4D272125842F480734FF4D272135027
:1035A0001BE0026822F0800202604FF4C2721258DF
:1035B00022F480734FF4C27213504FF4CA7212583F
:1035C00022F480734FF4CA7213504FF4D27212581F
:1035D00022F480734FF4D2721350704710B5024634
:1035E0000020936803F08063B3F1806F00D110E096
:1035F000936803F00063B3F1006F01D1012008E08C
:10360000936803F08053B3F1805F01D1022000E0A2
:103610000420042879D002F5C07303EB00131B6863
:1036200003F0010402F5C07303EB00131C600B7A76
:103630007BB94B7A0C8843EA445302F5C07404EB1F
:1036400000142468234302F5C07404EB00142360C3
:1036500010E00B7A4C6843EAC4034C7A234302F52A
:10366000C07404EB00142468234302F5C07404EB17
:10367000001423608B7A03F00F038B7202F5C07382
:1036800003EB00135B6823F00F0402F5C07303EB38
:1036900000135C6002F5C07303EB00135B688C7A67
:1036A000234302F5C07404EB001463608B7B1C069B
:1036B0004B7B44EA034403E00064004000660040A2
:1036C0000B7B44EA0323CC7A234302F5C07404EB5A
:1036D0000014A3608B7C1C064B7C44EA03440B7CE7
:1036E00044EA0323CC7B234302F5C07404EB0014AB
:1036F000E36002F5C07303EB00131B6843F00104A1
:1037000002F5C07303EB00131C6010BD10B5024638
:10371000002321B1012907D002290FD109E09068C7
:10372000F94C00EA04030BE09068F84C00EA04034B
:1037300006E09068F64C00EA040301E0002300BFB5
:1037400000BFF44C181BA34216D007DC83B16FF006
:103750008060184470B1022818D111E0B0F5007FE4
:1037600010D0ED4C204448B1B0F5003F0ED10BE035
:1037700002230DE000230BE0002309E0002307E013
:10378000012305E0012303E0012301E0002300BF42
:1037900000BFD8B210BD21B1012907D002290FD135
:1037A00009E0826842F0800282600AE0826842F4A6
:1037B0000042826005E0826842F40002826000E01C
:1037C00000BF00BF704710B500F5D87303EB0113BD
:1037D0001B6803F004031372137A53B900F5D8730E
:1037E00003EB01131B6840F2FF7404EA53531360A8
:1037F00009E000F5D87303EB01131B686FF0604418
:1038000004EAD303536000F5D87303EB01131B687C
:1038100003F00203537200F5D87303EB01135B68E6
:1038200003F00F03937200F5D87303EB01135B6889
:103830001B0AD37400F5D87303EB01139B68D37292
:1038400000F5D87303EB01139B681C0A147300F591
:10385000D87303EB01139B681C0C547300F5D873E9
:1038600003EB01139B681B0E937300F5D87303EBF6
:103870000113DB68D37300F5D87303EB0113DB6826
:103880001C0A147400F5D87303EB0113DB681C0CDD
:10389000547400F5D87303EB0113DB681B0E9374AB
:1038A00021B9C36843F02003C36003E0036943F018
:1038B0002003036110BD21B9C26842F02002C2603A
:1038C00003E0026942F020020261704702460020D4
:1038D00019B9D36803F0030006E0012903D1136985
:1038E00003F0030000E00020704710B502460B46CD
:1038F00000204FF6FF71BBB9146824F0020444F0B5
:103900000104146000E0491E546804F00304012C13
:1039100001D00029F7D1546804F00304012C01D030
:10392000002032E0012030E0012B13D1146824F094
:103930000304146000E0491E546804F003040CB151
:103940000029F8D1546804F003040CB100201CE0F5
:1039500001201AE0022B17D1146824F0010444F06E
:103960000204146000E0491E546804F00304022CB1
:1039700001D00029F7D1546804F00304022C01D0CF
:10398000002002E0012000E0002010BD01460020E0
:103990000A6822F0010242F002020A604A6802F05C
:1039A0000302022A00D10120704701464FF6FF7240
:1039B00000200B6823F002030B6000E0521E4B68EE
:1039C00003F00203022B01D1002AF7D14B6803F068
:1039D0000203022B00D001207047014600208A69B3
:1039E00002F070007047014600208A69100E70478F
:1039F000014600208A69C2F3074070471AB1436943
:103A00000B43436102E043698B434361704710B548
:103A10000246002001F4700343B19369C1F313041B
:103A200023400BB101202DE000202BE001F080733A
:103A300043B15368C1F3130423400BB1012021E0CB
:103A400000201FE001F0006343B19368C1F3130449
:103A500023400BB1012015E0002013E001F00073BA
:103A600043B1D368C1F3130423400BB1012009E033
:103A7000002007E01369C1F3130423400BB10120B8
:103A800000E0002010BD0022244B994202D1002307
:103A9000836111E0C1F3130201F000730BB1C26046
:103AA0000AE001F080630BB1026105E001F0006300
:103AB0000BB1826000E0426070470246002002EADB
:103AC00001030BB1012000E00020704770B50446EF
:103AD0000D46002660692840002872D0B5F5807F29
:103AE00069D01DDC082D42D006DC012D2DD0022D21
:103AF00031D0042D7FD134E0102D3ED0202D42D086
:103B0000402D78D145E000000300000400030008C8
:103B100000000310000100080001FFF77000F03002
:103B2000B5F5004F61D009DCB5F5007F4AD0B5F599
:103B3000806F4DD0B5F5006F5DD150E0B5F5803F99
:103B40002DD0B5F5003F56D12FE0A0685549FFF7BD
:103B5000B4FF064651E0E0680321FFF7AEFF0646DA
:103B60004BE0E0680821FFF7A8FF064645E0E06863
:103B70001021FFF7A2FF06463FE020690321FFF76F
:103B80009CFF064639E020690821FFF796FF0646AC
:103B900033E020691021FFF790FF06462DE06068B2
:103BA0000821FFF78AFF064627E060681021FFF72B
:103BB00084FF064621E0A0690121FFF77EFF06464B
:103BC0001BE01BE0A0690221FFF777FF064614E027
:103BD000A0690421FFF771FF06460EE00BE0A06923
:103BE0007021FFF76AFF064607E060680421FFF7CF
:103BF00064FF064601E0002600BF00E000263046D4
:103C000070BDB1F5007F3AD00FDC202928D006DC4A
:103C100001291CD004291DD0082940D11DE04029CC
:103C200021D0B1F5807F3AD126E0B1F5004F31D0F7
:103C300006DCB1F5806F25D0B1F5006F2FD124E0FF
:103C4000B1F5803F12D0B1F5003F28D111E0154AFF
:103C5000826025E00822C26022E01022C2601FE0DC
:103C6000082202611CE01022026119E00822426071
:103C700016E01022426013E00422426010E00422A9
:103C800042600DE0042242600AE0002282610422C8
:103C9000426005E0002282610422426000E000BF31
:103CA00000BF704701010100016821F001010160BE
:103CB0000021016041608160C16001612121416199
:103CC000DB49884204D13D21D94A103A91608CE009
:103CD000D7491831884205D14FF47461D44A103A5B
:103CE000916082E0D2493031884205D14FF474119D
:103CF000CF4A103A916078E0CD494831884205D1E9
:103D00004FF07461CA4A103A91606EE0C849603160
:103D1000884204D1C749C64A103AD16065E0C44917
:103D20007831884204D1C449C14A103AD1605CE07C
:103D3000BF499031884204D1C049BD4A103AD16090
:103D400053E0BB49A831884205D14FF03D51B84AF4
:103D5000103AD16049E0BA49884204D13D21B84ABD
:103D6000083A116041E0B6491831884205D14FF454
:103D70007461B34A083A116037E0B1493031884282
:103D800005D14FF47411AE4A083A11602DE0AC49E8
:103D90004831884205D14FF07461A94A083A116050
:103DA00023E0A7496031884204D1A249A44A121FE6
:103DB00011601AE0A2497831884204D19E49A04A94
:103DC000121F116011E09E499031884204D19B4935
:103DD0009B4A121F116008E09949A831884204D11A
:103DE0004FF03D51964A121F1160704710B50022E6
:103DF0000268944B1A40CC680B6823434C692343F8
:103E00008C692343CC6923430C6A23434C6A2343C4
:103E10008C6A23434C6B23438C6B23431A4302600D
:103E2000426922F00702D1E90B3423431A4342616D
:103E30000B6943604B6883608B68C36010BD0021D1
:103E4000016041608160C160016141618161C16166
:103E5000016241628162C1620163416381637047B3
:103E600021B1026842F00102026003E0026822F020
:103E700001020260704721B1026842F40042026010
:103E800003E0026822F400420260704721B1026838
:103E900042F02002026003E0026822F02002026089
:103EA0007047416070470146486880B2704722B150
:103EB000036843F40023036003E0036823F4002352
:103EC00003600161704721B1026842F48022026000
:103ED00003E0026822F48022026070470AB10161A7
:103EE00000E0C1607047014600200A6802F4002229
:103EF0000AB1012000E000207047014600200A6856
:103F000002F001020AB1012000E0002070470146E2
:103F100000204A6902F03800704730B503460A466F
:103F200000200024464DAB4202D24149103901E045
:103F30004349103902F000550DB14C6800E00C689F
:103F4000414D2C4004EA02050DB1012000E00020A3
:103F500030BD02463A4B9A4202D23548103801E051
:103F60003748103801F000531BB1374B0B40C3608A
:103F700002E0354B0B408360704710B501F08003C1
:103F80004BB122B1436943F08003436103E04369CD
:103F900023F08003436180290BD02AB1036801F02C
:103FA0001E042343036004E0036801F01E04A343DE
:103FB000036010BD70B50246002000240025204E8D
:103FC000B24202D21A4B103B01E01D4B103B1F4E78
:103FD0000E4036B11E2606EAD124166806EA04050C
:103FE00002E0566906F0800501F000560EB15C68EB
:103FF00000E01C68144E344004EA010616B10DB10D
:10400000012000E0002070BD02460D4B9A4202D212
:104010000748103801E00A48103801F000531BB17E
:10402000094B0B40C36002E0074B0B4083607047B5
:10403000106002403D000020400F002000003D20A5
:10404000106402403F801CF07D0F7D0F3C0F3C0F41
:1040500010B504468C48844208D10121084600F07E
:1040600000FB0021012000F0FCFA5EE0874884425A
:1040700008D10121022000F0F4FA0021022000F012
:10408000F0FA52E08248844208D10121042000F075
:10409000E8FA0021042000F0E4FA46E07D4884427A
:1040A00008D10121082000F0DCFA0021082000F0EE
:1040B000D8FA3AE07848844208D10121102000F073
:1040C000D0FA0021102000F0CCFA2EE07348844290
:1040D00008D10121202000F0C4FA0021202000F0A6
:1040E000C0FA22E06E48844208D10121402000F04D
:1040F000B8FA0021402000F0B4FA16E06948844282
:1041000008D10121802000F0ACFA0021802000F0CD
:10411000A8FA0AE06448844207D10121801500F022
:10412000A0FA0021A01500F09CFA10BDF0B50A46D7
:1041300000210023002400BF3DE0012505FA01F322
:10414000156805EA03049C4234D105684F00032634
:10415000BE40B543056015794E00B540066835434D
:1041600005601579012D02D01579022D16D18568CB
:104170004F000326BE40B543856055794E00B540DB
:10418000866835438560456801268E40B5434560A5
:10419000456896798E40B6B235434560C5684F0094
:1041A0000326BE40B543C560D5794E00B540C6680C
:1041B0003543C560491C1029BFD3F0BD4FF6FF71D0
:1041C00001600021017141718171C171704708B5B1
:1041D0004FF480320092009A0A430092009AC26122
:1041E000C161009AC261C2690092C269009208BDB1
:1041F0000246002013690B400BB1012000E00020B3
:1042000070470146086980B2704702460020536932
:104210000B400BB1012000E00020704701464869C7
:1042200080B2704701837047418370470AB10183B0
:1042300000E0418370474161704742694A404261F2
:104240007047F0B5002300244D07ED0E02FA05F388
:10425000CE1000F1200555F826504E07F70E0F2618
:10426000BE40B543CF1000F1200646F82750CE10CF
:1042700000F1200555F8265045EA0304CE1000F160
:10428000200545F82640F0BD000002400004024031
:1042900000080240000C02400010024000140240DE
:1042A00000180240001C024000200240FA4800684A
:1042B00040F00100F84908600020F7490831086023
:1042C000F5480068F5490840F3490860F448091DBD
:1042D0000860081F006820F48020091F0860002083
:1042E000ED490C31086070470021EB4A921C1170B7
:1042F00011460870704710B50146002200230020C7
:104300004A11012A02D1E44C236808E0022A03D1B1
:10431000E14C7034236802E0DF4C7434236801F010
:104320001F02012494401C400CB1012000E0002039
:1043300010BD38B5002000900024002500BF3120BA
:10434000FFF7D9FF05460098401C00900098B0F593
:10435000A06F01D0002DF2D03120FFF7CCFF08B1C3
:10436000012400E00024204638BD01460020CA4A4E
:10437000106820F0F80040EAC10010607047C94999
:10438000086070470021C44A703211701170012812
:1043900002D004280AD104E00121BF4A7032117012
:1043A00005E00521BC4A7032117000E000BF00BF7B
:1043B0007047BD490860704770B5049C41EA82159A
:1043C0000126C6EB530645EA0645054345EA046562
:1043D000B14E361D356070BDB24908667047820126
:1043E00042EA0172AC4B84331A607047AD4988666B
:1043F0007047AC49C864704702460020A64B08339A
:10440000186820F0EC6042EA01031843A24B08331D
:1044100018607047024600209F4B0833186820F050
:10442000784042EA010318439B4B083318607047F9
:1044300001460020984A0832106820F00300084323
:104440001060704794480830006800F00C00704716
:1044500001460020904A0832106820F0F00008431E
:1044600010607047014600208B4A0832106820F423
:10447000E05008431060704701460020864A083229
:10448000106820F4604040EAC10010607047F0B549
:104490000021002200240225002602237E4F083737
:1044A0003F6807F00C0121B1042905D0082937D154
:1044B00005E07E4F076036E07D4F076033E0764FC2
:1044C0003F1D3F68C7F38056734F3F1D3F6807F09D
:1044D0003F036EB1764FB7FBF3F7DFF8BCC10CF1C9
:1044E000040CDCF800C0CCF3881C07FB0CF40CE0D7
:1044F0006E4FB7FBF3F7DFF8A0C10CF1040CDCF84A
:1045000000C0CCF3881C07FB0CF4634F3F1D3F68D1
:10451000C7F301477F1C7D00B4FBF5F7076002E09D
:10452000624F076000BF00BF5B4F08373F6807F06E
:10453000F00109095F4F7A5C0768D7404760564F22
:1045400008373F6807F4E051890A5A4F7A5C476898
:10455000D7408760504F08373F6807F46041490BE8
:10456000544F7A5C4768D740C760F0BD002100F423
:104570004072B2F5407F0AD1474A0832116821F4EF
:10458000F8114D4A02401143434A08321160424A31
:1045900070321268C0F30B031A433F4B70331A603A
:1045A000704741494439086070473F4940390860C5
:1045B000704742490860704739B1374A3032126853
:1045C0000243354B30331A6006E0334A303212680A
:1045D0008243314B30331A60704739B12E4A34323E
:1045E000126802432C4B34331A6006E02A4A3432F4
:1045F00012688243284B34331A60704739B1264A17
:10460000383212680243244B38331A6006E0224ADB
:10461000383212688243204B38331A60704739B100
:104620001D4A4032126802431B4B40331A6006E0B9
:10463000194A403212688243174B40331A60704760
:1046400039B1154A443212680243134B44331A609D
:1046500006E0114A4432126882430F4B44331A6019
:10466000704739B10C4A1032126802430A4B1033BA
:104670001A6006E0084A103212688243064B103373
:104680001A607047E1B1044A143212680243024BC7
:1046900014331A6019E0000000380240FFFFF6FEF4
:1046A0001030002400004742800E47420024F400EE
:1046B00040787D0112000020FFFCFF0F5C014742A3
:1046C0005B4A126882435A4B1A60704739B1584AA4
:1046D000121D12680243564B1B1D1A6006E0544A15
:1046E000121D12688243524B1B1D1A60704739B16C
:1046F0004F4A0C32126802434D4B0C331A6006E0ED
:104700004B4A0C3212688243494B0C331A60704793
:1047100039B1474A103212680243454B10331A60D0
:1047200006E0434A103212688243414B10331A604C
:10473000704739B13E4A3C32126802433C4B3C332D
:104740001A6006E03A4A3C3212688243384B3C33E6
:104750001A60704739B1364A403212680243344B0E
:1047600040331A6006E0324A403212688243304BCE
:1047700040331A60704739B12D4A443212680243FF
:104780002B4B44331A6006E0294A443212688243B4
:10479000274B44331A60704739B1254A4C321268AE
:1047A0000243234B4C331A6006E0214A4C32126814
:1047B00082431F4B4C331A60704739B11C4A503248
:1047C000126802431A4B50331A6006E0184A5032FE
:1047D00012688243164B50331A60704739B1144A3D
:1047E000D21F12780243124BDB1F1A7006E0104AE8
:1047F000D21F127882430E4BDB1F1A7070470C4891
:104800006030006840F0807009496031086070478E
:1048100001460020064A083A12680A400AB10120FF
:1048200000E0002070470249891F087070470000AF
:104830001438024010B50446FE48844208D10121D4
:104840000846FFF765FF00210120FFF761FF9DE0AB
:10485000B4F1804F08D101210846FFF748FF00213D
:104860000120FFF744FF91E0F348844208D1012181
:104870000220FFF73CFF00210220FFF738FF85E010
:10488000EE48844208D101210420FFF730FF0021C7
:104890000420FFF72CFF79E0E948844208D1012188
:1048A0000820FFF724FF00210820FFF720FF6DE01C
:1048B000E448844208D101211020FFF718FF0021AD
:1048C0001020FFF714FF61E0DF48844208D1012186
:1048D0002020FFF70CFF00212020FFF708FF55E004
:1048E000DA48844208D101210220FFF711FF00219C
:1048F0000220FFF70DFF49E0D548844209D101218C
:104900000804FFF705FF00214FF48030FFF700FF98
:104910003CE0D048844209D101214804FFF7F8FE69
:1049200000214FF40030FFF7F3FE2FE0CA48844225
:1049300009D101218804FFF7EBFE00214FF480200C
:10494000FFF7E6FE22E0C548844208D1012140205D
:10495000FFF7CDFE00214020FFF7C9FE16E0C0485A
:10496000844208D101218020FFF7C1FE0021802070
:10497000FFF7BDFE0AE0BB48844207D10121801544
:10498000FFF7B5FE0021A015FFF7B1FE10BD002214
:104990000288A84B98420ED0AC4B98420BD0B0F195
:1049A000804F08D0A44B984205D0A44B984202D027
:1049B000A34B984204D14FF68F731A404B881A4389
:1049C000A04B984207D0A04B984204D04FF6FF432B
:1049D0001A400B891A4302804B68C3620B88038517
:1049E000944B984202D0994B984201D18B7A03861E
:1049F0000123838270474FF0FF3141600021018025
:104A000001814180817270470185828270470A4628
:104A1000002101884FF68F731940114301807047C0
:104A200041627047C16270470146486A704701465B
:104A3000088D704721B1028842F00202028004E032
:104A400002884FF6FD731A400280704721B1028838
:104A500042F00402028004E002884FF6FB731A4021
:104A60000280704721B1028842F08002028004E097
:104A700002884FF67F731A400280704702884FF613
:104A8000F7731A40028002880A4302807047028846
:104A90004FF6FF431A40028002880A4302807047A3
:104AA00021B1028842F00102028004E002884FF640
:104AB000FE731A400280704770B500240022002364
:104AC000058C4FF6FE7635400584028C8388048B76
:104AD0004FF68F752C40B51E2C400D882C43751E4B
:104AE0002A408D892A434D882A43524DA84202D03C
:104AF000564DA84213D14FF6F7752A40CD892A4367
:104B00004FF6FB752A408D882A434FF6FF652B40F0
:104B10004FF6FF552B400D8A2B434D8A2B43838044
:104B200004838D684563028470BD70B50024002243
:104B30000023058C4FF6EF7635400584028C838880
:104B4000048B48F6FF752C404FF6FF452C400D882E
:104B50004FF6FF7606EA05252C434FF6DF752A400F
:104B60008D8906EA05152A434D8806EA05152A436C
:104B7000304DA84202D0354DA8421DD14FF67F7569
:104B80002A40CD894FF6FF7606EA05152A434FF6EF
:104B9000BF752A408D8806EA05152A434FF6FF3572
:104BA0002B404FF2FF752B400D8A06EA85052B43FB
:104BB0004D8A06EA85052B43838004838D688563CF
:104BC000028470BD70B5002400220023058C4FF6CE
:104BD000FF6635400584028C8388848B4FF68F7581
:104BE0002C404FF6FC752C400D882C434FF6FF559A
:104BF0002A408D894FF6FF7606EA05252A434D881F
:104C000006EA05252A430B4DA84202D00F4DA842C3
:104C100038D14FF2FF752A40CD894FF6FF7606EA6C
:104C200005252A434FF6FF352A408D8806EA0525DB
:104C30002A4319E000000140000400400008004041
:104C4000000C00400010004000140040000401402F
:104C5000004001400044014000480140001800406D
:104C6000001C0040002000404EF6FF752B404DF622
:104C7000FF752B400D8A06EA05152B434D8A06EA7F
:104C800005152B43838084838D68C563028470BDC2
:104C900070B5002200230024058C4EF6FF763540C7
:104CA0000584038C8488828B48F6FF752A404FF672
:104CB000FF452A400D884FF6FF7606EA05252A4370
:104CC0004DF6FF752B408D8906EA05352B434D883F
:104CD00006EA05352B43FE4DA84202D0FD4DA84201
:104CE00008D14BF6FF752C400D8A4FF6FF7606EA89
:104CF00085152C43848082838D680564038470BD90
:104D0000002101804180818081608181C181018297
:104D10004182704770B503460020002418461830C1
:104D200001258D40ACB21D8CA5431D8409B1082915
:104D30000AD100EB610005684FF68F7635400560BB
:104D40000568154305600FE00D1FC5F34E052844A7
:104D5000056848F6FF763540056005684FF6FF7632
:104D600006EA02263543056070BD416370478163E2
:104D70007047C1637047016470470A460021018B88
:104D80004FF68F7319401143018370470A46002183
:104D9000018B48F6FF7319404FF6FF7303EA0223B5
:104DA0001943018370470A460021818B4FF68F73A8
:104DB00019401143818370470A460021818B48F6D0
:104DC000FF7319404FF6FF7303EA022319438183EF
:104DD00070470A460021018B4FF6F77319401143C3
:104DE000018370470A460021018B4FF2FF7319407F
:104DF0004FF6FF7303EA02231943018370470A4603
:104E00000021818B4FF6F77319401143818370475E
:104E10000A460021818B4FF2FF7319404FF6FF7352
:104E200003EA02231943818370470A460021018B5C
:104E30004FF6FB7319401143018370470A46002166
:104E4000018B4FF6FF3319404FF6FF7303EA02233D
:104E50001943018370470A460021818B4FF6FB738B
:104E600019401143818370470A460021818B4FF618
:104E7000FF3319404FF6FF7303EA0223194381837E
:104E800070470A460021018B4FF67F73194011438A
:104E9000018370470A460021018BC1F30E014FF6D2
:104EA000FF7303EA02231943018370470A46002176
:104EB000818B4FF67F7319401143818370470A46F7
:104EC0000021818BC1F30E014FF6FF7303EA022329
:104ED0001943818370470A460021018C4FF6FD7308
:104EE00019401143018470470A460021018C4FF696
:104EF000F77319401143018470470A460021018C61
:104F00004FF6DF7319404FF6FF7303EA021319439C
:104F1000018470470A460021018C4FF67F731940C7
:104F20004FF6FF7303EA02131943018470470A46E0
:104F30000021018C4FF6FF5319404FF6FF7303EA2F
:104F400002231943018470470A460021018C4FF265
:104F5000FF7319404FF6FF7303EA022319430184DC
:104F600070470A460021018C4DF6FF7319404FF639
:104F7000FF7303EA023319430184704730B50023FD
:104F800001248C40A3B2048C9C430484048C02FA58
:104F900001F5ADB22C43048430BD30B500230424A8
:104FA0008C40A3B2048C9C430484048C02FA01F567
:104FB000ADB22C43048430BD828B4FF2FF331A40D4
:104FC0008283828B4FF6FF7303EA01231A438283A5
:104FD0007047F0B50C461546002100220026078CCC
:104FE0004EF6FF7C07EA0C070784818B028C4FF694
:104FF000FF7707EA043640F6FF4739404FF6FF7760
:1050000007EA052739434FF6FF7707EA03373943A5
:1050100045F6FF773A4046F480573A43818302844D
:10502000F0BD828B4FF6F3731A408283828B0A4362
:1050300082837047F0B50C461546002100220026F9
:10504000078C4FF6FF6C07EA0C070784818B028CF4
:105050004FF6FF7707EA04264FF60C7739404FF6F4
:10506000FF7707EA03172F4339434FF2FF573A40C0
:1050700046F480773A4381830284F0BD028B4FF27D
:10508000FF331A400283028B4FF6FF7303EA0123BA
:105090001A4302837047F0B50C46154600210022E2
:1050A0000026078C4FF6EF7C07EA0C070784018B7C
:1050B000028C4FF6FF7707EA041640F6FF473940A7
:1050C0004FF6FF7707EA033739434FF6FF7703E0E0
:1050D000000001400004014007EA052739434FF66C
:1050E0005F773A4046F010073A4301830284F0BDEF
:1050F000028B4FF6F3731A400283028B0A4302833A
:105100007047F0B50C46154600210022068C4FF67C
:10511000FE773E400684018B028C4FF60C763140C0
:105120007E1C06EA03162E4331434FF6F5763240D5
:1051300044F00106324301830284F0BD70B5054698
:105140000C46208850B92389A28861882846FFF739
:10515000D8FFE1882846FFF7CBFF25E02088042808
:105160000AD12389A28861882846FFF794FFE18845
:105170002846FFF783FF17E0208808280AD12389F3
:10518000A28861882846FFF755FFE1882846FFF787
:1051900048FF09E02389A28861882846FFF719FFA4
:1051A000E1882846FFF708FF70BD0021018041809B
:1051B000012181800021C180018170472DE9F041EA
:1051C00005460C4600260127608808B9022600E043
:1051D0000026A088012801D1022700E001272088AD
:1051E000A0B92389A28861882846FFF78AFFE18851
:1051F0002846FFF77DFF23893A4631462846FFF7C8
:105200004AFFE1882846FFF739FF13E02389A28887
:1052100061882846FFF73FFFE1882846FFF72EFF09
:1052200023893A4631462846FFF76BFFE188284636
:10523000FFF75EFFBDE8F0810146486B704701460D
:10524000886B70470146C86B70470146086C704711
:105250000A884B881A438B881A43CB881A430B89D8
:105260001A434B891A438B891A43A0F8442070478C
:105270000021018041808180C18001814181818143
:10528000704731B1B0F8442042F40042A0F8442005
:1052900005E0B0F84420C2F30E02A0F844207047A5
:1052A00021B1828842F00402828004E082884FF6B5
:1052B000FB731A408280704721B1828842F001025C
:1052C000828004E082884FF6FE731A408280704725
:1052D0001AB183890B43838102E083898B438381E5
:1052E00070478182704702460020138A0B400BB141
:1052F000012000E000207047CA430282704730B5A9
:105300000246002000230024158A05EA010395893E
:1053100005EA010413B10CB1012000E0002030BD0A
:10532000CA430282704741EA0203A0F8483070473E
:105330001AB183890B43838102E083898B43838184
:10534000704721B1828842F00802828004E082889E
:105350004FF6F7731A408280704701894FF6F87252
:105360001140018170470A46002101894FF68F7371
:10537000194011430181704730B504460D46294656
:105380002046FFF7F0FF208940F00700208130BD64
:105390002DE9F04104460D4616461F46602D06D104
:1053A0003B46012231462046FFF775FE05E03B46AD
:1053B000012231462046FFF7A4FE29462046FFF78A
:1053C000D2FF208940F007002081BDE8F08130B590
:1053D0000C4600210189C9B24FF6FF7505EA032585
:1053E000154325432943018130BD2DE9F041054690
:1053F0000E4617469846002443463A46314628460C
:10540000FFF7E5FF2C894FF6F870044044F00704DD
:105410004FF68F70044044F070042C81BDE8F08199
:10542000F0B504460D4616461F463B463246294611
:105430002046FFF7CCFF208940F480402081F0BD5A
:1054400082884FF68F731A40828082880A43828056
:10545000704702894FF6F8731A40028102890A43A5
:105460000281704702894FF67F731A4002810289D8
:105470000A4302817047F0B50C4615461E460021CE
:10548000002200230189028B038C4FF6F877394004
:1054900021434FF6FC473A4040F201173A434FF69A
:1054A000DD773B404FF6FF7707EA06172F433B4374
:1054B000018102830384F0BD21B1828842F0800221
:1054C000828004E082884FF67F731A4082807047A2
:1054D000A0F850107047000010B50446F748844209
:1054E00008D101211020FFF713F900211020FFF748
:1054F0000FF93EE0F248844209D101214804FFF748
:10550000F6F800214FF40030FFF7F1F831E0ED48F4
:10551000844209D101218804FFF7E9F800214FF402
:105520008020FFF7E4F824E0E748844209D1012114
:10553000C804FFF7DCF800214FF40020FFF7D7F88C
:1055400017E0E248844209D101210805FFF7CFF8AE
:1055500000214FF48010FFF7CAF80AE0DC488442CB
:1055600007D101212020FFF7D3F800212020FFF7E9
:10557000CFF810BD2DE9FF4705460E460024A14691
:1055800000BFA046B08900B100BF2C8A24F440546B
:10559000F08804432C82AC8941F20C608443B088CB
:1055A00031890843718908430443AC81AC8A24F4EF
:1055B0004074B0890443AC826846FEF768FFBF4878
:1055C000854202D0C248854202D1DDF80C9001E04C
:1055D000DDF80890A88900F4004040B109EBC9004B
:1055E00000EB091031684900B0FBF1F707E009EB67
:1055F000C90000EB091031688900B0FBF1F76420A5
:10560000B7FBF0F004012009642101FB1078A889A0
:1056100000F4004040B1322000EBC800B0FBF1F0D4
:1056200000F00700044308E0322000EB081064217A
:10563000B0FBF1F000F00F0004432C81BDE8FF87C0
:105640004FF41651016000218180C18001810C213D
:10565000418100218181704710B502460020108AE7
:1056600020F470600B884C8823438C882343CC88BB
:1056700023431843108210BD0021018041808180A6
:10568000C180704721B1828942F40052828104E0D6
:1056900082894DF6FF731A4082817047028B02F4B3
:1056A0007F420283028B0A430283704721B18289C1
:1056B00042F40042828103E08289C2F30E028281B9
:1056C000704721B1828A42F40062828204E0828AB9
:1056D0004FF2FF731A4082827047C1F30802828042
:1056E000704701468888C0F308007047028A4FF669
:1056F000F0731A400282028A0A430282704721B183
:10570000828942F00202828104E082894FF6FD73B1
:105710001A408281704782894FF2FF731A4082815A
:1057200082890A4382817047028A4FF6DF731A40EA
:105730000282028A0A430282704721B1028A42F43D
:105740008042028204E0028A4BF6FF731A40028212
:105750007047818941F001018181704721B1828ABE
:1057600042F00802828204E0828A4FF6F7731A4000
:1057700082827047028BD2B20283028B42EA0122FC
:105780000283704721B1828A42F02002828204E0C3
:10579000828A4FF6DF731A408282704721B1828A73
:1057A00042F01002828204E0828A4FF6EF731A40C0
:1057B00082827047828A4FF6FB731A408282828A05
:1057C0000A438282704721B1828A42F002028282B9
:1057D00004E0828A4FF6FD731A40828270471AB144
:1057E000838A0B43838202E0838A8B4383827047E0
:1057F000F0B50346002400260025002040F66A1775
:10580000B94200D100BF1846C1F3421401F01F068F
:10581000012707FA06F5012C01D10C3004E0022C17
:1058200001D1103000E014301AB107682F4307602F
:1058300002E00768AF430760F0BD02460020B1F503
:10584000007F00D100BF13880B400BB1012000E0A6
:105850000020704701F40072B2F5007F00D100BF54
:10586000CA430280704770B5024600240023002519
:10587000002040F66A16B14200D100BFC1F34215C4
:1058800001F01F03012606FA03F3012D02D19689C8
:10589000334006E0022D02D1168A334001E0968A99
:1058A00033400C12012606FA04F41688344013B172
:1058B0000CB1012000E0002070BD0000001001408C
:1058C0000044004000480040004C004000500040B0
:1058D0000014014010B50022002340F66A14A142D2
:1058E00000D100BF0A1201249440A3B2DC4304801B
:1058F00010BD00000CB500200190009076480068B3
:1059000040F480307449086000BF7348006800F4B8
:10591000003000900198401C0190009818B901983F
:10592000B0F5A06FF1D16C48006800F4003010B100
:105930000120009001E0002000900098012846D14D
:1059400065484030006840F080506349403108604D
:105950006248006840F48040604908605E48083052
:1059600000685D49083108600846006840F400405E
:1059700008600846006840F4A05008605848091FB5
:105980000860081F006840F08070091F086000BFB1
:105990005148006800F000700028F9D040F205601E
:1059A000504908604C480830006820F003004A491C
:1059B000083108600846006840F00200086000BF37
:1059C00045480830006800F00C000828F8D10CBDEC
:1059D00010B54548006840F47000434908603E48EF
:1059E000006840F001003C49086000203A49083155
:1059F0000860394800683D490840374908603C481C
:105A0000091D0860081F006820F48020091F086035
:105A1000002031490C310860FFF76CFF4FF0006047
:105A200031498039086010BD70B500200022022382
:105A300000240221284D08352D6805F00C0020B106
:105A4000042806D0082834D107E02A4D2A4E3560B4
:105A500033E02A4D284E35602FE01F4D2D1D2D6857
:105A6000C5F380541C4D2D1D2D6805F03F0154B128
:105A7000224DB5FBF1F5184E361D3668C6F3881673
:105A800005FB06F209E01B4DB5FBF1F5124E361D84
:105A90003668C6F3881605FB06F20F4D2D1D2D68DE
:105AA000C5F301456D1C6B00B2FBF3F5124E35607A
:105AB00003E0104D104E356000BF00BF064D0835A5
:105AC0002D68C5F303150E4E705D0B4D2D68C54056
:105AD000094E356070BD0000003802400070004083
